{
  "_format": "hh-sol-artifact-1",
  "contractName": "OrderBookFlashLender",
  "sourceName": "contracts/orderbook/OrderBookFlashLender.sol",
  "abi": [
    {
      "inputs": [],
      "name": "CALLBACK_SUCCESS",
      "outputs": [
        {
          "internalType": "bytes32",
          "name": "",
          "type": "bytes32"
        }
      ],
      "stateMutability": "view",
      "type": "function"
    },
    {
      "inputs": [
        {
          "internalType": "address",
          "name": "",
          "type": "address"
        },
        {
          "internalType": "uint256",
          "name": "",
          "type": "uint256"
        }
      ],
      "name": "flashFee",
      "outputs": [
        {
          "internalType": "uint256",
          "name": "",
          "type": "uint256"
        }
      ],
      "stateMutability": "pure",
      "type": "function"
    },
    {
      "inputs": [
        {
          "internalType": "contract IERC3156FlashBorrower",
          "name": "receiver_",
          "type": "address"
        },
        {
          "internalType": "address",
          "name": "token_",
          "type": "address"
        },
        {
          "internalType": "uint256",
          "name": "amount_",
          "type": "uint256"
        },
        {
          "internalType": "bytes",
          "name": "data_",
          "type": "bytes"
        }
      ],
      "name": "flashLoan",
      "outputs": [
        {
          "internalType": "bool",
          "name": "",
          "type": "bool"
        }
      ],
      "stateMutability": "nonpayable",
      "type": "function"
    },
    {
      "inputs": [
        {
          "internalType": "address",
          "name": "token_",
          "type": "address"
        }
      ],
      "name": "maxFlashLoan",
      "outputs": [
        {
          "internalType": "uint256",
          "name": "",
          "type": "uint256"
        }
      ],
      "stateMutability": "view",
      "type": "function"
    }
  ],
  "bytecode": "0x608060405234801561001057600080fd5b50610b96806100206000396000f3fe608060405234801561001057600080fd5b506004361061004c5760003560e01c80635cffe9de14610051578063613255ab146100795780638237e5381461009a578063d9d98ce4146100c1575b600080fd5b61006461005f3660046108d1565b6100d7565b60405190151581526020015b60405180910390f35b61008c610087366004610970565b610228565b604051908152602001610070565b61008c7f439148f0bbc682ca079e46d6e2c2f0c1e3b820f1a291b069d8882abf8cf18dd981565b61008c6100cf36600461098d565b600092915050565b60006100e48587866102bf565b6040517f23e30c8b0000000000000000000000000000000000000000000000000000000081527f439148f0bbc682ca079e46d6e2c2f0c1e3b820f1a291b069d8882abf8cf18dd99073ffffffffffffffffffffffffffffffffffffffff8816906323e30c8b906101639033908a908a906000908b908b906004016109b9565b6020604051808303816000875af1158015610182573d6000803e3d6000fd5b505050506040513d601f19601f820116820180604052508101906101a69190610a3f565b14610212576040517f08c379a000000000000000000000000000000000000000000000000000000000815260206004820152601c60248201527f466c6173684c656e6465723a2043616c6c6261636b206661696c65640000000060448201526064015b60405180910390fd5b61021c858761032d565b50600195945050505050565b6040517f70a0823100000000000000000000000000000000000000000000000000000000815230600482015260009073ffffffffffffffffffffffffffffffffffffffff8316906370a0823190602401602060405180830381865afa158015610295573d6000803e3d6000fd5b505050506040513d601f19601f820116820180604052508101906102b99190610a3f565b92915050565b73ffffffffffffffffffffffffffffffffffffffff80841660009081526020818152604080832093861683529290529081208054839290610301908490610a87565b90915550610328905073ffffffffffffffffffffffffffffffffffffffff84168383610466565b505050565b73ffffffffffffffffffffffffffffffffffffffff8083166000908152602081815260408083209385168352929052205480156103ce5761038673ffffffffffffffffffffffffffffffffffffffff841683308461053a565b73ffffffffffffffffffffffffffffffffffffffff808416600090815260208181526040808320938616835292905290812080548392906103c8908490610a9a565b90915550505b73ffffffffffffffffffffffffffffffffffffffff8084166000908152602081815260408083209386168352929052205415610328576040517f08c379a000000000000000000000000000000000000000000000000000000000815260206004820152600860248201527f4241445f444542540000000000000000000000000000000000000000000000006044820152606401610209565b60405173ffffffffffffffffffffffffffffffffffffffff83166024820152604481018290526103289084907fa9059cbb00000000000000000000000000000000000000000000000000000000906064015b604080517fffffffffffffffffffffffffffffffffffffffffffffffffffffffffffffffe08184030181529190526020810180517bffffffffffffffffffffffffffffffffffffffffffffffffffffffff167fffffffff000000000000000000000000000000000000000000000000000000009093169290921790915261059e565b60405173ffffffffffffffffffffffffffffffffffffffff808516602483015283166044820152606481018290526105989085907f23b872dd00000000000000000000000000000000000000000000000000000000906084016104b8565b50505050565b6000610600826040518060400160405280602081526020017f5361666545524332303a206c6f772d6c6576656c2063616c6c206661696c65648152508573ffffffffffffffffffffffffffffffffffffffff166106aa9092919063ffffffff16565b805190915015610328578080602001905181019061061e9190610aad565b610328576040517f08c379a000000000000000000000000000000000000000000000000000000000815260206004820152602a60248201527f5361666545524332303a204552433230206f7065726174696f6e20646964206e60448201527f6f742073756363656564000000000000000000000000000000000000000000006064820152608401610209565b60606106b984846000856106c3565b90505b9392505050565b606082471015610755576040517f08c379a000000000000000000000000000000000000000000000000000000000815260206004820152602660248201527f416464726573733a20696e73756666696369656e742062616c616e636520666f60448201527f722063616c6c00000000000000000000000000000000000000000000000000006064820152608401610209565b73ffffffffffffffffffffffffffffffffffffffff85163b6107d3576040517f08c379a000000000000000000000000000000000000000000000000000000000815260206004820152601d60248201527f416464726573733a2063616c6c20746f206e6f6e2d636f6e74726163740000006044820152606401610209565b6000808673ffffffffffffffffffffffffffffffffffffffff1685876040516107fc9190610af3565b60006040518083038185875af1925050503d8060008114610839576040519150601f19603f3d011682016040523d82523d6000602084013e61083e565b606091505b509150915061084e828286610859565b979650505050505050565b606083156108685750816106bc565b8251156108785782518084602001fd5b816040517f08c379a00000000000000000000000000000000000000000000000000000000081526004016102099190610b0f565b73ffffffffffffffffffffffffffffffffffffffff811681146108ce57600080fd5b50565b6000806000806000608086880312156108e957600080fd5b85356108f4816108ac565b94506020860135610904816108ac565b935060408601359250606086013567ffffffffffffffff8082111561092857600080fd5b818801915088601f83011261093c57600080fd5b81358181111561094b57600080fd5b89602082850101111561095d57600080fd5b9699959850939650602001949392505050565b60006020828403121561098257600080fd5b81356106bc816108ac565b600080604083850312156109a057600080fd5b82356109ab816108ac565b946020939093013593505050565b600073ffffffffffffffffffffffffffffffffffffffff808916835280881660208401525085604083015284606083015260a060808301528260a0830152828460c0840137600060c0848401015260c07fffffffffffffffffffffffffffffffffffffffffffffffffffffffffffffffe0601f8501168301019050979650505050505050565b600060208284031215610a5157600080fd5b5051919050565b7f4e487b7100000000000000000000000000000000000000000000000000000000600052601160045260246000fd5b808201808211156102b9576102b9610a58565b818103818111156102b9576102b9610a58565b600060208284031215610abf57600080fd5b815180151581146106bc57600080fd5b60005b83811015610aea578181015183820152602001610ad2565b50506000910152565b60008251610b05818460208701610acf565b9190910192915050565b6020815260008251806020840152610b2e816040850160208701610acf565b601f017fffffffffffffffffffffffffffffffffffffffffffffffffffffffffffffffe016919091016040019291505056fea26469706673582212204a0f7f53dbf339b46462d2d230d161c0e1c6b87e3513206a88df7debba7cf41a64736f6c63430008110033",
  "linkReferences": {},
  "deployedLinkReferences": {}
}