{
  "abi": [
    {
      "inputs": [],
      "stateMutability": "nonpayable",
      "type": "constructor"
    },
    {
      "inputs": [
        {
          "internalType": "address",
          "name": "badInitiator",
          "type": "address"
        }
      ],
      "name": "BadInitiator",
      "type": "error"
    },
    {
      "inputs": [
        {
          "internalType": "address",
          "name": "badLender",
          "type": "address"
        }
      ],
      "name": "BadLender",
      "type": "error"
    },
    {
      "inputs": [],
      "name": "FlashLoanFailed",
      "type": "error"
    },
    {
      "inputs": [],
      "name": "Initializing",
      "type": "error"
    },
    {
      "inputs": [
        {
          "internalType": "uint256",
          "name": "i",
          "type": "uint256"
        }
      ],
      "name": "InvalidSignature",
      "type": "error"
    },
    {
      "inputs": [
        {
          "internalType": "uint256",
          "name": "minimum",
          "type": "uint256"
        },
        {
          "internalType": "uint256",
          "name": "actual",
          "type": "uint256"
        }
      ],
      "name": "MinimumOutput",
      "type": "error"
    },
    {
      "anonymous": false,
      "inputs": [
        {
          "indexed": false,
          "internalType": "address",
          "name": "sender",
          "type": "address"
        },
        {
          "components": [
            {
              "internalType": "address",
              "name": "orderBook",
              "type": "address"
            },
            {
              "internalType": "address",
              "name": "zeroExExchangeProxy",
              "type": "address"
            },
            {
              "components": [
                {
                  "internalType": "contract IExpressionDeployerV1",
                  "name": "deployer",
                  "type": "address"
                },
                {
                  "internalType": "bytes[]",
                  "name": "sources",
                  "type": "bytes[]"
                },
                {
                  "internalType": "uint256[]",
                  "name": "constants",
                  "type": "uint256[]"
                }
              ],
              "internalType": "struct EvaluableConfig",
              "name": "evaluableConfig",
              "type": "tuple"
            }
          ],
          "indexed": false,
          "internalType": "struct ZeroExOrderBookFlashBorrowerConfig",
          "name": "config",
          "type": "tuple"
        }
      ],
      "name": "Initialize",
      "type": "event"
    },
    {
      "anonymous": false,
      "inputs": [
        {
          "indexed": false,
          "internalType": "uint8",
          "name": "version",
          "type": "uint8"
        }
      ],
      "name": "Initialized",
      "type": "event"
    },
    {
      "stateMutability": "nonpayable",
      "type": "fallback"
    },
    {
      "inputs": [
        {
          "components": [
            {
              "internalType": "address",
              "name": "output",
              "type": "address"
            },
            {
              "internalType": "address",
              "name": "input",
              "type": "address"
            },
            {
              "internalType": "uint256",
              "name": "minimumInput",
              "type": "uint256"
            },
            {
              "internalType": "uint256",
              "name": "maximumInput",
              "type": "uint256"
            },
            {
              "internalType": "uint256",
              "name": "maximumIORatio",
              "type": "uint256"
            },
            {
              "components": [
                {
                  "components": [
                    {
                      "internalType": "address",
                      "name": "owner",
                      "type": "address"
                    },
                    {
                      "internalType": "bool",
                      "name": "handleIO",
                      "type": "bool"
                    },
                    {
                      "components": [
                        {
                          "internalType": "contract IInterpreterV1",
                          "name": "interpreter",
                          "type": "address"
                        },
                        {
                          "internalType": "contract IInterpreterStoreV1",
                          "name": "store",
                          "type": "address"
                        },
                        {
                          "internalType": "address",
                          "name": "expression",
                          "type": "address"
                        }
                      ],
                      "internalType": "struct Evaluable",
                      "name": "evaluable",
                      "type": "tuple"
                    },
                    {
                      "components": [
                        {
                          "internalType": "address",
                          "name": "token",
                          "type": "address"
                        },
                        {
                          "internalType": "uint8",
                          "name": "decimals",
                          "type": "uint8"
                        },
                        {
                          "internalType": "uint256",
                          "name": "vaultId",
                          "type": "uint256"
                        }
                      ],
                      "internalType": "struct IO[]",
                      "name": "validInputs",
                      "type": "tuple[]"
                    },
                    {
                      "components": [
                        {
                          "internalType": "address",
                          "name": "token",
                          "type": "address"
                        },
                        {
                          "internalType": "uint8",
                          "name": "decimals",
                          "type": "uint8"
                        },
                        {
                          "internalType": "uint256",
                          "name": "vaultId",
                          "type": "uint256"
                        }
                      ],
                      "internalType": "struct IO[]",
                      "name": "validOutputs",
                      "type": "tuple[]"
                    }
                  ],
                  "internalType": "struct Order",
                  "name": "order",
                  "type": "tuple"
                },
                {
                  "internalType": "uint256",
                  "name": "inputIOIndex",
                  "type": "uint256"
                },
                {
                  "internalType": "uint256",
                  "name": "outputIOIndex",
                  "type": "uint256"
                },
                {
                  "components": [
                    {
                      "internalType": "address",
                      "name": "signer",
                      "type": "address"
                    },
                    {
                      "internalType": "uint256[]",
                      "name": "context",
                      "type": "uint256[]"
                    },
                    {
                      "internalType": "bytes",
                      "name": "signature",
                      "type": "bytes"
                    }
                  ],
                  "internalType": "struct SignedContextV1[]",
                  "name": "signedContext",
                  "type": "tuple[]"
                }
              ],
              "internalType": "struct TakeOrderConfig[]",
              "name": "orders",
              "type": "tuple[]"
            }
          ],
          "internalType": "struct TakeOrdersConfig",
          "name": "takeOrders_",
          "type": "tuple"
        },
        {
          "internalType": "uint256",
          "name": "minimumSenderOutput_",
          "type": "uint256"
        },
        {
          "internalType": "address",
          "name": "zeroExSpender_",
          "type": "address"
        },
        {
          "internalType": "bytes",
          "name": "zeroExData_",
          "type": "bytes"
        }
      ],
      "name": "arb",
      "outputs": [],
      "stateMutability": "nonpayable",
      "type": "function"
    },
    {
      "inputs": [
        {
          "internalType": "bytes",
          "name": "data_",
          "type": "bytes"
        }
      ],
      "name": "initialize",
      "outputs": [],
      "stateMutability": "nonpayable",
      "type": "function"
    },
    {
      "inputs": [
        {
          "internalType": "address",
          "name": "initiator_",
          "type": "address"
        },
        {
          "internalType": "address",
          "name": "",
          "type": "address"
        },
        {
          "internalType": "uint256",
          "name": "",
          "type": "uint256"
        },
        {
          "internalType": "uint256",
          "name": "",
          "type": "uint256"
        },
        {
          "internalType": "bytes",
          "name": "data_",
          "type": "bytes"
        }
      ],
      "name": "onFlashLoan",
      "outputs": [
        {
          "internalType": "bytes32",
          "name": "",
          "type": "bytes32"
        }
      ],
      "stateMutability": "nonpayable",
      "type": "function"
    },
    {
      "inputs": [],
      "name": "orderBook",
      "outputs": [
        {
          "internalType": "contract IOrderBookV2",
          "name": "",
          "type": "address"
        }
      ],
      "stateMutability": "view",
      "type": "function"
    },
    {
      "inputs": [],
      "name": "zeroExExchangeProxy",
      "outputs": [
        {
          "internalType": "address",
          "name": "",
          "type": "address"
        }
      ],
      "stateMutability": "view",
      "type": "function"
    }
  ],
  "bytecode": {
    "object": "0x60806040523480156200001157600080fd5b5060016000556200002162000027565b620000e9565b600154610100900460ff1615620000945760405162461bcd60e51b815260206004820152602760248201527f496e697469616c697a61626c653a20636f6e747261637420697320696e697469604482015266616c697a696e6760c81b606482015260840160405180910390fd5b60015460ff9081161015620000e7576001805460ff191660ff9081179091556040519081527f7f26b83ff96e1f2b6a682f133852f6798a09c465da95921460cefb38474024989060200160405180910390a15b565b6134ab80620000f96000396000f3fe608060405234801561001057600080fd5b50600436106100675760003560e01c8063776af5ba11610050578063776af5ba146100e457806391511a421461012f578063b94493321461014f57610067565b806323e30c8b146100ab578063439fab91146100d1575b600154610100900460ff16156100a9576040517f4e8f6c4400000000000000000000000000000000000000000000000000000000815260040160405180910390fd5b005b6100be6100b9366004611d38565b610162565b6040519081526020015b60405180910390f35b6100a96100df366004611f60565b61037e565b60015461010a9062010000900473ffffffffffffffffffffffffffffffffffffffff1681565b60405173ffffffffffffffffffffffffffffffffffffffff90911681526020016100c8565b60025461010a9073ffffffffffffffffffffffffffffffffffffffff1681565b6100a961015d366004611f95565b61078f565b600154600090610100900460ff16156101a7576040517f4e8f6c4400000000000000000000000000000000000000000000000000000000815260040160405180910390fd5b60015462010000900473ffffffffffffffffffffffffffffffffffffffff163314610205576040517f0bc3cde00000000000000000000000000000000000000000000000000000000081523360048201526024015b60405180910390fd5b73ffffffffffffffffffffffffffffffffffffffff8716301461026c576040517f8b1f7c6400000000000000000000000000000000000000000000000000000000815273ffffffffffffffffffffffffffffffffffffffff881660048201526024016101fc565b60008061027b848601866122e2565b60025491935091506000906102a79073ffffffffffffffffffffffffffffffffffffffff168347610dfb565b6001546040517f7a8048df000000000000000000000000000000000000000000000000000000008152919250600091829162010000900473ffffffffffffffffffffffffffffffffffffffff1690637a8048df90610309908890600401612719565b60408051808303816000875af1158015610327573d6000803e3d6000fd5b505050506040513d601f19601f8201168201806040525081019061034b91906128b1565b507f439148f0bbc682ca079e46d6e2c2f0c1e3b820f1a291b069d8882abf8cf18dd99d9c50505050505050505050505050565b600154610100900460ff161580801561039b57506001805460ff16105b806103b45750303b1580156103b457506001805460ff16145b610440576040517f08c379a000000000000000000000000000000000000000000000000000000000815260206004820152602e60248201527f496e697469616c697a61626c653a20636f6e747261637420697320616c72656160448201527f647920696e697469616c697a656400000000000000000000000000000000000060648201526084016101fc565b600180547fffffffffffffffffffffffffffffffffffffffffffffffffffffffffffffff001681179055801561049d57600180547fffffffffffffffffffffffffffffffffffffffffffffffffffffffffffff00ff166101001790555b6104a5610e2b565b6000828060200190518101906104bb9190612930565b8051600180547fffffffffffffffffffff0000000000000000000000000000000000000000ffff166201000073ffffffffffffffffffffffffffffffffffffffff938416021790556020820151600280547fffffffffffffffffffffffff000000000000000000000000000000000000000016919092161790556040519091507f7c911b2796549101f28f35bc2f844ff2b78347bf41cb4a0303cb8c5adb1be8ed9061056a9033908490612b18565b60405180910390a16000816040015160200151511180156105ae575060008160400151602001516000815181106105a3576105a3612bc8565b602002602001015151115b1561071e5760408051600180825281830190925260009182919060208083019080368337019050509050600081600061ffff16815181106105f1576105f1612bc8565b6020908102919091018101919091526040808501518051928101519082015191517f5511cb6700000000000000000000000000000000000000000000000000000000815273ffffffffffffffffffffffffffffffffffffffff90931692635511cb679261066392918690600401612bf7565b6060604051808303816000875af1158015610682573d6000803e3d6000fd5b505050506040513d601f19601f820116820180604052508101906106a69190612c30565b600480547fffffffffffffffffffffffff000000000000000000000000000000000000000090811673ffffffffffffffffffffffffffffffffffffffff94851617909155600380549091169390921692909217905560201b77ffffffffffffffffffffffffffffffffffffffff000000001660055550505b506107296001600055565b801561078b57600180547fffffffffffffffffffffffffffffffffffffffffffffffffffffffffffff00ff1681556040519081527f7f26b83ff96e1f2b6a682f133852f6798a09c465da95921460cefb38474024989060200160405180910390a15b5050565b610797610e2b565b600154610100900460ff16156107d9576040517f4e8f6c4400000000000000000000000000000000000000000000000000000000815260040160405180910390fd5b60008583836040516020016107f093929190612f70565b6040516020818303038152906040529050600086602001602081019061081691906131e0565b6005549091506040880135908015610a1f57600354600454600091829173ffffffffffffffffffffffffffffffffffffffff91821691636715f825911683866108f68260405190808252806020026020018201604052801561088c57816020015b60608152602001906001900390816108775790505b5060408051600080825260208201909252906108f0565b6108dd6040518060600160405280600073ffffffffffffffffffffffffffffffffffffffff16815260200160608152602001606081525090565b8152602001906001900390816108a35790505b50610e9e565b6040518563ffffffff1660e01b815260040161091594939291906131fd565b600060405180830381865afa158015610932573d6000803e3d6000fd5b505050506040513d6000823e601f3d9081017fffffffffffffffffffffffffffffffffffffffffffffffffffffffffffffffe016820160405261097891908101906132a9565b91509150815160001461098a57600080fd5b805115610a1c57600480546040517f946aadc600000000000000000000000000000000000000000000000000000000815273ffffffffffffffffffffffffffffffffffffffff9091169163946aadc6916109e99160009186910161330d565b600060405180830381600087803b158015610a0357600080fd5b505af1158015610a17573d6000803e3d6000fd5b505050505b50505b600154610a6e9062010000900473ffffffffffffffffffffffffffffffffffffffff166000610a5160208d018d6131e0565b73ffffffffffffffffffffffffffffffffffffffff1691906111b8565b600154610adc9062010000900473ffffffffffffffffffffffffffffffffffffffff167fffffffffffffffffffffffffffffffffffffffffffffffffffffffffffffffff610abf60208d018d6131e0565b73ffffffffffffffffffffffffffffffffffffffff1691906113bd565b610af2876000610a5160408d0160208e016131e0565b610b27877fffffffffffffffffffffffffffffffffffffffffffffffffffffffffffffffff610abf60408d0160208e016131e0565b6001546040517f5cffe9de0000000000000000000000000000000000000000000000000000000081526201000090910473ffffffffffffffffffffffffffffffffffffffff1690635cffe9de90610b88903090879087908a90600401613326565b6020604051808303816000875af1158015610ba7573d6000803e3d6000fd5b505050506040513d601f19601f82011682018060405250810190610bcb9190613365565b610c01576040517f92111eb200000000000000000000000000000000000000000000000000000000815260040160405180910390fd5b6000610c1360408b0160208c016131e0565b6040517f70a0823100000000000000000000000000000000000000000000000000000000815230600482015273ffffffffffffffffffffffffffffffffffffffff91909116906370a0823190602401602060405180830381865afa158015610c7f573d6000803e3d6000fd5b505050506040513d601f19601f82011682018060405250810190610ca39190613382565b90508015610cdd57610cdd3382610cc060408e0160208f016131e0565b73ffffffffffffffffffffffffffffffffffffffff1691906114c1565b6000610cec60208c018c6131e0565b6040517f70a0823100000000000000000000000000000000000000000000000000000000815230600482015273ffffffffffffffffffffffffffffffffffffffff91909116906370a0823190602401602060405180830381865afa158015610d58573d6000803e3d6000fd5b505050506040513d601f19601f82011682018060405250810190610d7c9190613382565b905089811015610dc2576040517f0c08b5bc000000000000000000000000000000000000000000000000000000008152600481018b9052602481018290526044016101fc565b8015610dda57610dda3382610cc060208f018f6131e0565b610de43347611517565b505050505050610df46001600055565b5050505050565b6060610e2184848460405180606001604052806029815260200161344d60299139611671565b90505b9392505050565b600260005403610e97576040517f08c379a000000000000000000000000000000000000000000000000000000000815260206004820152601f60248201527f5265656e7472616e637947756172643a207265656e7472616e742063616c6c0060448201526064016101fc565b6002600055565b60606000825167ffffffffffffffff811115610ebc57610ebc611db4565b604051908082528060200260200182016040528015610ee5578160200160208202803683370190505b509050600080845111610ef9576000610eff565b83516001015b855160010101905060008167ffffffffffffffff811115610f2257610f22611db4565b604051908082528060200260200182016040528015610f5557816020015b6060815260200190600190039081610f405790505b5090506000610f6261178c565b828281518110610f7457610f74612bc8565b602002602001018190525060005b8751811015610fd2578180600101925050878181518110610fa557610fa5612bc8565b6020026020010151838381518110610fbf57610fbf612bc8565b6020908102919091010152600101610f82565b508551156111ac57808060010191505083828281518110610ff557610ff5612bc8565b602002602001018190525060005b86518110156111aa576110d487828151811061102157611021612bc8565b6020026020010151600001516110b161105e8a858151811061104557611045612bc8565b6020026020010151602001518051602090810291012090565b6040517f19457468657265756d205369676e6564204d6573736167653a0a3332000000006020820152603c8101829052600090605c01604051602081830303815290604052805190602001209050919050565b8984815181106110c3576110c3612bc8565b60200260200101516040015161179d565b61110d576040517f52bf9848000000000000000000000000000000000000000000000000000000008152600481018290526024016101fc565b86818151811061111f5761111f612bc8565b60200260200101516000015173ffffffffffffffffffffffffffffffffffffffff1685828151811061115357611153612bc8565b602002602001018181525050818060010192505086818151811061117957611179612bc8565b60200260200101516020015183838151811061119757611197612bc8565b6020908102919091010152600101611003565b505b50925050505b92915050565b80158061125857506040517fdd62ed3e00000000000000000000000000000000000000000000000000000000815230600482015273ffffffffffffffffffffffffffffffffffffffff838116602483015284169063dd62ed3e90604401602060405180830381865afa158015611232573d6000803e3d6000fd5b505050506040513d601f19601f820116820180604052508101906112569190613382565b155b6112e4576040517f08c379a000000000000000000000000000000000000000000000000000000000815260206004820152603660248201527f5361666545524332303a20617070726f76652066726f6d206e6f6e2d7a65726f60448201527f20746f206e6f6e2d7a65726f20616c6c6f77616e63650000000000000000000060648201526084016101fc565b60405173ffffffffffffffffffffffffffffffffffffffff83166024820152604481018290526113b89084907f095ea7b300000000000000000000000000000000000000000000000000000000906064015b604080517fffffffffffffffffffffffffffffffffffffffffffffffffffffffffffffffe08184030181529190526020810180517bffffffffffffffffffffffffffffffffffffffffffffffffffffffff167fffffffff000000000000000000000000000000000000000000000000000000009093169290921790915261196a565b505050565b6040517fdd62ed3e00000000000000000000000000000000000000000000000000000000815230600482015273ffffffffffffffffffffffffffffffffffffffff8381166024830152600091839186169063dd62ed3e90604401602060405180830381865afa158015611434573d6000803e3d6000fd5b505050506040513d601f19601f820116820180604052508101906114589190613382565b611462919061339b565b60405173ffffffffffffffffffffffffffffffffffffffff85166024820152604481018290529091506114bb9085907f095ea7b30000000000000000000000000000000000000000000000000000000090606401611336565b50505050565b60405173ffffffffffffffffffffffffffffffffffffffff83166024820152604481018290526113b89084907fa9059cbb0000000000000000000000000000000000000000000000000000000090606401611336565b80471015611581576040517f08c379a000000000000000000000000000000000000000000000000000000000815260206004820152601d60248201527f416464726573733a20696e73756666696369656e742062616c616e636500000060448201526064016101fc565b60008273ffffffffffffffffffffffffffffffffffffffff168260405160006040518083038185875af1925050503d80600081146115db576040519150601f19603f3d011682016040523d82523d6000602084013e6115e0565b606091505b50509050806113b8576040517f08c379a000000000000000000000000000000000000000000000000000000000815260206004820152603a60248201527f416464726573733a20756e61626c6520746f2073656e642076616c75652c207260448201527f6563697069656e74206d6179206861766520726576657274656400000000000060648201526084016101fc565b606082471015611703576040517f08c379a000000000000000000000000000000000000000000000000000000000815260206004820152602660248201527f416464726573733a20696e73756666696369656e742062616c616e636520666f60448201527f722063616c6c000000000000000000000000000000000000000000000000000060648201526084016101fc565b6000808673ffffffffffffffffffffffffffffffffffffffff16858760405161172c91906133d5565b60006040518083038185875af1925050503d8060008114611769576040519150601f19603f3d011682016040523d82523d6000602084013e61176e565b606091505b509150915061177f87838387611a76565b925050505b949350505050565b60606117983330611b16565b905090565b60008060006117ac8585611b4a565b909250905060008160048111156117c5576117c56133f1565b1480156117fd57508573ffffffffffffffffffffffffffffffffffffffff168273ffffffffffffffffffffffffffffffffffffffff16145b1561180d57600192505050610e24565b6000808773ffffffffffffffffffffffffffffffffffffffff16631626ba7e60e01b8888604051602401611842929190613420565b604080517fffffffffffffffffffffffffffffffffffffffffffffffffffffffffffffffe08184030181529181526020820180517bffffffffffffffffffffffffffffffffffffffffffffffffffffffff167fffffffff000000000000000000000000000000000000000000000000000000009094169390931790925290516118cb91906133d5565b600060405180830381855afa9150503d8060008114611906576040519150601f19603f3d011682016040523d82523d6000602084013e61190b565b606091505b509150915081801561191e575080516020145b801561195e575080517f1626ba7e000000000000000000000000000000000000000000000000000000009061195c9083016020908101908401613382565b145b98975050505050505050565b60006119cc826040518060400160405280602081526020017f5361666545524332303a206c6f772d6c6576656c2063616c6c206661696c65648152508573ffffffffffffffffffffffffffffffffffffffff16611b8f9092919063ffffffff16565b8051909150156113b857808060200190518101906119ea9190613365565b6113b8576040517f08c379a000000000000000000000000000000000000000000000000000000000815260206004820152602a60248201527f5361666545524332303a204552433230206f7065726174696f6e20646964206e60448201527f6f7420737563636565640000000000000000000000000000000000000000000060648201526084016101fc565b60608315611b0c578251600003611b055773ffffffffffffffffffffffffffffffffffffffff85163b611b05576040517f08c379a000000000000000000000000000000000000000000000000000000000815260206004820152601d60248201527f416464726573733a2063616c6c20746f206e6f6e2d636f6e747261637400000060448201526064016101fc565b5081611784565b6117848383611b9e565b6040805160028082526060808301845292600092919060208301908036833750505060208101949094525050604082015290565b6000808251604103611b805760208301516040840151606085015160001a611b7487828585611be2565b94509450505050611b88565b506000905060025b9250929050565b6060610e218484600085611671565b815115611bae5781518083602001fd5b806040517f08c379a00000000000000000000000000000000000000000000000000000000081526004016101fc9190613439565b6000807f7fffffffffffffffffffffffffffffff5d576e7357a4501ddfe92f46681b20a0831115611c195750600090506003611cc8565b6040805160008082526020820180845289905260ff881692820192909252606081018690526080810185905260019060a0016020604051602081039080840390855afa158015611c6d573d6000803e3d6000fd5b50506040517fffffffffffffffffffffffffffffffffffffffffffffffffffffffffffffffe0015191505073ffffffffffffffffffffffffffffffffffffffff8116611cc157600060019250925050611cc8565b9150600090505b94509492505050565b73ffffffffffffffffffffffffffffffffffffffff81168114611cf357600080fd5b50565b60008083601f840112611d0857600080fd5b50813567ffffffffffffffff811115611d2057600080fd5b602083019150836020828501011115611b8857600080fd5b60008060008060008060a08789031215611d5157600080fd5b8635611d5c81611cd1565b95506020870135611d6c81611cd1565b94506040870135935060608701359250608087013567ffffffffffffffff811115611d9657600080fd5b611da289828a01611cf6565b979a9699509497509295939492505050565b7f4e487b7100000000000000000000000000000000000000000000000000000000600052604160045260246000fd5b6040516060810167ffffffffffffffff81118282101715611e0657611e06611db4565b60405290565b60405160c0810167ffffffffffffffff81118282101715611e0657611e06611db4565b6040516080810167ffffffffffffffff81118282101715611e0657611e06611db4565b60405160a0810167ffffffffffffffff81118282101715611e0657611e06611db4565b604051601f82017fffffffffffffffffffffffffffffffffffffffffffffffffffffffffffffffe016810167ffffffffffffffff81118282101715611ebc57611ebc611db4565b604052919050565b600067ffffffffffffffff821115611ede57611ede611db4565b50601f017fffffffffffffffffffffffffffffffffffffffffffffffffffffffffffffffe01660200190565b600082601f830112611f1b57600080fd5b8135611f2e611f2982611ec4565b611e75565b818152846020838601011115611f4357600080fd5b816020850160208301376000918101602001919091529392505050565b600060208284031215611f7257600080fd5b813567ffffffffffffffff811115611f8957600080fd5b61178484828501611f0a565b600080600080600060808688031215611fad57600080fd5b853567ffffffffffffffff80821115611fc557600080fd5b9087019060c0828a031215611fd957600080fd5b90955060208701359450604087013590611ff282611cd1565b9093506060870135908082111561200857600080fd5b5061201588828901611cf6565b969995985093965092949392505050565b600067ffffffffffffffff82111561204057612040611db4565b5060051b60200190565b8015158114611cf357600080fd5b80356120638161204a565b919050565b60006060828403121561207a57600080fd5b612082611de3565b9050813561208f81611cd1565b8152602082013561209f81611cd1565b602082015260408201356120b281611cd1565b604082015292915050565b803560ff8116811461206357600080fd5b600082601f8301126120df57600080fd5b813560206120ef611f2983612026565b8281526060928302850182019282820191908785111561210e57600080fd5b8387015b858110156121655781818a03121561212a5760008081fd5b612132611de3565b813561213d81611cd1565b815261214a8287016120bd565b81870152604082810135908201528452928401928101612112565b5090979650505050505050565b600082601f83011261218357600080fd5b81356020612193611f2983612026565b82815260059290921b840181019181810190868411156121b257600080fd5b8286015b848110156122d757803567ffffffffffffffff808211156121d657600080fd5b908801906060828b037fffffffffffffffffffffffffffffffffffffffffffffffffffffffffffffffe001121561220d5760008081fd5b612215611de3565b8683013561222281611cd1565b8152604083810135838111156122385760008081fd5b8401603f81018d1361224a5760008081fd5b8881013561225a611f2982612026565b81815260059190911b82018301908a8101908f83111561227a5760008081fd5b928401925b828410156122985783358252928b0192908b019061227f565b858c01525050506060840135838111156122b25760008081fd5b6122c08d8a83880101611f0a565b9183019190915250855250509183019183016121b6565b509695505050505050565b600080604083850312156122f557600080fd5b67ffffffffffffffff808435111561230c57600080fd5b8335840160c0818703121561232057600080fd5b612328611e0c565b6123328235611cd1565b813581526123436020830135611cd1565b602082013560208201526040820135604082015260608201356060820152608082013560808201528260a0830135111561237c57600080fd5b60a08201358201915086601f83011261239457600080fd5b6123a1611f298335612026565b82358082526020808301929160051b8501018910156123bf57600080fd5b602084015b6020853560051b8601018110156125405785813511156123e357600080fd5b7fffffffffffffffffffffffffffffffffffffffffffffffffffffffffffffffe0608081833588018d0301121561241957600080fd5b612421611e2f565b876020843589010135111561243557600080fd5b8235870160208101350160e0818e038401121561245157600080fd5b612459611e52565b92506124686020820135611cd1565b6020810135835261247b60408201612058565b602084015261248d8d60608301612068565b60408401528860c082013511156124a357600080fd5b6124b68d602060c08401358401016120ce565b60608401528860e082013511156124cc57600080fd5b6124df8d602060e08401358401016120ce565b6080840152508181526040833588010135602082015260608335880101356040820152876080843589010135111561251657600080fd5b61252c8c84358901608081013501602001612172565b6060820152845250602092830192016123c4565b5060a083015250935050602084013581101561255b57600080fd5b5061256c8460208501358501611f0a565b90509250929050565b600081518084526020808501945080840160005b838110156125d4578151805173ffffffffffffffffffffffffffffffffffffffff1688528381015160ff16848901526040908101519088015260609096019590820190600101612589565b509495945050505050565b600081518084526020808501945080840160005b838110156125d4578151875295820195908201906001016125f3565b60005b8381101561262a578181015183820152602001612612565b50506000910152565b6000815180845261264b81602086016020860161260f565b601f017fffffffffffffffffffffffffffffffffffffffffffffffffffffffffffffffe0169290920160200192915050565b600081518084526020808501808196508360051b8101915082860160005b8581101561270c5782840389528151606073ffffffffffffffffffffffffffffffffffffffff82511686528682015181888801526126db828801826125df565b915050604080830151925086820381880152506126f88183612633565b9a87019a955050509084019060010161269b565b5091979650505050505050565b6000602080835260e080840173ffffffffffffffffffffffffffffffffffffffff808751168487015283870151604082821681890152808901519150606082818a0152808a01519250608083818b0152808b015193508360a08b015260a08b0151935060c0808b01528584518088526101009750878c019150878160051b8d01018a8701965060005b8281101561289f578d82037fffffffffffffffffffffffffffffffffffffffffffffffffffffffffffffff000184528751805186845280518b16878501528d810151151560a08501528881015180518c1660c0860152808f01518c168e8601528901518b168c8501528781015161012085018e9052612825610160860182612575565b918801518583037fffffffffffffffffffffffffffffffffffffffffffffffffffffffffffffff80016101408701529190506128618183612575565b9150508d8201518e85015288820151898501528782015191508381038885015261288b818361267d565b998e0199958e0195935050506001016127a2565b509d9c50505050505050505050505050565b600080604083850312156128c457600080fd5b505080516020909101519092909150565b600082601f8301126128e657600080fd5b815160206128f6611f2983612026565b82815260059290921b8401810191818101908684111561291557600080fd5b8286015b848110156122d75780518352918301918301612919565b6000602080838503121561294357600080fd5b825167ffffffffffffffff8082111561295b57600080fd5b908401906060828703121561296f57600080fd5b612977611de3565b825161298281611cd1565b81528284015161299181611cd1565b818501526040830151828111156129a757600080fd5b9290920191606083880312156129bc57600080fd5b6129c4611de3565b83516129cf81611cd1565b815283850151838111156129e257600080fd5b8401601f810189136129f357600080fd5b8051612a01611f2982612026565b81815260059190911b8201870190878101908b831115612a2057600080fd5b8884015b83811015612a9057805188811115612a3b57600080fd5b8501603f81018e13612a4c57600080fd5b8a810151612a5c611f2982611ec4565b8181528f6040838501011115612a7157600080fd5b612a81828e83016040860161260f565b85525050918901918901612a24565b508089860152505050506040840151945082851115612aae57600080fd5b612aba888686016128d5565b6040828101919091528201529695505050505050565b600081518084526020808501808196508360051b8101915082860160005b8581101561270c578284038952612b06848351612633565b98850198935090840190600101612aee565b600073ffffffffffffffffffffffffffffffffffffffff8085168352604060208401528084511660408401528060208501511660608401526040840151606060808501528181511660a085015260208101519150606060c0850152612b81610100850183612ad0565b9150604081015190507fffffffffffffffffffffffffffffffffffffffffffffffffffffffffffffff608483030160e0850152612bbe82826125df565b9695505050505050565b7f4e487b7100000000000000000000000000000000000000000000000000000000600052603260045260246000fd5b606081526000612c0a6060830186612ad0565b8281036020840152612c1c81866125df565b90508281036040840152612bbe81856125df565b600080600060608486031215612c4557600080fd5b8351612c5081611cd1565b6020850151909350612c6181611cd1565b6040850151909250612c7281611cd1565b809150509250925092565b60008083357fffffffffffffffffffffffffffffffffffffffffffffffffffffffffffffffe1843603018112612cb257600080fd5b830160208101925035905067ffffffffffffffff811115612cd257600080fd5b8060051b3603821315611b8857600080fd5b60008083357fffffffffffffffffffffffffffffffffffffffffffffffffffffffffffffffe1843603018112612d1957600080fd5b830160208101925035905067ffffffffffffffff811115612d3957600080fd5b606081023603821315611b8857600080fd5b8183526000602080850194508260005b858110156125d4578135612d6e81611cd1565b73ffffffffffffffffffffffffffffffffffffffff16875260ff612d938385016120bd565b16878401526040828101359088015260609687019690910190600101612d5b565b8183528181602085013750600060208284010152600060207fffffffffffffffffffffffffffffffffffffffffffffffffffffffffffffffe0601f840116840101905092915050565b81835260006020808501808196506005915085821b81018560005b88811015612f62578383038a5281357fffffffffffffffffffffffffffffffffffffffffffffffffffffffffffffffa1893603018112612e5757600080fd5b880160608135612e6681611cd1565b73ffffffffffffffffffffffffffffffffffffffff168552612e8a82890183612c7d565b828a8801528083880152608092507f07ffffffffffffffffffffffffffffffffffffffffffffffffffffffffffffff811115612ec557600080fd5b881b80828885013786019050604083810135368590037fffffffffffffffffffffffffffffffffffffffffffffffffffffffffffffffe1018112612f0857600080fd5b90930189810193903567ffffffffffffffff811115612f2657600080fd5b803603851315612f3557600080fd5b838884030182890152612f4b8484018287612db4565b9e8b019e9750505093880193505050600101612e18565b509098975050505050505050565b600060408083526101008084018735612f8881611cd1565b73ffffffffffffffffffffffffffffffffffffffff9081168685015260209089820135612fb481611cd1565b818116606089015250848a0135608088015260608a013560a088015260808a013560c0880152612fe760a08b018b612c7d565b60c060e08a01529384905261012093848901600582901b8a0186018360005b848110156131ba577ffffffffffffffffffffffffffffffffffffffffffffffffffffffffffffffee08d840301845281357fffffffffffffffffffffffffffffffffffffffffffffffffffffffffffffff8187360301811261306757600080fd5b86018035368290037fffffffffffffffffffffffffffffffffffffffffffffffffffffffffffffff2101811261309c57600080fd5b60808552810180356130ad81611cd1565b89166080860152808a01356130c18161204a565b151560a0860152808d01356130d581611cd1565b891660c086015260608101356130ea81611cd1565b891660e086015260808101356130ff81611cd1565b8916858d015261311260a0820182612ce4565b60e08d88015261312761016088018284612d4b565b91505061313760c0830183612ce4565b92507fffffffffffffffffffffffffffffffffffffffffffffffffffffffffffffff808783030161014088015261316f828483612d4b565b92505050898201358a8601528c8201358d8601526131906060830183612c7d565b925085820360608701526131a5828483612dfd565b968b0196955050509188019150600101613006565b50508a8103868c01526131ce818d8f612db4565b9e9d5050505050505050505050505050565b6000602082840312156131f257600080fd5b8135610e2481611cd1565b60006080820173ffffffffffffffffffffffffffffffffffffffff87168352602086818501528560408501526080606085015281855180845260a08601915060a08160051b870101935082870160005b82811015613299577fffffffffffffffffffffffffffffffffffffffffffffffffffffffffffffff608887030184526132878683516125df565b9550928401929084019060010161324d565b50939a9950505050505050505050565b600080604083850312156132bc57600080fd5b825167ffffffffffffffff808211156132d457600080fd5b6132e0868387016128d5565b935060208501519150808211156132f657600080fd5b50613303858286016128d5565b9150509250929050565b828152604060208201526000610e2160408301846125df565b600073ffffffffffffffffffffffffffffffffffffffff808716835280861660208401525083604083015260806060830152612bbe6080830184612633565b60006020828403121561337757600080fd5b8151610e248161204a565b60006020828403121561339457600080fd5b5051919050565b808201808211156111b2577f4e487b7100000000000000000000000000000000000000000000000000000000600052601160045260246000fd5b600082516133e781846020870161260f565b9190910192915050565b7f4e487b7100000000000000000000000000000000000000000000000000000000600052602160045260246000fd5b828152604060208201526000610e216040830184612633565b602081526000610e24602083018461263356fe416464726573733a206c6f772d6c6576656c2063616c6c20776974682076616c7565206661696c6564a2646970667358221220970e8508a656fde74f736c9790dea5c1741fea22d19891191cd86d76cb86e76c64736f6c63430008120033",
    "linkReferences": {}
  },
  "methodIdentifiers": {
    "arb((address,address,uint256,uint256,uint256,((address,bool,(address,address,address),(address,uint8,uint256)[],(address,uint8,uint256)[]),uint256,uint256,(address,uint256[],bytes)[])[]),uint256,address,bytes)": "b9449332",
    "initialize(bytes)": "439fab91",
    "onFlashLoan(address,address,uint256,uint256,bytes)": "23e30c8b",
    "orderBook()": "776af5ba",
    "zeroExExchangeProxy()": "91511a42"
  },
  "id": 47
}