{
  "abi": [
    {
      "inputs": [
        {
          "components": [
            {
              "internalType": "address",
              "name": "deployer",
              "type": "address"
            },
            {
              "internalType": "bytes",
              "name": "meta",
              "type": "bytes"
            }
          ],
          "internalType": "struct DeployerDiscoverableMetaV3ConstructionConfig",
          "name": "config",
          "type": "tuple"
        }
      ],
      "stateMutability": "nonpayable",
      "type": "constructor"
    },
    {
      "inputs": [
        {
          "internalType": "address",
          "name": "badLender",
          "type": "address"
        }
      ],
      "name": "BadLender",
      "type": "error"
    },
    {
      "inputs": [],
      "name": "InitializeSignatureFn",
      "type": "error"
    },
    {
      "inputs": [],
      "name": "Initializing",
      "type": "error"
    },
    {
      "inputs": [
        {
          "internalType": "uint256",
          "name": "i",
          "type": "uint256"
        }
      ],
      "name": "InvalidSignature",
      "type": "error"
    },
    {
      "inputs": [
        {
          "internalType": "uint256",
          "name": "minimum",
          "type": "uint256"
        },
        {
          "internalType": "uint256",
          "name": "actual",
          "type": "uint256"
        }
      ],
      "name": "MinimumOutput",
      "type": "error"
    },
    {
      "inputs": [],
      "name": "NoOrders",
      "type": "error"
    },
    {
      "inputs": [
        {
          "internalType": "uint256",
          "name": "inputs",
          "type": "uint256"
        }
      ],
      "name": "NonZeroBeforeArbInputs",
      "type": "error"
    },
    {
      "inputs": [],
      "name": "NonZeroBeforeArbStack",
      "type": "error"
    },
    {
      "inputs": [
        {
          "internalType": "bytes",
          "name": "unmeta",
          "type": "bytes"
        }
      ],
      "name": "NotRainMetaV1",
      "type": "error"
    },
    {
      "inputs": [
        {
          "internalType": "bytes32",
          "name": "expectedHash",
          "type": "bytes32"
        },
        {
          "internalType": "bytes32",
          "name": "actualHash",
          "type": "bytes32"
        }
      ],
      "name": "UnexpectedMetaHash",
      "type": "error"
    },
    {
      "anonymous": false,
      "inputs": [
        {
          "indexed": false,
          "internalType": "address",
          "name": "sender",
          "type": "address"
        },
        {
          "components": [
            {
              "internalType": "address",
              "name": "orderBook",
              "type": "address"
            },
            {
              "components": [
                {
                  "internalType": "contract IExpressionDeployerV3",
                  "name": "deployer",
                  "type": "address"
                },
                {
                  "internalType": "bytes",
                  "name": "bytecode",
                  "type": "bytes"
                },
                {
                  "internalType": "uint256[]",
                  "name": "constants",
                  "type": "uint256[]"
                }
              ],
              "internalType": "struct EvaluableConfigV3",
              "name": "evaluableConfig",
              "type": "tuple"
            },
            {
              "internalType": "bytes",
              "name": "implementationData",
              "type": "bytes"
            }
          ],
          "indexed": false,
          "internalType": "struct OrderBookV3ArbOrderTakerConfigV1",
          "name": "config",
          "type": "tuple"
        }
      ],
      "name": "Initialize",
      "type": "event"
    },
    {
      "anonymous": false,
      "inputs": [
        {
          "indexed": false,
          "internalType": "uint8",
          "name": "version",
          "type": "uint8"
        }
      ],
      "name": "Initialized",
      "type": "event"
    },
    {
      "anonymous": false,
      "inputs": [
        {
          "indexed": false,
          "internalType": "address",
          "name": "sender",
          "type": "address"
        },
        {
          "indexed": false,
          "internalType": "uint256",
          "name": "subject",
          "type": "uint256"
        },
        {
          "indexed": false,
          "internalType": "bytes",
          "name": "meta",
          "type": "bytes"
        }
      ],
      "name": "MetaV1",
      "type": "event"
    },
    {
      "stateMutability": "nonpayable",
      "type": "fallback"
    },
    {
      "inputs": [
        {
          "components": [
            {
              "internalType": "uint256",
              "name": "minimumInput",
              "type": "uint256"
            },
            {
              "internalType": "uint256",
              "name": "maximumInput",
              "type": "uint256"
            },
            {
              "internalType": "uint256",
              "name": "maximumIORatio",
              "type": "uint256"
            },
            {
              "components": [
                {
                  "components": [
                    {
                      "internalType": "address",
                      "name": "owner",
                      "type": "address"
                    },
                    {
                      "internalType": "bool",
                      "name": "handleIO",
                      "type": "bool"
                    },
                    {
                      "components": [
                        {
                          "internalType": "contract IInterpreterV2",
                          "name": "interpreter",
                          "type": "address"
                        },
                        {
                          "internalType": "contract IInterpreterStoreV1",
                          "name": "store",
                          "type": "address"
                        },
                        {
                          "internalType": "address",
                          "name": "expression",
                          "type": "address"
                        }
                      ],
                      "internalType": "struct EvaluableV2",
                      "name": "evaluable",
                      "type": "tuple"
                    },
                    {
                      "components": [
                        {
                          "internalType": "address",
                          "name": "token",
                          "type": "address"
                        },
                        {
                          "internalType": "uint8",
                          "name": "decimals",
                          "type": "uint8"
                        },
                        {
                          "internalType": "uint256",
                          "name": "vaultId",
                          "type": "uint256"
                        }
                      ],
                      "internalType": "struct IO[]",
                      "name": "validInputs",
                      "type": "tuple[]"
                    },
                    {
                      "components": [
                        {
                          "internalType": "address",
                          "name": "token",
                          "type": "address"
                        },
                        {
                          "internalType": "uint8",
                          "name": "decimals",
                          "type": "uint8"
                        },
                        {
                          "internalType": "uint256",
                          "name": "vaultId",
                          "type": "uint256"
                        }
                      ],
                      "internalType": "struct IO[]",
                      "name": "validOutputs",
                      "type": "tuple[]"
                    }
                  ],
                  "internalType": "struct OrderV2",
                  "name": "order",
                  "type": "tuple"
                },
                {
                  "internalType": "uint256",
                  "name": "inputIOIndex",
                  "type": "uint256"
                },
                {
                  "internalType": "uint256",
                  "name": "outputIOIndex",
                  "type": "uint256"
                },
                {
                  "components": [
                    {
                      "internalType": "address",
                      "name": "signer",
                      "type": "address"
                    },
                    {
                      "internalType": "uint256[]",
                      "name": "context",
                      "type": "uint256[]"
                    },
                    {
                      "internalType": "bytes",
                      "name": "signature",
                      "type": "bytes"
                    }
                  ],
                  "internalType": "struct SignedContextV1[]",
                  "name": "signedContext",
                  "type": "tuple[]"
                }
              ],
              "internalType": "struct TakeOrderConfigV2[]",
              "name": "orders",
              "type": "tuple[]"
            },
            {
              "internalType": "bytes",
              "name": "data",
              "type": "bytes"
            }
          ],
          "internalType": "struct TakeOrdersConfigV2",
          "name": "takeOrders",
          "type": "tuple"
        },
        {
          "internalType": "uint256",
          "name": "minimumSenderOutput",
          "type": "uint256"
        }
      ],
      "name": "arb",
      "outputs": [],
      "stateMutability": "payable",
      "type": "function"
    },
    {
      "inputs": [
        {
          "internalType": "bytes",
          "name": "data",
          "type": "bytes"
        }
      ],
      "name": "initialize",
      "outputs": [
        {
          "internalType": "bytes32",
          "name": "",
          "type": "bytes32"
        }
      ],
      "stateMutability": "nonpayable",
      "type": "function"
    },
    {
      "inputs": [
        {
          "components": [
            {
              "internalType": "address",
              "name": "orderBook",
              "type": "address"
            },
            {
              "components": [
                {
                  "internalType": "contract IExpressionDeployerV3",
                  "name": "deployer",
                  "type": "address"
                },
                {
                  "internalType": "bytes",
                  "name": "bytecode",
                  "type": "bytes"
                },
                {
                  "internalType": "uint256[]",
                  "name": "constants",
                  "type": "uint256[]"
                }
              ],
              "internalType": "struct EvaluableConfigV3",
              "name": "evaluableConfig",
              "type": "tuple"
            },
            {
              "internalType": "bytes",
              "name": "implementationData",
              "type": "bytes"
            }
          ],
          "internalType": "struct OrderBookV3ArbOrderTakerConfigV1",
          "name": "",
          "type": "tuple"
        }
      ],
      "name": "initialize",
      "outputs": [
        {
          "internalType": "bytes32",
          "name": "",
          "type": "bytes32"
        }
      ],
      "stateMutability": "pure",
      "type": "function"
    },
    {
      "inputs": [
        {
          "internalType": "address",
          "name": "inputToken",
          "type": "address"
        },
        {
          "internalType": "address",
          "name": "outputToken",
          "type": "address"
        },
        {
          "internalType": "uint256",
          "name": "inputAmountSent",
          "type": "uint256"
        },
        {
          "internalType": "uint256",
          "name": "totalOutputAmount",
          "type": "uint256"
        },
        {
          "internalType": "bytes",
          "name": "takeOrdersData",
          "type": "bytes"
        }
      ],
      "name": "onTakeOrders",
      "outputs": [],
      "stateMutability": "nonpayable",
      "type": "function"
    },
    {
      "inputs": [],
      "name": "sI9r",
      "outputs": [
        {
          "internalType": "contract IInterpreterV2",
          "name": "",
          "type": "address"
        }
      ],
      "stateMutability": "view",
      "type": "function"
    },
    {
      "inputs": [],
      "name": "sI9rDispatch",
      "outputs": [
        {
          "internalType": "EncodedDispatch",
          "name": "",
          "type": "uint256"
        }
      ],
      "stateMutability": "view",
      "type": "function"
    },
    {
      "inputs": [],
      "name": "sI9rStore",
      "outputs": [
        {
          "internalType": "contract IInterpreterStoreV1",
          "name": "",
          "type": "address"
        }
      ],
      "stateMutability": "view",
      "type": "function"
    },
    {
      "inputs": [],
      "name": "sOrderBook",
      "outputs": [
        {
          "internalType": "contract IOrderBookV3",
          "name": "",
          "type": "address"
        }
      ],
      "stateMutability": "view",
      "type": "function"
    },
    {
      "inputs": [
        {
          "internalType": "bytes4",
          "name": "interfaceId",
          "type": "bytes4"
        }
      ],
      "name": "supportsInterface",
      "outputs": [
        {
          "internalType": "bool",
          "name": "",
          "type": "bool"
        }
      ],
      "stateMutability": "view",
      "type": "function"
    }
  ],
  "bytecode": {
    "object": "0x60806040523480156200001157600080fd5b50604051620034a3380380620034a38339810160408190526200003491620003d2565b600160005560208101517fa519e069ba4e0d8fdcd8feb0a65292ee147333ffe032fa8341e427db6d78ed1c9082908290829062000073908390620000d7565b60208101516040517fbea766d03fa1efd3f81cc8634d08320bc62bb0ed9234ac59bbaafa5893fb6b1391620000ac9133913091620004a0565b60405180910390a18051620000c1906200011e565b50620000ce9050620001d1565b505050620005c6565b805160208201208281146200010e5760405163074fe10f60e41b815260048101849052602481018290526044015b60405180910390fd5b62000119826200028f565b505050565b60008080806001600160a01b03851663b7f14403826040519080825280602002602001820160405280156200015d578160200160208202803683370190505b506040518263ffffffff1660e01b81526004016200017c9190620004d2565b6000604051808303816000875af11580156200019c573d6000803e3d6000fd5b505050506040513d6000823e601f3d908101601f19168201604052620001c6919081019062000529565b505050505050505050565b600154610100900460ff16156200023b5760405162461bcd60e51b815260206004820152602760248201527f496e697469616c697a61626c653a20636f6e747261637420697320696e697469604482015266616c697a696e6760c81b606482015260840162000105565b60015460ff908116146200028d576001805460ff191660ff9081179091556040519081527f7f26b83ff96e1f2b6a682f133852f6798a09c465da95921460cefb38474024989060200160405180910390a15b565b6200029a81620002bf565b620002bc5780604051630c89984b60e31b8152600401620001059190620005aa565b50565b6000600882511015620002d457506000919050565b50600801516001600160401b031667ff0a89c674ee78741490565b634e487b7160e01b600052604160045260246000fd5b6001600160a01b0381168114620002bc57600080fd5b60005b83811015620003385781810151838201526020016200031e565b50506000910152565b600082601f8301126200035357600080fd5b81516001600160401b0380821115620003705762000370620002ef565b604051601f8301601f19908116603f011681019082821181831017156200039b576200039b620002ef565b81604052838152866020858801011115620003b557600080fd5b620003c88460208301602089016200031b565b9695505050505050565b600060208284031215620003e557600080fd5b81516001600160401b0380821115620003fd57600080fd5b90830190604082860312156200041257600080fd5b604051604081018181108382111715620004305762000430620002ef565b6040528251620004408162000305565b81526020830151828111156200045557600080fd5b620004638782860162000341565b60208301525095945050505050565b600081518084526200048c8160208601602086016200031b565b601f01601f19169290920160200192915050565b60018060a01b0384168152826020820152606060408201526000620004c9606083018462000472565b95945050505050565b60408152600060408201526000606082016020606081850152818551808452608086019150828701935060005b818110156200051d57845183529383019391830191600101620004ff565b50909695505050505050565b600080600080608085870312156200054057600080fd5b84516200054d8162000305565b6020860151909450620005608162000305565b6040860151909350620005738162000305565b60608601519092506001600160401b038111156200059057600080fd5b6200059e8782880162000341565b91505092959194509250565b602081526000620005bf602083018462000472565b9392505050565b612ecd80620005d66000396000f3fe6080604052600436106100965760003560e01c806371c1dea71161006957806389448c3a1161004e57806389448c3a1461021c57806398da8d6a14610232578063c3b7c7c31461025257610096565b806371c1dea7146101bc578063886d1650146101e957610096565b806301ffc9a7146100e7578063059bebe61461011c578063439fab911461013c57806361bb39e41461016a575b3480156100a257600080fd5b50600154610100900460ff16156100e5576040517f4e8f6c4400000000000000000000000000000000000000000000000000000000815260040160405180910390fd5b005b3480156100f357600080fd5b50610107610102366004611e21565b610265565b60405190151581526020015b60405180910390f35b34801561012857600080fd5b506100e5610137366004611e8c565b61034a565b34801561014857600080fd5b5061015c610157366004612079565b610425565b604051908152602001610113565b34801561017657600080fd5b506004546101979073ffffffffffffffffffffffffffffffffffffffff1681565b60405173ffffffffffffffffffffffffffffffffffffffff9091168152602001610113565b3480156101c857600080fd5b506003546101979073ffffffffffffffffffffffffffffffffffffffff1681565b3480156101f557600080fd5b506001546101979062010000900473ffffffffffffffffffffffffffffffffffffffff1681565b34801561022857600080fd5b5061015c60025481565b34801561023e57600080fd5b5061015c61024d3660046120ae565b610834565b6100e56102603660046120e9565b610868565b60007fffffffff0000000000000000000000000000000000000000000000000000000082167f059bebe60000000000000000000000000000000000000000000000000000000014806102f857507fffffffff0000000000000000000000000000000000000000000000000000000082167f439fab9100000000000000000000000000000000000000000000000000000000145b8061034457507f01ffc9a7000000000000000000000000000000000000000000000000000000007fffffffff000000000000000000000000000000000000000000000000000000008316145b92915050565b610358868686868686610fd0565b6000808061036884860186612133565b9194509250905061039173ffffffffffffffffffffffffffffffffffffffff8a16846000611073565b6103d273ffffffffffffffffffffffffffffffffffffffff8a16847fffffffffffffffffffffffffffffffffffffffffffffffffffffffffffffffff611073565b60006103f573ffffffffffffffffffffffffffffffffffffffff84168347611278565b905061041973ffffffffffffffffffffffffffffffffffffffff8b16856000611073565b50505050505050505050565b600154600090610100900460ff161580801561044557506001805460ff16105b8061045e5750303b15801561045e57506001805460ff16145b6104ef576040517f08c379a000000000000000000000000000000000000000000000000000000000815260206004820152602e60248201527f496e697469616c697a61626c653a20636f6e747261637420697320616c72656160448201527f647920696e697469616c697a656400000000000000000000000000000000000060648201526084015b60405180910390fd5b600180547fffffffffffffffffffffffffffffffffffffffffffffffffffffffffffffff001681179055801561054c57600180547fffffffffffffffffffffffffffffffffffffffffffffffffffffffffffff00ff166101001790555b6105546112a6565b60008380602001905181019061056a9190612273565b905080516001805473ffffffffffffffffffffffffffffffffffffffff90921662010000027fffffffffffffffffffff0000000000000000000000000000000000000000ffff9092169190911790556040517f61f559321bdc3ad3a0e3b8692a91eaffa9773753bfec4e5f4c344cfed245cab7906105eb9033908490612401565b60405180910390a1600061060682602001516020015161131c565b111561079e5760208082015180519181015160409182015191517fb7f1440300000000000000000000000000000000000000000000000000000000815260009360609373ffffffffffffffffffffffffffffffffffffffff9091169263b7f144039261067592906004016124d6565b6000604051808303816000875af1158015610694573d6000803e3d6000fd5b505050506040513d6000823e601f3d9081017fffffffffffffffffffffffffffffffffffffffffffffffffffffffffffffffe01682016040526106da9190810190612504565b6004805473ffffffffffffffffffffffffffffffffffffffff9485167fffffffffffffffffffffffff0000000000000000000000000000000000000000918216179091556003805495909416941693909317909155600182015190935090915060ff168015610778576040517f1751534b000000000000000000000000000000000000000000000000000000008152600481018290526024016104e6565b50602082901b77ffffffffffffffffffffffffffffffffffffffff000000001660025550505b7fe0e57eda3f08f2a93bbe980d3df7f9c315eac41181f58b865a13d917fe769fc39250506107cc6001600055565b801561082e57600180547fffffffffffffffffffffffffffffffffffffffffffffffffffffffffffff00ff1681556040519081527f7f26b83ff96e1f2b6a682f133852f6798a09c465da95921460cefb38474024989060200160405180910390a15b50919050565b60006040517faf1fbb2100000000000000000000000000000000000000000000000000000000815260040160405180910390fd5b6108706112a6565b600154610100900460ff16156108b2576040517f4e8f6c4400000000000000000000000000000000000000000000000000000000815260040160405180910390fd5b6108bf606083018361257c565b90506000036108fa576040517f9c95219f00000000000000000000000000000000000000000000000000000000815260040160405180910390fd5b6000610909606084018461257c565b600081811061091a5761091a6125e4565b905060200281019061092c9190612613565b6109369080612651565b6109449060a0810190612685565b610951606086018661257c565b6000818110610962576109626125e4565b90506020028101906109749190612613565b60200135818110610987576109876125e4565b61099d92602060609092020190810191506126ec565b905060006109ae606085018561257c565b60008181106109bf576109bf6125e4565b90506020028101906109d19190612613565b6109db9080612651565b6109e99060c0810190612685565b6109f6606087018761257c565b6000818110610a0757610a076125e4565b9050602002810190610a199190612613565b60400135818110610a2c57610a2c6125e4565b610a4292602060609092020190810191506126ec565b6002549091508015610ca957600354600454600091829173ffffffffffffffffffffffffffffffffffffffff91821691636046c5f99116610a8d843060009182526020526040902090565b604080516000808252602082019092528891610b289190610abe565b6060815260200190600190039081610aa95790505b506040805160008082526020820190925290610b22565b610b0f6040518060600160405280600073ffffffffffffffffffffffffffffffffffffffff16815260200160608152602001606081525090565b815260200190600190039081610ad55790505b5061133a565b604080516000815260208101918290527fffffffff0000000000000000000000000000000000000000000000000000000060e088901b16909152610b73949392919060248101612709565b600060405180830381865afa158015610b90573d6000803e3d6000fd5b505050506040513d6000823e601f3d9081017fffffffffffffffffffffffffffffffffffffffffffffffffffffffffffffffe0168201604052610bd691908101906127c8565b8151919350915015610c14576040517f379fa94000000000000000000000000000000000000000000000000000000000815260040160405180910390fd5b805115610ca657600480546040517f946aadc600000000000000000000000000000000000000000000000000000000815273ffffffffffffffffffffffffffffffffffffffff9091169163946aadc691610c739160009186910161282c565b600060405180830381600087803b158015610c8d57600080fd5b505af1158015610ca1573d6000803e3d6000fd5b505050505b50505b600154610cd79073ffffffffffffffffffffffffffffffffffffffff85811691620100009004166000611073565b600154610d249073ffffffffffffffffffffffffffffffffffffffff85811691620100009004167fffffffffffffffffffffffffffffffffffffffffffffffffffffffffffffffff611073565b6001546040517f8a44689c00000000000000000000000000000000000000000000000000000000815260009182916201000090910473ffffffffffffffffffffffffffffffffffffffff1690638a44689c90610d84908a90600401612b69565b60408051808303816000875af1158015610da2573d6000803e3d6000fd5b505050506040513d601f19601f82011682018060405250810190610dc69190612ddc565b6001549193509150610df99073ffffffffffffffffffffffffffffffffffffffff87811691620100009004166000611073565b6040517f70a0823100000000000000000000000000000000000000000000000000000000815230600482015260009073ffffffffffffffffffffffffffffffffffffffff8716906370a0823190602401602060405180830381865afa158015610e66573d6000803e3d6000fd5b505050506040513d601f19601f82011682018060405250810190610e8a9190612e00565b905086811015610ed0576040517f0c08b5bc00000000000000000000000000000000000000000000000000000000815260048101889052602481018290526044016104e6565b8015610ef757610ef773ffffffffffffffffffffffffffffffffffffffff8716338361164a565b6040517f70a0823100000000000000000000000000000000000000000000000000000000815230600482015260009073ffffffffffffffffffffffffffffffffffffffff8716906370a0823190602401602060405180830381865afa158015610f64573d6000803e3d6000fd5b505050506040513d601f19601f82011682018060405250810190610f889190612e00565b90508015610fb157610fb173ffffffffffffffffffffffffffffffffffffffff8716338361164a565b610fbb33476116a0565b50505050505050610fcc6001600055565b5050565b600154610100900460ff1615611012576040517f4e8f6c4400000000000000000000000000000000000000000000000000000000815260040160405180910390fd5b60015462010000900473ffffffffffffffffffffffffffffffffffffffff16331461106b576040517f0bc3cde00000000000000000000000000000000000000000000000000000000081523360048201526024016104e6565b505050505050565b80158061111357506040517fdd62ed3e00000000000000000000000000000000000000000000000000000000815230600482015273ffffffffffffffffffffffffffffffffffffffff838116602483015284169063dd62ed3e90604401602060405180830381865afa1580156110ed573d6000803e3d6000fd5b505050506040513d601f19601f820116820180604052508101906111119190612e00565b155b61119f576040517f08c379a000000000000000000000000000000000000000000000000000000000815260206004820152603660248201527f5361666545524332303a20617070726f76652066726f6d206e6f6e2d7a65726f60448201527f20746f206e6f6e2d7a65726f20616c6c6f77616e63650000000000000000000060648201526084016104e6565b60405173ffffffffffffffffffffffffffffffffffffffff83166024820152604481018290526112739084907f095ea7b300000000000000000000000000000000000000000000000000000000906064015b604080517fffffffffffffffffffffffffffffffffffffffffffffffffffffffffffffffe08184030181529190526020810180517bffffffffffffffffffffffffffffffffffffffffffffffffffffffff167fffffffff00000000000000000000000000000000000000000000000000000000909316929092179091526117fa565b505050565b606061129e848484604051806060016040528060298152602001612ea460299139611909565b949350505050565b600260005403611312576040517f08c379a000000000000000000000000000000000000000000000000000000000815260206004820152601f60248201527f5265656e7472616e637947756172643a207265656e7472616e742063616c6c0060448201526064016104e6565b6002600055565b50565b6000815160000361132f57506000919050565b506020015160001a90565b60606000825167ffffffffffffffff81111561135857611358611f36565b604051908082528060200260200182016040528015611381578160200160208202803683370190505b50905060008084511161139557600061139b565b83516001015b855160010101905060008167ffffffffffffffff8111156113be576113be611f36565b6040519080825280602002602001820160405280156113f157816020015b60608152602001906001900390816113dc5790505b5090506000611416604080516002815233602082015230818301526060810190915290565b828281518110611428576114286125e4565b602002602001018190525060005b8751811015611486578180600101925050878181518110611459576114596125e4565b6020026020010151838381518110611473576114736125e4565b6020908102919091010152600101611436565b50855115611640578080600101915050838282815181106114a9576114a96125e4565b602002602001018190525060005b865181101561163e576115688782815181106114d5576114d56125e4565b6020026020010151600001516115456115128a85815181106114f9576114f96125e4565b6020026020010151602001518051602090810291012090565b7f19457468657265756d205369676e6564204d6573736167653a0a3332000000006000908152601c91909152603c902090565b898481518110611557576115576125e4565b602002602001015160400151611a22565b6115a1576040517f52bf9848000000000000000000000000000000000000000000000000000000008152600481018290526024016104e6565b8681815181106115b3576115b36125e4565b60200260200101516000015173ffffffffffffffffffffffffffffffffffffffff168582815181106115e7576115e76125e4565b602002602001018181525050818060010192505086818151811061160d5761160d6125e4565b60200260200101516020015183838151811061162b5761162b6125e4565b60209081029190910101526001016114b7565b505b5095945050505050565b60405173ffffffffffffffffffffffffffffffffffffffff83166024820152604481018290526112739084907fa9059cbb00000000000000000000000000000000000000000000000000000000906064016111f1565b8047101561170a576040517f08c379a000000000000000000000000000000000000000000000000000000000815260206004820152601d60248201527f416464726573733a20696e73756666696369656e742062616c616e636500000060448201526064016104e6565b60008273ffffffffffffffffffffffffffffffffffffffff168260405160006040518083038185875af1925050503d8060008114611764576040519150601f19603f3d011682016040523d82523d6000602084013e611769565b606091505b5050905080611273576040517f08c379a000000000000000000000000000000000000000000000000000000000815260206004820152603a60248201527f416464726573733a20756e61626c6520746f2073656e642076616c75652c207260448201527f6563697069656e74206d6179206861766520726576657274656400000000000060648201526084016104e6565b600061185c826040518060400160405280602081526020017f5361666545524332303a206c6f772d6c6576656c2063616c6c206661696c65648152508573ffffffffffffffffffffffffffffffffffffffff16611a9d9092919063ffffffff16565b905080516000148061187d57508080602001905181019061187d9190612e19565b611273576040517f08c379a000000000000000000000000000000000000000000000000000000000815260206004820152602a60248201527f5361666545524332303a204552433230206f7065726174696f6e20646964206e60448201527f6f7420737563636565640000000000000000000000000000000000000000000060648201526084016104e6565b60608247101561199b576040517f08c379a000000000000000000000000000000000000000000000000000000000815260206004820152602660248201527f416464726573733a20696e73756666696369656e742062616c616e636520666f60448201527f722063616c6c000000000000000000000000000000000000000000000000000060648201526084016104e6565b6000808673ffffffffffffffffffffffffffffffffffffffff1685876040516119c49190612e36565b60006040518083038185875af1925050503d8060008114611a01576040519150601f19603f3d011682016040523d82523d6000602084013e611a06565b606091505b5091509150611a1787838387611aac565b979650505050505050565b6000806000611a318585611b4c565b90925090506000816004811115611a4a57611a4a612e48565b148015611a8257508573ffffffffffffffffffffffffffffffffffffffff168273ffffffffffffffffffffffffffffffffffffffff16145b80611a935750611a93868686611b91565b9695505050505050565b606061129e8484600085611909565b60608315611b42578251600003611b3b5773ffffffffffffffffffffffffffffffffffffffff85163b611b3b576040517f08c379a000000000000000000000000000000000000000000000000000000000815260206004820152601d60248201527f416464726573733a2063616c6c20746f206e6f6e2d636f6e747261637400000060448201526064016104e6565b508161129e565b61129e8383611cee565b6000808251604103611b825760208301516040840151606085015160001a611b7687828585611d32565b94509450505050611b8a565b506000905060025b9250929050565b60008060008573ffffffffffffffffffffffffffffffffffffffff16631626ba7e60e01b8686604051602401611bc8929190612e77565b604080517fffffffffffffffffffffffffffffffffffffffffffffffffffffffffffffffe08184030181529181526020820180517bffffffffffffffffffffffffffffffffffffffffffffffffffffffff167fffffffff00000000000000000000000000000000000000000000000000000000909416939093179092529051611c519190612e36565b600060405180830381855afa9150503d8060008114611c8c576040519150601f19603f3d011682016040523d82523d6000602084013e611c91565b606091505b5091509150818015611ca557506020815110155b8015611a93575080517f1626ba7e0000000000000000000000000000000000000000000000000000000090611ce39083016020908101908401612e00565b149695505050505050565b815115611cfe5781518083602001fd5b806040517f08c379a00000000000000000000000000000000000000000000000000000000081526004016104e69190612e90565b6000807f7fffffffffffffffffffffffffffffff5d576e7357a4501ddfe92f46681b20a0831115611d695750600090506003611e18565b6040805160008082526020820180845289905260ff881692820192909252606081018690526080810185905260019060a0016020604051602081039080840390855afa158015611dbd573d6000803e3d6000fd5b50506040517fffffffffffffffffffffffffffffffffffffffffffffffffffffffffffffffe0015191505073ffffffffffffffffffffffffffffffffffffffff8116611e1157600060019250925050611e18565b9150600090505b94509492505050565b600060208284031215611e3357600080fd5b81357fffffffff0000000000000000000000000000000000000000000000000000000081168114611e6357600080fd5b9392505050565b73ffffffffffffffffffffffffffffffffffffffff8116811461131957600080fd5b60008060008060008060a08789031215611ea557600080fd5b8635611eb081611e6a565b95506020870135611ec081611e6a565b94506040870135935060608701359250608087013567ffffffffffffffff80821115611eeb57600080fd5b818901915089601f830112611eff57600080fd5b813581811115611f0e57600080fd5b8a6020828501011115611f2057600080fd5b6020830194508093505050509295509295509295565b7f4e487b7100000000000000000000000000000000000000000000000000000000600052604160045260246000fd5b6040516060810167ffffffffffffffff81118282101715611f8857611f88611f36565b60405290565b604051601f82017fffffffffffffffffffffffffffffffffffffffffffffffffffffffffffffffe016810167ffffffffffffffff81118282101715611fd557611fd5611f36565b604052919050565b600067ffffffffffffffff821115611ff757611ff7611f36565b50601f017fffffffffffffffffffffffffffffffffffffffffffffffffffffffffffffffe01660200190565b600082601f83011261203457600080fd5b813561204761204282611fdd565b611f8e565b81815284602083860101111561205c57600080fd5b816020850160208301376000918101602001919091529392505050565b60006020828403121561208b57600080fd5b813567ffffffffffffffff8111156120a257600080fd5b61129e84828501612023565b6000602082840312156120c057600080fd5b813567ffffffffffffffff8111156120d757600080fd5b820160608185031215611e6357600080fd5b600080604083850312156120fc57600080fd5b823567ffffffffffffffff81111561211357600080fd5b830160a0818603121561212557600080fd5b946020939093013593505050565b60008060006060848603121561214857600080fd5b833561215381611e6a565b9250602084013561216381611e6a565b9150604084013567ffffffffffffffff81111561217f57600080fd5b61218b86828701612023565b9150509250925092565b60005b838110156121b0578181015183820152602001612198565b50506000910152565b600082601f8301126121ca57600080fd5b81516121d861204282611fdd565b8181528460208386010111156121ed57600080fd5b61129e826020830160208701612195565b600082601f83011261220f57600080fd5b8151602067ffffffffffffffff82111561222b5761222b611f36565b8160051b61223a828201611f8e565b928352848101820192828101908785111561225457600080fd5b83870192505b84831015611a175782518252918301919083019061225a565b60006020828403121561228557600080fd5b815167ffffffffffffffff8082111561229d57600080fd5b90830190606082860312156122b157600080fd5b6122b9611f65565b82516122c481611e6a565b81526020830151828111156122d857600080fd5b8301606081880312156122ea57600080fd5b6122f2611f65565b81516122fd81611e6a565b815260208201518481111561231157600080fd5b61231d898285016121b9565b60208301525060408201518481111561233557600080fd5b612341898285016121fe565b604083015250806020840152505060408301518281111561236157600080fd5b61236d878286016121b9565b60408301525095945050505050565b60008151808452612394816020860160208601612195565b601f017fffffffffffffffffffffffffffffffffffffffffffffffffffffffffffffffe0169290920160200192915050565b600081518084526020808501945080840160005b838110156123f6578151875295820195908201906001016123da565b509495945050505050565b600073ffffffffffffffffffffffffffffffffffffffff80851683526040602084015280845116604084015260208401516060808501528181511660a085015260208101519150606060c085015261245d61010085018361237c565b9150604081015190507fffffffffffffffffffffffffffffffffffffffffffffffffffffffffffffff608483030160e085015261249a82826123c6565b91505060408401517fffffffffffffffffffffffffffffffffffffffffffffffffffffffffffffffc0848303016080850152611a93828261237c565b6040815260006124e9604083018561237c565b82810360208401526124fb81856123c6565b95945050505050565b6000806000806080858703121561251a57600080fd5b845161252581611e6a565b602086015190945061253681611e6a565b604086015190935061254781611e6a565b606086015190925067ffffffffffffffff81111561256457600080fd5b612570878288016121b9565b91505092959194509250565b60008083357fffffffffffffffffffffffffffffffffffffffffffffffffffffffffffffffe18436030181126125b157600080fd5b83018035915067ffffffffffffffff8211156125cc57600080fd5b6020019150600581901b3603821315611b8a57600080fd5b7f4e487b7100000000000000000000000000000000000000000000000000000000600052603260045260246000fd5b600082357fffffffffffffffffffffffffffffffffffffffffffffffffffffffffffffff8183360301811261264757600080fd5b9190910192915050565b600082357fffffffffffffffffffffffffffffffffffffffffffffffffffffffffffffff2183360301811261264757600080fd5b60008083357fffffffffffffffffffffffffffffffffffffffffffffffffffffffffffffffe18436030181126126ba57600080fd5b83018035915067ffffffffffffffff8211156126d557600080fd5b6020019150606081023603821315611b8a57600080fd5b6000602082840312156126fe57600080fd5b8135611e6381611e6a565b600060a0820173ffffffffffffffffffffffffffffffffffffffff881683526020878185015286604085015260a0606085015281865180845260c08601915060c08160051b870101935082880160005b828110156127a5577fffffffffffffffffffffffffffffffffffffffffffffffffffffffffffffff408887030184526127938683516123c6565b95509284019290840190600101612759565b505050505082810360808401526127bc81856123c6565b98975050505050505050565b600080604083850312156127db57600080fd5b825167ffffffffffffffff808211156127f357600080fd5b6127ff868387016121fe565b9350602085015191508082111561281557600080fd5b50612822858286016121fe565b9150509250929050565b82815260406020820152600061129e60408301846123c6565b60008083357fffffffffffffffffffffffffffffffffffffffffffffffffffffffffffffffe184360301811261287a57600080fd5b830160208101925035905067ffffffffffffffff81111561289a57600080fd5b8060051b3603821315611b8a57600080fd5b801515811461131957600080fd5b60008083357fffffffffffffffffffffffffffffffffffffffffffffffffffffffffffffffe18436030181126128ef57600080fd5b830160208101925035905067ffffffffffffffff81111561290f57600080fd5b606081023603821315611b8a57600080fd5b818352600060208085019450826000805b8681101561299157823561294581611e6a565b73ffffffffffffffffffffffffffffffffffffffff1688528284013560ff8116808214612970578384fd5b89860152506040838101359089015260609788019790920191600101612932565b50959695505050505050565b60008083357fffffffffffffffffffffffffffffffffffffffffffffffffffffffffffffffe18436030181126129d257600080fd5b830160208101925035905067ffffffffffffffff8111156129f257600080fd5b803603821315611b8a57600080fd5b8183528181602085013750600060208284010152600060207fffffffffffffffffffffffffffffffffffffffffffffffffffffffffffffffe0601f840116840101905092915050565b81835260006020808501808196506005915085821b81018560005b88811015612b5b578383038a5281357fffffffffffffffffffffffffffffffffffffffffffffffffffffffffffffffa1893603018112612aa457600080fd5b880160608135612ab381611e6a565b73ffffffffffffffffffffffffffffffffffffffff168552612ad782890183612845565b828a8801528083880152608092507f07ffffffffffffffffffffffffffffffffffffffffffffffffffffffffffffff811115612b1257600080fd5b881b808288850137860190506040612b2c8482018561299d565b9450838884030182890152612b448484018683612a01565b9e8b019e9750505093880193505050600101612a65565b509098975050505050505050565b6000602080835260c083018435828501526040828601358186015260608187013581870152612b9a81880188612845565b60a060808981018290529582905260e095868a01600584901b8b0188018560005b86811015612d85577fffffffffffffffffffffffffffffffffffffffffffffffffffffffffffffff208e840301845281357fffffffffffffffffffffffffffffffffffffffffffffffffffffffffffffff81893603018112612c1c57600080fd5b88018035368290037fffffffffffffffffffffffffffffffffffffffffffffffffffffffffffffff21018112612c5157600080fd5b86855281018035612c6181611e6a565b73ffffffffffffffffffffffffffffffffffffffff90811686890152818f013590612c8b826128ac565b901515868a0152818d013590612ca082611e6a565b90811660c0870152818c013590612cb682611e6a565b908116868f01528188013590612ccb82611e6a565b16610100860152612cde818901826128ba565b8e610120880152612cf461016088018284612921565b915050612d0460c08301836128ba565b92507fffffffffffffffffffffffffffffffffffffffffffffffffffffffffffffff8087830301610140880152612d3c828483612921565b925050508d8201358e8601528b8201358c860152612d5c8b830183612845565b92508582038c870152612d70828483612a4a565b968f019695505050918c019150600101612bbb565b5050612d93838e018e61299d565b9a5098507fffffffffffffffffffffffffffffffffffffffffffffffffffffffffffffffe08c820301848d0152612dcb818b8b612a01565b9d9c50505050505050505050505050565b60008060408385031215612def57600080fd5b505080516020909101519092909150565b600060208284031215612e1257600080fd5b5051919050565b600060208284031215612e2b57600080fd5b8151611e63816128ac565b60008251612647818460208701612195565b7f4e487b7100000000000000000000000000000000000000000000000000000000600052602160045260246000fd5b82815260406020820152600061129e604083018461237c565b602081526000611e63602083018461237c56fe416464726573733a206c6f772d6c6576656c2063616c6c20776974682076616c7565206661696c6564",
    "linkReferences": {}
  },
  "methodIdentifiers": {
    "arb((uint256,uint256,uint256,((address,bool,(address,address,address),(address,uint8,uint256)[],(address,uint8,uint256)[]),uint256,uint256,(address,uint256[],bytes)[])[],bytes),uint256)": "c3b7c7c3",
    "initialize((address,(address,bytes,uint256[]),bytes))": "98da8d6a",
    "initialize(bytes)": "439fab91",
    "onTakeOrders(address,address,uint256,uint256,bytes)": "059bebe6",
    "sI9r()": "71c1dea7",
    "sI9rDispatch()": "89448c3a",
    "sI9rStore()": "61bb39e4",
    "sOrderBook()": "886d1650",
    "supportsInterface(bytes4)": "01ffc9a7"
  },
  "id": 170
}