{
  "abi": [
    {
      "inputs": [
        {
          "components": [
            {
              "internalType": "address",
              "name": "interpreter",
              "type": "address"
            },
            {
              "internalType": "address",
              "name": "store",
              "type": "address"
            },
            {
              "internalType": "address",
              "name": "parser",
              "type": "address"
            },
            {
              "internalType": "bytes",
              "name": "meta",
              "type": "bytes"
            }
          ],
          "internalType": "struct RainterpreterExpressionDeployerNPE2ConstructionConfig",
          "name": "config",
          "type": "tuple"
        }
      ],
      "stateMutability": "nonpayable",
      "type": "constructor"
    },
    {
      "inputs": [
        {
          "internalType": "uint256",
          "name": "dynamicLength",
          "type": "uint256"
        },
        {
          "internalType": "uint256",
          "name": "standardOpsLength",
          "type": "uint256"
        }
      ],
      "name": "BadDynamicLength",
      "type": "error"
    },
    {
      "inputs": [
        {
          "internalType": "uint256",
          "name": "opIndex",
          "type": "uint256"
        },
        {
          "internalType": "uint256",
          "name": "calculatedInputs",
          "type": "uint256"
        },
        {
          "internalType": "uint256",
          "name": "bytecodeInputs",
          "type": "uint256"
        }
      ],
      "name": "BadOpInputsLength",
      "type": "error"
    },
    {
      "inputs": [
        {
          "internalType": "uint256",
          "name": "sourceOutputs",
          "type": "uint256"
        },
        {
          "internalType": "uint256",
          "name": "outputs",
          "type": "uint256"
        }
      ],
      "name": "CallOutputsExceedSource",
      "type": "error"
    },
    {
      "inputs": [
        {
          "internalType": "uint256",
          "name": "opIndex",
          "type": "uint256"
        },
        {
          "internalType": "uint256",
          "name": "constantsLength",
          "type": "uint256"
        },
        {
          "internalType": "uint256",
          "name": "constantRead",
          "type": "uint256"
        }
      ],
      "name": "OutOfBoundsConstantRead",
      "type": "error"
    },
    {
      "inputs": [
        {
          "internalType": "uint256",
          "name": "opIndex",
          "type": "uint256"
        },
        {
          "internalType": "uint256",
          "name": "stackTopIndex",
          "type": "uint256"
        },
        {
          "internalType": "uint256",
          "name": "stackRead",
          "type": "uint256"
        }
      ],
      "name": "OutOfBoundsStackRead",
      "type": "error"
    },
    {
      "inputs": [
        {
          "internalType": "bytes",
          "name": "bytecode",
          "type": "bytes"
        },
        {
          "internalType": "uint256",
          "name": "sourceIndex",
          "type": "uint256"
        }
      ],
      "name": "SourceIndexOutOfBounds",
      "type": "error"
    },
    {
      "inputs": [
        {
          "internalType": "uint256",
          "name": "stackMaxIndex",
          "type": "uint256"
        },
        {
          "internalType": "uint256",
          "name": "bytecodeAllocation",
          "type": "uint256"
        }
      ],
      "name": "StackAllocationMismatch",
      "type": "error"
    },
    {
      "inputs": [
        {
          "internalType": "uint256",
          "name": "stackIndex",
          "type": "uint256"
        },
        {
          "internalType": "uint256",
          "name": "bytecodeOutputs",
          "type": "uint256"
        }
      ],
      "name": "StackOutputsMismatch",
      "type": "error"
    },
    {
      "inputs": [
        {
          "internalType": "bytes",
          "name": "bytecode",
          "type": "bytes"
        },
        {
          "internalType": "uint256",
          "name": "relativeOffset",
          "type": "uint256"
        }
      ],
      "name": "StackSizingsNotMonotonic",
      "type": "error"
    },
    {
      "inputs": [
        {
          "internalType": "uint256",
          "name": "opIndex",
          "type": "uint256"
        },
        {
          "internalType": "uint256",
          "name": "stackIndex",
          "type": "uint256"
        },
        {
          "internalType": "uint256",
          "name": "calculatedInputs",
          "type": "uint256"
        }
      ],
      "name": "StackUnderflow",
      "type": "error"
    },
    {
      "inputs": [
        {
          "internalType": "uint256",
          "name": "opIndex",
          "type": "uint256"
        },
        {
          "internalType": "uint256",
          "name": "stackIndex",
          "type": "uint256"
        },
        {
          "internalType": "uint256",
          "name": "stackHighwater",
          "type": "uint256"
        }
      ],
      "name": "StackUnderflowHighwater",
      "type": "error"
    },
    {
      "inputs": [
        {
          "internalType": "uint256",
          "name": "startBit",
          "type": "uint256"
        },
        {
          "internalType": "uint256",
          "name": "length",
          "type": "uint256"
        }
      ],
      "name": "TruncatedBitwiseEncoding",
      "type": "error"
    },
    {
      "inputs": [
        {
          "internalType": "bytes",
          "name": "bytecode",
          "type": "bytes"
        }
      ],
      "name": "TruncatedHeader",
      "type": "error"
    },
    {
      "inputs": [
        {
          "internalType": "bytes",
          "name": "bytecode",
          "type": "bytes"
        }
      ],
      "name": "TruncatedHeaderOffsets",
      "type": "error"
    },
    {
      "inputs": [
        {
          "internalType": "bytes",
          "name": "bytecode",
          "type": "bytes"
        }
      ],
      "name": "TruncatedSource",
      "type": "error"
    },
    {
      "inputs": [
        {
          "internalType": "bytes32",
          "name": "expectedConstructionMetaHash",
          "type": "bytes32"
        },
        {
          "internalType": "bytes32",
          "name": "actualConstructionMetaHash",
          "type": "bytes32"
        }
      ],
      "name": "UnexpectedConstructionMetaHash",
      "type": "error"
    },
    {
      "inputs": [
        {
          "internalType": "bytes32",
          "name": "expectedBytecodeHash",
          "type": "bytes32"
        },
        {
          "internalType": "bytes32",
          "name": "actualBytecodeHash",
          "type": "bytes32"
        }
      ],
      "name": "UnexpectedInterpreterBytecodeHash",
      "type": "error"
    },
    {
      "inputs": [
        {
          "internalType": "bytes32",
          "name": "expectedBytecodeHash",
          "type": "bytes32"
        },
        {
          "internalType": "bytes32",
          "name": "actualBytecodeHash",
          "type": "bytes32"
        }
      ],
      "name": "UnexpectedParserBytecodeHash",
      "type": "error"
    },
    {
      "inputs": [
        {
          "internalType": "bytes",
          "name": "bytecode",
          "type": "bytes"
        }
      ],
      "name": "UnexpectedSources",
      "type": "error"
    },
    {
      "inputs": [
        {
          "internalType": "bytes32",
          "name": "expectedBytecodeHash",
          "type": "bytes32"
        },
        {
          "internalType": "bytes32",
          "name": "actualBytecodeHash",
          "type": "bytes32"
        }
      ],
      "name": "UnexpectedStoreBytecodeHash",
      "type": "error"
    },
    {
      "inputs": [
        {
          "internalType": "bytes",
          "name": "bytecode",
          "type": "bytes"
        }
      ],
      "name": "UnexpectedTrailingOffsetBytes",
      "type": "error"
    },
    {
      "inputs": [
        {
          "internalType": "uint256",
          "name": "shiftAmount",
          "type": "uint256"
        }
      ],
      "name": "UnsupportedBitwiseShiftAmount",
      "type": "error"
    },
    {
      "inputs": [],
      "name": "WriteError",
      "type": "error"
    },
    {
      "inputs": [],
      "name": "ZeroLengthBitwiseEncoding",
      "type": "error"
    },
    {
      "anonymous": false,
      "inputs": [
        {
          "indexed": false,
          "internalType": "address",
          "name": "sender",
          "type": "address"
        },
        {
          "indexed": false,
          "internalType": "address",
          "name": "interpreter",
          "type": "address"
        },
        {
          "indexed": false,
          "internalType": "address",
          "name": "store",
          "type": "address"
        },
        {
          "indexed": false,
          "internalType": "address",
          "name": "parser",
          "type": "address"
        },
        {
          "indexed": false,
          "internalType": "bytes",
          "name": "meta",
          "type": "bytes"
        }
      ],
      "name": "DISPair",
      "type": "event"
    },
    {
      "anonymous": false,
      "inputs": [
        {
          "indexed": false,
          "internalType": "address",
          "name": "sender",
          "type": "address"
        },
        {
          "indexed": false,
          "internalType": "contract IInterpreterV2",
          "name": "interpreter",
          "type": "address"
        },
        {
          "indexed": false,
          "internalType": "contract IInterpreterStoreV1",
          "name": "store",
          "type": "address"
        },
        {
          "indexed": false,
          "internalType": "address",
          "name": "expression",
          "type": "address"
        },
        {
          "indexed": false,
          "internalType": "bytes",
          "name": "io",
          "type": "bytes"
        }
      ],
      "name": "DeployedExpression",
      "type": "event"
    },
    {
      "anonymous": false,
      "inputs": [
        {
          "indexed": false,
          "internalType": "address",
          "name": "sender",
          "type": "address"
        },
        {
          "indexed": false,
          "internalType": "bytes",
          "name": "bytecode",
          "type": "bytes"
        },
        {
          "indexed": false,
          "internalType": "uint256[]",
          "name": "constants",
          "type": "uint256[]"
        }
      ],
      "name": "NewExpression",
      "type": "event"
    },
    {
      "inputs": [
        {
          "internalType": "bytes",
          "name": "bytecode",
          "type": "bytes"
        },
        {
          "internalType": "uint256[]",
          "name": "constants",
          "type": "uint256[]"
        }
      ],
      "name": "deployExpression2",
      "outputs": [
        {
          "internalType": "contract IInterpreterV2",
          "name": "",
          "type": "address"
        },
        {
          "internalType": "contract IInterpreterStoreV1",
          "name": "",
          "type": "address"
        },
        {
          "internalType": "address",
          "name": "",
          "type": "address"
        },
        {
          "internalType": "bytes",
          "name": "",
          "type": "bytes"
        }
      ],
      "stateMutability": "nonpayable",
      "type": "function"
    },
    {
      "inputs": [],
      "name": "expectedConstructionMetaHash",
      "outputs": [
        {
          "internalType": "bytes32",
          "name": "",
          "type": "bytes32"
        }
      ],
      "stateMutability": "pure",
      "type": "function"
    },
    {
      "inputs": [],
      "name": "iInterpreter",
      "outputs": [
        {
          "internalType": "contract IInterpreterV2",
          "name": "",
          "type": "address"
        }
      ],
      "stateMutability": "view",
      "type": "function"
    },
    {
      "inputs": [],
      "name": "iParser",
      "outputs": [
        {
          "internalType": "contract IParserV1",
          "name": "",
          "type": "address"
        }
      ],
      "stateMutability": "view",
      "type": "function"
    },
    {
      "inputs": [],
      "name": "iStore",
      "outputs": [
        {
          "internalType": "contract IInterpreterStoreV1",
          "name": "",
          "type": "address"
        }
      ],
      "stateMutability": "view",
      "type": "function"
    },
    {
      "inputs": [],
      "name": "integrityFunctionPointers",
      "outputs": [
        {
          "internalType": "bytes",
          "name": "",
          "type": "bytes"
        }
      ],
      "stateMutability": "view",
      "type": "function"
    },
    {
      "inputs": [
        {
          "internalType": "bytes4",
          "name": "interfaceId",
          "type": "bytes4"
        }
      ],
      "name": "supportsInterface",
      "outputs": [
        {
          "internalType": "bool",
          "name": "",
          "type": "bool"
        }
      ],
      "stateMutability": "view",
      "type": "function"
    }
  ],
  "bytecode": {
    "object": "0x60e06040523480156200001157600080fd5b5060405162001cfd38038062001cfd8339810160408190526200003491620003fe565b805160208083015160408401516001600160a01b0380851660805280831660a052811660c0526060850151805193019290922090919060008051602062001c9d8339815191528114620000b7576040516358e779d360e01b815260008051602062001c9d8339815191526004820152602481018290526044015b60405180910390fd5b833f60008051602062001cbd83398151915281146200010257604051630fc2051760e11b815260008051602062001cbd833981519152600482015260248101829052604401620000ae565b833f7f2a4559222e2f3600b2d393715de8af57620439684463f745059c653bbfe3727f81146200016f576040516348616a9b60e01b81527f2a4559222e2f3600b2d393715de8af57620439684463f745059c653bbfe3727f600482015260248101829052604401620000ae565b833f60008051602062001cdd8339815191528114620001ba57604051630941d86960e21b815260008051602062001cdd833981519152600482015260248101829052604401620000ae565b7fb74b59464615509ba41ca66e536d6b2b154ee16c52dbcb77804915b9be416931338888888c60600151604051620001f795949392919062000534565b60405180910390a1731820a4b7618bde71dce8cdc73aab6c95905fad243b156200033957604080518082018252601581527f4945787072657373696f6e4465706c6f79657256330000000000000000000000602082015290516365ba36c160e01b8152731820a4b7618bde71dce8cdc73aab6c95905fad24916329965a1d91309184916365ba36c1916200028e916004016200057d565b602060405180830381865afa158015620002ac573d6000803e3d6000fd5b505050506040513d601f19601f82011682018060405250810190620002d2919062000599565b6040516001600160e01b031960e085901b1681526001600160a01b0390921660048301526024820152306044820152606401600060405180830381600087803b1580156200031f57600080fd5b505af115801562000334573d6000803e3d6000fd5b505050505b5050505050505050620005b3565b634e487b7160e01b600052604160045260246000fd5b604051608081016001600160401b038111828210171562000382576200038262000347565b60405290565b604051601f8201601f191681016001600160401b0381118282101715620003b357620003b362000347565b604052919050565b80516001600160a01b0381168114620003d357600080fd5b919050565b60005b83811015620003f5578181015183820152602001620003db565b50506000910152565b600060208083850312156200041257600080fd5b82516001600160401b03808211156200042a57600080fd5b90840190608082870312156200043f57600080fd5b620004496200035d565b6200045483620003bb565b815262000463848401620003bb565b848201526200047560408401620003bb565b60408201526060830151828111156200048d57600080fd5b80840193505086601f840112620004a357600080fd5b825182811115620004b857620004b862000347565b620004cc601f8201601f1916860162000388565b92508083528785828601011115620004e357600080fd5b620004f481868501878701620003d8565b50606081019190915295945050505050565b6000815180845262000520816020860160208601620003d8565b601f01601f19169290920160200192915050565b6001600160a01b038681168252858116602083015284811660408301528316606082015260a060808201819052600090620005729083018462000506565b979650505050505050565b60208152600062000592602083018462000506565b9392505050565b600060208284031215620005ac57600080fd5b5051919050565b60805160a05160c05161169f620005fe600039600060dc015260008181610160015281816103b601526104140152600081816101870152818161039501526103f2015261169f6000f3fe608060405234801561001057600080fd5b506004361061007c5760003560e01c80638d6145911161005b5780638d61459114610123578063b7f1440314610138578063c19423bc1461015b578063f0cfdd371461018257600080fd5b80625f66131461008157806301ffc9a7146100b457806324376855146100d7575b600080fd5b6040517f5c09b3b8bb4d07920caa6fb35c1b957bd15b56b4797b95eee70332ed0bb04efb81526020015b60405180910390f35b6100c76100c2366004611210565b6101a9565b60405190151581526020016100ab565b6100fe7f000000000000000000000000000000000000000000000000000000000000000081565b60405173ffffffffffffffffffffffffffffffffffffffff90911681526020016100ab565b61012b610242565b6040516100ab91906112bd565b61014b6101463660046113ce565b610251565b6040516100ab94939291906114a4565b6100fe7f000000000000000000000000000000000000000000000000000000000000000081565b6100fe7f000000000000000000000000000000000000000000000000000000000000000081565b60007fffffffff0000000000000000000000000000000000000000000000000000000082167fb7f1440300000000000000000000000000000000000000000000000000000000148061023c57507fffffffff0000000000000000000000000000000000000000000000000000000082167f01ffc9a700000000000000000000000000000000000000000000000000000000145b92915050565b606061024c610444565b905090565b60008060006060600061027d6040518060a00160405280606a8152602001611635606a91398888610686565b90507f7a1ee5e61e017b93877cfd8824938645c5f7d6f401b8c6d19cbe8f6cb9ec2cab3388886040516102b2939291906114ef565b60405180910390a1855187516000918291610355916020020160400160408051602c83017fffffffffffffffffffffffffffffffffffffffffffffffffffffffffffffffe01681019091527effff0000000000000000000000000000000000000000000000000000000000600190920160e81b919091167f61000080600c6000396000f3000000000000000000000000000000000000000017815290600d820190565b91509150610364818a8a61098d565b600061036f836109d0565b90507f5c8bdfcfab3ec93dc2a3040de5d63b7dc99df02198f5def69ebf2d7eaffe2ee8337f00000000000000000000000000000000000000000000000000000000000000007f000000000000000000000000000000000000000000000000000000000000000084886040516103e8959493929190611560565b60405180910390a17f00000000000000000000000000000000000000000000000000000000000000009a7f00000000000000000000000000000000000000000000000000000000000000009a5090985092965091945050505050565b60606112066000603590508091506000604051806106c001604052808467ffffffffffffffff1667ffffffffffffffff168152602001610a3e8152602001610ab88152602001610b1f8152602001610b1f8152602001610b298152602001610b328152602001610b4d8152602001610bf38152602001610bf38152602001610c4f8152602001610ccb8152602001610cd58152602001610b1f8152602001610b1f8152602001610b298152602001610ccb8152602001610ccb8152602001610ccb8152602001610ccb8152602001610ccb8152602001610cdf8152602001610d018152602001610d2b8152602001610b1f8152602001610cdf8152602001610b1f8152602001610b1f8152602001610d4d8152602001610b298152602001610b1f8152602001610b1f8152602001610d578152602001610d578152602001610b1f8152602001610b298152602001610b298152602001610d578152602001610d578152602001610d578152602001610d578152602001610d578152602001610d578152602001610d578152602001610d578152602001610d578152602001610d578152602001610d578152602001610d578152602001610b298152602001610d6e8152602001610d788152602001610d788152602001610d788152509050606081905060358151146106745780516040517fc8b569010000000000000000000000000000000000000000000000000000000081526004810191909152602481018490526044015b60405180910390fd5b61067d81610d87565b94505050505090565b6060600061069384610e18565b9050602085016106a285610e36565b8160020267ffffffffffffffff8111156106be576106be6112d0565b6040519080825280601f01601f1916602001820160405280156106e8576020820181803683370190505b5092506020830160005b83811015610982576000806107078984611055565b9150915081845380600185015360028401935060006107288a848b5161107a565b9050600060186107388c876110e6565b03905060006107478c87611117565b600402820190505b808210156108cc578151601c81901a60020289015162ffffff821691601d1a9060f01c60008061077d888685565b915091508382146107d15760808801516040517fddf560710000000000000000000000000000000000000000000000000000000081526004810191909152602481018390526044810185905260640161066b565b875182111561082357608088015188516040517f2cab6bff000000000000000000000000000000000000000000000000000000008152600481019290925260248201526044810183905260640161066b565b87518290038089526040890151111561088557608088015188516040808b015190517f1bc5ab0f00000000000000000000000000000000000000000000000000000000815260048101939093526024830191909152604482015260640161066b565b875181018089526020890151101561089f57875160208901525b60018111156108b057875160408901525b505050608085018051600101905250506004919091019061074f565b6108d68c87611130565b83602001511461092a5782602001516108ef8d88611130565b6040517f4d9c18dc0000000000000000000000000000000000000000000000000000000081526004810192909252602482015260440161066b565b825184146109715782516040517f4689f0b300000000000000000000000000000000000000000000000000000000815260048101919091526024810185905260440161066b565b5050600190930192506106f2915050565b505050509392505050565b80600182510160200281015b808210156109b4578151855260209485019490910190610999565b50506109cb6109c08390565b848451602001611149565b505050565b6000806000600d9050835160e81c61ffff168101846000f0915073ffffffffffffffffffffffffffffffffffffffff8216610a37576040517f08d4abb600000000000000000000000000000000000000000000000000000000815260040160405180910390fd5b5092915050565b8151600090819083908110610a9657608085015185516040517feaa16f33000000000000000000000000000000000000000000000000000000008152600481019290925260248201526044810182905260640161066b565b8460400151811115610aaa57604085018190525b506000946001945092505050565b60008083606001518310610b1257608084015160608501516040517feb789454000000000000000000000000000000000000000000000000000000008152600481019290925260248201526044810184905260640161066b565b5060009360019350915050565b5060029160019150565b50600191829150565b600080610b3f8484610b4d565b506001958695509350505050565b60008060ff80841690600885901c16808303610b95576040517f46f0ca6900000000000000000000000000000000000000000000000000000000815260040160405180910390fd5b610100610ba282846115a9565b1115610be4576040517f8abcdd3f000000000000000000000000000000000000000000000000000000008152600481018390526024810182905260440161066b565b50600295600195509350505050565b60008061ffff831660ff811180610c08575080155b15610c42576040517fc1be16a10000000000000000000000000000000000000000000000000000000081526004810182905260240161066b565b5060019485945092505050565b60008060008360ff1690506000600885901c60ff169050600080610c778860a0015185611055565b9150915082811015610cbf576040517fff137108000000000000000000000000000000000000000000000000000000008152600481018290526024810184905260440161066b565b50969095509350505050565b5060009160019150565b60101c9160019150565b600080601083901c80610cf3576001610cf5565b805b95600195509350505050565b600080601083901c80610d15576002610d17565b805b90506002810615610cf35780600101610cf5565b600080601083901c80610d3f576001610d41565b805b95600095509350505050565b5060039160019150565b600080601083901c60018111610cf3576002610cf5565b5060029160009150565b60046001808316019250929050565b60606000825160020267ffffffffffffffff811115610da857610da86112d0565b6040519080825280601f01601f191660200182016040528015610dd2576020820181803683370190505b50905061ffff80196020850160208651028101600285015b81831015610e0c57805183518616908516178152602090920191600201610dea565b50939695505050505050565b60008151600003610e2b57506000919050565b506020015160001a90565b6000610e4182610e18565b905080156110135781516001600283020190811115610e8e57826040517f17f4bc5e00000000000000000000000000000000000000000000000000000000815260040161066b91906112bd565b82516020828501810191850101602160027fffffffffffffffffffffffffffffffffffffffffffffffffffffffffffffffff860102860181019086015b808210610fcf57815160f01c8481016004810185811115610f1957896040517e39ba5600000000000000000000000000000000000000000000000000000000815260040161066b91906112bd565b8151600081901a90600181901a90600281901a9060031a80821180610f3d57508281115b15610f78578d876040517feaf45f4f00000000000000000000000000000000000000000000000000000000815260040161066b9291906115e3565b505050600481028201878114610fbc578b6040517ffbb8027a00000000000000000000000000000000000000000000000000000000815260040161066b91906112bd565b8397506002870396505050505050610ecb565b83831461100a57866040517fde67b29a00000000000000000000000000000000000000000000000000000000815260040161066b91906112bd565b50505050505050565b60018251111561105157816040517fd013da5d00000000000000000000000000000000000000000000000000000000815260040161066b91906112bd565b5050565b600080600061106485856110e6565b51600281901a9660039190911a95509350505050565b6110b36040518060c001604052806000815260200160008152602001600081526020016000815260200160008152602001606081525090565b506040805160c081018252838152602081018490529081019290925260608201526000608082015260a081019190915290565b6000806110f284610e18565b6002026001019050600061110685856111af565b949091019093016020019392505050565b60008061112484846110e6565b5160001a949350505050565b60008061113d84846110e6565b5160011a949350505050565b6020810680820384015b8085101561116e578451845260209485019490930192611153565b5080156111a9577fffffffffffffffffffffffffffffffffffffffffffffffffffffffffffffffff600882021c808451168119865116178452505b50505050565b60006111ba83610e18565b82106111f65782826040517f30489add00000000000000000000000000000000000000000000000000000000815260040161066b9291906115e3565b50600202016003015161ffff1690565b61120e611605565b565b60006020828403121561122257600080fd5b81357fffffffff000000000000000000000000000000000000000000000000000000008116811461125257600080fd5b9392505050565b6000815180845260005b8181101561127f57602081850181015186830182015201611263565b5060006020828601015260207fffffffffffffffffffffffffffffffffffffffffffffffffffffffffffffffe0601f83011685010191505092915050565b6020815260006112526020830184611259565b7f4e487b7100000000000000000000000000000000000000000000000000000000600052604160045260246000fd5b604051601f82017fffffffffffffffffffffffffffffffffffffffffffffffffffffffffffffffe016810167ffffffffffffffff81118282101715611346576113466112d0565b604052919050565b600082601f83011261135f57600080fd5b8135602067ffffffffffffffff82111561137b5761137b6112d0565b8160051b61138a8282016112ff565b92835284810182019282810190878511156113a457600080fd5b83870192505b848310156113c3578235825291830191908301906113aa565b979650505050505050565b600080604083850312156113e157600080fd5b823567ffffffffffffffff808211156113f957600080fd5b818501915085601f83011261140d57600080fd5b8135602082821115611421576114216112d0565b611451817fffffffffffffffffffffffffffffffffffffffffffffffffffffffffffffffe0601f850116016112ff565b828152888284870101111561146557600080fd5b8282860183830137600092810182019290925290945085013591508082111561148d57600080fd5b5061149a8582860161134e565b9150509250929050565b600073ffffffffffffffffffffffffffffffffffffffff80871683528086166020840152808516604084015250608060608301526114e56080830184611259565b9695505050505050565b73ffffffffffffffffffffffffffffffffffffffff841681526000602060608184015261151f6060840186611259565b838103604085015284518082528286019183019060005b8181101561155257835183529284019291840191600101611536565b509098975050505050505050565b600073ffffffffffffffffffffffffffffffffffffffff80881683528087166020840152808616604084015280851660608401525060a060808301526113c360a0830184611259565b8082018082111561023c577f4e487b7100000000000000000000000000000000000000000000000000000000600052601160045260246000fd5b6040815260006115f66040830185611259565b90508260208301529392505050565b7f4e487b7100000000000000000000000000000000000000000000000000000000600052605160045260246000fdfe0a3e0ab80b1f0b1f0b290b320b4d0bf30bf30c4f0ccb0cd50b1f0b1f0b290ccb0ccb0ccb0ccb0ccb0cdf0d010d2b0b1f0cdf0b1f0b1f0d4d0b290b1f0b1f0d570d570b1f0b290b290d570d570d570d570d570d570d570d570d570d570d570d570b290d6e0d780d780d785c09b3b8bb4d07920caa6fb35c1b957bd15b56b4797b95eee70332ed0bb04efbfe1a0cace04f932fe3baa0a1fc3bb7c5b1ebbc4845469c20c9fcde4725577d2de1a894f5142cb769fd8648f39e34c167ddf978129dae05d551d1fea8263dede1",
    "linkReferences": {}
  },
  "methodIdentifiers": {
    "deployExpression2(bytes,uint256[])": "b7f14403",
    "expectedConstructionMetaHash()": "005f6613",
    "iInterpreter()": "f0cfdd37",
    "iParser()": "24376855",
    "iStore()": "c19423bc",
    "integrityFunctionPointers()": "8d614591",
    "supportsInterface(bytes4)": "01ffc9a7"
  },
  "id": 80
}