{
  "abi": [
    {
      "inputs": [
        {
          "components": [
            {
              "internalType": "address",
              "name": "deployer",
              "type": "address"
            },
            {
              "internalType": "bytes",
              "name": "meta",
              "type": "bytes"
            }
          ],
          "internalType": "struct DeployerDiscoverableMetaV3ConstructionConfig",
          "name": "config",
          "type": "tuple"
        }
      ],
      "stateMutability": "nonpayable",
      "type": "constructor"
    },
    {
      "inputs": [
        {
          "internalType": "address",
          "name": "badLender",
          "type": "address"
        }
      ],
      "name": "BadLender",
      "type": "error"
    },
    {
      "inputs": [],
      "name": "InitializeSignatureFn",
      "type": "error"
    },
    {
      "inputs": [],
      "name": "Initializing",
      "type": "error"
    },
    {
      "inputs": [
        {
          "internalType": "uint256",
          "name": "i",
          "type": "uint256"
        }
      ],
      "name": "InvalidSignature",
      "type": "error"
    },
    {
      "inputs": [
        {
          "internalType": "uint256",
          "name": "minimum",
          "type": "uint256"
        },
        {
          "internalType": "uint256",
          "name": "actual",
          "type": "uint256"
        }
      ],
      "name": "MinimumOutput",
      "type": "error"
    },
    {
      "inputs": [],
      "name": "NoOrders",
      "type": "error"
    },
    {
      "inputs": [
        {
          "internalType": "uint256",
          "name": "inputs",
          "type": "uint256"
        }
      ],
      "name": "NonZeroBeforeArbInputs",
      "type": "error"
    },
    {
      "inputs": [],
      "name": "NonZeroBeforeArbStack",
      "type": "error"
    },
    {
      "inputs": [
        {
          "internalType": "bytes",
          "name": "unmeta",
          "type": "bytes"
        }
      ],
      "name": "NotRainMetaV1",
      "type": "error"
    },
    {
      "inputs": [
        {
          "internalType": "bytes32",
          "name": "expectedHash",
          "type": "bytes32"
        },
        {
          "internalType": "bytes32",
          "name": "actualHash",
          "type": "bytes32"
        }
      ],
      "name": "UnexpectedMetaHash",
      "type": "error"
    },
    {
      "anonymous": false,
      "inputs": [
        {
          "indexed": false,
          "internalType": "address",
          "name": "sender",
          "type": "address"
        },
        {
          "components": [
            {
              "internalType": "address",
              "name": "orderBook",
              "type": "address"
            },
            {
              "components": [
                {
                  "internalType": "contract IExpressionDeployerV3",
                  "name": "deployer",
                  "type": "address"
                },
                {
                  "internalType": "bytes",
                  "name": "bytecode",
                  "type": "bytes"
                },
                {
                  "internalType": "uint256[]",
                  "name": "constants",
                  "type": "uint256[]"
                }
              ],
              "internalType": "struct EvaluableConfigV3",
              "name": "evaluableConfig",
              "type": "tuple"
            },
            {
              "internalType": "bytes",
              "name": "implementationData",
              "type": "bytes"
            }
          ],
          "indexed": false,
          "internalType": "struct OrderBookV3ArbOrderTakerConfigV1",
          "name": "config",
          "type": "tuple"
        }
      ],
      "name": "Initialize",
      "type": "event"
    },
    {
      "anonymous": false,
      "inputs": [
        {
          "indexed": false,
          "internalType": "uint8",
          "name": "version",
          "type": "uint8"
        }
      ],
      "name": "Initialized",
      "type": "event"
    },
    {
      "anonymous": false,
      "inputs": [
        {
          "indexed": false,
          "internalType": "address",
          "name": "sender",
          "type": "address"
        },
        {
          "indexed": false,
          "internalType": "uint256",
          "name": "subject",
          "type": "uint256"
        },
        {
          "indexed": false,
          "internalType": "bytes",
          "name": "meta",
          "type": "bytes"
        }
      ],
      "name": "MetaV1",
      "type": "event"
    },
    {
      "stateMutability": "nonpayable",
      "type": "fallback"
    },
    {
      "inputs": [
        {
          "components": [
            {
              "internalType": "uint256",
              "name": "minimumInput",
              "type": "uint256"
            },
            {
              "internalType": "uint256",
              "name": "maximumInput",
              "type": "uint256"
            },
            {
              "internalType": "uint256",
              "name": "maximumIORatio",
              "type": "uint256"
            },
            {
              "components": [
                {
                  "components": [
                    {
                      "internalType": "address",
                      "name": "owner",
                      "type": "address"
                    },
                    {
                      "internalType": "bool",
                      "name": "handleIO",
                      "type": "bool"
                    },
                    {
                      "components": [
                        {
                          "internalType": "contract IInterpreterV2",
                          "name": "interpreter",
                          "type": "address"
                        },
                        {
                          "internalType": "contract IInterpreterStoreV1",
                          "name": "store",
                          "type": "address"
                        },
                        {
                          "internalType": "address",
                          "name": "expression",
                          "type": "address"
                        }
                      ],
                      "internalType": "struct EvaluableV2",
                      "name": "evaluable",
                      "type": "tuple"
                    },
                    {
                      "components": [
                        {
                          "internalType": "address",
                          "name": "token",
                          "type": "address"
                        },
                        {
                          "internalType": "uint8",
                          "name": "decimals",
                          "type": "uint8"
                        },
                        {
                          "internalType": "uint256",
                          "name": "vaultId",
                          "type": "uint256"
                        }
                      ],
                      "internalType": "struct IO[]",
                      "name": "validInputs",
                      "type": "tuple[]"
                    },
                    {
                      "components": [
                        {
                          "internalType": "address",
                          "name": "token",
                          "type": "address"
                        },
                        {
                          "internalType": "uint8",
                          "name": "decimals",
                          "type": "uint8"
                        },
                        {
                          "internalType": "uint256",
                          "name": "vaultId",
                          "type": "uint256"
                        }
                      ],
                      "internalType": "struct IO[]",
                      "name": "validOutputs",
                      "type": "tuple[]"
                    }
                  ],
                  "internalType": "struct OrderV2",
                  "name": "order",
                  "type": "tuple"
                },
                {
                  "internalType": "uint256",
                  "name": "inputIOIndex",
                  "type": "uint256"
                },
                {
                  "internalType": "uint256",
                  "name": "outputIOIndex",
                  "type": "uint256"
                },
                {
                  "components": [
                    {
                      "internalType": "address",
                      "name": "signer",
                      "type": "address"
                    },
                    {
                      "internalType": "uint256[]",
                      "name": "context",
                      "type": "uint256[]"
                    },
                    {
                      "internalType": "bytes",
                      "name": "signature",
                      "type": "bytes"
                    }
                  ],
                  "internalType": "struct SignedContextV1[]",
                  "name": "signedContext",
                  "type": "tuple[]"
                }
              ],
              "internalType": "struct TakeOrderConfigV2[]",
              "name": "orders",
              "type": "tuple[]"
            },
            {
              "internalType": "bytes",
              "name": "data",
              "type": "bytes"
            }
          ],
          "internalType": "struct TakeOrdersConfigV2",
          "name": "takeOrders",
          "type": "tuple"
        },
        {
          "internalType": "uint256",
          "name": "minimumSenderOutput",
          "type": "uint256"
        }
      ],
      "name": "arb",
      "outputs": [],
      "stateMutability": "payable",
      "type": "function"
    },
    {
      "inputs": [
        {
          "internalType": "bytes",
          "name": "data",
          "type": "bytes"
        }
      ],
      "name": "initialize",
      "outputs": [
        {
          "internalType": "bytes32",
          "name": "",
          "type": "bytes32"
        }
      ],
      "stateMutability": "nonpayable",
      "type": "function"
    },
    {
      "inputs": [
        {
          "components": [
            {
              "internalType": "address",
              "name": "orderBook",
              "type": "address"
            },
            {
              "components": [
                {
                  "internalType": "contract IExpressionDeployerV3",
                  "name": "deployer",
                  "type": "address"
                },
                {
                  "internalType": "bytes",
                  "name": "bytecode",
                  "type": "bytes"
                },
                {
                  "internalType": "uint256[]",
                  "name": "constants",
                  "type": "uint256[]"
                }
              ],
              "internalType": "struct EvaluableConfigV3",
              "name": "evaluableConfig",
              "type": "tuple"
            },
            {
              "internalType": "bytes",
              "name": "implementationData",
              "type": "bytes"
            }
          ],
          "internalType": "struct OrderBookV3ArbOrderTakerConfigV1",
          "name": "",
          "type": "tuple"
        }
      ],
      "name": "initialize",
      "outputs": [
        {
          "internalType": "bytes32",
          "name": "",
          "type": "bytes32"
        }
      ],
      "stateMutability": "pure",
      "type": "function"
    },
    {
      "inputs": [
        {
          "internalType": "address",
          "name": "inputToken",
          "type": "address"
        },
        {
          "internalType": "address",
          "name": "outputToken",
          "type": "address"
        },
        {
          "internalType": "uint256",
          "name": "inputAmountSent",
          "type": "uint256"
        },
        {
          "internalType": "uint256",
          "name": "totalOutputAmount",
          "type": "uint256"
        },
        {
          "internalType": "bytes",
          "name": "takeOrdersData",
          "type": "bytes"
        }
      ],
      "name": "onTakeOrders",
      "outputs": [],
      "stateMutability": "nonpayable",
      "type": "function"
    },
    {
      "inputs": [],
      "name": "sI9r",
      "outputs": [
        {
          "internalType": "contract IInterpreterV2",
          "name": "",
          "type": "address"
        }
      ],
      "stateMutability": "view",
      "type": "function"
    },
    {
      "inputs": [],
      "name": "sI9rDispatch",
      "outputs": [
        {
          "internalType": "EncodedDispatch",
          "name": "",
          "type": "uint256"
        }
      ],
      "stateMutability": "view",
      "type": "function"
    },
    {
      "inputs": [],
      "name": "sI9rStore",
      "outputs": [
        {
          "internalType": "contract IInterpreterStoreV1",
          "name": "",
          "type": "address"
        }
      ],
      "stateMutability": "view",
      "type": "function"
    },
    {
      "inputs": [],
      "name": "sOrderBook",
      "outputs": [
        {
          "internalType": "contract IOrderBookV3",
          "name": "",
          "type": "address"
        }
      ],
      "stateMutability": "view",
      "type": "function"
    },
    {
      "inputs": [],
      "name": "sRouteProcessor",
      "outputs": [
        {
          "internalType": "contract IRouteProcessor",
          "name": "",
          "type": "address"
        }
      ],
      "stateMutability": "view",
      "type": "function"
    },
    {
      "inputs": [
        {
          "internalType": "bytes4",
          "name": "interfaceId",
          "type": "bytes4"
        }
      ],
      "name": "supportsInterface",
      "outputs": [
        {
          "internalType": "bool",
          "name": "",
          "type": "bool"
        }
      ],
      "stateMutability": "view",
      "type": "function"
    }
  ],
  "bytecode": {
    "object": "0x60806040523480156200001157600080fd5b506040516200358d3803806200358d8339810160408190526200003491620003d2565b600160005560208101517f6b0cdd85f2332f483d4cf2ad85c9538af7c47632abd119a748d313b3681f89329082908290829062000073908390620000d7565b60208101516040517fbea766d03fa1efd3f81cc8634d08320bc62bb0ed9234ac59bbaafa5893fb6b1391620000ac9133913091620004a0565b60405180910390a18051620000c1906200011e565b50620000ce9050620001d1565b505050620005c6565b805160208201208281146200010e5760405163074fe10f60e41b815260048101849052602481018290526044015b60405180910390fd5b62000119826200028f565b505050565b60008080806001600160a01b03851663b7f14403826040519080825280602002602001820160405280156200015d578160200160208202803683370190505b506040518263ffffffff1660e01b81526004016200017c9190620004d2565b6000604051808303816000875af11580156200019c573d6000803e3d6000fd5b505050506040513d6000823e601f3d908101601f19168201604052620001c6919081019062000529565b505050505050505050565b600154610100900460ff16156200023b5760405162461bcd60e51b815260206004820152602760248201527f496e697469616c697a61626c653a20636f6e747261637420697320696e697469604482015266616c697a696e6760c81b606482015260840162000105565b60015460ff908116146200028d576001805460ff191660ff9081179091556040519081527f7f26b83ff96e1f2b6a682f133852f6798a09c465da95921460cefb38474024989060200160405180910390a15b565b6200029a81620002bf565b620002bc5780604051630c89984b60e31b8152600401620001059190620005aa565b50565b6000600882511015620002d457506000919050565b50600801516001600160401b031667ff0a89c674ee78741490565b634e487b7160e01b600052604160045260246000fd5b6001600160a01b0381168114620002bc57600080fd5b60005b83811015620003385781810151838201526020016200031e565b50506000910152565b600082601f8301126200035357600080fd5b81516001600160401b0380821115620003705762000370620002ef565b604051601f8301601f19908116603f011681019082821181831017156200039b576200039b620002ef565b81604052838152866020858801011115620003b557600080fd5b620003c88460208301602089016200031b565b9695505050505050565b600060208284031215620003e557600080fd5b81516001600160401b0380821115620003fd57600080fd5b90830190604082860312156200041257600080fd5b604051604081018181108382111715620004305762000430620002ef565b6040528251620004408162000305565b81526020830151828111156200045557600080fd5b620004638782860162000341565b60208301525095945050505050565b600081518084526200048c8160208601602086016200031b565b601f01601f19169290920160200192915050565b60018060a01b0384168152826020820152606060408201526000620004c9606083018462000472565b95945050505050565b60408152600060408201526000606082016020606081850152818551808452608086019150828701935060005b818110156200051d57845183529383019391830191600101620004ff565b50909695505050505050565b600080600080608085870312156200054057600080fd5b84516200054d8162000305565b6020860151909450620005608162000305565b6040860151909350620005738162000305565b60608601519092506001600160401b038111156200059057600080fd5b6200059e8782880162000341565b91505092959194509250565b602081526000620005bf602083018462000472565b9392505050565b612fb780620005d66000396000f3fe6080604052600436106100b15760003560e01c806371c1dea71161006957806389448c3a1161004e57806389448c3a1461026457806398da8d6a1461027a578063c3b7c7c31461029a576100b1565b806371c1dea714610204578063886d165014610231576100b1565b8063141ae6e61161009a578063141ae6e614610157578063439fab91146101a957806361bb39e4146101d7576100b1565b806301ffc9a714610102578063059bebe614610137575b3480156100bd57600080fd5b50600154610100900460ff1615610100576040517f4e8f6c4400000000000000000000000000000000000000000000000000000000815260040160405180910390fd5b005b34801561010e57600080fd5b5061012261011d366004611f35565b6102ad565b60405190151581526020015b60405180910390f35b34801561014357600080fd5b50610100610152366004611fa3565b610392565b34801561016357600080fd5b506005546101849073ffffffffffffffffffffffffffffffffffffffff1681565b60405173ffffffffffffffffffffffffffffffffffffffff909116815260200161012e565b3480156101b557600080fd5b506101c96101c436600461213a565b6104fb565b60405190815260200161012e565b3480156101e357600080fd5b506004546101849073ffffffffffffffffffffffffffffffffffffffff1681565b34801561021057600080fd5b506003546101849073ffffffffffffffffffffffffffffffffffffffff1681565b34801561023d57600080fd5b506001546101849062010000900473ffffffffffffffffffffffffffffffffffffffff1681565b34801561027057600080fd5b506101c960025481565b34801561028657600080fd5b506101c96102953660046121ba565b610917565b6101006102a83660046121f5565b61094b565b60007fffffffff0000000000000000000000000000000000000000000000000000000082167f059bebe600000000000000000000000000000000000000000000000000000000148061034057507fffffffff0000000000000000000000000000000000000000000000000000000082167f439fab9100000000000000000000000000000000000000000000000000000000145b8061038c57507f01ffc9a7000000000000000000000000000000000000000000000000000000007fffffffff000000000000000000000000000000000000000000000000000000008316145b92915050565b6103a08686868686866110b3565b6005546103c89073ffffffffffffffffffffffffffffffffffffffff88811691166000611156565b60055461040f9073ffffffffffffffffffffffffffffffffffffffff88811691167fffffffffffffffffffffffffffffffffffffffffffffffffffffffffffffffff611156565b600061041d8284018461213a565b6005546040517f2646478b00000000000000000000000000000000000000000000000000000000815291925060009173ffffffffffffffffffffffffffffffffffffffff90911690632646478b90610483908b908a908c908b9030908a906004016122ad565b6020604051808303816000875af11580156104a2573d6000803e3d6000fd5b505050506040513d601f19601f820116820180604052508101906104c69190612306565b6005549091506104f19073ffffffffffffffffffffffffffffffffffffffff8a811691166000611156565b5050505050505050565b600154600090610100900460ff161580801561051b57506001805460ff16105b806105345750303b15801561053457506001805460ff16145b6105c5576040517f08c379a000000000000000000000000000000000000000000000000000000000815260206004820152602e60248201527f496e697469616c697a61626c653a20636f6e747261637420697320616c72656160448201527f647920696e697469616c697a656400000000000000000000000000000000000060648201526084015b60405180910390fd5b600180547fffffffffffffffffffffffffffffffffffffffffffffffffffffffffffffff001681179055801561062257600180547fffffffffffffffffffffffffffffffffffffffffffffffffffffffffffff00ff166101001790555b61062a61135b565b60008380602001905181019061064091906123d9565b905061064f81604001516113ce565b80516001805473ffffffffffffffffffffffffffffffffffffffff90921662010000027fffffffffffffffffffff0000000000000000000000000000000000000000ffff9092169190911790556040517f61f559321bdc3ad3a0e3b8692a91eaffa9773753bfec4e5f4c344cfed245cab7906106ce903390849061251d565b60405180910390a160006106e982602001516020015161142d565b11156108815760208082015180519181015160409182015191517fb7f1440300000000000000000000000000000000000000000000000000000000815260009360609373ffffffffffffffffffffffffffffffffffffffff9091169263b7f144039261075892906004016125f2565b6000604051808303816000875af1158015610777573d6000803e3d6000fd5b505050506040513d6000823e601f3d9081017fffffffffffffffffffffffffffffffffffffffffffffffffffffffffffffffe01682016040526107bd9190810190612620565b6004805473ffffffffffffffffffffffffffffffffffffffff9485167fffffffffffffffffffffffff0000000000000000000000000000000000000000918216179091556003805495909416941693909317909155600182015190935090915060ff16801561085b576040517f1751534b000000000000000000000000000000000000000000000000000000008152600481018290526024016105bc565b50602082901b77ffffffffffffffffffffffffffffffffffffffff000000001660025550505b7fe0e57eda3f08f2a93bbe980d3df7f9c315eac41181f58b865a13d917fe769fc39250506108af6001600055565b801561091157600180547fffffffffffffffffffffffffffffffffffffffffffffffffffffffffffff00ff1681556040519081527f7f26b83ff96e1f2b6a682f133852f6798a09c465da95921460cefb38474024989060200160405180910390a15b50919050565b60006040517faf1fbb2100000000000000000000000000000000000000000000000000000000815260040160405180910390fd5b61095361135b565b600154610100900460ff1615610995576040517f4e8f6c4400000000000000000000000000000000000000000000000000000000815260040160405180910390fd5b6109a26060830183612698565b90506000036109dd576040517f9c95219f00000000000000000000000000000000000000000000000000000000815260040160405180910390fd5b60006109ec6060840184612698565b60008181106109fd576109fd612700565b9050602002810190610a0f919061272f565b610a19908061276d565b610a279060a08101906127a1565b610a346060860186612698565b6000818110610a4557610a45612700565b9050602002810190610a57919061272f565b60200135818110610a6a57610a6a612700565b610a809260206060909202019081019150612808565b90506000610a916060850185612698565b6000818110610aa257610aa2612700565b9050602002810190610ab4919061272f565b610abe908061276d565b610acc9060c08101906127a1565b610ad96060870187612698565b6000818110610aea57610aea612700565b9050602002810190610afc919061272f565b60400135818110610b0f57610b0f612700565b610b259260206060909202019081019150612808565b6002549091508015610d8c57600354600454600091829173ffffffffffffffffffffffffffffffffffffffff91821691636046c5f99116610b70843060009182526020526040902090565b604080516000808252602082019092528891610c0b9190610ba1565b6060815260200190600190039081610b8c5790505b506040805160008082526020820190925290610c05565b610bf26040518060600160405280600073ffffffffffffffffffffffffffffffffffffffff16815260200160608152602001606081525090565b815260200190600190039081610bb85790505b5061144b565b604080516000815260208101918290527fffffffff0000000000000000000000000000000000000000000000000000000060e088901b16909152610c56949392919060248101612825565b600060405180830381865afa158015610c73573d6000803e3d6000fd5b505050506040513d6000823e601f3d9081017fffffffffffffffffffffffffffffffffffffffffffffffffffffffffffffffe0168201604052610cb991908101906128d8565b8151919350915015610cf7576040517f379fa94000000000000000000000000000000000000000000000000000000000815260040160405180910390fd5b805115610d8957600480546040517f946aadc600000000000000000000000000000000000000000000000000000000815273ffffffffffffffffffffffffffffffffffffffff9091169163946aadc691610d569160009186910161293c565b600060405180830381600087803b158015610d7057600080fd5b505af1158015610d84573d6000803e3d6000fd5b505050505b50505b600154610dba9073ffffffffffffffffffffffffffffffffffffffff85811691620100009004166000611156565b600154610e079073ffffffffffffffffffffffffffffffffffffffff85811691620100009004167fffffffffffffffffffffffffffffffffffffffffffffffffffffffffffffffff611156565b6001546040517f8a44689c00000000000000000000000000000000000000000000000000000000815260009182916201000090910473ffffffffffffffffffffffffffffffffffffffff1690638a44689c90610e67908a90600401612c79565b60408051808303816000875af1158015610e85573d6000803e3d6000fd5b505050506040513d601f19601f82011682018060405250810190610ea99190612eec565b6001549193509150610edc9073ffffffffffffffffffffffffffffffffffffffff87811691620100009004166000611156565b6040517f70a0823100000000000000000000000000000000000000000000000000000000815230600482015260009073ffffffffffffffffffffffffffffffffffffffff8716906370a0823190602401602060405180830381865afa158015610f49573d6000803e3d6000fd5b505050506040513d601f19601f82011682018060405250810190610f6d9190612306565b905086811015610fb3576040517f0c08b5bc00000000000000000000000000000000000000000000000000000000815260048101889052602481018290526044016105bc565b8015610fda57610fda73ffffffffffffffffffffffffffffffffffffffff8716338361175b565b6040517f70a0823100000000000000000000000000000000000000000000000000000000815230600482015260009073ffffffffffffffffffffffffffffffffffffffff8716906370a0823190602401602060405180830381865afa158015611047573d6000803e3d6000fd5b505050506040513d601f19601f8201168201806040525081019061106b9190612306565b905080156110945761109473ffffffffffffffffffffffffffffffffffffffff8716338361175b565b61109e33476117b1565b505050505050506110af6001600055565b5050565b600154610100900460ff16156110f5576040517f4e8f6c4400000000000000000000000000000000000000000000000000000000815260040160405180910390fd5b60015462010000900473ffffffffffffffffffffffffffffffffffffffff16331461114e576040517f0bc3cde00000000000000000000000000000000000000000000000000000000081523360048201526024016105bc565b505050505050565b8015806111f657506040517fdd62ed3e00000000000000000000000000000000000000000000000000000000815230600482015273ffffffffffffffffffffffffffffffffffffffff838116602483015284169063dd62ed3e90604401602060405180830381865afa1580156111d0573d6000803e3d6000fd5b505050506040513d601f19601f820116820180604052508101906111f49190612306565b155b611282576040517f08c379a000000000000000000000000000000000000000000000000000000000815260206004820152603660248201527f5361666545524332303a20617070726f76652066726f6d206e6f6e2d7a65726f60448201527f20746f206e6f6e2d7a65726f20616c6c6f77616e63650000000000000000000060648201526084016105bc565b60405173ffffffffffffffffffffffffffffffffffffffff83166024820152604481018290526113569084907f095ea7b300000000000000000000000000000000000000000000000000000000906064015b604080517fffffffffffffffffffffffffffffffffffffffffffffffffffffffffffffffe08184030181529190526020810180517bffffffffffffffffffffffffffffffffffffffffffffffffffffffff167fffffffff000000000000000000000000000000000000000000000000000000009093169290921790915261190b565b505050565b6002600054036113c7576040517f08c379a000000000000000000000000000000000000000000000000000000000815260206004820152601f60248201527f5265656e7472616e637947756172643a207265656e7472616e742063616c6c0060448201526064016105bc565b6002600055565b6000818060200190518101906113e49190612f10565b600580547fffffffffffffffffffffffff00000000000000000000000000000000000000001673ffffffffffffffffffffffffffffffffffffffff929092169190911790555050565b6000815160000361144057506000919050565b506020015160001a90565b60606000825167ffffffffffffffff8111156114695761146961204d565b604051908082528060200260200182016040528015611492578160200160208202803683370190505b5090506000808451116114a65760006114ac565b83516001015b855160010101905060008167ffffffffffffffff8111156114cf576114cf61204d565b60405190808252806020026020018201604052801561150257816020015b60608152602001906001900390816114ed5790505b5090506000611527604080516002815233602082015230818301526060810190915290565b82828151811061153957611539612700565b602002602001018190525060005b875181101561159757818060010192505087818151811061156a5761156a612700565b602002602001015183838151811061158457611584612700565b6020908102919091010152600101611547565b50855115611751578080600101915050838282815181106115ba576115ba612700565b602002602001018190525060005b865181101561174f576116798782815181106115e6576115e6612700565b6020026020010151600001516116566116238a858151811061160a5761160a612700565b6020026020010151602001518051602090810291012090565b7f19457468657265756d205369676e6564204d6573736167653a0a3332000000006000908152601c91909152603c902090565b89848151811061166857611668612700565b602002602001015160400151611a1a565b6116b2576040517f52bf9848000000000000000000000000000000000000000000000000000000008152600481018290526024016105bc565b8681815181106116c4576116c4612700565b60200260200101516000015173ffffffffffffffffffffffffffffffffffffffff168582815181106116f8576116f8612700565b602002602001018181525050818060010192505086818151811061171e5761171e612700565b60200260200101516020015183838151811061173c5761173c612700565b60209081029190910101526001016115c8565b505b5095945050505050565b60405173ffffffffffffffffffffffffffffffffffffffff83166024820152604481018290526113569084907fa9059cbb00000000000000000000000000000000000000000000000000000000906064016112d4565b8047101561181b576040517f08c379a000000000000000000000000000000000000000000000000000000000815260206004820152601d60248201527f416464726573733a20696e73756666696369656e742062616c616e636500000060448201526064016105bc565b60008273ffffffffffffffffffffffffffffffffffffffff168260405160006040518083038185875af1925050503d8060008114611875576040519150601f19603f3d011682016040523d82523d6000602084013e61187a565b606091505b5050905080611356576040517f08c379a000000000000000000000000000000000000000000000000000000000815260206004820152603a60248201527f416464726573733a20756e61626c6520746f2073656e642076616c75652c207260448201527f6563697069656e74206d6179206861766520726576657274656400000000000060648201526084016105bc565b600061196d826040518060400160405280602081526020017f5361666545524332303a206c6f772d6c6576656c2063616c6c206661696c65648152508573ffffffffffffffffffffffffffffffffffffffff16611a959092919063ffffffff16565b905080516000148061198e57508080602001905181019061198e9190612f2d565b611356576040517f08c379a000000000000000000000000000000000000000000000000000000000815260206004820152602a60248201527f5361666545524332303a204552433230206f7065726174696f6e20646964206e60448201527f6f7420737563636565640000000000000000000000000000000000000000000060648201526084016105bc565b6000806000611a298585611aac565b90925090506000816004811115611a4257611a42612f4a565b148015611a7a57508573ffffffffffffffffffffffffffffffffffffffff168273ffffffffffffffffffffffffffffffffffffffff16145b80611a8b5750611a8b868686611af1565b9695505050505050565b6060611aa48484600085611c4e565b949350505050565b6000808251604103611ae25760208301516040840151606085015160001a611ad687828585611d67565b94509450505050611aea565b506000905060025b9250929050565b60008060008573ffffffffffffffffffffffffffffffffffffffff16631626ba7e60e01b8686604051602401611b28929190612f79565b604080517fffffffffffffffffffffffffffffffffffffffffffffffffffffffffffffffe08184030181529181526020820180517bffffffffffffffffffffffffffffffffffffffffffffffffffffffff167fffffffff00000000000000000000000000000000000000000000000000000000909416939093179092529051611bb19190612f92565b600060405180830381855afa9150503d8060008114611bec576040519150601f19603f3d011682016040523d82523d6000602084013e611bf1565b606091505b5091509150818015611c0557506020815110155b8015611a8b575080517f1626ba7e0000000000000000000000000000000000000000000000000000000090611c439083016020908101908401612306565b149695505050505050565b606082471015611ce0576040517f08c379a000000000000000000000000000000000000000000000000000000000815260206004820152602660248201527f416464726573733a20696e73756666696369656e742062616c616e636520666f60448201527f722063616c6c000000000000000000000000000000000000000000000000000060648201526084016105bc565b6000808673ffffffffffffffffffffffffffffffffffffffff168587604051611d099190612f92565b60006040518083038185875af1925050503d8060008114611d46576040519150601f19603f3d011682016040523d82523d6000602084013e611d4b565b606091505b5091509150611d5c87838387611e56565b979650505050505050565b6000807f7fffffffffffffffffffffffffffffff5d576e7357a4501ddfe92f46681b20a0831115611d9e5750600090506003611e4d565b6040805160008082526020820180845289905260ff881692820192909252606081018690526080810185905260019060a0016020604051602081039080840390855afa158015611df2573d6000803e3d6000fd5b50506040517fffffffffffffffffffffffffffffffffffffffffffffffffffffffffffffffe0015191505073ffffffffffffffffffffffffffffffffffffffff8116611e4657600060019250925050611e4d565b9150600090505b94509492505050565b60608315611eec578251600003611ee55773ffffffffffffffffffffffffffffffffffffffff85163b611ee5576040517f08c379a000000000000000000000000000000000000000000000000000000000815260206004820152601d60248201527f416464726573733a2063616c6c20746f206e6f6e2d636f6e747261637400000060448201526064016105bc565b5081611aa4565b611aa48383815115611f015781518083602001fd5b806040517f08c379a00000000000000000000000000000000000000000000000000000000081526004016105bc9190612fa4565b600060208284031215611f4757600080fd5b81357fffffffff0000000000000000000000000000000000000000000000000000000081168114611f7757600080fd5b9392505050565b73ffffffffffffffffffffffffffffffffffffffff81168114611fa057600080fd5b50565b60008060008060008060a08789031215611fbc57600080fd5b8635611fc781611f7e565b95506020870135611fd781611f7e565b94506040870135935060608701359250608087013567ffffffffffffffff8082111561200257600080fd5b818901915089601f83011261201657600080fd5b81358181111561202557600080fd5b8a602082850101111561203757600080fd5b6020830194508093505050509295509295509295565b7f4e487b7100000000000000000000000000000000000000000000000000000000600052604160045260246000fd5b6040516060810167ffffffffffffffff8111828210171561209f5761209f61204d565b60405290565b604051601f82017fffffffffffffffffffffffffffffffffffffffffffffffffffffffffffffffe016810167ffffffffffffffff811182821017156120ec576120ec61204d565b604052919050565b600067ffffffffffffffff82111561210e5761210e61204d565b50601f017fffffffffffffffffffffffffffffffffffffffffffffffffffffffffffffffe01660200190565b60006020828403121561214c57600080fd5b813567ffffffffffffffff81111561216357600080fd5b8201601f8101841361217457600080fd5b8035612187612182826120f4565b6120a5565b81815285602083850101111561219c57600080fd5b81602084016020830137600091810160200191909152949350505050565b6000602082840312156121cc57600080fd5b813567ffffffffffffffff8111156121e357600080fd5b820160608185031215611f7757600080fd5b6000806040838503121561220857600080fd5b823567ffffffffffffffff81111561221f57600080fd5b830160a0818603121561223157600080fd5b946020939093013593505050565b60005b8381101561225a578181015183820152602001612242565b50506000910152565b6000815180845261227b81602086016020860161223f565b601f017fffffffffffffffffffffffffffffffffffffffffffffffffffffffffffffffe0169290920160200192915050565b600073ffffffffffffffffffffffffffffffffffffffff8089168352876020840152808716604084015285606084015280851660808401525060c060a08301526122fa60c0830184612263565b98975050505050505050565b60006020828403121561231857600080fd5b5051919050565b600082601f83011261233057600080fd5b815161233e612182826120f4565b81815284602083860101111561235357600080fd5b611aa482602083016020870161223f565b600082601f83011261237557600080fd5b8151602067ffffffffffffffff8211156123915761239161204d565b8160051b6123a08282016120a5565b92835284810182019282810190878511156123ba57600080fd5b83870192505b84831015611d5c578251825291830191908301906123c0565b6000602082840312156123eb57600080fd5b815167ffffffffffffffff8082111561240357600080fd5b908301906060828603121561241757600080fd5b61241f61207c565b825161242a81611f7e565b815260208301518281111561243e57600080fd5b83016060818803121561245057600080fd5b61245861207c565b815161246381611f7e565b815260208201518481111561247757600080fd5b6124838982850161231f565b60208301525060408201518481111561249b57600080fd5b6124a789828501612364565b60408301525080602084015250506040830151828111156124c757600080fd5b6124d38782860161231f565b60408301525095945050505050565b600081518084526020808501945080840160005b83811015612512578151875295820195908201906001016124f6565b509495945050505050565b600073ffffffffffffffffffffffffffffffffffffffff80851683526040602084015280845116604084015260208401516060808501528181511660a085015260208101519150606060c0850152612579610100850183612263565b9150604081015190507fffffffffffffffffffffffffffffffffffffffffffffffffffffffffffffff608483030160e08501526125b682826124e2565b91505060408401517fffffffffffffffffffffffffffffffffffffffffffffffffffffffffffffffc0848303016080850152611a8b8282612263565b6040815260006126056040830185612263565b828103602084015261261781856124e2565b95945050505050565b6000806000806080858703121561263657600080fd5b845161264181611f7e565b602086015190945061265281611f7e565b604086015190935061266381611f7e565b606086015190925067ffffffffffffffff81111561268057600080fd5b61268c8782880161231f565b91505092959194509250565b60008083357fffffffffffffffffffffffffffffffffffffffffffffffffffffffffffffffe18436030181126126cd57600080fd5b83018035915067ffffffffffffffff8211156126e857600080fd5b6020019150600581901b3603821315611aea57600080fd5b7f4e487b7100000000000000000000000000000000000000000000000000000000600052603260045260246000fd5b600082357fffffffffffffffffffffffffffffffffffffffffffffffffffffffffffffff8183360301811261276357600080fd5b9190910192915050565b600082357fffffffffffffffffffffffffffffffffffffffffffffffffffffffffffffff2183360301811261276357600080fd5b60008083357fffffffffffffffffffffffffffffffffffffffffffffffffffffffffffffffe18436030181126127d657600080fd5b83018035915067ffffffffffffffff8211156127f157600080fd5b6020019150606081023603821315611aea57600080fd5b60006020828403121561281a57600080fd5b8135611f7781611f7e565b600060a0820173ffffffffffffffffffffffffffffffffffffffff881683526020878185015286604085015260a0606085015281865180845260c08601915060c08160051b870101935082880160005b828110156128c1577fffffffffffffffffffffffffffffffffffffffffffffffffffffffffffffff408887030184526128af8683516124e2565b95509284019290840190600101612875565b505050505082810360808401526122fa81856124e2565b600080604083850312156128eb57600080fd5b825167ffffffffffffffff8082111561290357600080fd5b61290f86838701612364565b9350602085015191508082111561292557600080fd5b5061293285828601612364565b9150509250929050565b828152604060208201526000611aa460408301846124e2565b60008083357fffffffffffffffffffffffffffffffffffffffffffffffffffffffffffffffe184360301811261298a57600080fd5b830160208101925035905067ffffffffffffffff8111156129aa57600080fd5b8060051b3603821315611aea57600080fd5b8015158114611fa057600080fd5b60008083357fffffffffffffffffffffffffffffffffffffffffffffffffffffffffffffffe18436030181126129ff57600080fd5b830160208101925035905067ffffffffffffffff811115612a1f57600080fd5b606081023603821315611aea57600080fd5b818352600060208085019450826000805b86811015612aa1578235612a5581611f7e565b73ffffffffffffffffffffffffffffffffffffffff1688528284013560ff8116808214612a80578384fd5b89860152506040838101359089015260609788019790920191600101612a42565b50959695505050505050565b60008083357fffffffffffffffffffffffffffffffffffffffffffffffffffffffffffffffe1843603018112612ae257600080fd5b830160208101925035905067ffffffffffffffff811115612b0257600080fd5b803603821315611aea57600080fd5b8183528181602085013750600060208284010152600060207fffffffffffffffffffffffffffffffffffffffffffffffffffffffffffffffe0601f840116840101905092915050565b81835260006020808501808196506005915085821b81018560005b88811015612c6b578383038a5281357fffffffffffffffffffffffffffffffffffffffffffffffffffffffffffffffa1893603018112612bb457600080fd5b880160608135612bc381611f7e565b73ffffffffffffffffffffffffffffffffffffffff168552612be782890183612955565b828a8801528083880152608092507f07ffffffffffffffffffffffffffffffffffffffffffffffffffffffffffffff811115612c2257600080fd5b881b808288850137860190506040612c3c84820185612aad565b9450838884030182890152612c548484018683612b11565b9e8b019e9750505093880193505050600101612b75565b509098975050505050505050565b6000602080835260c083018435828501526040828601358186015260608187013581870152612caa81880188612955565b60a060808981018290529582905260e095868a01600584901b8b0188018560005b86811015612e95577fffffffffffffffffffffffffffffffffffffffffffffffffffffffffffffff208e840301845281357fffffffffffffffffffffffffffffffffffffffffffffffffffffffffffffff81893603018112612d2c57600080fd5b88018035368290037fffffffffffffffffffffffffffffffffffffffffffffffffffffffffffffff21018112612d6157600080fd5b86855281018035612d7181611f7e565b73ffffffffffffffffffffffffffffffffffffffff90811686890152818f013590612d9b826129bc565b901515868a0152818d013590612db082611f7e565b90811660c0870152818c013590612dc682611f7e565b908116868f01528188013590612ddb82611f7e565b16610100860152612dee818901826129ca565b8e610120880152612e0461016088018284612a31565b915050612e1460c08301836129ca565b92507fffffffffffffffffffffffffffffffffffffffffffffffffffffffffffffff8087830301610140880152612e4c828483612a31565b925050508d8201358e8601528b8201358c860152612e6c8b830183612955565b92508582038c870152612e80828483612b5a565b968f019695505050918c019150600101612ccb565b5050612ea3838e018e612aad565b9a5098507fffffffffffffffffffffffffffffffffffffffffffffffffffffffffffffffe08c820301848d0152612edb818b8b612b11565b9d9c50505050505050505050505050565b60008060408385031215612eff57600080fd5b505080516020909101519092909150565b600060208284031215612f2257600080fd5b8151611f7781611f7e565b600060208284031215612f3f57600080fd5b8151611f77816129bc565b7f4e487b7100000000000000000000000000000000000000000000000000000000600052602160045260246000fd5b828152604060208201526000611aa46040830184612263565b6000825161276381846020870161223f565b602081526000611f77602083018461226356",
    "linkReferences": {}
  },
  "methodIdentifiers": {
    "arb((uint256,uint256,uint256,((address,bool,(address,address,address),(address,uint8,uint256)[],(address,uint8,uint256)[]),uint256,uint256,(address,uint256[],bytes)[])[],bytes),uint256)": "c3b7c7c3",
    "initialize((address,(address,bytes,uint256[]),bytes))": "98da8d6a",
    "initialize(bytes)": "439fab91",
    "onTakeOrders(address,address,uint256,uint256,bytes)": "059bebe6",
    "sI9r()": "71c1dea7",
    "sI9rDispatch()": "89448c3a",
    "sI9rStore()": "61bb39e4",
    "sOrderBook()": "886d1650",
    "sRouteProcessor()": "141ae6e6",
    "supportsInterface(bytes4)": "01ffc9a7"
  },
  "id": 173
}