{
  "_format": "hh-sol-artifact-1",
  "contractName": "ZeroExOrderBookFlashBorrower",
  "sourceName": "contracts/orderbook/arb/ZeroExOrderBookFlashBorrower.sol",
  "abi": [
    {
      "inputs": [
        {
          "internalType": "address",
          "name": "orderBook_",
          "type": "address"
        },
        {
          "internalType": "address",
          "name": "zeroExExchangeProxy_",
          "type": "address"
        }
      ],
      "stateMutability": "nonpayable",
      "type": "constructor"
    },
    {
      "inputs": [
        {
          "components": [
            {
              "internalType": "address",
              "name": "output",
              "type": "address"
            },
            {
              "internalType": "address",
              "name": "input",
              "type": "address"
            },
            {
              "internalType": "uint256",
              "name": "minimumInput",
              "type": "uint256"
            },
            {
              "internalType": "uint256",
              "name": "maximumInput",
              "type": "uint256"
            },
            {
              "internalType": "uint256",
              "name": "maximumIORatio",
              "type": "uint256"
            },
            {
              "components": [
                {
                  "components": [
                    {
                      "internalType": "address",
                      "name": "owner",
                      "type": "address"
                    },
                    {
                      "internalType": "address",
                      "name": "interpreter",
                      "type": "address"
                    },
                    {
                      "internalType": "EncodedDispatch",
                      "name": "dispatch",
                      "type": "uint256"
                    },
                    {
                      "internalType": "EncodedDispatch",
                      "name": "handleIODispatch",
                      "type": "uint256"
                    },
                    {
                      "components": [
                        {
                          "internalType": "address",
                          "name": "token",
                          "type": "address"
                        },
                        {
                          "internalType": "uint256",
                          "name": "vaultId",
                          "type": "uint256"
                        }
                      ],
                      "internalType": "struct IO[]",
                      "name": "validInputs",
                      "type": "tuple[]"
                    },
                    {
                      "components": [
                        {
                          "internalType": "address",
                          "name": "token",
                          "type": "address"
                        },
                        {
                          "internalType": "uint256",
                          "name": "vaultId",
                          "type": "uint256"
                        }
                      ],
                      "internalType": "struct IO[]",
                      "name": "validOutputs",
                      "type": "tuple[]"
                    }
                  ],
                  "internalType": "struct Order",
                  "name": "order",
                  "type": "tuple"
                },
                {
                  "internalType": "uint256",
                  "name": "inputIOIndex",
                  "type": "uint256"
                },
                {
                  "internalType": "uint256",
                  "name": "outputIOIndex",
                  "type": "uint256"
                }
              ],
              "internalType": "struct TakeOrderConfig[]",
              "name": "orders",
              "type": "tuple[]"
            }
          ],
          "internalType": "struct TakeOrdersConfig",
          "name": "takeOrders_",
          "type": "tuple"
        },
        {
          "internalType": "address",
          "name": "zeroExSpender_",
          "type": "address"
        },
        {
          "internalType": "bytes",
          "name": "zeroExData_",
          "type": "bytes"
        }
      ],
      "name": "arb",
      "outputs": [],
      "stateMutability": "nonpayable",
      "type": "function"
    },
    {
      "inputs": [
        {
          "internalType": "address",
          "name": "initiator_",
          "type": "address"
        },
        {
          "internalType": "address",
          "name": "",
          "type": "address"
        },
        {
          "internalType": "uint256",
          "name": "",
          "type": "uint256"
        },
        {
          "internalType": "uint256",
          "name": "",
          "type": "uint256"
        },
        {
          "internalType": "bytes",
          "name": "data_",
          "type": "bytes"
        }
      ],
      "name": "onFlashLoan",
      "outputs": [
        {
          "internalType": "bytes32",
          "name": "",
          "type": "bytes32"
        }
      ],
      "stateMutability": "nonpayable",
      "type": "function"
    },
    {
      "inputs": [],
      "name": "zeroExExchangeProxy",
      "outputs": [
        {
          "internalType": "address",
          "name": "",
          "type": "address"
        }
      ],
      "stateMutability": "view",
      "type": "function"
    }
  ],
  "bytecode": "0x60c06040523480156200001157600080fd5b506040516200196938038062001969833981016040819052620000349162000069565b6001600160a01b039182166080521660a052620000a1565b80516001600160a01b03811681146200006457600080fd5b919050565b600080604083850312156200007d57600080fd5b62000088836200004c565b915062000098602084016200004c565b90509250929050565b60805160a05161188f620000da600039600081816071015261024601526000818160e7015281816102ab01526103f4015261188f6000f3fe608060405234801561001057600080fd5b50600436106100415760003560e01c806323e30c8b1461004657806391511a421461006c578063a5ca7356146100b8575b600080fd5b610059610054366004610bc3565b6100cd565b6040519081526020015b60405180910390f35b6100937f000000000000000000000000000000000000000000000000000000000000000081565b60405173ffffffffffffffffffffffffffffffffffffffff9091168152602001610063565b6100cb6100c6366004610c3b565b610352565b005b60003373ffffffffffffffffffffffffffffffffffffffff7f00000000000000000000000000000000000000000000000000000000000000001614610173576040517f08c379a000000000000000000000000000000000000000000000000000000000815260206004820152601f60248201527f466c617368426f72726f7765723a20556e74727573746564206c656e6465720060448201526064015b60405180910390fd5b73ffffffffffffffffffffffffffffffffffffffff87163014610218576040517f08c379a000000000000000000000000000000000000000000000000000000000815260206004820152602760248201527f466c617368426f72726f7765723a20556e74727573746564206c6f616e20696e60448201527f69746961746f7200000000000000000000000000000000000000000000000000606482015260840161016a565b60008061022784860186610ef0565b909250905061026d73ffffffffffffffffffffffffffffffffffffffff7f0000000000000000000000000000000000000000000000000000000000000000168247610640565b506040517fb9bf81fa00000000000000000000000000000000000000000000000000000000815273ffffffffffffffffffffffffffffffffffffffff7f0000000000000000000000000000000000000000000000000000000000000000169063b9bf81fa906102e09085906004016111a4565b60408051808303816000875af11580156102fe573d6000803e3d6000fd5b505050506040513d601f19601f820116820180604052508101906103229190611318565b507f439148f0bbc682ca079e46d6e2c2f0c1e3b820f1a291b069d8882abf8cf18dd99a9950505050505050505050565b6000848383604051602001610369939291906115c7565b6040516020818303038152906040529050600085602001602081019061038f91906116be565b905060408601356103b773ffffffffffffffffffffffffffffffffffffffff83168783610670565b6040517f5cffe9de00000000000000000000000000000000000000000000000000000000815273ffffffffffffffffffffffffffffffffffffffff7f00000000000000000000000000000000000000000000000000000000000000001690635cffe9de9061042f903090869086908990600401611747565b6020604051808303816000875af115801561044e573d6000803e3d6000fd5b505050506040513d601f19601f820116820180604052508101906104729190611786565b5060405133904780156108fc02916000818181858888f1935050505015801561049f573d6000803e3d6000fd5b5060006104b26040890160208a016116be565b6040517f70a0823100000000000000000000000000000000000000000000000000000000815230600482015273ffffffffffffffffffffffffffffffffffffffff91909116906370a0823190602401602060405180830381865afa15801561051e573d6000803e3d6000fd5b505050506040513d601f19601f8201168201806040525081019061054291906117a8565b9050801561057c5761057c338261055f60408c0160208d016116be565b73ffffffffffffffffffffffffffffffffffffffff1691906107f2565b600061058b60208a018a6116be565b6040517f70a0823100000000000000000000000000000000000000000000000000000000815230600482015273ffffffffffffffffffffffffffffffffffffffff91909116906370a0823190602401602060405180830381865afa1580156105f7573d6000803e3d6000fd5b505050506040513d601f19601f8201168201806040525081019061061b91906117a8565b9050801561063557610635338261055f60208d018d6116be565b505050505050505050565b60606106668484846040518060600160405280602981526020016118316029913961084d565b90505b9392505050565b6040517fdd62ed3e00000000000000000000000000000000000000000000000000000000815230600482015273ffffffffffffffffffffffffffffffffffffffff8381166024830152600091839186169063dd62ed3e90604401602060405180830381865afa1580156106e7573d6000803e3d6000fd5b505050506040513d601f19601f8201168201806040525081019061070b91906117a8565b61071591906117c1565b60405173ffffffffffffffffffffffffffffffffffffffff85166024820152604481018290529091506107ec9085907f095ea7b300000000000000000000000000000000000000000000000000000000906064015b604080517fffffffffffffffffffffffffffffffffffffffffffffffffffffffffffffffe08184030181529190526020810180517bffffffffffffffffffffffffffffffffffffffffffffffffffffffff167fffffffff00000000000000000000000000000000000000000000000000000000909316929092179091526109e3565b50505050565b60405173ffffffffffffffffffffffffffffffffffffffff83166024820152604481018290526108489084907fa9059cbb000000000000000000000000000000000000000000000000000000009060640161076a565b505050565b6060824710156108df576040517f08c379a000000000000000000000000000000000000000000000000000000000815260206004820152602660248201527f416464726573733a20696e73756666696369656e742062616c616e636520666f60448201527f722063616c6c0000000000000000000000000000000000000000000000000000606482015260840161016a565b73ffffffffffffffffffffffffffffffffffffffff85163b61095d576040517f08c379a000000000000000000000000000000000000000000000000000000000815260206004820152601d60248201527f416464726573733a2063616c6c20746f206e6f6e2d636f6e7472616374000000604482015260640161016a565b6000808673ffffffffffffffffffffffffffffffffffffffff1685876040516109869190611801565b60006040518083038185875af1925050503d80600081146109c3576040519150601f19603f3d011682016040523d82523d6000602084013e6109c8565b606091505b50915091506109d8828286610aef565b979650505050505050565b6000610a45826040518060400160405280602081526020017f5361666545524332303a206c6f772d6c6576656c2063616c6c206661696c65648152508573ffffffffffffffffffffffffffffffffffffffff16610b429092919063ffffffff16565b8051909150156108485780806020019051810190610a639190611786565b610848576040517f08c379a000000000000000000000000000000000000000000000000000000000815260206004820152602a60248201527f5361666545524332303a204552433230206f7065726174696f6e20646964206e60448201527f6f74207375636365656400000000000000000000000000000000000000000000606482015260840161016a565b60608315610afe575081610669565b825115610b0e5782518084602001fd5b816040517f08c379a000000000000000000000000000000000000000000000000000000000815260040161016a919061181d565b6060610666848460008561084d565b803573ffffffffffffffffffffffffffffffffffffffff81168114610b7557600080fd5b919050565b60008083601f840112610b8c57600080fd5b50813567ffffffffffffffff811115610ba457600080fd5b602083019150836020828501011115610bbc57600080fd5b9250929050565b60008060008060008060a08789031215610bdc57600080fd5b610be587610b51565b9550610bf360208801610b51565b94506040870135935060608701359250608087013567ffffffffffffffff811115610c1d57600080fd5b610c2989828a01610b7a565b979a9699509497509295939492505050565b60008060008060608587031215610c5157600080fd5b843567ffffffffffffffff80821115610c6957600080fd5b9086019060c08289031215610c7d57600080fd5b819550610c8c60208801610b51565b94506040870135915080821115610ca257600080fd5b50610caf87828801610b7a565b95989497509550505050565b7f4e487b7100000000000000000000000000000000000000000000000000000000600052604160045260246000fd5b6040805190810167ffffffffffffffff81118282101715610d0d57610d0d610cbb565b60405290565b60405160c0810167ffffffffffffffff81118282101715610d0d57610d0d610cbb565b6040516060810167ffffffffffffffff81118282101715610d0d57610d0d610cbb565b604051601f82017fffffffffffffffffffffffffffffffffffffffffffffffffffffffffffffffe016810167ffffffffffffffff81118282101715610da057610da0610cbb565b604052919050565b600067ffffffffffffffff821115610dc257610dc2610cbb565b5060051b60200190565b600082601f830112610ddd57600080fd5b81356020610df2610ded83610da8565b610d59565b82815260069290921b84018101918181019086841115610e1157600080fd5b8286015b84811015610e575760408189031215610e2e5760008081fd5b610e36610cea565b610e3f82610b51565b81528185013585820152835291830191604001610e15565b509695505050505050565b600082601f830112610e7357600080fd5b813567ffffffffffffffff811115610e8d57610e8d610cbb565b610ebe60207fffffffffffffffffffffffffffffffffffffffffffffffffffffffffffffffe0601f84011601610d59565b818152846020838601011115610ed357600080fd5b816020850160208301376000918101602001919091529392505050565b60008060408385031215610f0357600080fd5b67ffffffffffffffff8084351115610f1a57600080fd5b8335840160c08187031215610f2e57600080fd5b610f36610d13565b610f3f82610b51565b8152610f4d60208301610b51565b60208201526040820135604082015260608201356060820152608082013560808201528260a08301351115610f8157600080fd5b60a08201358201915086601f830112610f9957600080fd5b610fa6610ded8335610da8565b82358082526020808301929160051b850101891015610fc457600080fd5b602084015b6020853560051b860101811015611113578581351115610fe857600080fd5b7fffffffffffffffffffffffffffffffffffffffffffffffffffffffffffffffe0606081833588018d0301121561101e57600080fd5b611026610d36565b876020843589010135111561103a57600080fd5b8235870160208101350160c0818e038401121561105657600080fd5b61105e610d13565b925061106c60208201610b51565b835261107a60408201610b51565b602084015260608101356040840152608081013560608401528860a082013511156110a457600080fd5b6110b78d602060a0840135840101610dcc565b60808401528860c082013511156110cd57600080fd5b6110e08d602060c0840135840101610dcc565b60a08401525090815281358601604081810135602080850191909152606090920135908301529084529283019201610fc9565b5060a083015250935050602084013581101561112e57600080fd5b5061113f8460208501358501610e62565b90509250929050565b600081518084526020808501945080840160005b83811015611199578151805173ffffffffffffffffffffffffffffffffffffffff168852830151838801526040909601959082019060010161115c565b509495945050505050565b6000602080835260e0830173ffffffffffffffffffffffffffffffffffffffff80865116838601528286015160408282168188015280880151915060608281890152808901519250608083818a0152808a0151935060a084818b0152808b0151945060c080818c0152878651808a526101009950898d019150898160051b8e01018b8901985060005b82811015611305577fffffffffffffffffffffffffffffffffffffffffffffffffffffffffffffff008f8303018452895180518984528c8151168a8501528c8f82015116898501528a810151888501528981015187850152888101518760e086015261129d610120860182611148565b90508882015191507fffffffffffffffffffffffffffffffffffffffffffffffffffffffffffffffa0858203018f8601526112d88183611148565b9150508e8201518f8501528a8201518b85015280935050508c8a0199508c8401935060018101905061122d565b509e9d5050505050505050505050505050565b6000806040838503121561132b57600080fd5b505080516020909101519092909150565b60008083357fffffffffffffffffffffffffffffffffffffffffffffffffffffffffffffffe184360301811261137157600080fd5b830160208101925035905067ffffffffffffffff81111561139157600080fd5b8060061b3603821315610bbc57600080fd5b8183526000602080850194508260005b858110156111995773ffffffffffffffffffffffffffffffffffffffff6113d983610b51565b1687528183013583880152604096870196909101906001016113b3565b81835260006020808501808196508560051b810191508460005b8781101561157157828403895281357fffffffffffffffffffffffffffffffffffffffffffffffffffffffffffffffa188360301811261144f57600080fd5b870160608135368390037fffffffffffffffffffffffffffffffffffffffffffffffffffffffffffffff4101811261148657600080fd5b818752820173ffffffffffffffffffffffffffffffffffffffff806114aa83610b51565b16838901526114ba898301610b51565b6080828216818b01526040925060a0915082840135828b015260c085850135818c01526114e98286018661133c565b965091508060e08c0152506115036101208b0186836113a3565b9450506115128184018461133c565b935090507fffffffffffffffffffffffffffffffffffffffffffffffffffffffffffffffa0898503016101008a015261154c8484836113a3565b858b01358a8c0152948201359190980152505098850198935090840190600101611410565b5091979650505050505050565b8183528181602085013750600060208284010152600060207fffffffffffffffffffffffffffffffffffffffffffffffffffffffffffffffe0601f840116840101905092915050565b60408152600073ffffffffffffffffffffffffffffffffffffffff806115ec87610b51565b166040840152806115ff60208801610b51565b1660608401525060408501356080830152606085013560a0830152608085013560c083015260a08501357fffffffffffffffffffffffffffffffffffffffffffffffffffffffffffffffe186360301811261165957600080fd5b850160208101903567ffffffffffffffff81111561167657600080fd5b8060051b360382131561168857600080fd5b60c060e085015261169e610100850182846113f6565b91505082810360208401526116b481858761157e565b9695505050505050565b6000602082840312156116d057600080fd5b61066982610b51565b60005b838110156116f45781810151838201526020016116dc565b50506000910152565b600081518084526117158160208601602086016116d9565b601f017fffffffffffffffffffffffffffffffffffffffffffffffffffffffffffffffe0169290920160200192915050565b600073ffffffffffffffffffffffffffffffffffffffff8087168352808616602084015250836040830152608060608301526116b460808301846116fd565b60006020828403121561179857600080fd5b8151801515811461066957600080fd5b6000602082840312156117ba57600080fd5b5051919050565b808201808211156117fb577f4e487b7100000000000000000000000000000000000000000000000000000000600052601160045260246000fd5b92915050565b600082516118138184602087016116d9565b9190910192915050565b60208152600061066960208301846116fd56fe416464726573733a206c6f772d6c6576656c2063616c6c20776974682076616c7565206661696c6564a264697066735822122093b8892644b533ceeb0635664ec5e93e24a2e7cef72a651fc22cc973534ef79d64736f6c63430008110033",
  "linkReferences": {},
  "deployedLinkReferences": {}
}