{
  "_format": "hh-sol-artifact-1",
  "contractName": "ZeroExOrderBookFlashBorrower",
  "sourceName": "contracts/orderbook/arb/ZeroExOrderBookFlashBorrower.sol",
  "abi": [
    {
      "inputs": [
        {
          "internalType": "address",
          "name": "orderBook_",
          "type": "address"
        },
        {
          "internalType": "address",
          "name": "zeroExExchangeProxy_",
          "type": "address"
        }
      ],
      "stateMutability": "nonpayable",
      "type": "constructor"
    },
    {
      "inputs": [
        {
          "components": [
            {
              "internalType": "address",
              "name": "output",
              "type": "address"
            },
            {
              "internalType": "address",
              "name": "input",
              "type": "address"
            },
            {
              "internalType": "uint256",
              "name": "minimumInput",
              "type": "uint256"
            },
            {
              "internalType": "uint256",
              "name": "maximumInput",
              "type": "uint256"
            },
            {
              "internalType": "uint256",
              "name": "maximumIORatio",
              "type": "uint256"
            },
            {
              "components": [
                {
                  "components": [
                    {
                      "internalType": "address",
                      "name": "owner",
                      "type": "address"
                    },
                    {
                      "internalType": "address",
                      "name": "interpreter",
                      "type": "address"
                    },
                    {
                      "internalType": "EncodedDispatch",
                      "name": "dispatch",
                      "type": "uint256"
                    },
                    {
                      "internalType": "EncodedDispatch",
                      "name": "handleIODispatch",
                      "type": "uint256"
                    },
                    {
                      "components": [
                        {
                          "internalType": "address",
                          "name": "token",
                          "type": "address"
                        },
                        {
                          "internalType": "uint256",
                          "name": "vaultId",
                          "type": "uint256"
                        }
                      ],
                      "internalType": "struct IO[]",
                      "name": "validInputs",
                      "type": "tuple[]"
                    },
                    {
                      "components": [
                        {
                          "internalType": "address",
                          "name": "token",
                          "type": "address"
                        },
                        {
                          "internalType": "uint256",
                          "name": "vaultId",
                          "type": "uint256"
                        }
                      ],
                      "internalType": "struct IO[]",
                      "name": "validOutputs",
                      "type": "tuple[]"
                    }
                  ],
                  "internalType": "struct Order",
                  "name": "order",
                  "type": "tuple"
                },
                {
                  "internalType": "uint256",
                  "name": "inputIOIndex",
                  "type": "uint256"
                },
                {
                  "internalType": "uint256",
                  "name": "outputIOIndex",
                  "type": "uint256"
                }
              ],
              "internalType": "struct TakeOrderConfig[]",
              "name": "orders",
              "type": "tuple[]"
            }
          ],
          "internalType": "struct TakeOrdersConfig",
          "name": "takeOrders_",
          "type": "tuple"
        },
        {
          "internalType": "address",
          "name": "zeroExSpender_",
          "type": "address"
        },
        {
          "internalType": "bytes",
          "name": "zeroExData_",
          "type": "bytes"
        }
      ],
      "name": "arb",
      "outputs": [],
      "stateMutability": "nonpayable",
      "type": "function"
    },
    {
      "inputs": [
        {
          "internalType": "address",
          "name": "initiator_",
          "type": "address"
        },
        {
          "internalType": "address",
          "name": "",
          "type": "address"
        },
        {
          "internalType": "uint256",
          "name": "",
          "type": "uint256"
        },
        {
          "internalType": "uint256",
          "name": "",
          "type": "uint256"
        },
        {
          "internalType": "bytes",
          "name": "data_",
          "type": "bytes"
        }
      ],
      "name": "onFlashLoan",
      "outputs": [
        {
          "internalType": "bytes32",
          "name": "",
          "type": "bytes32"
        }
      ],
      "stateMutability": "nonpayable",
      "type": "function"
    },
    {
      "inputs": [],
      "name": "zeroExExchangeProxy",
      "outputs": [
        {
          "internalType": "address",
          "name": "",
          "type": "address"
        }
      ],
      "stateMutability": "view",
      "type": "function"
    }
  ],
  "bytecode": "0x60c06040523480156200001157600080fd5b5060405162001ed238038062001ed2833981016040819052620000349162000069565b6001600160a01b039182166080521660a052620000a1565b80516001600160a01b03811681146200006457600080fd5b919050565b600080604083850312156200007d57600080fd5b62000088836200004c565b915062000098602084016200004c565b90509250929050565b60805160a051611df8620000da60003960008181607101526103ca01526000818160e70152818161042f015261055b0152611df86000f3fe608060405234801561001057600080fd5b50600436106100415760003560e01c806323e30c8b1461004657806391511a421461006c578063a5ca7356146100b8575b600080fd5b6100596100543660046110a6565b6100cd565b6040519081526020015b60405180910390f35b6100937f000000000000000000000000000000000000000000000000000000000000000081565b60405173ffffffffffffffffffffffffffffffffffffffff9091168152602001610063565b6100cb6100c6366004611122565b6104d7565b005b60003373ffffffffffffffffffffffffffffffffffffffff7f00000000000000000000000000000000000000000000000000000000000000001614610173576040517f08c379a000000000000000000000000000000000000000000000000000000000815260206004820152601f60248201527f466c617368426f72726f7765723a20556e74727573746564206c656e6465720060448201526064015b60405180910390fd5b73ffffffffffffffffffffffffffffffffffffffff87163014610218576040517f08c379a000000000000000000000000000000000000000000000000000000000815260206004820152602760248201527f466c617368426f72726f7765723a20556e74727573746564206c6f616e20696e60448201527f69746961746f7200000000000000000000000000000000000000000000000000606482015260840161016a565b60008080610228858701876113dc565b925092509250610237816107a7565b610245828460200151610839565b602083015161026c9073ffffffffffffffffffffffffffffffffffffffff168360006108e6565b60208301516102b29073ffffffffffffffffffffffffffffffffffffffff16837fffffffffffffffffffffffffffffffffffffffffffffffffffffffffffffffff610aeb565b60208301516040517f70a0823100000000000000000000000000000000000000000000000000000000815230600482015261034e9173ffffffffffffffffffffffffffffffffffffffff16906370a08231906024015b602060405180830381865afa158015610325573d6000803e3d6000fd5b505050506040513d601f19601f82011682018060405250810190610349919061167c565b610bef565b60208301516040517fdd62ed3e00000000000000000000000000000000000000000000000000000000815230600482015273ffffffffffffffffffffffffffffffffffffffff84811660248301526103b092169063dd62ed3e90604401610308565b6103f173ffffffffffffffffffffffffffffffffffffffff7f0000000000000000000000000000000000000000000000000000000000000000168247610c80565b506040517fb9bf81fa00000000000000000000000000000000000000000000000000000000815273ffffffffffffffffffffffffffffffffffffffff7f0000000000000000000000000000000000000000000000000000000000000000169063b9bf81fa906104649086906004016116f1565b60408051808303816000875af1158015610482573d6000803e3d6000fd5b505050506040513d601f19601f820116820180604052508101906104a69190611865565b507f439148f0bbc682ca079e46d6e2c2f0c1e3b820f1a291b069d8882abf8cf18dd99b9a5050505050505050505050565b6000848484846040516020016104f09493929190611b1c565b604051602081830303815290604052905060008560200160208101906105169190611c34565b604080517f5cffe9de0000000000000000000000000000000000000000000000000000000081529192508701359073ffffffffffffffffffffffffffffffffffffffff7f00000000000000000000000000000000000000000000000000000000000000001690635cffe9de90610596903090869086908990600401611cbf565b6020604051808303816000875af11580156105b5573d6000803e3d6000fd5b505050506040513d601f19601f820116820180604052508101906105d99190611d08565b5060405133904780156108fc02916000818181858888f19350505050158015610606573d6000803e3d6000fd5b5060006106196040890160208a01611c34565b6040517f70a0823100000000000000000000000000000000000000000000000000000000815230600482015273ffffffffffffffffffffffffffffffffffffffff91909116906370a0823190602401602060405180830381865afa158015610685573d6000803e3d6000fd5b505050506040513d601f19601f820116820180604052508101906106a9919061167c565b905080156106e3576106e333826106c660408c0160208d01611c34565b73ffffffffffffffffffffffffffffffffffffffff169190610cb0565b60006106f260208a018a611c34565b6040517f70a0823100000000000000000000000000000000000000000000000000000000815230600482015273ffffffffffffffffffffffffffffffffffffffff91909116906370a0823190602401602060405180830381865afa15801561075e573d6000803e3d6000fd5b505050506040513d601f19601f82011682018060405250810190610782919061167c565b9050801561079c5761079c33826106c660208d018d611c34565b505050505050505050565b610836816040516024016107bb9190611d2a565b604080517fffffffffffffffffffffffffffffffffffffffffffffffffffffffffffffffe08184030181529190526020810180517bffffffffffffffffffffffffffffffffffffffffffffffffffffffff167f0be77f5600000000000000000000000000000000000000000000000000000000179052610d06565b50565b60405173ffffffffffffffffffffffffffffffffffffffff8084166024830152821660448201526108e290606401604080517fffffffffffffffffffffffffffffffffffffffffffffffffffffffffffffffe08184030181529190526020810180517bffffffffffffffffffffffffffffffffffffffffffffffffffffffff167fdaf0d4aa00000000000000000000000000000000000000000000000000000000179052610d06565b5050565b80158061098657506040517fdd62ed3e00000000000000000000000000000000000000000000000000000000815230600482015273ffffffffffffffffffffffffffffffffffffffff838116602483015284169063dd62ed3e90604401602060405180830381865afa158015610960573d6000803e3d6000fd5b505050506040513d601f19601f82011682018060405250810190610984919061167c565b155b610a12576040517f08c379a000000000000000000000000000000000000000000000000000000000815260206004820152603660248201527f5361666545524332303a20617070726f76652066726f6d206e6f6e2d7a65726f60448201527f20746f206e6f6e2d7a65726f20616c6c6f77616e636500000000000000000000606482015260840161016a565b60405173ffffffffffffffffffffffffffffffffffffffff8316602482015260448101829052610ae69084907f095ea7b300000000000000000000000000000000000000000000000000000000906064015b604080517fffffffffffffffffffffffffffffffffffffffffffffffffffffffffffffffe08184030181529190526020810180517bffffffffffffffffffffffffffffffffffffffffffffffffffffffff167fffffffff0000000000000000000000000000000000000000000000000000000090931692909217909152610d27565b505050565b6040517fdd62ed3e00000000000000000000000000000000000000000000000000000000815230600482015273ffffffffffffffffffffffffffffffffffffffff8381166024830152600091839186169063dd62ed3e90604401602060405180830381865afa158015610b62573d6000803e3d6000fd5b505050506040513d601f19601f82011682018060405250810190610b86919061167c565b610b909190611d3d565b60405173ffffffffffffffffffffffffffffffffffffffff8516602482015260448101829052909150610be99085907f095ea7b30000000000000000000000000000000000000000000000000000000090606401610a64565b50505050565b61083681604051602401610c0591815260200190565b604080517fffffffffffffffffffffffffffffffffffffffffffffffffffffffffffffffe08184030181529190526020810180517bffffffffffffffffffffffffffffffffffffffffffffffffffffffff167ff82c50f100000000000000000000000000000000000000000000000000000000179052610d06565b6060610ca6848484604051806060016040528060298152602001611d9a60299139610e33565b90505b9392505050565b60405173ffffffffffffffffffffffffffffffffffffffff8316602482015260448101829052610ae69084907fa9059cbb0000000000000000000000000000000000000000000000000000000090606401610a64565b80516a636f6e736f6c652e6c6f67602083016000808483855afa5050505050565b6000610d89826040518060400160405280602081526020017f5361666545524332303a206c6f772d6c6576656c2063616c6c206661696c65648152508573ffffffffffffffffffffffffffffffffffffffff16610fc99092919063ffffffff16565b805190915015610ae65780806020019051810190610da79190611d08565b610ae6576040517f08c379a000000000000000000000000000000000000000000000000000000000815260206004820152602a60248201527f5361666545524332303a204552433230206f7065726174696f6e20646964206e60448201527f6f74207375636365656400000000000000000000000000000000000000000000606482015260840161016a565b606082471015610ec5576040517f08c379a000000000000000000000000000000000000000000000000000000000815260206004820152602660248201527f416464726573733a20696e73756666696369656e742062616c616e636520666f60448201527f722063616c6c0000000000000000000000000000000000000000000000000000606482015260840161016a565b73ffffffffffffffffffffffffffffffffffffffff85163b610f43576040517f08c379a000000000000000000000000000000000000000000000000000000000815260206004820152601d60248201527f416464726573733a2063616c6c20746f206e6f6e2d636f6e7472616374000000604482015260640161016a565b6000808673ffffffffffffffffffffffffffffffffffffffff168587604051610f6c9190611d7d565b60006040518083038185875af1925050503d8060008114610fa9576040519150601f19603f3d011682016040523d82523d6000602084013e610fae565b606091505b5091509150610fbe828286610fd8565b979650505050505050565b6060610ca68484600085610e33565b60608315610fe7575081610ca9565b825115610ff75782518084602001fd5b816040517f08c379a000000000000000000000000000000000000000000000000000000000815260040161016a9190611d2a565b73ffffffffffffffffffffffffffffffffffffffff8116811461083657600080fd5b80356110588161102b565b919050565b60008083601f84011261106f57600080fd5b50813567ffffffffffffffff81111561108757600080fd5b60208301915083602082850101111561109f57600080fd5b9250929050565b60008060008060008060a087890312156110bf57600080fd5b86356110ca8161102b565b955060208701356110da8161102b565b94506040870135935060608701359250608087013567ffffffffffffffff81111561110457600080fd5b61111089828a0161105d565b979a9699509497509295939492505050565b6000806000806060858703121561113857600080fd5b843567ffffffffffffffff8082111561115057600080fd5b9086019060c0828903121561116457600080fd5b9094506020860135906111768261102b565b9093506040860135908082111561118c57600080fd5b506111998782880161105d565b95989497509550505050565b7f4e487b7100000000000000000000000000000000000000000000000000000000600052604160045260246000fd5b6040805190810167ffffffffffffffff811182821017156111f7576111f76111a5565b60405290565b60405160c0810167ffffffffffffffff811182821017156111f7576111f76111a5565b6040516060810167ffffffffffffffff811182821017156111f7576111f76111a5565b604051601f82017fffffffffffffffffffffffffffffffffffffffffffffffffffffffffffffffe016810167ffffffffffffffff8111828210171561128a5761128a6111a5565b604052919050565b600067ffffffffffffffff8211156112ac576112ac6111a5565b5060051b60200190565b600082601f8301126112c757600080fd5b813560206112dc6112d783611292565b611243565b82815260069290921b840181019181810190868411156112fb57600080fd5b8286015b8481101561134357604081890312156113185760008081fd5b6113206111d4565b813561132b8161102b565b815281850135858201528352918301916040016112ff565b509695505050505050565b600082601f83011261135f57600080fd5b813567ffffffffffffffff811115611379576113796111a5565b6113aa60207fffffffffffffffffffffffffffffffffffffffffffffffffffffffffffffffe0601f84011601611243565b8181528460208386010111156113bf57600080fd5b816020850160208301376000918101602001919091529392505050565b6000806000606084860312156113f157600080fd5b67ffffffffffffffff8435111561140757600080fd5b8335840160c0818703121561141b57600080fd5b6114236111fd565b61142d823561102b565b8135815261143e602083013561102b565b6020820135602082015260408201356040820152606082013560608201526080820135608082015267ffffffffffffffff60a0830135111561147f57600080fd5b60a08201358201915086601f83011261149757600080fd5b6114a46112d78335611292565b82358082526020808301929160051b8501018910156114c257600080fd5b602084015b6020853560051b8601018110156116315767ffffffffffffffff813511156114ee57600080fd5b7fffffffffffffffffffffffffffffffffffffffffffffffffffffffffffffffe0606081833588018d0301121561152457600080fd5b61152c611220565b67ffffffffffffffff6020843589010135111561154857600080fd5b8235870160208101350160c0818e038401121561156457600080fd5b61156c6111fd565b925061157a6020820161104d565b83526115886040820161104d565b6020840152606081013560408401526080810135606084015267ffffffffffffffff60a082013511156115ba57600080fd5b6115cd8d602060a08401358401016112b6565b608084015267ffffffffffffffff60c082013511156115eb57600080fd5b6115fe8d602060c08401358401016112b6565b60a084015250908152813586016040818101356020808501919091526060909201359083015290845292830192016114c7565b5060a083015250935061164890506020850161104d565b915067ffffffffffffffff6040850135111561166357600080fd5b611673856040860135860161134e565b90509250925092565b60006020828403121561168e57600080fd5b5051919050565b600081518084526020808501945080840160005b838110156116e6578151805173ffffffffffffffffffffffffffffffffffffffff16885283015183880152604090960195908201906001016116a9565b509495945050505050565b6000602080835260e0830173ffffffffffffffffffffffffffffffffffffffff80865116838601528286015160408282168188015280880151915060608281890152808901519250608083818a0152808a0151935060a084818b0152808b0151945060c080818c0152878651808a526101009950898d019150898160051b8e01018b8901985060005b82811015611852577fffffffffffffffffffffffffffffffffffffffffffffffffffffffffffffff008f8303018452895180518984528c8151168a8501528c8f82015116898501528a810151888501528981015187850152888101518760e08601526117ea610120860182611695565b90508882015191507fffffffffffffffffffffffffffffffffffffffffffffffffffffffffffffffa0858203018f8601526118258183611695565b9150508e8201518f8501528a8201518b85015280935050508c8a0199508c8401935060018101905061177a565b509e9d5050505050505050505050505050565b6000806040838503121561187857600080fd5b505080516020909101519092909150565b60008083357fffffffffffffffffffffffffffffffffffffffffffffffffffffffffffffffe18436030181126118be57600080fd5b830160208101925035905067ffffffffffffffff8111156118de57600080fd5b8060061b360382131561109f57600080fd5b8183526000602080850194508260005b858110156116e65781356119138161102b565b73ffffffffffffffffffffffffffffffffffffffff168752818301358388015260409687019690910190600101611900565b81835260006020808501808196508560051b810191508460005b87811015611ac657828403895281357fffffffffffffffffffffffffffffffffffffffffffffffffffffffffffffffa188360301811261199e57600080fd5b870160608135368390037fffffffffffffffffffffffffffffffffffffffffffffffffffffffffffffff410181126119d557600080fd5b818752820180356119e58161102b565b73ffffffffffffffffffffffffffffffffffffffff908116888401528189013590611a0f8261102b565b6080818316818b01526040925060a0915082840135828b015260c085850135818c0152611a3e82860186611889565b965091508060e08c015250611a586101208b0186836118f0565b945050611a6781840184611889565b935090507fffffffffffffffffffffffffffffffffffffffffffffffffffffffffffffffa0898503016101008a0152611aa18484836118f0565b858b01358a8c015294820135919098015250509885019893509084019060010161195f565b5091979650505050505050565b8183528181602085013750600060208284010152600060207fffffffffffffffffffffffffffffffffffffffffffffffffffffffffffffffe0601f840116840101905092915050565b6060815260008535611b2d8161102b565b73ffffffffffffffffffffffffffffffffffffffff9081166060840152602087013590611b598261102b565b80821660808501525050604086013560a0830152606086013560c0830152608086013560e083015260a08601357fffffffffffffffffffffffffffffffffffffffffffffffffffffffffffffffe1873603018112611bb657600080fd5b860160208101903567ffffffffffffffff811115611bd357600080fd5b8060051b3603821315611be557600080fd5b60c0610100850152611bfc61012085018284611945565b915050611c21602084018773ffffffffffffffffffffffffffffffffffffffff169052565b8281036040840152610fbe818587611ad3565b600060208284031215611c4657600080fd5b8135610ca98161102b565b60005b83811015611c6c578181015183820152602001611c54565b50506000910152565b60008151808452611c8d816020860160208601611c51565b601f017fffffffffffffffffffffffffffffffffffffffffffffffffffffffffffffffe0169290920160200192915050565b600073ffffffffffffffffffffffffffffffffffffffff808716835280861660208401525083604083015260806060830152611cfe6080830184611c75565b9695505050505050565b600060208284031215611d1a57600080fd5b81518015158114610ca957600080fd5b602081526000610ca96020830184611c75565b80820180821115611d77577f4e487b7100000000000000000000000000000000000000000000000000000000600052601160045260246000fd5b92915050565b60008251611d8f818460208701611c51565b919091019291505056fe416464726573733a206c6f772d6c6576656c2063616c6c20776974682076616c7565206661696c6564a26469706673582212202247323be9886b1d4103d2c734aa198e2670171221bcb1709be26540fce71da364736f6c63430008110033",
  "linkReferences": {},
  "deployedLinkReferences": {}
}