{
  "abi": [
    {
      "inputs": [
        {
          "components": [
            {
              "internalType": "address",
              "name": "deployer",
              "type": "address"
            },
            {
              "internalType": "bytes",
              "name": "meta",
              "type": "bytes"
            }
          ],
          "internalType": "struct DeployerDiscoverableMetaV3ConstructionConfig",
          "name": "config",
          "type": "tuple"
        }
      ],
      "stateMutability": "nonpayable",
      "type": "constructor"
    },
    {
      "inputs": [],
      "name": "InitializationFailed",
      "type": "error"
    },
    {
      "inputs": [
        {
          "internalType": "bytes",
          "name": "unmeta",
          "type": "bytes"
        }
      ],
      "name": "NotRainMetaV1",
      "type": "error"
    },
    {
      "inputs": [
        {
          "internalType": "bytes32",
          "name": "expectedHash",
          "type": "bytes32"
        },
        {
          "internalType": "bytes32",
          "name": "actualHash",
          "type": "bytes32"
        }
      ],
      "name": "UnexpectedMetaHash",
      "type": "error"
    },
    {
      "inputs": [],
      "name": "ZeroImplementationCodeSize",
      "type": "error"
    },
    {
      "anonymous": false,
      "inputs": [
        {
          "indexed": false,
          "internalType": "address",
          "name": "sender",
          "type": "address"
        },
        {
          "indexed": false,
          "internalType": "uint256",
          "name": "subject",
          "type": "uint256"
        },
        {
          "indexed": false,
          "internalType": "bytes",
          "name": "meta",
          "type": "bytes"
        }
      ],
      "name": "MetaV1",
      "type": "event"
    },
    {
      "anonymous": false,
      "inputs": [
        {
          "indexed": false,
          "internalType": "address",
          "name": "sender",
          "type": "address"
        },
        {
          "indexed": false,
          "internalType": "address",
          "name": "implementation",
          "type": "address"
        },
        {
          "indexed": false,
          "internalType": "address",
          "name": "clone",
          "type": "address"
        }
      ],
      "name": "NewClone",
      "type": "event"
    },
    {
      "inputs": [
        {
          "internalType": "address",
          "name": "implementation",
          "type": "address"
        },
        {
          "internalType": "bytes",
          "name": "data",
          "type": "bytes"
        }
      ],
      "name": "clone",
      "outputs": [
        {
          "internalType": "address",
          "name": "",
          "type": "address"
        }
      ],
      "stateMutability": "nonpayable",
      "type": "function"
    }
  ],
  "bytecode": {
    "object": "0x60806040523480156200001157600080fd5b50604051620008f3380380620008f3833981016040819052620000349162000303565b7fb44c49d6e54d4af4c9b09b207d5194a7eecc6bf61923d2cc751cef550d3b40ef60001b816200006f828260200151620000c660201b60201c565b60208101516040517fbea766d03fa1efd3f81cc8634d08320bc62bb0ed9234ac59bbaafa5893fb6b1391620000a89133913091620003d1565b60405180910390a18051620000bd906200010d565b505050620004f7565b80516020820120828114620000fd5760405163074fe10f60e41b815260048101849052602481018290526044015b60405180910390fd5b6200010882620001c0565b505050565b60008080806001600160a01b03851663b7f14403826040519080825280602002602001820160405280156200014c578160200160208202803683370190505b506040518263ffffffff1660e01b81526004016200016b919062000403565b6000604051808303816000875af11580156200018b573d6000803e3d6000fd5b505050506040513d6000823e601f3d908101601f19168201604052620001b591908101906200045a565b505050505050505050565b620001cb81620001f0565b620001ed5780604051630c89984b60e31b8152600401620000f49190620004db565b50565b60006008825110156200020557506000919050565b50600801516001600160401b031667ff0a89c674ee78741490565b634e487b7160e01b600052604160045260246000fd5b6001600160a01b0381168114620001ed57600080fd5b60005b83811015620002695781810151838201526020016200024f565b50506000910152565b600082601f8301126200028457600080fd5b81516001600160401b0380821115620002a157620002a162000220565b604051601f8301601f19908116603f01168101908282118183101715620002cc57620002cc62000220565b81604052838152866020858801011115620002e657600080fd5b620002f98460208301602089016200024c565b9695505050505050565b6000602082840312156200031657600080fd5b81516001600160401b03808211156200032e57600080fd5b90830190604082860312156200034357600080fd5b60405160408101818110838211171562000361576200036162000220565b6040528251620003718162000236565b81526020830151828111156200038657600080fd5b620003948782860162000272565b60208301525095945050505050565b60008151808452620003bd8160208601602086016200024c565b601f01601f19169290920160200192915050565b60018060a01b0384168152826020820152606060408201526000620003fa6060830184620003a3565b95945050505050565b60408152600060408201526000606082016020606081850152818551808452608086019150828701935060005b818110156200044e5784518352938301939183019160010162000430565b50909695505050505050565b600080600080608085870312156200047157600080fd5b84516200047e8162000236565b6020860151909450620004918162000236565b6040860151909350620004a48162000236565b60608601519092506001600160401b03811115620004c157600080fd5b620004cf8782880162000272565b91505092959194509250565b602081526000620004f06020830184620003a3565b9392505050565b6103ec80620005076000396000f3fe608060405234801561001057600080fd5b506004361061002b5760003560e01c80630fbe133c14610030575b600080fd5b61004361003e3660046102e8565b61006c565b60405173ffffffffffffffffffffffffffffffffffffffff909116815260200160405180910390f35b60008373ffffffffffffffffffffffffffffffffffffffff163b6000036100bf576040517ff432283200000000000000000000000000000000000000000000000000000000815260040160405180910390fd5b60006100ca8561021c565b6040805133815273ffffffffffffffffffffffffffffffffffffffff888116602083015283168183015290519192507f274b5f356634f32a865af65bdc3d8205939d9413d75e1f367652e4f3b24d0c3a919081900360600190a16040517f439fab910000000000000000000000000000000000000000000000000000000081527fe0e57eda3f08f2a93bbe980d3df7f9c315eac41181f58b865a13d917fe769fc39073ffffffffffffffffffffffffffffffffffffffff83169063439fab919061019a9088908890600401610386565b6020604051808303816000875af11580156101b9573d6000803e3d6000fd5b505050506040513d601f19601f820116820180604052508101906101dd91906103d3565b14610214576040517f19b991a800000000000000000000000000000000000000000000000000000000815260040160405180910390fd5b949350505050565b6000763d602d80600a3d3981f3363d3d373d3d3d363d730000008260601b60e81c176000526e5af43d82803e903d91602b57fd5bf38260781b17602052603760096000f0905073ffffffffffffffffffffffffffffffffffffffff81166102e3576040517f08c379a000000000000000000000000000000000000000000000000000000000815260206004820152601660248201527f455243313136373a20637265617465206661696c656400000000000000000000604482015260640160405180910390fd5b919050565b6000806000604084860312156102fd57600080fd5b833573ffffffffffffffffffffffffffffffffffffffff8116811461032157600080fd5b9250602084013567ffffffffffffffff8082111561033e57600080fd5b818601915086601f83011261035257600080fd5b81358181111561036157600080fd5b87602082850101111561037357600080fd5b6020830194508093505050509250925092565b60208152816020820152818360408301376000818301604090810191909152601f9092017fffffffffffffffffffffffffffffffffffffffffffffffffffffffffffffffe0160101919050565b6000602082840312156103e557600080fd5b505191905056",
    "linkReferences": {}
  },
  "methodIdentifiers": {
    "clone(address,bytes)": "0fbe133c"
  },
  "id": 30
}