{
  "_format": "hh-sol-artifact-1",
  "contractName": "CloneFactory",
  "sourceName": "contracts/factory/CloneFactory.sol",
  "abi": [
    {
      "inputs": [
        {
          "components": [
            {
              "internalType": "address",
              "name": "deployer",
              "type": "address"
            },
            {
              "internalType": "bytes",
              "name": "meta",
              "type": "bytes"
            }
          ],
          "internalType": "struct DeployerDiscoverableMetaV1ConstructionConfig",
          "name": "config_",
          "type": "tuple"
        }
      ],
      "stateMutability": "nonpayable",
      "type": "constructor"
    },
    {
      "inputs": [
        {
          "internalType": "bytes",
          "name": "unmeta",
          "type": "bytes"
        }
      ],
      "name": "NotRainMetaV1",
      "type": "error"
    },
    {
      "inputs": [
        {
          "internalType": "bytes32",
          "name": "expectedHash",
          "type": "bytes32"
        },
        {
          "internalType": "bytes32",
          "name": "actualHash",
          "type": "bytes32"
        }
      ],
      "name": "UnexpectedMetaHash",
      "type": "error"
    },
    {
      "inputs": [],
      "name": "ZeroImplementation",
      "type": "error"
    },
    {
      "anonymous": false,
      "inputs": [
        {
          "indexed": false,
          "internalType": "address",
          "name": "sender",
          "type": "address"
        },
        {
          "indexed": false,
          "internalType": "uint256",
          "name": "subject",
          "type": "uint256"
        },
        {
          "indexed": false,
          "internalType": "bytes",
          "name": "meta",
          "type": "bytes"
        }
      ],
      "name": "MetaV1",
      "type": "event"
    },
    {
      "anonymous": false,
      "inputs": [
        {
          "indexed": false,
          "internalType": "address",
          "name": "sender",
          "type": "address"
        },
        {
          "indexed": false,
          "internalType": "address",
          "name": "implementation",
          "type": "address"
        },
        {
          "indexed": false,
          "internalType": "address",
          "name": "clone",
          "type": "address"
        }
      ],
      "name": "NewClone",
      "type": "event"
    },
    {
      "inputs": [
        {
          "internalType": "address",
          "name": "implementation_",
          "type": "address"
        },
        {
          "internalType": "bytes",
          "name": "data_",
          "type": "bytes"
        }
      ],
      "name": "clone",
      "outputs": [
        {
          "internalType": "address",
          "name": "",
          "type": "address"
        }
      ],
      "stateMutability": "nonpayable",
      "type": "function"
    }
  ],
  "bytecode": "0x608060405234801561001057600080fd5b506040516108bf3803806108bf83398101604081905261002f916102bc565b7fae0fb5b68fe1791c72509bf46ea6abf6a982d21451265be0a017f7959712a67e60001b816100688282602001516100ba60201b60201c565b60208101516040517fbea766d03fa1efd3f81cc8634d08320bc62bb0ed9234ac59bbaafa5893fb6b139161009f91339130916103b7565b60405180910390a180516100b2906100fe565b505050610514565b805160208201208281146100f05760405163074fe10f60e41b815260048101849052602481018290526044015b60405180910390fd5b6100f9826101bb565b505050565b604080516000808252602082019092526001600160a01b03831691635511cb67919061013a565b60608152602001906001900390816101255790505b5060408051600080825260208201908152818301928390526001600160e01b031960e086901b16909252610172929160448201610422565b6060604051808303816000875af1158015610191573d6000803e3d6000fd5b505050506040513d601f19601f820116820180604052508101906101b591906104ad565b50505050565b6101c4816101e6565b6101e35780604051630c89984b60e31b81526004016100e791906104fa565b50565b60006008825110156101fa57506000919050565b50600801516001600160401b031667ff0a89c674ee78741490565b634e487b7160e01b600052604160045260246000fd5b604080519081016001600160401b038111828210171561024d5761024d610215565b60405290565b604051601f8201601f191681016001600160401b038111828210171561027b5761027b610215565b604052919050565b6001600160a01b03811681146101e357600080fd5b60005b838110156102b357818101518382015260200161029b565b50506000910152565b600060208083850312156102cf57600080fd5b82516001600160401b03808211156102e657600080fd5b90840190604082870312156102fa57600080fd5b61030261022b565b825161030d81610283565b8152828401518281111561032057600080fd5b80840193505086601f84011261033557600080fd5b82518281111561034757610347610215565b610359601f8201601f19168601610253565b9250808352878582860101111561036f57600080fd5b61037e81868501878701610298565b5092830152509392505050565b600081518084526103a3816020860160208601610298565b601f01601f19169290920160200192915050565b60018060a01b03841681528260208201526060604082015260006103de606083018461038b565b95945050505050565b600081518084526020808501945080840160005b83811015610417578151875295820195908201906001016103fb565b509495945050505050565b6000606082016060835280865180835260808501915060808160051b8601019250602080890160005b8381101561047957607f1988870301855261046786835161038b565b9550938201939082019060010161044b565b50508584038187015250505061048f81866103e7565b905082810360408401526104a381856103e7565b9695505050505050565b6000806000606084860312156104c257600080fd5b83516104cd81610283565b60208501519093506104de81610283565b60408501519092506104ef81610283565b809150509250925092565b60208152600061050d602083018461038b565b9392505050565b61039c806105236000396000f3fe608060405234801561001057600080fd5b506004361061002b5760003560e01c80630fbe133c14610030575b600080fd5b61004361003e36600461027b565b61006c565b60405173ffffffffffffffffffffffffffffffffffffffff909116815260200160405180910390f35b600073ffffffffffffffffffffffffffffffffffffffff84166100bb576040517f4208d2eb00000000000000000000000000000000000000000000000000000000815260040160405180910390fd5b60006100c6856101af565b6040805133815273ffffffffffffffffffffffffffffffffffffffff888116602083015283168183015290519192507f274b5f356634f32a865af65bdc3d8205939d9413d75e1f367652e4f3b24d0c3a919081900360600190a16040517f439fab9100000000000000000000000000000000000000000000000000000000815273ffffffffffffffffffffffffffffffffffffffff82169063439fab91906101749087908790600401610319565b600060405180830381600087803b15801561018e57600080fd5b505af11580156101a2573d6000803e3d6000fd5b5092979650505050505050565b6000763d602d80600a3d3981f3363d3d373d3d3d363d730000008260601b60e81c176000526e5af43d82803e903d91602b57fd5bf38260781b17602052603760096000f0905073ffffffffffffffffffffffffffffffffffffffff8116610276576040517f08c379a000000000000000000000000000000000000000000000000000000000815260206004820152601660248201527f455243313136373a20637265617465206661696c656400000000000000000000604482015260640160405180910390fd5b919050565b60008060006040848603121561029057600080fd5b833573ffffffffffffffffffffffffffffffffffffffff811681146102b457600080fd5b9250602084013567ffffffffffffffff808211156102d157600080fd5b818601915086601f8301126102e557600080fd5b8135818111156102f457600080fd5b87602082850101111561030657600080fd5b6020830194508093505050509250925092565b60208152816020820152818360408301376000818301604090810191909152601f9092017fffffffffffffffffffffffffffffffffffffffffffffffffffffffffffffffe016010191905056fea264697066735822122086eb2e0396978133096f5225513d178b207013ed4b5b63035454bc1aed5e3ad264736f6c63430008130033",
  "linkReferences": {},
  "deployedLinkReferences": {}
}