{
  "abi": [
    {
      "inputs": [
        {
          "components": [
            {
              "internalType": "address",
              "name": "deployer",
              "type": "address"
            },
            {
              "internalType": "bytes",
              "name": "meta",
              "type": "bytes"
            }
          ],
          "internalType": "struct DeployerDiscoverableMetaV2ConstructionConfig",
          "name": "config",
          "type": "tuple"
        }
      ],
      "stateMutability": "nonpayable",
      "type": "constructor"
    },
    {
      "inputs": [],
      "name": "InitializationFailed",
      "type": "error"
    },
    {
      "inputs": [
        {
          "internalType": "bytes",
          "name": "unmeta",
          "type": "bytes"
        }
      ],
      "name": "NotRainMetaV1",
      "type": "error"
    },
    {
      "inputs": [
        {
          "internalType": "bytes32",
          "name": "expectedHash",
          "type": "bytes32"
        },
        {
          "internalType": "bytes32",
          "name": "actualHash",
          "type": "bytes32"
        }
      ],
      "name": "UnexpectedMetaHash",
      "type": "error"
    },
    {
      "inputs": [],
      "name": "ZeroImplementationCodeSize",
      "type": "error"
    },
    {
      "anonymous": false,
      "inputs": [
        {
          "indexed": false,
          "internalType": "address",
          "name": "sender",
          "type": "address"
        },
        {
          "indexed": false,
          "internalType": "uint256",
          "name": "subject",
          "type": "uint256"
        },
        {
          "indexed": false,
          "internalType": "bytes",
          "name": "meta",
          "type": "bytes"
        }
      ],
      "name": "MetaV1",
      "type": "event"
    },
    {
      "anonymous": false,
      "inputs": [
        {
          "indexed": false,
          "internalType": "address",
          "name": "sender",
          "type": "address"
        },
        {
          "indexed": false,
          "internalType": "address",
          "name": "implementation",
          "type": "address"
        },
        {
          "indexed": false,
          "internalType": "address",
          "name": "clone",
          "type": "address"
        }
      ],
      "name": "NewClone",
      "type": "event"
    },
    {
      "inputs": [
        {
          "internalType": "address",
          "name": "implementation",
          "type": "address"
        },
        {
          "internalType": "bytes",
          "name": "data",
          "type": "bytes"
        }
      ],
      "name": "clone",
      "outputs": [
        {
          "internalType": "address",
          "name": "",
          "type": "address"
        }
      ],
      "stateMutability": "nonpayable",
      "type": "function"
    }
  ],
  "bytecode": {
    "object": "0x60806040523480156200001157600080fd5b50604051620008d4380380620008d48339810160408190526200003491620002b4565b7fc95dbb57fc82aaa5d8e58ffb65cff40b4b5c1fdd2d50da43d760cea45ea2304f60001b816200006f828260200151620000c660201b60201c565b60208101516040517fbea766d03fa1efd3f81cc8634d08320bc62bb0ed9234ac59bbaafa5893fb6b1391620000a89133913091620003c2565b60405180910390a18051620000bd906200010d565b505050620004d8565b80516020820120828114620000fd5760405163074fe10f60e41b815260048101849052602481018290526044015b60405180910390fd5b6200010882620001a4565b505050565b60408051600080825260208201818152828401938490526331a66b6560e01b90935291829182916001600160a01b038616916331a66b65916200015591906044820162000431565b6060604051808303816000875af115801562000175573d6000803e3d6000fd5b505050506040513d601f19601f820116820180604052508101906200019b919062000468565b50505050505050565b620001af81620001d4565b620001d15780604051630c89984b60e31b8152600401620000f49190620004bc565b50565b6000600882511015620001e957506000919050565b50600801516001600160401b031667ff0a89c674ee78741490565b634e487b7160e01b600052604160045260246000fd5b604080519081016001600160401b03811182821017156200023f576200023f62000204565b60405290565b604051601f8201601f191681016001600160401b038111828210171562000270576200027062000204565b604052919050565b6001600160a01b0381168114620001d157600080fd5b60005b83811015620002ab57818101518382015260200162000291565b50506000910152565b60006020808385031215620002c857600080fd5b82516001600160401b0380821115620002e057600080fd5b9084019060408287031215620002f557600080fd5b620002ff6200021a565b82516200030c8162000278565b815282840151828111156200032057600080fd5b80840193505086601f8401126200033657600080fd5b8251828111156200034b576200034b62000204565b6200035f601f8201601f1916860162000245565b925080835287858286010111156200037657600080fd5b62000387818685018787016200028e565b5092830152509392505050565b60008151808452620003ae8160208601602086016200028e565b601f01601f19169290920160200192915050565b60018060a01b0384168152826020820152606060408201526000620003eb606083018462000394565b95945050505050565b600081518084526020808501945080840160005b83811015620004265781518752958201959082019060010162000408565b509495945050505050565b6060815260006060820152608060208201526000620004546080830185620003f4565b8281036040840152620003eb8185620003f4565b6000806000606084860312156200047e57600080fd5b83516200048b8162000278565b60208501519093506200049e8162000278565b6040850151909250620004b18162000278565b809150509250925092565b602081526000620004d1602083018462000394565b9392505050565b6103ec80620004e86000396000f3fe608060405234801561001057600080fd5b506004361061002b5760003560e01c80630fbe133c14610030575b600080fd5b61004361003e3660046102e8565b61006c565b60405173ffffffffffffffffffffffffffffffffffffffff909116815260200160405180910390f35b60008373ffffffffffffffffffffffffffffffffffffffff163b6000036100bf576040517ff432283200000000000000000000000000000000000000000000000000000000815260040160405180910390fd5b60006100ca8561021c565b6040805133815273ffffffffffffffffffffffffffffffffffffffff888116602083015283168183015290519192507f274b5f356634f32a865af65bdc3d8205939d9413d75e1f367652e4f3b24d0c3a919081900360600190a16040517f439fab910000000000000000000000000000000000000000000000000000000081527fe0e57eda3f08f2a93bbe980d3df7f9c315eac41181f58b865a13d917fe769fc39073ffffffffffffffffffffffffffffffffffffffff83169063439fab919061019a9088908890600401610386565b6020604051808303816000875af11580156101b9573d6000803e3d6000fd5b505050506040513d601f19601f820116820180604052508101906101dd91906103d3565b14610214576040517f19b991a800000000000000000000000000000000000000000000000000000000815260040160405180910390fd5b949350505050565b6000763d602d80600a3d3981f3363d3d373d3d3d363d730000008260601b60e81c176000526e5af43d82803e903d91602b57fd5bf38260781b17602052603760096000f0905073ffffffffffffffffffffffffffffffffffffffff81166102e3576040517f08c379a000000000000000000000000000000000000000000000000000000000815260206004820152601660248201527f455243313136373a20637265617465206661696c656400000000000000000000604482015260640160405180910390fd5b919050565b6000806000604084860312156102fd57600080fd5b833573ffffffffffffffffffffffffffffffffffffffff8116811461032157600080fd5b9250602084013567ffffffffffffffff8082111561033e57600080fd5b818601915086601f83011261035257600080fd5b81358181111561036157600080fd5b87602082850101111561037357600080fd5b6020830194508093505050509250925092565b60208152816020820152818360408301376000818301604090810191909152601f9092017fffffffffffffffffffffffffffffffffffffffffffffffffffffffffffffffe0160101919050565b6000602082840312156103e557600080fd5b505191905056",
    "linkReferences": {}
  },
  "methodIdentifiers": {
    "clone(address,bytes)": "0fbe133c"
  },
  "id": 30
}