{
  "abi": [
    {
      "inputs": [
        {
          "components": [
            {
              "internalType": "address",
              "name": "deployer",
              "type": "address"
            },
            {
              "internalType": "bytes",
              "name": "meta",
              "type": "bytes"
            }
          ],
          "internalType": "struct DeployerDiscoverableMetaV2ConstructionConfig",
          "name": "config",
          "type": "tuple"
        }
      ],
      "stateMutability": "nonpayable",
      "type": "constructor"
    },
    {
      "inputs": [
        {
          "internalType": "address",
          "name": "badLender",
          "type": "address"
        }
      ],
      "name": "BadLender",
      "type": "error"
    },
    {
      "inputs": [],
      "name": "InitializeSignatureFn",
      "type": "error"
    },
    {
      "inputs": [],
      "name": "Initializing",
      "type": "error"
    },
    {
      "inputs": [
        {
          "internalType": "uint256",
          "name": "i",
          "type": "uint256"
        }
      ],
      "name": "InvalidSignature",
      "type": "error"
    },
    {
      "inputs": [
        {
          "internalType": "uint256",
          "name": "minimum",
          "type": "uint256"
        },
        {
          "internalType": "uint256",
          "name": "actual",
          "type": "uint256"
        }
      ],
      "name": "MinimumOutput",
      "type": "error"
    },
    {
      "inputs": [],
      "name": "NoOrders",
      "type": "error"
    },
    {
      "inputs": [],
      "name": "NonZeroBeforeArbStack",
      "type": "error"
    },
    {
      "inputs": [
        {
          "internalType": "bytes",
          "name": "unmeta",
          "type": "bytes"
        }
      ],
      "name": "NotRainMetaV1",
      "type": "error"
    },
    {
      "inputs": [
        {
          "internalType": "bytes32",
          "name": "expectedHash",
          "type": "bytes32"
        },
        {
          "internalType": "bytes32",
          "name": "actualHash",
          "type": "bytes32"
        }
      ],
      "name": "UnexpectedMetaHash",
      "type": "error"
    },
    {
      "anonymous": false,
      "inputs": [
        {
          "indexed": false,
          "internalType": "address",
          "name": "sender",
          "type": "address"
        },
        {
          "components": [
            {
              "internalType": "address",
              "name": "orderBook",
              "type": "address"
            },
            {
              "components": [
                {
                  "internalType": "contract IExpressionDeployerV2",
                  "name": "deployer",
                  "type": "address"
                },
                {
                  "internalType": "bytes",
                  "name": "bytecode",
                  "type": "bytes"
                },
                {
                  "internalType": "uint256[]",
                  "name": "constants",
                  "type": "uint256[]"
                }
              ],
              "internalType": "struct EvaluableConfigV2",
              "name": "evaluableConfig",
              "type": "tuple"
            },
            {
              "internalType": "bytes",
              "name": "implementationData",
              "type": "bytes"
            }
          ],
          "indexed": false,
          "internalType": "struct OrderBookV3ArbOrderTakerConfigV1",
          "name": "config",
          "type": "tuple"
        }
      ],
      "name": "Initialize",
      "type": "event"
    },
    {
      "anonymous": false,
      "inputs": [
        {
          "indexed": false,
          "internalType": "uint8",
          "name": "version",
          "type": "uint8"
        }
      ],
      "name": "Initialized",
      "type": "event"
    },
    {
      "anonymous": false,
      "inputs": [
        {
          "indexed": false,
          "internalType": "address",
          "name": "sender",
          "type": "address"
        },
        {
          "indexed": false,
          "internalType": "uint256",
          "name": "subject",
          "type": "uint256"
        },
        {
          "indexed": false,
          "internalType": "bytes",
          "name": "meta",
          "type": "bytes"
        }
      ],
      "name": "MetaV1",
      "type": "event"
    },
    {
      "stateMutability": "nonpayable",
      "type": "fallback"
    },
    {
      "inputs": [
        {
          "components": [
            {
              "internalType": "uint256",
              "name": "minimumInput",
              "type": "uint256"
            },
            {
              "internalType": "uint256",
              "name": "maximumInput",
              "type": "uint256"
            },
            {
              "internalType": "uint256",
              "name": "maximumIORatio",
              "type": "uint256"
            },
            {
              "components": [
                {
                  "components": [
                    {
                      "internalType": "address",
                      "name": "owner",
                      "type": "address"
                    },
                    {
                      "internalType": "bool",
                      "name": "handleIO",
                      "type": "bool"
                    },
                    {
                      "components": [
                        {
                          "internalType": "contract IInterpreterV1",
                          "name": "interpreter",
                          "type": "address"
                        },
                        {
                          "internalType": "contract IInterpreterStoreV1",
                          "name": "store",
                          "type": "address"
                        },
                        {
                          "internalType": "address",
                          "name": "expression",
                          "type": "address"
                        }
                      ],
                      "internalType": "struct Evaluable",
                      "name": "evaluable",
                      "type": "tuple"
                    },
                    {
                      "components": [
                        {
                          "internalType": "address",
                          "name": "token",
                          "type": "address"
                        },
                        {
                          "internalType": "uint8",
                          "name": "decimals",
                          "type": "uint8"
                        },
                        {
                          "internalType": "uint256",
                          "name": "vaultId",
                          "type": "uint256"
                        }
                      ],
                      "internalType": "struct IO[]",
                      "name": "validInputs",
                      "type": "tuple[]"
                    },
                    {
                      "components": [
                        {
                          "internalType": "address",
                          "name": "token",
                          "type": "address"
                        },
                        {
                          "internalType": "uint8",
                          "name": "decimals",
                          "type": "uint8"
                        },
                        {
                          "internalType": "uint256",
                          "name": "vaultId",
                          "type": "uint256"
                        }
                      ],
                      "internalType": "struct IO[]",
                      "name": "validOutputs",
                      "type": "tuple[]"
                    }
                  ],
                  "internalType": "struct Order",
                  "name": "order",
                  "type": "tuple"
                },
                {
                  "internalType": "uint256",
                  "name": "inputIOIndex",
                  "type": "uint256"
                },
                {
                  "internalType": "uint256",
                  "name": "outputIOIndex",
                  "type": "uint256"
                },
                {
                  "components": [
                    {
                      "internalType": "address",
                      "name": "signer",
                      "type": "address"
                    },
                    {
                      "internalType": "uint256[]",
                      "name": "context",
                      "type": "uint256[]"
                    },
                    {
                      "internalType": "bytes",
                      "name": "signature",
                      "type": "bytes"
                    }
                  ],
                  "internalType": "struct SignedContextV1[]",
                  "name": "signedContext",
                  "type": "tuple[]"
                }
              ],
              "internalType": "struct TakeOrderConfig[]",
              "name": "orders",
              "type": "tuple[]"
            },
            {
              "internalType": "bytes",
              "name": "data",
              "type": "bytes"
            }
          ],
          "internalType": "struct TakeOrdersConfigV2",
          "name": "takeOrders",
          "type": "tuple"
        },
        {
          "internalType": "uint256",
          "name": "minimumSenderOutput",
          "type": "uint256"
        }
      ],
      "name": "arb",
      "outputs": [],
      "stateMutability": "payable",
      "type": "function"
    },
    {
      "inputs": [
        {
          "internalType": "bytes",
          "name": "data",
          "type": "bytes"
        }
      ],
      "name": "initialize",
      "outputs": [
        {
          "internalType": "bytes32",
          "name": "",
          "type": "bytes32"
        }
      ],
      "stateMutability": "nonpayable",
      "type": "function"
    },
    {
      "inputs": [
        {
          "components": [
            {
              "internalType": "address",
              "name": "orderBook",
              "type": "address"
            },
            {
              "components": [
                {
                  "internalType": "contract IExpressionDeployerV2",
                  "name": "deployer",
                  "type": "address"
                },
                {
                  "internalType": "bytes",
                  "name": "bytecode",
                  "type": "bytes"
                },
                {
                  "internalType": "uint256[]",
                  "name": "constants",
                  "type": "uint256[]"
                }
              ],
              "internalType": "struct EvaluableConfigV2",
              "name": "evaluableConfig",
              "type": "tuple"
            },
            {
              "internalType": "bytes",
              "name": "implementationData",
              "type": "bytes"
            }
          ],
          "internalType": "struct OrderBookV3ArbOrderTakerConfigV1",
          "name": "",
          "type": "tuple"
        }
      ],
      "name": "initialize",
      "outputs": [
        {
          "internalType": "bytes32",
          "name": "",
          "type": "bytes32"
        }
      ],
      "stateMutability": "pure",
      "type": "function"
    },
    {
      "inputs": [
        {
          "internalType": "address",
          "name": "inputToken",
          "type": "address"
        },
        {
          "internalType": "address",
          "name": "outputToken",
          "type": "address"
        },
        {
          "internalType": "uint256",
          "name": "inputAmountSent",
          "type": "uint256"
        },
        {
          "internalType": "uint256",
          "name": "totalOutputAmount",
          "type": "uint256"
        },
        {
          "internalType": "bytes",
          "name": "takeOrdersData",
          "type": "bytes"
        }
      ],
      "name": "onTakeOrders",
      "outputs": [],
      "stateMutability": "nonpayable",
      "type": "function"
    },
    {
      "inputs": [],
      "name": "sI9r",
      "outputs": [
        {
          "internalType": "contract IInterpreterV1",
          "name": "",
          "type": "address"
        }
      ],
      "stateMutability": "view",
      "type": "function"
    },
    {
      "inputs": [],
      "name": "sI9rDispatch",
      "outputs": [
        {
          "internalType": "EncodedDispatch",
          "name": "",
          "type": "uint256"
        }
      ],
      "stateMutability": "view",
      "type": "function"
    },
    {
      "inputs": [],
      "name": "sI9rStore",
      "outputs": [
        {
          "internalType": "contract IInterpreterStoreV1",
          "name": "",
          "type": "address"
        }
      ],
      "stateMutability": "view",
      "type": "function"
    },
    {
      "inputs": [],
      "name": "sOrderBook",
      "outputs": [
        {
          "internalType": "contract IOrderBookV3",
          "name": "",
          "type": "address"
        }
      ],
      "stateMutability": "view",
      "type": "function"
    },
    {
      "inputs": [
        {
          "internalType": "bytes4",
          "name": "interfaceId",
          "type": "bytes4"
        }
      ],
      "name": "supportsInterface",
      "outputs": [
        {
          "internalType": "bool",
          "name": "",
          "type": "bool"
        }
      ],
      "stateMutability": "view",
      "type": "function"
    }
  ],
  "bytecode": {
    "object": "0x60806040523480156200001157600080fd5b50604051620033f2380380620033f2833981016040819052620000349162000383565b600160005560208101517f3d6909481820fc692906b0477e8f98248e84973bc8b8d5ac935132857d4f41259082908290829062000073908390620000d7565b60208101516040517fbea766d03fa1efd3f81cc8634d08320bc62bb0ed9234ac59bbaafa5893fb6b1391620000ac913391309162000491565b60405180910390a18051620000c1906200011e565b50620000ce9050620001b5565b505050620005a7565b805160208201208281146200010e5760405163074fe10f60e41b815260048101849052602481018290526044015b60405180910390fd5b620001198262000273565b505050565b60408051600080825260208201818152828401938490526331a66b6560e01b90935291829182916001600160a01b038616916331a66b65916200016691906044820162000500565b6060604051808303816000875af115801562000186573d6000803e3d6000fd5b505050506040513d601f19601f82011682018060405250810190620001ac919062000537565b50505050505050565b600154610100900460ff16156200021f5760405162461bcd60e51b815260206004820152602760248201527f496e697469616c697a61626c653a20636f6e747261637420697320696e697469604482015266616c697a696e6760c81b606482015260840162000105565b60015460ff9081161462000271576001805460ff191660ff9081179091556040519081527f7f26b83ff96e1f2b6a682f133852f6798a09c465da95921460cefb38474024989060200160405180910390a15b565b6200027e81620002a3565b620002a05780604051630c89984b60e31b81526004016200010591906200058b565b50565b6000600882511015620002b857506000919050565b50600801516001600160401b031667ff0a89c674ee78741490565b634e487b7160e01b600052604160045260246000fd5b604080519081016001600160401b03811182821017156200030e576200030e620002d3565b60405290565b604051601f8201601f191681016001600160401b03811182821017156200033f576200033f620002d3565b604052919050565b6001600160a01b0381168114620002a057600080fd5b60005b838110156200037a57818101518382015260200162000360565b50506000910152565b600060208083850312156200039757600080fd5b82516001600160401b0380821115620003af57600080fd5b9084019060408287031215620003c457600080fd5b620003ce620002e9565b8251620003db8162000347565b81528284015182811115620003ef57600080fd5b80840193505086601f8401126200040557600080fd5b8251828111156200041a576200041a620002d3565b6200042e601f8201601f1916860162000314565b925080835287858286010111156200044557600080fd5b62000456818685018787016200035d565b5092830152509392505050565b600081518084526200047d8160208601602086016200035d565b601f01601f19169290920160200192915050565b60018060a01b0384168152826020820152606060408201526000620004ba606083018462000463565b95945050505050565b600081518084526020808501945080840160005b83811015620004f557815187529582019590820190600101620004d7565b509495945050505050565b6060815260006060820152608060208201526000620005236080830185620004c3565b8281036040840152620004ba8185620004c3565b6000806000606084860312156200054d57600080fd5b83516200055a8162000347565b60208501519093506200056d8162000347565b6040850151909250620005808162000347565b809150509250925092565b602081526000620005a0602083018462000463565b9392505050565b612e3b80620005b76000396000f3fe6080604052600436106100965760003560e01c806371c1dea71161006957806389448c3a1161004e57806389448c3a1461021c57806398da8d6a14610232578063c3b7c7c31461025257610096565b806371c1dea7146101bc578063886d1650146101e957610096565b806301ffc9a7146100e7578063059bebe61461011c578063439fab911461013c57806361bb39e41461016a575b3480156100a257600080fd5b50600154610100900460ff16156100e5576040517f4e8f6c4400000000000000000000000000000000000000000000000000000000815260040160405180910390fd5b005b3480156100f357600080fd5b50610107610102366004611dc2565b610265565b60405190151581526020015b60405180910390f35b34801561012857600080fd5b506100e5610137366004611e2d565b61034a565b34801561014857600080fd5b5061015c61015736600461201a565b610425565b604051908152602001610113565b34801561017657600080fd5b506004546101979073ffffffffffffffffffffffffffffffffffffffff1681565b60405173ffffffffffffffffffffffffffffffffffffffff9091168152602001610113565b3480156101c857600080fd5b506003546101979073ffffffffffffffffffffffffffffffffffffffff1681565b3480156101f557600080fd5b506001546101979062010000900473ffffffffffffffffffffffffffffffffffffffff1681565b34801561022857600080fd5b5061015c60025481565b34801561023e57600080fd5b5061015c61024d36600461204f565b61080d565b6100e561026036600461208a565b610841565b60007fffffffff0000000000000000000000000000000000000000000000000000000082167f059bebe60000000000000000000000000000000000000000000000000000000014806102f857507fffffffff0000000000000000000000000000000000000000000000000000000082167f439fab9100000000000000000000000000000000000000000000000000000000145b8061034457507f01ffc9a7000000000000000000000000000000000000000000000000000000007fffffffff000000000000000000000000000000000000000000000000000000008316145b92915050565b610358868686868686610f71565b60008080610368848601866120d4565b9194509250905061039173ffffffffffffffffffffffffffffffffffffffff8a16846000611014565b6103d273ffffffffffffffffffffffffffffffffffffffff8a16847fffffffffffffffffffffffffffffffffffffffffffffffffffffffffffffffff611014565b60006103f573ffffffffffffffffffffffffffffffffffffffff84168347611219565b905061041973ffffffffffffffffffffffffffffffffffffffff8b16856000611014565b50505050505050505050565b600154600090610100900460ff161580801561044557506001805460ff16105b8061045e5750303b15801561045e57506001805460ff16145b6104ef576040517f08c379a000000000000000000000000000000000000000000000000000000000815260206004820152602e60248201527f496e697469616c697a61626c653a20636f6e747261637420697320616c72656160448201527f647920696e697469616c697a656400000000000000000000000000000000000060648201526084015b60405180910390fd5b600180547fffffffffffffffffffffffffffffffffffffffffffffffffffffffffffffff001681179055801561054c57600180547fffffffffffffffffffffffffffffffffffffffffffffffffffffffffffff00ff166101001790555b610554611247565b60008380602001905181019061056a9190612214565b905080516001805473ffffffffffffffffffffffffffffffffffffffff90921662010000027fffffffffffffffffffff0000000000000000000000000000000000000000ffff9092169190911790556040517f61f559321bdc3ad3a0e3b8692a91eaffa9773753bfec4e5f4c344cfed245cab7906105eb90339084906123a2565b60405180910390a160006106068260200151602001516112bd565b11156107775760408051600180825281830190925260009182919060208083019080368337019050509050600081600061ffff168151811061064a5761064a612477565b6020908102919091018101919091528381015180519181015160409182015191517f31a66b6500000000000000000000000000000000000000000000000000000000815273ffffffffffffffffffffffffffffffffffffffff909316926331a66b65926106bc929186906004016124a6565b6060604051808303816000875af11580156106db573d6000803e3d6000fd5b505050506040513d601f19601f820116820180604052508101906106ff91906124df565b600480547fffffffffffffffffffffffff000000000000000000000000000000000000000090811673ffffffffffffffffffffffffffffffffffffffff94851617909155600380549091169390921692909217905560201b77ffffffffffffffffffffffffffffffffffffffff000000001660025550505b7fe0e57eda3f08f2a93bbe980d3df7f9c315eac41181f58b865a13d917fe769fc39250506107a56001600055565b801561080757600180547fffffffffffffffffffffffffffffffffffffffffffffffffffffffffffff00ff1681556040519081527f7f26b83ff96e1f2b6a682f133852f6798a09c465da95921460cefb38474024989060200160405180910390a15b50919050565b60006040517faf1fbb2100000000000000000000000000000000000000000000000000000000815260040160405180910390fd5b610849611247565b600154610100900460ff161561088b576040517f4e8f6c4400000000000000000000000000000000000000000000000000000000815260040160405180910390fd5b610898606083018361252c565b90506000036108d3576040517f9c95219f00000000000000000000000000000000000000000000000000000000815260040160405180910390fd5b60006108e2606084018461252c565b60008181106108f3576108f3612477565b90506020028101906109059190612594565b61090f90806125d2565b61091d9060a0810190612606565b61092a606086018661252c565b600081811061093b5761093b612477565b905060200281019061094d9190612594565b6020013581811061096057610960612477565b610976926020606090920201908101915061266d565b90506000610987606085018561252c565b600081811061099857610998612477565b90506020028101906109aa9190612594565b6109b490806125d2565b6109c29060c0810190612606565b6109cf606087018761252c565b60008181106109e0576109e0612477565b90506020028101906109f29190612594565b60400135818110610a0557610a05612477565b610a1b926020606090920201908101915061266d565b6002549091508015610c4a57600354600454600091829173ffffffffffffffffffffffffffffffffffffffff91821691636715f82591168386610af582604051908082528060200260200182016040528015610a8b57816020015b6060815260200190600190039081610a765790505b506040805160008082526020820190925290610aef565b610adc6040518060600160405280600073ffffffffffffffffffffffffffffffffffffffff16815260200160608152602001606081525090565b815260200190600190039081610aa25790505b506112db565b6040518563ffffffff1660e01b8152600401610b14949392919061268a565b600060405180830381865afa158015610b31573d6000803e3d6000fd5b505050506040513d6000823e601f3d9081017fffffffffffffffffffffffffffffffffffffffffffffffffffffffffffffffe0168201604052610b779190810190612736565b8151919350915015610bb5576040517f379fa94000000000000000000000000000000000000000000000000000000000815260040160405180910390fd5b805115610c4757600480546040517f946aadc600000000000000000000000000000000000000000000000000000000815273ffffffffffffffffffffffffffffffffffffffff9091169163946aadc691610c149160009186910161279a565b600060405180830381600087803b158015610c2e57600080fd5b505af1158015610c42573d6000803e3d6000fd5b505050505b50505b600154610c789073ffffffffffffffffffffffffffffffffffffffff85811691620100009004166000611014565b600154610cc59073ffffffffffffffffffffffffffffffffffffffff85811691620100009004167fffffffffffffffffffffffffffffffffffffffffffffffffffffffffffffffff611014565b6001546040517f8a44689c00000000000000000000000000000000000000000000000000000000815260009182916201000090910473ffffffffffffffffffffffffffffffffffffffff1690638a44689c90610d25908a90600401612ad7565b60408051808303816000875af1158015610d43573d6000803e3d6000fd5b505050506040513d601f19601f82011682018060405250810190610d679190612d4a565b6001549193509150610d9a9073ffffffffffffffffffffffffffffffffffffffff87811691620100009004166000611014565b6040517f70a0823100000000000000000000000000000000000000000000000000000000815230600482015260009073ffffffffffffffffffffffffffffffffffffffff8716906370a0823190602401602060405180830381865afa158015610e07573d6000803e3d6000fd5b505050506040513d601f19601f82011682018060405250810190610e2b9190612d6e565b905086811015610e71576040517f0c08b5bc00000000000000000000000000000000000000000000000000000000815260048101889052602481018290526044016104e6565b8015610e9857610e9873ffffffffffffffffffffffffffffffffffffffff871633836115eb565b6040517f70a0823100000000000000000000000000000000000000000000000000000000815230600482015260009073ffffffffffffffffffffffffffffffffffffffff8716906370a0823190602401602060405180830381865afa158015610f05573d6000803e3d6000fd5b505050506040513d601f19601f82011682018060405250810190610f299190612d6e565b90508015610f5257610f5273ffffffffffffffffffffffffffffffffffffffff871633836115eb565b610f5c3347611641565b50505050505050610f6d6001600055565b5050565b600154610100900460ff1615610fb3576040517f4e8f6c4400000000000000000000000000000000000000000000000000000000815260040160405180910390fd5b60015462010000900473ffffffffffffffffffffffffffffffffffffffff16331461100c576040517f0bc3cde00000000000000000000000000000000000000000000000000000000081523360048201526024016104e6565b505050505050565b8015806110b457506040517fdd62ed3e00000000000000000000000000000000000000000000000000000000815230600482015273ffffffffffffffffffffffffffffffffffffffff838116602483015284169063dd62ed3e90604401602060405180830381865afa15801561108e573d6000803e3d6000fd5b505050506040513d601f19601f820116820180604052508101906110b29190612d6e565b155b611140576040517f08c379a000000000000000000000000000000000000000000000000000000000815260206004820152603660248201527f5361666545524332303a20617070726f76652066726f6d206e6f6e2d7a65726f60448201527f20746f206e6f6e2d7a65726f20616c6c6f77616e63650000000000000000000060648201526084016104e6565b60405173ffffffffffffffffffffffffffffffffffffffff83166024820152604481018290526112149084907f095ea7b300000000000000000000000000000000000000000000000000000000906064015b604080517fffffffffffffffffffffffffffffffffffffffffffffffffffffffffffffffe08184030181529190526020810180517bffffffffffffffffffffffffffffffffffffffffffffffffffffffff167fffffffff000000000000000000000000000000000000000000000000000000009093169290921790915261179b565b505050565b606061123f848484604051806060016040528060298152602001612e12602991396118aa565b949350505050565b6002600054036112b3576040517f08c379a000000000000000000000000000000000000000000000000000000000815260206004820152601f60248201527f5265656e7472616e637947756172643a207265656e7472616e742063616c6c0060448201526064016104e6565b6002600055565b50565b600081516000036112d057506000919050565b506020015160001a90565b60606000825167ffffffffffffffff8111156112f9576112f9611ed7565b604051908082528060200260200182016040528015611322578160200160208202803683370190505b50905060008084511161133657600061133c565b83516001015b855160010101905060008167ffffffffffffffff81111561135f5761135f611ed7565b60405190808252806020026020018201604052801561139257816020015b606081526020019060019003908161137d5790505b50905060006113b7604080516002815233602082015230818301526060810190915290565b8282815181106113c9576113c9612477565b602002602001018190525060005b87518110156114275781806001019250508781815181106113fa576113fa612477565b602002602001015183838151811061141457611414612477565b60209081029190910101526001016113d7565b508551156115e15780806001019150508382828151811061144a5761144a612477565b602002602001018190525060005b86518110156115df5761150987828151811061147657611476612477565b6020026020010151600001516114e66114b38a858151811061149a5761149a612477565b6020026020010151602001518051602090810291012090565b7f19457468657265756d205369676e6564204d6573736167653a0a3332000000006000908152601c91909152603c902090565b8984815181106114f8576114f8612477565b6020026020010151604001516119c3565b611542576040517f52bf9848000000000000000000000000000000000000000000000000000000008152600481018290526024016104e6565b86818151811061155457611554612477565b60200260200101516000015173ffffffffffffffffffffffffffffffffffffffff1685828151811061158857611588612477565b60200260200101818152505081806001019250508681815181106115ae576115ae612477565b6020026020010151602001518383815181106115cc576115cc612477565b6020908102919091010152600101611458565b505b5095945050505050565b60405173ffffffffffffffffffffffffffffffffffffffff83166024820152604481018290526112149084907fa9059cbb0000000000000000000000000000000000000000000000000000000090606401611192565b804710156116ab576040517f08c379a000000000000000000000000000000000000000000000000000000000815260206004820152601d60248201527f416464726573733a20696e73756666696369656e742062616c616e636500000060448201526064016104e6565b60008273ffffffffffffffffffffffffffffffffffffffff168260405160006040518083038185875af1925050503d8060008114611705576040519150601f19603f3d011682016040523d82523d6000602084013e61170a565b606091505b5050905080611214576040517f08c379a000000000000000000000000000000000000000000000000000000000815260206004820152603a60248201527f416464726573733a20756e61626c6520746f2073656e642076616c75652c207260448201527f6563697069656e74206d6179206861766520726576657274656400000000000060648201526084016104e6565b60006117fd826040518060400160405280602081526020017f5361666545524332303a206c6f772d6c6576656c2063616c6c206661696c65648152508573ffffffffffffffffffffffffffffffffffffffff16611a3e9092919063ffffffff16565b905080516000148061181e57508080602001905181019061181e9190612d87565b611214576040517f08c379a000000000000000000000000000000000000000000000000000000000815260206004820152602a60248201527f5361666545524332303a204552433230206f7065726174696f6e20646964206e60448201527f6f7420737563636565640000000000000000000000000000000000000000000060648201526084016104e6565b60608247101561193c576040517f08c379a000000000000000000000000000000000000000000000000000000000815260206004820152602660248201527f416464726573733a20696e73756666696369656e742062616c616e636520666f60448201527f722063616c6c000000000000000000000000000000000000000000000000000060648201526084016104e6565b6000808673ffffffffffffffffffffffffffffffffffffffff1685876040516119659190612da4565b60006040518083038185875af1925050503d80600081146119a2576040519150601f19603f3d011682016040523d82523d6000602084013e6119a7565b606091505b50915091506119b887838387611a4d565b979650505050505050565b60008060006119d28585611aed565b909250905060008160048111156119eb576119eb612db6565b148015611a2357508573ffffffffffffffffffffffffffffffffffffffff168273ffffffffffffffffffffffffffffffffffffffff16145b80611a345750611a34868686611b32565b9695505050505050565b606061123f84846000856118aa565b60608315611ae3578251600003611adc5773ffffffffffffffffffffffffffffffffffffffff85163b611adc576040517f08c379a000000000000000000000000000000000000000000000000000000000815260206004820152601d60248201527f416464726573733a2063616c6c20746f206e6f6e2d636f6e747261637400000060448201526064016104e6565b508161123f565b61123f8383611c8f565b6000808251604103611b235760208301516040840151606085015160001a611b1787828585611cd3565b94509450505050611b2b565b506000905060025b9250929050565b60008060008573ffffffffffffffffffffffffffffffffffffffff16631626ba7e60e01b8686604051602401611b69929190612de5565b604080517fffffffffffffffffffffffffffffffffffffffffffffffffffffffffffffffe08184030181529181526020820180517bffffffffffffffffffffffffffffffffffffffffffffffffffffffff167fffffffff00000000000000000000000000000000000000000000000000000000909416939093179092529051611bf29190612da4565b600060405180830381855afa9150503d8060008114611c2d576040519150601f19603f3d011682016040523d82523d6000602084013e611c32565b606091505b5091509150818015611c4657506020815110155b8015611a34575080517f1626ba7e0000000000000000000000000000000000000000000000000000000090611c849083016020908101908401612d6e565b149695505050505050565b815115611c9f5781518083602001fd5b806040517f08c379a00000000000000000000000000000000000000000000000000000000081526004016104e69190612dfe565b6000807f7fffffffffffffffffffffffffffffff5d576e7357a4501ddfe92f46681b20a0831115611d0a5750600090506003611db9565b6040805160008082526020820180845289905260ff881692820192909252606081018690526080810185905260019060a0016020604051602081039080840390855afa158015611d5e573d6000803e3d6000fd5b50506040517fffffffffffffffffffffffffffffffffffffffffffffffffffffffffffffffe0015191505073ffffffffffffffffffffffffffffffffffffffff8116611db257600060019250925050611db9565b9150600090505b94509492505050565b600060208284031215611dd457600080fd5b81357fffffffff0000000000000000000000000000000000000000000000000000000081168114611e0457600080fd5b9392505050565b73ffffffffffffffffffffffffffffffffffffffff811681146112ba57600080fd5b60008060008060008060a08789031215611e4657600080fd5b8635611e5181611e0b565b95506020870135611e6181611e0b565b94506040870135935060608701359250608087013567ffffffffffffffff80821115611e8c57600080fd5b818901915089601f830112611ea057600080fd5b813581811115611eaf57600080fd5b8a6020828501011115611ec157600080fd5b6020830194508093505050509295509295509295565b7f4e487b7100000000000000000000000000000000000000000000000000000000600052604160045260246000fd5b6040516060810167ffffffffffffffff81118282101715611f2957611f29611ed7565b60405290565b604051601f82017fffffffffffffffffffffffffffffffffffffffffffffffffffffffffffffffe016810167ffffffffffffffff81118282101715611f7657611f76611ed7565b604052919050565b600067ffffffffffffffff821115611f9857611f98611ed7565b50601f017fffffffffffffffffffffffffffffffffffffffffffffffffffffffffffffffe01660200190565b600082601f830112611fd557600080fd5b8135611fe8611fe382611f7e565b611f2f565b818152846020838601011115611ffd57600080fd5b816020850160208301376000918101602001919091529392505050565b60006020828403121561202c57600080fd5b813567ffffffffffffffff81111561204357600080fd5b61123f84828501611fc4565b60006020828403121561206157600080fd5b813567ffffffffffffffff81111561207857600080fd5b820160608185031215611e0457600080fd5b6000806040838503121561209d57600080fd5b823567ffffffffffffffff8111156120b457600080fd5b830160a081860312156120c657600080fd5b946020939093013593505050565b6000806000606084860312156120e957600080fd5b83356120f481611e0b565b9250602084013561210481611e0b565b9150604084013567ffffffffffffffff81111561212057600080fd5b61212c86828701611fc4565b9150509250925092565b60005b83811015612151578181015183820152602001612139565b50506000910152565b600082601f83011261216b57600080fd5b8151612179611fe382611f7e565b81815284602083860101111561218e57600080fd5b61123f826020830160208701612136565b600082601f8301126121b057600080fd5b8151602067ffffffffffffffff8211156121cc576121cc611ed7565b8160051b6121db828201611f2f565b92835284810182019282810190878511156121f557600080fd5b83870192505b848310156119b8578251825291830191908301906121fb565b60006020828403121561222657600080fd5b815167ffffffffffffffff8082111561223e57600080fd5b908301906060828603121561225257600080fd5b61225a611f06565b825161226581611e0b565b815260208301518281111561227957600080fd5b83016060818803121561228b57600080fd5b612293611f06565b815161229e81611e0b565b81526020820151848111156122b257600080fd5b6122be8982850161215a565b6020830152506040820151848111156122d657600080fd5b6122e28982850161219f565b604083015250806020840152505060408301518281111561230257600080fd5b61230e8782860161215a565b60408301525095945050505050565b60008151808452612335816020860160208601612136565b601f017fffffffffffffffffffffffffffffffffffffffffffffffffffffffffffffffe0169290920160200192915050565b600081518084526020808501945080840160005b838110156123975781518752958201959082019060010161237b565b509495945050505050565b600073ffffffffffffffffffffffffffffffffffffffff80851683526040602084015280845116604084015260208401516060808501528181511660a085015260208101519150606060c08501526123fe61010085018361231d565b9150604081015190507fffffffffffffffffffffffffffffffffffffffffffffffffffffffffffffff608483030160e085015261243b8282612367565b91505060408401517fffffffffffffffffffffffffffffffffffffffffffffffffffffffffffffffc0848303016080850152611a34828261231d565b7f4e487b7100000000000000000000000000000000000000000000000000000000600052603260045260246000fd5b6060815260006124b9606083018661231d565b82810360208401526124cb8186612367565b90508281036040840152611a348185612367565b6000806000606084860312156124f457600080fd5b83516124ff81611e0b565b602085015190935061251081611e0b565b604085015190925061252181611e0b565b809150509250925092565b60008083357fffffffffffffffffffffffffffffffffffffffffffffffffffffffffffffffe184360301811261256157600080fd5b83018035915067ffffffffffffffff82111561257c57600080fd5b6020019150600581901b3603821315611b2b57600080fd5b600082357fffffffffffffffffffffffffffffffffffffffffffffffffffffffffffffff818336030181126125c857600080fd5b9190910192915050565b600082357fffffffffffffffffffffffffffffffffffffffffffffffffffffffffffffff218336030181126125c857600080fd5b60008083357fffffffffffffffffffffffffffffffffffffffffffffffffffffffffffffffe184360301811261263b57600080fd5b83018035915067ffffffffffffffff82111561265657600080fd5b6020019150606081023603821315611b2b57600080fd5b60006020828403121561267f57600080fd5b8135611e0481611e0b565b60006080820173ffffffffffffffffffffffffffffffffffffffff87168352602086818501528560408501526080606085015281855180845260a08601915060a08160051b870101935082870160005b82811015612726577fffffffffffffffffffffffffffffffffffffffffffffffffffffffffffffff60888703018452612714868351612367565b955092840192908401906001016126da565b50939a9950505050505050505050565b6000806040838503121561274957600080fd5b825167ffffffffffffffff8082111561276157600080fd5b61276d8683870161219f565b9350602085015191508082111561278357600080fd5b506127908582860161219f565b9150509250929050565b82815260406020820152600061123f6040830184612367565b60008083357fffffffffffffffffffffffffffffffffffffffffffffffffffffffffffffffe18436030181126127e857600080fd5b830160208101925035905067ffffffffffffffff81111561280857600080fd5b8060051b3603821315611b2b57600080fd5b80151581146112ba57600080fd5b60008083357fffffffffffffffffffffffffffffffffffffffffffffffffffffffffffffffe184360301811261285d57600080fd5b830160208101925035905067ffffffffffffffff81111561287d57600080fd5b606081023603821315611b2b57600080fd5b818352600060208085019450826000805b868110156128ff5782356128b381611e0b565b73ffffffffffffffffffffffffffffffffffffffff1688528284013560ff81168082146128de578384fd5b898601525060408381013590890152606097880197909201916001016128a0565b50959695505050505050565b60008083357fffffffffffffffffffffffffffffffffffffffffffffffffffffffffffffffe184360301811261294057600080fd5b830160208101925035905067ffffffffffffffff81111561296057600080fd5b803603821315611b2b57600080fd5b8183528181602085013750600060208284010152600060207fffffffffffffffffffffffffffffffffffffffffffffffffffffffffffffffe0601f840116840101905092915050565b81835260006020808501808196506005915085821b81018560005b88811015612ac9578383038a5281357fffffffffffffffffffffffffffffffffffffffffffffffffffffffffffffffa1893603018112612a1257600080fd5b880160608135612a2181611e0b565b73ffffffffffffffffffffffffffffffffffffffff168552612a45828901836127b3565b828a8801528083880152608092507f07ffffffffffffffffffffffffffffffffffffffffffffffffffffffffffffff811115612a8057600080fd5b881b808288850137860190506040612a9a8482018561290b565b9450838884030182890152612ab2848401868361296f565b9e8b019e97505050938801935050506001016129d3565b509098975050505050505050565b6000602080835260c083018435828501526040828601358186015260608187013581870152612b08818801886127b3565b60a060808981018290529582905260e095868a01600584901b8b0188018560005b86811015612cf3577fffffffffffffffffffffffffffffffffffffffffffffffffffffffffffffff208e840301845281357fffffffffffffffffffffffffffffffffffffffffffffffffffffffffffffff81893603018112612b8a57600080fd5b88018035368290037fffffffffffffffffffffffffffffffffffffffffffffffffffffffffffffff21018112612bbf57600080fd5b86855281018035612bcf81611e0b565b73ffffffffffffffffffffffffffffffffffffffff90811686890152818f013590612bf98261281a565b901515868a0152818d013590612c0e82611e0b565b90811660c0870152818c013590612c2482611e0b565b908116868f01528188013590612c3982611e0b565b16610100860152612c4c81890182612828565b8e610120880152612c626101608801828461288f565b915050612c7260c0830183612828565b92507fffffffffffffffffffffffffffffffffffffffffffffffffffffffffffffff8087830301610140880152612caa82848361288f565b925050508d8201358e8601528b8201358c860152612cca8b8301836127b3565b92508582038c870152612cde8284836129b8565b968f019695505050918c019150600101612b29565b5050612d01838e018e61290b565b9a5098507fffffffffffffffffffffffffffffffffffffffffffffffffffffffffffffffe08c820301848d0152612d39818b8b61296f565b9d9c50505050505050505050505050565b60008060408385031215612d5d57600080fd5b505080516020909101519092909150565b600060208284031215612d8057600080fd5b5051919050565b600060208284031215612d9957600080fd5b8151611e048161281a565b600082516125c8818460208701612136565b7f4e487b7100000000000000000000000000000000000000000000000000000000600052602160045260246000fd5b82815260406020820152600061123f604083018461231d565b602081526000611e04602083018461231d56fe416464726573733a206c6f772d6c6576656c2063616c6c20776974682076616c7565206661696c6564",
    "linkReferences": {}
  },
  "methodIdentifiers": {
    "arb((uint256,uint256,uint256,((address,bool,(address,address,address),(address,uint8,uint256)[],(address,uint8,uint256)[]),uint256,uint256,(address,uint256[],bytes)[])[],bytes),uint256)": "c3b7c7c3",
    "initialize((address,(address,bytes,uint256[]),bytes))": "98da8d6a",
    "initialize(bytes)": "439fab91",
    "onTakeOrders(address,address,uint256,uint256,bytes)": "059bebe6",
    "sI9r()": "71c1dea7",
    "sI9rDispatch()": "89448c3a",
    "sI9rStore()": "61bb39e4",
    "sOrderBook()": "886d1650",
    "supportsInterface(bytes4)": "01ffc9a7"
  },
  "id": 159
}