{"abi":[{"type":"constructor","inputs":[{"name":"config","type":"tuple","internalType":"struct OrderBookV4ArbConfigV1","components":[{"name":"orderBook","type":"address","internalType":"address"},{"name":"evaluable","type":"tuple","internalType":"struct EvaluableV3","components":[{"name":"interpreter","type":"address","internalType":"contract IInterpreterV3"},{"name":"store","type":"address","internalType":"contract IInterpreterStoreV2"},{"name":"bytecode","type":"bytes","internalType":"bytes"}]},{"name":"implementationData","type":"bytes","internalType":"bytes"}]}],"stateMutability":"nonpayable"},{"type":"fallback","stateMutability":"nonpayable"},{"type":"function","name":"arb2","inputs":[{"name":"takeOrders","type":"tuple","internalType":"struct TakeOrdersConfigV3","components":[{"name":"minimumInput","type":"uint256","internalType":"uint256"},{"name":"maximumInput","type":"uint256","internalType":"uint256"},{"name":"maximumIORatio","type":"uint256","internalType":"uint256"},{"name":"orders","type":"tuple[]","internalType":"struct TakeOrderConfigV3[]","components":[{"name":"order","type":"tuple","internalType":"struct OrderV3","components":[{"name":"owner","type":"address","internalType":"address"},{"name":"evaluable","type":"tuple","internalType":"struct EvaluableV3","components":[{"name":"interpreter","type":"address","internalType":"contract IInterpreterV3"},{"name":"store","type":"address","internalType":"contract IInterpreterStoreV2"},{"name":"bytecode","type":"bytes","internalType":"bytes"}]},{"name":"validInputs","type":"tuple[]","internalType":"struct IO[]","components":[{"name":"token","type":"address","internalType":"address"},{"name":"decimals","type":"uint8","internalType":"uint8"},{"name":"vaultId","type":"uint256","internalType":"uint256"}]},{"name":"validOutputs","type":"tuple[]","internalType":"struct IO[]","components":[{"name":"token","type":"address","internalType":"address"},{"name":"decimals","type":"uint8","internalType":"uint8"},{"name":"vaultId","type":"uint256","internalType":"uint256"}]},{"name":"nonce","type":"bytes32","internalType":"bytes32"}]},{"name":"inputIOIndex","type":"uint256","internalType":"uint256"},{"name":"outputIOIndex","type":"uint256","internalType":"uint256"},{"name":"signedContext","type":"tuple[]","internalType":"struct SignedContextV1[]","components":[{"name":"signer","type":"address","internalType":"address"},{"name":"context","type":"uint256[]","internalType":"uint256[]"},{"name":"signature","type":"bytes","internalType":"bytes"}]}]},{"name":"data","type":"bytes","internalType":"bytes"}]},{"name":"minimumSenderOutput","type":"uint256","internalType":"uint256"},{"name":"evaluable","type":"tuple","internalType":"struct EvaluableV3","components":[{"name":"interpreter","type":"address","internalType":"contract IInterpreterV3"},{"name":"store","type":"address","internalType":"contract IInterpreterStoreV2"},{"name":"bytecode","type":"bytes","internalType":"bytes"}]}],"outputs":[],"stateMutability":"payable"},{"type":"function","name":"iEvaluableHash","inputs":[],"outputs":[{"name":"","type":"bytes32","internalType":"bytes32"}],"stateMutability":"view"},{"type":"function","name":"iOrderBook","inputs":[],"outputs":[{"name":"","type":"address","internalType":"contract IOrderBookV4"}],"stateMutability":"view"},{"type":"function","name":"onTakeOrders","inputs":[{"name":"inputToken","type":"address","internalType":"address"},{"name":"outputToken","type":"address","internalType":"address"},{"name":"inputAmountSent","type":"uint256","internalType":"uint256"},{"name":"totalOutputAmount","type":"uint256","internalType":"uint256"},{"name":"takeOrdersData","type":"bytes","internalType":"bytes"}],"outputs":[],"stateMutability":"nonpayable"},{"type":"function","name":"supportsInterface","inputs":[{"name":"interfaceId","type":"bytes4","internalType":"bytes4"}],"outputs":[{"name":"","type":"bool","internalType":"bool"}],"stateMutability":"view"},{"type":"event","name":"Construct","inputs":[{"name":"sender","type":"address","indexed":false,"internalType":"address"},{"name":"config","type":"tuple","indexed":false,"internalType":"struct OrderBookV4ArbConfigV1","components":[{"name":"orderBook","type":"address","internalType":"address"},{"name":"evaluable","type":"tuple","internalType":"struct EvaluableV3","components":[{"name":"interpreter","type":"address","internalType":"contract IInterpreterV3"},{"name":"store","type":"address","internalType":"contract IInterpreterStoreV2"},{"name":"bytecode","type":"bytes","internalType":"bytes"}]},{"name":"implementationData","type":"bytes","internalType":"bytes"}]}],"anonymous":false},{"type":"error","name":"BadLender","inputs":[{"name":"badLender","type":"address","internalType":"address"}]},{"type":"error","name":"InvalidSignature","inputs":[{"name":"i","type":"uint256","internalType":"uint256"}]},{"type":"error","name":"MinimumOutput","inputs":[{"name":"minimum","type":"uint256","internalType":"uint256"},{"name":"actual","type":"uint256","internalType":"uint256"}]},{"type":"error","name":"NoOrders","inputs":[]},{"type":"error","name":"WrongEvaluable","inputs":[]}],"bytecode":{"object":"0x60c060405234801561001057600080fd5b50604051612b63380380612b6383398101604081905261002f916101b5565b600160005580516001600160a01b031660a052604051819081907f2211c44ab42f12a3442a54c6652c8674addb2129fc4ee747e1f8dcfcdce6fd499061007890339084906102d8565b60405180910390a160208101516100a8906040808201519181902060009081528251602093840120909252902090565b60805250610350915050565b634e487b7160e01b600052604160045260246000fd5b604051606081016001600160401b03811182821017156100ec576100ec6100b4565b60405290565b6001600160a01b038116811461010757600080fd5b50565b60005b8381101561012557818101518382015260200161010d565b50506000910152565b600082601f83011261013f57600080fd5b81516001600160401b0380821115610159576101596100b4565b604051601f8301601f19908116603f01168101908282118183101715610181576101816100b4565b8160405283815286602085880101111561019a57600080fd5b6101ab84602083016020890161010a565b9695505050505050565b6000602082840312156101c757600080fd5b81516001600160401b03808211156101de57600080fd5b90830190606082860312156101f257600080fd5b6101fa6100ca565b8251610205816100f2565b815260208301518281111561021957600080fd5b83016060818803121561022b57600080fd5b6102336100ca565b815161023e816100f2565b8152602082015161024e816100f2565b602082015260408201518481111561026557600080fd5b6102718982850161012e565b604083015250806020840152505060408301518281111561029157600080fd5b61029d8782860161012e565b60408301525095945050505050565b600081518084526102c481602086016020860161010a565b601f01601f19169290920160200192915050565b600060018060a01b0380851683526040602084015280845116604084015260208401516060808501528181511660a08501528160208201511660c08501526040810151915050606060e08401526103336101008401826102ac565b90506040840151603f198483030160808501526101ab82826102ac565b60805160a0516127c561039e60003960008181610111015281816107a7015281816107e901528181610833015281816108ed0152610b0801526000818160cf015261033601526127c56000f3fe60806040526004361061005a5760003560e01c80637b40155e116100435780637b40155e146100bd5780638df8ee11146100ff578063f89d8659146101585761005a565b806301ffc9a714610068578063059bebe61461009d575b34801561006657600080fd5b005b34801561007457600080fd5b506100886100833660046118f1565b61016b565b60405190151581526020015b60405180910390f35b3480156100a957600080fd5b506100666100b836600461195f565b610250565b3480156100c957600080fd5b506100f17f000000000000000000000000000000000000000000000000000000000000000081565b604051908152602001610094565b34801561010b57600080fd5b506101337f000000000000000000000000000000000000000000000000000000000000000081565b60405173ffffffffffffffffffffffffffffffffffffffff9091168152602001610094565b610066610166366004611a09565b61032b565b60007fffffffff0000000000000000000000000000000000000000000000000000000082167f059bebe60000000000000000000000000000000000000000000000000000000014806101fe57507fffffffff0000000000000000000000000000000000000000000000000000000082167ff89d865900000000000000000000000000000000000000000000000000000000145b8061024a57507f01ffc9a7000000000000000000000000000000000000000000000000000000007fffffffff000000000000000000000000000000000000000000000000000000008316145b92915050565b61025e868686868686610af0565b6000808061026e84860186611b91565b9194509250905061029773ffffffffffffffffffffffffffffffffffffffff8a16846000610b69565b6102d873ffffffffffffffffffffffffffffffffffffffff8a16847fffffffffffffffffffffffffffffffffffffffffffffffffffffffffffffffff610b69565b60006102fb73ffffffffffffffffffffffffffffffffffffffff84168347610d69565b905061031f73ffffffffffffffffffffffffffffffffffffffff8b16856000610b69565b50505050505050505050565b610333610d97565b807f000000000000000000000000000000000000000000000000000000000000000061038061036183611bf3565b6040808201519181902060009081528251602093840120909252902090565b146103b7576040517f4c30975700000000000000000000000000000000000000000000000000000000815260040160405180910390fd5b60006103c66040830183611c7f565b905011156105f9576000806103de6020840184611ce4565b73ffffffffffffffffffffffffffffffffffffffff1663d6e3357a6104096040860160208701611ce4565b600080805230602052604090206104236040880188611c7f565b604080516000808252602082019092526104bc9082610452565b606081526020019060019003908161043d5790505b5060408051600080825260208201909252906104b6565b6104a36040518060600160405280600073ffffffffffffffffffffffffffffffffffffffff16815260200160608152602001606081525090565b8152602001906001900390816104695790505b50610e0a565b604080516000815260208101918290527fffffffff0000000000000000000000000000000000000000000000000000000060e08a901b169091526105099695949392919060248101611d86565b600060405180830381865afa158015610526573d6000803e3d6000fd5b505050506040513d6000823e601f3d9081017fffffffffffffffffffffffffffffffffffffffffffffffffffffffffffffffe016820160405261056c9190810190611ef2565b80519193509150156105f6576105886040840160208501611ce4565b73ffffffffffffffffffffffffffffffffffffffff1663946aadc66000836040518363ffffffff1660e01b81526004016105c3929190611f56565b600060405180830381600087803b1580156105dd57600080fd5b505af11580156105f1573d6000803e3d6000fd5b505050505b50505b6106066060850185611f6f565b9050600003610641576040517f9c95219f00000000000000000000000000000000000000000000000000000000815260040160405180910390fd5b60006106506060860186611f6f565b600081811061066157610661611fd7565b90506020028101906106739190612006565b61067d9080612044565b61068b906040810190612078565b6106986060880188611f6f565b60008181106106a9576106a9611fd7565b90506020028101906106bb9190612006565b602001358181106106ce576106ce611fd7565b6106e49260206060909202019081019150611ce4565b905060006106f56060870187611f6f565b600081811061070657610706611fd7565b90506020028101906107189190612006565b6107229080612044565b610730906060810190612078565b61073d6060890189611f6f565b600081811061074e5761074e611fd7565b90506020028101906107609190612006565b6040013581811061077357610773611fd7565b6107899260206060909202019081019150611ce4565b90506107cd73ffffffffffffffffffffffffffffffffffffffff83167f00000000000000000000000000000000000000000000000000000000000000006000610b69565b61082e73ffffffffffffffffffffffffffffffffffffffff83167f00000000000000000000000000000000000000000000000000000000000000007fffffffffffffffffffffffffffffffffffffffffffffffffffffffffffffffff610b69565b6000807f000000000000000000000000000000000000000000000000000000000000000073ffffffffffffffffffffffffffffffffffffffff16630997c4a0896040518263ffffffff1660e01b815260040161088a91906123df565b60408051808303816000875af11580156108a8573d6000803e3d6000fd5b505050506040513d601f19601f820116820180604052508101906108cc9190612661565b909250905061091373ffffffffffffffffffffffffffffffffffffffff85167f00000000000000000000000000000000000000000000000000000000000000006000610b69565b6040517f70a0823100000000000000000000000000000000000000000000000000000000815230600482015260009073ffffffffffffffffffffffffffffffffffffffff8616906370a0823190602401602060405180830381865afa158015610980573d6000803e3d6000fd5b505050506040513d601f19601f820116820180604052508101906109a49190612685565b9050878110156109ef576040517f0c08b5bc00000000000000000000000000000000000000000000000000000000815260048101899052602481018290526044015b60405180910390fd5b8015610a1657610a1673ffffffffffffffffffffffffffffffffffffffff8616338361111a565b6040517f70a0823100000000000000000000000000000000000000000000000000000000815230600482015260009073ffffffffffffffffffffffffffffffffffffffff8616906370a0823190602401602060405180830381865afa158015610a83573d6000803e3d6000fd5b505050506040513d601f19601f82011682018060405250810190610aa79190612685565b90508015610ad057610ad073ffffffffffffffffffffffffffffffffffffffff8616338361111a565b610ada3347611170565b50505050505050610aeb6001600055565b505050565b3373ffffffffffffffffffffffffffffffffffffffff7f00000000000000000000000000000000000000000000000000000000000000001614610b61576040517f0bc3cde00000000000000000000000000000000000000000000000000000000081523360048201526024016109e6565b505050505050565b801580610c0957506040517fdd62ed3e00000000000000000000000000000000000000000000000000000000815230600482015273ffffffffffffffffffffffffffffffffffffffff838116602483015284169063dd62ed3e90604401602060405180830381865afa158015610be3573d6000803e3d6000fd5b505050506040513d601f19601f82011682018060405250810190610c079190612685565b155b610c95576040517f08c379a000000000000000000000000000000000000000000000000000000000815260206004820152603660248201527f5361666545524332303a20617070726f76652066726f6d206e6f6e2d7a65726f60448201527f20746f206e6f6e2d7a65726f20616c6c6f77616e63650000000000000000000060648201526084016109e6565b60405173ffffffffffffffffffffffffffffffffffffffff8316602482015260448101829052610aeb9084907f095ea7b300000000000000000000000000000000000000000000000000000000906064015b604080517fffffffffffffffffffffffffffffffffffffffffffffffffffffffffffffffe08184030181529190526020810180517bffffffffffffffffffffffffffffffffffffffffffffffffffffffff167fffffffff00000000000000000000000000000000000000000000000000000000909316929092179091526112ca565b6060610d8f84848460405180606001604052806029815260200161279c602991396113d9565b949350505050565b600260005403610e03576040517f08c379a000000000000000000000000000000000000000000000000000000000815260206004820152601f60248201527f5265656e7472616e637947756172643a207265656e7472616e742063616c6c0060448201526064016109e6565b6002600055565b60606000825167ffffffffffffffff811115610e2857610e28611a85565b604051908082528060200260200182016040528015610e51578160200160208202803683370190505b509050600080845111610e65576000610e6b565b83516001015b855160010101905060008167ffffffffffffffff811115610e8e57610e8e611a85565b604051908082528060200260200182016040528015610ec157816020015b6060815260200190600190039081610eac5790505b5090506000610ee6604080516002815233602082015230818301526060810190915290565b828281518110610ef857610ef8611fd7565b602002602001018190525060005b8751811015610f56578180600101925050878181518110610f2957610f29611fd7565b6020026020010151838381518110610f4357610f43611fd7565b6020908102919091010152600101610f06565b5085511561111057808060010191505083828281518110610f7957610f79611fd7565b602002602001018190525060005b865181101561110e57611038878281518110610fa557610fa5611fd7565b602002602001015160000151611015610fe28a8581518110610fc957610fc9611fd7565b6020026020010151602001518051602090810291012090565b7f19457468657265756d205369676e6564204d6573736167653a0a3332000000006000908152601c91909152603c902090565b89848151811061102757611027611fd7565b6020026020010151604001516114f2565b611071576040517f52bf9848000000000000000000000000000000000000000000000000000000008152600481018290526024016109e6565b86818151811061108357611083611fd7565b60200260200101516000015173ffffffffffffffffffffffffffffffffffffffff168582815181106110b7576110b7611fd7565b60200260200101818152505081806001019250508681815181106110dd576110dd611fd7565b6020026020010151602001518383815181106110fb576110fb611fd7565b6020908102919091010152600101610f87565b505b5095945050505050565b60405173ffffffffffffffffffffffffffffffffffffffff8316602482015260448101829052610aeb9084907fa9059cbb0000000000000000000000000000000000000000000000000000000090606401610ce7565b804710156111da576040517f08c379a000000000000000000000000000000000000000000000000000000000815260206004820152601d60248201527f416464726573733a20696e73756666696369656e742062616c616e636500000060448201526064016109e6565b60008273ffffffffffffffffffffffffffffffffffffffff168260405160006040518083038185875af1925050503d8060008114611234576040519150601f19603f3d011682016040523d82523d6000602084013e611239565b606091505b5050905080610aeb576040517f08c379a000000000000000000000000000000000000000000000000000000000815260206004820152603a60248201527f416464726573733a20756e61626c6520746f2073656e642076616c75652c207260448201527f6563697069656e74206d6179206861766520726576657274656400000000000060648201526084016109e6565b600061132c826040518060400160405280602081526020017f5361666545524332303a206c6f772d6c6576656c2063616c6c206661696c65648152508573ffffffffffffffffffffffffffffffffffffffff1661156d9092919063ffffffff16565b905080516000148061134d57508080602001905181019061134d919061269e565b610aeb576040517f08c379a000000000000000000000000000000000000000000000000000000000815260206004820152602a60248201527f5361666545524332303a204552433230206f7065726174696f6e20646964206e60448201527f6f7420737563636565640000000000000000000000000000000000000000000060648201526084016109e6565b60608247101561146b576040517f08c379a000000000000000000000000000000000000000000000000000000000815260206004820152602660248201527f416464726573733a20696e73756666696369656e742062616c616e636520666f60448201527f722063616c6c000000000000000000000000000000000000000000000000000060648201526084016109e6565b6000808673ffffffffffffffffffffffffffffffffffffffff16858760405161149491906126e4565b60006040518083038185875af1925050503d80600081146114d1576040519150601f19603f3d011682016040523d82523d6000602084013e6114d6565b606091505b50915091506114e78783838761157c565b979650505050505050565b6000806000611501858561161c565b9092509050600081600481111561151a5761151a6126f6565b14801561155257508573ffffffffffffffffffffffffffffffffffffffff168273ffffffffffffffffffffffffffffffffffffffff16145b806115635750611563868686611661565b9695505050505050565b6060610d8f84846000856113d9565b6060831561161257825160000361160b5773ffffffffffffffffffffffffffffffffffffffff85163b61160b576040517f08c379a000000000000000000000000000000000000000000000000000000000815260206004820152601d60248201527f416464726573733a2063616c6c20746f206e6f6e2d636f6e747261637400000060448201526064016109e6565b5081610d8f565b610d8f83836117be565b60008082516041036116525760208301516040840151606085015160001a61164687828585611802565b9450945050505061165a565b506000905060025b9250929050565b60008060008573ffffffffffffffffffffffffffffffffffffffff16631626ba7e60e01b868660405160240161169892919061276f565b604080517fffffffffffffffffffffffffffffffffffffffffffffffffffffffffffffffe08184030181529181526020820180517bffffffffffffffffffffffffffffffffffffffffffffffffffffffff167fffffffff0000000000000000000000000000000000000000000000000000000090941693909317909252905161172191906126e4565b600060405180830381855afa9150503d806000811461175c576040519150601f19603f3d011682016040523d82523d6000602084013e611761565b606091505b509150915081801561177557506020815110155b8015611563575080517f1626ba7e00000000000000000000000000000000000000000000000000000000906117b39083016020908101908401612685565b149695505050505050565b8151156117ce5781518083602001fd5b806040517f08c379a00000000000000000000000000000000000000000000000000000000081526004016109e69190612788565b6000807f7fffffffffffffffffffffffffffffff5d576e7357a4501ddfe92f46681b20a083111561183957506000905060036118e8565b6040805160008082526020820180845289905260ff881692820192909252606081018690526080810185905260019060a0016020604051602081039080840390855afa15801561188d573d6000803e3d6000fd5b50506040517fffffffffffffffffffffffffffffffffffffffffffffffffffffffffffffffe0015191505073ffffffffffffffffffffffffffffffffffffffff81166118e1576000600192509250506118e8565b9150600090505b94509492505050565b60006020828403121561190357600080fd5b81357fffffffff000000000000000000000000000000000000000000000000000000008116811461193357600080fd5b9392505050565b73ffffffffffffffffffffffffffffffffffffffff8116811461195c57600080fd5b50565b60008060008060008060a0878903121561197857600080fd5b86356119838161193a565b955060208701356119938161193a565b94506040870135935060608701359250608087013567ffffffffffffffff808211156119be57600080fd5b818901915089601f8301126119d257600080fd5b8135818111156119e157600080fd5b8a60208285010111156119f357600080fd5b6020830194508093505050509295509295509295565b600080600060608486031215611a1e57600080fd5b833567ffffffffffffffff80821115611a3657600080fd5b9085019060a08288031215611a4a57600080fd5b9093506020850135925060408501359080821115611a6757600080fd5b50840160608187031215611a7a57600080fd5b809150509250925092565b7f4e487b7100000000000000000000000000000000000000000000000000000000600052604160045260246000fd5b604051601f82017fffffffffffffffffffffffffffffffffffffffffffffffffffffffffffffffe016810167ffffffffffffffff81118282101715611afb57611afb611a85565b604052919050565b600082601f830112611b1457600080fd5b813567ffffffffffffffff811115611b2e57611b2e611a85565b611b5f60207fffffffffffffffffffffffffffffffffffffffffffffffffffffffffffffffe0601f84011601611ab4565b818152846020838601011115611b7457600080fd5b816020850160208301376000918101602001919091529392505050565b600080600060608486031215611ba657600080fd5b8335611bb18161193a565b92506020840135611bc18161193a565b9150604084013567ffffffffffffffff811115611bdd57600080fd5b611be986828701611b03565b9150509250925092565b600060608236031215611c0557600080fd5b6040516060810167ffffffffffffffff8282108183111715611c2957611c29611a85565b8160405284359150611c3a8261193a565b908252602084013590611c4c8261193a565b8160208401526040850135915080821115611c6657600080fd5b50611c7336828601611b03565b60408301525092915050565b60008083357fffffffffffffffffffffffffffffffffffffffffffffffffffffffffffffffe1843603018112611cb457600080fd5b83018035915067ffffffffffffffff821115611ccf57600080fd5b60200191503681900382131561165a57600080fd5b600060208284031215611cf657600080fd5b81356119338161193a565b8183528181602085013750600060208284010152600060207fffffffffffffffffffffffffffffffffffffffffffffffffffffffffffffffe0601f840116840101905092915050565b60008151808452602080850194506020840160005b83811015611d7b57815187529582019590820190600101611d5f565b509495945050505050565b73ffffffffffffffffffffffffffffffffffffffff8816815260006020888184015260c06040840152611dbd60c08401888a611d01565b86606085015283810360808501528086518083528383019150838160051b8401018489016000805b84811015611e56578684037fffffffffffffffffffffffffffffffffffffffffffffffffffffffffffffffe0018652825180518086529089019089860190845b81811015611e415783518352928b0192918b0191600101611e25565b50509689019694505091870191600101611de5565b50505086810360a0880152611e6b8189611d4a565b9e9d5050505050505050505050505050565b600082601f830112611e8e57600080fd5b8151602067ffffffffffffffff821115611eaa57611eaa611a85565b8160051b611eb9828201611ab4565b9283528481018201928281019087851115611ed357600080fd5b83870192505b848310156114e757825182529183019190830190611ed9565b60008060408385031215611f0557600080fd5b825167ffffffffffffffff80821115611f1d57600080fd5b611f2986838701611e7d565b93506020850151915080821115611f3f57600080fd5b50611f4c85828601611e7d565b9150509250929050565b828152604060208201526000610d8f6040830184611d4a565b60008083357fffffffffffffffffffffffffffffffffffffffffffffffffffffffffffffffe1843603018112611fa457600080fd5b83018035915067ffffffffffffffff821115611fbf57600080fd5b6020019150600581901b360382131561165a57600080fd5b7f4e487b7100000000000000000000000000000000000000000000000000000000600052603260045260246000fd5b600082357fffffffffffffffffffffffffffffffffffffffffffffffffffffffffffffff8183360301811261203a57600080fd5b9190910192915050565b600082357fffffffffffffffffffffffffffffffffffffffffffffffffffffffffffffff6183360301811261203a57600080fd5b60008083357fffffffffffffffffffffffffffffffffffffffffffffffffffffffffffffffe18436030181126120ad57600080fd5b83018035915067ffffffffffffffff8211156120c857600080fd5b602001915060608102360382131561165a57600080fd5b60008083357fffffffffffffffffffffffffffffffffffffffffffffffffffffffffffffffe184360301811261211457600080fd5b830160208101925035905067ffffffffffffffff81111561213457600080fd5b8060051b360382131561165a57600080fd5b600082357fffffffffffffffffffffffffffffffffffffffffffffffffffffffffffffffa183360301811261217a57600080fd5b90910192915050565b60008083357fffffffffffffffffffffffffffffffffffffffffffffffffffffffffffffffe18436030181126121b857600080fd5b830160208101925035905067ffffffffffffffff8111156121d857600080fd5b80360382131561165a57600080fd5b60008083357fffffffffffffffffffffffffffffffffffffffffffffffffffffffffffffffe184360301811261221c57600080fd5b830160208101925035905067ffffffffffffffff81111561223c57600080fd5b60608102360382131561165a57600080fd5b818352600060208085019450826000805b868110156122be5782356122728161193a565b73ffffffffffffffffffffffffffffffffffffffff1688528284013560ff811680821461229d578384fd5b8986015250604083810135908901526060978801979092019160010161225f565b50959695505050505050565b818352602080840193600091600585811b830182018585805b898110156123d0577fffffffffffffffffffffffffffffffffffffffffffffffffffffffffffffffe0878503018b5261231c838a612146565b606081356123298161193a565b73ffffffffffffffffffffffffffffffffffffffff16865261234d828901836120df565b828a8901528083890152608092507f07ffffffffffffffffffffffffffffffffffffffffffffffffffffffffffffff811115612387578586fd5b881b8082898501378701905060406123a184820185612183565b94508389840301828a01526123b98484018683611d01565b9f8b019f98505050948801945050506001016122e3565b50919998505050505050505050565b6000602080835260c083018435828501526040828601358186015260608187013581870152612410818801886120df565b60a060808901528481865260e08901905060e08260051b8a010195508260005b83811015612616577fffffffffffffffffffffffffffffffffffffffffffffffffffffffffffffff208b890301835281357fffffffffffffffffffffffffffffffffffffffffffffffffffffffffffffff8186360301811261249157600080fd5b85018035368290037fffffffffffffffffffffffffffffffffffffffffffffffffffffffffffffff610181126124c657600080fd5b60808a52810180356124d78161193a565b73ffffffffffffffffffffffffffffffffffffffff80821660808d01526125008d840184612146565b915060a0808d015281356125138161193a565b81166101208d0152818d01356125288161193a565b166101408c015261253b818b0182612183565b9150896101608d01526125536101808d018383611d01565b9150506125628a8301836121e7565b7fffffffffffffffffffffffffffffffffffffffffffffffffffffffffffffff80808e85030160c08f015261259884838561224e565b93506125a68c8601866121e7565b93509150808e85030160e08f0152506125c083838361224e565b9250505060808201356101008c01528b8301358c8c0152898301358a8c01526125eb898401846120df565b935091508a8103898c01526126018184846122ca565b9a505050928901925090880190600101612430565b5050505050505061262a6080860186612183565b92507fffffffffffffffffffffffffffffffffffffffffffffffffffffffffffffffe08583030160a0860152611563828483611d01565b6000806040838503121561267457600080fd5b505080516020909101519092909150565b60006020828403121561269757600080fd5b5051919050565b6000602082840312156126b057600080fd5b8151801515811461193357600080fd5b60005b838110156126db5781810151838201526020016126c3565b50506000910152565b6000825161203a8184602087016126c0565b7f4e487b7100000000000000000000000000000000000000000000000000000000600052602160045260246000fd5b6000815180845261273d8160208601602086016126c0565b601f017fffffffffffffffffffffffffffffffffffffffffffffffffffffffffffffffe0169290920160200192915050565b828152604060208201526000610d8f6040830184612725565b602081526000611933602083018461272556fe416464726573733a206c6f772d6c6576656c2063616c6c20776974682076616c7565206661696c6564","linkReferences":{}},"methodIdentifiers":{"arb2((uint256,uint256,uint256,((address,(address,address,bytes),(address,uint8,uint256)[],(address,uint8,uint256)[],bytes32),uint256,uint256,(address,uint256[],bytes)[])[],bytes),uint256,(address,address,bytes))":"f89d8659","iEvaluableHash()":"7b40155e","iOrderBook()":"8df8ee11","onTakeOrders(address,address,uint256,uint256,bytes)":"059bebe6","supportsInterface(bytes4)":"01ffc9a7"},"id":374}