{"abi":[{"type":"constructor","inputs":[{"name":"config","type":"tuple","internalType":"struct OrderBookV4ArbConfigV1","components":[{"name":"orderBook","type":"address","internalType":"address"},{"name":"evaluable","type":"tuple","internalType":"struct EvaluableV3","components":[{"name":"interpreter","type":"address","internalType":"contract IInterpreterV3"},{"name":"store","type":"address","internalType":"contract IInterpreterStoreV2"},{"name":"bytecode","type":"bytes","internalType":"bytes"}]},{"name":"implementationData","type":"bytes","internalType":"bytes"}]}],"stateMutability":"nonpayable"},{"type":"fallback","stateMutability":"nonpayable"},{"type":"function","name":"arb2","inputs":[{"name":"takeOrders","type":"tuple","internalType":"struct TakeOrdersConfigV3","components":[{"name":"minimumInput","type":"uint256","internalType":"uint256"},{"name":"maximumInput","type":"uint256","internalType":"uint256"},{"name":"maximumIORatio","type":"uint256","internalType":"uint256"},{"name":"orders","type":"tuple[]","internalType":"struct TakeOrderConfigV3[]","components":[{"name":"order","type":"tuple","internalType":"struct OrderV3","components":[{"name":"owner","type":"address","internalType":"address"},{"name":"evaluable","type":"tuple","internalType":"struct EvaluableV3","components":[{"name":"interpreter","type":"address","internalType":"contract IInterpreterV3"},{"name":"store","type":"address","internalType":"contract IInterpreterStoreV2"},{"name":"bytecode","type":"bytes","internalType":"bytes"}]},{"name":"validInputs","type":"tuple[]","internalType":"struct IO[]","components":[{"name":"token","type":"address","internalType":"address"},{"name":"decimals","type":"uint8","internalType":"uint8"},{"name":"vaultId","type":"uint256","internalType":"uint256"}]},{"name":"validOutputs","type":"tuple[]","internalType":"struct IO[]","components":[{"name":"token","type":"address","internalType":"address"},{"name":"decimals","type":"uint8","internalType":"uint8"},{"name":"vaultId","type":"uint256","internalType":"uint256"}]},{"name":"nonce","type":"bytes32","internalType":"bytes32"}]},{"name":"inputIOIndex","type":"uint256","internalType":"uint256"},{"name":"outputIOIndex","type":"uint256","internalType":"uint256"},{"name":"signedContext","type":"tuple[]","internalType":"struct SignedContextV1[]","components":[{"name":"signer","type":"address","internalType":"address"},{"name":"context","type":"uint256[]","internalType":"uint256[]"},{"name":"signature","type":"bytes","internalType":"bytes"}]}]},{"name":"data","type":"bytes","internalType":"bytes"}]},{"name":"minimumSenderOutput","type":"uint256","internalType":"uint256"},{"name":"exchangeData","type":"bytes","internalType":"bytes"},{"name":"evaluable","type":"tuple","internalType":"struct EvaluableV3","components":[{"name":"interpreter","type":"address","internalType":"contract IInterpreterV3"},{"name":"store","type":"address","internalType":"contract IInterpreterStoreV2"},{"name":"bytecode","type":"bytes","internalType":"bytes"}]}],"outputs":[],"stateMutability":"payable"},{"type":"function","name":"iEvaluableHash","inputs":[],"outputs":[{"name":"","type":"bytes32","internalType":"bytes32"}],"stateMutability":"view"},{"type":"function","name":"iOrderBook","inputs":[],"outputs":[{"name":"","type":"address","internalType":"contract IOrderBookV4"}],"stateMutability":"view"},{"type":"function","name":"onFlashLoan","inputs":[{"name":"initiator","type":"address","internalType":"address"},{"name":"","type":"address","internalType":"address"},{"name":"","type":"uint256","internalType":"uint256"},{"name":"","type":"uint256","internalType":"uint256"},{"name":"data","type":"bytes","internalType":"bytes"}],"outputs":[{"name":"","type":"bytes32","internalType":"bytes32"}],"stateMutability":"nonpayable"},{"type":"function","name":"supportsInterface","inputs":[{"name":"interfaceId","type":"bytes4","internalType":"bytes4"}],"outputs":[{"name":"","type":"bool","internalType":"bool"}],"stateMutability":"view"},{"type":"event","name":"Construct","inputs":[{"name":"sender","type":"address","indexed":false,"internalType":"address"},{"name":"config","type":"tuple","indexed":false,"internalType":"struct OrderBookV4ArbConfigV1","components":[{"name":"orderBook","type":"address","internalType":"address"},{"name":"evaluable","type":"tuple","internalType":"struct EvaluableV3","components":[{"name":"interpreter","type":"address","internalType":"contract IInterpreterV3"},{"name":"store","type":"address","internalType":"contract IInterpreterStoreV2"},{"name":"bytecode","type":"bytes","internalType":"bytes"}]},{"name":"implementationData","type":"bytes","internalType":"bytes"}]}],"anonymous":false},{"type":"error","name":"BadInitiator","inputs":[{"name":"badInitiator","type":"address","internalType":"address"}]},{"type":"error","name":"BadLender","inputs":[{"name":"badLender","type":"address","internalType":"address"}]},{"type":"error","name":"FlashLoanFailed","inputs":[]},{"type":"error","name":"InvalidSignature","inputs":[{"name":"i","type":"uint256","internalType":"uint256"}]},{"type":"error","name":"MinimumOutput","inputs":[{"name":"minimum","type":"uint256","internalType":"uint256"},{"name":"actual","type":"uint256","internalType":"uint256"}]},{"type":"error","name":"NoOrders","inputs":[]},{"type":"error","name":"WrongEvaluable","inputs":[]}],"bytecode":{"object":"0x60c060405234801561001057600080fd5b5060405161363b38038061363b83398101604081905261002f916101b5565b600160005580516001600160a01b031660a052604051819081907f2211c44ab42f12a3442a54c6652c8674addb2129fc4ee747e1f8dcfcdce6fd499061007890339084906102d8565b60405180910390a160208101516100a8906040808201519181902060009081528251602093840120909252902090565b60805250610350915050565b634e487b7160e01b600052604160045260246000fd5b604051606081016001600160401b03811182821017156100ec576100ec6100b4565b60405290565b6001600160a01b038116811461010757600080fd5b50565b60005b8381101561012557818101518382015260200161010d565b50506000910152565b600082601f83011261013f57600080fd5b81516001600160401b0380821115610159576101596100b4565b604051601f8301601f19908116603f01168101908282118183101715610181576101816100b4565b8160405283815286602085880101111561019a57600080fd5b6101ab84602083016020890161010a565b9695505050505050565b6000602082840312156101c757600080fd5b81516001600160401b03808211156101de57600080fd5b90830190606082860312156101f257600080fd5b6101fa6100ca565b8251610205816100f2565b815260208301518281111561021957600080fd5b83016060818803121561022b57600080fd5b6102336100ca565b815161023e816100f2565b8152602082015161024e816100f2565b602082015260408201518481111561026557600080fd5b6102718982850161012e565b604083015250806020840152505060408301518281111561029157600080fd5b61029d8782860161012e565b60408301525095945050505050565b600081518084526102c481602086016020860161010a565b601f01601f19169290920160200192915050565b600060018060a01b0380851683526040602084015280845116604084015260208401516060808501528181511660a08501528160208201511660c08501526040810151915050606060e08401526103336101008401826102ac565b90506040840151603f198483030160808501526101ab82826102ac565b60805160a0516132966103a5600039600081816101240152818161021e0152818161030501528181610895015281816108d7015281816109590152610a2901526000818160dd01526103db01526132966000f3fe60806040526004361061005a5760003560e01c80637b40155e116100435780637b40155e146100cb5780637ea87bc7146100ff5780638df8ee11146101125761005a565b806301ffc9a71461006857806323e30c8b1461009d575b34801561006657600080fd5b005b34801561007457600080fd5b50610088610083366004611af2565b61016b565b60405190151581526020015b60405180910390f35b3480156100a957600080fd5b506100bd6100b8366004611bb2565b610204565b604051908152602001610094565b3480156100d757600080fd5b506100bd7f000000000000000000000000000000000000000000000000000000000000000081565b61006661010d366004611c2e565b6103d0565b34801561011e57600080fd5b506101467f000000000000000000000000000000000000000000000000000000000000000081565b60405173ffffffffffffffffffffffffffffffffffffffff9091168152602001610094565b60007fffffffff0000000000000000000000000000000000000000000000000000000082167f23e30c8b0000000000000000000000000000000000000000000000000000000014806101fe57507f01ffc9a7000000000000000000000000000000000000000000000000000000007fffffffff000000000000000000000000000000000000000000000000000000008316145b92915050565b60003373ffffffffffffffffffffffffffffffffffffffff7f0000000000000000000000000000000000000000000000000000000000000000161461027c576040517f0bc3cde00000000000000000000000000000000000000000000000000000000081523360048201526024015b60405180910390fd5b73ffffffffffffffffffffffffffffffffffffffff871630146102e3576040517f8b1f7c6400000000000000000000000000000000000000000000000000000000815273ffffffffffffffffffffffffffffffffffffffff88166004820152602401610273565b6000806102f284860186612115565b915091506103008282610c29565b6000807f000000000000000000000000000000000000000000000000000000000000000073ffffffffffffffffffffffffffffffffffffffff16630997c4a0856040518263ffffffff1660e01b815260040161035c9190612570565b60408051808303816000875af115801561037a573d6000803e3d6000fd5b505050506040513d601f19601f8201168201806040525081019061039e919061274a565b507f439148f0bbc682ca079e46d6e2c2f0c1e3b820f1a291b069d8882abf8cf18dd99c9b505050505050505050505050565b6103d8610d65565b807f00000000000000000000000000000000000000000000000000000000000000006104256104068361276e565b6040808201519181902060009081528251602093840120909252902090565b1461045c576040517f4c30975700000000000000000000000000000000000000000000000000000000815260040160405180910390fd5b600061046b604083018361277a565b9050111561069e5760008061048360208401846127df565b73ffffffffffffffffffffffffffffffffffffffff1663d6e3357a6104ae60408601602087016127df565b600080805230602052604090206104c8604088018861277a565b6040805160008082526020820190925261056190826104f7565b60608152602001906001900390816104e25790505b50604080516000808252602082019092529061055b565b6105486040518060600160405280600073ffffffffffffffffffffffffffffffffffffffff16815260200160608152602001606081525090565b81526020019060019003908161050e5790505b50610dd8565b604080516000815260208101918290527fffffffff0000000000000000000000000000000000000000000000000000000060e08a901b169091526105ae9695949392919060248101612845565b600060405180830381865afa1580156105cb573d6000803e3d6000fd5b505050506040513d6000823e601f3d9081017fffffffffffffffffffffffffffffffffffffffffffffffffffffffffffffffe01682016040526106119190810190612974565b805191935091501561069b5761062d60408401602085016127df565b73ffffffffffffffffffffffffffffffffffffffff1663946aadc66000836040518363ffffffff1660e01b81526004016106689291906129d8565b600060405180830381600087803b15801561068257600080fd5b505af1158015610696573d6000803e3d6000fd5b505050505b50505b6106ab60608701876129f1565b90506000036106e6576040517f9c95219f00000000000000000000000000000000000000000000000000000000815260040160405180910390fd5b60008685856040516020016106fd93929190612d46565b604080517fffffffffffffffffffffffffffffffffffffffffffffffffffffffffffffffe08184030181529190529050600061073c60608901896129f1565b600081811061074d5761074d612fdd565b905060200281019061075f919061300c565b610769908061304a565b61077790606081019061307e565b61078460608b018b6129f1565b600081811061079557610795612fdd565b90506020028101906107a7919061300c565b604001358181106107ba576107ba612fdd565b6107d092602060609092020190810191506127df565b905060006107e160608a018a6129f1565b60008181106107f2576107f2612fdd565b9050602002810190610804919061300c565b61080e908061304a565b61081c90604081019061307e565b61082960608c018c6129f1565b600081811061083a5761083a612fdd565b905060200281019061084c919061300c565b6020013581811061085f5761085f612fdd565b61087592602060609092020190810191506127df565b905088356108bb73ffffffffffffffffffffffffffffffffffffffff83167f000000000000000000000000000000000000000000000000000000000000000060006110e8565b61091c73ffffffffffffffffffffffffffffffffffffffff83167f00000000000000000000000000000000000000000000000000000000000000007fffffffffffffffffffffffffffffffffffffffffffffffffffffffffffffffff6110e8565b6040517f5cffe9de00000000000000000000000000000000000000000000000000000000815273ffffffffffffffffffffffffffffffffffffffff7f00000000000000000000000000000000000000000000000000000000000000001690635cffe9de90610994903090879086908a906004016130e5565b6020604051808303816000875af11580156109b3573d6000803e3d6000fd5b505050506040513d601f19601f820116820180604052508101906109d79190613124565b610a0d576040517f92111eb200000000000000000000000000000000000000000000000000000000815260040160405180910390fd5b610a4f73ffffffffffffffffffffffffffffffffffffffff83167f000000000000000000000000000000000000000000000000000000000000000060006110e8565b6040517f70a0823100000000000000000000000000000000000000000000000000000000815230600482015260009073ffffffffffffffffffffffffffffffffffffffff8416906370a0823190602401602060405180830381865afa158015610abc573d6000803e3d6000fd5b505050506040513d601f19601f82011682018060405250810190610ae09190613146565b905089811015610b26576040517f0c08b5bc000000000000000000000000000000000000000000000000000000008152600481018b905260248101829052604401610273565b8015610b4d57610b4d73ffffffffffffffffffffffffffffffffffffffff841633836112ed565b6040517f70a0823100000000000000000000000000000000000000000000000000000000815230600482015260009073ffffffffffffffffffffffffffffffffffffffff8616906370a0823190602401602060405180830381865afa158015610bba573d6000803e3d6000fd5b505050506040513d601f19601f82011682018060405250810190610bde9190613146565b90508015610c0757610c0773ffffffffffffffffffffffffffffffffffffffff861633836112ed565b610c113347611343565b50505050505050610c226001600055565b5050505050565b600080600083806020019051810190610c42919061315f565b92509250925060008560600151600081518110610c6157610c61612fdd565b602002602001015160000151606001518660600151600081518110610c8857610c88612fdd565b60200260200101516040015181518110610ca457610ca4612fdd565b6020908102919091010151519050610cd473ffffffffffffffffffffffffffffffffffffffff82168560006110e8565b610d1573ffffffffffffffffffffffffffffffffffffffff8216857fffffffffffffffffffffffffffffffffffffffffffffffffffffffffffffffff6110e8565b6000610d3873ffffffffffffffffffffffffffffffffffffffff8516844761149d565b9050610d5c73ffffffffffffffffffffffffffffffffffffffff83168660006110e8565b50505050505050565b600260005403610dd1576040517f08c379a000000000000000000000000000000000000000000000000000000000815260206004820152601f60248201527f5265656e7472616e637947756172643a207265656e7472616e742063616c6c006044820152606401610273565b6002600055565b60606000825167ffffffffffffffff811115610df657610df6611cd5565b604051908082528060200260200182016040528015610e1f578160200160208202803683370190505b509050600080845111610e33576000610e39565b83516001015b855160010101905060008167ffffffffffffffff811115610e5c57610e5c611cd5565b604051908082528060200260200182016040528015610e8f57816020015b6060815260200190600190039081610e7a5790505b5090506000610eb4604080516002815233602082015230818301526060810190915290565b828281518110610ec657610ec6612fdd565b602002602001018190525060005b8751811015610f24578180600101925050878181518110610ef757610ef7612fdd565b6020026020010151838381518110610f1157610f11612fdd565b6020908102919091010152600101610ed4565b508551156110de57808060010191505083828281518110610f4757610f47612fdd565b602002602001018190525060005b86518110156110dc57611006878281518110610f7357610f73612fdd565b602002602001015160000151610fe3610fb08a8581518110610f9757610f97612fdd565b6020026020010151602001518051602090810291012090565b7f19457468657265756d205369676e6564204d6573736167653a0a3332000000006000908152601c91909152603c902090565b898481518110610ff557610ff5612fdd565b6020026020010151604001516114cb565b61103f576040517f52bf984800000000000000000000000000000000000000000000000000000000815260048101829052602401610273565b86818151811061105157611051612fdd565b60200260200101516000015173ffffffffffffffffffffffffffffffffffffffff1685828151811061108557611085612fdd565b60200260200101818152505081806001019250508681815181106110ab576110ab612fdd565b6020026020010151602001518383815181106110c9576110c9612fdd565b6020908102919091010152600101610f55565b505b5095945050505050565b80158061118857506040517fdd62ed3e00000000000000000000000000000000000000000000000000000000815230600482015273ffffffffffffffffffffffffffffffffffffffff838116602483015284169063dd62ed3e90604401602060405180830381865afa158015611162573d6000803e3d6000fd5b505050506040513d601f19601f820116820180604052508101906111869190613146565b155b611214576040517f08c379a000000000000000000000000000000000000000000000000000000000815260206004820152603660248201527f5361666545524332303a20617070726f76652066726f6d206e6f6e2d7a65726f60448201527f20746f206e6f6e2d7a65726f20616c6c6f77616e6365000000000000000000006064820152608401610273565b60405173ffffffffffffffffffffffffffffffffffffffff83166024820152604481018290526112e89084907f095ea7b300000000000000000000000000000000000000000000000000000000906064015b604080517fffffffffffffffffffffffffffffffffffffffffffffffffffffffffffffffe08184030181529190526020810180517bffffffffffffffffffffffffffffffffffffffffffffffffffffffff167fffffffff0000000000000000000000000000000000000000000000000000000090931692909217909152611546565b505050565b60405173ffffffffffffffffffffffffffffffffffffffff83166024820152604481018290526112e89084907fa9059cbb0000000000000000000000000000000000000000000000000000000090606401611266565b804710156113ad576040517f08c379a000000000000000000000000000000000000000000000000000000000815260206004820152601d60248201527f416464726573733a20696e73756666696369656e742062616c616e63650000006044820152606401610273565b60008273ffffffffffffffffffffffffffffffffffffffff168260405160006040518083038185875af1925050503d8060008114611407576040519150601f19603f3d011682016040523d82523d6000602084013e61140c565b606091505b50509050806112e8576040517f08c379a000000000000000000000000000000000000000000000000000000000815260206004820152603a60248201527f416464726573733a20756e61626c6520746f2073656e642076616c75652c207260448201527f6563697069656e74206d617920686176652072657665727465640000000000006064820152608401610273565b60606114c384848460405180606001604052806029815260200161326d60299139611655565b949350505050565b60008060006114da858561176e565b909250905060008160048111156114f3576114f36131ff565b14801561152b57508573ffffffffffffffffffffffffffffffffffffffff168273ffffffffffffffffffffffffffffffffffffffff16145b8061153c575061153c8686866117b3565b9695505050505050565b60006115a8826040518060400160405280602081526020017f5361666545524332303a206c6f772d6c6576656c2063616c6c206661696c65648152508573ffffffffffffffffffffffffffffffffffffffff166119109092919063ffffffff16565b90508051600014806115c95750808060200190518101906115c99190613124565b6112e8576040517f08c379a000000000000000000000000000000000000000000000000000000000815260206004820152602a60248201527f5361666545524332303a204552433230206f7065726174696f6e20646964206e60448201527f6f742073756363656564000000000000000000000000000000000000000000006064820152608401610273565b6060824710156116e7576040517f08c379a000000000000000000000000000000000000000000000000000000000815260206004820152602660248201527f416464726573733a20696e73756666696369656e742062616c616e636520666f60448201527f722063616c6c00000000000000000000000000000000000000000000000000006064820152608401610273565b6000808673ffffffffffffffffffffffffffffffffffffffff168587604051611710919061322e565b60006040518083038185875af1925050503d806000811461174d576040519150601f19603f3d011682016040523d82523d6000602084013e611752565b606091505b50915091506117638783838761191f565b979650505050505050565b60008082516041036117a45760208301516040840151606085015160001a611798878285856119bf565b945094505050506117ac565b506000905060025b9250929050565b60008060008573ffffffffffffffffffffffffffffffffffffffff16631626ba7e60e01b86866040516024016117ea929190613240565b604080517fffffffffffffffffffffffffffffffffffffffffffffffffffffffffffffffe08184030181529181526020820180517bffffffffffffffffffffffffffffffffffffffffffffffffffffffff167fffffffff00000000000000000000000000000000000000000000000000000000909416939093179092529051611873919061322e565b600060405180830381855afa9150503d80600081146118ae576040519150601f19603f3d011682016040523d82523d6000602084013e6118b3565b606091505b50915091508180156118c757506020815110155b801561153c575080517f1626ba7e00000000000000000000000000000000000000000000000000000000906119059083016020908101908401613146565b149695505050505050565b60606114c38484600085611655565b606083156119b55782516000036119ae5773ffffffffffffffffffffffffffffffffffffffff85163b6119ae576040517f08c379a000000000000000000000000000000000000000000000000000000000815260206004820152601d60248201527f416464726573733a2063616c6c20746f206e6f6e2d636f6e74726163740000006044820152606401610273565b50816114c3565b6114c38383611aae565b6000807f7fffffffffffffffffffffffffffffff5d576e7357a4501ddfe92f46681b20a08311156119f65750600090506003611aa5565b6040805160008082526020820180845289905260ff881692820192909252606081018690526080810185905260019060a0016020604051602081039080840390855afa158015611a4a573d6000803e3d6000fd5b50506040517fffffffffffffffffffffffffffffffffffffffffffffffffffffffffffffffe0015191505073ffffffffffffffffffffffffffffffffffffffff8116611a9e57600060019250925050611aa5565b9150600090505b94509492505050565b815115611abe5781518083602001fd5b806040517f08c379a00000000000000000000000000000000000000000000000000000000081526004016102739190613259565b600060208284031215611b0457600080fd5b81357fffffffff0000000000000000000000000000000000000000000000000000000081168114611b3457600080fd5b9392505050565b73ffffffffffffffffffffffffffffffffffffffff81168114611b5d57600080fd5b50565b8035611b6b81611b3b565b919050565b60008083601f840112611b8257600080fd5b50813567ffffffffffffffff811115611b9a57600080fd5b6020830191508360208285010111156117ac57600080fd5b60008060008060008060a08789031215611bcb57600080fd5b8635611bd681611b3b565b95506020870135611be681611b3b565b94506040870135935060608701359250608087013567ffffffffffffffff811115611c1057600080fd5b611c1c89828a01611b70565b979a9699509497509295939492505050565b600080600080600060808688031215611c4657600080fd5b853567ffffffffffffffff80821115611c5e57600080fd5b9087019060a0828a031215611c7257600080fd5b9095506020870135945060408701359080821115611c8f57600080fd5b611c9b89838a01611b70565b90955093506060880135915080821115611cb457600080fd5b50860160608189031215611cc757600080fd5b809150509295509295909350565b7f4e487b7100000000000000000000000000000000000000000000000000000000600052604160045260246000fd5b6040516060810167ffffffffffffffff81118282101715611d2757611d27611cd5565b60405290565b60405160a0810167ffffffffffffffff81118282101715611d2757611d27611cd5565b6040516080810167ffffffffffffffff81118282101715611d2757611d27611cd5565b604051601f82017fffffffffffffffffffffffffffffffffffffffffffffffffffffffffffffffe016810167ffffffffffffffff81118282101715611dba57611dba611cd5565b604052919050565b600067ffffffffffffffff821115611ddc57611ddc611cd5565b5060051b60200190565b600067ffffffffffffffff821115611e0057611e00611cd5565b50601f017fffffffffffffffffffffffffffffffffffffffffffffffffffffffffffffffe01660200190565b600082601f830112611e3d57600080fd5b8135611e50611e4b82611de6565b611d73565b818152846020838601011115611e6557600080fd5b816020850160208301376000918101602001919091529392505050565b600060608284031215611e9457600080fd5b611e9c611d04565b90508135611ea981611b3b565b81526020820135611eb981611b3b565b6020820152604082013567ffffffffffffffff811115611ed857600080fd5b611ee484828501611e2c565b60408301525092915050565b803560ff81168114611b6b57600080fd5b600082601f830112611f1257600080fd5b81356020611f22611e4b83611dc2565b82815260609283028501820192828201919087851115611f4157600080fd5b8387015b85811015611f985781818a031215611f5d5760008081fd5b611f65611d04565b8135611f7081611b3b565b8152611f7d828701611ef0565b81870152604082810135908201528452928401928101611f45565b5090979650505050505050565b600082601f830112611fb657600080fd5b81356020611fc6611e4b83611dc2565b82815260059290921b84018101918181019086841115611fe557600080fd5b8286015b8481101561210a57803567ffffffffffffffff8082111561200957600080fd5b908801906060828b037fffffffffffffffffffffffffffffffffffffffffffffffffffffffffffffffe00112156120405760008081fd5b612048611d04565b8683013561205581611b3b565b81526040838101358381111561206b5760008081fd5b8401603f81018d1361207d5760008081fd5b8881013561208d611e4b82611dc2565b81815260059190911b82018301908a8101908f8311156120ad5760008081fd5b928401925b828410156120cb5783358252928b0192908b01906120b2565b858c01525050506060840135838111156120e55760008081fd5b6120f38d8a83880101611e2c565b918301919091525085525050918301918301611fe9565b509695505050505050565b6000806040838503121561212857600080fd5b67ffffffffffffffff808435111561213f57600080fd5b60a0843585018603121561215257600080fd5b61215a611d2d565b843585018035825260208082013590830152604080820135908301526060013582101561218657600080fd5b84358501606081013501601f8101871361219f57600080fd5b6121ac611e4b8235611dc2565b81358082526020808301929160051b8401018910156121ca57600080fd5b602083015b6020843560051b8501018110156123555785813511156121ee57600080fd5b7fffffffffffffffffffffffffffffffffffffffffffffffffffffffffffffffe0608081833587018d0301121561222457600080fd5b61222c611d50565b876020843588010135111561224057600080fd5b8235860160208101350160a0818e038401121561225c57600080fd5b612264611d2d565b925061227260208201611b60565b8352886040820135111561228557600080fd5b6122988d60206040840135840101611e82565b602084015288606082013511156122ae57600080fd5b6122c18d60206060840135840101611f01565b604084015288608082013511156122d757600080fd5b6122ea8d60206080840135840101611f01565b606084015260a08101356080840152508181526040833587010135602082015260608335870101356040820152876080843588010135111561232b57600080fd5b6123418c84358801608081013501602001611fa5565b6060820152845250602092830192016121cf565b5060608401525050843585016080013582101561237157600080fd5b6123848686358701608081013501611e2c565b60808201529250602084013581101561239c57600080fd5b506123ad8460208501358501611e2c565b90509250929050565b60005b838110156123d15781810151838201526020016123b9565b50506000910152565b600081518084526123f28160208601602086016123b6565b601f017fffffffffffffffffffffffffffffffffffffffffffffffffffffffffffffffe0169290920160200192915050565b60008151808452602080850194506020840160005b83811015612484578151805173ffffffffffffffffffffffffffffffffffffffff1688528381015160ff16848901526040908101519088015260609096019590820190600101612439565b509495945050505050565b60008151808452602080850194506020840160005b83811015612484578151875295820195908201906001016124a4565b600082825180855260208086019550808260051b84010181860160005b84811015611f98577fffffffffffffffffffffffffffffffffffffffffffffffffffffffffffffffe08684030189528151606073ffffffffffffffffffffffffffffffffffffffff825116855285820151818787015261253f8287018261248f565b9150506040808301519250858203818701525061255c81836123da565b9a86019a94505050908301906001016124dd565b6000602080835260c0830184518285015281850151604081818701528087015191506060828188015280880151925060a0608060a060808a015285855180885260e0975060e08b01915060e08160051b8c0101898801975060005b828110156126fd577fffffffffffffffffffffffffffffffffffffffffffffffffffffffffffffff208d83030184528851805186845273ffffffffffffffffffffffffffffffffffffffff80825116888601528d820151898a87015281815116610120870152818f820151166101408701528b810151915050896101608601526126596101808601826123da565b90508a8201517fffffffffffffffffffffffffffffffffffffffffffffffffffffffffffffff80808784030160c08801526126948383612424565b92508b840151915080878403018f880152506126b08282612424565b915050878201516101008601528d8301518e8601528a8301518b8601528983015192508481038a8601526126e481846124c0565b9b8e019b968e01969450505060019190910190506125cb565b5060808d015199507fffffffffffffffffffffffffffffffffffffffffffffffffffffffffffffffe08c82030160a08d0152612739818b6123da565b9d9c50505050505050505050505050565b6000806040838503121561275d57600080fd5b505080516020909101519092909150565b60006101fe3683611e82565b60008083357fffffffffffffffffffffffffffffffffffffffffffffffffffffffffffffffe18436030181126127af57600080fd5b83018035915067ffffffffffffffff8211156127ca57600080fd5b6020019150368190038213156117ac57600080fd5b6000602082840312156127f157600080fd5b8135611b3481611b3b565b8183528181602085013750600060208284010152600060207fffffffffffffffffffffffffffffffffffffffffffffffffffffffffffffffe0601f840116840101905092915050565b73ffffffffffffffffffffffffffffffffffffffff8816815260006020888184015260c0604084015261287c60c08401888a6127fc565b86606085015283810360808501528086518083528383019150838160051b84010184890160005b838110156128ef577fffffffffffffffffffffffffffffffffffffffffffffffffffffffffffffffe08684030185526128dd83835161248f565b948701949250908601906001016128a3565b505086810360a0880152612903818961248f565b9e9d5050505050505050505050505050565b600082601f83011261292657600080fd5b81516020612936611e4b83611dc2565b8083825260208201915060208460051b87010193508684111561295857600080fd5b602086015b8481101561210a578051835291830191830161295d565b6000806040838503121561298757600080fd5b825167ffffffffffffffff8082111561299f57600080fd5b6129ab86838701612915565b935060208501519150808211156129c157600080fd5b506129ce85828601612915565b9150509250929050565b8281526040602082015260006114c3604083018461248f565b60008083357fffffffffffffffffffffffffffffffffffffffffffffffffffffffffffffffe1843603018112612a2657600080fd5b83018035915067ffffffffffffffff821115612a4157600080fd5b6020019150600581901b36038213156117ac57600080fd5b60008083357fffffffffffffffffffffffffffffffffffffffffffffffffffffffffffffffe1843603018112612a8e57600080fd5b830160208101925035905067ffffffffffffffff811115612aae57600080fd5b8060051b36038213156117ac57600080fd5b600082357fffffffffffffffffffffffffffffffffffffffffffffffffffffffffffffffa1833603018112612af457600080fd5b90910192915050565b60008083357fffffffffffffffffffffffffffffffffffffffffffffffffffffffffffffffe1843603018112612b3257600080fd5b830160208101925035905067ffffffffffffffff811115612b5257600080fd5b8036038213156117ac57600080fd5b60008083357fffffffffffffffffffffffffffffffffffffffffffffffffffffffffffffffe1843603018112612b9657600080fd5b830160208101925035905067ffffffffffffffff811115612bb657600080fd5b6060810236038213156117ac57600080fd5b8183526000602080850194508260005b85811015612484578135612beb81611b3b565b73ffffffffffffffffffffffffffffffffffffffff16875260ff612c10838501611ef0565b16878401526040828101359088015260609687019690910190600101612bd8565b818352602080840193600091600585811b830182018585805b89811015612d37577fffffffffffffffffffffffffffffffffffffffffffffffffffffffffffffffe0878503018b52612c83838a612ac0565b60608135612c9081611b3b565b73ffffffffffffffffffffffffffffffffffffffff168652612cb482890183612a59565b828a8901528083890152608092507f07ffffffffffffffffffffffffffffffffffffffffffffffffffffffffffffff811115612cee578586fd5b881b808289850137870190506040612d0884820185612afd565b94508389840301828a0152612d2084840186836127fc565b9f8b019f9850505094880194505050600101612c4a565b50919998505050505050505050565b6000604080835260e08301863582850152602060608189013581870152838901356080870152612d78818a018a612a59565b60a0888101529384905261010093848801600582901b890186018360005b84811015612f7a577fffffffffffffffffffffffffffffffffffffffffffffffffffffffffffffff008c840301845281357fffffffffffffffffffffffffffffffffffffffffffffffffffffffffffffff81873603018112612df757600080fd5b86018035368290037fffffffffffffffffffffffffffffffffffffffffffffffffffffffffffffff61018112612e2c57600080fd5b6080855281018035612e3d81611b3b565b73ffffffffffffffffffffffffffffffffffffffff8082166080880152612e668c840184612ac0565b915060a0808801528135612e7981611b3b565b8116610120880152818c0135612e8e81611b3b565b16610140870152612ea1818e0182612afd565b91508a610160880152612eb9610180880183836127fc565b915050612ec88d830183612b61565b7fffffffffffffffffffffffffffffffffffffffffffffffffffffffffffffff80808985030160c08a0152612efe848385612bc8565b9350612f0c8d860186612b61565b93509150808985030160e08a015250612f26838383612bc8565b9250505060808201358c8701528a8301358b8701528c8301358d870152612f4f8a840184612a59565b935091508581038a870152612f65818484612c31565b968b0196955050509188019150600101612d96565b5050612f8960808e018e612afd565b985096507fffffffffffffffffffffffffffffffffffffffffffffffffffffffffffffffc08a82030160c08b0152612fc28189896127fc565b9750505050505084830381860152505061153c8185876127fc565b7f4e487b7100000000000000000000000000000000000000000000000000000000600052603260045260246000fd5b600082357fffffffffffffffffffffffffffffffffffffffffffffffffffffffffffffff8183360301811261304057600080fd5b9190910192915050565b600082357fffffffffffffffffffffffffffffffffffffffffffffffffffffffffffffff6183360301811261304057600080fd5b60008083357fffffffffffffffffffffffffffffffffffffffffffffffffffffffffffffffe18436030181126130b357600080fd5b83018035915067ffffffffffffffff8211156130ce57600080fd5b60200191506060810236038213156117ac57600080fd5b600073ffffffffffffffffffffffffffffffffffffffff80871683528086166020840152508360408301526080606083015261153c60808301846123da565b60006020828403121561313657600080fd5b81518015158114611b3457600080fd5b60006020828403121561315857600080fd5b5051919050565b60008060006060848603121561317457600080fd5b835161317f81611b3b565b602085015190935061319081611b3b565b604085015190925067ffffffffffffffff8111156131ad57600080fd5b8401601f810186136131be57600080fd5b80516131cc611e4b82611de6565b8181528760208385010111156131e157600080fd5b6131f28260208301602086016123b6565b8093505050509250925092565b7f4e487b7100000000000000000000000000000000000000000000000000000000600052602160045260246000fd5b600082516130408184602087016123b6565b8281526040602082015260006114c360408301846123da565b602081526000611b3460208301846123da56fe416464726573733a206c6f772d6c6576656c2063616c6c20776974682076616c7565206661696c6564","linkReferences":{}},"methodIdentifiers":{"arb2((uint256,uint256,uint256,((address,(address,address,bytes),(address,uint8,uint256)[],(address,uint8,uint256)[],bytes32),uint256,uint256,(address,uint256[],bytes)[])[],bytes),uint256,bytes,(address,address,bytes))":"7ea87bc7","iEvaluableHash()":"7b40155e","iOrderBook()":"8df8ee11","onFlashLoan(address,address,uint256,uint256,bytes)":"23e30c8b","supportsInterface(bytes4)":"01ffc9a7"}}