{
  "abi": [
    {
      "inputs": [
        {
          "components": [
            {
              "internalType": "address",
              "name": "deployer",
              "type": "address"
            },
            {
              "internalType": "bytes",
              "name": "meta",
              "type": "bytes"
            }
          ],
          "internalType": "struct DeployerDiscoverableMetaV2ConstructionConfig",
          "name": "config",
          "type": "tuple"
        }
      ],
      "stateMutability": "nonpayable",
      "type": "constructor"
    },
    {
      "inputs": [
        {
          "internalType": "address",
          "name": "badInitiator",
          "type": "address"
        }
      ],
      "name": "BadInitiator",
      "type": "error"
    },
    {
      "inputs": [
        {
          "internalType": "address",
          "name": "badLender",
          "type": "address"
        }
      ],
      "name": "BadLender",
      "type": "error"
    },
    {
      "inputs": [],
      "name": "FlashLoanFailed",
      "type": "error"
    },
    {
      "inputs": [],
      "name": "InitializeSignatureFn",
      "type": "error"
    },
    {
      "inputs": [],
      "name": "Initializing",
      "type": "error"
    },
    {
      "inputs": [
        {
          "internalType": "uint256",
          "name": "i",
          "type": "uint256"
        }
      ],
      "name": "InvalidSignature",
      "type": "error"
    },
    {
      "inputs": [
        {
          "internalType": "uint256",
          "name": "minimum",
          "type": "uint256"
        },
        {
          "internalType": "uint256",
          "name": "actual",
          "type": "uint256"
        }
      ],
      "name": "MinimumOutput",
      "type": "error"
    },
    {
      "inputs": [],
      "name": "NoOrders",
      "type": "error"
    },
    {
      "inputs": [],
      "name": "NonZeroBeforeArbStack",
      "type": "error"
    },
    {
      "inputs": [
        {
          "internalType": "bytes",
          "name": "unmeta",
          "type": "bytes"
        }
      ],
      "name": "NotRainMetaV1",
      "type": "error"
    },
    {
      "inputs": [
        {
          "internalType": "bytes32",
          "name": "expectedHash",
          "type": "bytes32"
        },
        {
          "internalType": "bytes32",
          "name": "actualHash",
          "type": "bytes32"
        }
      ],
      "name": "UnexpectedMetaHash",
      "type": "error"
    },
    {
      "anonymous": false,
      "inputs": [
        {
          "indexed": false,
          "internalType": "address",
          "name": "sender",
          "type": "address"
        },
        {
          "components": [
            {
              "internalType": "address",
              "name": "orderBook",
              "type": "address"
            },
            {
              "components": [
                {
                  "internalType": "contract IExpressionDeployerV2",
                  "name": "deployer",
                  "type": "address"
                },
                {
                  "internalType": "bytes",
                  "name": "bytecode",
                  "type": "bytes"
                },
                {
                  "internalType": "uint256[]",
                  "name": "constants",
                  "type": "uint256[]"
                }
              ],
              "internalType": "struct EvaluableConfigV2",
              "name": "evaluableConfig",
              "type": "tuple"
            },
            {
              "internalType": "bytes",
              "name": "implementationData",
              "type": "bytes"
            }
          ],
          "indexed": false,
          "internalType": "struct OrderBookV3FlashBorrowerConfigV2",
          "name": "config",
          "type": "tuple"
        }
      ],
      "name": "Initialize",
      "type": "event"
    },
    {
      "anonymous": false,
      "inputs": [
        {
          "indexed": false,
          "internalType": "uint8",
          "name": "version",
          "type": "uint8"
        }
      ],
      "name": "Initialized",
      "type": "event"
    },
    {
      "anonymous": false,
      "inputs": [
        {
          "indexed": false,
          "internalType": "address",
          "name": "sender",
          "type": "address"
        },
        {
          "indexed": false,
          "internalType": "uint256",
          "name": "subject",
          "type": "uint256"
        },
        {
          "indexed": false,
          "internalType": "bytes",
          "name": "meta",
          "type": "bytes"
        }
      ],
      "name": "MetaV1",
      "type": "event"
    },
    {
      "stateMutability": "nonpayable",
      "type": "fallback"
    },
    {
      "inputs": [
        {
          "components": [
            {
              "internalType": "uint256",
              "name": "minimumInput",
              "type": "uint256"
            },
            {
              "internalType": "uint256",
              "name": "maximumInput",
              "type": "uint256"
            },
            {
              "internalType": "uint256",
              "name": "maximumIORatio",
              "type": "uint256"
            },
            {
              "components": [
                {
                  "components": [
                    {
                      "internalType": "address",
                      "name": "owner",
                      "type": "address"
                    },
                    {
                      "internalType": "bool",
                      "name": "handleIO",
                      "type": "bool"
                    },
                    {
                      "components": [
                        {
                          "internalType": "contract IInterpreterV1",
                          "name": "interpreter",
                          "type": "address"
                        },
                        {
                          "internalType": "contract IInterpreterStoreV1",
                          "name": "store",
                          "type": "address"
                        },
                        {
                          "internalType": "address",
                          "name": "expression",
                          "type": "address"
                        }
                      ],
                      "internalType": "struct Evaluable",
                      "name": "evaluable",
                      "type": "tuple"
                    },
                    {
                      "components": [
                        {
                          "internalType": "address",
                          "name": "token",
                          "type": "address"
                        },
                        {
                          "internalType": "uint8",
                          "name": "decimals",
                          "type": "uint8"
                        },
                        {
                          "internalType": "uint256",
                          "name": "vaultId",
                          "type": "uint256"
                        }
                      ],
                      "internalType": "struct IO[]",
                      "name": "validInputs",
                      "type": "tuple[]"
                    },
                    {
                      "components": [
                        {
                          "internalType": "address",
                          "name": "token",
                          "type": "address"
                        },
                        {
                          "internalType": "uint8",
                          "name": "decimals",
                          "type": "uint8"
                        },
                        {
                          "internalType": "uint256",
                          "name": "vaultId",
                          "type": "uint256"
                        }
                      ],
                      "internalType": "struct IO[]",
                      "name": "validOutputs",
                      "type": "tuple[]"
                    }
                  ],
                  "internalType": "struct Order",
                  "name": "order",
                  "type": "tuple"
                },
                {
                  "internalType": "uint256",
                  "name": "inputIOIndex",
                  "type": "uint256"
                },
                {
                  "internalType": "uint256",
                  "name": "outputIOIndex",
                  "type": "uint256"
                },
                {
                  "components": [
                    {
                      "internalType": "address",
                      "name": "signer",
                      "type": "address"
                    },
                    {
                      "internalType": "uint256[]",
                      "name": "context",
                      "type": "uint256[]"
                    },
                    {
                      "internalType": "bytes",
                      "name": "signature",
                      "type": "bytes"
                    }
                  ],
                  "internalType": "struct SignedContextV1[]",
                  "name": "signedContext",
                  "type": "tuple[]"
                }
              ],
              "internalType": "struct TakeOrderConfig[]",
              "name": "orders",
              "type": "tuple[]"
            },
            {
              "internalType": "bytes",
              "name": "data",
              "type": "bytes"
            }
          ],
          "internalType": "struct TakeOrdersConfigV2",
          "name": "takeOrders",
          "type": "tuple"
        },
        {
          "internalType": "uint256",
          "name": "minimumSenderOutput",
          "type": "uint256"
        },
        {
          "internalType": "bytes",
          "name": "exchangeData",
          "type": "bytes"
        }
      ],
      "name": "arb",
      "outputs": [],
      "stateMutability": "payable",
      "type": "function"
    },
    {
      "inputs": [
        {
          "internalType": "bytes",
          "name": "data",
          "type": "bytes"
        }
      ],
      "name": "initialize",
      "outputs": [
        {
          "internalType": "bytes32",
          "name": "",
          "type": "bytes32"
        }
      ],
      "stateMutability": "nonpayable",
      "type": "function"
    },
    {
      "inputs": [
        {
          "components": [
            {
              "internalType": "address",
              "name": "orderBook",
              "type": "address"
            },
            {
              "components": [
                {
                  "internalType": "contract IExpressionDeployerV2",
                  "name": "deployer",
                  "type": "address"
                },
                {
                  "internalType": "bytes",
                  "name": "bytecode",
                  "type": "bytes"
                },
                {
                  "internalType": "uint256[]",
                  "name": "constants",
                  "type": "uint256[]"
                }
              ],
              "internalType": "struct EvaluableConfigV2",
              "name": "evaluableConfig",
              "type": "tuple"
            },
            {
              "internalType": "bytes",
              "name": "implementationData",
              "type": "bytes"
            }
          ],
          "internalType": "struct OrderBookV3FlashBorrowerConfigV2",
          "name": "",
          "type": "tuple"
        }
      ],
      "name": "initialize",
      "outputs": [
        {
          "internalType": "bytes32",
          "name": "",
          "type": "bytes32"
        }
      ],
      "stateMutability": "pure",
      "type": "function"
    },
    {
      "inputs": [
        {
          "internalType": "address",
          "name": "initiator",
          "type": "address"
        },
        {
          "internalType": "address",
          "name": "",
          "type": "address"
        },
        {
          "internalType": "uint256",
          "name": "",
          "type": "uint256"
        },
        {
          "internalType": "uint256",
          "name": "",
          "type": "uint256"
        },
        {
          "internalType": "bytes",
          "name": "data",
          "type": "bytes"
        }
      ],
      "name": "onFlashLoan",
      "outputs": [
        {
          "internalType": "bytes32",
          "name": "",
          "type": "bytes32"
        }
      ],
      "stateMutability": "nonpayable",
      "type": "function"
    },
    {
      "inputs": [],
      "name": "sI9r",
      "outputs": [
        {
          "internalType": "contract IInterpreterV1",
          "name": "",
          "type": "address"
        }
      ],
      "stateMutability": "view",
      "type": "function"
    },
    {
      "inputs": [],
      "name": "sI9rDispatch",
      "outputs": [
        {
          "internalType": "EncodedDispatch",
          "name": "",
          "type": "uint256"
        }
      ],
      "stateMutability": "view",
      "type": "function"
    },
    {
      "inputs": [],
      "name": "sI9rStore",
      "outputs": [
        {
          "internalType": "contract IInterpreterStoreV1",
          "name": "",
          "type": "address"
        }
      ],
      "stateMutability": "view",
      "type": "function"
    },
    {
      "inputs": [],
      "name": "sOrderBook",
      "outputs": [
        {
          "internalType": "contract IOrderBookV3",
          "name": "",
          "type": "address"
        }
      ],
      "stateMutability": "view",
      "type": "function"
    },
    {
      "inputs": [
        {
          "internalType": "bytes4",
          "name": "interfaceId",
          "type": "bytes4"
        }
      ],
      "name": "supportsInterface",
      "outputs": [
        {
          "internalType": "bool",
          "name": "",
          "type": "bool"
        }
      ],
      "stateMutability": "view",
      "type": "function"
    }
  ],
  "bytecode": {
    "object": "0x60806040523480156200001157600080fd5b5060405162003ec138038062003ec1833981016040819052620000349162000383565b600160005560208101517f3d6909481820fc692906b0477e8f98248e84973bc8b8d5ac935132857d4f41259082908290829062000073908390620000d7565b60208101516040517fbea766d03fa1efd3f81cc8634d08320bc62bb0ed9234ac59bbaafa5893fb6b1391620000ac913391309162000491565b60405180910390a18051620000c1906200011e565b50620000ce9050620001b5565b505050620005a7565b805160208201208281146200010e5760405163074fe10f60e41b815260048101849052602481018290526044015b60405180910390fd5b620001198262000273565b505050565b60408051600080825260208201818152828401938490526331a66b6560e01b90935291829182916001600160a01b038616916331a66b65916200016691906044820162000500565b6060604051808303816000875af115801562000186573d6000803e3d6000fd5b505050506040513d601f19601f82011682018060405250810190620001ac919062000537565b50505050505050565b600154610100900460ff16156200021f5760405162461bcd60e51b815260206004820152602760248201527f496e697469616c697a61626c653a20636f6e747261637420697320696e697469604482015266616c697a696e6760c81b606482015260840162000105565b60015460ff9081161462000271576001805460ff191660ff9081179091556040519081527f7f26b83ff96e1f2b6a682f133852f6798a09c465da95921460cefb38474024989060200160405180910390a15b565b6200027e81620002a3565b620002a05780604051630c89984b60e31b81526004016200010591906200058b565b50565b6000600882511015620002b857506000919050565b50600801516001600160401b031667ff0a89c674ee78741490565b634e487b7160e01b600052604160045260246000fd5b604080519081016001600160401b03811182821017156200030e576200030e620002d3565b60405290565b604051601f8201601f191681016001600160401b03811182821017156200033f576200033f620002d3565b604052919050565b6001600160a01b0381168114620002a057600080fd5b60005b838110156200037a57818101518382015260200162000360565b50506000910152565b600060208083850312156200039757600080fd5b82516001600160401b0380821115620003af57600080fd5b9084019060408287031215620003c457600080fd5b620003ce620002e9565b8251620003db8162000347565b81528284015182811115620003ef57600080fd5b80840193505086601f8401126200040557600080fd5b8251828111156200041a576200041a620002d3565b6200042e601f8201601f1916860162000314565b925080835287858286010111156200044557600080fd5b62000456818685018787016200035d565b5092830152509392505050565b600081518084526200047d8160208601602086016200035d565b601f01601f19169290920160200192915050565b60018060a01b0384168152826020820152606060408201526000620004ba606083018462000463565b95945050505050565b600081518084526020808501945080840160005b83811015620004f557815187529582019590820190600101620004d7565b509495945050505050565b6060815260006060820152608060208201526000620005236080830185620004c3565b8281036040840152620004ba8185620004c3565b6000806000606084860312156200054d57600080fd5b83516200055a8162000347565b60208501519093506200056d8162000347565b6040850151909250620005808162000347565b809150509250925092565b602081526000620005a0602083018462000463565b9392505050565b61390a80620005b76000396000f3fe6080604052600436106100965760003560e01c806371c1dea71161006957806389448c3a1161004e57806389448c3a1461021c57806398da8d6a14610232578063ae61ec121461025257610096565b806371c1dea7146101bc578063886d1650146101e957610096565b806301ffc9a7146100e757806323e30c8b1461011c578063439fab911461014a57806361bb39e41461016a575b3480156100a257600080fd5b50600154610100900460ff16156100e5576040517f4e8f6c4400000000000000000000000000000000000000000000000000000000815260040160405180910390fd5b005b3480156100f357600080fd5b50610107610102366004611ff5565b610265565b60405190151581526020015b60405180910390f35b34801561012857600080fd5b5061013c6101373660046120a2565b61034a565b604051908152602001610113565b34801561015657600080fd5b5061013c6101653660046122a7565b610545565b34801561017657600080fd5b506004546101979073ffffffffffffffffffffffffffffffffffffffff1681565b60405173ffffffffffffffffffffffffffffffffffffffff9091168152602001610113565b3480156101c857600080fd5b506003546101979073ffffffffffffffffffffffffffffffffffffffff1681565b3480156101f557600080fd5b506001546101979062010000900473ffffffffffffffffffffffffffffffffffffffff1681565b34801561022857600080fd5b5061013c60025481565b34801561023e57600080fd5b5061013c61024d3660046122dc565b610928565b6100e5610260366004612317565b61095c565b60007fffffffff0000000000000000000000000000000000000000000000000000000082167f23e30c8b0000000000000000000000000000000000000000000000000000000014806102f857507fffffffff0000000000000000000000000000000000000000000000000000000082167f439fab9100000000000000000000000000000000000000000000000000000000145b8061034457507f01ffc9a7000000000000000000000000000000000000000000000000000000007fffffffff000000000000000000000000000000000000000000000000000000008316145b92915050565b600154600090610100900460ff161561038f576040517f4e8f6c4400000000000000000000000000000000000000000000000000000000815260040160405180910390fd5b60015462010000900473ffffffffffffffffffffffffffffffffffffffff1633146103ed576040517f0bc3cde00000000000000000000000000000000000000000000000000000000081523360048201526024015b60405180910390fd5b73ffffffffffffffffffffffffffffffffffffffff87163014610454576040517f8b1f7c6400000000000000000000000000000000000000000000000000000000815273ffffffffffffffffffffffffffffffffffffffff881660048201526024016103e4565b6000806104638486018661264b565b91509150610471828261110b565b6001546040517f8a44689c00000000000000000000000000000000000000000000000000000000815260009182916201000090910473ffffffffffffffffffffffffffffffffffffffff1690638a44689c906104d1908790600401612a86565b60408051808303816000875af11580156104ef573d6000803e3d6000fd5b505050506040513d601f19601f820116820180604052508101906105139190612c3b565b507f439148f0bbc682ca079e46d6e2c2f0c1e3b820f1a291b069d8882abf8cf18dd99c9b505050505050505050505050565b600154600090610100900460ff161580801561056557506001805460ff16105b8061057e5750303b15801561057e57506001805460ff16145b61060a576040517f08c379a000000000000000000000000000000000000000000000000000000000815260206004820152602e60248201527f496e697469616c697a61626c653a20636f6e747261637420697320616c72656160448201527f647920696e697469616c697a656400000000000000000000000000000000000060648201526084016103e4565b600180547fffffffffffffffffffffffffffffffffffffffffffffffffffffffffffffff001681179055801561066757600180547fffffffffffffffffffffffffffffffffffffffffffffffffffffffffffff00ff166101001790555b61066f611247565b6000838060200190518101906106859190612cff565b905080516001805473ffffffffffffffffffffffffffffffffffffffff90921662010000027fffffffffffffffffffff0000000000000000000000000000000000000000ffff9092169190911790556040517f61f559321bdc3ad3a0e3b8692a91eaffa9773753bfec4e5f4c344cfed245cab7906107069033908490612e08565b60405180910390a160006107218260200151602001516112bd565b11156108925760408051600180825281830190925260009182919060208083019080368337019050509050600081600061ffff168151811061076557610765612edd565b6020908102919091018101919091528381015180519181015160409182015191517f31a66b6500000000000000000000000000000000000000000000000000000000815273ffffffffffffffffffffffffffffffffffffffff909316926331a66b65926107d792918690600401612f0c565b6060604051808303816000875af11580156107f6573d6000803e3d6000fd5b505050506040513d601f19601f8201168201806040525081019061081a9190612f45565b600480547fffffffffffffffffffffffff000000000000000000000000000000000000000090811673ffffffffffffffffffffffffffffffffffffffff94851617909155600380549091169390921692909217905560201b77ffffffffffffffffffffffffffffffffffffffff000000001660025550505b7fe0e57eda3f08f2a93bbe980d3df7f9c315eac41181f58b865a13d917fe769fc39250506108c06001600055565b801561092257600180547fffffffffffffffffffffffffffffffffffffffffffffffffffffffffffff00ff1681556040519081527f7f26b83ff96e1f2b6a682f133852f6798a09c465da95921460cefb38474024989060200160405180910390a15b50919050565b60006040517faf1fbb2100000000000000000000000000000000000000000000000000000000815260040160405180910390fd5b610964611247565b600154610100900460ff16156109a6576040517f4e8f6c4400000000000000000000000000000000000000000000000000000000815260040160405180910390fd5b6109b36060850185612f92565b90506000036109ee576040517f9c95219f00000000000000000000000000000000000000000000000000000000815260040160405180910390fd5b6000848383604051602001610a05939291906132fd565b604080517fffffffffffffffffffffffffffffffffffffffffffffffffffffffffffffffe081840301815291905290506000610a446060870187612f92565b6000818110610a5557610a55612edd565b9050602002810190610a67919061357b565b610a7190806135b9565b610a7f9060c08101906135ed565b610a8c6060890189612f92565b6000818110610a9d57610a9d612edd565b9050602002810190610aaf919061357b565b60400135818110610ac257610ac2612edd565b610ad89260206060909202019081019150613654565b90506000610ae96060880188612f92565b6000818110610afa57610afa612edd565b9050602002810190610b0c919061357b565b610b1690806135b9565b610b249060a08101906135ed565b610b3160608a018a612f92565b6000818110610b4257610b42612edd565b9050602002810190610b54919061357b565b60200135818110610b6757610b67612edd565b610b7d9260206060909202019081019150613654565b6002549091508735908015610daf57600354600454600091829173ffffffffffffffffffffffffffffffffffffffff91821691636715f82591168386610c5a82604051908082528060200260200182016040528015610bf057816020015b6060815260200190600190039081610bdb5790505b506040805160008082526020820190925290610c54565b610c416040518060600160405280600073ffffffffffffffffffffffffffffffffffffffff16815260200160608152602001606081525090565b815260200190600190039081610c075790505b506112db565b6040518563ffffffff1660e01b8152600401610c799493929190613671565b600060405180830381865afa158015610c96573d6000803e3d6000fd5b505050506040513d6000823e601f3d9081017fffffffffffffffffffffffffffffffffffffffffffffffffffffffffffffffe0168201604052610cdc919081019061371d565b8151919350915015610d1a576040517f379fa94000000000000000000000000000000000000000000000000000000000815260040160405180910390fd5b805115610dac57600480546040517f946aadc600000000000000000000000000000000000000000000000000000000815273ffffffffffffffffffffffffffffffffffffffff9091169163946aadc691610d7991600091869101613781565b600060405180830381600087803b158015610d9357600080fd5b505af1158015610da7573d6000803e3d6000fd5b505050505b50505b600154610ddd9073ffffffffffffffffffffffffffffffffffffffff858116916201000090041660006115eb565b600154610e2a9073ffffffffffffffffffffffffffffffffffffffff85811691620100009004167fffffffffffffffffffffffffffffffffffffffffffffffffffffffffffffffff6115eb565b6001546040517f5cffe9de0000000000000000000000000000000000000000000000000000000081526201000090910473ffffffffffffffffffffffffffffffffffffffff1690635cffe9de90610e8b903090889087908b9060040161379a565b6020604051808303816000875af1158015610eaa573d6000803e3d6000fd5b505050506040513d601f19601f82011682018060405250810190610ece91906137d9565b610f04576040517f92111eb200000000000000000000000000000000000000000000000000000000815260040160405180910390fd5b600154610f329073ffffffffffffffffffffffffffffffffffffffff858116916201000090041660006115eb565b6040517f70a0823100000000000000000000000000000000000000000000000000000000815230600482015260009073ffffffffffffffffffffffffffffffffffffffff8516906370a0823190602401602060405180830381865afa158015610f9f573d6000803e3d6000fd5b505050506040513d601f19601f82011682018060405250810190610fc391906137f6565b905088811015611009576040517f0c08b5bc000000000000000000000000000000000000000000000000000000008152600481018a9052602481018290526044016103e4565b80156110305761103073ffffffffffffffffffffffffffffffffffffffff851633836117f0565b6040517f70a0823100000000000000000000000000000000000000000000000000000000815230600482015260009073ffffffffffffffffffffffffffffffffffffffff8716906370a0823190602401602060405180830381865afa15801561109d573d6000803e3d6000fd5b505050506040513d601f19601f820116820180604052508101906110c191906137f6565b905080156110ea576110ea73ffffffffffffffffffffffffffffffffffffffff871633836117f0565b6110f43347611846565b505050505050506111056001600055565b50505050565b600080600083806020019051810190611124919061380f565b9250925092506000856060015160008151811061114357611143612edd565b60200260200101516000015160800151866060015160008151811061116a5761116a612edd565b6020026020010151604001518151811061118657611186612edd565b60209081029190910101515190506111b673ffffffffffffffffffffffffffffffffffffffff82168560006115eb565b6111f773ffffffffffffffffffffffffffffffffffffffff8216857fffffffffffffffffffffffffffffffffffffffffffffffffffffffffffffffff6115eb565b600061121a73ffffffffffffffffffffffffffffffffffffffff851684476119a0565b905061123e73ffffffffffffffffffffffffffffffffffffffff83168660006115eb565b50505050505050565b6002600054036112b3576040517f08c379a000000000000000000000000000000000000000000000000000000000815260206004820152601f60248201527f5265656e7472616e637947756172643a207265656e7472616e742063616c6c0060448201526064016103e4565b6002600055565b50565b600081516000036112d057506000919050565b506020015160001a90565b60606000825167ffffffffffffffff8111156112f9576112f961211e565b604051908082528060200260200182016040528015611322578160200160208202803683370190505b50905060008084511161133657600061133c565b83516001015b855160010101905060008167ffffffffffffffff81111561135f5761135f61211e565b60405190808252806020026020018201604052801561139257816020015b606081526020019060019003908161137d5790505b50905060006113b7604080516002815233602082015230818301526060810190915290565b8282815181106113c9576113c9612edd565b602002602001018190525060005b87518110156114275781806001019250508781815181106113fa576113fa612edd565b602002602001015183838151811061141457611414612edd565b60209081029190910101526001016113d7565b508551156115e15780806001019150508382828151811061144a5761144a612edd565b602002602001018190525060005b86518110156115df5761150987828151811061147657611476612edd565b6020026020010151600001516114e66114b38a858151811061149a5761149a612edd565b6020026020010151602001518051602090810291012090565b7f19457468657265756d205369676e6564204d6573736167653a0a3332000000006000908152601c91909152603c902090565b8984815181106114f8576114f8612edd565b6020026020010151604001516119ce565b611542576040517f52bf9848000000000000000000000000000000000000000000000000000000008152600481018290526024016103e4565b86818151811061155457611554612edd565b60200260200101516000015173ffffffffffffffffffffffffffffffffffffffff1685828151811061158857611588612edd565b60200260200101818152505081806001019250508681815181106115ae576115ae612edd565b6020026020010151602001518383815181106115cc576115cc612edd565b6020908102919091010152600101611458565b505b5095945050505050565b80158061168b57506040517fdd62ed3e00000000000000000000000000000000000000000000000000000000815230600482015273ffffffffffffffffffffffffffffffffffffffff838116602483015284169063dd62ed3e90604401602060405180830381865afa158015611665573d6000803e3d6000fd5b505050506040513d601f19601f8201168201806040525081019061168991906137f6565b155b611717576040517f08c379a000000000000000000000000000000000000000000000000000000000815260206004820152603660248201527f5361666545524332303a20617070726f76652066726f6d206e6f6e2d7a65726f60448201527f20746f206e6f6e2d7a65726f20616c6c6f77616e63650000000000000000000060648201526084016103e4565b60405173ffffffffffffffffffffffffffffffffffffffff83166024820152604481018290526117eb9084907f095ea7b300000000000000000000000000000000000000000000000000000000906064015b604080517fffffffffffffffffffffffffffffffffffffffffffffffffffffffffffffffe08184030181529190526020810180517bffffffffffffffffffffffffffffffffffffffffffffffffffffffff167fffffffff0000000000000000000000000000000000000000000000000000000090931692909217909152611a49565b505050565b60405173ffffffffffffffffffffffffffffffffffffffff83166024820152604481018290526117eb9084907fa9059cbb0000000000000000000000000000000000000000000000000000000090606401611769565b804710156118b0576040517f08c379a000000000000000000000000000000000000000000000000000000000815260206004820152601d60248201527f416464726573733a20696e73756666696369656e742062616c616e636500000060448201526064016103e4565b60008273ffffffffffffffffffffffffffffffffffffffff168260405160006040518083038185875af1925050503d806000811461190a576040519150601f19603f3d011682016040523d82523d6000602084013e61190f565b606091505b50509050806117eb576040517f08c379a000000000000000000000000000000000000000000000000000000000815260206004820152603a60248201527f416464726573733a20756e61626c6520746f2073656e642076616c75652c207260448201527f6563697069656e74206d6179206861766520726576657274656400000000000060648201526084016103e4565b60606119c68484846040518060600160405280602981526020016138e160299139611b58565b949350505050565b60008060006119dd8585611c71565b909250905060008160048111156119f6576119f6613873565b148015611a2e57508573ffffffffffffffffffffffffffffffffffffffff168273ffffffffffffffffffffffffffffffffffffffff16145b80611a3f5750611a3f868686611cb6565b9695505050505050565b6000611aab826040518060400160405280602081526020017f5361666545524332303a206c6f772d6c6576656c2063616c6c206661696c65648152508573ffffffffffffffffffffffffffffffffffffffff16611e139092919063ffffffff16565b9050805160001480611acc575080806020019051810190611acc91906137d9565b6117eb576040517f08c379a000000000000000000000000000000000000000000000000000000000815260206004820152602a60248201527f5361666545524332303a204552433230206f7065726174696f6e20646964206e60448201527f6f7420737563636565640000000000000000000000000000000000000000000060648201526084016103e4565b606082471015611bea576040517f08c379a000000000000000000000000000000000000000000000000000000000815260206004820152602660248201527f416464726573733a20696e73756666696369656e742062616c616e636520666f60448201527f722063616c6c000000000000000000000000000000000000000000000000000060648201526084016103e4565b6000808673ffffffffffffffffffffffffffffffffffffffff168587604051611c1391906138a2565b60006040518083038185875af1925050503d8060008114611c50576040519150601f19603f3d011682016040523d82523d6000602084013e611c55565b606091505b5091509150611c6687838387611e22565b979650505050505050565b6000808251604103611ca75760208301516040840151606085015160001a611c9b87828585611ec2565b94509450505050611caf565b506000905060025b9250929050565b60008060008573ffffffffffffffffffffffffffffffffffffffff16631626ba7e60e01b8686604051602401611ced9291906138b4565b604080517fffffffffffffffffffffffffffffffffffffffffffffffffffffffffffffffe08184030181529181526020820180517bffffffffffffffffffffffffffffffffffffffffffffffffffffffff167fffffffff00000000000000000000000000000000000000000000000000000000909416939093179092529051611d7691906138a2565b600060405180830381855afa9150503d8060008114611db1576040519150601f19603f3d011682016040523d82523d6000602084013e611db6565b606091505b5091509150818015611dca57506020815110155b8015611a3f575080517f1626ba7e0000000000000000000000000000000000000000000000000000000090611e0890830160209081019084016137f6565b149695505050505050565b60606119c68484600085611b58565b60608315611eb8578251600003611eb15773ffffffffffffffffffffffffffffffffffffffff85163b611eb1576040517f08c379a000000000000000000000000000000000000000000000000000000000815260206004820152601d60248201527f416464726573733a2063616c6c20746f206e6f6e2d636f6e747261637400000060448201526064016103e4565b50816119c6565b6119c68383611fb1565b6000807f7fffffffffffffffffffffffffffffff5d576e7357a4501ddfe92f46681b20a0831115611ef95750600090506003611fa8565b6040805160008082526020820180845289905260ff881692820192909252606081018690526080810185905260019060a0016020604051602081039080840390855afa158015611f4d573d6000803e3d6000fd5b50506040517fffffffffffffffffffffffffffffffffffffffffffffffffffffffffffffffe0015191505073ffffffffffffffffffffffffffffffffffffffff8116611fa157600060019250925050611fa8565b9150600090505b94509492505050565b815115611fc15781518083602001fd5b806040517f08c379a00000000000000000000000000000000000000000000000000000000081526004016103e491906138cd565b60006020828403121561200757600080fd5b81357fffffffff000000000000000000000000000000000000000000000000000000008116811461203757600080fd5b9392505050565b73ffffffffffffffffffffffffffffffffffffffff811681146112ba57600080fd5b60008083601f84011261207257600080fd5b50813567ffffffffffffffff81111561208a57600080fd5b602083019150836020828501011115611caf57600080fd5b60008060008060008060a087890312156120bb57600080fd5b86356120c68161203e565b955060208701356120d68161203e565b94506040870135935060608701359250608087013567ffffffffffffffff81111561210057600080fd5b61210c89828a01612060565b979a9699509497509295939492505050565b7f4e487b7100000000000000000000000000000000000000000000000000000000600052604160045260246000fd5b6040516060810167ffffffffffffffff811182821017156121705761217061211e565b60405290565b60405160a0810167ffffffffffffffff811182821017156121705761217061211e565b6040516080810167ffffffffffffffff811182821017156121705761217061211e565b604051601f82017fffffffffffffffffffffffffffffffffffffffffffffffffffffffffffffffe016810167ffffffffffffffff811182821017156122035761220361211e565b604052919050565b600067ffffffffffffffff8211156122255761222561211e565b50601f017fffffffffffffffffffffffffffffffffffffffffffffffffffffffffffffffe01660200190565b600082601f83011261226257600080fd5b81356122756122708261220b565b6121bc565b81815284602083860101111561228a57600080fd5b816020850160208301376000918101602001919091529392505050565b6000602082840312156122b957600080fd5b813567ffffffffffffffff8111156122d057600080fd5b6119c684828501612251565b6000602082840312156122ee57600080fd5b813567ffffffffffffffff81111561230557600080fd5b82016060818503121561203757600080fd5b6000806000806060858703121561232d57600080fd5b843567ffffffffffffffff8082111561234557600080fd5b9086019060a0828903121561235957600080fd5b909450602086013593506040860135908082111561237657600080fd5b5061238387828801612060565b95989497509550505050565b600067ffffffffffffffff8211156123a9576123a961211e565b5060051b60200190565b80151581146112ba57600080fd5b80356123cc816123b3565b919050565b6000606082840312156123e357600080fd5b6123eb61214d565b905081356123f88161203e565b815260208201356124088161203e565b6020820152604082013561241b8161203e565b604082015292915050565b803560ff811681146123cc57600080fd5b600082601f83011261244857600080fd5b813560206124586122708361238f565b8281526060928302850182019282820191908785111561247757600080fd5b8387015b858110156124ce5781818a0312156124935760008081fd5b61249b61214d565b81356124a68161203e565b81526124b3828701612426565b8187015260408281013590820152845292840192810161247b565b5090979650505050505050565b600082601f8301126124ec57600080fd5b813560206124fc6122708361238f565b82815260059290921b8401810191818101908684111561251b57600080fd5b8286015b8481101561264057803567ffffffffffffffff8082111561253f57600080fd5b908801906060828b037fffffffffffffffffffffffffffffffffffffffffffffffffffffffffffffffe00112156125765760008081fd5b61257e61214d565b8683013561258b8161203e565b8152604083810135838111156125a15760008081fd5b8401603f81018d136125b35760008081fd5b888101356125c36122708261238f565b81815260059190911b82018301908a8101908f8311156125e35760008081fd5b928401925b828410156126015783358252928b0192908b01906125e8565b858c015250505060608401358381111561261b5760008081fd5b6126298d8a83880101612251565b91830191909152508552505091830191830161251f565b509695505050505050565b6000806040838503121561265e57600080fd5b67ffffffffffffffff808435111561267557600080fd5b60a0843585018603121561268857600080fd5b612690612176565b84358501803582526020808201359083015260408082013590830152606001358210156126bc57600080fd5b84358501606081013501601f810187136126d557600080fd5b6126e2612270823561238f565b81358082526020808301929160051b84010189101561270057600080fd5b602083015b6020843560051b85010181101561288157858135111561272457600080fd5b7fffffffffffffffffffffffffffffffffffffffffffffffffffffffffffffffe0608081833587018d0301121561275a57600080fd5b612762612199565b876020843588010135111561277657600080fd5b8235860160208101350160e0818e038401121561279257600080fd5b61279a612176565b92506127a9602082013561203e565b602081013583526127bc604082016123c1565b60208401526127ce8d606083016123d1565b60408401528860c082013511156127e457600080fd5b6127f78d602060c0840135840101612437565b60608401528860e0820135111561280d57600080fd5b6128208d602060e0840135840101612437565b6080840152508181526040833587010135602082015260608335870101356040820152876080843588010135111561285757600080fd5b61286d8c843588016080810135016020016124db565b606082015284525060209283019201612705565b5060608401525050843585016080013582101561289d57600080fd5b6128b08686358701608081013501612251565b6080820152925060208401358110156128c857600080fd5b506128d98460208501358501612251565b90509250929050565b600081518084526020808501945080840160005b83811015612941578151805173ffffffffffffffffffffffffffffffffffffffff1688528381015160ff168489015260409081015190880152606090960195908201906001016128f6565b509495945050505050565b600081518084526020808501945080840160005b8381101561294157815187529582019590820190600101612960565b60005b8381101561299757818101518382015260200161297f565b50506000910152565b600081518084526129b881602086016020860161297c565b601f017fffffffffffffffffffffffffffffffffffffffffffffffffffffffffffffffe0169290920160200192915050565b600081518084526020808501808196508360051b8101915082860160005b85811015612a795782840389528151606073ffffffffffffffffffffffffffffffffffffffff8251168652868201518188880152612a488288018261294c565b91505060408083015192508682038188015250612a6581836129a0565b9a87019a9550505090840190600101612a08565b5091979650505050505050565b6000602080835260c0830184518285015281850151604081818701528087015191506060828188015280880151925060a0608081818a015285855180885260e09750878b019150878160051b8c0101898801975060005b82811015612bf0578c82037fffffffffffffffffffffffffffffffffffffffffffffffffffffffffffffff2001845288518051868452805173ffffffffffffffffffffffffffffffffffffffff908116888601528d8201511515898601528a8201518051821660c0870152808f015182168e8701528b0151166101008501528881015161012085018d9052612b766101608601826128e2565b918801518583037fffffffffffffffffffffffffffffffffffffffffffffffffffffffffffffff8001610140870152919050612bb281836128e2565b9150508c8201518d850152898201518a85015288820151915083810389850152612bdc81836129ea565b9a8d019a958d019593505050600101612add565b50838d015199507fffffffffffffffffffffffffffffffffffffffffffffffffffffffffffffffe08c820301858d0152612c2a818b6129a0565b9d9c50505050505050505050505050565b60008060408385031215612c4e57600080fd5b505080516020909101519092909150565b600082601f830112612c7057600080fd5b8151612c7e6122708261220b565b818152846020838601011115612c9357600080fd5b6119c682602083016020870161297c565b600082601f830112612cb557600080fd5b81516020612cc56122708361238f565b82815260059290921b84018101918181019086841115612ce457600080fd5b8286015b848110156126405780518352918301918301612ce8565b600060208284031215612d1157600080fd5b815167ffffffffffffffff80821115612d2957600080fd5b9083019060608286031215612d3d57600080fd5b612d4561214d565b8251612d508161203e565b8152602083015182811115612d6457600080fd5b830160608188031215612d7657600080fd5b612d7e61214d565b8151612d898161203e565b8152602082015184811115612d9d57600080fd5b612da989828501612c5f565b602083015250604082015184811115612dc157600080fd5b612dcd89828501612ca4565b6040830152508060208401525050604083015182811115612ded57600080fd5b612df987828601612c5f565b60408301525095945050505050565b600073ffffffffffffffffffffffffffffffffffffffff80851683526040602084015280845116604084015260208401516060808501528181511660a085015260208101519150606060c0850152612e646101008501836129a0565b9150604081015190507fffffffffffffffffffffffffffffffffffffffffffffffffffffffffffffff608483030160e0850152612ea1828261294c565b91505060408401517fffffffffffffffffffffffffffffffffffffffffffffffffffffffffffffffc0848303016080850152611a3f82826129a0565b7f4e487b7100000000000000000000000000000000000000000000000000000000600052603260045260246000fd5b606081526000612f1f60608301866129a0565b8281036020840152612f31818661294c565b90508281036040840152611a3f818561294c565b600080600060608486031215612f5a57600080fd5b8351612f658161203e565b6020850151909350612f768161203e565b6040850151909250612f878161203e565b809150509250925092565b60008083357fffffffffffffffffffffffffffffffffffffffffffffffffffffffffffffffe1843603018112612fc757600080fd5b83018035915067ffffffffffffffff821115612fe257600080fd5b6020019150600581901b3603821315611caf57600080fd5b60008083357fffffffffffffffffffffffffffffffffffffffffffffffffffffffffffffffe184360301811261302f57600080fd5b830160208101925035905067ffffffffffffffff81111561304f57600080fd5b8060051b3603821315611caf57600080fd5b60008083357fffffffffffffffffffffffffffffffffffffffffffffffffffffffffffffffe184360301811261309657600080fd5b830160208101925035905067ffffffffffffffff8111156130b657600080fd5b606081023603821315611caf57600080fd5b8183526000602080850194508260005b858110156129415781356130eb8161203e565b73ffffffffffffffffffffffffffffffffffffffff16875260ff613110838501612426565b168784015260408281013590880152606096870196909101906001016130d8565b60008083357fffffffffffffffffffffffffffffffffffffffffffffffffffffffffffffffe184360301811261316657600080fd5b830160208101925035905067ffffffffffffffff81111561318657600080fd5b803603821315611caf57600080fd5b8183528181602085013750600060208284010152600060207fffffffffffffffffffffffffffffffffffffffffffffffffffffffffffffffe0601f840116840101905092915050565b81835260006020808501808196506005915085821b81018560005b888110156132ef578383038a5281357fffffffffffffffffffffffffffffffffffffffffffffffffffffffffffffffa189360301811261323857600080fd5b8801606081356132478161203e565b73ffffffffffffffffffffffffffffffffffffffff16855261326b82890183612ffa565b828a8801528083880152608092507f07ffffffffffffffffffffffffffffffffffffffffffffffffffffffffffffff8111156132a657600080fd5b881b8082888501378601905060406132c084820185613131565b94508388840301828901526132d88484018683613195565b9e8b019e97505050938801935050506001016131f9565b509098975050505050505050565b6000604080835260e083018635828501526020606081890135818701526080848a013581880152613330828b018b612ffa565b60a0898101529485905261010094858901600582901b8a0187018360005b84811015613518577fffffffffffffffffffffffffffffffffffffffffffffffffffffffffffffff008d840301845281357fffffffffffffffffffffffffffffffffffffffffffffffffffffffffffffff818736030181126133af57600080fd5b86018035368290037fffffffffffffffffffffffffffffffffffffffffffffffffffffffffffffff210181126133e457600080fd5b888552810180356133f48161203e565b73ffffffffffffffffffffffffffffffffffffffff908116868b0152818c01359061341e826123b3565b90151560a087015260c090828f01356134368161203e565b811687830152828c01356134498161203e565b811660e0880152828b013561345d8161203e565b16868e015261346f60a0830183613061565b60e0610120890152613486610160890182846130c8565b91505061349582840184613061565b935091507fffffffffffffffffffffffffffffffffffffffffffffffffffffffffffffff80878203016101408801526134cf8184846130c8565b925050508a8201358b8601528c8201358d8601526134ef8a830183612ffa565b92508582038b8701526135038284836131de565b968c019695505050918901915060010161334e565b5050613526858f018f613131565b995097507fffffffffffffffffffffffffffffffffffffffffffffffffffffffffffffffc08b82030160c08c015261355f818a8a613195565b9850505050505050848303818601525050611a3f818587613195565b600082357fffffffffffffffffffffffffffffffffffffffffffffffffffffffffffffff818336030181126135af57600080fd5b9190910192915050565b600082357fffffffffffffffffffffffffffffffffffffffffffffffffffffffffffffff218336030181126135af57600080fd5b60008083357fffffffffffffffffffffffffffffffffffffffffffffffffffffffffffffffe184360301811261362257600080fd5b83018035915067ffffffffffffffff82111561363d57600080fd5b6020019150606081023603821315611caf57600080fd5b60006020828403121561366657600080fd5b81356120378161203e565b60006080820173ffffffffffffffffffffffffffffffffffffffff87168352602086818501528560408501526080606085015281855180845260a08601915060a08160051b870101935082870160005b8281101561370d577fffffffffffffffffffffffffffffffffffffffffffffffffffffffffffffff608887030184526136fb86835161294c565b955092840192908401906001016136c1565b50939a9950505050505050505050565b6000806040838503121561373057600080fd5b825167ffffffffffffffff8082111561374857600080fd5b61375486838701612ca4565b9350602085015191508082111561376a57600080fd5b5061377785828601612ca4565b9150509250929050565b8281526040602082015260006119c6604083018461294c565b600073ffffffffffffffffffffffffffffffffffffffff808716835280861660208401525083604083015260806060830152611a3f60808301846129a0565b6000602082840312156137eb57600080fd5b8151612037816123b3565b60006020828403121561380857600080fd5b5051919050565b60008060006060848603121561382457600080fd5b835161382f8161203e565b60208501519093506138408161203e565b604085015190925067ffffffffffffffff81111561385d57600080fd5b61386986828701612c5f565b9150509250925092565b7f4e487b7100000000000000000000000000000000000000000000000000000000600052602160045260246000fd5b600082516135af81846020870161297c565b8281526040602082015260006119c660408301846129a0565b60208152600061203760208301846129a056fe416464726573733a206c6f772d6c6576656c2063616c6c20776974682076616c7565206661696c6564",
    "linkReferences": {}
  },
  "methodIdentifiers": {
    "arb((uint256,uint256,uint256,((address,bool,(address,address,address),(address,uint8,uint256)[],(address,uint8,uint256)[]),uint256,uint256,(address,uint256[],bytes)[])[],bytes),uint256,bytes)": "ae61ec12",
    "initialize((address,(address,bytes,uint256[]),bytes))": "98da8d6a",
    "initialize(bytes)": "439fab91",
    "onFlashLoan(address,address,uint256,uint256,bytes)": "23e30c8b",
    "sI9r()": "71c1dea7",
    "sI9rDispatch()": "89448c3a",
    "sI9rStore()": "61bb39e4",
    "sOrderBook()": "886d1650",
    "supportsInterface(bytes4)": "01ffc9a7"
  },
  "id": 160
}