{"abi":[{"type":"constructor","inputs":[{"name":"config","type":"tuple","internalType":"struct OrderBookV4ArbConfigV2","components":[{"name":"orderBook","type":"address","internalType":"address"},{"name":"task","type":"tuple","internalType":"struct TaskV1","components":[{"name":"evaluable","type":"tuple","internalType":"struct EvaluableV3","components":[{"name":"interpreter","type":"address","internalType":"contract IInterpreterV3"},{"name":"store","type":"address","internalType":"contract IInterpreterStoreV2"},{"name":"bytecode","type":"bytes","internalType":"bytes"}]},{"name":"signedContext","type":"tuple[]","internalType":"struct SignedContextV1[]","components":[{"name":"signer","type":"address","internalType":"address"},{"name":"context","type":"uint256[]","internalType":"uint256[]"},{"name":"signature","type":"bytes","internalType":"bytes"}]}]},{"name":"implementationData","type":"bytes","internalType":"bytes"}]}],"stateMutability":"nonpayable"},{"type":"fallback","stateMutability":"nonpayable"},{"type":"function","name":"arb3","inputs":[{"name":"orderBook","type":"address","internalType":"contract IOrderBookV4"},{"name":"takeOrders","type":"tuple","internalType":"struct TakeOrdersConfigV3","components":[{"name":"minimumInput","type":"uint256","internalType":"uint256"},{"name":"maximumInput","type":"uint256","internalType":"uint256"},{"name":"maximumIORatio","type":"uint256","internalType":"uint256"},{"name":"orders","type":"tuple[]","internalType":"struct TakeOrderConfigV3[]","components":[{"name":"order","type":"tuple","internalType":"struct OrderV3","components":[{"name":"owner","type":"address","internalType":"address"},{"name":"evaluable","type":"tuple","internalType":"struct EvaluableV3","components":[{"name":"interpreter","type":"address","internalType":"contract IInterpreterV3"},{"name":"store","type":"address","internalType":"contract IInterpreterStoreV2"},{"name":"bytecode","type":"bytes","internalType":"bytes"}]},{"name":"validInputs","type":"tuple[]","internalType":"struct IO[]","components":[{"name":"token","type":"address","internalType":"address"},{"name":"decimals","type":"uint8","internalType":"uint8"},{"name":"vaultId","type":"uint256","internalType":"uint256"}]},{"name":"validOutputs","type":"tuple[]","internalType":"struct IO[]","components":[{"name":"token","type":"address","internalType":"address"},{"name":"decimals","type":"uint8","internalType":"uint8"},{"name":"vaultId","type":"uint256","internalType":"uint256"}]},{"name":"nonce","type":"bytes32","internalType":"bytes32"}]},{"name":"inputIOIndex","type":"uint256","internalType":"uint256"},{"name":"outputIOIndex","type":"uint256","internalType":"uint256"},{"name":"signedContext","type":"tuple[]","internalType":"struct SignedContextV1[]","components":[{"name":"signer","type":"address","internalType":"address"},{"name":"context","type":"uint256[]","internalType":"uint256[]"},{"name":"signature","type":"bytes","internalType":"bytes"}]}]},{"name":"data","type":"bytes","internalType":"bytes"}]},{"name":"task","type":"tuple","internalType":"struct TaskV1","components":[{"name":"evaluable","type":"tuple","internalType":"struct EvaluableV3","components":[{"name":"interpreter","type":"address","internalType":"contract IInterpreterV3"},{"name":"store","type":"address","internalType":"contract IInterpreterStoreV2"},{"name":"bytecode","type":"bytes","internalType":"bytes"}]},{"name":"signedContext","type":"tuple[]","internalType":"struct SignedContextV1[]","components":[{"name":"signer","type":"address","internalType":"address"},{"name":"context","type":"uint256[]","internalType":"uint256[]"},{"name":"signature","type":"bytes","internalType":"bytes"}]}]}],"outputs":[],"stateMutability":"payable"},{"type":"function","name":"iTaskHash","inputs":[],"outputs":[{"name":"","type":"bytes32","internalType":"bytes32"}],"stateMutability":"view"},{"type":"function","name":"onTakeOrders","inputs":[{"name":"inputToken","type":"address","internalType":"address"},{"name":"outputToken","type":"address","internalType":"address"},{"name":"inputAmountSent","type":"uint256","internalType":"uint256"},{"name":"totalOutputAmount","type":"uint256","internalType":"uint256"},{"name":"takeOrdersData","type":"bytes","internalType":"bytes"}],"outputs":[],"stateMutability":"nonpayable"},{"type":"function","name":"supportsInterface","inputs":[{"name":"interfaceId","type":"bytes4","internalType":"bytes4"}],"outputs":[{"name":"","type":"bool","internalType":"bool"}],"stateMutability":"view"},{"type":"event","name":"Construct","inputs":[{"name":"sender","type":"address","indexed":false,"internalType":"address"},{"name":"config","type":"tuple","indexed":false,"internalType":"struct OrderBookV4ArbConfigV2","components":[{"name":"orderBook","type":"address","internalType":"address"},{"name":"task","type":"tuple","internalType":"struct TaskV1","components":[{"name":"evaluable","type":"tuple","internalType":"struct EvaluableV3","components":[{"name":"interpreter","type":"address","internalType":"contract IInterpreterV3"},{"name":"store","type":"address","internalType":"contract IInterpreterStoreV2"},{"name":"bytecode","type":"bytes","internalType":"bytes"}]},{"name":"signedContext","type":"tuple[]","internalType":"struct SignedContextV1[]","components":[{"name":"signer","type":"address","internalType":"address"},{"name":"context","type":"uint256[]","internalType":"uint256[]"},{"name":"signature","type":"bytes","internalType":"bytes"}]}]},{"name":"implementationData","type":"bytes","internalType":"bytes"}]}],"anonymous":false},{"type":"error","name":"InvalidSignature","inputs":[{"name":"i","type":"uint256","internalType":"uint256"}]},{"type":"error","name":"NoOrders","inputs":[]},{"type":"error","name":"WrongTask","inputs":[]}],"bytecode":{"object":"0x60a060405234801561000f575f80fd5b506040516133b63803806133b683398101604081905261002e9161033a565b808060015f819055507f584f220334313e589a42a75ac60d4fa6ed5b02329a7255af822a0e4ac9cd5f1d33826040516100689291906105a8565b60405180910390a16020810151516040015151156100b3576020808201516040516100939201610607565b60408051601f1981840301815291905280516020909101206080526100b8565b5f6080525b505050610620565b634e487b7160e01b5f52604160045260245ffd5b604051606081016001600160401b03811182821017156100f6576100f66100c0565b60405290565b604080519081016001600160401b03811182821017156100f6576100f66100c0565b604051601f8201601f191681016001600160401b0381118282101715610146576101466100c0565b604052919050565b6001600160a01b0381168114610162575f80fd5b50565b5f82601f830112610174575f80fd5b81516001600160401b0381111561018d5761018d6100c0565b6101a0601f8201601f191660200161011e565b8181528460208386010111156101b4575f80fd5b8160208501602083015e5f918101602001919091529392505050565b5f6001600160401b038211156101e8576101e86100c0565b5060051b60200190565b5f82601f830112610201575f80fd5b81516020610216610211836101d0565b61011e565b82815260059290921b84018101918181019086841115610234575f80fd5b8286015b8481101561032f5780516001600160401b0380821115610256575f80fd5b908801906060828b03601f1901121561026d575f80fd5b6102756100d4565b868301516102828161014e565b815260408381015183811115610296575f80fd5b8401603f81018d136102a6575f80fd5b888101516102b6610211826101d0565b81815260059190911b82018301908a8101908f8311156102d4575f80fd5b928401925b828410156102f25783518252928b0192908b01906102d9565b858c015250505060608401518381111561030a575f80fd5b6103188d8a83880101610165565b918301919091525085525050918301918301610238565b509695505050505050565b5f602080838503121561034b575f80fd5b82516001600160401b0380821115610361575f80fd5b9084019060608287031215610374575f80fd5b61037c6100d4565b82516103878161014e565b81528284015182811115610399575f80fd5b8301604081890312156103aa575f80fd5b6103b26100fc565b8151848111156103c0575f80fd5b82016060818b0312156103d1575f80fd5b6103d96100d4565b81516103e48161014e565b8152818801516103f38161014e565b81890152604082015186811115610408575f80fd5b6104148c828501610165565b604083015250825250818601518481111561042d575f80fd5b6104398a8285016101f2565b8783015250808684015250506040830151935081841115610458575f80fd5b61046487858501610165565b60408201529695505050505050565b5f81518084528060208401602086015e5f602082860101526020601f19601f83011685010191505092915050565b5f604082516040855260018060a01b03808251166040870152602080830151606083821660608a01526040850151945060809150606060808a01526104e960a08a0186610473565b888401518a82038b860152805180835291965084019084870190600581901b880186015f5b8281101561059757898203601f19018452845180518a168352888101518984018890528051888501819052908a01905f908a8601905b808310156105645783518252928c019260019290920191908c0190610544565b508e84015193508581038f87015261057c8185610473565b9550505050508785019450878401935060018101905061050e565b509c9b505050505050505050505050565b6001600160a01b038381168252604060208084018290528451909216908301528201516060808301525f906105e060a08401826104a1565b90506040840151603f198483030160808501526105fd8282610473565b9695505050505050565b602081525f61061960208301846104a1565b9392505050565b608051612d716106455f395f818160c2015281816102b201526103030152612d715ff3fe60806040526004361061003e575f3560e01c806301ffc9a71461004b578063059bebe61461007f5780637ea0b76a1461009e57806393be095e146100b1575b348015610049575f80fd5b005b348015610056575f80fd5b5061006a610065366004611af9565b6100f2565b60405190151581526020015b60405180910390f35b34801561008a575f80fd5b50610049610099366004611b5c565b6101d6565b6100496100ac366004611bfe565b61029f565b3480156100bc575f80fd5b506100e47f000000000000000000000000000000000000000000000000000000000000000081565b604051908152602001610076565b5f7fffffffff0000000000000000000000000000000000000000000000000000000082167f059bebe600000000000000000000000000000000000000000000000000000000148061018457507fffffffff0000000000000000000000000000000000000000000000000000000082167f7ea0b76a00000000000000000000000000000000000000000000000000000000145b806101d057507f01ffc9a7000000000000000000000000000000000000000000000000000000007fffffffff000000000000000000000000000000000000000000000000000000008316145b92915050565b5f80806101e584860186611dce565b9194509250905061020d73ffffffffffffffffffffffffffffffffffffffff8a16845f610617565b61024e73ffffffffffffffffffffffffffffffffffffffff8a16847fffffffffffffffffffffffffffffffffffffffffffffffffffffffffffffffff610617565b5f61027073ffffffffffffffffffffffffffffffffffffffff8416834761081a565b905061029373ffffffffffffffffffffffffffffffffffffffff8b16855f610617565b50505050505050505050565b6102a761084a565b6102b081611fb6565b7f0000000000000000000000000000000000000000000000000000000000000000158015906103255750806040516020016102eb91906120f8565b604051602081830303815290604052805190602001207f000000000000000000000000000000000000000000000000000000000000000014155b1561035c576040517f8812562900000000000000000000000000000000000000000000000000000000815260040160405180910390fd5b6103696060840184612201565b90505f036103a3576040517f9c95219f00000000000000000000000000000000000000000000000000000000815260040160405180910390fd5b5f6103b16060850185612201565b5f8181106103c1576103c1612265565b90506020028101906103d39190612292565b6103dd90806122ce565b6103eb906040810190612300565b6103f86060870187612201565b5f81811061040857610408612265565b905060200281019061041a9190612292565b6020013581811061042d5761042d612265565b6104439260206060909202019081019150612363565b90505f6104536060860186612201565b5f81811061046357610463612265565b90506020028101906104759190612292565b61047f90806122ce565b61048d906060810190612300565b61049a6060880188612201565b5f8181106104aa576104aa612265565b90506020028101906104bc9190612292565b604001358181106104cf576104cf612265565b6104e59260206060909202019081019150612363565b905061050873ffffffffffffffffffffffffffffffffffffffff8316875f610617565b61054973ffffffffffffffffffffffffffffffffffffffff8316877fffffffffffffffffffffffffffffffffffffffffffffffffffffffffffffffff610617565b5f808773ffffffffffffffffffffffffffffffffffffffff16630997c4a0886040518263ffffffff1660e01b815260040161058491906126af565b60408051808303815f875af115801561059f573d5f803e3d5ffd5b505050506040513d601f19601f820116820180604052508101906105c3919061292d565b90925090506105e973ffffffffffffffffffffffffffffffffffffffff8516895f610617565b6105fc6105f587611fb6565b85856108bb565b505050505061060a60015f55565b505050565b505050505050565b8015806106b557506040517fdd62ed3e00000000000000000000000000000000000000000000000000000000815230600482015273ffffffffffffffffffffffffffffffffffffffff838116602483015284169063dd62ed3e90604401602060405180830381865afa15801561068f573d5f803e3d5ffd5b505050506040513d601f19601f820116820180604052508101906106b3919061294f565b155b610746576040517f08c379a000000000000000000000000000000000000000000000000000000000815260206004820152603660248201527f5361666545524332303a20617070726f76652066726f6d206e6f6e2d7a65726f60448201527f20746f206e6f6e2d7a65726f20616c6c6f77616e63650000000000000000000060648201526084015b60405180910390fd5b60405173ffffffffffffffffffffffffffffffffffffffff831660248201526044810182905261060a9084907f095ea7b300000000000000000000000000000000000000000000000000000000906064015b604080517fffffffffffffffffffffffffffffffffffffffffffffffffffffffffffffffe08184030181529190526020810180517bffffffffffffffffffffffffffffffffffffffffffffffffffffffff167fffffffff0000000000000000000000000000000000000000000000000000000090931692909217909152610c7e565b6060610840848484604051806060016040528060298152602001612d4860299139610d8b565b90505b9392505050565b60025f54036108b5576040517f08c379a000000000000000000000000000000000000000000000000000000000815260206004820152601f60248201527f5265656e7472616e637947756172643a207265656e7472616e742063616c6c00604482015260640161073d565b60025f55565b6040805160018082528183019092525f91816020015b60608152602001906001900390816108d1575050604080516003808252608082019092529192505f919060208201606080368337019050506040517f70a082310000000000000000000000000000000000000000000000000000000081523060048201529091505f9073ffffffffffffffffffffffffffffffffffffffff8616906370a0823190602401602060405180830381865afa158015610976573d5f803e3d5ffd5b505050506040513d601f19601f8201168201806040525081019061099a919061294f565b905080156109c3576109c373ffffffffffffffffffffffffffffffffffffffff86163383610ea2565b5f8573ffffffffffffffffffffffffffffffffffffffff1663313ce5676040518163ffffffff1660e01b8152600401602060405180830381865afa158015610a0d573d5f803e3d5ffd5b505050506040513d601f19601f82011682018060405250810190610a319190612966565b60ff169050610a4182825f610ef8565b835f81518110610a5357610a53612265565b602090810291909101015250506040517f70a082310000000000000000000000000000000000000000000000000000000081523060048201525f9073ffffffffffffffffffffffffffffffffffffffff8516906370a0823190602401602060405180830381865afa158015610aca573d5f803e3d5ffd5b505050506040513d601f19601f82011682018060405250810190610aee919061294f565b90508015610b1757610b1773ffffffffffffffffffffffffffffffffffffffff85163383610ea2565b5f8473ffffffffffffffffffffffffffffffffffffffff1663313ce5676040518163ffffffff1660e01b8152600401602060405180830381865afa158015610b61573d5f803e3d5ffd5b505050506040513d601f19601f82011682018060405250810190610b859190612966565b60ff169050610b9582825f610ef8565b83600181518110610ba857610ba8612265565b602090810291909101015250479050610bc13382610f7c565b8082600281518110610bd557610bd5612265565b6020026020010181815250505080825f81518110610bf557610bf5612265565b60209081029190910101526040805160018082528183019092525f91816020015b6040805160a0810182525f9181018281526060808301939093526080820183905281526020810191909152815260200190600190039081610c1657905050905085815f81518110610c6957610c69612265565b602002602001018190525061060f83826110d2565b5f610cdf826040518060400160405280602081526020017f5361666545524332303a206c6f772d6c6576656c2063616c6c206661696c65648152508573ffffffffffffffffffffffffffffffffffffffff166112d89092919063ffffffff16565b905080515f1480610cff575080806020019051810190610cff9190612981565b61060a576040517f08c379a000000000000000000000000000000000000000000000000000000000815260206004820152602a60248201527f5361666545524332303a204552433230206f7065726174696f6e20646964206e60448201527f6f74207375636365656400000000000000000000000000000000000000000000606482015260840161073d565b606082471015610e1d576040517f08c379a000000000000000000000000000000000000000000000000000000000815260206004820152602660248201527f416464726573733a20696e73756666696369656e742062616c616e636520666f60448201527f722063616c6c0000000000000000000000000000000000000000000000000000606482015260840161073d565b5f808673ffffffffffffffffffffffffffffffffffffffff168587604051610e4591906129a0565b5f6040518083038185875af1925050503d805f8114610e7f576040519150601f19603f3d011682016040523d82523d5f602084013e610e84565b606091505b5091509150610e95878383876112e6565b925050505b949350505050565b60405173ffffffffffffffffffffffffffffffffffffffff831660248201526044810182905261060a9084907fa9059cbb0000000000000000000000000000000000000000000000000000000090606401610798565b5f8260121115610f2c5760128390036002831615610f2257610f1a8582611385565b915050610843565b610f1a8582611410565b6012831115610f75577fffffffffffffffffffffffffffffffffffffffffffffffffffffffffffffffee83016001831615610f6b57610f1a8582611447565b610f1a8582611493565b5082610843565b80471015610fe6576040517f08c379a000000000000000000000000000000000000000000000000000000000815260206004820152601d60248201527f416464726573733a20696e73756666696369656e742062616c616e6365000000604482015260640161073d565b5f8273ffffffffffffffffffffffffffffffffffffffff16826040515f6040518083038185875af1925050503d805f811461103c576040519150601f19603f3d011682016040523d82523d5f602084013e611041565b606091505b505090508061060a576040517f08c379a000000000000000000000000000000000000000000000000000000000815260206004820152603a60248201527f416464726573733a20756e61626c6520746f2073656e642076616c75652c207260448201527f6563697069656e74206d61792068617665207265766572746564000000000000606482015260840161073d565b336111046040805160a0810182525f918101828152606080830193909352608082018390528152602081019190915290565b5f5b83518110156112d15783818151811061112157611121612265565b602002602001015191505f825f0151604001515111156112c957815180516020918201515f8681523090935260408320839273ffffffffffffffffffffffffffffffffffffffff169163d6e3357a91875f0151604001515f6111878d8b602001516114b5565b604080515f815260208101918290527fffffffff0000000000000000000000000000000000000000000000000000000060e089901b169091526111d2959493929190602481016129b6565b5f60405180830381865afa1580156111ec573d5f803e3d5ffd5b505050506040513d5f823e601f3d9081017fffffffffffffffffffffffffffffffffffffffffffffffffffffffffffffffe01682016040526112319190810190612ade565b80519193509150156112c6578351602001516040517f946aadc600000000000000000000000000000000000000000000000000000000815273ffffffffffffffffffffffffffffffffffffffff9091169063946aadc6906112989088908590600401612b3e565b5f604051808303815f87803b1580156112af575f80fd5b505af11580156112c1573d5f803e3d5ffd5b505050505b50505b600101611106565b5050505050565b606061084084845f85610d8b565b6060831561137b5782515f036113745773ffffffffffffffffffffffffffffffffffffffff85163b611374576040517f08c379a000000000000000000000000000000000000000000000000000000000815260206004820152601d60248201527f416464726573733a2063616c6c20746f206e6f6e2d636f6e7472616374000000604482015260640161073d565b5081610e9a565b610e9a83836117bb565b5f604e82106113c35782156113ba577fffffffffffffffffffffffffffffffffffffffffffffffffffffffffffffffff6113bc565b5f5b90506101d0565b50600a81900a82810290838183816113dd576113dd612b56565b0414611409577fffffffffffffffffffffffffffffffffffffffffffffffffffffffffffffffff610e9a565b5092915050565b600a81900a61141f8184612bb0565b9050604e82106101d057821561143f5761143a82600a612ce5565b610843565b5f9392505050565b5f604e821061146957821561145d57600161145f565b5f5b60ff1690506101d0565b600a82900a80848161147d5761147d612b56565b0491508082028414611409575060010192915050565b5f604e82101561143f5781600a0a83816114af576114af612b56565b04610843565b60605f825167ffffffffffffffff8111156114d2576114d2611c7c565b6040519080825280602002602001820160405280156114fb578160200160208202803683370190505b5090505f8084511161150d575f611513565b83516001015b85516001010190505f8167ffffffffffffffff81111561153557611535611c7c565b60405190808252806020026020018201604052801561156857816020015b60608152602001906001900390816115535790505b5090505f61158c604080516002815233602082015230818301526060810190915290565b82828151811061159e5761159e612265565b60200260200101819052505f5b87518110156115fb5781806001019250508781815181106115ce576115ce612265565b60200260200101518383815181106115e8576115e8612265565b60209081029190910101526001016115ab565b508551156117b15780806001019150508382828151811061161e5761161e612265565b60200260200101819052505f5b86518110156117af576116da87828151811061164957611649612265565b60200260200101515f01516116b76116858a858151811061166c5761166c612265565b6020026020010151602001518051602090810291012090565b7f19457468657265756d205369676e6564204d6573736167653a0a3332000000005f908152601c91909152603c902090565b8984815181106116c9576116c9612265565b6020026020010151604001516117ff565b611713576040517f52bf98480000000000000000000000000000000000000000000000000000000081526004810182905260240161073d565b86818151811061172557611725612265565b60200260200101515f015173ffffffffffffffffffffffffffffffffffffffff1685828151811061175857611758612265565b602002602001018181525050818060010192505086818151811061177e5761177e612265565b60200260200101516020015183838151811061179c5761179c612265565b602090810291909101015260010161162b565b505b5095945050505050565b8151156117cb5781518083602001fd5b806040517f08c379a000000000000000000000000000000000000000000000000000000000815260040161073d9190612cf0565b5f805f61180c8585611877565b90925090505f81600481111561182457611824612d02565b14801561185c57508573ffffffffffffffffffffffffffffffffffffffff168273ffffffffffffffffffffffffffffffffffffffff16145b8061186d575061186d8686866118b9565b9695505050505050565b5f8082516041036118ab576020830151604084015160608501515f1a61189f87828585611a11565b945094505050506118b2565b505f905060025b9250929050565b5f805f8573ffffffffffffffffffffffffffffffffffffffff16631626ba7e60e01b86866040516024016118ee929190612d2f565b604080517fffffffffffffffffffffffffffffffffffffffffffffffffffffffffffffffe08184030181529181526020820180517bffffffffffffffffffffffffffffffffffffffffffffffffffffffff167fffffffff0000000000000000000000000000000000000000000000000000000090941693909317909252905161197791906129a0565b5f60405180830381855afa9150503d805f81146119af576040519150601f19603f3d011682016040523d82523d5f602084013e6119b4565b606091505b50915091508180156119c857506020815110155b801561186d575080517f1626ba7e0000000000000000000000000000000000000000000000000000000090611a06908301602090810190840161294f565b149695505050505050565b5f807f7fffffffffffffffffffffffffffffff5d576e7357a4501ddfe92f46681b20a0831115611a4657505f90506003611af0565b604080515f8082526020820180845289905260ff881692820192909252606081018690526080810185905260019060a0016020604051602081039080840390855afa158015611a97573d5f803e3d5ffd5b50506040517fffffffffffffffffffffffffffffffffffffffffffffffffffffffffffffffe0015191505073ffffffffffffffffffffffffffffffffffffffff8116611aea575f60019250925050611af0565b91505f90505b94509492505050565b5f60208284031215611b09575f80fd5b81357fffffffff0000000000000000000000000000000000000000000000000000000081168114610843575f80fd5b73ffffffffffffffffffffffffffffffffffffffff81168114611b59575f80fd5b50565b5f805f805f8060a08789031215611b71575f80fd5b8635611b7c81611b38565b95506020870135611b8c81611b38565b94506040870135935060608701359250608087013567ffffffffffffffff80821115611bb6575f80fd5b818901915089601f830112611bc9575f80fd5b813581811115611bd7575f80fd5b8a6020828501011115611be8575f80fd5b6020830194508093505050509295509295509295565b5f805f60608486031215611c10575f80fd5b8335611c1b81611b38565b9250602084013567ffffffffffffffff80821115611c37575f80fd5b9085019060a08288031215611c4a575f80fd5b90925060408501359080821115611c5f575f80fd5b50840160408187031215611c71575f80fd5b809150509250925092565b7f4e487b71000000000000000000000000000000000000000000000000000000005f52604160045260245ffd5b6040516060810167ffffffffffffffff81118282101715611ccc57611ccc611c7c565b60405290565b6040805190810167ffffffffffffffff81118282101715611ccc57611ccc611c7c565b604051601f82017fffffffffffffffffffffffffffffffffffffffffffffffffffffffffffffffe016810167ffffffffffffffff81118282101715611d3c57611d3c611c7c565b604052919050565b5f82601f830112611d53575f80fd5b813567ffffffffffffffff811115611d6d57611d6d611c7c565b611d9e60207fffffffffffffffffffffffffffffffffffffffffffffffffffffffffffffffe0601f84011601611cf5565b818152846020838601011115611db2575f80fd5b816020850160208301375f918101602001919091529392505050565b5f805f60608486031215611de0575f80fd5b8335611deb81611b38565b92506020840135611dfb81611b38565b9150604084013567ffffffffffffffff811115611e16575f80fd5b611e2286828701611d44565b9150509250925092565b5f67ffffffffffffffff821115611e4557611e45611c7c565b5060051b60200190565b5f82601f830112611e5e575f80fd5b81356020611e73611e6e83611e2c565b611cf5565b82815260059290921b84018101918181019086841115611e91575f80fd5b8286015b84811015611fab57803567ffffffffffffffff80821115611eb4575f80fd5b908801906060828b037fffffffffffffffffffffffffffffffffffffffffffffffffffffffffffffffe0011215611ee9575f80fd5b611ef1611ca9565b86830135611efe81611b38565b815260408381013583811115611f12575f80fd5b8401603f81018d13611f22575f80fd5b88810135611f32611e6e82611e2c565b81815260059190911b82018301908a8101908f831115611f50575f80fd5b928401925b82841015611f6e5783358252928b0192908b0190611f55565b858c0152505050606084013583811115611f86575f80fd5b611f948d8a83880101611d44565b918301919091525085525050918301918301611e95565b509695505050505050565b5f60408236031215611fc6575f80fd5b611fce611cd2565b823567ffffffffffffffff80821115611fe5575f80fd5b818501915060608236031215611ff9575f80fd5b612001611ca9565b823561200c81611b38565b8152602083013561201c81611b38565b6020820152604083013582811115612032575f80fd5b61203e36828601611d44565b60408301525083526020850135915080821115612059575f80fd5b5061206636828601611e4f565b60208301525092915050565b5f81518084528060208401602086015e5f6020828601015260207fffffffffffffffffffffffffffffffffffffffffffffffffffffffffffffffe0601f83011685010191505092915050565b5f815180845260208085019450602084015f5b838110156120ed578151875295820195908201906001016120d1565b509495945050505050565b5f6020808352606084516040808487015273ffffffffffffffffffffffffffffffffffffffff808351166060880152808584015116608088015260408301519250606060a088015261214d60c0880184612072565b9250848801517fffffffffffffffffffffffffffffffffffffffffffffffffffffffffffffffe0808986030160408a01528482518087528887019150888160051b88010189850194505f5b828110156121f0578489830301845285518781511683528b8101518b8d8501526121c48c8501826120be565b918a0151848303858c01529190506121dc8183612072565b978d0197958d019593505050600101612198565b509c9b505050505050505050505050565b5f8083357fffffffffffffffffffffffffffffffffffffffffffffffffffffffffffffffe1843603018112612234575f80fd5b83018035915067ffffffffffffffff82111561224e575f80fd5b6020019150600581901b36038213156118b2575f80fd5b7f4e487b71000000000000000000000000000000000000000000000000000000005f52603260045260245ffd5b5f82357fffffffffffffffffffffffffffffffffffffffffffffffffffffffffffffff818336030181126122c4575f80fd5b9190910192915050565b5f82357fffffffffffffffffffffffffffffffffffffffffffffffffffffffffffffff618336030181126122c4575f80fd5b5f8083357fffffffffffffffffffffffffffffffffffffffffffffffffffffffffffffffe1843603018112612333575f80fd5b83018035915067ffffffffffffffff82111561234d575f80fd5b60200191506060810236038213156118b2575f80fd5b5f60208284031215612373575f80fd5b813561084381611b38565b5f8083357fffffffffffffffffffffffffffffffffffffffffffffffffffffffffffffffe18436030181126123b1575f80fd5b830160208101925035905067ffffffffffffffff8111156123d0575f80fd5b8060051b36038213156118b2575f80fd5b5f82357fffffffffffffffffffffffffffffffffffffffffffffffffffffffffffffffa1833603018112612413575f80fd5b90910192915050565b5f8083357fffffffffffffffffffffffffffffffffffffffffffffffffffffffffffffffe184360301811261244f575f80fd5b830160208101925035905067ffffffffffffffff81111561246e575f80fd5b8036038213156118b2575f80fd5b81835281816020850137505f602082840101525f60207fffffffffffffffffffffffffffffffffffffffffffffffffffffffffffffffe0601f840116840101905092915050565b5f8083357fffffffffffffffffffffffffffffffffffffffffffffffffffffffffffffffe18436030181126124f6575f80fd5b830160208101925035905067ffffffffffffffff811115612515575f80fd5b6060810236038213156118b2575f80fd5b60ff81168114611b59575f80fd5b8183525f60208085019450825f5b858110156120ed57813561255581611b38565b73ffffffffffffffffffffffffffffffffffffffff1687528183013561257a81612526565b60ff16878401526040828101359088015260609687019690910190600101612542565b8183526020808401935f91600585811b8301820185855b888110156126a1577fffffffffffffffffffffffffffffffffffffffffffffffffffffffffffffffe0868403018a526125ed82896123e1565b606081356125fa81611b38565b73ffffffffffffffffffffffffffffffffffffffff16855261261e8288018361237e565b82898801528083880152608092507f07ffffffffffffffffffffffffffffffffffffffffffffffffffffffffffffff811115612658575f80fd5b871b8082888501378601905060406126728482018561241c565b945083888403018289015261268a848401868361247c565b9e8a019e97505050938701935050506001016125b4565b509098975050505050505050565b5f602080835260c0830184358285015260408286013581860152606081870135818701526126df8188018861237e565b60a060808901528481865260e08901905060e08260051b8a01019550825f5b838110156128e2577fffffffffffffffffffffffffffffffffffffffffffffffffffffffffffffff208b890301835281357fffffffffffffffffffffffffffffffffffffffffffffffffffffffffffffff8186360301811261275e575f80fd5b85018035368290037fffffffffffffffffffffffffffffffffffffffffffffffffffffffffffffff61018112612792575f80fd5b60808a52810180356127a381611b38565b73ffffffffffffffffffffffffffffffffffffffff80821660808d01526127cc8d8401846123e1565b915060a0808d015281356127df81611b38565b81166101208d0152818d01356127f481611b38565b166101408c0152612807818b018261241c565b9150896101608d015261281f6101808d01838361247c565b91505061282e8a8301836124c3565b7fffffffffffffffffffffffffffffffffffffffffffffffffffffffffffffff80808e85030160c08f0152612864848385612534565b93506128728c8601866124c3565b93509150808e85030160e08f01525061288c838383612534565b9250505060808201356101008c01528b8301358c8c0152898301358a8c01526128b78984018461237e565b935091508a8103898c01526128cd81848461259d565b9a5050509289019250908801906001016126fe565b505050505050506128f6608086018661241c565b92507fffffffffffffffffffffffffffffffffffffffffffffffffffffffffffffffe08583030160a086015261186d82848361247c565b5f806040838503121561293e575f80fd5b505080516020909101519092909150565b5f6020828403121561295f575f80fd5b5051919050565b5f60208284031215612976575f80fd5b815161084381612526565b5f60208284031215612991575f80fd5b81518015158114610843575f80fd5b5f82518060208501845e5f920191825250919050565b73ffffffffffffffffffffffffffffffffffffffff871681525f6020878184015260c060408401526129eb60c0840188612072565b86606085015283810360808501528086518083528383019150838160051b8401018489015f5b83811015612a5d577fffffffffffffffffffffffffffffffffffffffffffffffffffffffffffffffe0868403018552612a4b8383516120be565b94870194925090860190600101612a11565b505086810360a0880152612a7181896120be565b9d9c50505050505050505050505050565b5f82601f830112612a91575f80fd5b81516020612aa1611e6e83611e2c565b8083825260208201915060208460051b870101935086841115612ac2575f80fd5b602086015b84811015611fab5780518352918301918301612ac7565b5f8060408385031215612aef575f80fd5b825167ffffffffffffffff80821115612b06575f80fd5b612b1286838701612a82565b93506020850151915080821115612b27575f80fd5b50612b3485828601612a82565b9150509250929050565b828152604060208201525f61084060408301846120be565b7f4e487b71000000000000000000000000000000000000000000000000000000005f52601260045260245ffd5b7f4e487b71000000000000000000000000000000000000000000000000000000005f52601160045260245ffd5b80820281158282048414176101d0576101d0612b83565b600181815b80851115612c2057817fffffffffffffffffffffffffffffffffffffffffffffffffffffffffffffffff04821115612c0657612c06612b83565b80851615612c1357918102915b93841c9390800290612bcc565b509250929050565b5f82612c36575060016101d0565b81612c4257505f6101d0565b8160018114612c585760028114612c6257612c7e565b60019150506101d0565b60ff841115612c7357612c73612b83565b50506001821b6101d0565b5060208310610133831016604e8410600b8410161715612ca1575081810a6101d0565b612cab8383612bc7565b807fffffffffffffffffffffffffffffffffffffffffffffffffffffffffffffffff04821115612cdd57612cdd612b83565b029392505050565b5f6108438383612c28565b602081525f6108436020830184612072565b7f4e487b71000000000000000000000000000000000000000000000000000000005f52602160045260245ffd5b828152604060208201525f610840604083018461207256fe416464726573733a206c6f772d6c6576656c2063616c6c20776974682076616c7565206661696c6564","linkReferences":{}},"methodIdentifiers":{"arb3(address,(uint256,uint256,uint256,((address,(address,address,bytes),(address,uint8,uint256)[],(address,uint8,uint256)[],bytes32),uint256,uint256,(address,uint256[],bytes)[])[],bytes),((address,address,bytes),(address,uint256[],bytes)[]))":"7ea0b76a","iTaskHash()":"93be095e","onTakeOrders(address,address,uint256,uint256,bytes)":"059bebe6","supportsInterface(bytes4)":"01ffc9a7"}}