{
  "abi": [
    {
      "inputs": [
        {
          "internalType": "address",
          "name": "badInitiator",
          "type": "address"
        }
      ],
      "name": "BadInitiator",
      "type": "error"
    },
    {
      "inputs": [
        {
          "internalType": "address",
          "name": "badLender",
          "type": "address"
        }
      ],
      "name": "BadLender",
      "type": "error"
    },
    {
      "inputs": [],
      "name": "FlashLoanFailed",
      "type": "error"
    },
    {
      "inputs": [],
      "name": "Initializing",
      "type": "error"
    },
    {
      "inputs": [
        {
          "internalType": "uint256",
          "name": "i",
          "type": "uint256"
        }
      ],
      "name": "InvalidSignature",
      "type": "error"
    },
    {
      "inputs": [
        {
          "internalType": "uint256",
          "name": "minimum",
          "type": "uint256"
        },
        {
          "internalType": "uint256",
          "name": "actual",
          "type": "uint256"
        }
      ],
      "name": "MinimumOutput",
      "type": "error"
    },
    {
      "anonymous": false,
      "inputs": [
        {
          "indexed": false,
          "internalType": "address",
          "name": "sender",
          "type": "address"
        },
        {
          "components": [
            {
              "internalType": "address",
              "name": "orderBook",
              "type": "address"
            },
            {
              "components": [
                {
                  "internalType": "contract IExpressionDeployerV1",
                  "name": "deployer",
                  "type": "address"
                },
                {
                  "internalType": "bytes[]",
                  "name": "sources",
                  "type": "bytes[]"
                },
                {
                  "internalType": "uint256[]",
                  "name": "constants",
                  "type": "uint256[]"
                }
              ],
              "internalType": "struct EvaluableConfig",
              "name": "evaluableConfig",
              "type": "tuple"
            },
            {
              "internalType": "bytes",
              "name": "implementationData",
              "type": "bytes"
            }
          ],
          "indexed": false,
          "internalType": "struct OrderBookFlashBorrowerConfig",
          "name": "config",
          "type": "tuple"
        }
      ],
      "name": "Initialize",
      "type": "event"
    },
    {
      "anonymous": false,
      "inputs": [
        {
          "indexed": false,
          "internalType": "uint8",
          "name": "version",
          "type": "uint8"
        }
      ],
      "name": "Initialized",
      "type": "event"
    },
    {
      "stateMutability": "nonpayable",
      "type": "fallback"
    },
    {
      "inputs": [
        {
          "components": [
            {
              "internalType": "address",
              "name": "output",
              "type": "address"
            },
            {
              "internalType": "address",
              "name": "input",
              "type": "address"
            },
            {
              "internalType": "uint256",
              "name": "minimumInput",
              "type": "uint256"
            },
            {
              "internalType": "uint256",
              "name": "maximumInput",
              "type": "uint256"
            },
            {
              "internalType": "uint256",
              "name": "maximumIORatio",
              "type": "uint256"
            },
            {
              "components": [
                {
                  "components": [
                    {
                      "internalType": "address",
                      "name": "owner",
                      "type": "address"
                    },
                    {
                      "internalType": "bool",
                      "name": "handleIO",
                      "type": "bool"
                    },
                    {
                      "components": [
                        {
                          "internalType": "contract IInterpreterV1",
                          "name": "interpreter",
                          "type": "address"
                        },
                        {
                          "internalType": "contract IInterpreterStoreV1",
                          "name": "store",
                          "type": "address"
                        },
                        {
                          "internalType": "address",
                          "name": "expression",
                          "type": "address"
                        }
                      ],
                      "internalType": "struct Evaluable",
                      "name": "evaluable",
                      "type": "tuple"
                    },
                    {
                      "components": [
                        {
                          "internalType": "address",
                          "name": "token",
                          "type": "address"
                        },
                        {
                          "internalType": "uint8",
                          "name": "decimals",
                          "type": "uint8"
                        },
                        {
                          "internalType": "uint256",
                          "name": "vaultId",
                          "type": "uint256"
                        }
                      ],
                      "internalType": "struct IO[]",
                      "name": "validInputs",
                      "type": "tuple[]"
                    },
                    {
                      "components": [
                        {
                          "internalType": "address",
                          "name": "token",
                          "type": "address"
                        },
                        {
                          "internalType": "uint8",
                          "name": "decimals",
                          "type": "uint8"
                        },
                        {
                          "internalType": "uint256",
                          "name": "vaultId",
                          "type": "uint256"
                        }
                      ],
                      "internalType": "struct IO[]",
                      "name": "validOutputs",
                      "type": "tuple[]"
                    }
                  ],
                  "internalType": "struct Order",
                  "name": "order",
                  "type": "tuple"
                },
                {
                  "internalType": "uint256",
                  "name": "inputIOIndex",
                  "type": "uint256"
                },
                {
                  "internalType": "uint256",
                  "name": "outputIOIndex",
                  "type": "uint256"
                },
                {
                  "components": [
                    {
                      "internalType": "address",
                      "name": "signer",
                      "type": "address"
                    },
                    {
                      "internalType": "uint256[]",
                      "name": "context",
                      "type": "uint256[]"
                    },
                    {
                      "internalType": "bytes",
                      "name": "signature",
                      "type": "bytes"
                    }
                  ],
                  "internalType": "struct SignedContextV1[]",
                  "name": "signedContext",
                  "type": "tuple[]"
                }
              ],
              "internalType": "struct TakeOrderConfig[]",
              "name": "orders",
              "type": "tuple[]"
            }
          ],
          "internalType": "struct TakeOrdersConfig",
          "name": "takeOrders_",
          "type": "tuple"
        },
        {
          "internalType": "uint256",
          "name": "minimumSenderOutput_",
          "type": "uint256"
        },
        {
          "internalType": "bytes",
          "name": "exchangeData_",
          "type": "bytes"
        }
      ],
      "name": "arb",
      "outputs": [],
      "stateMutability": "nonpayable",
      "type": "function"
    },
    {
      "inputs": [
        {
          "internalType": "bytes",
          "name": "data_",
          "type": "bytes"
        }
      ],
      "name": "initialize",
      "outputs": [],
      "stateMutability": "nonpayable",
      "type": "function"
    },
    {
      "inputs": [
        {
          "internalType": "address",
          "name": "initiator_",
          "type": "address"
        },
        {
          "internalType": "address",
          "name": "",
          "type": "address"
        },
        {
          "internalType": "uint256",
          "name": "",
          "type": "uint256"
        },
        {
          "internalType": "uint256",
          "name": "",
          "type": "uint256"
        },
        {
          "internalType": "bytes",
          "name": "data_",
          "type": "bytes"
        }
      ],
      "name": "onFlashLoan",
      "outputs": [
        {
          "internalType": "bytes32",
          "name": "",
          "type": "bytes32"
        }
      ],
      "stateMutability": "nonpayable",
      "type": "function"
    },
    {
      "inputs": [],
      "name": "orderBook",
      "outputs": [
        {
          "internalType": "contract IOrderBookV2",
          "name": "",
          "type": "address"
        }
      ],
      "stateMutability": "view",
      "type": "function"
    }
  ],
  "bytecode": {
    "object": "0x60806040523480156200001157600080fd5b5060016000556200002162000027565b620000e9565b600154610100900460ff1615620000945760405162461bcd60e51b815260206004820152602760248201527f496e697469616c697a61626c653a20636f6e747261637420697320696e697469604482015266616c697a696e6760c81b606482015260840160405180910390fd5b60015460ff9081161015620000e7576001805460ff191660ff9081179091556040519081527f7f26b83ff96e1f2b6a682f133852f6798a09c465da95921460cefb38474024989060200160405180910390a15b565b6133e380620000f96000396000f3fe608060405234801561001057600080fd5b506004361061004c5760003560e01c806323e30c8b14610090578063439fab91146100b6578063764d1aa1146100c9578063776af5ba146100dc575b600154610100900460ff161561008e576040517f4e8f6c4400000000000000000000000000000000000000000000000000000000815260040160405180910390fd5b005b6100a361009e366004611c16565b610127565b6040519081526020015b60405180910390f35b61008e6100c4366004611e3e565b610322565b61008e6100d7366004611e73565b6106f5565b6001546101029062010000900473ffffffffffffffffffffffffffffffffffffffff1681565b60405173ffffffffffffffffffffffffffffffffffffffff90911681526020016100ad565b600154600090610100900460ff161561016c576040517f4e8f6c4400000000000000000000000000000000000000000000000000000000815260040160405180910390fd5b60015462010000900473ffffffffffffffffffffffffffffffffffffffff1633146101ca576040517f0bc3cde00000000000000000000000000000000000000000000000000000000081523360048201526024015b60405180910390fd5b73ffffffffffffffffffffffffffffffffffffffff87163014610231576040517f8b1f7c6400000000000000000000000000000000000000000000000000000000815273ffffffffffffffffffffffffffffffffffffffff881660048201526024016101c1565b600080610240848601866121a7565b9150915061024e8282610cc7565b6001546040517f7a8048df00000000000000000000000000000000000000000000000000000000815260009182916201000090910473ffffffffffffffffffffffffffffffffffffffff1690637a8048df906102ae9087906004016125de565b60408051808303816000875af11580156102cc573d6000803e3d6000fd5b505050506040513d601f19601f820116820180604052508101906102f09190612776565b507f439148f0bbc682ca079e46d6e2c2f0c1e3b820f1a291b069d8882abf8cf18dd99c9b505050505050505050505050565b600154610100900460ff161580801561033f57506001805460ff16105b806103585750303b15801561035857506001805460ff16145b6103e4576040517f08c379a000000000000000000000000000000000000000000000000000000000815260206004820152602e60248201527f496e697469616c697a61626c653a20636f6e747261637420697320616c72656160448201527f647920696e697469616c697a656400000000000000000000000000000000000060648201526084016101c1565b600180547fffffffffffffffffffffffffffffffffffffffffffffffffffffffffffffff001681179055801561044157600180547fffffffffffffffffffffffffffffffffffffffffffffffffffffffffffff00ff166101001790555b610449610daa565b60008280602001905181019061045f919061283a565b905080516001805473ffffffffffffffffffffffffffffffffffffffff90921662010000027fffffffffffffffffffff0000000000000000000000000000000000000000ffff9092169190911790556040517f1e8580da57e49b73627de353a5c6aa09bf75dba26dd1da6c1f259314dfe28d17906104e090339084906129f7565b60405180910390a16000816020015160200151511180156105245750600081602001516020015160008151811061051957610519612ad6565b602002602001015151115b156106845760408051600180825281830190925260009182919060208083019080368337019050509050600081600061ffff168151811061056757610567612ad6565b6020908102919091018101919091528381015180519181015160409182015191517f5511cb6700000000000000000000000000000000000000000000000000000000815273ffffffffffffffffffffffffffffffffffffffff90931692635511cb67926105d992918690600401612b05565b6060604051808303816000875af11580156105f8573d6000803e3d6000fd5b505050506040513d601f19601f8201168201806040525081019061061c9190612b3e565b6003805473ffffffffffffffffffffffffffffffffffffffff9384167fffffffffffffffffffffffff00000000000000000000000000000000000000009182161790915560028054949093169316929092179055915061067e82600080610e20565b60045550505b5061068f6001600055565b80156106f157600180547fffffffffffffffffffffffffffffffffffffffffffffffffffffffffffff00ff1681556040519081527f7f26b83ff96e1f2b6a682f133852f6798a09c465da95921460cefb38474024989060200160405180910390a15b5050565b6106fd610daa565b600154610100900460ff161561073f576040517f4e8f6c4400000000000000000000000000000000000000000000000000000000815260040160405180910390fd5b600084838360405160200161075693929190612e7e565b6040516020818303038152906040529050600085602001602081019061077c91906130ee565b600454909150604087013590801561098657600254600354600091829173ffffffffffffffffffffffffffffffffffffffff91821691636715f8259116838661085c826040519080825280602002602001820160405280156107f257816020015b60608152602001906001900390816107dd5790505b506040805160008082526020820190925290610856565b6108436040518060600160405280600073ffffffffffffffffffffffffffffffffffffffff16815260200160608152602001606081525090565b8152602001906001900390816108095790505b50610e59565b6040518563ffffffff1660e01b815260040161087b949392919061310b565b600060405180830381865afa158015610898573d6000803e3d6000fd5b505050506040513d6000823e601f3d9081017fffffffffffffffffffffffffffffffffffffffffffffffffffffffffffffffe01682016040526108de91908101906131b7565b9150915081516000146108f057600080fd5b805115610983576003546040517f946aadc600000000000000000000000000000000000000000000000000000000815273ffffffffffffffffffffffffffffffffffffffff9091169063946aadc69061095090600090859060040161321b565b600060405180830381600087803b15801561096a57600080fd5b505af115801561097e573d6000803e3d6000fd5b505050505b50505b6001546109f49062010000900473ffffffffffffffffffffffffffffffffffffffff167fffffffffffffffffffffffffffffffffffffffffffffffffffffffffffffffff6109d760208c018c6130ee565b73ffffffffffffffffffffffffffffffffffffffff169190611171565b6001546040517f5cffe9de0000000000000000000000000000000000000000000000000000000081526201000090910473ffffffffffffffffffffffffffffffffffffffff1690635cffe9de90610a55903090879087908a90600401613234565b6020604051808303816000875af1158015610a74573d6000803e3d6000fd5b505050506040513d601f19601f82011682018060405250810190610a989190613273565b610ace576040517f92111eb200000000000000000000000000000000000000000000000000000000815260040160405180910390fd5b6000610ae060408a0160208b016130ee565b6040517f70a0823100000000000000000000000000000000000000000000000000000000815230600482015273ffffffffffffffffffffffffffffffffffffffff91909116906370a0823190602401602060405180830381865afa158015610b4c573d6000803e3d6000fd5b505050506040513d601f19601f82011682018060405250810190610b709190613290565b90508015610baa57610baa3382610b8d60408d0160208e016130ee565b73ffffffffffffffffffffffffffffffffffffffff169190611376565b6000610bb960208b018b6130ee565b6040517f70a0823100000000000000000000000000000000000000000000000000000000815230600482015273ffffffffffffffffffffffffffffffffffffffff91909116906370a0823190602401602060405180830381865afa158015610c25573d6000803e3d6000fd5b505050506040513d601f19601f82011682018060405250810190610c499190613290565b905088811015610c8f576040517f0c08b5bc000000000000000000000000000000000000000000000000000000008152600481018a9052602481018290526044016101c1565b8015610ca757610ca73382610b8d60208e018e6130ee565b610cb133476113cc565b505050505050610cc16001600055565b50505050565b600080600083806020019051810190610ce091906132a9565b60208801519295509093509150610d0f9073ffffffffffffffffffffffffffffffffffffffff16846000611171565b6020850151610d559073ffffffffffffffffffffffffffffffffffffffff16847fffffffffffffffffffffffffffffffffffffffffffffffffffffffffffffffff611171565b6000610d7873ffffffffffffffffffffffffffffffffffffffff84168347611526565b6020870151909150610da29073ffffffffffffffffffffffffffffffffffffffff16856000611171565b505050505050565b600260005403610e16576040517f08c379a000000000000000000000000000000000000000000000000000000000815260206004820152601f60248201527f5265656e7472616e637947756172643a207265656e7472616e742063616c6c0060448201526064016101c1565b6002600055565b50565b77ffffffffffffffffffffffffffffffffffffffff00000000602084901b1663ffff0000601084901b161761ffff8216175b9392505050565b60606000825167ffffffffffffffff811115610e7757610e77611c92565b604051908082528060200260200182016040528015610ea0578160200160208202803683370190505b509050600080845111610eb4576000610eba565b83516001015b855160010101905060008167ffffffffffffffff811115610edd57610edd611c92565b604051908082528060200260200182016040528015610f1057816020015b6060815260200190600190039081610efb5790505b5090506000610f1d611554565b828281518110610f2f57610f2f612ad6565b602002602001018190525060005b8751811015610f8d578180600101925050878181518110610f6057610f60612ad6565b6020026020010151838381518110610f7a57610f7a612ad6565b6020908102919091010152600101610f3d565b5085511561116757808060010191505083828281518110610fb057610fb0612ad6565b602002602001018190525060005b86518110156111655761108f878281518110610fdc57610fdc612ad6565b60200260200101516000015161106c6110198a858151811061100057611000612ad6565b6020026020010151602001518051602090810291012090565b6040517f19457468657265756d205369676e6564204d6573736167653a0a3332000000006020820152603c8101829052600090605c01604051602081830303815290604052805190602001209050919050565b89848151811061107e5761107e612ad6565b602002602001015160400151611565565b6110c8576040517f52bf9848000000000000000000000000000000000000000000000000000000008152600481018290526024016101c1565b8681815181106110da576110da612ad6565b60200260200101516000015173ffffffffffffffffffffffffffffffffffffffff1685828151811061110e5761110e612ad6565b602002602001018181525050818060010192505086818151811061113457611134612ad6565b60200260200101516020015183838151811061115257611152612ad6565b6020908102919091010152600101610fbe565b505b5095945050505050565b80158061121157506040517fdd62ed3e00000000000000000000000000000000000000000000000000000000815230600482015273ffffffffffffffffffffffffffffffffffffffff838116602483015284169063dd62ed3e90604401602060405180830381865afa1580156111eb573d6000803e3d6000fd5b505050506040513d601f19601f8201168201806040525081019061120f9190613290565b155b61129d576040517f08c379a000000000000000000000000000000000000000000000000000000000815260206004820152603660248201527f5361666545524332303a20617070726f76652066726f6d206e6f6e2d7a65726f60448201527f20746f206e6f6e2d7a65726f20616c6c6f77616e63650000000000000000000060648201526084016101c1565b60405173ffffffffffffffffffffffffffffffffffffffff83166024820152604481018290526113719084907f095ea7b300000000000000000000000000000000000000000000000000000000906064015b604080517fffffffffffffffffffffffffffffffffffffffffffffffffffffffffffffffe08184030181529190526020810180517bffffffffffffffffffffffffffffffffffffffffffffffffffffffff167fffffffff0000000000000000000000000000000000000000000000000000000090931692909217909152611732565b505050565b60405173ffffffffffffffffffffffffffffffffffffffff83166024820152604481018290526113719084907fa9059cbb00000000000000000000000000000000000000000000000000000000906064016112ef565b80471015611436576040517f08c379a000000000000000000000000000000000000000000000000000000000815260206004820152601d60248201527f416464726573733a20696e73756666696369656e742062616c616e636500000060448201526064016101c1565b60008273ffffffffffffffffffffffffffffffffffffffff168260405160006040518083038185875af1925050503d8060008114611490576040519150601f19603f3d011682016040523d82523d6000602084013e611495565b606091505b5050905080611371576040517f08c379a000000000000000000000000000000000000000000000000000000000815260206004820152603a60248201527f416464726573733a20756e61626c6520746f2073656e642076616c75652c207260448201527f6563697069656e74206d6179206861766520726576657274656400000000000060648201526084016101c1565b606061154c8484846040518060600160405280602981526020016133856029913961183e565b949350505050565b60606115603330611957565b905090565b6000806000611574858561198b565b9092509050600081600481111561158d5761158d61330d565b1480156115c557508573ffffffffffffffffffffffffffffffffffffffff168273ffffffffffffffffffffffffffffffffffffffff16145b156115d557600192505050610e52565b6000808773ffffffffffffffffffffffffffffffffffffffff16631626ba7e60e01b888860405160240161160a92919061333c565b604080517fffffffffffffffffffffffffffffffffffffffffffffffffffffffffffffffe08184030181529181526020820180517bffffffffffffffffffffffffffffffffffffffffffffffffffffffff167fffffffff000000000000000000000000000000000000000000000000000000009094169390931790925290516116939190613355565b600060405180830381855afa9150503d80600081146116ce576040519150601f19603f3d011682016040523d82523d6000602084013e6116d3565b606091505b50915091508180156116e6575080516020145b8015611726575080517f1626ba7e00000000000000000000000000000000000000000000000000000000906117249083016020908101908401613290565b145b98975050505050505050565b6000611794826040518060400160405280602081526020017f5361666545524332303a206c6f772d6c6576656c2063616c6c206661696c65648152508573ffffffffffffffffffffffffffffffffffffffff166119d09092919063ffffffff16565b80519091501561137157808060200190518101906117b29190613273565b611371576040517f08c379a000000000000000000000000000000000000000000000000000000000815260206004820152602a60248201527f5361666545524332303a204552433230206f7065726174696f6e20646964206e60448201527f6f7420737563636565640000000000000000000000000000000000000000000060648201526084016101c1565b6060824710156118d0576040517f08c379a000000000000000000000000000000000000000000000000000000000815260206004820152602660248201527f416464726573733a20696e73756666696369656e742062616c616e636520666f60448201527f722063616c6c000000000000000000000000000000000000000000000000000060648201526084016101c1565b6000808673ffffffffffffffffffffffffffffffffffffffff1685876040516118f99190613355565b60006040518083038185875af1925050503d8060008114611936576040519150601f19603f3d011682016040523d82523d6000602084013e61193b565b606091505b509150915061194c878383876119df565b979650505050505050565b6040805160028082526060808301845292600092919060208301908036833750505060208101949094525050604082015290565b60008082516041036119c15760208301516040840151606085015160001a6119b587828585611a7f565b945094505050506119c9565b506000905060025b9250929050565b606061154c848460008561183e565b60608315611a75578251600003611a6e5773ffffffffffffffffffffffffffffffffffffffff85163b611a6e576040517f08c379a000000000000000000000000000000000000000000000000000000000815260206004820152601d60248201527f416464726573733a2063616c6c20746f206e6f6e2d636f6e747261637400000060448201526064016101c1565b508161154c565b61154c8383611b6e565b6000807f7fffffffffffffffffffffffffffffff5d576e7357a4501ddfe92f46681b20a0831115611ab65750600090506003611b65565b6040805160008082526020820180845289905260ff881692820192909252606081018690526080810185905260019060a0016020604051602081039080840390855afa158015611b0a573d6000803e3d6000fd5b50506040517fffffffffffffffffffffffffffffffffffffffffffffffffffffffffffffffe0015191505073ffffffffffffffffffffffffffffffffffffffff8116611b5e57600060019250925050611b65565b9150600090505b94509492505050565b815115611b7e5781518083602001fd5b806040517f08c379a00000000000000000000000000000000000000000000000000000000081526004016101c19190613371565b73ffffffffffffffffffffffffffffffffffffffff81168114610e1d57600080fd5b60008083601f840112611be657600080fd5b50813567ffffffffffffffff811115611bfe57600080fd5b6020830191508360208285010111156119c957600080fd5b60008060008060008060a08789031215611c2f57600080fd5b8635611c3a81611bb2565b95506020870135611c4a81611bb2565b94506040870135935060608701359250608087013567ffffffffffffffff811115611c7457600080fd5b611c8089828a01611bd4565b979a9699509497509295939492505050565b7f4e487b7100000000000000000000000000000000000000000000000000000000600052604160045260246000fd5b6040516060810167ffffffffffffffff81118282101715611ce457611ce4611c92565b60405290565b60405160c0810167ffffffffffffffff81118282101715611ce457611ce4611c92565b6040516080810167ffffffffffffffff81118282101715611ce457611ce4611c92565b60405160a0810167ffffffffffffffff81118282101715611ce457611ce4611c92565b604051601f82017fffffffffffffffffffffffffffffffffffffffffffffffffffffffffffffffe016810167ffffffffffffffff81118282101715611d9a57611d9a611c92565b604052919050565b600067ffffffffffffffff821115611dbc57611dbc611c92565b50601f017fffffffffffffffffffffffffffffffffffffffffffffffffffffffffffffffe01660200190565b600082601f830112611df957600080fd5b8135611e0c611e0782611da2565b611d53565b818152846020838601011115611e2157600080fd5b816020850160208301376000918101602001919091529392505050565b600060208284031215611e5057600080fd5b813567ffffffffffffffff811115611e6757600080fd5b61154c84828501611de8565b60008060008060608587031215611e8957600080fd5b843567ffffffffffffffff80821115611ea157600080fd5b9086019060c08289031215611eb557600080fd5b9094506020860135935060408601359080821115611ed257600080fd5b50611edf87828801611bd4565b95989497509550505050565b600067ffffffffffffffff821115611f0557611f05611c92565b5060051b60200190565b8015158114610e1d57600080fd5b8035611f2881611f0f565b919050565b600060608284031215611f3f57600080fd5b611f47611cc1565b90508135611f5481611bb2565b81526020820135611f6481611bb2565b60208201526040820135611f7781611bb2565b604082015292915050565b803560ff81168114611f2857600080fd5b600082601f830112611fa457600080fd5b81356020611fb4611e0783611eeb565b82815260609283028501820192828201919087851115611fd357600080fd5b8387015b8581101561202a5781818a031215611fef5760008081fd5b611ff7611cc1565b813561200281611bb2565b815261200f828701611f82565b81870152604082810135908201528452928401928101611fd7565b5090979650505050505050565b600082601f83011261204857600080fd5b81356020612058611e0783611eeb565b82815260059290921b8401810191818101908684111561207757600080fd5b8286015b8481101561219c57803567ffffffffffffffff8082111561209b57600080fd5b908801906060828b037fffffffffffffffffffffffffffffffffffffffffffffffffffffffffffffffe00112156120d25760008081fd5b6120da611cc1565b868301356120e781611bb2565b8152604083810135838111156120fd5760008081fd5b8401603f81018d1361210f5760008081fd5b8881013561211f611e0782611eeb565b81815260059190911b82018301908a8101908f83111561213f5760008081fd5b928401925b8284101561215d5783358252928b0192908b0190612144565b858c01525050506060840135838111156121775760008081fd5b6121858d8a83880101611de8565b91830191909152508552505091830191830161207b565b509695505050505050565b600080604083850312156121ba57600080fd5b67ffffffffffffffff80843511156121d157600080fd5b8335840160c081870312156121e557600080fd5b6121ed611cea565b6121f78235611bb2565b813581526122086020830135611bb2565b602082013560208201526040820135604082015260608201356060820152608082013560808201528260a0830135111561224157600080fd5b60a08201358201915086601f83011261225957600080fd5b612266611e078335611eeb565b82358082526020808301929160051b85010189101561228457600080fd5b602084015b6020853560051b8601018110156124055785813511156122a857600080fd5b7fffffffffffffffffffffffffffffffffffffffffffffffffffffffffffffffe0608081833588018d030112156122de57600080fd5b6122e6611d0d565b87602084358901013511156122fa57600080fd5b8235870160208101350160e0818e038401121561231657600080fd5b61231e611d30565b925061232d6020820135611bb2565b6020810135835261234060408201611f1d565b60208401526123528d60608301611f2d565b60408401528860c0820135111561236857600080fd5b61237b8d602060c0840135840101611f93565b60608401528860e0820135111561239157600080fd5b6123a48d602060e0840135840101611f93565b608084015250818152604083358801013560208201526060833588010135604082015287608084358901013511156123db57600080fd5b6123f18c84358901608081013501602001612037565b606082015284525060209283019201612289565b5060a083015250935050602084013581101561242057600080fd5b506124318460208501358501611de8565b90509250929050565b600081518084526020808501945080840160005b83811015612499578151805173ffffffffffffffffffffffffffffffffffffffff1688528381015160ff1684890152604090810151908801526060909601959082019060010161244e565b509495945050505050565b600081518084526020808501945080840160005b83811015612499578151875295820195908201906001016124b8565b60005b838110156124ef5781810151838201526020016124d7565b50506000910152565b600081518084526125108160208601602086016124d4565b601f017fffffffffffffffffffffffffffffffffffffffffffffffffffffffffffffffe0169290920160200192915050565b600081518084526020808501808196508360051b8101915082860160005b858110156125d15782840389528151606073ffffffffffffffffffffffffffffffffffffffff82511686528682015181888801526125a0828801826124a4565b915050604080830151925086820381880152506125bd81836124f8565b9a87019a9550505090840190600101612560565b5091979650505050505050565b6000602080835260e080840173ffffffffffffffffffffffffffffffffffffffff808751168487015283870151604082821681890152808901519150606082818a0152808a01519250608083818b0152808b015193508360a08b015260a08b0151935060c0808b01528584518088526101009750878c019150878160051b8d01018a8701965060005b82811015612764578d82037fffffffffffffffffffffffffffffffffffffffffffffffffffffffffffffff000184528751805186845280518b16878501528d810151151560a08501528881015180518c1660c0860152808f01518c168e8601528901518b168c8501528781015161012085018e90526126ea61016086018261243a565b918801518583037fffffffffffffffffffffffffffffffffffffffffffffffffffffffffffffff8001610140870152919050612726818361243a565b9150508d8201518e8501528882015189850152878201519150838103888501526127508183612542565b998e0199958e019593505050600101612667565b509d9c50505050505050505050505050565b6000806040838503121561278957600080fd5b505080516020909101519092909150565b600082601f8301126127ab57600080fd5b81516127b9611e0782611da2565b8181528460208386010111156127ce57600080fd5b61154c8260208301602087016124d4565b600082601f8301126127f057600080fd5b81516020612800611e0783611eeb565b82815260059290921b8401810191818101908684111561281f57600080fd5b8286015b8481101561219c5780518352918301918301612823565b6000602080838503121561284d57600080fd5b825167ffffffffffffffff8082111561286557600080fd5b908401906060828703121561287957600080fd5b612881611cc1565b825161288c81611bb2565b8152828401518281111561289f57600080fd5b8301606081890312156128b157600080fd5b6128b9611cc1565b81516128c481611bb2565b815281860151848111156128d757600080fd5b8201601f81018a136128e857600080fd5b80516128f6611e0782611eeb565b81815260059190911b8201880190888101908c83111561291557600080fd5b8984015b8381101561294d578051898111156129315760008081fd5b61293f8f8d8389010161279a565b845250918a01918a01612919565b50848a015250505060408201518481111561296757600080fd5b6129738a8285016127df565b60408301525080868401525050604083015193508184111561299457600080fd5b6129a08785850161279a565b60408201529695505050505050565b600081518084526020808501808196508360051b8101915082860160005b858110156125d15782840389526129e58483516124f8565b988501989350908401906001016129cd565b600073ffffffffffffffffffffffffffffffffffffffff80851683526040602084015280845116604084015260208401516060808501528181511660a085015260208101519150606060c0850152612a536101008501836129af565b9150604081015190507fffffffffffffffffffffffffffffffffffffffffffffffffffffffffffffff608483030160e0850152612a9082826124a4565b91505060408401517fffffffffffffffffffffffffffffffffffffffffffffffffffffffffffffffc0848303016080850152612acc82826124f8565b9695505050505050565b7f4e487b7100000000000000000000000000000000000000000000000000000000600052603260045260246000fd5b606081526000612b1860608301866129af565b8281036020840152612b2a81866124a4565b90508281036040840152612acc81856124a4565b600080600060608486031215612b5357600080fd5b8351612b5e81611bb2565b6020850151909350612b6f81611bb2565b6040850151909250612b8081611bb2565b809150509250925092565b60008083357fffffffffffffffffffffffffffffffffffffffffffffffffffffffffffffffe1843603018112612bc057600080fd5b830160208101925035905067ffffffffffffffff811115612be057600080fd5b8060051b36038213156119c957600080fd5b60008083357fffffffffffffffffffffffffffffffffffffffffffffffffffffffffffffffe1843603018112612c2757600080fd5b830160208101925035905067ffffffffffffffff811115612c4757600080fd5b6060810236038213156119c957600080fd5b8183526000602080850194508260005b85811015612499578135612c7c81611bb2565b73ffffffffffffffffffffffffffffffffffffffff16875260ff612ca1838501611f82565b16878401526040828101359088015260609687019690910190600101612c69565b8183528181602085013750600060208284010152600060207fffffffffffffffffffffffffffffffffffffffffffffffffffffffffffffffe0601f840116840101905092915050565b81835260006020808501808196506005915085821b81018560005b88811015612e70578383038a5281357fffffffffffffffffffffffffffffffffffffffffffffffffffffffffffffffa1893603018112612d6557600080fd5b880160608135612d7481611bb2565b73ffffffffffffffffffffffffffffffffffffffff168552612d9882890183612b8b565b828a8801528083880152608092507f07ffffffffffffffffffffffffffffffffffffffffffffffffffffffffffffff811115612dd357600080fd5b881b80828885013786019050604083810135368590037fffffffffffffffffffffffffffffffffffffffffffffffffffffffffffffffe1018112612e1657600080fd5b90930189810193903567ffffffffffffffff811115612e3457600080fd5b803603851315612e4357600080fd5b838884030182890152612e598484018287612cc2565b9e8b019e9750505093880193505050600101612d26565b509098975050505050505050565b600060408083526101008084018735612e9681611bb2565b73ffffffffffffffffffffffffffffffffffffffff9081168685015260209089820135612ec281611bb2565b818116606089015250848a0135608088015260608a013560a088015260808a013560c0880152612ef560a08b018b612b8b565b60c060e08a01529384905261012093848901600582901b8a0186018360005b848110156130c8577ffffffffffffffffffffffffffffffffffffffffffffffffffffffffffffffee08d840301845281357fffffffffffffffffffffffffffffffffffffffffffffffffffffffffffffff81873603018112612f7557600080fd5b86018035368290037fffffffffffffffffffffffffffffffffffffffffffffffffffffffffffffff21018112612faa57600080fd5b6080855281018035612fbb81611bb2565b89166080860152808a0135612fcf81611f0f565b151560a0860152808d0135612fe381611bb2565b891660c08601526060810135612ff881611bb2565b891660e0860152608081013561300d81611bb2565b8916858d015261302060a0820182612bf2565b60e08d88015261303561016088018284612c59565b91505061304560c0830183612bf2565b92507fffffffffffffffffffffffffffffffffffffffffffffffffffffffffffffff808783030161014088015261307d828483612c59565b92505050898201358a8601528c8201358d86015261309e6060830183612b8b565b925085820360608701526130b3828483612d0b565b968b0196955050509188019150600101612f14565b50508a8103868c01526130dc818d8f612cc2565b9e9d5050505050505050505050505050565b60006020828403121561310057600080fd5b8135610e5281611bb2565b60006080820173ffffffffffffffffffffffffffffffffffffffff87168352602086818501528560408501526080606085015281855180845260a08601915060a08160051b870101935082870160005b828110156131a7577fffffffffffffffffffffffffffffffffffffffffffffffffffffffffffffff608887030184526131958683516124a4565b9550928401929084019060010161315b565b50939a9950505050505050505050565b600080604083850312156131ca57600080fd5b825167ffffffffffffffff808211156131e257600080fd5b6131ee868387016127df565b9350602085015191508082111561320457600080fd5b50613211858286016127df565b9150509250929050565b82815260406020820152600061154c60408301846124a4565b600073ffffffffffffffffffffffffffffffffffffffff808716835280861660208401525083604083015260806060830152612acc60808301846124f8565b60006020828403121561328557600080fd5b8151610e5281611f0f565b6000602082840312156132a257600080fd5b5051919050565b6000806000606084860312156132be57600080fd5b83516132c981611bb2565b60208501519093506132da81611bb2565b604085015190925067ffffffffffffffff8111156132f757600080fd5b6133038682870161279a565b9150509250925092565b7f4e487b7100000000000000000000000000000000000000000000000000000000600052602160045260246000fd5b82815260406020820152600061154c60408301846124f8565b600082516133678184602087016124d4565b9190910192915050565b602081526000610e5260208301846124f856fe416464726573733a206c6f772d6c6576656c2063616c6c20776974682076616c7565206661696c6564a2646970667358221220843bdc1602bc8d72d597fe94fabf464272312d37843602f137c3a6775af826aa64736f6c63430008120033",
    "linkReferences": {}
  },
  "methodIdentifiers": {
    "arb((address,address,uint256,uint256,uint256,((address,bool,(address,address,address),(address,uint8,uint256)[],(address,uint8,uint256)[]),uint256,uint256,(address,uint256[],bytes)[])[]),uint256,bytes)": "764d1aa1",
    "initialize(bytes)": "439fab91",
    "onFlashLoan(address,address,uint256,uint256,bytes)": "23e30c8b",
    "orderBook()": "776af5ba"
  },
  "id": 47
}