{
  "abi": [
    {
      "inputs": [
        {
          "components": [
            {
              "internalType": "address",
              "name": "deployer",
              "type": "address"
            },
            {
              "internalType": "bytes",
              "name": "meta",
              "type": "bytes"
            }
          ],
          "internalType": "struct DeployerDiscoverableMetaV3ConstructionConfig",
          "name": "config",
          "type": "tuple"
        }
      ],
      "stateMutability": "nonpayable",
      "type": "constructor"
    },
    {
      "inputs": [
        {
          "internalType": "address",
          "name": "badInitiator",
          "type": "address"
        }
      ],
      "name": "BadInitiator",
      "type": "error"
    },
    {
      "inputs": [
        {
          "internalType": "address",
          "name": "badLender",
          "type": "address"
        }
      ],
      "name": "BadLender",
      "type": "error"
    },
    {
      "inputs": [],
      "name": "FlashLoanFailed",
      "type": "error"
    },
    {
      "inputs": [],
      "name": "InitializeSignatureFn",
      "type": "error"
    },
    {
      "inputs": [],
      "name": "Initializing",
      "type": "error"
    },
    {
      "inputs": [
        {
          "internalType": "uint256",
          "name": "i",
          "type": "uint256"
        }
      ],
      "name": "InvalidSignature",
      "type": "error"
    },
    {
      "inputs": [
        {
          "internalType": "uint256",
          "name": "minimum",
          "type": "uint256"
        },
        {
          "internalType": "uint256",
          "name": "actual",
          "type": "uint256"
        }
      ],
      "name": "MinimumOutput",
      "type": "error"
    },
    {
      "inputs": [],
      "name": "NoOrders",
      "type": "error"
    },
    {
      "inputs": [],
      "name": "NonZeroBeforeArbInputs",
      "type": "error"
    },
    {
      "inputs": [],
      "name": "NonZeroBeforeArbStack",
      "type": "error"
    },
    {
      "inputs": [
        {
          "internalType": "bytes",
          "name": "unmeta",
          "type": "bytes"
        }
      ],
      "name": "NotRainMetaV1",
      "type": "error"
    },
    {
      "inputs": [
        {
          "internalType": "bytes32",
          "name": "expectedHash",
          "type": "bytes32"
        },
        {
          "internalType": "bytes32",
          "name": "actualHash",
          "type": "bytes32"
        }
      ],
      "name": "UnexpectedMetaHash",
      "type": "error"
    },
    {
      "anonymous": false,
      "inputs": [
        {
          "indexed": false,
          "internalType": "address",
          "name": "sender",
          "type": "address"
        },
        {
          "components": [
            {
              "internalType": "address",
              "name": "orderBook",
              "type": "address"
            },
            {
              "components": [
                {
                  "internalType": "contract IExpressionDeployerV3",
                  "name": "deployer",
                  "type": "address"
                },
                {
                  "internalType": "bytes",
                  "name": "bytecode",
                  "type": "bytes"
                },
                {
                  "internalType": "uint256[]",
                  "name": "constants",
                  "type": "uint256[]"
                }
              ],
              "internalType": "struct EvaluableConfigV3",
              "name": "evaluableConfig",
              "type": "tuple"
            },
            {
              "internalType": "bytes",
              "name": "implementationData",
              "type": "bytes"
            }
          ],
          "indexed": false,
          "internalType": "struct OrderBookV3FlashBorrowerConfigV2",
          "name": "config",
          "type": "tuple"
        }
      ],
      "name": "Initialize",
      "type": "event"
    },
    {
      "anonymous": false,
      "inputs": [
        {
          "indexed": false,
          "internalType": "uint8",
          "name": "version",
          "type": "uint8"
        }
      ],
      "name": "Initialized",
      "type": "event"
    },
    {
      "anonymous": false,
      "inputs": [
        {
          "indexed": false,
          "internalType": "address",
          "name": "sender",
          "type": "address"
        },
        {
          "indexed": false,
          "internalType": "uint256",
          "name": "subject",
          "type": "uint256"
        },
        {
          "indexed": false,
          "internalType": "bytes",
          "name": "meta",
          "type": "bytes"
        }
      ],
      "name": "MetaV1",
      "type": "event"
    },
    {
      "stateMutability": "nonpayable",
      "type": "fallback"
    },
    {
      "inputs": [
        {
          "components": [
            {
              "internalType": "uint256",
              "name": "minimumInput",
              "type": "uint256"
            },
            {
              "internalType": "uint256",
              "name": "maximumInput",
              "type": "uint256"
            },
            {
              "internalType": "uint256",
              "name": "maximumIORatio",
              "type": "uint256"
            },
            {
              "components": [
                {
                  "components": [
                    {
                      "internalType": "address",
                      "name": "owner",
                      "type": "address"
                    },
                    {
                      "internalType": "bool",
                      "name": "handleIO",
                      "type": "bool"
                    },
                    {
                      "components": [
                        {
                          "internalType": "contract IInterpreterV2",
                          "name": "interpreter",
                          "type": "address"
                        },
                        {
                          "internalType": "contract IInterpreterStoreV1",
                          "name": "store",
                          "type": "address"
                        },
                        {
                          "internalType": "address",
                          "name": "expression",
                          "type": "address"
                        }
                      ],
                      "internalType": "struct EvaluableV2",
                      "name": "evaluable",
                      "type": "tuple"
                    },
                    {
                      "components": [
                        {
                          "internalType": "address",
                          "name": "token",
                          "type": "address"
                        },
                        {
                          "internalType": "uint8",
                          "name": "decimals",
                          "type": "uint8"
                        },
                        {
                          "internalType": "uint256",
                          "name": "vaultId",
                          "type": "uint256"
                        }
                      ],
                      "internalType": "struct IO[]",
                      "name": "validInputs",
                      "type": "tuple[]"
                    },
                    {
                      "components": [
                        {
                          "internalType": "address",
                          "name": "token",
                          "type": "address"
                        },
                        {
                          "internalType": "uint8",
                          "name": "decimals",
                          "type": "uint8"
                        },
                        {
                          "internalType": "uint256",
                          "name": "vaultId",
                          "type": "uint256"
                        }
                      ],
                      "internalType": "struct IO[]",
                      "name": "validOutputs",
                      "type": "tuple[]"
                    }
                  ],
                  "internalType": "struct OrderV2",
                  "name": "order",
                  "type": "tuple"
                },
                {
                  "internalType": "uint256",
                  "name": "inputIOIndex",
                  "type": "uint256"
                },
                {
                  "internalType": "uint256",
                  "name": "outputIOIndex",
                  "type": "uint256"
                },
                {
                  "components": [
                    {
                      "internalType": "address",
                      "name": "signer",
                      "type": "address"
                    },
                    {
                      "internalType": "uint256[]",
                      "name": "context",
                      "type": "uint256[]"
                    },
                    {
                      "internalType": "bytes",
                      "name": "signature",
                      "type": "bytes"
                    }
                  ],
                  "internalType": "struct SignedContextV1[]",
                  "name": "signedContext",
                  "type": "tuple[]"
                }
              ],
              "internalType": "struct TakeOrderConfigV2[]",
              "name": "orders",
              "type": "tuple[]"
            },
            {
              "internalType": "bytes",
              "name": "data",
              "type": "bytes"
            }
          ],
          "internalType": "struct TakeOrdersConfigV2",
          "name": "takeOrders",
          "type": "tuple"
        },
        {
          "internalType": "uint256",
          "name": "minimumSenderOutput",
          "type": "uint256"
        },
        {
          "internalType": "bytes",
          "name": "exchangeData",
          "type": "bytes"
        }
      ],
      "name": "arb",
      "outputs": [],
      "stateMutability": "payable",
      "type": "function"
    },
    {
      "inputs": [
        {
          "internalType": "bytes",
          "name": "data",
          "type": "bytes"
        }
      ],
      "name": "initialize",
      "outputs": [
        {
          "internalType": "bytes32",
          "name": "",
          "type": "bytes32"
        }
      ],
      "stateMutability": "nonpayable",
      "type": "function"
    },
    {
      "inputs": [
        {
          "components": [
            {
              "internalType": "address",
              "name": "orderBook",
              "type": "address"
            },
            {
              "components": [
                {
                  "internalType": "contract IExpressionDeployerV3",
                  "name": "deployer",
                  "type": "address"
                },
                {
                  "internalType": "bytes",
                  "name": "bytecode",
                  "type": "bytes"
                },
                {
                  "internalType": "uint256[]",
                  "name": "constants",
                  "type": "uint256[]"
                }
              ],
              "internalType": "struct EvaluableConfigV3",
              "name": "evaluableConfig",
              "type": "tuple"
            },
            {
              "internalType": "bytes",
              "name": "implementationData",
              "type": "bytes"
            }
          ],
          "internalType": "struct OrderBookV3FlashBorrowerConfigV2",
          "name": "",
          "type": "tuple"
        }
      ],
      "name": "initialize",
      "outputs": [
        {
          "internalType": "bytes32",
          "name": "",
          "type": "bytes32"
        }
      ],
      "stateMutability": "pure",
      "type": "function"
    },
    {
      "inputs": [
        {
          "internalType": "address",
          "name": "initiator",
          "type": "address"
        },
        {
          "internalType": "address",
          "name": "",
          "type": "address"
        },
        {
          "internalType": "uint256",
          "name": "",
          "type": "uint256"
        },
        {
          "internalType": "uint256",
          "name": "",
          "type": "uint256"
        },
        {
          "internalType": "bytes",
          "name": "data",
          "type": "bytes"
        }
      ],
      "name": "onFlashLoan",
      "outputs": [
        {
          "internalType": "bytes32",
          "name": "",
          "type": "bytes32"
        }
      ],
      "stateMutability": "nonpayable",
      "type": "function"
    },
    {
      "inputs": [],
      "name": "sI9r",
      "outputs": [
        {
          "internalType": "contract IInterpreterV2",
          "name": "",
          "type": "address"
        }
      ],
      "stateMutability": "view",
      "type": "function"
    },
    {
      "inputs": [],
      "name": "sI9rDispatch",
      "outputs": [
        {
          "internalType": "EncodedDispatch",
          "name": "",
          "type": "uint256"
        }
      ],
      "stateMutability": "view",
      "type": "function"
    },
    {
      "inputs": [],
      "name": "sI9rStore",
      "outputs": [
        {
          "internalType": "contract IInterpreterStoreV1",
          "name": "",
          "type": "address"
        }
      ],
      "stateMutability": "view",
      "type": "function"
    },
    {
      "inputs": [],
      "name": "sOrderBook",
      "outputs": [
        {
          "internalType": "contract IOrderBookV3",
          "name": "",
          "type": "address"
        }
      ],
      "stateMutability": "view",
      "type": "function"
    },
    {
      "inputs": [
        {
          "internalType": "bytes4",
          "name": "interfaceId",
          "type": "bytes4"
        }
      ],
      "name": "supportsInterface",
      "outputs": [
        {
          "internalType": "bool",
          "name": "",
          "type": "bool"
        }
      ],
      "stateMutability": "view",
      "type": "function"
    }
  ],
  "bytecode": {
    "object": "0x60806040523480156200001157600080fd5b5060405162003f6f38038062003f6f8339810160408190526200003491620003d2565b600160005560208101517f5307fcdf3fa283e1e7d5d58baaa516cdefb10aba9eb23211d9cfb11afd6e4b4c9082908290829062000073908390620000d7565b60208101516040517fbea766d03fa1efd3f81cc8634d08320bc62bb0ed9234ac59bbaafa5893fb6b1391620000ac9133913091620004a0565b60405180910390a18051620000c1906200011e565b50620000ce9050620001d1565b505050620005c6565b805160208201208281146200010e5760405163074fe10f60e41b815260048101849052602481018290526044015b60405180910390fd5b62000119826200028f565b505050565b60008080806001600160a01b03851663b7f14403826040519080825280602002602001820160405280156200015d578160200160208202803683370190505b506040518263ffffffff1660e01b81526004016200017c9190620004d2565b6000604051808303816000875af11580156200019c573d6000803e3d6000fd5b505050506040513d6000823e601f3d908101601f19168201604052620001c6919081019062000529565b505050505050505050565b600154610100900460ff16156200023b5760405162461bcd60e51b815260206004820152602760248201527f496e697469616c697a61626c653a20636f6e747261637420697320696e697469604482015266616c697a696e6760c81b606482015260840162000105565b60015460ff908116146200028d576001805460ff191660ff9081179091556040519081527f7f26b83ff96e1f2b6a682f133852f6798a09c465da95921460cefb38474024989060200160405180910390a15b565b6200029a81620002bf565b620002bc5780604051630c89984b60e31b8152600401620001059190620005aa565b50565b6000600882511015620002d457506000919050565b50600801516001600160401b031667ff0a89c674ee78741490565b634e487b7160e01b600052604160045260246000fd5b6001600160a01b0381168114620002bc57600080fd5b60005b83811015620003385781810151838201526020016200031e565b50506000910152565b600082601f8301126200035357600080fd5b81516001600160401b0380821115620003705762000370620002ef565b604051601f8301601f19908116603f011681019082821181831017156200039b576200039b620002ef565b81604052838152866020858801011115620003b557600080fd5b620003c88460208301602089016200031b565b9695505050505050565b600060208284031215620003e557600080fd5b81516001600160401b0380821115620003fd57600080fd5b90830190604082860312156200041257600080fd5b604051604081018181108382111715620004305762000430620002ef565b6040528251620004408162000305565b81526020830151828111156200045557600080fd5b620004638782860162000341565b60208301525095945050505050565b600081518084526200048c8160208601602086016200031b565b601f01601f19169290920160200192915050565b60018060a01b0384168152826020820152606060408201526000620004c9606083018462000472565b95945050505050565b60408152600060408201526000606082016020606081850152818551808452608086019150828701935060005b818110156200051d57845183529383019391830191600101620004ff565b50909695505050505050565b600080600080608085870312156200054057600080fd5b84516200054d8162000305565b6020860151909450620005608162000305565b6040860151909350620005738162000305565b60608601519092506001600160401b038111156200059057600080fd5b6200059e8782880162000341565b91505092959194509250565b602081526000620005bf602083018462000472565b9392505050565b61399980620005d66000396000f3fe6080604052600436106100965760003560e01c806371c1dea71161006957806389448c3a1161004e57806389448c3a1461021c57806398da8d6a14610232578063ae61ec121461025257610096565b806371c1dea7146101bc578063886d1650146101e957610096565b806301ffc9a7146100e757806323e30c8b1461011c578063439fab911461014a57806361bb39e41461016a575b3480156100a257600080fd5b50600154610100900460ff16156100e5576040517f4e8f6c4400000000000000000000000000000000000000000000000000000000815260040160405180910390fd5b005b3480156100f357600080fd5b50610107610102366004612051565b610265565b60405190151581526020015b60405180910390f35b34801561012857600080fd5b5061013c6101373660046120fe565b61034a565b604051908152602001610113565b34801561015657600080fd5b5061013c610165366004612303565b610545565b34801561017657600080fd5b506004546101979073ffffffffffffffffffffffffffffffffffffffff1681565b60405173ffffffffffffffffffffffffffffffffffffffff9091168152602001610113565b3480156101c857600080fd5b506003546101979073ffffffffffffffffffffffffffffffffffffffff1681565b3480156101f557600080fd5b506001546101979062010000900473ffffffffffffffffffffffffffffffffffffffff1681565b34801561022857600080fd5b5061013c60025481565b34801561023e57600080fd5b5061013c61024d366004612338565b61094c565b6100e5610260366004612373565b610980565b60007fffffffff0000000000000000000000000000000000000000000000000000000082167f23e30c8b0000000000000000000000000000000000000000000000000000000014806102f857507fffffffff0000000000000000000000000000000000000000000000000000000082167f439fab9100000000000000000000000000000000000000000000000000000000145b8061034457507f01ffc9a7000000000000000000000000000000000000000000000000000000007fffffffff000000000000000000000000000000000000000000000000000000008316145b92915050565b600154600090610100900460ff161561038f576040517f4e8f6c4400000000000000000000000000000000000000000000000000000000815260040160405180910390fd5b60015462010000900473ffffffffffffffffffffffffffffffffffffffff1633146103ed576040517f0bc3cde00000000000000000000000000000000000000000000000000000000081523360048201526024015b60405180910390fd5b73ffffffffffffffffffffffffffffffffffffffff87163014610454576040517f8b1f7c6400000000000000000000000000000000000000000000000000000000815273ffffffffffffffffffffffffffffffffffffffff881660048201526024016103e4565b600080610463848601866126a7565b915091506104718282611167565b6001546040517f8a44689c00000000000000000000000000000000000000000000000000000000815260009182916201000090910473ffffffffffffffffffffffffffffffffffffffff1690638a44689c906104d1908790600401612ae2565b60408051808303816000875af11580156104ef573d6000803e3d6000fd5b505050506040513d601f19601f820116820180604052508101906105139190612c97565b507f439148f0bbc682ca079e46d6e2c2f0c1e3b820f1a291b069d8882abf8cf18dd99c9b505050505050505050505050565b600154600090610100900460ff161580801561056557506001805460ff16105b8061057e5750303b15801561057e57506001805460ff16145b61060a576040517f08c379a000000000000000000000000000000000000000000000000000000000815260206004820152602e60248201527f496e697469616c697a61626c653a20636f6e747261637420697320616c72656160448201527f647920696e697469616c697a656400000000000000000000000000000000000060648201526084016103e4565b600180547fffffffffffffffffffffffffffffffffffffffffffffffffffffffffffffff001681179055801561066757600180547fffffffffffffffffffffffffffffffffffffffffffffffffffffffffffff00ff166101001790555b61066f6112a3565b6000838060200190518101906106859190612d5b565b905080516001805473ffffffffffffffffffffffffffffffffffffffff90921662010000027fffffffffffffffffffff0000000000000000000000000000000000000000ffff9092169190911790556040517f61f559321bdc3ad3a0e3b8692a91eaffa9773753bfec4e5f4c344cfed245cab7906107069033908490612e64565b60405180910390a16000610721826020015160200151611319565b11156108b65760208082015180519181015160409182015191517fb7f1440300000000000000000000000000000000000000000000000000000000815260009360609373ffffffffffffffffffffffffffffffffffffffff9091169263b7f14403926107909290600401612f39565b6000604051808303816000875af11580156107af573d6000803e3d6000fd5b505050506040513d6000823e601f3d9081017fffffffffffffffffffffffffffffffffffffffffffffffffffffffffffffffe01682016040526107f59190810190612f67565b6004805473ffffffffffffffffffffffffffffffffffffffff9485167fffffffffffffffffffffffff0000000000000000000000000000000000000000918216179091556003805495909416941693909317909155600182015190935090915060ff168015610890576040517f123ffb2c00000000000000000000000000000000000000000000000000000000815260040160405180910390fd5b602083901b77ffffffffffffffffffffffffffffffffffffffff00000000166002555050505b7fe0e57eda3f08f2a93bbe980d3df7f9c315eac41181f58b865a13d917fe769fc39250506108e46001600055565b801561094657600180547fffffffffffffffffffffffffffffffffffffffffffffffffffffffffffff00ff1681556040519081527f7f26b83ff96e1f2b6a682f133852f6798a09c465da95921460cefb38474024989060200160405180910390a15b50919050565b60006040517faf1fbb2100000000000000000000000000000000000000000000000000000000815260040160405180910390fd5b6109886112a3565b600154610100900460ff16156109ca576040517f4e8f6c4400000000000000000000000000000000000000000000000000000000815260040160405180910390fd5b6109d76060850185612fdf565b9050600003610a12576040517f9c95219f00000000000000000000000000000000000000000000000000000000815260040160405180910390fd5b6000848383604051602001610a299392919061334a565b604080517fffffffffffffffffffffffffffffffffffffffffffffffffffffffffffffffe081840301815291905290506000610a686060870187612fdf565b6000818110610a7957610a796135c8565b9050602002810190610a8b91906135f7565b610a959080613635565b610aa39060c0810190613669565b610ab06060890189612fdf565b6000818110610ac157610ac16135c8565b9050602002810190610ad391906135f7565b60400135818110610ae657610ae66135c8565b610afc92602060609092020190810191506136d0565b90506000610b0d6060880188612fdf565b6000818110610b1e57610b1e6135c8565b9050602002810190610b3091906135f7565b610b3a9080613635565b610b489060a0810190613669565b610b5560608a018a612fdf565b6000818110610b6657610b666135c8565b9050602002810190610b7891906135f7565b60200135818110610b8b57610b8b6135c8565b610ba192602060609092020190810191506136d0565b6002549091508735908015610e0b57600354600454600091829173ffffffffffffffffffffffffffffffffffffffff91821691636046c5f99116610bef843060009182526020526040902090565b604080516000808252602082019092528891610c8a9190610c20565b6060815260200190600190039081610c0b5790505b506040805160008082526020820190925290610c84565b610c716040518060600160405280600073ffffffffffffffffffffffffffffffffffffffff16815260200160608152602001606081525090565b815260200190600190039081610c375790505b50611337565b604080516000815260208101918290527fffffffff0000000000000000000000000000000000000000000000000000000060e088901b16909152610cd59493929190602481016136ed565b600060405180830381865afa158015610cf2573d6000803e3d6000fd5b505050506040513d6000823e601f3d9081017fffffffffffffffffffffffffffffffffffffffffffffffffffffffffffffffe0168201604052610d3891908101906137ac565b8151919350915015610d76576040517f379fa94000000000000000000000000000000000000000000000000000000000815260040160405180910390fd5b805115610e0857600480546040517f946aadc600000000000000000000000000000000000000000000000000000000815273ffffffffffffffffffffffffffffffffffffffff9091169163946aadc691610dd591600091869101613810565b600060405180830381600087803b158015610def57600080fd5b505af1158015610e03573d6000803e3d6000fd5b505050505b50505b600154610e399073ffffffffffffffffffffffffffffffffffffffff85811691620100009004166000611647565b600154610e869073ffffffffffffffffffffffffffffffffffffffff85811691620100009004167fffffffffffffffffffffffffffffffffffffffffffffffffffffffffffffffff611647565b6001546040517f5cffe9de0000000000000000000000000000000000000000000000000000000081526201000090910473ffffffffffffffffffffffffffffffffffffffff1690635cffe9de90610ee7903090889087908b90600401613829565b6020604051808303816000875af1158015610f06573d6000803e3d6000fd5b505050506040513d601f19601f82011682018060405250810190610f2a9190613868565b610f60576040517f92111eb200000000000000000000000000000000000000000000000000000000815260040160405180910390fd5b600154610f8e9073ffffffffffffffffffffffffffffffffffffffff85811691620100009004166000611647565b6040517f70a0823100000000000000000000000000000000000000000000000000000000815230600482015260009073ffffffffffffffffffffffffffffffffffffffff8516906370a0823190602401602060405180830381865afa158015610ffb573d6000803e3d6000fd5b505050506040513d601f19601f8201168201806040525081019061101f9190613885565b905088811015611065576040517f0c08b5bc000000000000000000000000000000000000000000000000000000008152600481018a9052602481018290526044016103e4565b801561108c5761108c73ffffffffffffffffffffffffffffffffffffffff8516338361184c565b6040517f70a0823100000000000000000000000000000000000000000000000000000000815230600482015260009073ffffffffffffffffffffffffffffffffffffffff8716906370a0823190602401602060405180830381865afa1580156110f9573d6000803e3d6000fd5b505050506040513d601f19601f8201168201806040525081019061111d9190613885565b905080156111465761114673ffffffffffffffffffffffffffffffffffffffff8716338361184c565b61115033476118a2565b505050505050506111616001600055565b50505050565b600080600083806020019051810190611180919061389e565b9250925092506000856060015160008151811061119f5761119f6135c8565b6020026020010151600001516080015186606001516000815181106111c6576111c66135c8565b602002602001015160400151815181106111e2576111e26135c8565b602090810291909101015151905061121273ffffffffffffffffffffffffffffffffffffffff8216856000611647565b61125373ffffffffffffffffffffffffffffffffffffffff8216857fffffffffffffffffffffffffffffffffffffffffffffffffffffffffffffffff611647565b600061127673ffffffffffffffffffffffffffffffffffffffff851684476119fc565b905061129a73ffffffffffffffffffffffffffffffffffffffff8316866000611647565b50505050505050565b60026000540361130f576040517f08c379a000000000000000000000000000000000000000000000000000000000815260206004820152601f60248201527f5265656e7472616e637947756172643a207265656e7472616e742063616c6c0060448201526064016103e4565b6002600055565b50565b6000815160000361132c57506000919050565b506020015160001a90565b60606000825167ffffffffffffffff8111156113555761135561217a565b60405190808252806020026020018201604052801561137e578160200160208202803683370190505b509050600080845111611392576000611398565b83516001015b855160010101905060008167ffffffffffffffff8111156113bb576113bb61217a565b6040519080825280602002602001820160405280156113ee57816020015b60608152602001906001900390816113d95790505b5090506000611413604080516002815233602082015230818301526060810190915290565b828281518110611425576114256135c8565b602002602001018190525060005b8751811015611483578180600101925050878181518110611456576114566135c8565b6020026020010151838381518110611470576114706135c8565b6020908102919091010152600101611433565b5085511561163d578080600101915050838282815181106114a6576114a66135c8565b602002602001018190525060005b865181101561163b576115658782815181106114d2576114d26135c8565b60200260200101516000015161154261150f8a85815181106114f6576114f66135c8565b6020026020010151602001518051602090810291012090565b7f19457468657265756d205369676e6564204d6573736167653a0a3332000000006000908152601c91909152603c902090565b898481518110611554576115546135c8565b602002602001015160400151611a2a565b61159e576040517f52bf9848000000000000000000000000000000000000000000000000000000008152600481018290526024016103e4565b8681815181106115b0576115b06135c8565b60200260200101516000015173ffffffffffffffffffffffffffffffffffffffff168582815181106115e4576115e46135c8565b602002602001018181525050818060010192505086818151811061160a5761160a6135c8565b602002602001015160200151838381518110611628576116286135c8565b60209081029190910101526001016114b4565b505b5095945050505050565b8015806116e757506040517fdd62ed3e00000000000000000000000000000000000000000000000000000000815230600482015273ffffffffffffffffffffffffffffffffffffffff838116602483015284169063dd62ed3e90604401602060405180830381865afa1580156116c1573d6000803e3d6000fd5b505050506040513d601f19601f820116820180604052508101906116e59190613885565b155b611773576040517f08c379a000000000000000000000000000000000000000000000000000000000815260206004820152603660248201527f5361666545524332303a20617070726f76652066726f6d206e6f6e2d7a65726f60448201527f20746f206e6f6e2d7a65726f20616c6c6f77616e63650000000000000000000060648201526084016103e4565b60405173ffffffffffffffffffffffffffffffffffffffff83166024820152604481018290526118479084907f095ea7b300000000000000000000000000000000000000000000000000000000906064015b604080517fffffffffffffffffffffffffffffffffffffffffffffffffffffffffffffffe08184030181529190526020810180517bffffffffffffffffffffffffffffffffffffffffffffffffffffffff167fffffffff0000000000000000000000000000000000000000000000000000000090931692909217909152611aa5565b505050565b60405173ffffffffffffffffffffffffffffffffffffffff83166024820152604481018290526118479084907fa9059cbb00000000000000000000000000000000000000000000000000000000906064016117c5565b8047101561190c576040517f08c379a000000000000000000000000000000000000000000000000000000000815260206004820152601d60248201527f416464726573733a20696e73756666696369656e742062616c616e636500000060448201526064016103e4565b60008273ffffffffffffffffffffffffffffffffffffffff168260405160006040518083038185875af1925050503d8060008114611966576040519150601f19603f3d011682016040523d82523d6000602084013e61196b565b606091505b5050905080611847576040517f08c379a000000000000000000000000000000000000000000000000000000000815260206004820152603a60248201527f416464726573733a20756e61626c6520746f2073656e642076616c75652c207260448201527f6563697069656e74206d6179206861766520726576657274656400000000000060648201526084016103e4565b6060611a2284848460405180606001604052806029815260200161397060299139611bb4565b949350505050565b6000806000611a398585611ccd565b90925090506000816004811115611a5257611a52613902565b148015611a8a57508573ffffffffffffffffffffffffffffffffffffffff168273ffffffffffffffffffffffffffffffffffffffff16145b80611a9b5750611a9b868686611d12565b9695505050505050565b6000611b07826040518060400160405280602081526020017f5361666545524332303a206c6f772d6c6576656c2063616c6c206661696c65648152508573ffffffffffffffffffffffffffffffffffffffff16611e6f9092919063ffffffff16565b9050805160001480611b28575080806020019051810190611b289190613868565b611847576040517f08c379a000000000000000000000000000000000000000000000000000000000815260206004820152602a60248201527f5361666545524332303a204552433230206f7065726174696f6e20646964206e60448201527f6f7420737563636565640000000000000000000000000000000000000000000060648201526084016103e4565b606082471015611c46576040517f08c379a000000000000000000000000000000000000000000000000000000000815260206004820152602660248201527f416464726573733a20696e73756666696369656e742062616c616e636520666f60448201527f722063616c6c000000000000000000000000000000000000000000000000000060648201526084016103e4565b6000808673ffffffffffffffffffffffffffffffffffffffff168587604051611c6f9190613931565b60006040518083038185875af1925050503d8060008114611cac576040519150601f19603f3d011682016040523d82523d6000602084013e611cb1565b606091505b5091509150611cc287838387611e7e565b979650505050505050565b6000808251604103611d035760208301516040840151606085015160001a611cf787828585611f1e565b94509450505050611d0b565b506000905060025b9250929050565b60008060008573ffffffffffffffffffffffffffffffffffffffff16631626ba7e60e01b8686604051602401611d49929190613943565b604080517fffffffffffffffffffffffffffffffffffffffffffffffffffffffffffffffe08184030181529181526020820180517bffffffffffffffffffffffffffffffffffffffffffffffffffffffff167fffffffff00000000000000000000000000000000000000000000000000000000909416939093179092529051611dd29190613931565b600060405180830381855afa9150503d8060008114611e0d576040519150601f19603f3d011682016040523d82523d6000602084013e611e12565b606091505b5091509150818015611e2657506020815110155b8015611a9b575080517f1626ba7e0000000000000000000000000000000000000000000000000000000090611e649083016020908101908401613885565b149695505050505050565b6060611a228484600085611bb4565b60608315611f14578251600003611f0d5773ffffffffffffffffffffffffffffffffffffffff85163b611f0d576040517f08c379a000000000000000000000000000000000000000000000000000000000815260206004820152601d60248201527f416464726573733a2063616c6c20746f206e6f6e2d636f6e747261637400000060448201526064016103e4565b5081611a22565b611a22838361200d565b6000807f7fffffffffffffffffffffffffffffff5d576e7357a4501ddfe92f46681b20a0831115611f555750600090506003612004565b6040805160008082526020820180845289905260ff881692820192909252606081018690526080810185905260019060a0016020604051602081039080840390855afa158015611fa9573d6000803e3d6000fd5b50506040517fffffffffffffffffffffffffffffffffffffffffffffffffffffffffffffffe0015191505073ffffffffffffffffffffffffffffffffffffffff8116611ffd57600060019250925050612004565b9150600090505b94509492505050565b81511561201d5781518083602001fd5b806040517f08c379a00000000000000000000000000000000000000000000000000000000081526004016103e4919061395c565b60006020828403121561206357600080fd5b81357fffffffff000000000000000000000000000000000000000000000000000000008116811461209357600080fd5b9392505050565b73ffffffffffffffffffffffffffffffffffffffff8116811461131657600080fd5b60008083601f8401126120ce57600080fd5b50813567ffffffffffffffff8111156120e657600080fd5b602083019150836020828501011115611d0b57600080fd5b60008060008060008060a0878903121561211757600080fd5b86356121228161209a565b955060208701356121328161209a565b94506040870135935060608701359250608087013567ffffffffffffffff81111561215c57600080fd5b61216889828a016120bc565b979a9699509497509295939492505050565b7f4e487b7100000000000000000000000000000000000000000000000000000000600052604160045260246000fd5b6040516060810167ffffffffffffffff811182821017156121cc576121cc61217a565b60405290565b60405160a0810167ffffffffffffffff811182821017156121cc576121cc61217a565b6040516080810167ffffffffffffffff811182821017156121cc576121cc61217a565b604051601f82017fffffffffffffffffffffffffffffffffffffffffffffffffffffffffffffffe016810167ffffffffffffffff8111828210171561225f5761225f61217a565b604052919050565b600067ffffffffffffffff8211156122815761228161217a565b50601f017fffffffffffffffffffffffffffffffffffffffffffffffffffffffffffffffe01660200190565b600082601f8301126122be57600080fd5b81356122d16122cc82612267565b612218565b8181528460208386010111156122e657600080fd5b816020850160208301376000918101602001919091529392505050565b60006020828403121561231557600080fd5b813567ffffffffffffffff81111561232c57600080fd5b611a22848285016122ad565b60006020828403121561234a57600080fd5b813567ffffffffffffffff81111561236157600080fd5b82016060818503121561209357600080fd5b6000806000806060858703121561238957600080fd5b843567ffffffffffffffff808211156123a157600080fd5b9086019060a082890312156123b557600080fd5b90945060208601359350604086013590808211156123d257600080fd5b506123df878288016120bc565b95989497509550505050565b600067ffffffffffffffff8211156124055761240561217a565b5060051b60200190565b801515811461131657600080fd5b80356124288161240f565b919050565b60006060828403121561243f57600080fd5b6124476121a9565b905081356124548161209a565b815260208201356124648161209a565b602082015260408201356124778161209a565b604082015292915050565b803560ff8116811461242857600080fd5b600082601f8301126124a457600080fd5b813560206124b46122cc836123eb565b828152606092830285018201928282019190878511156124d357600080fd5b8387015b8581101561252a5781818a0312156124ef5760008081fd5b6124f76121a9565b81356125028161209a565b815261250f828701612482565b818701526040828101359082015284529284019281016124d7565b5090979650505050505050565b600082601f83011261254857600080fd5b813560206125586122cc836123eb565b82815260059290921b8401810191818101908684111561257757600080fd5b8286015b8481101561269c57803567ffffffffffffffff8082111561259b57600080fd5b908801906060828b037fffffffffffffffffffffffffffffffffffffffffffffffffffffffffffffffe00112156125d25760008081fd5b6125da6121a9565b868301356125e78161209a565b8152604083810135838111156125fd5760008081fd5b8401603f81018d1361260f5760008081fd5b8881013561261f6122cc826123eb565b81815260059190911b82018301908a8101908f83111561263f5760008081fd5b928401925b8284101561265d5783358252928b0192908b0190612644565b858c01525050506060840135838111156126775760008081fd5b6126858d8a838801016122ad565b91830191909152508552505091830191830161257b565b509695505050505050565b600080604083850312156126ba57600080fd5b67ffffffffffffffff80843511156126d157600080fd5b60a084358501860312156126e457600080fd5b6126ec6121d2565b843585018035825260208082013590830152604080820135908301526060013582101561271857600080fd5b84358501606081013501601f8101871361273157600080fd5b61273e6122cc82356123eb565b81358082526020808301929160051b84010189101561275c57600080fd5b602083015b6020843560051b8501018110156128dd57858135111561278057600080fd5b7fffffffffffffffffffffffffffffffffffffffffffffffffffffffffffffffe0608081833587018d030112156127b657600080fd5b6127be6121f5565b87602084358801013511156127d257600080fd5b8235860160208101350160e0818e03840112156127ee57600080fd5b6127f66121d2565b9250612805602082013561209a565b602081013583526128186040820161241d565b602084015261282a8d6060830161242d565b60408401528860c0820135111561284057600080fd5b6128538d602060c0840135840101612493565b60608401528860e0820135111561286957600080fd5b61287c8d602060e0840135840101612493565b608084015250818152604083358701013560208201526060833587010135604082015287608084358801013511156128b357600080fd5b6128c98c84358801608081013501602001612537565b606082015284525060209283019201612761565b506060840152505084358501608001358210156128f957600080fd5b61290c86863587016080810135016122ad565b60808201529250602084013581101561292457600080fd5b5061293584602085013585016122ad565b90509250929050565b600081518084526020808501945080840160005b8381101561299d578151805173ffffffffffffffffffffffffffffffffffffffff1688528381015160ff16848901526040908101519088015260609096019590820190600101612952565b509495945050505050565b600081518084526020808501945080840160005b8381101561299d578151875295820195908201906001016129bc565b60005b838110156129f35781810151838201526020016129db565b50506000910152565b60008151808452612a148160208601602086016129d8565b601f017fffffffffffffffffffffffffffffffffffffffffffffffffffffffffffffffe0169290920160200192915050565b600081518084526020808501808196508360051b8101915082860160005b85811015612ad55782840389528151606073ffffffffffffffffffffffffffffffffffffffff8251168652868201518188880152612aa4828801826129a8565b91505060408083015192508682038188015250612ac181836129fc565b9a87019a9550505090840190600101612a64565b5091979650505050505050565b6000602080835260c0830184518285015281850151604081818701528087015191506060828188015280880151925060a0608081818a015285855180885260e09750878b019150878160051b8c0101898801975060005b82811015612c4c578c82037fffffffffffffffffffffffffffffffffffffffffffffffffffffffffffffff2001845288518051868452805173ffffffffffffffffffffffffffffffffffffffff908116888601528d8201511515898601528a8201518051821660c0870152808f015182168e8701528b0151166101008501528881015161012085018d9052612bd261016086018261293e565b918801518583037fffffffffffffffffffffffffffffffffffffffffffffffffffffffffffffff8001610140870152919050612c0e818361293e565b9150508c8201518d850152898201518a85015288820151915083810389850152612c388183612a46565b9a8d019a958d019593505050600101612b39565b50838d015199507fffffffffffffffffffffffffffffffffffffffffffffffffffffffffffffffe08c820301858d0152612c86818b6129fc565b9d9c50505050505050505050505050565b60008060408385031215612caa57600080fd5b505080516020909101519092909150565b600082601f830112612ccc57600080fd5b8151612cda6122cc82612267565b818152846020838601011115612cef57600080fd5b611a228260208301602087016129d8565b600082601f830112612d1157600080fd5b81516020612d216122cc836123eb565b82815260059290921b84018101918181019086841115612d4057600080fd5b8286015b8481101561269c5780518352918301918301612d44565b600060208284031215612d6d57600080fd5b815167ffffffffffffffff80821115612d8557600080fd5b9083019060608286031215612d9957600080fd5b612da16121a9565b8251612dac8161209a565b8152602083015182811115612dc057600080fd5b830160608188031215612dd257600080fd5b612dda6121a9565b8151612de58161209a565b8152602082015184811115612df957600080fd5b612e0589828501612cbb565b602083015250604082015184811115612e1d57600080fd5b612e2989828501612d00565b6040830152508060208401525050604083015182811115612e4957600080fd5b612e5587828601612cbb565b60408301525095945050505050565b600073ffffffffffffffffffffffffffffffffffffffff80851683526040602084015280845116604084015260208401516060808501528181511660a085015260208101519150606060c0850152612ec06101008501836129fc565b9150604081015190507fffffffffffffffffffffffffffffffffffffffffffffffffffffffffffffff608483030160e0850152612efd82826129a8565b91505060408401517fffffffffffffffffffffffffffffffffffffffffffffffffffffffffffffffc0848303016080850152611a9b82826129fc565b604081526000612f4c60408301856129fc565b8281036020840152612f5e81856129a8565b95945050505050565b60008060008060808587031215612f7d57600080fd5b8451612f888161209a565b6020860151909450612f998161209a565b6040860151909350612faa8161209a565b606086015190925067ffffffffffffffff811115612fc757600080fd5b612fd387828801612cbb565b91505092959194509250565b60008083357fffffffffffffffffffffffffffffffffffffffffffffffffffffffffffffffe184360301811261301457600080fd5b83018035915067ffffffffffffffff82111561302f57600080fd5b6020019150600581901b3603821315611d0b57600080fd5b60008083357fffffffffffffffffffffffffffffffffffffffffffffffffffffffffffffffe184360301811261307c57600080fd5b830160208101925035905067ffffffffffffffff81111561309c57600080fd5b8060051b3603821315611d0b57600080fd5b60008083357fffffffffffffffffffffffffffffffffffffffffffffffffffffffffffffffe18436030181126130e357600080fd5b830160208101925035905067ffffffffffffffff81111561310357600080fd5b606081023603821315611d0b57600080fd5b8183526000602080850194508260005b8581101561299d5781356131388161209a565b73ffffffffffffffffffffffffffffffffffffffff16875260ff61315d838501612482565b16878401526040828101359088015260609687019690910190600101613125565b60008083357fffffffffffffffffffffffffffffffffffffffffffffffffffffffffffffffe18436030181126131b357600080fd5b830160208101925035905067ffffffffffffffff8111156131d357600080fd5b803603821315611d0b57600080fd5b8183528181602085013750600060208284010152600060207fffffffffffffffffffffffffffffffffffffffffffffffffffffffffffffffe0601f840116840101905092915050565b81835260006020808501808196506005915085821b81018560005b8881101561333c578383038a5281357fffffffffffffffffffffffffffffffffffffffffffffffffffffffffffffffa189360301811261328557600080fd5b8801606081356132948161209a565b73ffffffffffffffffffffffffffffffffffffffff1685526132b882890183613047565b828a8801528083880152608092507f07ffffffffffffffffffffffffffffffffffffffffffffffffffffffffffffff8111156132f357600080fd5b881b80828885013786019050604061330d8482018561317e565b945083888403018289015261332584840186836131e2565b9e8b019e9750505093880193505050600101613246565b509098975050505050505050565b6000604080835260e083018635828501526020606081890135818701526080848a01358188015261337d828b018b613047565b60a0898101529485905261010094858901600582901b8a0187018360005b84811015613565577fffffffffffffffffffffffffffffffffffffffffffffffffffffffffffffff008d840301845281357fffffffffffffffffffffffffffffffffffffffffffffffffffffffffffffff818736030181126133fc57600080fd5b86018035368290037fffffffffffffffffffffffffffffffffffffffffffffffffffffffffffffff2101811261343157600080fd5b888552810180356134418161209a565b73ffffffffffffffffffffffffffffffffffffffff908116868b0152818c01359061346b8261240f565b90151560a087015260c090828f01356134838161209a565b811687830152828c01356134968161209a565b811660e0880152828b01356134aa8161209a565b16868e01526134bc60a08301836130ae565b60e06101208901526134d361016089018284613115565b9150506134e2828401846130ae565b935091507fffffffffffffffffffffffffffffffffffffffffffffffffffffffffffffff808782030161014088015261351c818484613115565b925050508a8201358b8601528c8201358d86015261353c8a830183613047565b92508582038b87015261355082848361322b565b968c019695505050918901915060010161339b565b5050613573858f018f61317e565b995097507fffffffffffffffffffffffffffffffffffffffffffffffffffffffffffffffc08b82030160c08c01526135ac818a8a6131e2565b9850505050505050848303818601525050611a9b8185876131e2565b7f4e487b7100000000000000000000000000000000000000000000000000000000600052603260045260246000fd5b600082357fffffffffffffffffffffffffffffffffffffffffffffffffffffffffffffff8183360301811261362b57600080fd5b9190910192915050565b600082357fffffffffffffffffffffffffffffffffffffffffffffffffffffffffffffff2183360301811261362b57600080fd5b60008083357fffffffffffffffffffffffffffffffffffffffffffffffffffffffffffffffe184360301811261369e57600080fd5b83018035915067ffffffffffffffff8211156136b957600080fd5b6020019150606081023603821315611d0b57600080fd5b6000602082840312156136e257600080fd5b81356120938161209a565b600060a0820173ffffffffffffffffffffffffffffffffffffffff881683526020878185015286604085015260a0606085015281865180845260c08601915060c08160051b870101935082880160005b82811015613789577fffffffffffffffffffffffffffffffffffffffffffffffffffffffffffffff408887030184526137778683516129a8565b9550928401929084019060010161373d565b505050505082810360808401526137a081856129a8565b98975050505050505050565b600080604083850312156137bf57600080fd5b825167ffffffffffffffff808211156137d757600080fd5b6137e386838701612d00565b935060208501519150808211156137f957600080fd5b5061380685828601612d00565b9150509250929050565b828152604060208201526000611a2260408301846129a8565b600073ffffffffffffffffffffffffffffffffffffffff808716835280861660208401525083604083015260806060830152611a9b60808301846129fc565b60006020828403121561387a57600080fd5b81516120938161240f565b60006020828403121561389757600080fd5b5051919050565b6000806000606084860312156138b357600080fd5b83516138be8161209a565b60208501519093506138cf8161209a565b604085015190925067ffffffffffffffff8111156138ec57600080fd5b6138f886828701612cbb565b9150509250925092565b7f4e487b7100000000000000000000000000000000000000000000000000000000600052602160045260246000fd5b6000825161362b8184602087016129d8565b828152604060208201526000611a2260408301846129fc565b60208152600061209360208301846129fc56fe416464726573733a206c6f772d6c6576656c2063616c6c20776974682076616c7565206661696c6564",
    "linkReferences": {}
  },
  "methodIdentifiers": {
    "arb((uint256,uint256,uint256,((address,bool,(address,address,address),(address,uint8,uint256)[],(address,uint8,uint256)[]),uint256,uint256,(address,uint256[],bytes)[])[],bytes),uint256,bytes)": "ae61ec12",
    "initialize((address,(address,bytes,uint256[]),bytes))": "98da8d6a",
    "initialize(bytes)": "439fab91",
    "onFlashLoan(address,address,uint256,uint256,bytes)": "23e30c8b",
    "sI9r()": "71c1dea7",
    "sI9rDispatch()": "89448c3a",
    "sI9rStore()": "61bb39e4",
    "sOrderBook()": "886d1650",
    "supportsInterface(bytes4)": "01ffc9a7"
  },
  "id": 171
}