{
  "abi": [
    {
      "inputs": [
        {
          "components": [
            {
              "internalType": "address",
              "name": "deployer",
              "type": "address"
            },
            {
              "internalType": "bytes",
              "name": "meta",
              "type": "bytes"
            }
          ],
          "internalType": "struct DeployerDiscoverableMetaV2ConstructionConfig",
          "name": "config",
          "type": "tuple"
        }
      ],
      "stateMutability": "nonpayable",
      "type": "constructor"
    },
    {
      "inputs": [
        {
          "internalType": "address",
          "name": "receiver",
          "type": "address"
        },
        {
          "internalType": "address",
          "name": "token",
          "type": "address"
        },
        {
          "internalType": "uint256",
          "name": "amount",
          "type": "uint256"
        }
      ],
      "name": "ActiveDebt",
      "type": "error"
    },
    {
      "inputs": [
        {
          "internalType": "bytes32",
          "name": "result",
          "type": "bytes32"
        }
      ],
      "name": "FlashLenderCallbackFailed",
      "type": "error"
    },
    {
      "inputs": [
        {
          "internalType": "uint256",
          "name": "i",
          "type": "uint256"
        }
      ],
      "name": "InvalidSignature",
      "type": "error"
    },
    {
      "inputs": [
        {
          "internalType": "uint256",
          "name": "minimumInput",
          "type": "uint256"
        },
        {
          "internalType": "uint256",
          "name": "input",
          "type": "uint256"
        }
      ],
      "name": "MinimumInput",
      "type": "error"
    },
    {
      "inputs": [],
      "name": "NoOrders",
      "type": "error"
    },
    {
      "inputs": [
        {
          "internalType": "address",
          "name": "sender",
          "type": "address"
        },
        {
          "internalType": "address",
          "name": "owner",
          "type": "address"
        }
      ],
      "name": "NotOrderOwner",
      "type": "error"
    },
    {
      "inputs": [
        {
          "internalType": "bytes",
          "name": "unmeta",
          "type": "bytes"
        }
      ],
      "name": "NotRainMetaV1",
      "type": "error"
    },
    {
      "inputs": [
        {
          "internalType": "address",
          "name": "sender",
          "type": "address"
        }
      ],
      "name": "OrderNoHandleIO",
      "type": "error"
    },
    {
      "inputs": [
        {
          "internalType": "address",
          "name": "sender",
          "type": "address"
        }
      ],
      "name": "OrderNoInputs",
      "type": "error"
    },
    {
      "inputs": [
        {
          "internalType": "address",
          "name": "sender",
          "type": "address"
        }
      ],
      "name": "OrderNoOutputs",
      "type": "error"
    },
    {
      "inputs": [
        {
          "internalType": "address",
          "name": "sender",
          "type": "address"
        }
      ],
      "name": "OrderNoSources",
      "type": "error"
    },
    {
      "inputs": [],
      "name": "ReentrancyGuardReentrantCall",
      "type": "error"
    },
    {
      "inputs": [
        {
          "internalType": "address",
          "name": "owner",
          "type": "address"
        }
      ],
      "name": "SameOwner",
      "type": "error"
    },
    {
      "inputs": [
        {
          "internalType": "bytes",
          "name": "bytecode",
          "type": "bytes"
        },
        {
          "internalType": "uint256",
          "name": "sourceIndex",
          "type": "uint256"
        }
      ],
      "name": "SourceOffsetOutOfBounds",
      "type": "error"
    },
    {
      "inputs": [
        {
          "internalType": "uint8",
          "name": "aliceTokenDecimals",
          "type": "uint8"
        },
        {
          "internalType": "uint8",
          "name": "bobTokenDecimals",
          "type": "uint8"
        }
      ],
      "name": "TokenDecimalsMismatch",
      "type": "error"
    },
    {
      "inputs": [
        {
          "internalType": "address",
          "name": "aliceToken",
          "type": "address"
        },
        {
          "internalType": "address",
          "name": "bobToken",
          "type": "address"
        }
      ],
      "name": "TokenMismatch",
      "type": "error"
    },
    {
      "inputs": [
        {
          "internalType": "bytes32",
          "name": "expectedHash",
          "type": "bytes32"
        },
        {
          "internalType": "bytes32",
          "name": "actualHash",
          "type": "bytes32"
        }
      ],
      "name": "UnexpectedMetaHash",
      "type": "error"
    },
    {
      "inputs": [],
      "name": "ZeroAmount",
      "type": "error"
    },
    {
      "inputs": [
        {
          "internalType": "address",
          "name": "sender",
          "type": "address"
        },
        {
          "internalType": "address",
          "name": "token",
          "type": "address"
        },
        {
          "internalType": "uint256",
          "name": "vaultId",
          "type": "uint256"
        }
      ],
      "name": "ZeroDepositAmount",
      "type": "error"
    },
    {
      "inputs": [],
      "name": "ZeroReceiver",
      "type": "error"
    },
    {
      "inputs": [],
      "name": "ZeroToken",
      "type": "error"
    },
    {
      "inputs": [
        {
          "internalType": "address",
          "name": "sender",
          "type": "address"
        },
        {
          "internalType": "address",
          "name": "token",
          "type": "address"
        },
        {
          "internalType": "uint256",
          "name": "vaultId",
          "type": "uint256"
        }
      ],
      "name": "ZeroWithdrawTargetAmount",
      "type": "error"
    },
    {
      "anonymous": false,
      "inputs": [
        {
          "indexed": false,
          "internalType": "address",
          "name": "sender",
          "type": "address"
        },
        {
          "indexed": false,
          "internalType": "contract IExpressionDeployerV2",
          "name": "expressionDeployer",
          "type": "address"
        },
        {
          "components": [
            {
              "internalType": "address",
              "name": "owner",
              "type": "address"
            },
            {
              "internalType": "bool",
              "name": "handleIO",
              "type": "bool"
            },
            {
              "components": [
                {
                  "internalType": "contract IInterpreterV1",
                  "name": "interpreter",
                  "type": "address"
                },
                {
                  "internalType": "contract IInterpreterStoreV1",
                  "name": "store",
                  "type": "address"
                },
                {
                  "internalType": "address",
                  "name": "expression",
                  "type": "address"
                }
              ],
              "internalType": "struct Evaluable",
              "name": "evaluable",
              "type": "tuple"
            },
            {
              "components": [
                {
                  "internalType": "address",
                  "name": "token",
                  "type": "address"
                },
                {
                  "internalType": "uint8",
                  "name": "decimals",
                  "type": "uint8"
                },
                {
                  "internalType": "uint256",
                  "name": "vaultId",
                  "type": "uint256"
                }
              ],
              "internalType": "struct IO[]",
              "name": "validInputs",
              "type": "tuple[]"
            },
            {
              "components": [
                {
                  "internalType": "address",
                  "name": "token",
                  "type": "address"
                },
                {
                  "internalType": "uint8",
                  "name": "decimals",
                  "type": "uint8"
                },
                {
                  "internalType": "uint256",
                  "name": "vaultId",
                  "type": "uint256"
                }
              ],
              "internalType": "struct IO[]",
              "name": "validOutputs",
              "type": "tuple[]"
            }
          ],
          "indexed": false,
          "internalType": "struct Order",
          "name": "order",
          "type": "tuple"
        },
        {
          "indexed": false,
          "internalType": "bytes32",
          "name": "orderHash",
          "type": "bytes32"
        }
      ],
      "name": "AddOrder",
      "type": "event"
    },
    {
      "anonymous": false,
      "inputs": [
        {
          "indexed": false,
          "internalType": "address",
          "name": "sender",
          "type": "address"
        },
        {
          "components": [
            {
              "internalType": "uint256",
              "name": "aliceOutput",
              "type": "uint256"
            },
            {
              "internalType": "uint256",
              "name": "bobOutput",
              "type": "uint256"
            },
            {
              "internalType": "uint256",
              "name": "aliceInput",
              "type": "uint256"
            },
            {
              "internalType": "uint256",
              "name": "bobInput",
              "type": "uint256"
            }
          ],
          "indexed": false,
          "internalType": "struct ClearStateChange",
          "name": "clearStateChange",
          "type": "tuple"
        }
      ],
      "name": "AfterClear",
      "type": "event"
    },
    {
      "anonymous": false,
      "inputs": [
        {
          "indexed": false,
          "internalType": "address",
          "name": "sender",
          "type": "address"
        },
        {
          "components": [
            {
              "internalType": "address",
              "name": "owner",
              "type": "address"
            },
            {
              "internalType": "bool",
              "name": "handleIO",
              "type": "bool"
            },
            {
              "components": [
                {
                  "internalType": "contract IInterpreterV1",
                  "name": "interpreter",
                  "type": "address"
                },
                {
                  "internalType": "contract IInterpreterStoreV1",
                  "name": "store",
                  "type": "address"
                },
                {
                  "internalType": "address",
                  "name": "expression",
                  "type": "address"
                }
              ],
              "internalType": "struct Evaluable",
              "name": "evaluable",
              "type": "tuple"
            },
            {
              "components": [
                {
                  "internalType": "address",
                  "name": "token",
                  "type": "address"
                },
                {
                  "internalType": "uint8",
                  "name": "decimals",
                  "type": "uint8"
                },
                {
                  "internalType": "uint256",
                  "name": "vaultId",
                  "type": "uint256"
                }
              ],
              "internalType": "struct IO[]",
              "name": "validInputs",
              "type": "tuple[]"
            },
            {
              "components": [
                {
                  "internalType": "address",
                  "name": "token",
                  "type": "address"
                },
                {
                  "internalType": "uint8",
                  "name": "decimals",
                  "type": "uint8"
                },
                {
                  "internalType": "uint256",
                  "name": "vaultId",
                  "type": "uint256"
                }
              ],
              "internalType": "struct IO[]",
              "name": "validOutputs",
              "type": "tuple[]"
            }
          ],
          "indexed": false,
          "internalType": "struct Order",
          "name": "alice",
          "type": "tuple"
        },
        {
          "components": [
            {
              "internalType": "address",
              "name": "owner",
              "type": "address"
            },
            {
              "internalType": "bool",
              "name": "handleIO",
              "type": "bool"
            },
            {
              "components": [
                {
                  "internalType": "contract IInterpreterV1",
                  "name": "interpreter",
                  "type": "address"
                },
                {
                  "internalType": "contract IInterpreterStoreV1",
                  "name": "store",
                  "type": "address"
                },
                {
                  "internalType": "address",
                  "name": "expression",
                  "type": "address"
                }
              ],
              "internalType": "struct Evaluable",
              "name": "evaluable",
              "type": "tuple"
            },
            {
              "components": [
                {
                  "internalType": "address",
                  "name": "token",
                  "type": "address"
                },
                {
                  "internalType": "uint8",
                  "name": "decimals",
                  "type": "uint8"
                },
                {
                  "internalType": "uint256",
                  "name": "vaultId",
                  "type": "uint256"
                }
              ],
              "internalType": "struct IO[]",
              "name": "validInputs",
              "type": "tuple[]"
            },
            {
              "components": [
                {
                  "internalType": "address",
                  "name": "token",
                  "type": "address"
                },
                {
                  "internalType": "uint8",
                  "name": "decimals",
                  "type": "uint8"
                },
                {
                  "internalType": "uint256",
                  "name": "vaultId",
                  "type": "uint256"
                }
              ],
              "internalType": "struct IO[]",
              "name": "validOutputs",
              "type": "tuple[]"
            }
          ],
          "indexed": false,
          "internalType": "struct Order",
          "name": "bob",
          "type": "tuple"
        },
        {
          "components": [
            {
              "internalType": "uint256",
              "name": "aliceInputIOIndex",
              "type": "uint256"
            },
            {
              "internalType": "uint256",
              "name": "aliceOutputIOIndex",
              "type": "uint256"
            },
            {
              "internalType": "uint256",
              "name": "bobInputIOIndex",
              "type": "uint256"
            },
            {
              "internalType": "uint256",
              "name": "bobOutputIOIndex",
              "type": "uint256"
            },
            {
              "internalType": "uint256",
              "name": "aliceBountyVaultId",
              "type": "uint256"
            },
            {
              "internalType": "uint256",
              "name": "bobBountyVaultId",
              "type": "uint256"
            }
          ],
          "indexed": false,
          "internalType": "struct ClearConfig",
          "name": "clearConfig",
          "type": "tuple"
        }
      ],
      "name": "Clear",
      "type": "event"
    },
    {
      "anonymous": false,
      "inputs": [
        {
          "indexed": false,
          "internalType": "address",
          "name": "sender",
          "type": "address"
        },
        {
          "indexed": false,
          "internalType": "uint256[][]",
          "name": "context",
          "type": "uint256[][]"
        }
      ],
      "name": "Context",
      "type": "event"
    },
    {
      "anonymous": false,
      "inputs": [
        {
          "indexed": false,
          "internalType": "address",
          "name": "sender",
          "type": "address"
        },
        {
          "indexed": false,
          "internalType": "address",
          "name": "token",
          "type": "address"
        },
        {
          "indexed": false,
          "internalType": "uint256",
          "name": "vaultId",
          "type": "uint256"
        },
        {
          "indexed": false,
          "internalType": "uint256",
          "name": "amount",
          "type": "uint256"
        }
      ],
      "name": "Deposit",
      "type": "event"
    },
    {
      "anonymous": false,
      "inputs": [
        {
          "indexed": false,
          "internalType": "address",
          "name": "sender",
          "type": "address"
        },
        {
          "indexed": false,
          "internalType": "uint256",
          "name": "subject",
          "type": "uint256"
        },
        {
          "indexed": false,
          "internalType": "bytes",
          "name": "meta",
          "type": "bytes"
        }
      ],
      "name": "MetaV1",
      "type": "event"
    },
    {
      "anonymous": false,
      "inputs": [
        {
          "indexed": false,
          "internalType": "address",
          "name": "sender",
          "type": "address"
        },
        {
          "indexed": false,
          "internalType": "address",
          "name": "owner",
          "type": "address"
        },
        {
          "indexed": false,
          "internalType": "bytes32",
          "name": "orderHash",
          "type": "bytes32"
        }
      ],
      "name": "OrderExceedsMaxRatio",
      "type": "event"
    },
    {
      "anonymous": false,
      "inputs": [
        {
          "indexed": false,
          "internalType": "address",
          "name": "sender",
          "type": "address"
        },
        {
          "indexed": false,
          "internalType": "address",
          "name": "owner",
          "type": "address"
        },
        {
          "indexed": false,
          "internalType": "bytes32",
          "name": "orderHash",
          "type": "bytes32"
        }
      ],
      "name": "OrderNotFound",
      "type": "event"
    },
    {
      "anonymous": false,
      "inputs": [
        {
          "indexed": false,
          "internalType": "address",
          "name": "sender",
          "type": "address"
        },
        {
          "indexed": false,
          "internalType": "address",
          "name": "owner",
          "type": "address"
        },
        {
          "indexed": false,
          "internalType": "bytes32",
          "name": "orderHash",
          "type": "bytes32"
        }
      ],
      "name": "OrderZeroAmount",
      "type": "event"
    },
    {
      "anonymous": false,
      "inputs": [
        {
          "indexed": false,
          "internalType": "address",
          "name": "sender",
          "type": "address"
        },
        {
          "components": [
            {
              "internalType": "address",
              "name": "owner",
              "type": "address"
            },
            {
              "internalType": "bool",
              "name": "handleIO",
              "type": "bool"
            },
            {
              "components": [
                {
                  "internalType": "contract IInterpreterV1",
                  "name": "interpreter",
                  "type": "address"
                },
                {
                  "internalType": "contract IInterpreterStoreV1",
                  "name": "store",
                  "type": "address"
                },
                {
                  "internalType": "address",
                  "name": "expression",
                  "type": "address"
                }
              ],
              "internalType": "struct Evaluable",
              "name": "evaluable",
              "type": "tuple"
            },
            {
              "components": [
                {
                  "internalType": "address",
                  "name": "token",
                  "type": "address"
                },
                {
                  "internalType": "uint8",
                  "name": "decimals",
                  "type": "uint8"
                },
                {
                  "internalType": "uint256",
                  "name": "vaultId",
                  "type": "uint256"
                }
              ],
              "internalType": "struct IO[]",
              "name": "validInputs",
              "type": "tuple[]"
            },
            {
              "components": [
                {
                  "internalType": "address",
                  "name": "token",
                  "type": "address"
                },
                {
                  "internalType": "uint8",
                  "name": "decimals",
                  "type": "uint8"
                },
                {
                  "internalType": "uint256",
                  "name": "vaultId",
                  "type": "uint256"
                }
              ],
              "internalType": "struct IO[]",
              "name": "validOutputs",
              "type": "tuple[]"
            }
          ],
          "indexed": false,
          "internalType": "struct Order",
          "name": "order",
          "type": "tuple"
        },
        {
          "indexed": false,
          "internalType": "bytes32",
          "name": "orderHash",
          "type": "bytes32"
        }
      ],
      "name": "RemoveOrder",
      "type": "event"
    },
    {
      "anonymous": false,
      "inputs": [
        {
          "indexed": false,
          "internalType": "address",
          "name": "sender",
          "type": "address"
        },
        {
          "components": [
            {
              "components": [
                {
                  "internalType": "address",
                  "name": "owner",
                  "type": "address"
                },
                {
                  "internalType": "bool",
                  "name": "handleIO",
                  "type": "bool"
                },
                {
                  "components": [
                    {
                      "internalType": "contract IInterpreterV1",
                      "name": "interpreter",
                      "type": "address"
                    },
                    {
                      "internalType": "contract IInterpreterStoreV1",
                      "name": "store",
                      "type": "address"
                    },
                    {
                      "internalType": "address",
                      "name": "expression",
                      "type": "address"
                    }
                  ],
                  "internalType": "struct Evaluable",
                  "name": "evaluable",
                  "type": "tuple"
                },
                {
                  "components": [
                    {
                      "internalType": "address",
                      "name": "token",
                      "type": "address"
                    },
                    {
                      "internalType": "uint8",
                      "name": "decimals",
                      "type": "uint8"
                    },
                    {
                      "internalType": "uint256",
                      "name": "vaultId",
                      "type": "uint256"
                    }
                  ],
                  "internalType": "struct IO[]",
                  "name": "validInputs",
                  "type": "tuple[]"
                },
                {
                  "components": [
                    {
                      "internalType": "address",
                      "name": "token",
                      "type": "address"
                    },
                    {
                      "internalType": "uint8",
                      "name": "decimals",
                      "type": "uint8"
                    },
                    {
                      "internalType": "uint256",
                      "name": "vaultId",
                      "type": "uint256"
                    }
                  ],
                  "internalType": "struct IO[]",
                  "name": "validOutputs",
                  "type": "tuple[]"
                }
              ],
              "internalType": "struct Order",
              "name": "order",
              "type": "tuple"
            },
            {
              "internalType": "uint256",
              "name": "inputIOIndex",
              "type": "uint256"
            },
            {
              "internalType": "uint256",
              "name": "outputIOIndex",
              "type": "uint256"
            },
            {
              "components": [
                {
                  "internalType": "address",
                  "name": "signer",
                  "type": "address"
                },
                {
                  "internalType": "uint256[]",
                  "name": "context",
                  "type": "uint256[]"
                },
                {
                  "internalType": "bytes",
                  "name": "signature",
                  "type": "bytes"
                }
              ],
              "internalType": "struct SignedContextV1[]",
              "name": "signedContext",
              "type": "tuple[]"
            }
          ],
          "indexed": false,
          "internalType": "struct TakeOrderConfig",
          "name": "config",
          "type": "tuple"
        },
        {
          "indexed": false,
          "internalType": "uint256",
          "name": "input",
          "type": "uint256"
        },
        {
          "indexed": false,
          "internalType": "uint256",
          "name": "output",
          "type": "uint256"
        }
      ],
      "name": "TakeOrder",
      "type": "event"
    },
    {
      "anonymous": false,
      "inputs": [
        {
          "indexed": false,
          "internalType": "address",
          "name": "sender",
          "type": "address"
        },
        {
          "indexed": false,
          "internalType": "address",
          "name": "token",
          "type": "address"
        },
        {
          "indexed": false,
          "internalType": "uint256",
          "name": "vaultId",
          "type": "uint256"
        },
        {
          "indexed": false,
          "internalType": "uint256",
          "name": "targetAmount",
          "type": "uint256"
        },
        {
          "indexed": false,
          "internalType": "uint256",
          "name": "amount",
          "type": "uint256"
        }
      ],
      "name": "Withdraw",
      "type": "event"
    },
    {
      "inputs": [
        {
          "components": [
            {
              "components": [
                {
                  "internalType": "address",
                  "name": "token",
                  "type": "address"
                },
                {
                  "internalType": "uint8",
                  "name": "decimals",
                  "type": "uint8"
                },
                {
                  "internalType": "uint256",
                  "name": "vaultId",
                  "type": "uint256"
                }
              ],
              "internalType": "struct IO[]",
              "name": "validInputs",
              "type": "tuple[]"
            },
            {
              "components": [
                {
                  "internalType": "address",
                  "name": "token",
                  "type": "address"
                },
                {
                  "internalType": "uint8",
                  "name": "decimals",
                  "type": "uint8"
                },
                {
                  "internalType": "uint256",
                  "name": "vaultId",
                  "type": "uint256"
                }
              ],
              "internalType": "struct IO[]",
              "name": "validOutputs",
              "type": "tuple[]"
            },
            {
              "components": [
                {
                  "internalType": "contract IExpressionDeployerV2",
                  "name": "deployer",
                  "type": "address"
                },
                {
                  "internalType": "bytes",
                  "name": "bytecode",
                  "type": "bytes"
                },
                {
                  "internalType": "uint256[]",
                  "name": "constants",
                  "type": "uint256[]"
                }
              ],
              "internalType": "struct EvaluableConfigV2",
              "name": "evaluableConfig",
              "type": "tuple"
            },
            {
              "internalType": "bytes",
              "name": "meta",
              "type": "bytes"
            }
          ],
          "internalType": "struct OrderConfigV2",
          "name": "config",
          "type": "tuple"
        }
      ],
      "name": "addOrder",
      "outputs": [
        {
          "internalType": "bool",
          "name": "stateChanged",
          "type": "bool"
        }
      ],
      "stateMutability": "nonpayable",
      "type": "function"
    },
    {
      "inputs": [
        {
          "components": [
            {
              "internalType": "address",
              "name": "owner",
              "type": "address"
            },
            {
              "internalType": "bool",
              "name": "handleIO",
              "type": "bool"
            },
            {
              "components": [
                {
                  "internalType": "contract IInterpreterV1",
                  "name": "interpreter",
                  "type": "address"
                },
                {
                  "internalType": "contract IInterpreterStoreV1",
                  "name": "store",
                  "type": "address"
                },
                {
                  "internalType": "address",
                  "name": "expression",
                  "type": "address"
                }
              ],
              "internalType": "struct Evaluable",
              "name": "evaluable",
              "type": "tuple"
            },
            {
              "components": [
                {
                  "internalType": "address",
                  "name": "token",
                  "type": "address"
                },
                {
                  "internalType": "uint8",
                  "name": "decimals",
                  "type": "uint8"
                },
                {
                  "internalType": "uint256",
                  "name": "vaultId",
                  "type": "uint256"
                }
              ],
              "internalType": "struct IO[]",
              "name": "validInputs",
              "type": "tuple[]"
            },
            {
              "components": [
                {
                  "internalType": "address",
                  "name": "token",
                  "type": "address"
                },
                {
                  "internalType": "uint8",
                  "name": "decimals",
                  "type": "uint8"
                },
                {
                  "internalType": "uint256",
                  "name": "vaultId",
                  "type": "uint256"
                }
              ],
              "internalType": "struct IO[]",
              "name": "validOutputs",
              "type": "tuple[]"
            }
          ],
          "internalType": "struct Order",
          "name": "alice",
          "type": "tuple"
        },
        {
          "components": [
            {
              "internalType": "address",
              "name": "owner",
              "type": "address"
            },
            {
              "internalType": "bool",
              "name": "handleIO",
              "type": "bool"
            },
            {
              "components": [
                {
                  "internalType": "contract IInterpreterV1",
                  "name": "interpreter",
                  "type": "address"
                },
                {
                  "internalType": "contract IInterpreterStoreV1",
                  "name": "store",
                  "type": "address"
                },
                {
                  "internalType": "address",
                  "name": "expression",
                  "type": "address"
                }
              ],
              "internalType": "struct Evaluable",
              "name": "evaluable",
              "type": "tuple"
            },
            {
              "components": [
                {
                  "internalType": "address",
                  "name": "token",
                  "type": "address"
                },
                {
                  "internalType": "uint8",
                  "name": "decimals",
                  "type": "uint8"
                },
                {
                  "internalType": "uint256",
                  "name": "vaultId",
                  "type": "uint256"
                }
              ],
              "internalType": "struct IO[]",
              "name": "validInputs",
              "type": "tuple[]"
            },
            {
              "components": [
                {
                  "internalType": "address",
                  "name": "token",
                  "type": "address"
                },
                {
                  "internalType": "uint8",
                  "name": "decimals",
                  "type": "uint8"
                },
                {
                  "internalType": "uint256",
                  "name": "vaultId",
                  "type": "uint256"
                }
              ],
              "internalType": "struct IO[]",
              "name": "validOutputs",
              "type": "tuple[]"
            }
          ],
          "internalType": "struct Order",
          "name": "bob",
          "type": "tuple"
        },
        {
          "components": [
            {
              "internalType": "uint256",
              "name": "aliceInputIOIndex",
              "type": "uint256"
            },
            {
              "internalType": "uint256",
              "name": "aliceOutputIOIndex",
              "type": "uint256"
            },
            {
              "internalType": "uint256",
              "name": "bobInputIOIndex",
              "type": "uint256"
            },
            {
              "internalType": "uint256",
              "name": "bobOutputIOIndex",
              "type": "uint256"
            },
            {
              "internalType": "uint256",
              "name": "aliceBountyVaultId",
              "type": "uint256"
            },
            {
              "internalType": "uint256",
              "name": "bobBountyVaultId",
              "type": "uint256"
            }
          ],
          "internalType": "struct ClearConfig",
          "name": "clearConfig",
          "type": "tuple"
        },
        {
          "components": [
            {
              "internalType": "address",
              "name": "signer",
              "type": "address"
            },
            {
              "internalType": "uint256[]",
              "name": "context",
              "type": "uint256[]"
            },
            {
              "internalType": "bytes",
              "name": "signature",
              "type": "bytes"
            }
          ],
          "internalType": "struct SignedContextV1[]",
          "name": "aliceSignedContext",
          "type": "tuple[]"
        },
        {
          "components": [
            {
              "internalType": "address",
              "name": "signer",
              "type": "address"
            },
            {
              "internalType": "uint256[]",
              "name": "context",
              "type": "uint256[]"
            },
            {
              "internalType": "bytes",
              "name": "signature",
              "type": "bytes"
            }
          ],
          "internalType": "struct SignedContextV1[]",
          "name": "bobSignedContext",
          "type": "tuple[]"
        }
      ],
      "name": "clear",
      "outputs": [],
      "stateMutability": "nonpayable",
      "type": "function"
    },
    {
      "inputs": [
        {
          "internalType": "address",
          "name": "token",
          "type": "address"
        },
        {
          "internalType": "uint256",
          "name": "vaultId",
          "type": "uint256"
        },
        {
          "internalType": "uint256",
          "name": "amount",
          "type": "uint256"
        }
      ],
      "name": "deposit",
      "outputs": [],
      "stateMutability": "nonpayable",
      "type": "function"
    },
    {
      "inputs": [
        {
          "internalType": "address",
          "name": "",
          "type": "address"
        },
        {
          "internalType": "uint256",
          "name": "",
          "type": "uint256"
        }
      ],
      "name": "flashFee",
      "outputs": [
        {
          "internalType": "uint256",
          "name": "",
          "type": "uint256"
        }
      ],
      "stateMutability": "pure",
      "type": "function"
    },
    {
      "inputs": [
        {
          "internalType": "contract IERC3156FlashBorrower",
          "name": "receiver",
          "type": "address"
        },
        {
          "internalType": "address",
          "name": "token",
          "type": "address"
        },
        {
          "internalType": "uint256",
          "name": "amount",
          "type": "uint256"
        },
        {
          "internalType": "bytes",
          "name": "data",
          "type": "bytes"
        }
      ],
      "name": "flashLoan",
      "outputs": [
        {
          "internalType": "bool",
          "name": "",
          "type": "bool"
        }
      ],
      "stateMutability": "nonpayable",
      "type": "function"
    },
    {
      "inputs": [
        {
          "internalType": "address",
          "name": "token",
          "type": "address"
        }
      ],
      "name": "maxFlashLoan",
      "outputs": [
        {
          "internalType": "uint256",
          "name": "",
          "type": "uint256"
        }
      ],
      "stateMutability": "view",
      "type": "function"
    },
    {
      "inputs": [
        {
          "internalType": "bytes[]",
          "name": "data",
          "type": "bytes[]"
        }
      ],
      "name": "multicall",
      "outputs": [
        {
          "internalType": "bytes[]",
          "name": "results",
          "type": "bytes[]"
        }
      ],
      "stateMutability": "nonpayable",
      "type": "function"
    },
    {
      "inputs": [
        {
          "internalType": "bytes32",
          "name": "orderHash",
          "type": "bytes32"
        }
      ],
      "name": "orderExists",
      "outputs": [
        {
          "internalType": "bool",
          "name": "",
          "type": "bool"
        }
      ],
      "stateMutability": "view",
      "type": "function"
    },
    {
      "inputs": [
        {
          "components": [
            {
              "internalType": "address",
              "name": "owner",
              "type": "address"
            },
            {
              "internalType": "bool",
              "name": "handleIO",
              "type": "bool"
            },
            {
              "components": [
                {
                  "internalType": "contract IInterpreterV1",
                  "name": "interpreter",
                  "type": "address"
                },
                {
                  "internalType": "contract IInterpreterStoreV1",
                  "name": "store",
                  "type": "address"
                },
                {
                  "internalType": "address",
                  "name": "expression",
                  "type": "address"
                }
              ],
              "internalType": "struct Evaluable",
              "name": "evaluable",
              "type": "tuple"
            },
            {
              "components": [
                {
                  "internalType": "address",
                  "name": "token",
                  "type": "address"
                },
                {
                  "internalType": "uint8",
                  "name": "decimals",
                  "type": "uint8"
                },
                {
                  "internalType": "uint256",
                  "name": "vaultId",
                  "type": "uint256"
                }
              ],
              "internalType": "struct IO[]",
              "name": "validInputs",
              "type": "tuple[]"
            },
            {
              "components": [
                {
                  "internalType": "address",
                  "name": "token",
                  "type": "address"
                },
                {
                  "internalType": "uint8",
                  "name": "decimals",
                  "type": "uint8"
                },
                {
                  "internalType": "uint256",
                  "name": "vaultId",
                  "type": "uint256"
                }
              ],
              "internalType": "struct IO[]",
              "name": "validOutputs",
              "type": "tuple[]"
            }
          ],
          "internalType": "struct Order",
          "name": "order",
          "type": "tuple"
        }
      ],
      "name": "removeOrder",
      "outputs": [
        {
          "internalType": "bool",
          "name": "stateChanged",
          "type": "bool"
        }
      ],
      "stateMutability": "nonpayable",
      "type": "function"
    },
    {
      "inputs": [
        {
          "components": [
            {
              "internalType": "uint256",
              "name": "minimumInput",
              "type": "uint256"
            },
            {
              "internalType": "uint256",
              "name": "maximumInput",
              "type": "uint256"
            },
            {
              "internalType": "uint256",
              "name": "maximumIORatio",
              "type": "uint256"
            },
            {
              "components": [
                {
                  "components": [
                    {
                      "internalType": "address",
                      "name": "owner",
                      "type": "address"
                    },
                    {
                      "internalType": "bool",
                      "name": "handleIO",
                      "type": "bool"
                    },
                    {
                      "components": [
                        {
                          "internalType": "contract IInterpreterV1",
                          "name": "interpreter",
                          "type": "address"
                        },
                        {
                          "internalType": "contract IInterpreterStoreV1",
                          "name": "store",
                          "type": "address"
                        },
                        {
                          "internalType": "address",
                          "name": "expression",
                          "type": "address"
                        }
                      ],
                      "internalType": "struct Evaluable",
                      "name": "evaluable",
                      "type": "tuple"
                    },
                    {
                      "components": [
                        {
                          "internalType": "address",
                          "name": "token",
                          "type": "address"
                        },
                        {
                          "internalType": "uint8",
                          "name": "decimals",
                          "type": "uint8"
                        },
                        {
                          "internalType": "uint256",
                          "name": "vaultId",
                          "type": "uint256"
                        }
                      ],
                      "internalType": "struct IO[]",
                      "name": "validInputs",
                      "type": "tuple[]"
                    },
                    {
                      "components": [
                        {
                          "internalType": "address",
                          "name": "token",
                          "type": "address"
                        },
                        {
                          "internalType": "uint8",
                          "name": "decimals",
                          "type": "uint8"
                        },
                        {
                          "internalType": "uint256",
                          "name": "vaultId",
                          "type": "uint256"
                        }
                      ],
                      "internalType": "struct IO[]",
                      "name": "validOutputs",
                      "type": "tuple[]"
                    }
                  ],
                  "internalType": "struct Order",
                  "name": "order",
                  "type": "tuple"
                },
                {
                  "internalType": "uint256",
                  "name": "inputIOIndex",
                  "type": "uint256"
                },
                {
                  "internalType": "uint256",
                  "name": "outputIOIndex",
                  "type": "uint256"
                },
                {
                  "components": [
                    {
                      "internalType": "address",
                      "name": "signer",
                      "type": "address"
                    },
                    {
                      "internalType": "uint256[]",
                      "name": "context",
                      "type": "uint256[]"
                    },
                    {
                      "internalType": "bytes",
                      "name": "signature",
                      "type": "bytes"
                    }
                  ],
                  "internalType": "struct SignedContextV1[]",
                  "name": "signedContext",
                  "type": "tuple[]"
                }
              ],
              "internalType": "struct TakeOrderConfig[]",
              "name": "orders",
              "type": "tuple[]"
            },
            {
              "internalType": "bytes",
              "name": "data",
              "type": "bytes"
            }
          ],
          "internalType": "struct TakeOrdersConfigV2",
          "name": "config",
          "type": "tuple"
        }
      ],
      "name": "takeOrders",
      "outputs": [
        {
          "internalType": "uint256",
          "name": "totalTakerInput",
          "type": "uint256"
        },
        {
          "internalType": "uint256",
          "name": "totalTakerOutput",
          "type": "uint256"
        }
      ],
      "stateMutability": "nonpayable",
      "type": "function"
    },
    {
      "inputs": [
        {
          "internalType": "address",
          "name": "owner",
          "type": "address"
        },
        {
          "internalType": "address",
          "name": "token",
          "type": "address"
        },
        {
          "internalType": "uint256",
          "name": "vaultId",
          "type": "uint256"
        }
      ],
      "name": "vaultBalance",
      "outputs": [
        {
          "internalType": "uint256",
          "name": "",
          "type": "uint256"
        }
      ],
      "stateMutability": "view",
      "type": "function"
    },
    {
      "inputs": [
        {
          "internalType": "address",
          "name": "token",
          "type": "address"
        },
        {
          "internalType": "uint256",
          "name": "vaultId",
          "type": "uint256"
        },
        {
          "internalType": "uint256",
          "name": "targetAmount",
          "type": "uint256"
        }
      ],
      "name": "withdraw",
      "outputs": [],
      "stateMutability": "nonpayable",
      "type": "function"
    }
  ],
  "bytecode": {
    "object": "0x6080604052600180546001600160a01b031990811690915560028054909116905560006003553480156200003257600080fd5b5060405162005b7538038062005b758339810160408190526200005591620002d5565b600160005560208101517ff0c79e4006636a71899066ac45a478da4eafaa3117769678b6f18d96138bc15690829062000090908390620000e7565b60208101516040517fbea766d03fa1efd3f81cc8634d08320bc62bb0ed9234ac59bbaafa5893fb6b1391620000c99133913091620003e3565b60405180910390a18051620000de906200012e565b505050620004f9565b805160208201208281146200011e5760405163074fe10f60e41b815260048101849052602481018290526044015b60405180910390fd5b6200012982620001c5565b505050565b60408051600080825260208201818152828401938490526331a66b6560e01b90935291829182916001600160a01b038616916331a66b65916200017691906044820162000452565b6060604051808303816000875af115801562000196573d6000803e3d6000fd5b505050506040513d601f19601f82011682018060405250810190620001bc919062000489565b50505050505050565b620001d081620001f5565b620001f25780604051630c89984b60e31b8152600401620001159190620004dd565b50565b60006008825110156200020a57506000919050565b50600801516001600160401b031667ff0a89c674ee78741490565b634e487b7160e01b600052604160045260246000fd5b604080519081016001600160401b038111828210171562000260576200026062000225565b60405290565b604051601f8201601f191681016001600160401b038111828210171562000291576200029162000225565b604052919050565b6001600160a01b0381168114620001f257600080fd5b60005b83811015620002cc578181015183820152602001620002b2565b50506000910152565b60006020808385031215620002e957600080fd5b82516001600160401b03808211156200030157600080fd5b90840190604082870312156200031657600080fd5b620003206200023b565b82516200032d8162000299565b815282840151828111156200034157600080fd5b80840193505086601f8401126200035757600080fd5b8251828111156200036c576200036c62000225565b62000380601f8201601f1916860162000266565b925080835287858286010111156200039757600080fd5b620003a881868501878701620002af565b5092830152509392505050565b60008151808452620003cf816020860160208601620002af565b601f01601f19169290920160200192915050565b60018060a01b03841681528260208201526060604082015260006200040c6060830184620003b5565b95945050505050565b600081518084526020808501945080840160005b83811015620004475781518752958201959082019060010162000429565b509495945050505050565b606081526000606082015260806020820152600062000475608083018562000415565b82810360408401526200040c818562000415565b6000806000606084860312156200049f57600080fd5b8351620004ac8162000299565b6020850151909350620004bf8162000299565b6040850151909250620004d28162000299565b809150509250925092565b602081526000620004f26020830184620003b5565b9392505050565b61566c80620005096000396000f3fe608060405234801561001057600080fd5b50600436106100d45760003560e01c80639e18968b11610081578063d97b2e481161005b578063d97b2e48146101cb578063d9d98ce4146101de578063e23746a3146101f157600080fd5b80639e18968b14610185578063ac9650d814610198578063b5c5f672146101b857600080fd5b8063613255ab116100b2578063613255ab14610129578063847a1bc91461014a5780638a44689c1461015d57600080fd5b80630efe6a8b146100d95780632cb77e9f146100ee5780635cffe9de14610116575b600080fd5b6100ec6100e7366004613f46565b610204565b005b6101016100fc366004613f7b565b61034b565b60405190151581526020015b60405180910390f35b610101610124366004613f94565b6103a1565b61013c610137366004614033565b61067f565b60405190815260200161010d565b610101610158366004614050565b610729565b61017061016b36600461408b565b610c64565b6040805192835260208301919091520161010d565b6100ec610193366004614590565b611494565b6101ab6101a636600461467b565b611bce565b60405161010d919061475e565b6100ec6101c6366004613f46565b611cc3565b61013c6101d93660046147de565b611e21565b61013c6101ec36600461481f565b610720565b6101016101ff36600461484b565b611ea2565b61020c611ff3565b80600003610270576040517f40e97a5e00000000000000000000000000000000000000000000000000000000815233600482015273ffffffffffffffffffffffffffffffffffffffff84166024820152604481018390526064015b60405180910390fd5b6040805133815273ffffffffffffffffffffffffffffffffffffffff85166020820152908101839052606081018290527fdcbc1c05240f31ff3ad067ef1ee35ce4997762752e3a095284754544f4c709d79060800160405180910390a16102ef73ffffffffffffffffffffffffffffffffffffffff8416333084612066565b33600090815260056020908152604080832073ffffffffffffffffffffffffffffffffffffffff871684528252808320858452909152812080548392906103379084906148b5565b90915550506001600055505050565b505050565b60008054600203610388576040517f3ee5aeb500000000000000000000000000000000000000000000000000000000815260040160405180910390fd5b506000818152600460205260409020546001145b919050565b600073ffffffffffffffffffffffffffffffffffffffff86166103f0576040517f6ba9ecd800000000000000000000000000000000000000000000000000000000815260040160405180910390fd5b73ffffffffffffffffffffffffffffffffffffffff851661043d576040517fad1991f500000000000000000000000000000000000000000000000000000000815260040160405180910390fd5b83600003610477576040517f1f2a200500000000000000000000000000000000000000000000000000000000815260040160405180910390fd5b61047f612148565b6002805473ffffffffffffffffffffffffffffffffffffffff8088167fffffffffffffffffffffffff00000000000000000000000000000000000000009283161790925560018054928916929091169190911790556104df6000856148b5565b60035561050373ffffffffffffffffffffffffffffffffffffffff861687866121b9565b6040517f23e30c8b00000000000000000000000000000000000000000000000000000000815260009073ffffffffffffffffffffffffffffffffffffffff8816906323e30c8b906105629033908a908a9087908b908b90600401614911565b6020604051808303816000875af1158015610581573d6000803e3d6000fd5b505050506040513d601f19601f820116820180604052508101906105a59190614963565b90507f439148f0bbc682ca079e46d6e2c2f0c1e3b820f1a291b069d8882abf8cf18dd98114610603576040517f5b62c54800000000000000000000000000000000000000000000000000000000815260048101829052602401610267565b600354945084156106365761063073ffffffffffffffffffffffffffffffffffffffff8716883088612066565b60006003555b600180547fffffffffffffffffffffffff0000000000000000000000000000000000000000908116909155600280549091169055610672612148565b5060019695505050505050565b600061068961220f565b610720576040517f70a0823100000000000000000000000000000000000000000000000000000000815230600482015273ffffffffffffffffffffffffffffffffffffffff8316906370a0823190602401602060405180830381865afa1580156106f7573d6000803e3d6000fd5b505050506040513d601f19601f8201168201806040525081019061071b9190614963565b610723565b60005b92915050565b6000610733611ff3565b600061078d610745604085018561497c565b6107539060208101906149ba565b8080601f01602080910402602001604051908101604052809392919081815260200183838082843760009201919091525061226092505050565b9050806000036107cb576040517f1914441e000000000000000000000000000000000000000000000000000000008152336004820152602401610267565b80600103610807576040517f7e47fcba000000000000000000000000000000000000000000000000000000008152336004820152602401610267565b6108118380614a1f565b905060000361084e576040517f32586a92000000000000000000000000000000000000000000000000000000008152336004820152602401610267565b61085b6020840184614a1f565b9050600003610898576040517f08d7d498000000000000000000000000000000000000000000000000000000008152336004820152602401610267565b600080806108a9604087018761497c565b6108b7906020810190614033565b73ffffffffffffffffffffffffffffffffffffffff166331a66b656108df604089018961497c565b6108ed9060208101906149ba565b6108fa60408b018b61497c565b610908906040810190614a86565b6040805160028082526020820152600081830152606081019091526040518663ffffffff1660e01b8152600401610943959493929190614b29565b6060604051808303816000875af1158015610962573d6000803e3d6000fd5b505050506040513d601f19601f820116820180604052508101906109869190614b9a565b92509250925060006040518060a001604052803373ffffffffffffffffffffffffffffffffffffffff1681526020016000610a158a80604001906109ca919061497c565b6109d89060208101906149ba565b8080601f0160208091040260200160405190810160405280939291908181526020018383808284376000920191909152506001925061227e915050565b1181526040805160608101825273ffffffffffffffffffffffffffffffffffffffff80891682528781166020838101919091529087168284015283015201610a5d8980614a1f565b808060200260200160405190810160405280939291908181526020016000905b82821015610aa957610a9a60608302860136819003810190614be7565b81526020019060010190610a7d565b50505050508152602001888060200190610ac39190614a1f565b808060200260200160405190810160405280939291908181526020016000905b82821015610b0f57610b0060608302860136819003810190614be7565b81526020019060010190610ae3565b505050505081525090506000610b2482612297565b600081815260046020526040902054909150610c54576000818152600460205260409081902060019081905597507f6fa57e1a7a1fbbf3623af2b2025fcd9a5e7e4e31a2a6ec7523445f18e9c50ebf903390610b82908b018b61497c565b610b90906020810190614033565b8484604051610ba29493929190614ce5565b60405180910390a16000610bb960608a018a6149ba565b90501115610c5457610c0b610bd160608a018a6149ba565b8080601f0160208091040260200160405190810160405280939291908181526020018383808284376000920191909152506122c792505050565b7fbea766d03fa1efd3f81cc8634d08320bc62bb0ed9234ac59bbaafa5893fb6b133382610c3b60608c018c6149ba565b604051610c4b9493929190614d2f565b60405180910390a15b50505050505061039c6001600055565b600080610c6f611ff3565b610c7c6060840184614a86565b9050600003610cb7576040517f9c95219f00000000000000000000000000000000000000000000000000000000815260040160405180910390fd5b6000610cc66060850185614a86565b6000818110610cd757610cd7614d65565b9050602002810190610ce99190614d94565b610cf39080614dc8565b610d019060a0810190614a1f565b610d0e6060870187614a86565b6000818110610d1f57610d1f614d65565b9050602002810190610d319190614d94565b60200135818110610d4457610d44614d65565b610d5a9260206060909202019081019150614033565b90506000610d6b6060860186614a86565b6000818110610d7c57610d7c614d65565b9050602002810190610d8e9190614d94565b610d989080614dc8565b610da69060c0810190614a1f565b610db36060880188614a86565b6000818110610dc457610dc4614d65565b9050602002810190610dd69190614d94565b60400135818110610de957610de9614d65565b610dff9260206060909202019081019150614033565b90506000610e68604080516101208101825260006080820181815260a08301829052835160608082018652838252602080830185905282870185905260c086019290925260e0850181905261010085018190529184528301829052928201528181019190915290565b6040805160a081018252600080825260208083018290528351606080820186528382529181018390528085019290925292820152818101829052608081019190915260208801355b610ebd60608a018a614a86565b905084108015610ecd5750600081115b1561135757610edf60608a018a614a86565b85818110610eef57610eef614d65565b9050602002810190610f019190614d94565b610f0a90614dfc565b805190935091506000610f1c83612297565b600081815260046020526040902054909150610f8f5782516040805133815273ffffffffffffffffffffffffffffffffffffffff909216602083015281018290527fb70c12fa453793fa6818ec07c91e74363a47aa6a6829dcd9533937fdf30314f39060600160405180910390a161134b565b8673ffffffffffffffffffffffffffffffffffffffff168360600151856020015181518110610fc057610fc0614d65565b60200260200101516000015173ffffffffffffffffffffffffffffffffffffffff161461106057826060015184602001518151811061100157611001614d65565b6020908102919091010151516040517ff902523f00000000000000000000000000000000000000000000000000000000815273ffffffffffffffffffffffffffffffffffffffff91821660048201529088166024820152604401610267565b8573ffffffffffffffffffffffffffffffffffffffff16836080015185604001518151811061109157611091614d65565b60200260200101516000015173ffffffffffffffffffffffffffffffffffffffff16146111315782608001518460400151815181106110d2576110d2614d65565b6020908102919091010151516040517ff902523f00000000000000000000000000000000000000000000000000000000815273ffffffffffffffffffffffffffffffffffffffff91821660048201529087166024820152604401610267565b600061114c848660200151876040015133896060015161230b565b90508a60400135816060015111156111bc5783516040805133815273ffffffffffffffffffffffffffffffffffffffff909216602083015281018390527fe3151dc8cb7a54ffc4baabd28c1f241c94d510b5e5b502491ac3cad6c16316d5906060015b60405180910390a1611349565b806040015160000361121d5783516040805133815273ffffffffffffffffffffffffffffffffffffffff909216602083015281018390527f500b713857325f9e6dcb52ae832eca9109d107ed1aae9cb4928b4c1e13f051aa906060016111af565b6000846080015186604001518151811061123957611239614d65565b6020908102919091018101510151604083015190915060006112608660ff851660026129fb565b90508082111561126e578091505b5060008061128c8560600151600185612a809092919063ffffffff16565b90506112cc88606001518a60200151815181106112ab576112ab614d65565b60200260200101516020015160ff16600183612a9e9092919063ffffffff16565b9150600090506112e18360ff86166002612a9e565b90506112ed8188614e96565b96506112f9828e6148b5565b9c5061130788838388612b00565b7f219a030b7ae56e7bea2baab709a4a45dc174a1f85e57730e5cb395bc32962542338a838560405161133c9493929190614ea9565b60405180910390a1505050505b505b50600190930192610eb0565b6113658160208b0135614e96565b975088358810156113ac576040517f45094d880000000000000000000000000000000000000000000000000000000081528935600482015260248101899052604401610267565b60006113b986338b612faa565b905060006113ca60808c018c6149ba565b90501115611456573373ffffffffffffffffffffffffffffffffffffffff1663059bebe68789848c8f806080019061140291906149ba565b6040518763ffffffff1660e01b815260040161142396959493929190614911565b600060405180830381600087803b15801561143d57600080fd5b505af1158015611451573d6000803e3d6000fd5b505050505b871561147e5761147e73ffffffffffffffffffffffffffffffffffffffff881633308b612066565b5050505050505061148f6001600055565b915091565b61149c611ff3565b8351855173ffffffffffffffffffffffffffffffffffffffff91821691160361150c5784516040517f227e4ce900000000000000000000000000000000000000000000000000000000815273ffffffffffffffffffffffffffffffffffffffff9091166004820152602401610267565b836060015183604001358151811061152657611526614d65565b60200260200101516000015173ffffffffffffffffffffffffffffffffffffffff16856080015184602001358151811061156257611562614d65565b60200260200101516000015173ffffffffffffffffffffffffffffffffffffffff16146116275784608001518360200135815181106115a3576115a3614d65565b60200260200101516000015184606001518460400135815181106115c9576115c9614d65565b6020908102919091010151516040517ff902523f00000000000000000000000000000000000000000000000000000000815273ffffffffffffffffffffffffffffffffffffffff928316600482015291166024820152604401610267565b836060015183604001358151811061164157611641614d65565b60200260200101516020015160ff16856080015184602001358151811061166a5761166a614d65565b60200260200101516020015160ff161461170d57846080015183602001358151811061169857611698614d65565b60200260200101516020015184606001518460400135815181106116be576116be614d65565b6020026020010151602001516040517f0f6ce47700000000000000000000000000000000000000000000000000000000815260040161026792919060ff92831681529116602082015260400190565b60608501518051843590811061172557611725614d65565b60200260200101516000015173ffffffffffffffffffffffffffffffffffffffff16846080015184606001358151811061176157611761614d65565b60200260200101516000015173ffffffffffffffffffffffffffffffffffffffff16146117c6576060850151805184359081106117a0576117a0614d65565b60200260200101516000015184608001518460600135815181106115c9576115c9614d65565b6060850151805184359081106117de576117de614d65565b60200260200101516020015160ff16846080015184606001358151811061180757611807614d65565b60200260200101516020015160ff16146118595760608501518051843590811061183357611833614d65565b60200260200101516020015184608001518460600135815181106116be576116be614d65565b60006004600061186888612297565b815260200190815260200160002054036118e7577fb70c12fa453793fa6818ec07c91e74363a47aa6a6829dcd9533937fdf30314f33386600001516118ac88612297565b6040805173ffffffffffffffffffffffffffffffffffffffff94851681529390921660208401529082015260600160405180910390a1611bbd565b6000600460006118f687612297565b8152602001908152602001600020540361193a577fb70c12fa453793fa6818ec07c91e74363a47aa6a6829dcd9533937fdf30314f33385600001516118ac87612297565b7fd153812deb929a6e4378f6f8cf61d010470840bf2e736f43fb2275803958bfa23386868660405161196f9493929190614fd9565b60405180910390a16000611992868560000135866020013588600001518661230b565b905060006119af86866040013587606001358a600001518861230b565b905060006119bd838361305b565b90506119d3888260400151836000015186612b00565b6119e7878260600151836020015185612b00565b606081015181516000916119fa91614e96565b9050600082604001518360200151611a129190614e96565b90508115611ab857336000908152600560209081526040822060808d01518051869492938d0135908110611a4857611a48614d65565b60200260200101516000015173ffffffffffffffffffffffffffffffffffffffff1673ffffffffffffffffffffffffffffffffffffffff16815260200190815260200160002060008a6080013581526020019081526020016000206000828254611ab291906148b5565b90915550505b8015611b5c5733600090815260056020526040812060808b015180518493919060608d0135908110611aec57611aec614d65565b60200260200101516000015173ffffffffffffffffffffffffffffffffffffffff1673ffffffffffffffffffffffffffffffffffffffff16815260200190815260200160002060008a60a0013581526020019081526020016000206000828254611b5691906148b5565b90915550505b5050604080513381528251602080830191909152830151818301529082015160608083019190915282015160808201527f3f20e55919cca701abb2a40ab72542b25ea7eed63a50f979dd2cd3231e5f488d9060a00160405180910390a15050505b611bc76001600055565b5050505050565b60608167ffffffffffffffff811115611be957611be96140c6565b604051908082528060200260200182016040528015611c1c57816020015b6060815260200190600190039081611c075790505b50905060005b82811015611cbc57611c8c30858584818110611c4057611c40614d65565b9050602002810190611c5291906149ba565b8080601f01602080910402602001604051908101604052809392919081815260200183838082843760009201919091525061309c92505050565b828281518110611c9e57611c9e614d65565b60200260200101819052508080611cb490615063565b915050611c22565b5092915050565b611ccb611ff3565b80600003611d2a576040517ff7a898f600000000000000000000000000000000000000000000000000000000815233600482015273ffffffffffffffffffffffffffffffffffffffff8416602482015260448101839052606401610267565b33600090815260056020908152604080832073ffffffffffffffffffffffffffffffffffffffff87168452825280832085845290915281205490611d6e83836130c1565b90508015611e1557611d808183614e96565b33600081815260056020908152604080832073ffffffffffffffffffffffffffffffffffffffff8b168085529083528184208a855283529281902094909455835192835282015290810185905260608101849052608081018290527febff2602b3f468259e1e99f613fed6691f3a6526effe6ef3e768ba7ae7a36c4f9060a00160405180910390a1611e13853383612faa565b505b50506103466001600055565b60008054600203611e5e576040517f3ee5aeb500000000000000000000000000000000000000000000000000000000815260040160405180910390fd5b5073ffffffffffffffffffffffffffffffffffffffff80841660009081526005602090815260408083209386168352928152828220848352905220545b9392505050565b6000611eac611ff3565b611eb96020830183614033565b73ffffffffffffffffffffffffffffffffffffffff163373ffffffffffffffffffffffffffffffffffffffff1614611f4b5733611ef96020840184614033565b6040517f4702b91400000000000000000000000000000000000000000000000000000000815273ffffffffffffffffffffffffffffffffffffffff928316600482015291166024820152604401610267565b6000611f5e611f598461509b565b612297565b6000818152600460205260409020549091507fffffffffffffffffffffffffffffffffffffffffffffffffffffffffffffffff01611fe8576000818152600460205260408082209190915551600192507f74037e398a4a92c9c1c49ac01c1dabd7f71165fbb4810b72c068f08edd19244890611fdf90339086908590615177565b60405180910390a15b5061039c6001600055565b60026000540361205f576040517f08c379a000000000000000000000000000000000000000000000000000000000815260206004820152601f60248201527f5265656e7472616e637947756172643a207265656e7472616e742063616c6c006044820152606401610267565b6002600055565b60405173ffffffffffffffffffffffffffffffffffffffff808516602483015283166044820152606481018290526121429085907f23b872dd00000000000000000000000000000000000000000000000000000000906084015b604080517fffffffffffffffffffffffffffffffffffffffffffffffffffffffffffffffe08184030181529190526020810180517bffffffffffffffffffffffffffffffffffffffffffffffffffffffff167fffffffff00000000000000000000000000000000000000000000000000000000909316929092179091526130d7565b50505050565b61215061220f565b156121b7576001546002546003546040517f60817cfa00000000000000000000000000000000000000000000000000000000815273ffffffffffffffffffffffffffffffffffffffff93841660048201529290911660248301526044820152606401610267565b565b60405173ffffffffffffffffffffffffffffffffffffffff83166024820152604481018290526103469084907fa9059cbb00000000000000000000000000000000000000000000000000000000906064016120c0565b60015460009073ffffffffffffffffffffffffffffffffffffffff1615158061224f575060025473ffffffffffffffffffffffffffffffffffffffff1615155b8061225b575060035415155b905090565b6000815160000361227357506000919050565b506020015160001a90565b60008061228b84846131e6565b5160001a949350505050565b6000816040516020016122aa919061527c565b604051602081830303815290604052805190602001209050919050565b6122d081613217565b61230857806040517f644cc258000000000000000000000000000000000000000000000000000000008152600401610267919061528f565b50565b6040805161018081018252600060e08201818152610100830182905283516060808201865283825260208083018590528287018590526101208601929092526101408501819052610160850181905291845283018290529282018190528282018190526080820183905260a082015260c0810191909152600061238d87612297565b60408051600480825260a08201909252919250606091600091816020015b60608152602001906001900390816123ab57905050895160408051600381526020810187905273ffffffffffffffffffffffffffffffffffffffff92831681830152918916606083015260808201905290915081600180038151811061241357612413614d65565b60200260200101819052506125a88960600151898151811061243757612437614d65565b60200260200101516000015173ffffffffffffffffffffffffffffffffffffffff168a606001518a8151811061246f5761246f614d65565b60200260200101516020015160ff168b606001518b8151811061249457612494614d65565b602002602001015160400151600560008e6000015173ffffffffffffffffffffffffffffffffffffffff1673ffffffffffffffffffffffffffffffffffffffff16815260200190815260200160002060008e606001518e815181106124fb576124fb614d65565b60200260200101516000015173ffffffffffffffffffffffffffffffffffffffff1673ffffffffffffffffffffffffffffffffffffffff16815260200190815260200160002060008e606001518e8151811061255957612559614d65565b602002602001015160400151815260200190815260200160002054600060408051600581526020810196909652858101949094526060850192909252608084015260a083015260c08201905290565b816001600303815181106125be576125be614d65565b6020026020010181905250612704896080015188815181106125e2576125e2614d65565b60200260200101516000015173ffffffffffffffffffffffffffffffffffffffff168a60800151898151811061261a5761261a614d65565b60200260200101516020015160ff168b608001518a8151811061263f5761263f614d65565b602002602001015160400151600560008e6000015173ffffffffffffffffffffffffffffffffffffffff1673ffffffffffffffffffffffffffffffffffffffff16815260200190815260200160002060008e608001518d815181106126a6576126a6614d65565b60200260200101516000015173ffffffffffffffffffffffffffffffffffffffff1673ffffffffffffffffffffffffffffffffffffffff16815260200190815260200160002060008e608001518d8151811061255957612559614d65565b8160016004038151811061271a5761271a614d65565b602002602001018190525061272f8186613247565b9150506000886000015173ffffffffffffffffffffffffffffffffffffffff1690506000808a604001516000015173ffffffffffffffffffffffffffffffffffffffff16636715f8258c6040015160200151856127938f6040015160400151613557565b886040518563ffffffff1660e01b81526004016127b394939291906152f7565b600060405180830381865afa1580156127d0573d6000803e3d6000fd5b505050506040513d6000823e601f3d9081017fffffffffffffffffffffffffffffffffffffffffffffffffffffffffffffffe0168201604052612816919081019061538d565b9150915060008260028451038151811061283257612832614d65565b6020026020010151905060008360018551038151811061285457612854614d65565b602002602001015190506000600560008f6000015173ffffffffffffffffffffffffffffffffffffffff1673ffffffffffffffffffffffffffffffffffffffff16815260200190815260200160002060008f608001518e815181106128bb576128bb614d65565b60200260200101516000015173ffffffffffffffffffffffffffffffffffffffff1673ffffffffffffffffffffffffffffffffffffffff16815260200190815260200160002060008f608001518e8151811061291957612919614d65565b602002602001015160400151815260200190815260200160002054905060006129728f608001518e8151811061295157612951614d65565b60200260200101516020015160ff166000846129fb9092919063ffffffff16565b905080841115612980578093505b505060408051600281526020810184905280820183905260608101909152866002815181106129b1576129b1614d65565b6020908102919091018101919091526040805160e0810182529e8f52908e019b909b52998c015260608b019890985250608089019190915260a08801525050505060c08301525090565b60008260121115612a305760128390036002831615612a2657612a1e8582613580565b915050611e9b565b612a1e8582613606565b6012831115612a79577fffffffffffffffffffffffffffffffffffffffffffffffffffffffffffffffee83016001831615612a6f57612a1e858261363e565b612a1e858261368c565b5082611e9b565b6000612a968484670de0b6b3a7640000856136af565b949350505050565b60008260121115612ac15760128390036001831615612a6f57612a1e858261363e565b6012831115612a79577fffffffffffffffffffffffffffffffffffffffffffffffffffffffffffffffee83016002831615612a2657612a1e8582613580565b828160800151600381518110612b1857612b18614d65565b6020026020010151600481518110612b3257612b32614d65565b602002602001018181525050818160800151600481518110612b5657612b56614d65565b6020026020010151600481518110612b7057612b70614d65565b60209081029190910101528215612c7d57835173ffffffffffffffffffffffffffffffffffffffff16600090815260056020526040812060808301518051869391906003908110612bc357612bc3614d65565b6020026020010151600081518110612bdd57612bdd614d65565b602002602001015173ffffffffffffffffffffffffffffffffffffffff1673ffffffffffffffffffffffffffffffffffffffff16815260200190815260200160002060008360800151600381518110612c3857612c38614d65565b6020026020010151600281518110612c5257612c52614d65565b602002602001015181526020019081526020016000206000828254612c7791906148b5565b90915550505b8115612d7f57835173ffffffffffffffffffffffffffffffffffffffff16600090815260056020526040812060808301518051859391906004908110612cc557612cc5614d65565b6020026020010151600081518110612cdf57612cdf614d65565b602002602001015173ffffffffffffffffffffffffffffffffffffffff1673ffffffffffffffffffffffffffffffffffffffff16815260200190815260200160002060008360800151600481518110612d3a57612d3a614d65565b6020026020010151600281518110612d5457612d54614d65565b602002602001015181526020019081526020016000206000828254612d799190614e96565b90915550505b7f17a5c0f3785132a57703932032f6863e7920434150aa1dc940e567b440fdce1f338260800151604051612db49291906153f1565b60405180910390a160c08101515115612e455783604001516020015173ffffffffffffffffffffffffffffffffffffffff1663946aadc68260a001518360c001516040518363ffffffff1660e01b8152600401612e12929190615420565b600060405180830381600087803b158015612e2c57600080fd5b505af1158015612e40573d6000803e3d6000fd5b505050505b8360200151156121425760008085604001516000015173ffffffffffffffffffffffffffffffffffffffff16636715f8258760400151602001518560a00151612e958a604001516040015161370c565b87608001516040518563ffffffff1660e01b8152600401612eb994939291906152f7565b600060405180830381865afa158015612ed6573d6000803e3d6000fd5b505050506040513d6000823e601f3d9081017fffffffffffffffffffffffffffffffffffffffffffffffffffffffffffffffe0168201604052612f1c919081019061538d565b8051919350915015612fa25785604001516020015173ffffffffffffffffffffffffffffffffffffffff1663946aadc68460a00151836040518363ffffffff1660e01b8152600401612f6f929190615420565b600060405180830381600087803b158015612f8957600080fd5b505af1158015612f9d573d6000803e3d6000fd5b505050505b505050505050565b60025460009073ffffffffffffffffffffffffffffffffffffffff8581169116148015612ff1575060015473ffffffffffffffffffffffffffffffffffffffff8481169116145b1561303457600061300d600354846130c190919063ffffffff16565b90506130198184614e96565b9250806003600082825461302d9190614e96565b9091555050505b8115611cbc57611cbc73ffffffffffffffffffffffffffffffffffffffff851684846121b9565b6130866040518060800160405280600081526020016000815260200160008152602001600081525090565b613091818484613737565b610723818385613737565b6060611e9b8383604051806060016040528060278152602001615645602791396137ef565b60008183106130d05781611e9b565b5090919050565b6000613139826040518060400160405280602081526020017f5361666545524332303a206c6f772d6c6576656c2063616c6c206661696c65648152508573ffffffffffffffffffffffffffffffffffffffff166138749092919063ffffffff16565b905080516000148061315a57508080602001905181019061315a9190615439565b610346576040517f08c379a000000000000000000000000000000000000000000000000000000000815260206004820152602a60248201527f5361666545524332303a204552433230206f7065726174696f6e20646964206e60448201527f6f742073756363656564000000000000000000000000000000000000000000006064820152608401610267565b6000806131f284612260565b600202600101905060006132068585613883565b949091019093016020019392505050565b600060088251101561322b57506000919050565b506008015167ffffffffffffffff1667ff0a89c674ee78741490565b60606000825167ffffffffffffffff811115613265576132656140c6565b60405190808252806020026020018201604052801561328e578160200160208202803683370190505b5090506000808451116132a25760006132a8565b83516001015b855160010101905060008167ffffffffffffffff8111156132cb576132cb6140c6565b6040519080825280602002602001820160405280156132fe57816020015b60608152602001906001900390816132e95790505b5090506000613323604080516002815233602082015230818301526060810190915290565b82828151811061333557613335614d65565b602002602001018190525060005b875181101561339357818060010192505087818151811061336657613366614d65565b602002602001015183838151811061338057613380614d65565b6020908102919091010152600101613343565b5085511561354d578080600101915050838282815181106133b6576133b6614d65565b602002602001018190525060005b865181101561354b576134758782815181106133e2576133e2614d65565b60200260200101516000015161345261341f8a858151811061340657613406614d65565b6020026020010151602001518051602090810291012090565b7f19457468657265756d205369676e6564204d6573736167653a0a3332000000006000908152601c91909152603c902090565b89848151811061346457613464614d65565b6020026020010151604001516138fb565b6134ae576040517f52bf984800000000000000000000000000000000000000000000000000000000815260048101829052602401610267565b8681815181106134c0576134c0614d65565b60200260200101516000015173ffffffffffffffffffffffffffffffffffffffff168582815181106134f4576134f4614d65565b602002602001018181525050818060010192505086818151811061351a5761351a614d65565b60200260200101516020015183838151811061353857613538614d65565b60209081029190910101526001016133c4565b505b5095945050505050565b6000602082901b77ffffffffffffffffffffffffffffffffffffffff0000000016600217610723565b6000604e82106135c05782156135b6577fffffffffffffffffffffffffffffffffffffffffffffffffffffffffffffffff6135b9565b60005b9050610723565b50600a81900a82810290838183816135da576135da615456565b0414611cbc577fffffffffffffffffffffffffffffffffffffffffffffffffffffffffffffffff612a96565b600a81900a6136158184615485565b9050604e82106107235782156136355761363082600a6155bc565b611e9b565b50600092915050565b6000604e8210613662578215613655576001613658565b60005b60ff169050610723565b600a82900a80848161367657613676615456565b0491508082028414611cbc575060010192915050565b6000604e8210156136355781600a0a83816136a9576136a9615456565b04611e9b565b6000806136bd86868661396c565b905060018360028111156136d3576136d36155c8565b1480156136f05750600084806136eb576136eb615456565b868809115b15613703576137006001826148b5565b90505b95945050505050565b600062010000602083901b77ffffffffffffffffffffffffffffffffffffffff000000001617610723565b6060810151604082015160009161375091906001612a80565b6040840151909150818111156137635750805b6137a584600001516080015185602001518151811061378457613784614d65565b60200260200101516020015160ff16600083612a9e9092919063ffffffff16565b855260608401516000906137bc9083906001612a80565b90506137df8460000151608001518560200151815181106112ab576112ab614d65565b6040909601959095525050505050565b60606000808573ffffffffffffffffffffffffffffffffffffffff168560405161381991906155f7565b600060405180830381855af49150503d8060008114613854576040519150601f19603f3d011682016040523d82523d6000602084013e613859565b606091505b509150915061386a86838387613a96565b9695505050505050565b6060612a968484600085613b36565b6002810282016003015161ffff16600061389c84612260565b8451909150600560028302840101908111806138b85750818410155b156138f35784846040517fd3fc97bd000000000000000000000000000000000000000000000000000000008152600401610267929190615609565b505092915050565b600080600061390a8585613c4f565b90925090506000816004811115613923576139236155c8565b14801561395b57508573ffffffffffffffffffffffffffffffffffffffff168273ffffffffffffffffffffffffffffffffffffffff16145b8061386a575061386a868686613c94565b600080807fffffffffffffffffffffffffffffffffffffffffffffffffffffffffffffffff858709858702925082811083820303915050806000036139c4578382816139ba576139ba615456565b0492505050611e9b565b808411613a2d576040517f08c379a000000000000000000000000000000000000000000000000000000000815260206004820152601560248201527f4d6174683a206d756c446976206f766572666c6f7700000000000000000000006044820152606401610267565b60008486880960026001871981018816978890046003810283188082028403028082028403028082028403028082028403028082028403029081029092039091026000889003889004909101858311909403939093029303949094049190911702949350505050565b60608315613b2c578251600003613b255773ffffffffffffffffffffffffffffffffffffffff85163b613b25576040517f08c379a000000000000000000000000000000000000000000000000000000000815260206004820152601d60248201527f416464726573733a2063616c6c20746f206e6f6e2d636f6e74726163740000006044820152606401610267565b5081612a96565b612a968383613df1565b606082471015613bc8576040517f08c379a000000000000000000000000000000000000000000000000000000000815260206004820152602660248201527f416464726573733a20696e73756666696369656e742062616c616e636520666f60448201527f722063616c6c00000000000000000000000000000000000000000000000000006064820152608401610267565b6000808673ffffffffffffffffffffffffffffffffffffffff168587604051613bf191906155f7565b60006040518083038185875af1925050503d8060008114613c2e576040519150601f19603f3d011682016040523d82523d6000602084013e613c33565b606091505b5091509150613c4487838387613a96565b979650505050505050565b6000808251604103613c855760208301516040840151606085015160001a613c7987828585613e35565b94509450505050613c8d565b506000905060025b9250929050565b60008060008573ffffffffffffffffffffffffffffffffffffffff16631626ba7e60e01b8686604051602401613ccb92919061562b565b604080517fffffffffffffffffffffffffffffffffffffffffffffffffffffffffffffffe08184030181529181526020820180517bffffffffffffffffffffffffffffffffffffffffffffffffffffffff167fffffffff00000000000000000000000000000000000000000000000000000000909416939093179092529051613d5491906155f7565b600060405180830381855afa9150503d8060008114613d8f576040519150601f19603f3d011682016040523d82523d6000602084013e613d94565b606091505b5091509150818015613da857506020815110155b801561386a575080517f1626ba7e0000000000000000000000000000000000000000000000000000000090613de69083016020908101908401614963565b149695505050505050565b815115613e015781518083602001fd5b806040517f08c379a0000000000000000000000000000000000000000000000000000000008152600401610267919061528f565b6000807f7fffffffffffffffffffffffffffffff5d576e7357a4501ddfe92f46681b20a0831115613e6c5750600090506003613f1b565b6040805160008082526020820180845289905260ff881692820192909252606081018690526080810185905260019060a0016020604051602081039080840390855afa158015613ec0573d6000803e3d6000fd5b50506040517fffffffffffffffffffffffffffffffffffffffffffffffffffffffffffffffe0015191505073ffffffffffffffffffffffffffffffffffffffff8116613f1457600060019250925050613f1b565b9150600090505b94509492505050565b73ffffffffffffffffffffffffffffffffffffffff8116811461230857600080fd5b600080600060608486031215613f5b57600080fd5b8335613f6681613f24565b95602085013595506040909401359392505050565b600060208284031215613f8d57600080fd5b5035919050565b600080600080600060808688031215613fac57600080fd5b8535613fb781613f24565b94506020860135613fc781613f24565b935060408601359250606086013567ffffffffffffffff80821115613feb57600080fd5b818801915088601f830112613fff57600080fd5b81358181111561400e57600080fd5b89602082850101111561402057600080fd5b9699959850939650602001949392505050565b60006020828403121561404557600080fd5b8135611e9b81613f24565b60006020828403121561406257600080fd5b813567ffffffffffffffff81111561407957600080fd5b820160808185031215611e9b57600080fd5b60006020828403121561409d57600080fd5b813567ffffffffffffffff8111156140b457600080fd5b820160a08185031215611e9b57600080fd5b7f4e487b7100000000000000000000000000000000000000000000000000000000600052604160045260246000fd5b6040516060810167ffffffffffffffff81118282101715614118576141186140c6565b60405290565b604051601f82017fffffffffffffffffffffffffffffffffffffffffffffffffffffffffffffffe016810167ffffffffffffffff81118282101715614165576141656140c6565b604052919050565b801515811461230857600080fd5b803561039c8161416d565b60006060828403121561419857600080fd5b6141a06140f5565b905081356141ad81613f24565b815260208201356141bd81613f24565b602082015260408201356141d081613f24565b604082015292915050565b600067ffffffffffffffff8211156141f5576141f56140c6565b5060051b60200190565b803560ff8116811461039c57600080fd5b60006060828403121561422257600080fd5b61422a6140f5565b9050813561423781613f24565b8152614245602083016141ff565b60208201526040820135604082015292915050565b600082601f83011261426b57600080fd5b8135602061428061427b836141db565b61411e565b8281526060928302850182019282820191908785111561429f57600080fd5b8387015b858110156142c2576142b58982614210565b84529284019281016142a3565b5090979650505050505050565b600060e082840312156142e157600080fd5b60405160a0810167ffffffffffffffff8282108183111715614305576143056140c6565b816040528293508435915061431982613f24565b8183526143286020860161417b565b602084015261433a8660408701614186565b604084015260a085013591508082111561435357600080fd5b61435f8683870161425a565b606084015260c085013591508082111561437857600080fd5b506143858582860161425a565b6080830152505092915050565b600082601f8301126143a357600080fd5b813567ffffffffffffffff8111156143bd576143bd6140c6565b6143ee60207fffffffffffffffffffffffffffffffffffffffffffffffffffffffffffffffe0601f8401160161411e565b81815284602083860101111561440357600080fd5b816020850160208301376000918101602001919091529392505050565b600082601f83011261443157600080fd5b8135602061444161427b836141db565b82815260059290921b8401810191818101908684111561446057600080fd5b8286015b8481101561458557803567ffffffffffffffff8082111561448457600080fd5b908801906060828b037fffffffffffffffffffffffffffffffffffffffffffffffffffffffffffffffe00112156144bb5760008081fd5b6144c36140f5565b868301356144d081613f24565b8152604083810135838111156144e65760008081fd5b8401603f81018d136144f85760008081fd5b8881013561450861427b826141db565b81815260059190911b82018301908a8101908f8311156145285760008081fd5b928401925b828410156145465783358252928b0192908b019061452d565b858c01525050506060840135838111156145605760008081fd5b61456e8d8a83880101614392565b918301919091525085525050918301918301614464565b509695505050505050565b60008060008060008587036101408112156145aa57600080fd5b863567ffffffffffffffff808211156145c257600080fd5b6145ce8a838b016142cf565b975060208901359150808211156145e457600080fd5b6145f08a838b016142cf565b965060c07fffffffffffffffffffffffffffffffffffffffffffffffffffffffffffffffc08401121561462257600080fd5b60408901955061010089013592508083111561463d57600080fd5b6146498a848b01614420565b945061012089013592508083111561466057600080fd5b505061466e88828901614420565b9150509295509295909350565b6000806020838503121561468e57600080fd5b823567ffffffffffffffff808211156146a657600080fd5b818501915085601f8301126146ba57600080fd5b8135818111156146c957600080fd5b8660208260051b85010111156146de57600080fd5b60209290920196919550909350505050565b60005b8381101561470b5781810151838201526020016146f3565b50506000910152565b6000815180845261472c8160208601602086016146f0565b601f017fffffffffffffffffffffffffffffffffffffffffffffffffffffffffffffffe0169290920160200192915050565b6000602080830181845280855180835260408601915060408160051b870101925083870160005b828110156147d1577fffffffffffffffffffffffffffffffffffffffffffffffffffffffffffffffc08886030184526147bf858351614714565b94509285019290850190600101614785565b5092979650505050505050565b6000806000606084860312156147f357600080fd5b83356147fe81613f24565b9250602084013561480e81613f24565b929592945050506040919091013590565b6000806040838503121561483257600080fd5b823561483d81613f24565b946020939093013593505050565b60006020828403121561485d57600080fd5b813567ffffffffffffffff81111561487457600080fd5b820160e08185031215611e9b57600080fd5b7f4e487b7100000000000000000000000000000000000000000000000000000000600052601160045260246000fd5b8082018082111561072357610723614886565b8183528181602085013750600060208284010152600060207fffffffffffffffffffffffffffffffffffffffffffffffffffffffffffffffe0601f840116840101905092915050565b600073ffffffffffffffffffffffffffffffffffffffff808916835280881660208401525085604083015284606083015260a0608083015261495760a0830184866148c8565b98975050505050505050565b60006020828403121561497557600080fd5b5051919050565b600082357fffffffffffffffffffffffffffffffffffffffffffffffffffffffffffffffa18336030181126149b057600080fd5b9190910192915050565b60008083357fffffffffffffffffffffffffffffffffffffffffffffffffffffffffffffffe18436030181126149ef57600080fd5b83018035915067ffffffffffffffff821115614a0a57600080fd5b602001915036819003821315613c8d57600080fd5b60008083357fffffffffffffffffffffffffffffffffffffffffffffffffffffffffffffffe1843603018112614a5457600080fd5b83018035915067ffffffffffffffff821115614a6f57600080fd5b6020019150606081023603821315613c8d57600080fd5b60008083357fffffffffffffffffffffffffffffffffffffffffffffffffffffffffffffffe1843603018112614abb57600080fd5b83018035915067ffffffffffffffff821115614ad657600080fd5b6020019150600581901b3603821315613c8d57600080fd5b600081518084526020808501945080840160005b83811015614b1e57815187529582019590820190600101614b02565b509495945050505050565b606081526000614b3d6060830187896148c8565b82810360208401528481527f07ffffffffffffffffffffffffffffffffffffffffffffffffffffffffffffff851115614b7557600080fd5b8460051b80876020840137018281036020908101604085015261495790820185614aee565b600080600060608486031215614baf57600080fd5b8351614bba81613f24565b6020850151909350614bcb81613f24565b6040850151909250614bdc81613f24565b809150509250925092565b600060608284031215614bf957600080fd5b611e9b8383614210565b600081518084526020808501945080840160005b83811015614b1e578151805173ffffffffffffffffffffffffffffffffffffffff1688528381015160ff16848901526040908101519088015260609096019590820190600101614c17565b600073ffffffffffffffffffffffffffffffffffffffff80835116845260208301511515602085015260408301518181511660408601528160208201511660608601528160408201511660808601525050606082015160e060a0850152614ccc60e0850182614c03565b9050608083015184820360c08601526137038282614c03565b600073ffffffffffffffffffffffffffffffffffffffff808716835280861660208401525060806040830152614d1e6080830185614c62565b905082606083015295945050505050565b73ffffffffffffffffffffffffffffffffffffffff8516815283602082015260606040820152600061386a6060830184866148c8565b7f4e487b7100000000000000000000000000000000000000000000000000000000600052603260045260246000fd5b600082357fffffffffffffffffffffffffffffffffffffffffffffffffffffffffffffff818336030181126149b057600080fd5b600082357fffffffffffffffffffffffffffffffffffffffffffffffffffffffffffffff218336030181126149b057600080fd5b600060808236031215614e0e57600080fd5b6040516080810167ffffffffffffffff8282108183111715614e3257614e326140c6565b816040528435915080821115614e4757600080fd5b614e53368387016142cf565b835260208501356020840152604085013560408401526060850135915080821115614e7d57600080fd5b50614e8a36828601614420565b60608301525092915050565b8181038181111561072357610723614886565b600073ffffffffffffffffffffffffffffffffffffffff808716835260206080818501528651608080860152614ee3610100860182614c62565b90508188015160a086015260408089015160c08701526060808a01517fffffffffffffffffffffffffffffffffffffffffffffffffffffffffffffff808885030160e08901528381518086528686019150868160051b870101878401935060005b82811015614fbc577fffffffffffffffffffffffffffffffffffffffffffffffffffffffffffffffe088830301845284518a815116835289810151878b850152614f9088850182614aee565b91890151848303858b0152919050614fa88183614714565b968b0196958b019593505050600101614f44565b50948a019b909b5250509095019590955250919695505050505050565b600061012073ffffffffffffffffffffffffffffffffffffffff8716835280602084015261500981840187614c62565b9050828103604084015261501d8186614c62565b9150508235606083015260208301356080830152604083013560a0830152606083013560c0830152608083013560e083015260a083013561010083015295945050505050565b60007fffffffffffffffffffffffffffffffffffffffffffffffffffffffffffffffff820361509457615094614886565b5060010190565b600061072336836142cf565b60008083357fffffffffffffffffffffffffffffffffffffffffffffffffffffffffffffffe18436030181126150dc57600080fd5b830160208101925035905067ffffffffffffffff8111156150fc57600080fd5b606081023603821315613c8d57600080fd5b8183526000602080850194508260005b85811015614b1e57813561513181613f24565b73ffffffffffffffffffffffffffffffffffffffff16875260ff6151568385016141ff565b1687840152604082810135908801526060968701969091019060010161511e565b600073ffffffffffffffffffffffffffffffffffffffff80861683526060602084015284356151a581613f24565b8116606084015260208501356151ba8161416d565b1515608084015260408501356151cf81613f24565b811660a084015260608501356151e481613f24565b811660c084015260808501356151f981613f24565b1660e083015261520c60a08501856150a7565b60e06101008501526152236101408501828461510e565b91505061523360c08601866150a7565b7fffffffffffffffffffffffffffffffffffffffffffffffffffffffffffffffa08584030161012086015261526983828461510e565b9350505050826040830152949350505050565b602081526000611e9b6020830184614c62565b602081526000611e9b6020830184614714565b600081518084526020808501808196508360051b8101915082860160005b858110156152ea5782840389526152d8848351614aee565b988501989350908401906001016152c0565b5091979650505050505050565b73ffffffffffffffffffffffffffffffffffffffff8516815283602082015282604082015260806060820152600061386a60808301846152a2565b600082601f83011261534357600080fd5b8151602061535361427b836141db565b82815260059290921b8401810191818101908684111561537257600080fd5b8286015b848110156145855780518352918301918301615376565b600080604083850312156153a057600080fd5b825167ffffffffffffffff808211156153b857600080fd5b6153c486838701615332565b935060208501519150808211156153da57600080fd5b506153e785828601615332565b9150509250929050565b73ffffffffffffffffffffffffffffffffffffffff83168152604060208201526000612a9660408301846152a2565b828152604060208201526000612a966040830184614aee565b60006020828403121561544b57600080fd5b8151611e9b8161416d565b7f4e487b7100000000000000000000000000000000000000000000000000000000600052601260045260246000fd5b808202811582820484141761072357610723614886565b600181815b808511156154f557817fffffffffffffffffffffffffffffffffffffffffffffffffffffffffffffffff048211156154db576154db614886565b808516156154e857918102915b93841c93908002906154a1565b509250929050565b60008261550c57506001610723565b8161551957506000610723565b816001811461552f576002811461553957615555565b6001915050610723565b60ff84111561554a5761554a614886565b50506001821b610723565b5060208310610133831016604e8410600b8410161715615578575081810a610723565b615582838361549c565b807fffffffffffffffffffffffffffffffffffffffffffffffffffffffffffffffff048211156155b4576155b4614886565b029392505050565b6000611e9b83836154fd565b7f4e487b7100000000000000000000000000000000000000000000000000000000600052602160045260246000fd5b600082516149b08184602087016146f0565b60408152600061561c6040830185614714565b90508260208301529392505050565b828152604060208201526000612a96604083018461471456fe416464726573733a206c6f772d6c6576656c2064656c65676174652063616c6c206661696c6564",
    "linkReferences": {}
  },
  "methodIdentifiers": {
    "addOrder(((address,uint8,uint256)[],(address,uint8,uint256)[],(address,bytes,uint256[]),bytes))": "847a1bc9",
    "clear((address,bool,(address,address,address),(address,uint8,uint256)[],(address,uint8,uint256)[]),(address,bool,(address,address,address),(address,uint8,uint256)[],(address,uint8,uint256)[]),(uint256,uint256,uint256,uint256,uint256,uint256),(address,uint256[],bytes)[],(address,uint256[],bytes)[])": "9e18968b",
    "deposit(address,uint256,uint256)": "0efe6a8b",
    "flashFee(address,uint256)": "d9d98ce4",
    "flashLoan(address,address,uint256,bytes)": "5cffe9de",
    "maxFlashLoan(address)": "613255ab",
    "multicall(bytes[])": "ac9650d8",
    "orderExists(bytes32)": "2cb77e9f",
    "removeOrder((address,bool,(address,address,address),(address,uint8,uint256)[],(address,uint8,uint256)[]))": "e23746a3",
    "takeOrders((uint256,uint256,uint256,((address,bool,(address,address,address),(address,uint8,uint256)[],(address,uint8,uint256)[]),uint256,uint256,(address,uint256[],bytes)[])[],bytes))": "8a44689c",
    "vaultBalance(address,address,uint256)": "d97b2e48",
    "withdraw(address,uint256,uint256)": "b5c5f672"
  },
  "id": 161
}