{"abi":[{"type":"function","name":"addOrder2","inputs":[{"name":"orderConfig","type":"tuple","internalType":"struct OrderConfigV3","components":[{"name":"evaluable","type":"tuple","internalType":"struct EvaluableV3","components":[{"name":"interpreter","type":"address","internalType":"contract IInterpreterV3"},{"name":"store","type":"address","internalType":"contract IInterpreterStoreV2"},{"name":"bytecode","type":"bytes","internalType":"bytes"}]},{"name":"validInputs","type":"tuple[]","internalType":"struct IO[]","components":[{"name":"token","type":"address","internalType":"address"},{"name":"decimals","type":"uint8","internalType":"uint8"},{"name":"vaultId","type":"uint256","internalType":"uint256"}]},{"name":"validOutputs","type":"tuple[]","internalType":"struct IO[]","components":[{"name":"token","type":"address","internalType":"address"},{"name":"decimals","type":"uint8","internalType":"uint8"},{"name":"vaultId","type":"uint256","internalType":"uint256"}]},{"name":"nonce","type":"bytes32","internalType":"bytes32"},{"name":"secret","type":"bytes32","internalType":"bytes32"},{"name":"meta","type":"bytes","internalType":"bytes"}]},{"name":"post","type":"tuple[]","internalType":"struct ActionV1[]","components":[{"name":"evaluable","type":"tuple","internalType":"struct EvaluableV3","components":[{"name":"interpreter","type":"address","internalType":"contract IInterpreterV3"},{"name":"store","type":"address","internalType":"contract IInterpreterStoreV2"},{"name":"bytecode","type":"bytes","internalType":"bytes"}]},{"name":"signedContext","type":"tuple[]","internalType":"struct SignedContextV1[]","components":[{"name":"signer","type":"address","internalType":"address"},{"name":"context","type":"uint256[]","internalType":"uint256[]"},{"name":"signature","type":"bytes","internalType":"bytes"}]}]}],"outputs":[{"name":"","type":"bool","internalType":"bool"}],"stateMutability":"nonpayable"},{"type":"function","name":"clear2","inputs":[{"name":"aliceOrder","type":"tuple","internalType":"struct OrderV3","components":[{"name":"owner","type":"address","internalType":"address"},{"name":"evaluable","type":"tuple","internalType":"struct EvaluableV3","components":[{"name":"interpreter","type":"address","internalType":"contract IInterpreterV3"},{"name":"store","type":"address","internalType":"contract IInterpreterStoreV2"},{"name":"bytecode","type":"bytes","internalType":"bytes"}]},{"name":"validInputs","type":"tuple[]","internalType":"struct IO[]","components":[{"name":"token","type":"address","internalType":"address"},{"name":"decimals","type":"uint8","internalType":"uint8"},{"name":"vaultId","type":"uint256","internalType":"uint256"}]},{"name":"validOutputs","type":"tuple[]","internalType":"struct IO[]","components":[{"name":"token","type":"address","internalType":"address"},{"name":"decimals","type":"uint8","internalType":"uint8"},{"name":"vaultId","type":"uint256","internalType":"uint256"}]},{"name":"nonce","type":"bytes32","internalType":"bytes32"}]},{"name":"bobOrder","type":"tuple","internalType":"struct OrderV3","components":[{"name":"owner","type":"address","internalType":"address"},{"name":"evaluable","type":"tuple","internalType":"struct EvaluableV3","components":[{"name":"interpreter","type":"address","internalType":"contract IInterpreterV3"},{"name":"store","type":"address","internalType":"contract IInterpreterStoreV2"},{"name":"bytecode","type":"bytes","internalType":"bytes"}]},{"name":"validInputs","type":"tuple[]","internalType":"struct IO[]","components":[{"name":"token","type":"address","internalType":"address"},{"name":"decimals","type":"uint8","internalType":"uint8"},{"name":"vaultId","type":"uint256","internalType":"uint256"}]},{"name":"validOutputs","type":"tuple[]","internalType":"struct IO[]","components":[{"name":"token","type":"address","internalType":"address"},{"name":"decimals","type":"uint8","internalType":"uint8"},{"name":"vaultId","type":"uint256","internalType":"uint256"}]},{"name":"nonce","type":"bytes32","internalType":"bytes32"}]},{"name":"clearConfig","type":"tuple","internalType":"struct ClearConfig","components":[{"name":"aliceInputIOIndex","type":"uint256","internalType":"uint256"},{"name":"aliceOutputIOIndex","type":"uint256","internalType":"uint256"},{"name":"bobInputIOIndex","type":"uint256","internalType":"uint256"},{"name":"bobOutputIOIndex","type":"uint256","internalType":"uint256"},{"name":"aliceBountyVaultId","type":"uint256","internalType":"uint256"},{"name":"bobBountyVaultId","type":"uint256","internalType":"uint256"}]},{"name":"aliceSignedContext","type":"tuple[]","internalType":"struct SignedContextV1[]","components":[{"name":"signer","type":"address","internalType":"address"},{"name":"context","type":"uint256[]","internalType":"uint256[]"},{"name":"signature","type":"bytes","internalType":"bytes"}]},{"name":"bobSignedContext","type":"tuple[]","internalType":"struct SignedContextV1[]","components":[{"name":"signer","type":"address","internalType":"address"},{"name":"context","type":"uint256[]","internalType":"uint256[]"},{"name":"signature","type":"bytes","internalType":"bytes"}]}],"outputs":[],"stateMutability":"nonpayable"},{"type":"function","name":"deposit2","inputs":[{"name":"token","type":"address","internalType":"address"},{"name":"vaultId","type":"uint256","internalType":"uint256"},{"name":"amount","type":"uint256","internalType":"uint256"},{"name":"post","type":"tuple[]","internalType":"struct ActionV1[]","components":[{"name":"evaluable","type":"tuple","internalType":"struct EvaluableV3","components":[{"name":"interpreter","type":"address","internalType":"contract IInterpreterV3"},{"name":"store","type":"address","internalType":"contract IInterpreterStoreV2"},{"name":"bytecode","type":"bytes","internalType":"bytes"}]},{"name":"signedContext","type":"tuple[]","internalType":"struct SignedContextV1[]","components":[{"name":"signer","type":"address","internalType":"address"},{"name":"context","type":"uint256[]","internalType":"uint256[]"},{"name":"signature","type":"bytes","internalType":"bytes"}]}]}],"outputs":[],"stateMutability":"nonpayable"},{"type":"function","name":"enact","inputs":[{"name":"post","type":"tuple[]","internalType":"struct ActionV1[]","components":[{"name":"evaluable","type":"tuple","internalType":"struct EvaluableV3","components":[{"name":"interpreter","type":"address","internalType":"contract IInterpreterV3"},{"name":"store","type":"address","internalType":"contract IInterpreterStoreV2"},{"name":"bytecode","type":"bytes","internalType":"bytes"}]},{"name":"signedContext","type":"tuple[]","internalType":"struct SignedContextV1[]","components":[{"name":"signer","type":"address","internalType":"address"},{"name":"context","type":"uint256[]","internalType":"uint256[]"},{"name":"signature","type":"bytes","internalType":"bytes"}]}]}],"outputs":[],"stateMutability":"nonpayable"},{"type":"function","name":"flashFee","inputs":[{"name":"","type":"address","internalType":"address"},{"name":"","type":"uint256","internalType":"uint256"}],"outputs":[{"name":"","type":"uint256","internalType":"uint256"}],"stateMutability":"pure"},{"type":"function","name":"flashLoan","inputs":[{"name":"receiver","type":"address","internalType":"contract IERC3156FlashBorrower"},{"name":"token","type":"address","internalType":"address"},{"name":"amount","type":"uint256","internalType":"uint256"},{"name":"data","type":"bytes","internalType":"bytes"}],"outputs":[{"name":"","type":"bool","internalType":"bool"}],"stateMutability":"nonpayable"},{"type":"function","name":"maxFlashLoan","inputs":[{"name":"token","type":"address","internalType":"address"}],"outputs":[{"name":"","type":"uint256","internalType":"uint256"}],"stateMutability":"view"},{"type":"function","name":"multicall","inputs":[{"name":"data","type":"bytes[]","internalType":"bytes[]"}],"outputs":[{"name":"results","type":"bytes[]","internalType":"bytes[]"}],"stateMutability":"nonpayable"},{"type":"function","name":"orderExists","inputs":[{"name":"orderHash","type":"bytes32","internalType":"bytes32"}],"outputs":[{"name":"","type":"bool","internalType":"bool"}],"stateMutability":"view"},{"type":"function","name":"quote","inputs":[{"name":"quoteConfig","type":"tuple","internalType":"struct Quote","components":[{"name":"order","type":"tuple","internalType":"struct OrderV3","components":[{"name":"owner","type":"address","internalType":"address"},{"name":"evaluable","type":"tuple","internalType":"struct EvaluableV3","components":[{"name":"interpreter","type":"address","internalType":"contract IInterpreterV3"},{"name":"store","type":"address","internalType":"contract IInterpreterStoreV2"},{"name":"bytecode","type":"bytes","internalType":"bytes"}]},{"name":"validInputs","type":"tuple[]","internalType":"struct IO[]","components":[{"name":"token","type":"address","internalType":"address"},{"name":"decimals","type":"uint8","internalType":"uint8"},{"name":"vaultId","type":"uint256","internalType":"uint256"}]},{"name":"validOutputs","type":"tuple[]","internalType":"struct IO[]","components":[{"name":"token","type":"address","internalType":"address"},{"name":"decimals","type":"uint8","internalType":"uint8"},{"name":"vaultId","type":"uint256","internalType":"uint256"}]},{"name":"nonce","type":"bytes32","internalType":"bytes32"}]},{"name":"inputIOIndex","type":"uint256","internalType":"uint256"},{"name":"outputIOIndex","type":"uint256","internalType":"uint256"},{"name":"signedContext","type":"tuple[]","internalType":"struct SignedContextV1[]","components":[{"name":"signer","type":"address","internalType":"address"},{"name":"context","type":"uint256[]","internalType":"uint256[]"},{"name":"signature","type":"bytes","internalType":"bytes"}]}]}],"outputs":[{"name":"","type":"bool","internalType":"bool"},{"name":"","type":"uint256","internalType":"uint256"},{"name":"","type":"uint256","internalType":"uint256"}],"stateMutability":"view"},{"type":"function","name":"removeOrder2","inputs":[{"name":"order","type":"tuple","internalType":"struct OrderV3","components":[{"name":"owner","type":"address","internalType":"address"},{"name":"evaluable","type":"tuple","internalType":"struct EvaluableV3","components":[{"name":"interpreter","type":"address","internalType":"contract IInterpreterV3"},{"name":"store","type":"address","internalType":"contract IInterpreterStoreV2"},{"name":"bytecode","type":"bytes","internalType":"bytes"}]},{"name":"validInputs","type":"tuple[]","internalType":"struct IO[]","components":[{"name":"token","type":"address","internalType":"address"},{"name":"decimals","type":"uint8","internalType":"uint8"},{"name":"vaultId","type":"uint256","internalType":"uint256"}]},{"name":"validOutputs","type":"tuple[]","internalType":"struct IO[]","components":[{"name":"token","type":"address","internalType":"address"},{"name":"decimals","type":"uint8","internalType":"uint8"},{"name":"vaultId","type":"uint256","internalType":"uint256"}]},{"name":"nonce","type":"bytes32","internalType":"bytes32"}]},{"name":"post","type":"tuple[]","internalType":"struct ActionV1[]","components":[{"name":"evaluable","type":"tuple","internalType":"struct EvaluableV3","components":[{"name":"interpreter","type":"address","internalType":"contract IInterpreterV3"},{"name":"store","type":"address","internalType":"contract IInterpreterStoreV2"},{"name":"bytecode","type":"bytes","internalType":"bytes"}]},{"name":"signedContext","type":"tuple[]","internalType":"struct SignedContextV1[]","components":[{"name":"signer","type":"address","internalType":"address"},{"name":"context","type":"uint256[]","internalType":"uint256[]"},{"name":"signature","type":"bytes","internalType":"bytes"}]}]}],"outputs":[{"name":"stateChanged","type":"bool","internalType":"bool"}],"stateMutability":"nonpayable"},{"type":"function","name":"supportsInterface","inputs":[{"name":"interfaceId","type":"bytes4","internalType":"bytes4"}],"outputs":[{"name":"","type":"bool","internalType":"bool"}],"stateMutability":"view"},{"type":"function","name":"takeOrders2","inputs":[{"name":"config","type":"tuple","internalType":"struct TakeOrdersConfigV3","components":[{"name":"minimumInput","type":"uint256","internalType":"uint256"},{"name":"maximumInput","type":"uint256","internalType":"uint256"},{"name":"maximumIORatio","type":"uint256","internalType":"uint256"},{"name":"orders","type":"tuple[]","internalType":"struct TakeOrderConfigV3[]","components":[{"name":"order","type":"tuple","internalType":"struct OrderV3","components":[{"name":"owner","type":"address","internalType":"address"},{"name":"evaluable","type":"tuple","internalType":"struct EvaluableV3","components":[{"name":"interpreter","type":"address","internalType":"contract IInterpreterV3"},{"name":"store","type":"address","internalType":"contract IInterpreterStoreV2"},{"name":"bytecode","type":"bytes","internalType":"bytes"}]},{"name":"validInputs","type":"tuple[]","internalType":"struct IO[]","components":[{"name":"token","type":"address","internalType":"address"},{"name":"decimals","type":"uint8","internalType":"uint8"},{"name":"vaultId","type":"uint256","internalType":"uint256"}]},{"name":"validOutputs","type":"tuple[]","internalType":"struct IO[]","components":[{"name":"token","type":"address","internalType":"address"},{"name":"decimals","type":"uint8","internalType":"uint8"},{"name":"vaultId","type":"uint256","internalType":"uint256"}]},{"name":"nonce","type":"bytes32","internalType":"bytes32"}]},{"name":"inputIOIndex","type":"uint256","internalType":"uint256"},{"name":"outputIOIndex","type":"uint256","internalType":"uint256"},{"name":"signedContext","type":"tuple[]","internalType":"struct SignedContextV1[]","components":[{"name":"signer","type":"address","internalType":"address"},{"name":"context","type":"uint256[]","internalType":"uint256[]"},{"name":"signature","type":"bytes","internalType":"bytes"}]}]},{"name":"data","type":"bytes","internalType":"bytes"}]}],"outputs":[{"name":"totalTakerInput","type":"uint256","internalType":"uint256"},{"name":"totalTakerOutput","type":"uint256","internalType":"uint256"}],"stateMutability":"nonpayable"},{"type":"function","name":"vaultBalance","inputs":[{"name":"owner","type":"address","internalType":"address"},{"name":"token","type":"address","internalType":"address"},{"name":"vaultId","type":"uint256","internalType":"uint256"}],"outputs":[{"name":"","type":"uint256","internalType":"uint256"}],"stateMutability":"view"},{"type":"function","name":"withdraw2","inputs":[{"name":"token","type":"address","internalType":"address"},{"name":"vaultId","type":"uint256","internalType":"uint256"},{"name":"targetAmount","type":"uint256","internalType":"uint256"},{"name":"post","type":"tuple[]","internalType":"struct ActionV1[]","components":[{"name":"evaluable","type":"tuple","internalType":"struct EvaluableV3","components":[{"name":"interpreter","type":"address","internalType":"contract IInterpreterV3"},{"name":"store","type":"address","internalType":"contract IInterpreterStoreV2"},{"name":"bytecode","type":"bytes","internalType":"bytes"}]},{"name":"signedContext","type":"tuple[]","internalType":"struct SignedContextV1[]","components":[{"name":"signer","type":"address","internalType":"address"},{"name":"context","type":"uint256[]","internalType":"uint256[]"},{"name":"signature","type":"bytes","internalType":"bytes"}]}]}],"outputs":[],"stateMutability":"nonpayable"},{"type":"event","name":"AddOrderV2","inputs":[{"name":"sender","type":"address","indexed":false,"internalType":"address"},{"name":"orderHash","type":"bytes32","indexed":false,"internalType":"bytes32"},{"name":"order","type":"tuple","indexed":false,"internalType":"struct OrderV3","components":[{"name":"owner","type":"address","internalType":"address"},{"name":"evaluable","type":"tuple","internalType":"struct EvaluableV3","components":[{"name":"interpreter","type":"address","internalType":"contract IInterpreterV3"},{"name":"store","type":"address","internalType":"contract IInterpreterStoreV2"},{"name":"bytecode","type":"bytes","internalType":"bytes"}]},{"name":"validInputs","type":"tuple[]","internalType":"struct IO[]","components":[{"name":"token","type":"address","internalType":"address"},{"name":"decimals","type":"uint8","internalType":"uint8"},{"name":"vaultId","type":"uint256","internalType":"uint256"}]},{"name":"validOutputs","type":"tuple[]","internalType":"struct IO[]","components":[{"name":"token","type":"address","internalType":"address"},{"name":"decimals","type":"uint8","internalType":"uint8"},{"name":"vaultId","type":"uint256","internalType":"uint256"}]},{"name":"nonce","type":"bytes32","internalType":"bytes32"}]}],"anonymous":false},{"type":"event","name":"AfterClear","inputs":[{"name":"sender","type":"address","indexed":false,"internalType":"address"},{"name":"clearStateChange","type":"tuple","indexed":false,"internalType":"struct ClearStateChange","components":[{"name":"aliceOutput","type":"uint256","internalType":"uint256"},{"name":"bobOutput","type":"uint256","internalType":"uint256"},{"name":"aliceInput","type":"uint256","internalType":"uint256"},{"name":"bobInput","type":"uint256","internalType":"uint256"}]}],"anonymous":false},{"type":"event","name":"ClearV2","inputs":[{"name":"sender","type":"address","indexed":false,"internalType":"address"},{"name":"alice","type":"tuple","indexed":false,"internalType":"struct OrderV3","components":[{"name":"owner","type":"address","internalType":"address"},{"name":"evaluable","type":"tuple","internalType":"struct EvaluableV3","components":[{"name":"interpreter","type":"address","internalType":"contract IInterpreterV3"},{"name":"store","type":"address","internalType":"contract IInterpreterStoreV2"},{"name":"bytecode","type":"bytes","internalType":"bytes"}]},{"name":"validInputs","type":"tuple[]","internalType":"struct IO[]","components":[{"name":"token","type":"address","internalType":"address"},{"name":"decimals","type":"uint8","internalType":"uint8"},{"name":"vaultId","type":"uint256","internalType":"uint256"}]},{"name":"validOutputs","type":"tuple[]","internalType":"struct IO[]","components":[{"name":"token","type":"address","internalType":"address"},{"name":"decimals","type":"uint8","internalType":"uint8"},{"name":"vaultId","type":"uint256","internalType":"uint256"}]},{"name":"nonce","type":"bytes32","internalType":"bytes32"}]},{"name":"bob","type":"tuple","indexed":false,"internalType":"struct OrderV3","components":[{"name":"owner","type":"address","internalType":"address"},{"name":"evaluable","type":"tuple","internalType":"struct EvaluableV3","components":[{"name":"interpreter","type":"address","internalType":"contract IInterpreterV3"},{"name":"store","type":"address","internalType":"contract IInterpreterStoreV2"},{"name":"bytecode","type":"bytes","internalType":"bytes"}]},{"name":"validInputs","type":"tuple[]","internalType":"struct IO[]","components":[{"name":"token","type":"address","internalType":"address"},{"name":"decimals","type":"uint8","internalType":"uint8"},{"name":"vaultId","type":"uint256","internalType":"uint256"}]},{"name":"validOutputs","type":"tuple[]","internalType":"struct IO[]","components":[{"name":"token","type":"address","internalType":"address"},{"name":"decimals","type":"uint8","internalType":"uint8"},{"name":"vaultId","type":"uint256","internalType":"uint256"}]},{"name":"nonce","type":"bytes32","internalType":"bytes32"}]},{"name":"clearConfig","type":"tuple","indexed":false,"internalType":"struct ClearConfig","components":[{"name":"aliceInputIOIndex","type":"uint256","internalType":"uint256"},{"name":"aliceOutputIOIndex","type":"uint256","internalType":"uint256"},{"name":"bobInputIOIndex","type":"uint256","internalType":"uint256"},{"name":"bobOutputIOIndex","type":"uint256","internalType":"uint256"},{"name":"aliceBountyVaultId","type":"uint256","internalType":"uint256"},{"name":"bobBountyVaultId","type":"uint256","internalType":"uint256"}]}],"anonymous":false},{"type":"event","name":"Context","inputs":[{"name":"sender","type":"address","indexed":false,"internalType":"address"},{"name":"context","type":"uint256[][]","indexed":false,"internalType":"uint256[][]"}],"anonymous":false},{"type":"event","name":"Deposit","inputs":[{"name":"sender","type":"address","indexed":false,"internalType":"address"},{"name":"token","type":"address","indexed":false,"internalType":"address"},{"name":"vaultId","type":"uint256","indexed":false,"internalType":"uint256"},{"name":"amount","type":"uint256","indexed":false,"internalType":"uint256"}],"anonymous":false},{"type":"event","name":"MetaV1","inputs":[{"name":"sender","type":"address","indexed":false,"internalType":"address"},{"name":"subject","type":"uint256","indexed":false,"internalType":"uint256"},{"name":"meta","type":"bytes","indexed":false,"internalType":"bytes"}],"anonymous":false},{"type":"event","name":"OrderExceedsMaxRatio","inputs":[{"name":"sender","type":"address","indexed":false,"internalType":"address"},{"name":"owner","type":"address","indexed":false,"internalType":"address"},{"name":"orderHash","type":"bytes32","indexed":false,"internalType":"bytes32"}],"anonymous":false},{"type":"event","name":"OrderNotFound","inputs":[{"name":"sender","type":"address","indexed":false,"internalType":"address"},{"name":"owner","type":"address","indexed":false,"internalType":"address"},{"name":"orderHash","type":"bytes32","indexed":false,"internalType":"bytes32"}],"anonymous":false},{"type":"event","name":"OrderZeroAmount","inputs":[{"name":"sender","type":"address","indexed":false,"internalType":"address"},{"name":"owner","type":"address","indexed":false,"internalType":"address"},{"name":"orderHash","type":"bytes32","indexed":false,"internalType":"bytes32"}],"anonymous":false},{"type":"event","name":"RemoveOrderV2","inputs":[{"name":"sender","type":"address","indexed":false,"internalType":"address"},{"name":"orderHash","type":"bytes32","indexed":false,"internalType":"bytes32"},{"name":"order","type":"tuple","indexed":false,"internalType":"struct OrderV3","components":[{"name":"owner","type":"address","internalType":"address"},{"name":"evaluable","type":"tuple","internalType":"struct EvaluableV3","components":[{"name":"interpreter","type":"address","internalType":"contract IInterpreterV3"},{"name":"store","type":"address","internalType":"contract IInterpreterStoreV2"},{"name":"bytecode","type":"bytes","internalType":"bytes"}]},{"name":"validInputs","type":"tuple[]","internalType":"struct IO[]","components":[{"name":"token","type":"address","internalType":"address"},{"name":"decimals","type":"uint8","internalType":"uint8"},{"name":"vaultId","type":"uint256","internalType":"uint256"}]},{"name":"validOutputs","type":"tuple[]","internalType":"struct IO[]","components":[{"name":"token","type":"address","internalType":"address"},{"name":"decimals","type":"uint8","internalType":"uint8"},{"name":"vaultId","type":"uint256","internalType":"uint256"}]},{"name":"nonce","type":"bytes32","internalType":"bytes32"}]}],"anonymous":false},{"type":"event","name":"TakeOrderV2","inputs":[{"name":"sender","type":"address","indexed":false,"internalType":"address"},{"name":"config","type":"tuple","indexed":false,"internalType":"struct TakeOrderConfigV3","components":[{"name":"order","type":"tuple","internalType":"struct OrderV3","components":[{"name":"owner","type":"address","internalType":"address"},{"name":"evaluable","type":"tuple","internalType":"struct EvaluableV3","components":[{"name":"interpreter","type":"address","internalType":"contract IInterpreterV3"},{"name":"store","type":"address","internalType":"contract IInterpreterStoreV2"},{"name":"bytecode","type":"bytes","internalType":"bytes"}]},{"name":"validInputs","type":"tuple[]","internalType":"struct IO[]","components":[{"name":"token","type":"address","internalType":"address"},{"name":"decimals","type":"uint8","internalType":"uint8"},{"name":"vaultId","type":"uint256","internalType":"uint256"}]},{"name":"validOutputs","type":"tuple[]","internalType":"struct IO[]","components":[{"name":"token","type":"address","internalType":"address"},{"name":"decimals","type":"uint8","internalType":"uint8"},{"name":"vaultId","type":"uint256","internalType":"uint256"}]},{"name":"nonce","type":"bytes32","internalType":"bytes32"}]},{"name":"inputIOIndex","type":"uint256","internalType":"uint256"},{"name":"outputIOIndex","type":"uint256","internalType":"uint256"},{"name":"signedContext","type":"tuple[]","internalType":"struct SignedContextV1[]","components":[{"name":"signer","type":"address","internalType":"address"},{"name":"context","type":"uint256[]","internalType":"uint256[]"},{"name":"signature","type":"bytes","internalType":"bytes"}]}]},{"name":"input","type":"uint256","indexed":false,"internalType":"uint256"},{"name":"output","type":"uint256","indexed":false,"internalType":"uint256"}],"anonymous":false},{"type":"event","name":"Withdraw","inputs":[{"name":"sender","type":"address","indexed":false,"internalType":"address"},{"name":"token","type":"address","indexed":false,"internalType":"address"},{"name":"vaultId","type":"uint256","indexed":false,"internalType":"uint256"},{"name":"targetAmount","type":"uint256","indexed":false,"internalType":"uint256"},{"name":"amount","type":"uint256","indexed":false,"internalType":"uint256"}],"anonymous":false},{"type":"error","name":"FlashLenderCallbackFailed","inputs":[{"name":"result","type":"bytes32","internalType":"bytes32"}]},{"type":"error","name":"InvalidSignature","inputs":[{"name":"i","type":"uint256","internalType":"uint256"}]},{"type":"error","name":"MinimumInput","inputs":[{"name":"minimumInput","type":"uint256","internalType":"uint256"},{"name":"input","type":"uint256","internalType":"uint256"}]},{"type":"error","name":"NoOrders","inputs":[]},{"type":"error","name":"NotOrderOwner","inputs":[{"name":"sender","type":"address","internalType":"address"},{"name":"owner","type":"address","internalType":"address"}]},{"type":"error","name":"NotRainMetaV1","inputs":[{"name":"unmeta","type":"bytes","internalType":"bytes"}]},{"type":"error","name":"OrderNoHandleIO","inputs":[]},{"type":"error","name":"OrderNoInputs","inputs":[]},{"type":"error","name":"OrderNoOutputs","inputs":[]},{"type":"error","name":"OrderNoSources","inputs":[]},{"type":"error","name":"SameOwner","inputs":[{"name":"owner","type":"address","internalType":"address"}]},{"type":"error","name":"TokenDecimalsMismatch","inputs":[{"name":"aliceTokenDecimals","type":"uint8","internalType":"uint8"},{"name":"bobTokenDecimals","type":"uint8","internalType":"uint8"}]},{"type":"error","name":"TokenMismatch","inputs":[{"name":"aliceToken","type":"address","internalType":"address"},{"name":"bobToken","type":"address","internalType":"address"}]},{"type":"error","name":"UnsupportedCalculateOutputs","inputs":[{"name":"outputs","type":"uint256","internalType":"uint256"}]},{"type":"error","name":"ZeroDepositAmount","inputs":[{"name":"sender","type":"address","internalType":"address"},{"name":"token","type":"address","internalType":"address"},{"name":"vaultId","type":"uint256","internalType":"uint256"}]},{"type":"error","name":"ZeroMaximumInput","inputs":[]},{"type":"error","name":"ZeroWithdrawTargetAmount","inputs":[{"name":"sender","type":"address","internalType":"address"},{"name":"token","type":"address","internalType":"address"},{"name":"vaultId","type":"uint256","internalType":"uint256"}]}],"bytecode":{"object":"0x6080604052348015600f57600080fd5b506001600055615e74806100246000396000f3fe608060405234801561001057600080fd5b50600436106100f55760003560e01c8063a08f5dff11610097578063d97b2e4811610066578063d97b2e4814610223578063d9d98ce414610270578063e0e530b714610286578063f513c42d146102b657600080fd5b8063a08f5dff146101ca578063a616864d146101dd578063ac9650d8146101f0578063c1e4c4af1461021057600080fd5b80635cffe9de116100d35780635cffe9de1461016e578063613255ab146101815780638d7b6beb146101a257806391337c0a146101b557600080fd5b806301ffc9a7146100fa5780630997c4a0146101225780632cb77e9f1461014a575b600080fd5b61010d610108366004614501565b6102c9565b60405190151581526020015b60405180910390f35b61013561013036600461455b565b610362565b60408051928352602083019190915201610119565b61010d610158366004614590565b6000908152600160208190526040909120541490565b61010d61017c3660046145db565b61125b565b61019461018f36600461467a565b6113ba565b604051908152602001610119565b61010d6101b03660046146dc565b61144b565b6101c86101c3366004614745565b6115ed565b005b6101c86101d8366004614ca5565b611776565b61010d6101eb366004614d67565b611eb6565b6102036101fe366004614da0565b6121b6565b6040516101199190614e50565b6101c861021e366004614da0565b6122a0565b610194610231366004614ed2565b73ffffffffffffffffffffffffffffffffffffffff92831660009081526002602090815260408083209490951682529283528381209181529152205490565b61019461027e366004614f13565b600092915050565b610299610294366004614f3f565b6122c0565b604080519315158452602084019290925290820152606001610119565b6101c86102c4366004614745565b612362565b60007fffffffff0000000000000000000000000000000000000000000000000000000082167fe414309100000000000000000000000000000000000000000000000000000000148061035c57507f01ffc9a7000000000000000000000000000000000000000000000000000000007fffffffff000000000000000000000000000000000000000000000000000000008316145b92915050565b60008061036d6124de565b61037a6060840184614f7a565b90506000036103b5576040517f9c95219f00000000000000000000000000000000000000000000000000000000815260040160405180910390fd5b6103bd6143fe565b6103c561442c565b606060006103d587830188614f7a565b604080516020600193909301830281019091529350880135915050600081900361042b576040517fc2ee700900000000000000000000000000000000000000000000000000000000815260040160405180910390fd5b60005b61043b6060890189614f7a565b90508110801561044b5750600082115b15610e655761045d6060890189614f7a565b8281811061046d5761046d614fe2565b905060200281019061047f9190615011565b6104889061504f565b8051909550935061049c6060890189614f7a565b60008181106104ad576104ad614fe2565b90506020028101906104bf9190615011565b6104c990806150e9565b6104d790604081019061511d565b6104e460608b018b614f7a565b60008181106104f5576104f5614fe2565b90506020028101906105079190615011565b6020013581811061051a5761051a614fe2565b610530926020606090920201908101915061467a565b73ffffffffffffffffffffffffffffffffffffffff16846040015186602001518151811061056057610560614fe2565b60200260200101516000015173ffffffffffffffffffffffffffffffffffffffff16146106a55783604001518560200151815181106105a1576105a1614fe2565b6020908102919091010151516105ba60608a018a614f7a565b60008181106105cb576105cb614fe2565b90506020028101906105dd9190615011565b6105e790806150e9565b6105f590604081019061511d565b61060260608c018c614f7a565b600081811061061357610613614fe2565b90506020028101906106259190615011565b6020013581811061063857610638614fe2565b61064e926020606090920201908101915061467a565b6040517ff902523f00000000000000000000000000000000000000000000000000000000815273ffffffffffffffffffffffffffffffffffffffff9283166004820152911660248201526044015b60405180910390fd5b6106b26060890189614f7a565b60008181106106c3576106c3614fe2565b90506020028101906106d59190615011565b6106df90806150e9565b6106ed90606081019061511d565b6106fa60608b018b614f7a565b600081811061070b5761070b614fe2565b905060200281019061071d9190615011565b6040013581811061073057610730614fe2565b610746926020606090920201908101915061467a565b73ffffffffffffffffffffffffffffffffffffffff16846060015186604001518151811061077657610776614fe2565b60200260200101516000015173ffffffffffffffffffffffffffffffffffffffff161461084e5783606001518560400151815181106107b7576107b7614fe2565b6020908102919091010151516107d060608a018a614f7a565b60008181106107e1576107e1614fe2565b90506020028101906107f39190615011565b6107fd90806150e9565b61080b90606081019061511d565b61081860608c018c614f7a565b600081811061082957610829614fe2565b905060200281019061083b9190615011565b6040013581811061063857610638614fe2565b61085b6060890189614f7a565b600081811061086c5761086c614fe2565b905060200281019061087e9190615011565b61088890806150e9565b61089690604081019061511d565b6108a360608b018b614f7a565b60008181106108b4576108b4614fe2565b90506020028101906108c69190615011565b602001358181106108d9576108d9614fe2565b90506060020160200160208101906108f19190615184565b60ff16846040015186602001518151811061090e5761090e614fe2565b60200260200101516020015160ff1614610a2d57836040015185602001518151811061093c5761093c614fe2565b6020026020010151602001518880606001906109589190614f7a565b600081811061096957610969614fe2565b905060200281019061097b9190615011565b61098590806150e9565b61099390604081019061511d565b6109a060608c018c614f7a565b60008181106109b1576109b1614fe2565b90506020028101906109c39190615011565b602001358181106109d6576109d6614fe2565b90506060020160200160208101906109ee9190615184565b6040517f0f6ce47700000000000000000000000000000000000000000000000000000000815260ff92831660048201529116602482015260440161069c565b610a3a6060890189614f7a565b6000818110610a4b57610a4b614fe2565b9050602002810190610a5d9190615011565b610a6790806150e9565b610a7590606081019061511d565b610a8260608b018b614f7a565b6000818110610a9357610a93614fe2565b9050602002810190610aa59190615011565b60400135818110610ab857610ab8614fe2565b9050606002016020016020810190610ad09190615184565b60ff168460600151866040015181518110610aed57610aed614fe2565b60200260200101516020015160ff1614610bb5578360600151856040015181518110610b1b57610b1b614fe2565b602002602001015160200151888060600190610b379190614f7a565b6000818110610b4857610b48614fe2565b9050602002810190610b5a9190615011565b610b6490806150e9565b610b7290606081019061511d565b610b7f60608c018c614f7a565b6000818110610b9057610b90614fe2565b9050602002810190610ba29190615011565b604001358181106109d6576109d6614fe2565b6000610bc085612551565b600081815260016020526040902054909150610c335784516040805133815273ffffffffffffffffffffffffffffffffffffffff909216602083015281018290527fb70c12fa453793fa6818ec07c91e74363a47aa6a6829dcd9533937fdf30314f39060600160405180910390a1610e5c565b6000610c4e8688602001518960400151338b60600151612581565b9050896040013581606001511115610cbe5785516040805133815273ffffffffffffffffffffffffffffffffffffffff909216602083015281018390527fe3151dc8cb7a54ffc4baabd28c1f241c94d510b5e5b502491ac3cad6c16316d5906060015b60405180910390a1610e5a565b8060400151600003610d1f5785516040805133815273ffffffffffffffffffffffffffffffffffffffff909216602083015281018390527f500b713857325f9e6dcb52ae832eca9109d107ed1aae9cb4928b4c1e13f051aa90606001610cb1565b60008660600151886040015181518110610d3b57610d3b614fe2565b602090810291909101810151015160408301519091506000610d628760ff85166002612c77565b905080821115610d70578091505b50600080610d8e8560600151600185612cfc9092919063ffffffff16565b9050610dce8a604001518c6020015181518110610dad57610dad614fe2565b60200260200101516020015160ff16600183612d1a9092919063ffffffff16565b915060009050610de38360ff86166002612d1a565b9050610def81896151ce565b9750610dfb828d6151e1565b9b50610e08828287612d7c565b7f10de99b9032184587540c04e1850dff94a7683ae1fcc9eb06098621c739c0275338c8385604051610e3d9493929190615335565b60405180910390a150508651600101808852602002870183905250505b505b5060010161042e565b610e738260208a01356151ce565b965050508535851015610ebc576040517f45094d88000000000000000000000000000000000000000000000000000000008152863560048201526024810186905260440161069c565b8415610f8557610f853386610ed460608a018a614f7a565b6000818110610ee557610ee5614fe2565b9050602002810190610ef79190615011565b610f0190806150e9565b610f0f90606081019061511d565b610f1c60608c018c614f7a565b6000818110610f2d57610f2d614fe2565b9050602002810190610f3f9190615011565b60400135818110610f5257610f52614fe2565b610f68926020606090920201908101915061467a565b73ffffffffffffffffffffffffffffffffffffffff16919061303f565b6000610f94608088018861546a565b90501115611147573363059bebe6610faf6060890189614f7a565b6000818110610fc057610fc0614fe2565b9050602002810190610fd29190615011565b610fdc90806150e9565b610fea90606081019061511d565b610ff760608b018b614f7a565b600081811061100857611008614fe2565b905060200281019061101a9190615011565b6040013581811061102d5761102d614fe2565b611043926020606090920201908101915061467a565b61105060608a018a614f7a565b600081811061106157611061614fe2565b90506020028101906110739190615011565b61107d90806150e9565b61108b90604081019061511d565b61109860608c018c614f7a565b60008181106110a9576110a9614fe2565b90506020028101906110bb9190615011565b602001358181106110ce576110ce614fe2565b6110e4926020606090920201908101915061467a565b88886110f360808d018d61546a565b6040518763ffffffff1660e01b815260040161111496959493929190615518565b600060405180830381600087803b15801561112e57600080fd5b505af1158015611142573d6000803e3d6000fd5b505050505b83156112125761121233308661116060608b018b614f7a565b600081811061117157611171614fe2565b90506020028101906111839190615011565b61118d90806150e9565b61119b90604081019061511d565b6111a860608d018d614f7a565b60008181106111b9576111b9614fe2565b90506020028101906111cb9190615011565b602001358181106111de576111de614fe2565b6111f4926020606090920201908101915061467a565b73ffffffffffffffffffffffffffffffffffffffff16929190613118565b60005b81518110156112485761124082828151811061123357611233614fe2565b602002602001015161317c565b600101611215565b505050506112566001600055565b915091565b600061127e73ffffffffffffffffffffffffffffffffffffffff8616878661303f565b6040517f23e30c8b00000000000000000000000000000000000000000000000000000000815260009073ffffffffffffffffffffffffffffffffffffffff8816906323e30c8b906112dd9033908a908a9087908b908b90600401615518565b6020604051808303816000875af11580156112fc573d6000803e3d6000fd5b505050506040513d601f19601f82011682018060405250810190611320919061556a565b90507f439148f0bbc682ca079e46d6e2c2f0c1e3b820f1a291b069d8882abf8cf18dd9811461137e576040517f5b62c5480000000000000000000000000000000000000000000000000000000081526004810182905260240161069c565b6113ad873061138e6000896151e1565b73ffffffffffffffffffffffffffffffffffffffff8a16929190613118565b5060019695505050505050565b6040517f70a0823100000000000000000000000000000000000000000000000000000000815230600482015260009073ffffffffffffffffffffffffffffffffffffffff8316906370a0823190602401602060405180830381865afa158015611427573d6000803e3d6000fd5b505050506040513d601f19601f8201168201806040525081019061035c919061556a565b60006114556124de565b611462602085018561467a565b73ffffffffffffffffffffffffffffffffffffffff163373ffffffffffffffffffffffffffffffffffffffff16146114f457336114a2602086018661467a565b6040517f4702b91400000000000000000000000000000000000000000000000000000000815273ffffffffffffffffffffffffffffffffffffffff92831660048201529116602482015260440161069c565b600061150761150286615583565b612551565b6000818152600160205260409020549091507fffffffffffffffffffffffffffffffffffffffffffffffffffffffffffffffff016115db5760008181526001602081905260408083209290925590519092507fa2d7a96afe77c99b6a2d72ca8b4d3c5c88b6466ee34ca74e0955951f449425c89061158a90339084908990615712565b60405180910390a16115db60005b6040519080825280602002602001820160405280156115cb57816020015b60608152602001906001900390816115b65790505b506115d68587615821565b6133c7565b506115e66001600055565b9392505050565b6115f56124de565b82600003611654576040517f40e97a5e00000000000000000000000000000000000000000000000000000000815233600482015273ffffffffffffffffffffffffffffffffffffffff861660248201526044810185905260640161069c565b6040805133815273ffffffffffffffffffffffffffffffffffffffff87166020820152908101859052606081018490527fdcbc1c05240f31ff3ad067ef1ee35ce4997762752e3a095284754544f4c709d79060800160405180910390a16116d373ffffffffffffffffffffffffffffffffffffffff8616333086613118565b33600090815260026020908152604080832073ffffffffffffffffffffffffffffffffffffffff8916845282528083208784529091528120805485929061171b9084906151e1565b90915550611765905060005b60405190808252806020026020018201604052801561175a57816020015b60608152602001906001900390816117455790505b506115d68385615821565b61176f6001600055565b5050505050565b61177e6124de565b8351855173ffffffffffffffffffffffffffffffffffffffff9182169116036117ee5784516040517f227e4ce900000000000000000000000000000000000000000000000000000000815273ffffffffffffffffffffffffffffffffffffffff909116600482015260240161069c565b836040015183604001358151811061180857611808614fe2565b60200260200101516000015173ffffffffffffffffffffffffffffffffffffffff16856060015184602001358151811061184457611844614fe2565b60200260200101516000015173ffffffffffffffffffffffffffffffffffffffff161461190957846060015183602001358151811061188557611885614fe2565b60200260200101516000015184604001518460400135815181106118ab576118ab614fe2565b6020908102919091010151516040517ff902523f00000000000000000000000000000000000000000000000000000000815273ffffffffffffffffffffffffffffffffffffffff92831660048201529116602482015260440161069c565b836040015183604001358151811061192357611923614fe2565b60200260200101516020015160ff16856060015184602001358151811061194c5761194c614fe2565b60200260200101516020015160ff16146119ef57846060015183602001358151811061197a5761197a614fe2565b60200260200101516020015184604001518460400135815181106119a0576119a0614fe2565b6020026020010151602001516040517f0f6ce47700000000000000000000000000000000000000000000000000000000815260040161069c92919060ff92831681529116602082015260400190565b604085015180518435908110611a0757611a07614fe2565b60200260200101516000015173ffffffffffffffffffffffffffffffffffffffff168460600151846060013581518110611a4357611a43614fe2565b60200260200101516000015173ffffffffffffffffffffffffffffffffffffffff1614611aa857604085015180518435908110611a8257611a82614fe2565b60200260200101516000015184606001518460600135815181106118ab576118ab614fe2565b604085015180518435908110611ac057611ac0614fe2565b60200260200101516020015160ff168460600151846060013581518110611ae957611ae9614fe2565b60200260200101516020015160ff1614611b3b57604085015180518435908110611b1557611b15614fe2565b60200260200101516020015184606001518460600135815181106119a0576119a0614fe2565b600060016000611b4a88612551565b81526020019081526020016000205403611bc9577fb70c12fa453793fa6818ec07c91e74363a47aa6a6829dcd9533937fdf30314f3338660000151611b8e88612551565b6040805173ffffffffffffffffffffffffffffffffffffffff94851681529390921660208401529082015260600160405180910390a1611765565b600060016000611bd887612551565b81526020019081526020016000205403611c1c577fb70c12fa453793fa6818ec07c91e74363a47aa6a6829dcd9533937fdf30314f3338560000151611b8e87612551565b7f692ee69af2843c70772be93470669f3c73e583316a047b6bfefdae5629de37ce33868686604051611c5194939291906158eb565b60405180910390a16000611c748685600001358660200135886000015186612581565b90506000611c9186866040013587606001358a6000015188612581565b90506000611c9f83836135cc565b9050611cb48160400151826000015185612d7c565b611cc78160600151826020015184612d7c565b60608101518151600091611cda916151ce565b9050600082604001518360200151611cf291906151ce565b90508115611d9857336000908152600260209081526040822060608d01518051869492938d0135908110611d2857611d28614fe2565b60200260200101516000015173ffffffffffffffffffffffffffffffffffffffff1673ffffffffffffffffffffffffffffffffffffffff16815260200190815260200160002060008a6080013581526020019081526020016000206000828254611d9291906151e1565b90915550505b8015611e3a573360009081526002602052604081206060808c015180518594928d0135908110611dca57611dca614fe2565b60200260200101516000015173ffffffffffffffffffffffffffffffffffffffff1673ffffffffffffffffffffffffffffffffffffffff16815260200190815260200160002060008a60a0013581526020019081526020016000206000828254611e3491906151e1565b90915550505b5050604080513381528251602080830191909152830151818301529082015160608083019190915282015160808201527f3f20e55919cca701abb2a40ab72542b25ea7eed63a50f979dd2cd3231e5f488d9060a00160405180910390a1611ea08361317c565b611ea98261317c565b50505061176f6001600055565b6000611ec06124de565b611ecd602085018561511d565b9050600003611f08576040517f6c44ef8f00000000000000000000000000000000000000000000000000000000815260040160405180910390fd5b611f15604085018561511d565b9050600003611f50576040517f540e5f0b00000000000000000000000000000000000000000000000000000000815260040160405180910390fd5b6040805160a0810190915233815260009060208101611f6f8780615975565b611f78906159a9565b8152602001868060200190611f8d919061511d565b808060200260200160405190810160405280939291908181526020016000905b82821015611fd957611fca606083028601368190038101906159b5565b81526020019060010190611fad565b5050509183525050602001611ff1604088018861511d565b808060200260200160405190810160405280939291908181526020016000905b8282101561203d5761202e606083028601368190038101906159b5565b81526020019060010190612011565b5050505050815260200186606001358152509050600061205c82612551565b6000818152600160205260409020549091501580156121a85760008281526001602081905260409182902055835190517f3ce8bbe652d8778b67dd565c479c3bbaa843e55e477d075f756f889ec4bbdaee916120bb91859087906159d1565b60405180910390a160006120d260a089018961546a565b9050111561216f576121246120ea60a089018961546a565b8080601f01602080910402602001604051908101604052809392919081815260200183838082843760009201919091525061362292505050565b82517fbea766d03fa1efd3f81cc8634d08320bc62bb0ed9234ac59bbaafa5893fb6b13908361215660a08b018b61546a565b6040516121669493929190615a06565b60405180910390a15b604080516000808252602082019092526121a89161219d565b60608152602001906001900390816121885790505b506115d68789615821565b925050506115e66001600055565b60608167ffffffffffffffff8111156121d1576121d16147af565b60405190808252806020026020018201604052801561220457816020015b60608152602001906001900390816121ef5790505b50905060005b82811015612299576122743085858481811061222857612228614fe2565b905060200281019061223a919061546a565b8080601f01602080910402602001604051908101604052809392919081815260200183838082843760009201919091525061366692505050565b82828151811061228657612286614fe2565b602090810291909101015260010161220a565b5092915050565b6122a86124de565b6122b26000611727565b6122bc6001600055565b5050565b60008080806122db6122d286806150e9565b61150290615583565b600081815260016020819052604090912054919250146123065760008060009350935093505061235b565b600061234461231587806150e9565b61231e90615583565b602088013560408901353361233660608c018c614f7a565b61233f91615a3c565b612581565b905060018160400151826060015194509450945050505b9193909250565b61236a6124de565b826000036123c9576040517ff7a898f600000000000000000000000000000000000000000000000000000000815233600482015273ffffffffffffffffffffffffffffffffffffffff861660248201526044810185905260640161069c565b33600090815260026020908152604080832073ffffffffffffffffffffffffffffffffffffffff8916845282528083208784529091528120549061240d858361368b565b905080156124d25761241f81836151ce565b33600081815260026020908152604080832073ffffffffffffffffffffffffffffffffffffffff8d168085529083528184208c855283529281902094909455835192835282015290810187905260608101869052608081018290527febff2602b3f468259e1e99f613fed6691f3a6526effe6ef3e768ba7ae7a36c4f9060a00160405180910390a16124c873ffffffffffffffffffffffffffffffffffffffff8816338361303f565b6124d26000611598565b505061176f6001600055565b60026000540361254a576040517f08c379a000000000000000000000000000000000000000000000000000000000815260206004820152601f60248201527f5265656e7472616e637947756172643a207265656e7472616e742063616c6c00604482015260640161069c565b6002600055565b6000816040516020016125649190615a49565b604051602081830303815290604052805190602001209050919050565b6125896144be565b600061259487612551565b60408051600480825260a08201909252919250606091600091816020015b60608152602001906001900390816125b257905050895160408051600381526020810187905273ffffffffffffffffffffffffffffffffffffffff92831681830152918916606083015260808201905290915081600180038151811061261a5761261a614fe2565b60200260200101819052506127af8960400151898151811061263e5761263e614fe2565b60200260200101516000015173ffffffffffffffffffffffffffffffffffffffff168a604001518a8151811061267657612676614fe2565b60200260200101516020015160ff168b604001518b8151811061269b5761269b614fe2565b602002602001015160400151600260008e6000015173ffffffffffffffffffffffffffffffffffffffff1673ffffffffffffffffffffffffffffffffffffffff16815260200190815260200160002060008e604001518e8151811061270257612702614fe2565b60200260200101516000015173ffffffffffffffffffffffffffffffffffffffff1673ffffffffffffffffffffffffffffffffffffffff16815260200190815260200160002060008e604001518e8151811061276057612760614fe2565b602002602001015160400151815260200190815260200160002054600060408051600581526020810196909652858101949094526060850192909252608084015260a083015260c08201905290565b816001600303815181106127c5576127c5614fe2565b602002602001018190525061290b896060015188815181106127e9576127e9614fe2565b60200260200101516000015173ffffffffffffffffffffffffffffffffffffffff168a60600151898151811061282157612821614fe2565b60200260200101516020015160ff168b606001518a8151811061284657612846614fe2565b602002602001015160400151600260008e6000015173ffffffffffffffffffffffffffffffffffffffff1673ffffffffffffffffffffffffffffffffffffffff16815260200190815260200160002060008e606001518d815181106128ad576128ad614fe2565b60200260200101516000015173ffffffffffffffffffffffffffffffffffffffff1673ffffffffffffffffffffffffffffffffffffffff16815260200190815260200160002060008e606001518d8151811061276057612760614fe2565b8160016004038151811061292157612921614fe2565b602002602001018190525061293681866136a1565b9150506000886000015173ffffffffffffffffffffffffffffffffffffffff1690506000808a602001516000015173ffffffffffffffffffffffffffffffffffffffff1663d6e3357a8c602001516020015161299c863060009182526020526040902090565b60208f015160400151600089816040519080825280602002602001820160405280156129d2578160200160208202803683370190505b506040518763ffffffff1660e01b81526004016129f496959493929190615ac7565b600060405180830381865afa158015612a11573d6000803e3d6000fd5b505050506040513d6000823e601f3d9081017fffffffffffffffffffffffffffffffffffffffffffffffffffffffffffffffe0168201604052612a579190810190615b9f565b91509150600282511015612a9c5781516040517f3eee395400000000000000000000000000000000000000000000000000000000815260040161069c91815260200190565b600082600181518110612ab157612ab1614fe2565b60200260200101519050600083600081518110612ad057612ad0614fe2565b602002602001015190506000600260008f6000015173ffffffffffffffffffffffffffffffffffffffff1673ffffffffffffffffffffffffffffffffffffffff16815260200190815260200160002060008f606001518e81518110612b3757612b37614fe2565b60200260200101516000015173ffffffffffffffffffffffffffffffffffffffff1673ffffffffffffffffffffffffffffffffffffffff16815260200190815260200160002060008f606001518e81518110612b9557612b95614fe2565b60200260200101516040015181526020019081526020016000205490506000612bee8f606001518e81518110612bcd57612bcd614fe2565b60200260200101516020015160ff16600084612c779092919063ffffffff16565b905080841115612bfc578093505b50506040805160028152602081018490528082018390526060810190915286600281518110612c2d57612c2d614fe2565b6020908102919091018101919091526040805160e0810182529e8f52908e019b909b52998c015260608b019890985250608089019190915260a08801525050505060c08301525090565b60008260121115612cac5760128390036002831615612ca257612c9a85826139b1565b9150506115e6565b612c9a8582613a37565b6012831115612cf5577fffffffffffffffffffffffffffffffffffffffffffffffffffffffffffffffee83016001831615612ceb57612c9a8582613a6f565b612c9a8582613abd565b50826115e6565b6000612d128484670de0b6b3a764000085613ae0565b949350505050565b60008260121115612d3d5760128390036001831615612ceb57612c9a8582613a6f565b6012831115612cf5577fffffffffffffffffffffffffffffffffffffffffffffffffffffffffffffffee83016002831615612ca257612c9a85826139b1565b828160800151600381518110612d9457612d94614fe2565b6020026020010151600481518110612dae57612dae614fe2565b602002602001018181525050818160800151600481518110612dd257612dd2614fe2565b6020026020010151600481518110612dec57612dec614fe2565b60209081029190910101528215612efa5780515173ffffffffffffffffffffffffffffffffffffffff16600090815260026020526040812060808301518051869391906003908110612e4057612e40614fe2565b6020026020010151600081518110612e5a57612e5a614fe2565b602002602001015173ffffffffffffffffffffffffffffffffffffffff1673ffffffffffffffffffffffffffffffffffffffff16815260200190815260200160002060008360800151600381518110612eb557612eb5614fe2565b6020026020010151600281518110612ecf57612ecf614fe2565b602002602001015181526020019081526020016000206000828254612ef491906151e1565b90915550505b8115612ffd5780515173ffffffffffffffffffffffffffffffffffffffff16600090815260026020526040812060808301518051859391906004908110612f4357612f43614fe2565b6020026020010151600081518110612f5d57612f5d614fe2565b602002602001015173ffffffffffffffffffffffffffffffffffffffff1673ffffffffffffffffffffffffffffffffffffffff16815260200190815260200160002060008360800151600481518110612fb857612fb8614fe2565b6020026020010151600281518110612fd257612fd2614fe2565b602002602001015181526020019081526020016000206000828254612ff791906151ce565b90915550505b7f17a5c0f3785132a57703932032f6863e7920434150aa1dc940e567b440fdce1f338260800151604051613032929190615c03565b60405180910390a1505050565b60405173ffffffffffffffffffffffffffffffffffffffff83166024820152604481018290526131139084907fa9059cbb00000000000000000000000000000000000000000000000000000000906064015b604080517fffffffffffffffffffffffffffffffffffffffffffffffffffffffffffffffe08184030181529190526020810180517bffffffffffffffffffffffffffffffffffffffffffffffffffffffff167fffffffff0000000000000000000000000000000000000000000000000000000090931692909217909152613b3d565b505050565b60405173ffffffffffffffffffffffffffffffffffffffff808516602483015283166044820152606481018290526131769085907f23b872dd0000000000000000000000000000000000000000000000000000000090608401613091565b50505050565b60c08101515115613221578051602090810151015160a082015160c08301516040517f946aadc600000000000000000000000000000000000000000000000000000000815273ffffffffffffffffffffffffffffffffffffffff9093169263946aadc6926131ee929091600401615c32565b600060405180830381600087803b15801561320857600080fd5b505af115801561321c573d6000803e3d6000fd5b505050505b805160209081015180519082015160a084015160009081523090935260408320839273ffffffffffffffffffffffffffffffffffffffff169163d6e3357a91865160200151604001516080880151600190600060405190808252806020026020018201604052801561329d578160200160208202803683370190505b506040518763ffffffff1660e01b81526004016132bf96959493929190615ac7565b600060405180830381865afa1580156132dc573d6000803e3d6000fd5b505050506040513d6000823e601f3d9081017fffffffffffffffffffffffffffffffffffffffffffffffffffffffffffffffe01682016040526133229190810190615b9f565b8051919350915015613113578251602090810151015160a08401516040517f946aadc600000000000000000000000000000000000000000000000000000000815273ffffffffffffffffffffffffffffffffffffffff9092169163946aadc691613390918590600401615c32565b600060405180830381600087803b1580156133aa57600080fd5b505af11580156133be573d6000803e3d6000fd5b50505050505050565b336133fa6040805160a0810182526000918101828152606080830193909352608082018390528152602081019190915290565b60005b835181101561176f5783818151811061341857613418614fe2565b6020026020010151915060008083600001516000015173ffffffffffffffffffffffffffffffffffffffff1663d6e3357a856000015160200151613466883060009182526020526040902090565b876000015160400151600061347f8d8b602001516136a1565b604080516000815260208101918290527fffffffff0000000000000000000000000000000000000000000000000000000060e089901b169091526134cb95949392919060248101615ac7565b600060405180830381865afa1580156134e8573d6000803e3d6000fd5b505050506040513d6000823e601f3d9081017fffffffffffffffffffffffffffffffffffffffffffffffffffffffffffffffe016820160405261352e9190810190615b9f565b8551602001516040517f946aadc600000000000000000000000000000000000000000000000000000000815292945090925073ffffffffffffffffffffffffffffffffffffffff169063946aadc69061358d9088908590600401615c32565b600060405180830381600087803b1580156135a757600080fd5b505af11580156135bb573d6000803e3d6000fd5b5050505050508060010190506133fd565b6135f76040518060800160405280600081526020016000815260200160008152602001600081525090565b6136018383613c4c565b825260408201526136128284613c4c565b6020830152606082015292915050565b61362b81613d11565b61366357806040517f644cc25800000000000000000000000000000000000000000000000000000000815260040161069c9190615c4b565b50565b60606115e68383604051806060016040528060278152602001615e4d60279139613d41565b600081831061369a57816115e6565b5090919050565b60606000825167ffffffffffffffff8111156136bf576136bf6147af565b6040519080825280602002602001820160405280156136e8578160200160208202803683370190505b5090506000808451116136fc576000613702565b83516001015b855160010101905060008167ffffffffffffffff811115613725576137256147af565b60405190808252806020026020018201604052801561375857816020015b60608152602001906001900390816137435790505b509050600061377d604080516002815233602082015230818301526060810190915290565b82828151811061378f5761378f614fe2565b602002602001018190525060005b87518110156137ed5781806001019250508781815181106137c0576137c0614fe2565b60200260200101518383815181106137da576137da614fe2565b602090810291909101015260010161379d565b508551156139a75780806001019150508382828151811061381057613810614fe2565b602002602001018190525060005b86518110156139a5576138cf87828151811061383c5761383c614fe2565b6020026020010151600001516138ac6138798a858151811061386057613860614fe2565b6020026020010151602001518051602090810291012090565b7f19457468657265756d205369676e6564204d6573736167653a0a3332000000006000908152601c91909152603c902090565b8984815181106138be576138be614fe2565b602002602001015160400151613dc6565b613908576040517f52bf98480000000000000000000000000000000000000000000000000000000081526004810182905260240161069c565b86818151811061391a5761391a614fe2565b60200260200101516000015173ffffffffffffffffffffffffffffffffffffffff1685828151811061394e5761394e614fe2565b602002602001018181525050818060010192505086818151811061397457613974614fe2565b60200260200101516020015183838151811061399257613992614fe2565b602090810291909101015260010161381e565b505b5095945050505050565b6000604e82106139f15782156139e7577fffffffffffffffffffffffffffffffffffffffffffffffffffffffffffffffff6139ea565b60005b905061035c565b50600a81900a8281029083818381613a0b57613a0b615c5e565b0414612299577fffffffffffffffffffffffffffffffffffffffffffffffffffffffffffffffff612d12565b600a81900a613a468184615c8d565b9050604e821061035c578215613a6657613a6182600a615dc4565b6115e6565b50600092915050565b6000604e8210613a93578215613a86576001613a89565b60005b60ff16905061035c565b600a82900a808481613aa757613aa7615c5e565b0491508082028414612299575060010192915050565b6000604e821015613a665781600a0a8381613ada57613ada615c5e565b046115e6565b600080613aee868686613e37565b90506001836002811115613b0457613b04615dd0565b148015613b21575060008480613b1c57613b1c615c5e565b868809115b15613b3457613b316001826151e1565b90505b95945050505050565b6000613b9f826040518060400160405280602081526020017f5361666545524332303a206c6f772d6c6576656c2063616c6c206661696c65648152508573ffffffffffffffffffffffffffffffffffffffff16613f619092919063ffffffff16565b9050805160001480613bc0575080806020019051810190613bc09190615dff565b613113576040517f08c379a000000000000000000000000000000000000000000000000000000000815260206004820152602a60248201527f5361666545524332303a204552433230206f7065726174696f6e20646964206e60448201527f6f74207375636365656400000000000000000000000000000000000000000000606482015260840161069c565b6000806000613c6f846060015160018660400151612cfc9092919063ffffffff16565b604086015190915081811115613c825750805b613cc4866000015160600151876020015181518110613ca357613ca3614fe2565b60200260200101516020015160ff16600083612d1a9092919063ffffffff16565b92506000613ce28760600151600184612cfc9092919063ffffffff16565b9050613d05866000015160600151876020015181518110610dad57610dad614fe2565b94505050509250929050565b6000600882511015613d2557506000919050565b506008015167ffffffffffffffff1667ff0a89c674ee78741490565b60606000808573ffffffffffffffffffffffffffffffffffffffff1685604051613d6b9190615e21565b600060405180830381855af49150503d8060008114613da6576040519150601f19603f3d011682016040523d82523d6000602084013e613dab565b606091505b5091509150613dbc86838387613f70565b9695505050505050565b6000806000613dd58585614010565b90925090506000816004811115613dee57613dee615dd0565b148015613e2657508573ffffffffffffffffffffffffffffffffffffffff168273ffffffffffffffffffffffffffffffffffffffff16145b80613dbc5750613dbc868686614055565b600080807fffffffffffffffffffffffffffffffffffffffffffffffffffffffffffffffff85870985870292508281108382030391505080600003613e8f57838281613e8557613e85615c5e565b04925050506115e6565b808411613ef8576040517f08c379a000000000000000000000000000000000000000000000000000000000815260206004820152601560248201527f4d6174683a206d756c446976206f766572666c6f770000000000000000000000604482015260640161069c565b60008486880960026001871981018816978890046003810283188082028403028082028403028082028403028082028403028082028403029081029092039091026000889003889004909101858311909403939093029303949094049190911702949350505050565b6060612d1284846000856141b2565b60608315614006578251600003613fff5773ffffffffffffffffffffffffffffffffffffffff85163b613fff576040517f08c379a000000000000000000000000000000000000000000000000000000000815260206004820152601d60248201527f416464726573733a2063616c6c20746f206e6f6e2d636f6e7472616374000000604482015260640161069c565b5081612d12565b612d1283836142cb565b60008082516041036140465760208301516040840151606085015160001a61403a8782858561430f565b9450945050505061404e565b506000905060025b9250929050565b60008060008573ffffffffffffffffffffffffffffffffffffffff16631626ba7e60e01b868660405160240161408c929190615e33565b604080517fffffffffffffffffffffffffffffffffffffffffffffffffffffffffffffffe08184030181529181526020820180517bffffffffffffffffffffffffffffffffffffffffffffffffffffffff167fffffffff000000000000000000000000000000000000000000000000000000009094169390931790925290516141159190615e21565b600060405180830381855afa9150503d8060008114614150576040519150601f19603f3d011682016040523d82523d6000602084013e614155565b606091505b509150915081801561416957506020815110155b8015613dbc575080517f1626ba7e00000000000000000000000000000000000000000000000000000000906141a7908301602090810190840161556a565b149695505050505050565b606082471015614244576040517f08c379a000000000000000000000000000000000000000000000000000000000815260206004820152602660248201527f416464726573733a20696e73756666696369656e742062616c616e636520666f60448201527f722063616c6c0000000000000000000000000000000000000000000000000000606482015260840161069c565b6000808673ffffffffffffffffffffffffffffffffffffffff16858760405161426d9190615e21565b60006040518083038185875af1925050503d80600081146142aa576040519150601f19603f3d011682016040523d82523d6000602084013e6142af565b606091505b50915091506142c087838387613f70565b979650505050505050565b8151156142db5781518083602001fd5b806040517f08c379a000000000000000000000000000000000000000000000000000000000815260040161069c9190615c4b565b6000807f7fffffffffffffffffffffffffffffff5d576e7357a4501ddfe92f46681b20a083111561434657506000905060036143f5565b6040805160008082526020820180845289905260ff881692820192909252606081018690526080810185905260019060a0016020604051602081039080840390855afa15801561439a573d6000803e3d6000fd5b50506040517fffffffffffffffffffffffffffffffffffffffffffffffffffffffffffffffe0015191505073ffffffffffffffffffffffffffffffffffffffff81166143ee576000600192509250506143f5565b9150600090505b94509492505050565b604051806080016040528061441161442c565b81526020016000815260200160008152602001606081525090565b6040518060a00160405280600073ffffffffffffffffffffffffffffffffffffffff1681526020016144a46040518060600160405280600073ffffffffffffffffffffffffffffffffffffffff168152602001600073ffffffffffffffffffffffffffffffffffffffff168152602001606081525090565b815260606020820181905260408201819052600091015290565b6040518060e001604052806144d161442c565b81526020016000815260200160008152602001600081526020016060815260200160008152602001606081525090565b60006020828403121561451357600080fd5b81357fffffffff00000000000000000000000000000000000000000000000000000000811681146115e657600080fd5b600060a0828403121561455557600080fd5b50919050565b60006020828403121561456d57600080fd5b813567ffffffffffffffff81111561458457600080fd5b612d1284828501614543565b6000602082840312156145a257600080fd5b5035919050565b73ffffffffffffffffffffffffffffffffffffffff8116811461366357600080fd5b80356145d6816145a9565b919050565b6000806000806000608086880312156145f357600080fd5b85356145fe816145a9565b9450602086013561460e816145a9565b935060408601359250606086013567ffffffffffffffff8082111561463257600080fd5b818801915088601f83011261464657600080fd5b81358181111561465557600080fd5b89602082850101111561466757600080fd5b9699959850939650602001949392505050565b60006020828403121561468c57600080fd5b81356115e6816145a9565b60008083601f8401126146a957600080fd5b50813567ffffffffffffffff8111156146c157600080fd5b6020830191508360208260051b850101111561404e57600080fd5b6000806000604084860312156146f157600080fd5b833567ffffffffffffffff8082111561470957600080fd5b61471587838801614543565b9450602086013591508082111561472b57600080fd5b5061473886828701614697565b9497909650939450505050565b60008060008060006080868803121561475d57600080fd5b8535614768816145a9565b94506020860135935060408601359250606086013567ffffffffffffffff81111561479257600080fd5b61479e88828901614697565b969995985093965092949392505050565b7f4e487b7100000000000000000000000000000000000000000000000000000000600052604160045260246000fd5b6040516060810167ffffffffffffffff81118282101715614801576148016147af565b60405290565b60405160a0810167ffffffffffffffff81118282101715614801576148016147af565b6040805190810167ffffffffffffffff81118282101715614801576148016147af565b604051601f82017fffffffffffffffffffffffffffffffffffffffffffffffffffffffffffffffe016810167ffffffffffffffff81118282101715614894576148946147af565b604052919050565b600082601f8301126148ad57600080fd5b813567ffffffffffffffff8111156148c7576148c76147af565b6148f860207fffffffffffffffffffffffffffffffffffffffffffffffffffffffffffffffe0601f8401160161484d565b81815284602083860101111561490d57600080fd5b816020850160208301376000918101602001919091529392505050565b60006060828403121561493c57600080fd5b6149446147de565b90508135614951816145a9565b81526020820135614961816145a9565b6020820152604082013567ffffffffffffffff81111561498057600080fd5b61498c8482850161489c565b60408301525092915050565b600067ffffffffffffffff8211156149b2576149b26147af565b5060051b60200190565b803560ff811681146145d657600080fd5b6000606082840312156149df57600080fd5b6149e76147de565b905081356149f4816145a9565b8152614a02602083016149bc565b60208201526040820135604082015292915050565b600082601f830112614a2857600080fd5b81356020614a3d614a3883614998565b61484d565b808382526020820191506060602060608602880101945087851115614a6157600080fd5b602087015b85811015614a8557614a7889826149cd565b8452928401928101614a66565b5090979650505050505050565b600060a08284031215614aa457600080fd5b614aac614807565b9050614ab7826145cb565b8152602082013567ffffffffffffffff80821115614ad457600080fd5b614ae08583860161492a565b60208401526040840135915080821115614af957600080fd5b614b0585838601614a17565b60408401526060840135915080821115614b1e57600080fd5b50614b2b84828501614a17565b6060830152506080820135608082015292915050565b600060c0828403121561455557600080fd5b6000614b61614a3884614998565b8381529050602080820190600585811b850187811115614b8057600080fd5b855b81811015614c7957803567ffffffffffffffff80821115614ba35760008081fd5b908801906060828c031215614bb85760008081fd5b614bc06147de565b8235614bcb816145a9565b81528287013582811115614bdf5760008081fd5b8301601f81018d13614bf15760008081fd5b8035614bff614a3882614998565b81815290881b8201890190898101908f831115614c1c5760008081fd5b928a01925b82841015614c3a5783358252928a0192908a0190614c21565b848b01525060409150508381013583811115614c565760008081fd5b614c628e82870161489c565b918301919091525087525050938301938301614b82565b50505050509392505050565b600082601f830112614c9657600080fd5b6115e683833560208501614b53565b60008060008060006101408688031215614cbe57600080fd5b853567ffffffffffffffff80821115614cd657600080fd5b614ce289838a01614a92565b96506020880135915080821115614cf857600080fd5b614d0489838a01614a92565b9550614d138960408a01614b41565b9450610100880135915080821115614d2a57600080fd5b614d3689838a01614c85565b9350610120880135915080821115614d4d57600080fd5b50614d5a88828901614c85565b9150509295509295909350565b600080600060408486031215614d7c57600080fd5b833567ffffffffffffffff80821115614d9457600080fd5b61471587838801614b41565b60008060208385031215614db357600080fd5b823567ffffffffffffffff811115614dca57600080fd5b614dd685828601614697565b90969095509350505050565b60005b83811015614dfd578181015183820152602001614de5565b50506000910152565b60008151808452614e1e816020860160208601614de2565b601f017fffffffffffffffffffffffffffffffffffffffffffffffffffffffffffffffe0169290920160200192915050565b600060208083016020845280855180835260408601915060408160051b87010192506020870160005b82811015614ec5577fffffffffffffffffffffffffffffffffffffffffffffffffffffffffffffffc0888603018452614eb3858351614e06565b94509285019290850190600101614e79565b5092979650505050505050565b600080600060608486031215614ee757600080fd5b8335614ef2816145a9565b92506020840135614f02816145a9565b929592945050506040919091013590565b60008060408385031215614f2657600080fd5b8235614f31816145a9565b946020939093013593505050565b600060208284031215614f5157600080fd5b813567ffffffffffffffff811115614f6857600080fd5b8201608081850312156115e657600080fd5b60008083357fffffffffffffffffffffffffffffffffffffffffffffffffffffffffffffffe1843603018112614faf57600080fd5b83018035915067ffffffffffffffff821115614fca57600080fd5b6020019150600581901b360382131561404e57600080fd5b7f4e487b7100000000000000000000000000000000000000000000000000000000600052603260045260246000fd5b600082357fffffffffffffffffffffffffffffffffffffffffffffffffffffffffffffff8183360301811261504557600080fd5b9190910192915050565b60006080823603121561506157600080fd5b6040516080810167ffffffffffffffff8282108183111715615085576150856147af565b81604052843591508082111561509a57600080fd5b6150a636838701614a92565b8352602085013560208401526040850135604084015260608501359150808211156150d057600080fd5b506150dd36828601614c85565b60608301525092915050565b600082357fffffffffffffffffffffffffffffffffffffffffffffffffffffffffffffff6183360301811261504557600080fd5b60008083357fffffffffffffffffffffffffffffffffffffffffffffffffffffffffffffffe184360301811261515257600080fd5b83018035915067ffffffffffffffff82111561516d57600080fd5b602001915060608102360382131561404e57600080fd5b60006020828403121561519657600080fd5b6115e6826149bc565b7f4e487b7100000000000000000000000000000000000000000000000000000000600052601160045260246000fd5b8181038181111561035c5761035c61519f565b8082018082111561035c5761035c61519f565b60008151808452602080850194506020840160005b83811015615254578151805173ffffffffffffffffffffffffffffffffffffffff1688528381015160ff16848901526040908101519088015260609096019590820190600101615209565b509495945050505050565b600073ffffffffffffffffffffffffffffffffffffffff808351168452602083015160a060208601528181511660a08601528160208201511660c08601526040810151915050606060e08501526152ba610100850182614e06565b9050604083015184820360408601526152d382826151f4565b915050606083015184820360608601526152ed82826151f4565b915050608083015160808501528091505092915050565b60008151808452602080850194506020840160005b8381101561525457815187529582019590820190600101615319565b600073ffffffffffffffffffffffffffffffffffffffff80871683526020608081850152865160808086015261536f61010086018261525f565b90508188015160a086015260408089015160c08701526060808a01517fffffffffffffffffffffffffffffffffffffffffffffffffffffffffffffff808885030160e08901528381518086528686019150868160051b870101878401935060005b82811015615448577fffffffffffffffffffffffffffffffffffffffffffffffffffffffffffffffe088830301845284518a815116835289810151878b85015261541c88850182615304565b91890151848303858b01529190506154348183614e06565b968b0196958b0195935050506001016153d0565b5080995050505050505050505083604083015282606083015295945050505050565b60008083357fffffffffffffffffffffffffffffffffffffffffffffffffffffffffffffffe184360301811261549f57600080fd5b83018035915067ffffffffffffffff8211156154ba57600080fd5b60200191503681900382131561404e57600080fd5b8183528181602085013750600060208284010152600060207fffffffffffffffffffffffffffffffffffffffffffffffffffffffffffffffe0601f840116840101905092915050565b600073ffffffffffffffffffffffffffffffffffffffff808916835280881660208401525085604083015284606083015260a0608083015261555e60a0830184866154cf565b98975050505050505050565b60006020828403121561557c57600080fd5b5051919050565b600061035c3683614a92565b6000813561559c816145a9565b73ffffffffffffffffffffffffffffffffffffffff90811684526020830135906155c5826145a9565b1660208401526040820135368390037fffffffffffffffffffffffffffffffffffffffffffffffffffffffffffffffe101811261560157600080fd5b820160208101903567ffffffffffffffff81111561561e57600080fd5b80360382131561562d57600080fd5b60606040860152613b346060860182846154cf565b60008083357fffffffffffffffffffffffffffffffffffffffffffffffffffffffffffffffe184360301811261567757600080fd5b830160208101925035905067ffffffffffffffff81111561569757600080fd5b60608102360382131561404e57600080fd5b8183526000602080850194508260005b858110156152545781356156cc816145a9565b73ffffffffffffffffffffffffffffffffffffffff16875260ff6156f18385016149bc565b168784015260408281013590880152606096870196909101906001016156b9565b600073ffffffffffffffffffffffffffffffffffffffff8086168352846020840152606060408401528335615746816145a9565b1660608301526020830135368490037fffffffffffffffffffffffffffffffffffffffffffffffffffffffffffffffa101811261578257600080fd5b60a06080840152615799610100840185830161558f565b90506157a86040850185615642565b7fffffffffffffffffffffffffffffffffffffffffffffffffffffffffffffffa0808685030160a08701526157de8483856156a9565b93506157ed6060880188615642565b93509150808685030160c0870152506158078383836156a9565b92505050608084013560e084015280915050949350505050565b600061582f614a3884614998565b80848252602080830192508560051b85013681111561584d57600080fd5b855b818110156158df57803567ffffffffffffffff808211156158705760008081fd5b8189019150604082360312156158865760008081fd5b61588e61482a565b82358281111561589e5760008081fd5b6158aa3682860161492a565b82525085830135828111156158bf5760008081fd5b6158cb36828601614c85565b82880152508752505093820193820161584f565b50919695505050505050565b600061012073ffffffffffffffffffffffffffffffffffffffff8716835280602084015261591b8184018761525f565b9050828103604084015261592f818661525f565b9150508235606083015260208301356080830152604083013560a0830152606083013560c0830152608083013560e083015260a083013561010083015295945050505050565b600082357fffffffffffffffffffffffffffffffffffffffffffffffffffffffffffffffa183360301811261504557600080fd5b600061035c368361492a565b6000606082840312156159c757600080fd5b6115e683836149cd565b73ffffffffffffffffffffffffffffffffffffffff84168152826020820152606060408201526000613b34606083018461525f565b73ffffffffffffffffffffffffffffffffffffffff85168152836020820152606060408201526000613dbc6060830184866154cf565b60006115e6368484614b53565b6020815260006115e6602083018461525f565b60008282518085526020808601955060208260051b8401016020860160005b84811015614a85577fffffffffffffffffffffffffffffffffffffffffffffffffffffffffffffffe0868403018952615ab5838351615304565b98840198925090830190600101615a7b565b73ffffffffffffffffffffffffffffffffffffffff8716815285602082015260c060408201526000615afc60c0830187614e06565b8560608401528281036080840152615b148186615a5c565b905082810360a0840152615b288185615304565b9998505050505050505050565b600082601f830112615b4657600080fd5b81516020615b56614a3883614998565b8083825260208201915060208460051b870101935086841115615b7857600080fd5b602086015b84811015615b945780518352918301918301615b7d565b509695505050505050565b60008060408385031215615bb257600080fd5b825167ffffffffffffffff80821115615bca57600080fd5b615bd686838701615b35565b93506020850151915080821115615bec57600080fd5b50615bf985828601615b35565b9150509250929050565b73ffffffffffffffffffffffffffffffffffffffff83168152604060208201526000612d126040830184615a5c565b828152604060208201526000612d126040830184615304565b6020815260006115e66020830184614e06565b7f4e487b7100000000000000000000000000000000000000000000000000000000600052601260045260246000fd5b808202811582820484141761035c5761035c61519f565b600181815b80851115615cfd57817fffffffffffffffffffffffffffffffffffffffffffffffffffffffffffffffff04821115615ce357615ce361519f565b80851615615cf057918102915b93841c9390800290615ca9565b509250929050565b600082615d145750600161035c565b81615d215750600061035c565b8160018114615d375760028114615d4157615d5d565b600191505061035c565b60ff841115615d5257615d5261519f565b50506001821b61035c565b5060208310610133831016604e8410600b8410161715615d80575081810a61035c565b615d8a8383615ca4565b807fffffffffffffffffffffffffffffffffffffffffffffffffffffffffffffffff04821115615dbc57615dbc61519f565b029392505050565b60006115e68383615d05565b7f4e487b7100000000000000000000000000000000000000000000000000000000600052602160045260246000fd5b600060208284031215615e1157600080fd5b815180151581146115e657600080fd5b60008251615045818460208701614de2565b828152604060208201526000612d126040830184614e0656fe416464726573733a206c6f772d6c6576656c2064656c65676174652063616c6c206661696c6564","linkReferences":{}},"methodIdentifiers":{"addOrder2(((address,address,bytes),(address,uint8,uint256)[],(address,uint8,uint256)[],bytes32,bytes32,bytes),((address,address,bytes),(address,uint256[],bytes)[])[])":"a616864d","clear2((address,(address,address,bytes),(address,uint8,uint256)[],(address,uint8,uint256)[],bytes32),(address,(address,address,bytes),(address,uint8,uint256)[],(address,uint8,uint256)[],bytes32),(uint256,uint256,uint256,uint256,uint256,uint256),(address,uint256[],bytes)[],(address,uint256[],bytes)[])":"a08f5dff","deposit2(address,uint256,uint256,((address,address,bytes),(address,uint256[],bytes)[])[])":"91337c0a","enact(((address,address,bytes),(address,uint256[],bytes)[])[])":"c1e4c4af","flashFee(address,uint256)":"d9d98ce4","flashLoan(address,address,uint256,bytes)":"5cffe9de","maxFlashLoan(address)":"613255ab","multicall(bytes[])":"ac9650d8","orderExists(bytes32)":"2cb77e9f","quote(((address,(address,address,bytes),(address,uint8,uint256)[],(address,uint8,uint256)[],bytes32),uint256,uint256,(address,uint256[],bytes)[]))":"e0e530b7","removeOrder2((address,(address,address,bytes),(address,uint8,uint256)[],(address,uint8,uint256)[],bytes32),((address,address,bytes),(address,uint256[],bytes)[])[])":"8d7b6beb","supportsInterface(bytes4)":"01ffc9a7","takeOrders2((uint256,uint256,uint256,((address,(address,address,bytes),(address,uint8,uint256)[],(address,uint8,uint256)[],bytes32),uint256,uint256,(address,uint256[],bytes)[])[],bytes))":"0997c4a0","vaultBalance(address,address,uint256)":"d97b2e48","withdraw2(address,uint256,uint256,((address,address,bytes),(address,uint256[],bytes)[])[])":"f513c42d"}}