{
  "abi": [
    {
      "inputs": [
        {
          "internalType": "bytes32",
          "name": "result",
          "type": "bytes32"
        }
      ],
      "name": "FlashLenderCallbackFailed",
      "type": "error"
    },
    {
      "inputs": [
        {
          "internalType": "uint256",
          "name": "i",
          "type": "uint256"
        }
      ],
      "name": "InvalidSignature",
      "type": "error"
    },
    {
      "inputs": [
        {
          "internalType": "uint256",
          "name": "minimumInput",
          "type": "uint256"
        },
        {
          "internalType": "uint256",
          "name": "input",
          "type": "uint256"
        }
      ],
      "name": "MinimumInput",
      "type": "error"
    },
    {
      "inputs": [],
      "name": "NoOrders",
      "type": "error"
    },
    {
      "inputs": [
        {
          "internalType": "address",
          "name": "sender",
          "type": "address"
        },
        {
          "internalType": "address",
          "name": "owner",
          "type": "address"
        }
      ],
      "name": "NotOrderOwner",
      "type": "error"
    },
    {
      "inputs": [
        {
          "internalType": "bytes",
          "name": "unmeta",
          "type": "bytes"
        }
      ],
      "name": "NotRainMetaV1",
      "type": "error"
    },
    {
      "inputs": [],
      "name": "OrderNoHandleIO",
      "type": "error"
    },
    {
      "inputs": [],
      "name": "OrderNoInputs",
      "type": "error"
    },
    {
      "inputs": [],
      "name": "OrderNoOutputs",
      "type": "error"
    },
    {
      "inputs": [],
      "name": "OrderNoSources",
      "type": "error"
    },
    {
      "inputs": [
        {
          "internalType": "address",
          "name": "owner",
          "type": "address"
        }
      ],
      "name": "SameOwner",
      "type": "error"
    },
    {
      "inputs": [
        {
          "internalType": "uint8",
          "name": "aliceTokenDecimals",
          "type": "uint8"
        },
        {
          "internalType": "uint8",
          "name": "bobTokenDecimals",
          "type": "uint8"
        }
      ],
      "name": "TokenDecimalsMismatch",
      "type": "error"
    },
    {
      "inputs": [
        {
          "internalType": "address",
          "name": "aliceToken",
          "type": "address"
        },
        {
          "internalType": "address",
          "name": "bobToken",
          "type": "address"
        }
      ],
      "name": "TokenMismatch",
      "type": "error"
    },
    {
      "inputs": [
        {
          "internalType": "uint256",
          "name": "outputs",
          "type": "uint256"
        }
      ],
      "name": "UnsupportedCalculateOutputs",
      "type": "error"
    },
    {
      "inputs": [
        {
          "internalType": "address",
          "name": "sender",
          "type": "address"
        },
        {
          "internalType": "address",
          "name": "token",
          "type": "address"
        },
        {
          "internalType": "uint256",
          "name": "vaultId",
          "type": "uint256"
        }
      ],
      "name": "ZeroDepositAmount",
      "type": "error"
    },
    {
      "inputs": [],
      "name": "ZeroMaximumInput",
      "type": "error"
    },
    {
      "inputs": [
        {
          "internalType": "address",
          "name": "sender",
          "type": "address"
        },
        {
          "internalType": "address",
          "name": "token",
          "type": "address"
        },
        {
          "internalType": "uint256",
          "name": "vaultId",
          "type": "uint256"
        }
      ],
      "name": "ZeroWithdrawTargetAmount",
      "type": "error"
    },
    {
      "anonymous": false,
      "inputs": [
        {
          "indexed": false,
          "internalType": "address",
          "name": "sender",
          "type": "address"
        },
        {
          "indexed": false,
          "internalType": "bytes32",
          "name": "orderHash",
          "type": "bytes32"
        },
        {
          "components": [
            {
              "internalType": "address",
              "name": "owner",
              "type": "address"
            },
            {
              "components": [
                {
                  "internalType": "contract IInterpreterV3",
                  "name": "interpreter",
                  "type": "address"
                },
                {
                  "internalType": "contract IInterpreterStoreV2",
                  "name": "store",
                  "type": "address"
                },
                {
                  "internalType": "bytes",
                  "name": "bytecode",
                  "type": "bytes"
                }
              ],
              "internalType": "struct EvaluableV3",
              "name": "evaluable",
              "type": "tuple"
            },
            {
              "components": [
                {
                  "internalType": "address",
                  "name": "token",
                  "type": "address"
                },
                {
                  "internalType": "uint8",
                  "name": "decimals",
                  "type": "uint8"
                },
                {
                  "internalType": "uint256",
                  "name": "vaultId",
                  "type": "uint256"
                }
              ],
              "internalType": "struct IO[]",
              "name": "validInputs",
              "type": "tuple[]"
            },
            {
              "components": [
                {
                  "internalType": "address",
                  "name": "token",
                  "type": "address"
                },
                {
                  "internalType": "uint8",
                  "name": "decimals",
                  "type": "uint8"
                },
                {
                  "internalType": "uint256",
                  "name": "vaultId",
                  "type": "uint256"
                }
              ],
              "internalType": "struct IO[]",
              "name": "validOutputs",
              "type": "tuple[]"
            },
            {
              "internalType": "bytes32",
              "name": "nonce",
              "type": "bytes32"
            }
          ],
          "indexed": false,
          "internalType": "struct OrderV3",
          "name": "order",
          "type": "tuple"
        }
      ],
      "name": "AddOrderV2",
      "type": "event"
    },
    {
      "anonymous": false,
      "inputs": [
        {
          "indexed": false,
          "internalType": "address",
          "name": "sender",
          "type": "address"
        },
        {
          "components": [
            {
              "internalType": "uint256",
              "name": "aliceOutput",
              "type": "uint256"
            },
            {
              "internalType": "uint256",
              "name": "bobOutput",
              "type": "uint256"
            },
            {
              "internalType": "uint256",
              "name": "aliceInput",
              "type": "uint256"
            },
            {
              "internalType": "uint256",
              "name": "bobInput",
              "type": "uint256"
            }
          ],
          "indexed": false,
          "internalType": "struct ClearStateChange",
          "name": "clearStateChange",
          "type": "tuple"
        }
      ],
      "name": "AfterClear",
      "type": "event"
    },
    {
      "anonymous": false,
      "inputs": [
        {
          "indexed": false,
          "internalType": "address",
          "name": "sender",
          "type": "address"
        },
        {
          "components": [
            {
              "internalType": "address",
              "name": "owner",
              "type": "address"
            },
            {
              "components": [
                {
                  "internalType": "contract IInterpreterV3",
                  "name": "interpreter",
                  "type": "address"
                },
                {
                  "internalType": "contract IInterpreterStoreV2",
                  "name": "store",
                  "type": "address"
                },
                {
                  "internalType": "bytes",
                  "name": "bytecode",
                  "type": "bytes"
                }
              ],
              "internalType": "struct EvaluableV3",
              "name": "evaluable",
              "type": "tuple"
            },
            {
              "components": [
                {
                  "internalType": "address",
                  "name": "token",
                  "type": "address"
                },
                {
                  "internalType": "uint8",
                  "name": "decimals",
                  "type": "uint8"
                },
                {
                  "internalType": "uint256",
                  "name": "vaultId",
                  "type": "uint256"
                }
              ],
              "internalType": "struct IO[]",
              "name": "validInputs",
              "type": "tuple[]"
            },
            {
              "components": [
                {
                  "internalType": "address",
                  "name": "token",
                  "type": "address"
                },
                {
                  "internalType": "uint8",
                  "name": "decimals",
                  "type": "uint8"
                },
                {
                  "internalType": "uint256",
                  "name": "vaultId",
                  "type": "uint256"
                }
              ],
              "internalType": "struct IO[]",
              "name": "validOutputs",
              "type": "tuple[]"
            },
            {
              "internalType": "bytes32",
              "name": "nonce",
              "type": "bytes32"
            }
          ],
          "indexed": false,
          "internalType": "struct OrderV3",
          "name": "alice",
          "type": "tuple"
        },
        {
          "components": [
            {
              "internalType": "address",
              "name": "owner",
              "type": "address"
            },
            {
              "components": [
                {
                  "internalType": "contract IInterpreterV3",
                  "name": "interpreter",
                  "type": "address"
                },
                {
                  "internalType": "contract IInterpreterStoreV2",
                  "name": "store",
                  "type": "address"
                },
                {
                  "internalType": "bytes",
                  "name": "bytecode",
                  "type": "bytes"
                }
              ],
              "internalType": "struct EvaluableV3",
              "name": "evaluable",
              "type": "tuple"
            },
            {
              "components": [
                {
                  "internalType": "address",
                  "name": "token",
                  "type": "address"
                },
                {
                  "internalType": "uint8",
                  "name": "decimals",
                  "type": "uint8"
                },
                {
                  "internalType": "uint256",
                  "name": "vaultId",
                  "type": "uint256"
                }
              ],
              "internalType": "struct IO[]",
              "name": "validInputs",
              "type": "tuple[]"
            },
            {
              "components": [
                {
                  "internalType": "address",
                  "name": "token",
                  "type": "address"
                },
                {
                  "internalType": "uint8",
                  "name": "decimals",
                  "type": "uint8"
                },
                {
                  "internalType": "uint256",
                  "name": "vaultId",
                  "type": "uint256"
                }
              ],
              "internalType": "struct IO[]",
              "name": "validOutputs",
              "type": "tuple[]"
            },
            {
              "internalType": "bytes32",
              "name": "nonce",
              "type": "bytes32"
            }
          ],
          "indexed": false,
          "internalType": "struct OrderV3",
          "name": "bob",
          "type": "tuple"
        },
        {
          "components": [
            {
              "internalType": "uint256",
              "name": "aliceInputIOIndex",
              "type": "uint256"
            },
            {
              "internalType": "uint256",
              "name": "aliceOutputIOIndex",
              "type": "uint256"
            },
            {
              "internalType": "uint256",
              "name": "bobInputIOIndex",
              "type": "uint256"
            },
            {
              "internalType": "uint256",
              "name": "bobOutputIOIndex",
              "type": "uint256"
            },
            {
              "internalType": "uint256",
              "name": "aliceBountyVaultId",
              "type": "uint256"
            },
            {
              "internalType": "uint256",
              "name": "bobBountyVaultId",
              "type": "uint256"
            }
          ],
          "indexed": false,
          "internalType": "struct ClearConfig",
          "name": "clearConfig",
          "type": "tuple"
        }
      ],
      "name": "ClearV2",
      "type": "event"
    },
    {
      "anonymous": false,
      "inputs": [
        {
          "indexed": false,
          "internalType": "address",
          "name": "sender",
          "type": "address"
        },
        {
          "indexed": false,
          "internalType": "uint256[][]",
          "name": "context",
          "type": "uint256[][]"
        }
      ],
      "name": "Context",
      "type": "event"
    },
    {
      "anonymous": false,
      "inputs": [
        {
          "indexed": false,
          "internalType": "address",
          "name": "sender",
          "type": "address"
        },
        {
          "indexed": false,
          "internalType": "address",
          "name": "token",
          "type": "address"
        },
        {
          "indexed": false,
          "internalType": "uint256",
          "name": "vaultId",
          "type": "uint256"
        },
        {
          "indexed": false,
          "internalType": "uint256",
          "name": "amount",
          "type": "uint256"
        }
      ],
      "name": "Deposit",
      "type": "event"
    },
    {
      "anonymous": false,
      "inputs": [
        {
          "indexed": false,
          "internalType": "address",
          "name": "sender",
          "type": "address"
        },
        {
          "indexed": false,
          "internalType": "uint256",
          "name": "subject",
          "type": "uint256"
        },
        {
          "indexed": false,
          "internalType": "bytes",
          "name": "meta",
          "type": "bytes"
        }
      ],
      "name": "MetaV1",
      "type": "event"
    },
    {
      "anonymous": false,
      "inputs": [
        {
          "indexed": false,
          "internalType": "address",
          "name": "sender",
          "type": "address"
        },
        {
          "indexed": false,
          "internalType": "address",
          "name": "owner",
          "type": "address"
        },
        {
          "indexed": false,
          "internalType": "bytes32",
          "name": "orderHash",
          "type": "bytes32"
        }
      ],
      "name": "OrderExceedsMaxRatio",
      "type": "event"
    },
    {
      "anonymous": false,
      "inputs": [
        {
          "indexed": false,
          "internalType": "address",
          "name": "sender",
          "type": "address"
        },
        {
          "indexed": false,
          "internalType": "address",
          "name": "owner",
          "type": "address"
        },
        {
          "indexed": false,
          "internalType": "bytes32",
          "name": "orderHash",
          "type": "bytes32"
        }
      ],
      "name": "OrderNotFound",
      "type": "event"
    },
    {
      "anonymous": false,
      "inputs": [
        {
          "indexed": false,
          "internalType": "address",
          "name": "sender",
          "type": "address"
        },
        {
          "indexed": false,
          "internalType": "address",
          "name": "owner",
          "type": "address"
        },
        {
          "indexed": false,
          "internalType": "bytes32",
          "name": "orderHash",
          "type": "bytes32"
        }
      ],
      "name": "OrderZeroAmount",
      "type": "event"
    },
    {
      "anonymous": false,
      "inputs": [
        {
          "indexed": false,
          "internalType": "address",
          "name": "sender",
          "type": "address"
        },
        {
          "indexed": false,
          "internalType": "bytes32",
          "name": "orderHash",
          "type": "bytes32"
        },
        {
          "components": [
            {
              "internalType": "address",
              "name": "owner",
              "type": "address"
            },
            {
              "components": [
                {
                  "internalType": "contract IInterpreterV3",
                  "name": "interpreter",
                  "type": "address"
                },
                {
                  "internalType": "contract IInterpreterStoreV2",
                  "name": "store",
                  "type": "address"
                },
                {
                  "internalType": "bytes",
                  "name": "bytecode",
                  "type": "bytes"
                }
              ],
              "internalType": "struct EvaluableV3",
              "name": "evaluable",
              "type": "tuple"
            },
            {
              "components": [
                {
                  "internalType": "address",
                  "name": "token",
                  "type": "address"
                },
                {
                  "internalType": "uint8",
                  "name": "decimals",
                  "type": "uint8"
                },
                {
                  "internalType": "uint256",
                  "name": "vaultId",
                  "type": "uint256"
                }
              ],
              "internalType": "struct IO[]",
              "name": "validInputs",
              "type": "tuple[]"
            },
            {
              "components": [
                {
                  "internalType": "address",
                  "name": "token",
                  "type": "address"
                },
                {
                  "internalType": "uint8",
                  "name": "decimals",
                  "type": "uint8"
                },
                {
                  "internalType": "uint256",
                  "name": "vaultId",
                  "type": "uint256"
                }
              ],
              "internalType": "struct IO[]",
              "name": "validOutputs",
              "type": "tuple[]"
            },
            {
              "internalType": "bytes32",
              "name": "nonce",
              "type": "bytes32"
            }
          ],
          "indexed": false,
          "internalType": "struct OrderV3",
          "name": "order",
          "type": "tuple"
        }
      ],
      "name": "RemoveOrderV2",
      "type": "event"
    },
    {
      "anonymous": false,
      "inputs": [
        {
          "indexed": false,
          "internalType": "address",
          "name": "sender",
          "type": "address"
        },
        {
          "components": [
            {
              "components": [
                {
                  "internalType": "address",
                  "name": "owner",
                  "type": "address"
                },
                {
                  "components": [
                    {
                      "internalType": "contract IInterpreterV3",
                      "name": "interpreter",
                      "type": "address"
                    },
                    {
                      "internalType": "contract IInterpreterStoreV2",
                      "name": "store",
                      "type": "address"
                    },
                    {
                      "internalType": "bytes",
                      "name": "bytecode",
                      "type": "bytes"
                    }
                  ],
                  "internalType": "struct EvaluableV3",
                  "name": "evaluable",
                  "type": "tuple"
                },
                {
                  "components": [
                    {
                      "internalType": "address",
                      "name": "token",
                      "type": "address"
                    },
                    {
                      "internalType": "uint8",
                      "name": "decimals",
                      "type": "uint8"
                    },
                    {
                      "internalType": "uint256",
                      "name": "vaultId",
                      "type": "uint256"
                    }
                  ],
                  "internalType": "struct IO[]",
                  "name": "validInputs",
                  "type": "tuple[]"
                },
                {
                  "components": [
                    {
                      "internalType": "address",
                      "name": "token",
                      "type": "address"
                    },
                    {
                      "internalType": "uint8",
                      "name": "decimals",
                      "type": "uint8"
                    },
                    {
                      "internalType": "uint256",
                      "name": "vaultId",
                      "type": "uint256"
                    }
                  ],
                  "internalType": "struct IO[]",
                  "name": "validOutputs",
                  "type": "tuple[]"
                },
                {
                  "internalType": "bytes32",
                  "name": "nonce",
                  "type": "bytes32"
                }
              ],
              "internalType": "struct OrderV3",
              "name": "order",
              "type": "tuple"
            },
            {
              "internalType": "uint256",
              "name": "inputIOIndex",
              "type": "uint256"
            },
            {
              "internalType": "uint256",
              "name": "outputIOIndex",
              "type": "uint256"
            },
            {
              "components": [
                {
                  "internalType": "address",
                  "name": "signer",
                  "type": "address"
                },
                {
                  "internalType": "uint256[]",
                  "name": "context",
                  "type": "uint256[]"
                },
                {
                  "internalType": "bytes",
                  "name": "signature",
                  "type": "bytes"
                }
              ],
              "internalType": "struct SignedContextV1[]",
              "name": "signedContext",
              "type": "tuple[]"
            }
          ],
          "indexed": false,
          "internalType": "struct TakeOrderConfigV3",
          "name": "config",
          "type": "tuple"
        },
        {
          "indexed": false,
          "internalType": "uint256",
          "name": "input",
          "type": "uint256"
        },
        {
          "indexed": false,
          "internalType": "uint256",
          "name": "output",
          "type": "uint256"
        }
      ],
      "name": "TakeOrderV2",
      "type": "event"
    },
    {
      "anonymous": false,
      "inputs": [
        {
          "indexed": false,
          "internalType": "address",
          "name": "sender",
          "type": "address"
        },
        {
          "indexed": false,
          "internalType": "address",
          "name": "token",
          "type": "address"
        },
        {
          "indexed": false,
          "internalType": "uint256",
          "name": "vaultId",
          "type": "uint256"
        },
        {
          "indexed": false,
          "internalType": "uint256",
          "name": "targetAmount",
          "type": "uint256"
        },
        {
          "indexed": false,
          "internalType": "uint256",
          "name": "amount",
          "type": "uint256"
        }
      ],
      "name": "Withdraw",
      "type": "event"
    },
    {
      "inputs": [
        {
          "components": [
            {
              "components": [
                {
                  "internalType": "contract IInterpreterV3",
                  "name": "interpreter",
                  "type": "address"
                },
                {
                  "internalType": "contract IInterpreterStoreV2",
                  "name": "store",
                  "type": "address"
                },
                {
                  "internalType": "bytes",
                  "name": "bytecode",
                  "type": "bytes"
                }
              ],
              "internalType": "struct EvaluableV3",
              "name": "evaluable",
              "type": "tuple"
            },
            {
              "components": [
                {
                  "internalType": "address",
                  "name": "token",
                  "type": "address"
                },
                {
                  "internalType": "uint8",
                  "name": "decimals",
                  "type": "uint8"
                },
                {
                  "internalType": "uint256",
                  "name": "vaultId",
                  "type": "uint256"
                }
              ],
              "internalType": "struct IO[]",
              "name": "validInputs",
              "type": "tuple[]"
            },
            {
              "components": [
                {
                  "internalType": "address",
                  "name": "token",
                  "type": "address"
                },
                {
                  "internalType": "uint8",
                  "name": "decimals",
                  "type": "uint8"
                },
                {
                  "internalType": "uint256",
                  "name": "vaultId",
                  "type": "uint256"
                }
              ],
              "internalType": "struct IO[]",
              "name": "validOutputs",
              "type": "tuple[]"
            },
            {
              "internalType": "bytes32",
              "name": "nonce",
              "type": "bytes32"
            },
            {
              "internalType": "bytes32",
              "name": "secret",
              "type": "bytes32"
            },
            {
              "internalType": "bytes",
              "name": "meta",
              "type": "bytes"
            }
          ],
          "internalType": "struct OrderConfigV3",
          "name": "orderConfig",
          "type": "tuple"
        },
        {
          "components": [
            {
              "components": [
                {
                  "internalType": "contract IInterpreterV3",
                  "name": "interpreter",
                  "type": "address"
                },
                {
                  "internalType": "contract IInterpreterStoreV2",
                  "name": "store",
                  "type": "address"
                },
                {
                  "internalType": "bytes",
                  "name": "bytecode",
                  "type": "bytes"
                }
              ],
              "internalType": "struct EvaluableV3",
              "name": "evaluable",
              "type": "tuple"
            },
            {
              "components": [
                {
                  "internalType": "address",
                  "name": "signer",
                  "type": "address"
                },
                {
                  "internalType": "uint256[]",
                  "name": "context",
                  "type": "uint256[]"
                },
                {
                  "internalType": "bytes",
                  "name": "signature",
                  "type": "bytes"
                }
              ],
              "internalType": "struct SignedContextV1[]",
              "name": "signedContext",
              "type": "tuple[]"
            }
          ],
          "internalType": "struct ActionV1[]",
          "name": "post",
          "type": "tuple[]"
        }
      ],
      "name": "addOrder2",
      "outputs": [
        {
          "internalType": "bool",
          "name": "",
          "type": "bool"
        }
      ],
      "stateMutability": "nonpayable",
      "type": "function"
    },
    {
      "inputs": [
        {
          "components": [
            {
              "internalType": "address",
              "name": "owner",
              "type": "address"
            },
            {
              "components": [
                {
                  "internalType": "contract IInterpreterV3",
                  "name": "interpreter",
                  "type": "address"
                },
                {
                  "internalType": "contract IInterpreterStoreV2",
                  "name": "store",
                  "type": "address"
                },
                {
                  "internalType": "bytes",
                  "name": "bytecode",
                  "type": "bytes"
                }
              ],
              "internalType": "struct EvaluableV3",
              "name": "evaluable",
              "type": "tuple"
            },
            {
              "components": [
                {
                  "internalType": "address",
                  "name": "token",
                  "type": "address"
                },
                {
                  "internalType": "uint8",
                  "name": "decimals",
                  "type": "uint8"
                },
                {
                  "internalType": "uint256",
                  "name": "vaultId",
                  "type": "uint256"
                }
              ],
              "internalType": "struct IO[]",
              "name": "validInputs",
              "type": "tuple[]"
            },
            {
              "components": [
                {
                  "internalType": "address",
                  "name": "token",
                  "type": "address"
                },
                {
                  "internalType": "uint8",
                  "name": "decimals",
                  "type": "uint8"
                },
                {
                  "internalType": "uint256",
                  "name": "vaultId",
                  "type": "uint256"
                }
              ],
              "internalType": "struct IO[]",
              "name": "validOutputs",
              "type": "tuple[]"
            },
            {
              "internalType": "bytes32",
              "name": "nonce",
              "type": "bytes32"
            }
          ],
          "internalType": "struct OrderV3",
          "name": "aliceOrder",
          "type": "tuple"
        },
        {
          "components": [
            {
              "internalType": "address",
              "name": "owner",
              "type": "address"
            },
            {
              "components": [
                {
                  "internalType": "contract IInterpreterV3",
                  "name": "interpreter",
                  "type": "address"
                },
                {
                  "internalType": "contract IInterpreterStoreV2",
                  "name": "store",
                  "type": "address"
                },
                {
                  "internalType": "bytes",
                  "name": "bytecode",
                  "type": "bytes"
                }
              ],
              "internalType": "struct EvaluableV3",
              "name": "evaluable",
              "type": "tuple"
            },
            {
              "components": [
                {
                  "internalType": "address",
                  "name": "token",
                  "type": "address"
                },
                {
                  "internalType": "uint8",
                  "name": "decimals",
                  "type": "uint8"
                },
                {
                  "internalType": "uint256",
                  "name": "vaultId",
                  "type": "uint256"
                }
              ],
              "internalType": "struct IO[]",
              "name": "validInputs",
              "type": "tuple[]"
            },
            {
              "components": [
                {
                  "internalType": "address",
                  "name": "token",
                  "type": "address"
                },
                {
                  "internalType": "uint8",
                  "name": "decimals",
                  "type": "uint8"
                },
                {
                  "internalType": "uint256",
                  "name": "vaultId",
                  "type": "uint256"
                }
              ],
              "internalType": "struct IO[]",
              "name": "validOutputs",
              "type": "tuple[]"
            },
            {
              "internalType": "bytes32",
              "name": "nonce",
              "type": "bytes32"
            }
          ],
          "internalType": "struct OrderV3",
          "name": "bobOrder",
          "type": "tuple"
        },
        {
          "components": [
            {
              "internalType": "uint256",
              "name": "aliceInputIOIndex",
              "type": "uint256"
            },
            {
              "internalType": "uint256",
              "name": "aliceOutputIOIndex",
              "type": "uint256"
            },
            {
              "internalType": "uint256",
              "name": "bobInputIOIndex",
              "type": "uint256"
            },
            {
              "internalType": "uint256",
              "name": "bobOutputIOIndex",
              "type": "uint256"
            },
            {
              "internalType": "uint256",
              "name": "aliceBountyVaultId",
              "type": "uint256"
            },
            {
              "internalType": "uint256",
              "name": "bobBountyVaultId",
              "type": "uint256"
            }
          ],
          "internalType": "struct ClearConfig",
          "name": "clearConfig",
          "type": "tuple"
        },
        {
          "components": [
            {
              "internalType": "address",
              "name": "signer",
              "type": "address"
            },
            {
              "internalType": "uint256[]",
              "name": "context",
              "type": "uint256[]"
            },
            {
              "internalType": "bytes",
              "name": "signature",
              "type": "bytes"
            }
          ],
          "internalType": "struct SignedContextV1[]",
          "name": "aliceSignedContext",
          "type": "tuple[]"
        },
        {
          "components": [
            {
              "internalType": "address",
              "name": "signer",
              "type": "address"
            },
            {
              "internalType": "uint256[]",
              "name": "context",
              "type": "uint256[]"
            },
            {
              "internalType": "bytes",
              "name": "signature",
              "type": "bytes"
            }
          ],
          "internalType": "struct SignedContextV1[]",
          "name": "bobSignedContext",
          "type": "tuple[]"
        }
      ],
      "name": "clear2",
      "outputs": [],
      "stateMutability": "nonpayable",
      "type": "function"
    },
    {
      "inputs": [
        {
          "internalType": "address",
          "name": "token",
          "type": "address"
        },
        {
          "internalType": "uint256",
          "name": "vaultId",
          "type": "uint256"
        },
        {
          "internalType": "uint256",
          "name": "amount",
          "type": "uint256"
        },
        {
          "components": [
            {
              "components": [
                {
                  "internalType": "contract IInterpreterV3",
                  "name": "interpreter",
                  "type": "address"
                },
                {
                  "internalType": "contract IInterpreterStoreV2",
                  "name": "store",
                  "type": "address"
                },
                {
                  "internalType": "bytes",
                  "name": "bytecode",
                  "type": "bytes"
                }
              ],
              "internalType": "struct EvaluableV3",
              "name": "evaluable",
              "type": "tuple"
            },
            {
              "components": [
                {
                  "internalType": "address",
                  "name": "signer",
                  "type": "address"
                },
                {
                  "internalType": "uint256[]",
                  "name": "context",
                  "type": "uint256[]"
                },
                {
                  "internalType": "bytes",
                  "name": "signature",
                  "type": "bytes"
                }
              ],
              "internalType": "struct SignedContextV1[]",
              "name": "signedContext",
              "type": "tuple[]"
            }
          ],
          "internalType": "struct ActionV1[]",
          "name": "post",
          "type": "tuple[]"
        }
      ],
      "name": "deposit2",
      "outputs": [],
      "stateMutability": "nonpayable",
      "type": "function"
    },
    {
      "inputs": [
        {
          "components": [
            {
              "components": [
                {
                  "internalType": "contract IInterpreterV3",
                  "name": "interpreter",
                  "type": "address"
                },
                {
                  "internalType": "contract IInterpreterStoreV2",
                  "name": "store",
                  "type": "address"
                },
                {
                  "internalType": "bytes",
                  "name": "bytecode",
                  "type": "bytes"
                }
              ],
              "internalType": "struct EvaluableV3",
              "name": "evaluable",
              "type": "tuple"
            },
            {
              "components": [
                {
                  "internalType": "address",
                  "name": "signer",
                  "type": "address"
                },
                {
                  "internalType": "uint256[]",
                  "name": "context",
                  "type": "uint256[]"
                },
                {
                  "internalType": "bytes",
                  "name": "signature",
                  "type": "bytes"
                }
              ],
              "internalType": "struct SignedContextV1[]",
              "name": "signedContext",
              "type": "tuple[]"
            }
          ],
          "internalType": "struct ActionV1[]",
          "name": "post",
          "type": "tuple[]"
        }
      ],
      "name": "enact",
      "outputs": [],
      "stateMutability": "nonpayable",
      "type": "function"
    },
    {
      "inputs": [
        {
          "internalType": "address",
          "name": "",
          "type": "address"
        },
        {
          "internalType": "uint256",
          "name": "",
          "type": "uint256"
        }
      ],
      "name": "flashFee",
      "outputs": [
        {
          "internalType": "uint256",
          "name": "",
          "type": "uint256"
        }
      ],
      "stateMutability": "pure",
      "type": "function"
    },
    {
      "inputs": [
        {
          "internalType": "contract IERC3156FlashBorrower",
          "name": "receiver",
          "type": "address"
        },
        {
          "internalType": "address",
          "name": "token",
          "type": "address"
        },
        {
          "internalType": "uint256",
          "name": "amount",
          "type": "uint256"
        },
        {
          "internalType": "bytes",
          "name": "data",
          "type": "bytes"
        }
      ],
      "name": "flashLoan",
      "outputs": [
        {
          "internalType": "bool",
          "name": "",
          "type": "bool"
        }
      ],
      "stateMutability": "nonpayable",
      "type": "function"
    },
    {
      "inputs": [
        {
          "internalType": "address",
          "name": "token",
          "type": "address"
        }
      ],
      "name": "maxFlashLoan",
      "outputs": [
        {
          "internalType": "uint256",
          "name": "",
          "type": "uint256"
        }
      ],
      "stateMutability": "view",
      "type": "function"
    },
    {
      "inputs": [
        {
          "internalType": "bytes[]",
          "name": "data",
          "type": "bytes[]"
        }
      ],
      "name": "multicall",
      "outputs": [
        {
          "internalType": "bytes[]",
          "name": "results",
          "type": "bytes[]"
        }
      ],
      "stateMutability": "nonpayable",
      "type": "function"
    },
    {
      "inputs": [
        {
          "internalType": "bytes32",
          "name": "orderHash",
          "type": "bytes32"
        }
      ],
      "name": "orderExists",
      "outputs": [
        {
          "internalType": "bool",
          "name": "",
          "type": "bool"
        }
      ],
      "stateMutability": "view",
      "type": "function"
    },
    {
      "inputs": [
        {
          "components": [
            {
              "internalType": "address",
              "name": "owner",
              "type": "address"
            },
            {
              "components": [
                {
                  "internalType": "contract IInterpreterV3",
                  "name": "interpreter",
                  "type": "address"
                },
                {
                  "internalType": "contract IInterpreterStoreV2",
                  "name": "store",
                  "type": "address"
                },
                {
                  "internalType": "bytes",
                  "name": "bytecode",
                  "type": "bytes"
                }
              ],
              "internalType": "struct EvaluableV3",
              "name": "evaluable",
              "type": "tuple"
            },
            {
              "components": [
                {
                  "internalType": "address",
                  "name": "token",
                  "type": "address"
                },
                {
                  "internalType": "uint8",
                  "name": "decimals",
                  "type": "uint8"
                },
                {
                  "internalType": "uint256",
                  "name": "vaultId",
                  "type": "uint256"
                }
              ],
              "internalType": "struct IO[]",
              "name": "validInputs",
              "type": "tuple[]"
            },
            {
              "components": [
                {
                  "internalType": "address",
                  "name": "token",
                  "type": "address"
                },
                {
                  "internalType": "uint8",
                  "name": "decimals",
                  "type": "uint8"
                },
                {
                  "internalType": "uint256",
                  "name": "vaultId",
                  "type": "uint256"
                }
              ],
              "internalType": "struct IO[]",
              "name": "validOutputs",
              "type": "tuple[]"
            },
            {
              "internalType": "bytes32",
              "name": "nonce",
              "type": "bytes32"
            }
          ],
          "internalType": "struct OrderV3",
          "name": "order",
          "type": "tuple"
        },
        {
          "components": [
            {
              "components": [
                {
                  "internalType": "contract IInterpreterV3",
                  "name": "interpreter",
                  "type": "address"
                },
                {
                  "internalType": "contract IInterpreterStoreV2",
                  "name": "store",
                  "type": "address"
                },
                {
                  "internalType": "bytes",
                  "name": "bytecode",
                  "type": "bytes"
                }
              ],
              "internalType": "struct EvaluableV3",
              "name": "evaluable",
              "type": "tuple"
            },
            {
              "components": [
                {
                  "internalType": "address",
                  "name": "signer",
                  "type": "address"
                },
                {
                  "internalType": "uint256[]",
                  "name": "context",
                  "type": "uint256[]"
                },
                {
                  "internalType": "bytes",
                  "name": "signature",
                  "type": "bytes"
                }
              ],
              "internalType": "struct SignedContextV1[]",
              "name": "signedContext",
              "type": "tuple[]"
            }
          ],
          "internalType": "struct ActionV1[]",
          "name": "post",
          "type": "tuple[]"
        }
      ],
      "name": "removeOrder2",
      "outputs": [
        {
          "internalType": "bool",
          "name": "stateChanged",
          "type": "bool"
        }
      ],
      "stateMutability": "nonpayable",
      "type": "function"
    },
    {
      "inputs": [
        {
          "internalType": "bytes4",
          "name": "interfaceId",
          "type": "bytes4"
        }
      ],
      "name": "supportsInterface",
      "outputs": [
        {
          "internalType": "bool",
          "name": "",
          "type": "bool"
        }
      ],
      "stateMutability": "view",
      "type": "function"
    },
    {
      "inputs": [
        {
          "components": [
            {
              "internalType": "uint256",
              "name": "minimumInput",
              "type": "uint256"
            },
            {
              "internalType": "uint256",
              "name": "maximumInput",
              "type": "uint256"
            },
            {
              "internalType": "uint256",
              "name": "maximumIORatio",
              "type": "uint256"
            },
            {
              "components": [
                {
                  "components": [
                    {
                      "internalType": "address",
                      "name": "owner",
                      "type": "address"
                    },
                    {
                      "components": [
                        {
                          "internalType": "contract IInterpreterV3",
                          "name": "interpreter",
                          "type": "address"
                        },
                        {
                          "internalType": "contract IInterpreterStoreV2",
                          "name": "store",
                          "type": "address"
                        },
                        {
                          "internalType": "bytes",
                          "name": "bytecode",
                          "type": "bytes"
                        }
                      ],
                      "internalType": "struct EvaluableV3",
                      "name": "evaluable",
                      "type": "tuple"
                    },
                    {
                      "components": [
                        {
                          "internalType": "address",
                          "name": "token",
                          "type": "address"
                        },
                        {
                          "internalType": "uint8",
                          "name": "decimals",
                          "type": "uint8"
                        },
                        {
                          "internalType": "uint256",
                          "name": "vaultId",
                          "type": "uint256"
                        }
                      ],
                      "internalType": "struct IO[]",
                      "name": "validInputs",
                      "type": "tuple[]"
                    },
                    {
                      "components": [
                        {
                          "internalType": "address",
                          "name": "token",
                          "type": "address"
                        },
                        {
                          "internalType": "uint8",
                          "name": "decimals",
                          "type": "uint8"
                        },
                        {
                          "internalType": "uint256",
                          "name": "vaultId",
                          "type": "uint256"
                        }
                      ],
                      "internalType": "struct IO[]",
                      "name": "validOutputs",
                      "type": "tuple[]"
                    },
                    {
                      "internalType": "bytes32",
                      "name": "nonce",
                      "type": "bytes32"
                    }
                  ],
                  "internalType": "struct OrderV3",
                  "name": "order",
                  "type": "tuple"
                },
                {
                  "internalType": "uint256",
                  "name": "inputIOIndex",
                  "type": "uint256"
                },
                {
                  "internalType": "uint256",
                  "name": "outputIOIndex",
                  "type": "uint256"
                },
                {
                  "components": [
                    {
                      "internalType": "address",
                      "name": "signer",
                      "type": "address"
                    },
                    {
                      "internalType": "uint256[]",
                      "name": "context",
                      "type": "uint256[]"
                    },
                    {
                      "internalType": "bytes",
                      "name": "signature",
                      "type": "bytes"
                    }
                  ],
                  "internalType": "struct SignedContextV1[]",
                  "name": "signedContext",
                  "type": "tuple[]"
                }
              ],
              "internalType": "struct TakeOrderConfigV3[]",
              "name": "orders",
              "type": "tuple[]"
            },
            {
              "internalType": "bytes",
              "name": "data",
              "type": "bytes"
            }
          ],
          "internalType": "struct TakeOrdersConfigV3",
          "name": "config",
          "type": "tuple"
        }
      ],
      "name": "takeOrders2",
      "outputs": [
        {
          "internalType": "uint256",
          "name": "totalTakerInput",
          "type": "uint256"
        },
        {
          "internalType": "uint256",
          "name": "totalTakerOutput",
          "type": "uint256"
        }
      ],
      "stateMutability": "nonpayable",
      "type": "function"
    },
    {
      "inputs": [
        {
          "internalType": "address",
          "name": "owner",
          "type": "address"
        },
        {
          "internalType": "address",
          "name": "token",
          "type": "address"
        },
        {
          "internalType": "uint256",
          "name": "vaultId",
          "type": "uint256"
        }
      ],
      "name": "vaultBalance",
      "outputs": [
        {
          "internalType": "uint256",
          "name": "",
          "type": "uint256"
        }
      ],
      "stateMutability": "view",
      "type": "function"
    },
    {
      "inputs": [
        {
          "internalType": "address",
          "name": "token",
          "type": "address"
        },
        {
          "internalType": "uint256",
          "name": "vaultId",
          "type": "uint256"
        },
        {
          "internalType": "uint256",
          "name": "targetAmount",
          "type": "uint256"
        },
        {
          "components": [
            {
              "components": [
                {
                  "internalType": "contract IInterpreterV3",
                  "name": "interpreter",
                  "type": "address"
                },
                {
                  "internalType": "contract IInterpreterStoreV2",
                  "name": "store",
                  "type": "address"
                },
                {
                  "internalType": "bytes",
                  "name": "bytecode",
                  "type": "bytes"
                }
              ],
              "internalType": "struct EvaluableV3",
              "name": "evaluable",
              "type": "tuple"
            },
            {
              "components": [
                {
                  "internalType": "address",
                  "name": "signer",
                  "type": "address"
                },
                {
                  "internalType": "uint256[]",
                  "name": "context",
                  "type": "uint256[]"
                },
                {
                  "internalType": "bytes",
                  "name": "signature",
                  "type": "bytes"
                }
              ],
              "internalType": "struct SignedContextV1[]",
              "name": "signedContext",
              "type": "tuple[]"
            }
          ],
          "internalType": "struct ActionV1[]",
          "name": "post",
          "type": "tuple[]"
        }
      ],
      "name": "withdraw2",
      "outputs": [],
      "stateMutability": "nonpayable",
      "type": "function"
    }
  ],
  "bytecode": {
    "object": "0x6080604052348015600f57600080fd5b506001600055615d62806100246000396000f3fe608060405234801561001057600080fd5b50600436106100ea5760003560e01c8063a08f5dff1161008c578063c1e4c4af11610066578063c1e4c4af14610205578063d97b2e4814610218578063d9d98ce414610265578063f513c42d1461027b57600080fd5b8063a08f5dff146101bf578063a616864d146101d2578063ac9650d8146101e557600080fd5b80635cffe9de116100c85780635cffe9de14610163578063613255ab146101765780638d7b6beb1461019757806391337c0a146101aa57600080fd5b806301ffc9a7146100ef5780630997c4a0146101175780632cb77e9f1461013f575b600080fd5b6101026100fd366004614424565b61028e565b60405190151581526020015b60405180910390f35b61012a61012536600461447e565b610327565b6040805192835260208301919091520161010e565b61010261014d3660046144b3565b6000908152600160208190526040909120541490565b6101026101713660046144fe565b611220565b61018961018436600461459d565b61137f565b60405190815260200161010e565b6101026101a53660046145ff565b611410565b6101bd6101b8366004614668565b6115b2565b005b6101bd6101cd366004614be6565b61173b565b6101026101e0366004614ca8565b611e7b565b6101f86101f3366004614ce1565b61217b565b60405161010e9190614d91565b6101bd610213366004614ce1565b612265565b610189610226366004614e13565b73ffffffffffffffffffffffffffffffffffffffff92831660009081526002602090815260408083209490951682529283528381209181529152205490565b610189610273366004614e54565b600092915050565b6101bd610289366004614668565b612285565b60007fffffffff0000000000000000000000000000000000000000000000000000000082167fe414309100000000000000000000000000000000000000000000000000000000148061032157507f01ffc9a7000000000000000000000000000000000000000000000000000000007fffffffff000000000000000000000000000000000000000000000000000000008316145b92915050565b600080610332612401565b61033f6060840184614e80565b905060000361037a576040517f9c95219f00000000000000000000000000000000000000000000000000000000815260040160405180910390fd5b610382614321565b61038a61434f565b6060600061039a87830188614e80565b60408051602060019390930183028101909152935088013591505060008190036103f0576040517fc2ee700900000000000000000000000000000000000000000000000000000000815260040160405180910390fd5b60005b6104006060890189614e80565b9050811080156104105750600082115b15610e2a576104226060890189614e80565b8281811061043257610432614ee8565b90506020028101906104449190614f17565b61044d90614f55565b805190955093506104616060890189614e80565b600081811061047257610472614ee8565b90506020028101906104849190614f17565b61048e9080614fef565b61049c906040810190615023565b6104a960608b018b614e80565b60008181106104ba576104ba614ee8565b90506020028101906104cc9190614f17565b602001358181106104df576104df614ee8565b6104f5926020606090920201908101915061459d565b73ffffffffffffffffffffffffffffffffffffffff16846040015186602001518151811061052557610525614ee8565b60200260200101516000015173ffffffffffffffffffffffffffffffffffffffff161461066a57836040015185602001518151811061056657610566614ee8565b60209081029190910101515161057f60608a018a614e80565b600081811061059057610590614ee8565b90506020028101906105a29190614f17565b6105ac9080614fef565b6105ba906040810190615023565b6105c760608c018c614e80565b60008181106105d8576105d8614ee8565b90506020028101906105ea9190614f17565b602001358181106105fd576105fd614ee8565b610613926020606090920201908101915061459d565b6040517ff902523f00000000000000000000000000000000000000000000000000000000815273ffffffffffffffffffffffffffffffffffffffff9283166004820152911660248201526044015b60405180910390fd5b6106776060890189614e80565b600081811061068857610688614ee8565b905060200281019061069a9190614f17565b6106a49080614fef565b6106b2906060810190615023565b6106bf60608b018b614e80565b60008181106106d0576106d0614ee8565b90506020028101906106e29190614f17565b604001358181106106f5576106f5614ee8565b61070b926020606090920201908101915061459d565b73ffffffffffffffffffffffffffffffffffffffff16846060015186604001518151811061073b5761073b614ee8565b60200260200101516000015173ffffffffffffffffffffffffffffffffffffffff161461081357836060015185604001518151811061077c5761077c614ee8565b60209081029190910101515161079560608a018a614e80565b60008181106107a6576107a6614ee8565b90506020028101906107b89190614f17565b6107c29080614fef565b6107d0906060810190615023565b6107dd60608c018c614e80565b60008181106107ee576107ee614ee8565b90506020028101906108009190614f17565b604001358181106105fd576105fd614ee8565b6108206060890189614e80565b600081811061083157610831614ee8565b90506020028101906108439190614f17565b61084d9080614fef565b61085b906040810190615023565b61086860608b018b614e80565b600081811061087957610879614ee8565b905060200281019061088b9190614f17565b6020013581811061089e5761089e614ee8565b90506060020160200160208101906108b6919061508a565b60ff1684604001518660200151815181106108d3576108d3614ee8565b60200260200101516020015160ff16146109f257836040015185602001518151811061090157610901614ee8565b60200260200101516020015188806060019061091d9190614e80565b600081811061092e5761092e614ee8565b90506020028101906109409190614f17565b61094a9080614fef565b610958906040810190615023565b61096560608c018c614e80565b600081811061097657610976614ee8565b90506020028101906109889190614f17565b6020013581811061099b5761099b614ee8565b90506060020160200160208101906109b3919061508a565b6040517f0f6ce47700000000000000000000000000000000000000000000000000000000815260ff928316600482015291166024820152604401610661565b6109ff6060890189614e80565b6000818110610a1057610a10614ee8565b9050602002810190610a229190614f17565b610a2c9080614fef565b610a3a906060810190615023565b610a4760608b018b614e80565b6000818110610a5857610a58614ee8565b9050602002810190610a6a9190614f17565b60400135818110610a7d57610a7d614ee8565b9050606002016020016020810190610a95919061508a565b60ff168460600151866040015181518110610ab257610ab2614ee8565b60200260200101516020015160ff1614610b7a578360600151856040015181518110610ae057610ae0614ee8565b602002602001015160200151888060600190610afc9190614e80565b6000818110610b0d57610b0d614ee8565b9050602002810190610b1f9190614f17565b610b299080614fef565b610b37906060810190615023565b610b4460608c018c614e80565b6000818110610b5557610b55614ee8565b9050602002810190610b679190614f17565b6040013581811061099b5761099b614ee8565b6000610b8585612474565b600081815260016020526040902054909150610bf85784516040805133815273ffffffffffffffffffffffffffffffffffffffff909216602083015281018290527fb70c12fa453793fa6818ec07c91e74363a47aa6a6829dcd9533937fdf30314f39060600160405180910390a1610e21565b6000610c138688602001518960400151338b606001516124a4565b9050896040013581606001511115610c835785516040805133815273ffffffffffffffffffffffffffffffffffffffff909216602083015281018390527fe3151dc8cb7a54ffc4baabd28c1f241c94d510b5e5b502491ac3cad6c16316d5906060015b60405180910390a1610e1f565b8060400151600003610ce45785516040805133815273ffffffffffffffffffffffffffffffffffffffff909216602083015281018390527f500b713857325f9e6dcb52ae832eca9109d107ed1aae9cb4928b4c1e13f051aa90606001610c76565b60008660600151886040015181518110610d0057610d00614ee8565b602090810291909101810151015160408301519091506000610d278760ff85166002612b9a565b905080821115610d35578091505b50600080610d538560600151600185612c1f9092919063ffffffff16565b9050610d938a604001518c6020015181518110610d7257610d72614ee8565b60200260200101516020015160ff16600183612c3d9092919063ffffffff16565b915060009050610da88360ff86166002612c3d565b9050610db481896150d4565b9750610dc0828d6150e7565b9b50610dcd828287612c9f565b7f10de99b9032184587540c04e1850dff94a7683ae1fcc9eb06098621c739c0275338c8385604051610e02949392919061523b565b60405180910390a150508651600101808852602002870183905250505b505b506001016103f3565b610e388260208a01356150d4565b965050508535851015610e81576040517f45094d880000000000000000000000000000000000000000000000000000000081528635600482015260248101869052604401610661565b8415610f4a57610f4a3386610e9960608a018a614e80565b6000818110610eaa57610eaa614ee8565b9050602002810190610ebc9190614f17565b610ec69080614fef565b610ed4906060810190615023565b610ee160608c018c614e80565b6000818110610ef257610ef2614ee8565b9050602002810190610f049190614f17565b60400135818110610f1757610f17614ee8565b610f2d926020606090920201908101915061459d565b73ffffffffffffffffffffffffffffffffffffffff169190612f62565b6000610f596080880188615370565b9050111561110c573363059bebe6610f746060890189614e80565b6000818110610f8557610f85614ee8565b9050602002810190610f979190614f17565b610fa19080614fef565b610faf906060810190615023565b610fbc60608b018b614e80565b6000818110610fcd57610fcd614ee8565b9050602002810190610fdf9190614f17565b60400135818110610ff257610ff2614ee8565b611008926020606090920201908101915061459d565b61101560608a018a614e80565b600081811061102657611026614ee8565b90506020028101906110389190614f17565b6110429080614fef565b611050906040810190615023565b61105d60608c018c614e80565b600081811061106e5761106e614ee8565b90506020028101906110809190614f17565b6020013581811061109357611093614ee8565b6110a9926020606090920201908101915061459d565b88886110b860808d018d615370565b6040518763ffffffff1660e01b81526004016110d99695949392919061541e565b600060405180830381600087803b1580156110f357600080fd5b505af1158015611107573d6000803e3d6000fd5b505050505b83156111d7576111d733308661112560608b018b614e80565b600081811061113657611136614ee8565b90506020028101906111489190614f17565b6111529080614fef565b611160906040810190615023565b61116d60608d018d614e80565b600081811061117e5761117e614ee8565b90506020028101906111909190614f17565b602001358181106111a3576111a3614ee8565b6111b9926020606090920201908101915061459d565b73ffffffffffffffffffffffffffffffffffffffff1692919061303b565b60005b815181101561120d576112058282815181106111f8576111f8614ee8565b602002602001015161309f565b6001016111da565b5050505061121b6001600055565b915091565b600061124373ffffffffffffffffffffffffffffffffffffffff86168786612f62565b6040517f23e30c8b00000000000000000000000000000000000000000000000000000000815260009073ffffffffffffffffffffffffffffffffffffffff8816906323e30c8b906112a29033908a908a9087908b908b9060040161541e565b6020604051808303816000875af11580156112c1573d6000803e3d6000fd5b505050506040513d601f19601f820116820180604052508101906112e59190615470565b90507f439148f0bbc682ca079e46d6e2c2f0c1e3b820f1a291b069d8882abf8cf18dd98114611343576040517f5b62c54800000000000000000000000000000000000000000000000000000000815260048101829052602401610661565b61137287306113536000896150e7565b73ffffffffffffffffffffffffffffffffffffffff8a1692919061303b565b5060019695505050505050565b6040517f70a0823100000000000000000000000000000000000000000000000000000000815230600482015260009073ffffffffffffffffffffffffffffffffffffffff8316906370a0823190602401602060405180830381865afa1580156113ec573d6000803e3d6000fd5b505050506040513d601f19601f820116820180604052508101906103219190615470565b600061141a612401565b611427602085018561459d565b73ffffffffffffffffffffffffffffffffffffffff163373ffffffffffffffffffffffffffffffffffffffff16146114b95733611467602086018661459d565b6040517f4702b91400000000000000000000000000000000000000000000000000000000815273ffffffffffffffffffffffffffffffffffffffff928316600482015291166024820152604401610661565b60006114cc6114c786615489565b612474565b6000818152600160205260409020549091507fffffffffffffffffffffffffffffffffffffffffffffffffffffffffffffffff016115a05760008181526001602081905260408083209290925590519092507fa2d7a96afe77c99b6a2d72ca8b4d3c5c88b6466ee34ca74e0955951f449425c89061154f90339084908990615618565b60405180910390a16115a060005b60405190808252806020026020018201604052801561159057816020015b606081526020019060019003908161157b5790505b5061159b8587615727565b6132ea565b506115ab6001600055565b9392505050565b6115ba612401565b82600003611619576040517f40e97a5e00000000000000000000000000000000000000000000000000000000815233600482015273ffffffffffffffffffffffffffffffffffffffff8616602482015260448101859052606401610661565b6040805133815273ffffffffffffffffffffffffffffffffffffffff87166020820152908101859052606081018490527fdcbc1c05240f31ff3ad067ef1ee35ce4997762752e3a095284754544f4c709d79060800160405180910390a161169873ffffffffffffffffffffffffffffffffffffffff861633308661303b565b33600090815260026020908152604080832073ffffffffffffffffffffffffffffffffffffffff891684528252808320878452909152812080548592906116e09084906150e7565b9091555061172a905060005b60405190808252806020026020018201604052801561171f57816020015b606081526020019060019003908161170a5790505b5061159b8385615727565b6117346001600055565b5050505050565b611743612401565b8351855173ffffffffffffffffffffffffffffffffffffffff9182169116036117b35784516040517f227e4ce900000000000000000000000000000000000000000000000000000000815273ffffffffffffffffffffffffffffffffffffffff9091166004820152602401610661565b83604001518360400135815181106117cd576117cd614ee8565b60200260200101516000015173ffffffffffffffffffffffffffffffffffffffff16856060015184602001358151811061180957611809614ee8565b60200260200101516000015173ffffffffffffffffffffffffffffffffffffffff16146118ce57846060015183602001358151811061184a5761184a614ee8565b602002602001015160000151846040015184604001358151811061187057611870614ee8565b6020908102919091010151516040517ff902523f00000000000000000000000000000000000000000000000000000000815273ffffffffffffffffffffffffffffffffffffffff928316600482015291166024820152604401610661565b83604001518360400135815181106118e8576118e8614ee8565b60200260200101516020015160ff16856060015184602001358151811061191157611911614ee8565b60200260200101516020015160ff16146119b457846060015183602001358151811061193f5761193f614ee8565b602002602001015160200151846040015184604001358151811061196557611965614ee8565b6020026020010151602001516040517f0f6ce47700000000000000000000000000000000000000000000000000000000815260040161066192919060ff92831681529116602082015260400190565b6040850151805184359081106119cc576119cc614ee8565b60200260200101516000015173ffffffffffffffffffffffffffffffffffffffff168460600151846060013581518110611a0857611a08614ee8565b60200260200101516000015173ffffffffffffffffffffffffffffffffffffffff1614611a6d57604085015180518435908110611a4757611a47614ee8565b602002602001015160000151846060015184606001358151811061187057611870614ee8565b604085015180518435908110611a8557611a85614ee8565b60200260200101516020015160ff168460600151846060013581518110611aae57611aae614ee8565b60200260200101516020015160ff1614611b0057604085015180518435908110611ada57611ada614ee8565b602002602001015160200151846060015184606001358151811061196557611965614ee8565b600060016000611b0f88612474565b81526020019081526020016000205403611b8e577fb70c12fa453793fa6818ec07c91e74363a47aa6a6829dcd9533937fdf30314f3338660000151611b5388612474565b6040805173ffffffffffffffffffffffffffffffffffffffff94851681529390921660208401529082015260600160405180910390a161172a565b600060016000611b9d87612474565b81526020019081526020016000205403611be1577fb70c12fa453793fa6818ec07c91e74363a47aa6a6829dcd9533937fdf30314f3338560000151611b5387612474565b7f692ee69af2843c70772be93470669f3c73e583316a047b6bfefdae5629de37ce33868686604051611c1694939291906157f1565b60405180910390a16000611c3986856000013586602001358860000151866124a4565b90506000611c5686866040013587606001358a60000151886124a4565b90506000611c6483836134ef565b9050611c798160400151826000015185612c9f565b611c8c8160600151826020015184612c9f565b60608101518151600091611c9f916150d4565b9050600082604001518360200151611cb791906150d4565b90508115611d5d57336000908152600260209081526040822060608d01518051869492938d0135908110611ced57611ced614ee8565b60200260200101516000015173ffffffffffffffffffffffffffffffffffffffff1673ffffffffffffffffffffffffffffffffffffffff16815260200190815260200160002060008a6080013581526020019081526020016000206000828254611d5791906150e7565b90915550505b8015611dff573360009081526002602052604081206060808c015180518594928d0135908110611d8f57611d8f614ee8565b60200260200101516000015173ffffffffffffffffffffffffffffffffffffffff1673ffffffffffffffffffffffffffffffffffffffff16815260200190815260200160002060008a60a0013581526020019081526020016000206000828254611df991906150e7565b90915550505b5050604080513381528251602080830191909152830151818301529082015160608083019190915282015160808201527f3f20e55919cca701abb2a40ab72542b25ea7eed63a50f979dd2cd3231e5f488d9060a00160405180910390a1611e658361309f565b611e6e8261309f565b5050506117346001600055565b6000611e85612401565b611e926020850185615023565b9050600003611ecd576040517f6c44ef8f00000000000000000000000000000000000000000000000000000000815260040160405180910390fd5b611eda6040850185615023565b9050600003611f15576040517f540e5f0b00000000000000000000000000000000000000000000000000000000815260040160405180910390fd5b6040805160a0810190915233815260009060208101611f34878061587b565b611f3d906158af565b8152602001868060200190611f529190615023565b808060200260200160405190810160405280939291908181526020016000905b82821015611f9e57611f8f606083028601368190038101906158bb565b81526020019060010190611f72565b5050509183525050602001611fb66040880188615023565b808060200260200160405190810160405280939291908181526020016000905b8282101561200257611ff3606083028601368190038101906158bb565b81526020019060010190611fd6565b5050505050815260200186606001358152509050600061202182612474565b60008181526001602052604090205490915015801561216d5760008281526001602081905260409182902055835190517f3ce8bbe652d8778b67dd565c479c3bbaa843e55e477d075f756f889ec4bbdaee9161208091859087906158d7565b60405180910390a1600061209760a0890189615370565b90501115612134576120e96120af60a0890189615370565b8080601f01602080910402602001604051908101604052809392919081815260200183838082843760009201919091525061354592505050565b82517fbea766d03fa1efd3f81cc8634d08320bc62bb0ed9234ac59bbaafa5893fb6b13908361211b60a08b018b615370565b60405161212b949392919061590c565b60405180910390a15b6040805160008082526020820190925261216d91612162565b606081526020019060019003908161214d5790505b5061159b8789615727565b925050506115ab6001600055565b60608167ffffffffffffffff811115612196576121966146d2565b6040519080825280602002602001820160405280156121c957816020015b60608152602001906001900390816121b45790505b50905060005b8281101561225e57612239308585848181106121ed576121ed614ee8565b90506020028101906121ff9190615370565b8080601f01602080910402602001604051908101604052809392919081815260200183838082843760009201919091525061358992505050565b82828151811061224b5761224b614ee8565b60209081029190910101526001016121cf565b5092915050565b61226d612401565b61227760006116ec565b6122816001600055565b5050565b61228d612401565b826000036122ec576040517ff7a898f600000000000000000000000000000000000000000000000000000000815233600482015273ffffffffffffffffffffffffffffffffffffffff8616602482015260448101859052606401610661565b33600090815260026020908152604080832073ffffffffffffffffffffffffffffffffffffffff8916845282528083208784529091528120549061233085836135ae565b905080156123f55761234281836150d4565b33600081815260026020908152604080832073ffffffffffffffffffffffffffffffffffffffff8d168085529083528184208c855283529281902094909455835192835282015290810187905260608101869052608081018290527febff2602b3f468259e1e99f613fed6691f3a6526effe6ef3e768ba7ae7a36c4f9060a00160405180910390a16123eb73ffffffffffffffffffffffffffffffffffffffff88163383612f62565b6123f5600061155d565b50506117346001600055565b60026000540361246d576040517f08c379a000000000000000000000000000000000000000000000000000000000815260206004820152601f60248201527f5265656e7472616e637947756172643a207265656e7472616e742063616c6c006044820152606401610661565b6002600055565b6000816040516020016124879190615942565b604051602081830303815290604052805190602001209050919050565b6124ac6143e1565b60006124b787612474565b60408051600480825260a08201909252919250606091600091816020015b60608152602001906001900390816124d557905050895160408051600381526020810187905273ffffffffffffffffffffffffffffffffffffffff92831681830152918916606083015260808201905290915081600180038151811061253d5761253d614ee8565b60200260200101819052506126d28960400151898151811061256157612561614ee8565b60200260200101516000015173ffffffffffffffffffffffffffffffffffffffff168a604001518a8151811061259957612599614ee8565b60200260200101516020015160ff168b604001518b815181106125be576125be614ee8565b602002602001015160400151600260008e6000015173ffffffffffffffffffffffffffffffffffffffff1673ffffffffffffffffffffffffffffffffffffffff16815260200190815260200160002060008e604001518e8151811061262557612625614ee8565b60200260200101516000015173ffffffffffffffffffffffffffffffffffffffff1673ffffffffffffffffffffffffffffffffffffffff16815260200190815260200160002060008e604001518e8151811061268357612683614ee8565b602002602001015160400151815260200190815260200160002054600060408051600581526020810196909652858101949094526060850192909252608084015260a083015260c08201905290565b816001600303815181106126e8576126e8614ee8565b602002602001018190525061282e8960600151888151811061270c5761270c614ee8565b60200260200101516000015173ffffffffffffffffffffffffffffffffffffffff168a60600151898151811061274457612744614ee8565b60200260200101516020015160ff168b606001518a8151811061276957612769614ee8565b602002602001015160400151600260008e6000015173ffffffffffffffffffffffffffffffffffffffff1673ffffffffffffffffffffffffffffffffffffffff16815260200190815260200160002060008e606001518d815181106127d0576127d0614ee8565b60200260200101516000015173ffffffffffffffffffffffffffffffffffffffff1673ffffffffffffffffffffffffffffffffffffffff16815260200190815260200160002060008e606001518d8151811061268357612683614ee8565b8160016004038151811061284457612844614ee8565b602002602001018190525061285981866135c4565b9150506000886000015173ffffffffffffffffffffffffffffffffffffffff1690506000808a602001516000015173ffffffffffffffffffffffffffffffffffffffff1663d6e3357a8c60200151602001516128bf863060009182526020526040902090565b60208f015160400151600089816040519080825280602002602001820160405280156128f5578160200160208202803683370190505b506040518763ffffffff1660e01b8152600401612917969594939291906159c0565b600060405180830381865afa158015612934573d6000803e3d6000fd5b505050506040513d6000823e601f3d9081017fffffffffffffffffffffffffffffffffffffffffffffffffffffffffffffffe016820160405261297a9190810190615a8d565b915091506002825110156129bf5781516040517f3eee395400000000000000000000000000000000000000000000000000000000815260040161066191815260200190565b6000826001815181106129d4576129d4614ee8565b602002602001015190506000836000815181106129f3576129f3614ee8565b602002602001015190506000600260008f6000015173ffffffffffffffffffffffffffffffffffffffff1673ffffffffffffffffffffffffffffffffffffffff16815260200190815260200160002060008f606001518e81518110612a5a57612a5a614ee8565b60200260200101516000015173ffffffffffffffffffffffffffffffffffffffff1673ffffffffffffffffffffffffffffffffffffffff16815260200190815260200160002060008f606001518e81518110612ab857612ab8614ee8565b60200260200101516040015181526020019081526020016000205490506000612b118f606001518e81518110612af057612af0614ee8565b60200260200101516020015160ff16600084612b9a9092919063ffffffff16565b905080841115612b1f578093505b50506040805160028152602081018490528082018390526060810190915286600281518110612b5057612b50614ee8565b6020908102919091018101919091526040805160e0810182529e8f52908e019b909b52998c015260608b019890985250608089019190915260a08801525050505060c08301525090565b60008260121115612bcf5760128390036002831615612bc557612bbd85826138d4565b9150506115ab565b612bbd858261395a565b6012831115612c18577fffffffffffffffffffffffffffffffffffffffffffffffffffffffffffffffee83016001831615612c0e57612bbd8582613992565b612bbd85826139e0565b50826115ab565b6000612c358484670de0b6b3a764000085613a03565b949350505050565b60008260121115612c605760128390036001831615612c0e57612bbd8582613992565b6012831115612c18577fffffffffffffffffffffffffffffffffffffffffffffffffffffffffffffffee83016002831615612bc557612bbd85826138d4565b828160800151600381518110612cb757612cb7614ee8565b6020026020010151600481518110612cd157612cd1614ee8565b602002602001018181525050818160800151600481518110612cf557612cf5614ee8565b6020026020010151600481518110612d0f57612d0f614ee8565b60209081029190910101528215612e1d5780515173ffffffffffffffffffffffffffffffffffffffff16600090815260026020526040812060808301518051869391906003908110612d6357612d63614ee8565b6020026020010151600081518110612d7d57612d7d614ee8565b602002602001015173ffffffffffffffffffffffffffffffffffffffff1673ffffffffffffffffffffffffffffffffffffffff16815260200190815260200160002060008360800151600381518110612dd857612dd8614ee8565b6020026020010151600281518110612df257612df2614ee8565b602002602001015181526020019081526020016000206000828254612e1791906150e7565b90915550505b8115612f205780515173ffffffffffffffffffffffffffffffffffffffff16600090815260026020526040812060808301518051859391906004908110612e6657612e66614ee8565b6020026020010151600081518110612e8057612e80614ee8565b602002602001015173ffffffffffffffffffffffffffffffffffffffff1673ffffffffffffffffffffffffffffffffffffffff16815260200190815260200160002060008360800151600481518110612edb57612edb614ee8565b6020026020010151600281518110612ef557612ef5614ee8565b602002602001015181526020019081526020016000206000828254612f1a91906150d4565b90915550505b7f17a5c0f3785132a57703932032f6863e7920434150aa1dc940e567b440fdce1f338260800151604051612f55929190615af1565b60405180910390a1505050565b60405173ffffffffffffffffffffffffffffffffffffffff83166024820152604481018290526130369084907fa9059cbb00000000000000000000000000000000000000000000000000000000906064015b604080517fffffffffffffffffffffffffffffffffffffffffffffffffffffffffffffffe08184030181529190526020810180517bffffffffffffffffffffffffffffffffffffffffffffffffffffffff167fffffffff0000000000000000000000000000000000000000000000000000000090931692909217909152613a60565b505050565b60405173ffffffffffffffffffffffffffffffffffffffff808516602483015283166044820152606481018290526130999085907f23b872dd0000000000000000000000000000000000000000000000000000000090608401612fb4565b50505050565b60c08101515115613144578051602090810151015160a082015160c08301516040517f946aadc600000000000000000000000000000000000000000000000000000000815273ffffffffffffffffffffffffffffffffffffffff9093169263946aadc692613111929091600401615b20565b600060405180830381600087803b15801561312b57600080fd5b505af115801561313f573d6000803e3d6000fd5b505050505b805160209081015180519082015160a084015160009081523090935260408320839273ffffffffffffffffffffffffffffffffffffffff169163d6e3357a9186516020015160400151608088015160019060006040519080825280602002602001820160405280156131c0578160200160208202803683370190505b506040518763ffffffff1660e01b81526004016131e2969594939291906159c0565b600060405180830381865afa1580156131ff573d6000803e3d6000fd5b505050506040513d6000823e601f3d9081017fffffffffffffffffffffffffffffffffffffffffffffffffffffffffffffffe01682016040526132459190810190615a8d565b8051919350915015613036578251602090810151015160a08401516040517f946aadc600000000000000000000000000000000000000000000000000000000815273ffffffffffffffffffffffffffffffffffffffff9092169163946aadc6916132b3918590600401615b20565b600060405180830381600087803b1580156132cd57600080fd5b505af11580156132e1573d6000803e3d6000fd5b50505050505050565b3361331d6040805160a0810182526000918101828152606080830193909352608082018390528152602081019190915290565b60005b83518110156117345783818151811061333b5761333b614ee8565b6020026020010151915060008083600001516000015173ffffffffffffffffffffffffffffffffffffffff1663d6e3357a856000015160200151613389883060009182526020526040902090565b87600001516040015160006133a28d8b602001516135c4565b604080516000815260208101918290527fffffffff0000000000000000000000000000000000000000000000000000000060e089901b169091526133ee959493929190602481016159c0565b600060405180830381865afa15801561340b573d6000803e3d6000fd5b505050506040513d6000823e601f3d9081017fffffffffffffffffffffffffffffffffffffffffffffffffffffffffffffffe01682016040526134519190810190615a8d565b8551602001516040517f946aadc600000000000000000000000000000000000000000000000000000000815292945090925073ffffffffffffffffffffffffffffffffffffffff169063946aadc6906134b09088908590600401615b20565b600060405180830381600087803b1580156134ca57600080fd5b505af11580156134de573d6000803e3d6000fd5b505050505050806001019050613320565b61351a6040518060800160405280600081526020016000815260200160008152602001600081525090565b6135248383613b6f565b825260408201526135358284613b6f565b6020830152606082015292915050565b61354e81613c34565b61358657806040517f644cc2580000000000000000000000000000000000000000000000000000000081526004016106619190615b39565b50565b60606115ab8383604051806060016040528060278152602001615d3b60279139613c64565b60008183106135bd57816115ab565b5090919050565b60606000825167ffffffffffffffff8111156135e2576135e26146d2565b60405190808252806020026020018201604052801561360b578160200160208202803683370190505b50905060008084511161361f576000613625565b83516001015b855160010101905060008167ffffffffffffffff811115613648576136486146d2565b60405190808252806020026020018201604052801561367b57816020015b60608152602001906001900390816136665790505b50905060006136a0604080516002815233602082015230818301526060810190915290565b8282815181106136b2576136b2614ee8565b602002602001018190525060005b87518110156137105781806001019250508781815181106136e3576136e3614ee8565b60200260200101518383815181106136fd576136fd614ee8565b60209081029190910101526001016136c0565b508551156138ca5780806001019150508382828151811061373357613733614ee8565b602002602001018190525060005b86518110156138c8576137f287828151811061375f5761375f614ee8565b6020026020010151600001516137cf61379c8a858151811061378357613783614ee8565b6020026020010151602001518051602090810291012090565b7f19457468657265756d205369676e6564204d6573736167653a0a3332000000006000908152601c91909152603c902090565b8984815181106137e1576137e1614ee8565b602002602001015160400151613ce9565b61382b576040517f52bf984800000000000000000000000000000000000000000000000000000000815260048101829052602401610661565b86818151811061383d5761383d614ee8565b60200260200101516000015173ffffffffffffffffffffffffffffffffffffffff1685828151811061387157613871614ee8565b602002602001018181525050818060010192505086818151811061389757613897614ee8565b6020026020010151602001518383815181106138b5576138b5614ee8565b6020908102919091010152600101613741565b505b5095945050505050565b6000604e821061391457821561390a577fffffffffffffffffffffffffffffffffffffffffffffffffffffffffffffffff61390d565b60005b9050610321565b50600a81900a828102908381838161392e5761392e615b4c565b041461225e577fffffffffffffffffffffffffffffffffffffffffffffffffffffffffffffffff612c35565b600a81900a6139698184615b7b565b9050604e82106103215782156139895761398482600a615cb2565b6115ab565b50600092915050565b6000604e82106139b65782156139a95760016139ac565b60005b60ff169050610321565b600a82900a8084816139ca576139ca615b4c565b049150808202841461225e575060010192915050565b6000604e8210156139895781600a0a83816139fd576139fd615b4c565b046115ab565b600080613a11868686613d5a565b90506001836002811115613a2757613a27615cbe565b148015613a44575060008480613a3f57613a3f615b4c565b868809115b15613a5757613a546001826150e7565b90505b95945050505050565b6000613ac2826040518060400160405280602081526020017f5361666545524332303a206c6f772d6c6576656c2063616c6c206661696c65648152508573ffffffffffffffffffffffffffffffffffffffff16613e849092919063ffffffff16565b9050805160001480613ae3575080806020019051810190613ae39190615ced565b613036576040517f08c379a000000000000000000000000000000000000000000000000000000000815260206004820152602a60248201527f5361666545524332303a204552433230206f7065726174696f6e20646964206e60448201527f6f742073756363656564000000000000000000000000000000000000000000006064820152608401610661565b6000806000613b92846060015160018660400151612c1f9092919063ffffffff16565b604086015190915081811115613ba55750805b613be7866000015160600151876020015181518110613bc657613bc6614ee8565b60200260200101516020015160ff16600083612c3d9092919063ffffffff16565b92506000613c058760600151600184612c1f9092919063ffffffff16565b9050613c28866000015160600151876020015181518110610d7257610d72614ee8565b94505050509250929050565b6000600882511015613c4857506000919050565b506008015167ffffffffffffffff1667ff0a89c674ee78741490565b60606000808573ffffffffffffffffffffffffffffffffffffffff1685604051613c8e9190615d0f565b600060405180830381855af49150503d8060008114613cc9576040519150601f19603f3d011682016040523d82523d6000602084013e613cce565b606091505b5091509150613cdf86838387613e93565b9695505050505050565b6000806000613cf88585613f33565b90925090506000816004811115613d1157613d11615cbe565b148015613d4957508573ffffffffffffffffffffffffffffffffffffffff168273ffffffffffffffffffffffffffffffffffffffff16145b80613cdf5750613cdf868686613f78565b600080807fffffffffffffffffffffffffffffffffffffffffffffffffffffffffffffffff85870985870292508281108382030391505080600003613db257838281613da857613da8615b4c565b04925050506115ab565b808411613e1b576040517f08c379a000000000000000000000000000000000000000000000000000000000815260206004820152601560248201527f4d6174683a206d756c446976206f766572666c6f7700000000000000000000006044820152606401610661565b60008486880960026001871981018816978890046003810283188082028403028082028403028082028403028082028403028082028403029081029092039091026000889003889004909101858311909403939093029303949094049190911702949350505050565b6060612c3584846000856140d5565b60608315613f29578251600003613f225773ffffffffffffffffffffffffffffffffffffffff85163b613f22576040517f08c379a000000000000000000000000000000000000000000000000000000000815260206004820152601d60248201527f416464726573733a2063616c6c20746f206e6f6e2d636f6e74726163740000006044820152606401610661565b5081612c35565b612c3583836141ee565b6000808251604103613f695760208301516040840151606085015160001a613f5d87828585614232565b94509450505050613f71565b506000905060025b9250929050565b60008060008573ffffffffffffffffffffffffffffffffffffffff16631626ba7e60e01b8686604051602401613faf929190615d21565b604080517fffffffffffffffffffffffffffffffffffffffffffffffffffffffffffffffe08184030181529181526020820180517bffffffffffffffffffffffffffffffffffffffffffffffffffffffff167fffffffff000000000000000000000000000000000000000000000000000000009094169390931790925290516140389190615d0f565b600060405180830381855afa9150503d8060008114614073576040519150601f19603f3d011682016040523d82523d6000602084013e614078565b606091505b509150915081801561408c57506020815110155b8015613cdf575080517f1626ba7e00000000000000000000000000000000000000000000000000000000906140ca9083016020908101908401615470565b149695505050505050565b606082471015614167576040517f08c379a000000000000000000000000000000000000000000000000000000000815260206004820152602660248201527f416464726573733a20696e73756666696369656e742062616c616e636520666f60448201527f722063616c6c00000000000000000000000000000000000000000000000000006064820152608401610661565b6000808673ffffffffffffffffffffffffffffffffffffffff1685876040516141909190615d0f565b60006040518083038185875af1925050503d80600081146141cd576040519150601f19603f3d011682016040523d82523d6000602084013e6141d2565b606091505b50915091506141e387838387613e93565b979650505050505050565b8151156141fe5781518083602001fd5b806040517f08c379a00000000000000000000000000000000000000000000000000000000081526004016106619190615b39565b6000807f7fffffffffffffffffffffffffffffff5d576e7357a4501ddfe92f46681b20a08311156142695750600090506003614318565b6040805160008082526020820180845289905260ff881692820192909252606081018690526080810185905260019060a0016020604051602081039080840390855afa1580156142bd573d6000803e3d6000fd5b50506040517fffffffffffffffffffffffffffffffffffffffffffffffffffffffffffffffe0015191505073ffffffffffffffffffffffffffffffffffffffff811661431157600060019250925050614318565b9150600090505b94509492505050565b604051806080016040528061433461434f565b81526020016000815260200160008152602001606081525090565b6040518060a00160405280600073ffffffffffffffffffffffffffffffffffffffff1681526020016143c76040518060600160405280600073ffffffffffffffffffffffffffffffffffffffff168152602001600073ffffffffffffffffffffffffffffffffffffffff168152602001606081525090565b815260606020820181905260408201819052600091015290565b6040518060e001604052806143f461434f565b81526020016000815260200160008152602001600081526020016060815260200160008152602001606081525090565b60006020828403121561443657600080fd5b81357fffffffff00000000000000000000000000000000000000000000000000000000811681146115ab57600080fd5b600060a0828403121561447857600080fd5b50919050565b60006020828403121561449057600080fd5b813567ffffffffffffffff8111156144a757600080fd5b612c3584828501614466565b6000602082840312156144c557600080fd5b5035919050565b73ffffffffffffffffffffffffffffffffffffffff8116811461358657600080fd5b80356144f9816144cc565b919050565b60008060008060006080868803121561451657600080fd5b8535614521816144cc565b94506020860135614531816144cc565b935060408601359250606086013567ffffffffffffffff8082111561455557600080fd5b818801915088601f83011261456957600080fd5b81358181111561457857600080fd5b89602082850101111561458a57600080fd5b9699959850939650602001949392505050565b6000602082840312156145af57600080fd5b81356115ab816144cc565b60008083601f8401126145cc57600080fd5b50813567ffffffffffffffff8111156145e457600080fd5b6020830191508360208260051b8501011115613f7157600080fd5b60008060006040848603121561461457600080fd5b833567ffffffffffffffff8082111561462c57600080fd5b61463887838801614466565b9450602086013591508082111561464e57600080fd5b5061465b868287016145ba565b9497909650939450505050565b60008060008060006080868803121561468057600080fd5b853561468b816144cc565b94506020860135935060408601359250606086013567ffffffffffffffff8111156146b557600080fd5b6146c1888289016145ba565b969995985093965092949392505050565b7f4e487b7100000000000000000000000000000000000000000000000000000000600052604160045260246000fd5b6040516060810167ffffffffffffffff81118282101715614724576147246146d2565b60405290565b60405160a0810167ffffffffffffffff81118282101715614724576147246146d2565b6040805190810167ffffffffffffffff81118282101715614724576147246146d2565b604051601f82017fffffffffffffffffffffffffffffffffffffffffffffffffffffffffffffffe016810167ffffffffffffffff811182821017156147b7576147b76146d2565b604052919050565b600082601f8301126147d057600080fd5b813567ffffffffffffffff8111156147ea576147ea6146d2565b61481b60207fffffffffffffffffffffffffffffffffffffffffffffffffffffffffffffffe0601f84011601614770565b81815284602083860101111561483057600080fd5b816020850160208301376000918101602001919091529392505050565b60006060828403121561485f57600080fd5b614867614701565b90508135614874816144cc565b81526020820135614884816144cc565b6020820152604082013567ffffffffffffffff8111156148a357600080fd5b6148af848285016147bf565b60408301525092915050565b600067ffffffffffffffff8211156148d5576148d56146d2565b5060051b60200190565b803560ff811681146144f957600080fd5b60006060828403121561490257600080fd5b61490a614701565b90508135614917816144cc565b8152614925602083016148df565b60208201526040820135604082015292915050565b600082601f83011261494b57600080fd5b8135602061496061495b836148bb565b614770565b80838252602082019150606060206060860288010194508785111561498457600080fd5b602087015b858110156149a85761499b89826148f0565b8452928401928101614989565b5090979650505050505050565b600060a082840312156149c757600080fd5b6149cf61472a565b90506149da826144ee565b8152602082013567ffffffffffffffff808211156149f757600080fd5b614a038583860161484d565b60208401526040840135915080821115614a1c57600080fd5b614a288583860161493a565b60408401526060840135915080821115614a4157600080fd5b50614a4e8482850161493a565b6060830152506080820135608082015292915050565b600060c0828403121561447857600080fd5b600082601f830112614a8757600080fd5b81356020614a9761495b836148bb565b82815260059290921b84018101918181019086841115614ab657600080fd5b8286015b84811015614bdb57803567ffffffffffffffff80821115614ada57600080fd5b908801906060828b037fffffffffffffffffffffffffffffffffffffffffffffffffffffffffffffffe0011215614b115760008081fd5b614b19614701565b86830135614b26816144cc565b815260408381013583811115614b3c5760008081fd5b8401603f81018d13614b4e5760008081fd5b88810135614b5e61495b826148bb565b81815260059190911b82018301908a8101908f831115614b7e5760008081fd5b928401925b82841015614b9c5783358252928b0192908b0190614b83565b858c0152505050606084013583811115614bb65760008081fd5b614bc48d8a838801016147bf565b918301919091525085525050918301918301614aba565b509695505050505050565b60008060008060006101408688031215614bff57600080fd5b853567ffffffffffffffff80821115614c1757600080fd5b614c2389838a016149b5565b96506020880135915080821115614c3957600080fd5b614c4589838a016149b5565b9550614c548960408a01614a64565b9450610100880135915080821115614c6b57600080fd5b614c7789838a01614a76565b9350610120880135915080821115614c8e57600080fd5b50614c9b88828901614a76565b9150509295509295909350565b600080600060408486031215614cbd57600080fd5b833567ffffffffffffffff80821115614cd557600080fd5b61463887838801614a64565b60008060208385031215614cf457600080fd5b823567ffffffffffffffff811115614d0b57600080fd5b614d17858286016145ba565b90969095509350505050565b60005b83811015614d3e578181015183820152602001614d26565b50506000910152565b60008151808452614d5f816020860160208601614d23565b601f017fffffffffffffffffffffffffffffffffffffffffffffffffffffffffffffffe0169290920160200192915050565b600060208083016020845280855180835260408601915060408160051b87010192506020870160005b82811015614e06577fffffffffffffffffffffffffffffffffffffffffffffffffffffffffffffffc0888603018452614df4858351614d47565b94509285019290850190600101614dba565b5092979650505050505050565b600080600060608486031215614e2857600080fd5b8335614e33816144cc565b92506020840135614e43816144cc565b929592945050506040919091013590565b60008060408385031215614e6757600080fd5b8235614e72816144cc565b946020939093013593505050565b60008083357fffffffffffffffffffffffffffffffffffffffffffffffffffffffffffffffe1843603018112614eb557600080fd5b83018035915067ffffffffffffffff821115614ed057600080fd5b6020019150600581901b3603821315613f7157600080fd5b7f4e487b7100000000000000000000000000000000000000000000000000000000600052603260045260246000fd5b600082357fffffffffffffffffffffffffffffffffffffffffffffffffffffffffffffff81833603018112614f4b57600080fd5b9190910192915050565b600060808236031215614f6757600080fd5b6040516080810167ffffffffffffffff8282108183111715614f8b57614f8b6146d2565b816040528435915080821115614fa057600080fd5b614fac368387016149b5565b835260208501356020840152604085013560408401526060850135915080821115614fd657600080fd5b50614fe336828601614a76565b60608301525092915050565b600082357fffffffffffffffffffffffffffffffffffffffffffffffffffffffffffffff61833603018112614f4b57600080fd5b60008083357fffffffffffffffffffffffffffffffffffffffffffffffffffffffffffffffe184360301811261505857600080fd5b83018035915067ffffffffffffffff82111561507357600080fd5b6020019150606081023603821315613f7157600080fd5b60006020828403121561509c57600080fd5b6115ab826148df565b7f4e487b7100000000000000000000000000000000000000000000000000000000600052601160045260246000fd5b81810381811115610321576103216150a5565b80820180821115610321576103216150a5565b60008151808452602080850194506020840160005b8381101561515a578151805173ffffffffffffffffffffffffffffffffffffffff1688528381015160ff1684890152604090810151908801526060909601959082019060010161510f565b509495945050505050565b600073ffffffffffffffffffffffffffffffffffffffff808351168452602083015160a060208601528181511660a08601528160208201511660c08601526040810151915050606060e08501526151c0610100850182614d47565b9050604083015184820360408601526151d982826150fa565b915050606083015184820360608601526151f382826150fa565b915050608083015160808501528091505092915050565b60008151808452602080850194506020840160005b8381101561515a5781518752958201959082019060010161521f565b600073ffffffffffffffffffffffffffffffffffffffff808716835260206080818501528651608080860152615275610100860182615165565b90508188015160a086015260408089015160c08701526060808a01517fffffffffffffffffffffffffffffffffffffffffffffffffffffffffffffff808885030160e08901528381518086528686019150868160051b870101878401935060005b8281101561534e577fffffffffffffffffffffffffffffffffffffffffffffffffffffffffffffffe088830301845284518a815116835289810151878b8501526153228885018261520a565b91890151848303858b015291905061533a8183614d47565b968b0196958b0195935050506001016152d6565b5080995050505050505050505083604083015282606083015295945050505050565b60008083357fffffffffffffffffffffffffffffffffffffffffffffffffffffffffffffffe18436030181126153a557600080fd5b83018035915067ffffffffffffffff8211156153c057600080fd5b602001915036819003821315613f7157600080fd5b8183528181602085013750600060208284010152600060207fffffffffffffffffffffffffffffffffffffffffffffffffffffffffffffffe0601f840116840101905092915050565b600073ffffffffffffffffffffffffffffffffffffffff808916835280881660208401525085604083015284606083015260a0608083015261546460a0830184866153d5565b98975050505050505050565b60006020828403121561548257600080fd5b5051919050565b600061032136836149b5565b600081356154a2816144cc565b73ffffffffffffffffffffffffffffffffffffffff90811684526020830135906154cb826144cc565b1660208401526040820135368390037fffffffffffffffffffffffffffffffffffffffffffffffffffffffffffffffe101811261550757600080fd5b820160208101903567ffffffffffffffff81111561552457600080fd5b80360382131561553357600080fd5b60606040860152613a576060860182846153d5565b60008083357fffffffffffffffffffffffffffffffffffffffffffffffffffffffffffffffe184360301811261557d57600080fd5b830160208101925035905067ffffffffffffffff81111561559d57600080fd5b606081023603821315613f7157600080fd5b8183526000602080850194508260005b8581101561515a5781356155d2816144cc565b73ffffffffffffffffffffffffffffffffffffffff16875260ff6155f78385016148df565b168784015260408281013590880152606096870196909101906001016155bf565b600073ffffffffffffffffffffffffffffffffffffffff808616835284602084015260606040840152833561564c816144cc565b1660608301526020830135368490037fffffffffffffffffffffffffffffffffffffffffffffffffffffffffffffffa101811261568857600080fd5b60a0608084015261569f6101008401858301615495565b90506156ae6040850185615548565b7fffffffffffffffffffffffffffffffffffffffffffffffffffffffffffffffa0808685030160a08701526156e48483856155af565b93506156f36060880188615548565b93509150808685030160c08701525061570d8383836155af565b92505050608084013560e084015280915050949350505050565b600061573561495b846148bb565b80848252602080830192508560051b85013681111561575357600080fd5b855b818110156157e557803567ffffffffffffffff808211156157765760008081fd5b81890191506040823603121561578c5760008081fd5b61579461474d565b8235828111156157a45760008081fd5b6157b03682860161484d565b82525085830135828111156157c55760008081fd5b6157d136828601614a76565b828801525087525050938201938201615755565b50919695505050505050565b600061012073ffffffffffffffffffffffffffffffffffffffff8716835280602084015261582181840187615165565b905082810360408401526158358186615165565b9150508235606083015260208301356080830152604083013560a0830152606083013560c0830152608083013560e083015260a083013561010083015295945050505050565b600082357fffffffffffffffffffffffffffffffffffffffffffffffffffffffffffffffa1833603018112614f4b57600080fd5b6000610321368361484d565b6000606082840312156158cd57600080fd5b6115ab83836148f0565b73ffffffffffffffffffffffffffffffffffffffff84168152826020820152606060408201526000613a576060830184615165565b73ffffffffffffffffffffffffffffffffffffffff85168152836020820152606060408201526000613cdf6060830184866153d5565b6020815260006115ab6020830184615165565b60008282518085526020808601955060208260051b8401016020860160005b848110156149a8577fffffffffffffffffffffffffffffffffffffffffffffffffffffffffffffffe08684030189526159ae83835161520a565b98840198925090830190600101615974565b73ffffffffffffffffffffffffffffffffffffffff8716815285602082015260c0604082015260006159f560c0830187614d47565b8560608401528281036080840152615a0d8186615955565b905082810360a0840152615a21818561520a565b9998505050505050505050565b600082601f830112615a3f57600080fd5b81516020615a4f61495b836148bb565b8083825260208201915060208460051b870101935086841115615a7157600080fd5b602086015b84811015614bdb5780518352918301918301615a76565b60008060408385031215615aa057600080fd5b825167ffffffffffffffff80821115615ab857600080fd5b615ac486838701615a2e565b93506020850151915080821115615ada57600080fd5b50615ae785828601615a2e565b9150509250929050565b73ffffffffffffffffffffffffffffffffffffffff83168152604060208201526000612c356040830184615955565b828152604060208201526000612c35604083018461520a565b6020815260006115ab6020830184614d47565b7f4e487b7100000000000000000000000000000000000000000000000000000000600052601260045260246000fd5b8082028115828204841417610321576103216150a5565b600181815b80851115615beb57817fffffffffffffffffffffffffffffffffffffffffffffffffffffffffffffffff04821115615bd157615bd16150a5565b80851615615bde57918102915b93841c9390800290615b97565b509250929050565b600082615c0257506001610321565b81615c0f57506000610321565b8160018114615c255760028114615c2f57615c4b565b6001915050610321565b60ff841115615c4057615c406150a5565b50506001821b610321565b5060208310610133831016604e8410600b8410161715615c6e575081810a610321565b615c788383615b92565b807fffffffffffffffffffffffffffffffffffffffffffffffffffffffffffffffff04821115615caa57615caa6150a5565b029392505050565b60006115ab8383615bf3565b7f4e487b7100000000000000000000000000000000000000000000000000000000600052602160045260246000fd5b600060208284031215615cff57600080fd5b815180151581146115ab57600080fd5b60008251614f4b818460208701614d23565b828152604060208201526000612c356040830184614d4756fe416464726573733a206c6f772d6c6576656c2064656c65676174652063616c6c206661696c6564",
    "linkReferences": {}
  },
  "methodIdentifiers": {
    "addOrder2(((address,address,bytes),(address,uint8,uint256)[],(address,uint8,uint256)[],bytes32,bytes32,bytes),((address,address,bytes),(address,uint256[],bytes)[])[])": "a616864d",
    "clear2((address,(address,address,bytes),(address,uint8,uint256)[],(address,uint8,uint256)[],bytes32),(address,(address,address,bytes),(address,uint8,uint256)[],(address,uint8,uint256)[],bytes32),(uint256,uint256,uint256,uint256,uint256,uint256),(address,uint256[],bytes)[],(address,uint256[],bytes)[])": "a08f5dff",
    "deposit2(address,uint256,uint256,((address,address,bytes),(address,uint256[],bytes)[])[])": "91337c0a",
    "enact(((address,address,bytes),(address,uint256[],bytes)[])[])": "c1e4c4af",
    "flashFee(address,uint256)": "d9d98ce4",
    "flashLoan(address,address,uint256,bytes)": "5cffe9de",
    "maxFlashLoan(address)": "613255ab",
    "multicall(bytes[])": "ac9650d8",
    "orderExists(bytes32)": "2cb77e9f",
    "removeOrder2((address,(address,address,bytes),(address,uint8,uint256)[],(address,uint8,uint256)[],bytes32),((address,address,bytes),(address,uint256[],bytes)[])[])": "8d7b6beb",
    "supportsInterface(bytes4)": "01ffc9a7",
    "takeOrders2((uint256,uint256,uint256,((address,(address,address,bytes),(address,uint8,uint256)[],(address,uint8,uint256)[],bytes32),uint256,uint256,(address,uint256[],bytes)[])[],bytes))": "0997c4a0",
    "vaultBalance(address,address,uint256)": "d97b2e48",
    "withdraw2(address,uint256,uint256,((address,address,bytes),(address,uint256[],bytes)[])[])": "f513c42d"
  }
}