{"abi":[{"type":"function","name":"addOrder2","inputs":[{"name":"orderConfig","type":"tuple","internalType":"struct OrderConfigV3","components":[{"name":"evaluable","type":"tuple","internalType":"struct EvaluableV3","components":[{"name":"interpreter","type":"address","internalType":"contract IInterpreterV3"},{"name":"store","type":"address","internalType":"contract IInterpreterStoreV2"},{"name":"bytecode","type":"bytes","internalType":"bytes"}]},{"name":"validInputs","type":"tuple[]","internalType":"struct IO[]","components":[{"name":"token","type":"address","internalType":"address"},{"name":"decimals","type":"uint8","internalType":"uint8"},{"name":"vaultId","type":"uint256","internalType":"uint256"}]},{"name":"validOutputs","type":"tuple[]","internalType":"struct IO[]","components":[{"name":"token","type":"address","internalType":"address"},{"name":"decimals","type":"uint8","internalType":"uint8"},{"name":"vaultId","type":"uint256","internalType":"uint256"}]},{"name":"nonce","type":"bytes32","internalType":"bytes32"},{"name":"secret","type":"bytes32","internalType":"bytes32"},{"name":"meta","type":"bytes","internalType":"bytes"}]},{"name":"post","type":"tuple[]","internalType":"struct ActionV1[]","components":[{"name":"evaluable","type":"tuple","internalType":"struct EvaluableV3","components":[{"name":"interpreter","type":"address","internalType":"contract IInterpreterV3"},{"name":"store","type":"address","internalType":"contract IInterpreterStoreV2"},{"name":"bytecode","type":"bytes","internalType":"bytes"}]},{"name":"signedContext","type":"tuple[]","internalType":"struct SignedContextV1[]","components":[{"name":"signer","type":"address","internalType":"address"},{"name":"context","type":"uint256[]","internalType":"uint256[]"},{"name":"signature","type":"bytes","internalType":"bytes"}]}]}],"outputs":[{"name":"","type":"bool","internalType":"bool"}],"stateMutability":"nonpayable"},{"type":"function","name":"clear2","inputs":[{"name":"aliceOrder","type":"tuple","internalType":"struct OrderV3","components":[{"name":"owner","type":"address","internalType":"address"},{"name":"evaluable","type":"tuple","internalType":"struct EvaluableV3","components":[{"name":"interpreter","type":"address","internalType":"contract IInterpreterV3"},{"name":"store","type":"address","internalType":"contract IInterpreterStoreV2"},{"name":"bytecode","type":"bytes","internalType":"bytes"}]},{"name":"validInputs","type":"tuple[]","internalType":"struct IO[]","components":[{"name":"token","type":"address","internalType":"address"},{"name":"decimals","type":"uint8","internalType":"uint8"},{"name":"vaultId","type":"uint256","internalType":"uint256"}]},{"name":"validOutputs","type":"tuple[]","internalType":"struct IO[]","components":[{"name":"token","type":"address","internalType":"address"},{"name":"decimals","type":"uint8","internalType":"uint8"},{"name":"vaultId","type":"uint256","internalType":"uint256"}]},{"name":"nonce","type":"bytes32","internalType":"bytes32"}]},{"name":"bobOrder","type":"tuple","internalType":"struct OrderV3","components":[{"name":"owner","type":"address","internalType":"address"},{"name":"evaluable","type":"tuple","internalType":"struct EvaluableV3","components":[{"name":"interpreter","type":"address","internalType":"contract IInterpreterV3"},{"name":"store","type":"address","internalType":"contract IInterpreterStoreV2"},{"name":"bytecode","type":"bytes","internalType":"bytes"}]},{"name":"validInputs","type":"tuple[]","internalType":"struct IO[]","components":[{"name":"token","type":"address","internalType":"address"},{"name":"decimals","type":"uint8","internalType":"uint8"},{"name":"vaultId","type":"uint256","internalType":"uint256"}]},{"name":"validOutputs","type":"tuple[]","internalType":"struct IO[]","components":[{"name":"token","type":"address","internalType":"address"},{"name":"decimals","type":"uint8","internalType":"uint8"},{"name":"vaultId","type":"uint256","internalType":"uint256"}]},{"name":"nonce","type":"bytes32","internalType":"bytes32"}]},{"name":"clearConfig","type":"tuple","internalType":"struct ClearConfig","components":[{"name":"aliceInputIOIndex","type":"uint256","internalType":"uint256"},{"name":"aliceOutputIOIndex","type":"uint256","internalType":"uint256"},{"name":"bobInputIOIndex","type":"uint256","internalType":"uint256"},{"name":"bobOutputIOIndex","type":"uint256","internalType":"uint256"},{"name":"aliceBountyVaultId","type":"uint256","internalType":"uint256"},{"name":"bobBountyVaultId","type":"uint256","internalType":"uint256"}]},{"name":"aliceSignedContext","type":"tuple[]","internalType":"struct SignedContextV1[]","components":[{"name":"signer","type":"address","internalType":"address"},{"name":"context","type":"uint256[]","internalType":"uint256[]"},{"name":"signature","type":"bytes","internalType":"bytes"}]},{"name":"bobSignedContext","type":"tuple[]","internalType":"struct SignedContextV1[]","components":[{"name":"signer","type":"address","internalType":"address"},{"name":"context","type":"uint256[]","internalType":"uint256[]"},{"name":"signature","type":"bytes","internalType":"bytes"}]}],"outputs":[],"stateMutability":"nonpayable"},{"type":"function","name":"deposit2","inputs":[{"name":"token","type":"address","internalType":"address"},{"name":"vaultId","type":"uint256","internalType":"uint256"},{"name":"depositAmount","type":"uint256","internalType":"uint256"},{"name":"post","type":"tuple[]","internalType":"struct ActionV1[]","components":[{"name":"evaluable","type":"tuple","internalType":"struct EvaluableV3","components":[{"name":"interpreter","type":"address","internalType":"contract IInterpreterV3"},{"name":"store","type":"address","internalType":"contract IInterpreterStoreV2"},{"name":"bytecode","type":"bytes","internalType":"bytes"}]},{"name":"signedContext","type":"tuple[]","internalType":"struct SignedContextV1[]","components":[{"name":"signer","type":"address","internalType":"address"},{"name":"context","type":"uint256[]","internalType":"uint256[]"},{"name":"signature","type":"bytes","internalType":"bytes"}]}]}],"outputs":[],"stateMutability":"nonpayable"},{"type":"function","name":"enact","inputs":[{"name":"post","type":"tuple[]","internalType":"struct ActionV1[]","components":[{"name":"evaluable","type":"tuple","internalType":"struct EvaluableV3","components":[{"name":"interpreter","type":"address","internalType":"contract IInterpreterV3"},{"name":"store","type":"address","internalType":"contract IInterpreterStoreV2"},{"name":"bytecode","type":"bytes","internalType":"bytes"}]},{"name":"signedContext","type":"tuple[]","internalType":"struct SignedContextV1[]","components":[{"name":"signer","type":"address","internalType":"address"},{"name":"context","type":"uint256[]","internalType":"uint256[]"},{"name":"signature","type":"bytes","internalType":"bytes"}]}]}],"outputs":[],"stateMutability":"nonpayable"},{"type":"function","name":"flashFee","inputs":[{"name":"","type":"address","internalType":"address"},{"name":"","type":"uint256","internalType":"uint256"}],"outputs":[{"name":"","type":"uint256","internalType":"uint256"}],"stateMutability":"pure"},{"type":"function","name":"flashLoan","inputs":[{"name":"receiver","type":"address","internalType":"contract IERC3156FlashBorrower"},{"name":"token","type":"address","internalType":"address"},{"name":"amount","type":"uint256","internalType":"uint256"},{"name":"data","type":"bytes","internalType":"bytes"}],"outputs":[{"name":"","type":"bool","internalType":"bool"}],"stateMutability":"nonpayable"},{"type":"function","name":"maxFlashLoan","inputs":[{"name":"token","type":"address","internalType":"address"}],"outputs":[{"name":"","type":"uint256","internalType":"uint256"}],"stateMutability":"view"},{"type":"function","name":"multicall","inputs":[{"name":"data","type":"bytes[]","internalType":"bytes[]"}],"outputs":[{"name":"results","type":"bytes[]","internalType":"bytes[]"}],"stateMutability":"nonpayable"},{"type":"function","name":"orderExists","inputs":[{"name":"orderHash","type":"bytes32","internalType":"bytes32"}],"outputs":[{"name":"","type":"bool","internalType":"bool"}],"stateMutability":"view"},{"type":"function","name":"quote","inputs":[{"name":"quoteConfig","type":"tuple","internalType":"struct Quote","components":[{"name":"order","type":"tuple","internalType":"struct OrderV3","components":[{"name":"owner","type":"address","internalType":"address"},{"name":"evaluable","type":"tuple","internalType":"struct EvaluableV3","components":[{"name":"interpreter","type":"address","internalType":"contract IInterpreterV3"},{"name":"store","type":"address","internalType":"contract IInterpreterStoreV2"},{"name":"bytecode","type":"bytes","internalType":"bytes"}]},{"name":"validInputs","type":"tuple[]","internalType":"struct IO[]","components":[{"name":"token","type":"address","internalType":"address"},{"name":"decimals","type":"uint8","internalType":"uint8"},{"name":"vaultId","type":"uint256","internalType":"uint256"}]},{"name":"validOutputs","type":"tuple[]","internalType":"struct IO[]","components":[{"name":"token","type":"address","internalType":"address"},{"name":"decimals","type":"uint8","internalType":"uint8"},{"name":"vaultId","type":"uint256","internalType":"uint256"}]},{"name":"nonce","type":"bytes32","internalType":"bytes32"}]},{"name":"inputIOIndex","type":"uint256","internalType":"uint256"},{"name":"outputIOIndex","type":"uint256","internalType":"uint256"},{"name":"signedContext","type":"tuple[]","internalType":"struct SignedContextV1[]","components":[{"name":"signer","type":"address","internalType":"address"},{"name":"context","type":"uint256[]","internalType":"uint256[]"},{"name":"signature","type":"bytes","internalType":"bytes"}]}]}],"outputs":[{"name":"","type":"bool","internalType":"bool"},{"name":"","type":"uint256","internalType":"uint256"},{"name":"","type":"uint256","internalType":"uint256"}],"stateMutability":"view"},{"type":"function","name":"removeOrder2","inputs":[{"name":"order","type":"tuple","internalType":"struct OrderV3","components":[{"name":"owner","type":"address","internalType":"address"},{"name":"evaluable","type":"tuple","internalType":"struct EvaluableV3","components":[{"name":"interpreter","type":"address","internalType":"contract IInterpreterV3"},{"name":"store","type":"address","internalType":"contract IInterpreterStoreV2"},{"name":"bytecode","type":"bytes","internalType":"bytes"}]},{"name":"validInputs","type":"tuple[]","internalType":"struct IO[]","components":[{"name":"token","type":"address","internalType":"address"},{"name":"decimals","type":"uint8","internalType":"uint8"},{"name":"vaultId","type":"uint256","internalType":"uint256"}]},{"name":"validOutputs","type":"tuple[]","internalType":"struct IO[]","components":[{"name":"token","type":"address","internalType":"address"},{"name":"decimals","type":"uint8","internalType":"uint8"},{"name":"vaultId","type":"uint256","internalType":"uint256"}]},{"name":"nonce","type":"bytes32","internalType":"bytes32"}]},{"name":"post","type":"tuple[]","internalType":"struct ActionV1[]","components":[{"name":"evaluable","type":"tuple","internalType":"struct EvaluableV3","components":[{"name":"interpreter","type":"address","internalType":"contract IInterpreterV3"},{"name":"store","type":"address","internalType":"contract IInterpreterStoreV2"},{"name":"bytecode","type":"bytes","internalType":"bytes"}]},{"name":"signedContext","type":"tuple[]","internalType":"struct SignedContextV1[]","components":[{"name":"signer","type":"address","internalType":"address"},{"name":"context","type":"uint256[]","internalType":"uint256[]"},{"name":"signature","type":"bytes","internalType":"bytes"}]}]}],"outputs":[{"name":"stateChanged","type":"bool","internalType":"bool"}],"stateMutability":"nonpayable"},{"type":"function","name":"supportsInterface","inputs":[{"name":"interfaceId","type":"bytes4","internalType":"bytes4"}],"outputs":[{"name":"","type":"bool","internalType":"bool"}],"stateMutability":"view"},{"type":"function","name":"takeOrders2","inputs":[{"name":"config","type":"tuple","internalType":"struct TakeOrdersConfigV3","components":[{"name":"minimumInput","type":"uint256","internalType":"uint256"},{"name":"maximumInput","type":"uint256","internalType":"uint256"},{"name":"maximumIORatio","type":"uint256","internalType":"uint256"},{"name":"orders","type":"tuple[]","internalType":"struct TakeOrderConfigV3[]","components":[{"name":"order","type":"tuple","internalType":"struct OrderV3","components":[{"name":"owner","type":"address","internalType":"address"},{"name":"evaluable","type":"tuple","internalType":"struct EvaluableV3","components":[{"name":"interpreter","type":"address","internalType":"contract IInterpreterV3"},{"name":"store","type":"address","internalType":"contract IInterpreterStoreV2"},{"name":"bytecode","type":"bytes","internalType":"bytes"}]},{"name":"validInputs","type":"tuple[]","internalType":"struct IO[]","components":[{"name":"token","type":"address","internalType":"address"},{"name":"decimals","type":"uint8","internalType":"uint8"},{"name":"vaultId","type":"uint256","internalType":"uint256"}]},{"name":"validOutputs","type":"tuple[]","internalType":"struct IO[]","components":[{"name":"token","type":"address","internalType":"address"},{"name":"decimals","type":"uint8","internalType":"uint8"},{"name":"vaultId","type":"uint256","internalType":"uint256"}]},{"name":"nonce","type":"bytes32","internalType":"bytes32"}]},{"name":"inputIOIndex","type":"uint256","internalType":"uint256"},{"name":"outputIOIndex","type":"uint256","internalType":"uint256"},{"name":"signedContext","type":"tuple[]","internalType":"struct SignedContextV1[]","components":[{"name":"signer","type":"address","internalType":"address"},{"name":"context","type":"uint256[]","internalType":"uint256[]"},{"name":"signature","type":"bytes","internalType":"bytes"}]}]},{"name":"data","type":"bytes","internalType":"bytes"}]}],"outputs":[{"name":"totalTakerInput","type":"uint256","internalType":"uint256"},{"name":"totalTakerOutput","type":"uint256","internalType":"uint256"}],"stateMutability":"nonpayable"},{"type":"function","name":"vaultBalance","inputs":[{"name":"owner","type":"address","internalType":"address"},{"name":"token","type":"address","internalType":"address"},{"name":"vaultId","type":"uint256","internalType":"uint256"}],"outputs":[{"name":"","type":"uint256","internalType":"uint256"}],"stateMutability":"view"},{"type":"function","name":"withdraw2","inputs":[{"name":"token","type":"address","internalType":"address"},{"name":"vaultId","type":"uint256","internalType":"uint256"},{"name":"targetAmount","type":"uint256","internalType":"uint256"},{"name":"post","type":"tuple[]","internalType":"struct ActionV1[]","components":[{"name":"evaluable","type":"tuple","internalType":"struct EvaluableV3","components":[{"name":"interpreter","type":"address","internalType":"contract IInterpreterV3"},{"name":"store","type":"address","internalType":"contract IInterpreterStoreV2"},{"name":"bytecode","type":"bytes","internalType":"bytes"}]},{"name":"signedContext","type":"tuple[]","internalType":"struct SignedContextV1[]","components":[{"name":"signer","type":"address","internalType":"address"},{"name":"context","type":"uint256[]","internalType":"uint256[]"},{"name":"signature","type":"bytes","internalType":"bytes"}]}]}],"outputs":[],"stateMutability":"nonpayable"},{"type":"event","name":"AddOrderV2","inputs":[{"name":"sender","type":"address","indexed":false,"internalType":"address"},{"name":"orderHash","type":"bytes32","indexed":false,"internalType":"bytes32"},{"name":"order","type":"tuple","indexed":false,"internalType":"struct OrderV3","components":[{"name":"owner","type":"address","internalType":"address"},{"name":"evaluable","type":"tuple","internalType":"struct EvaluableV3","components":[{"name":"interpreter","type":"address","internalType":"contract IInterpreterV3"},{"name":"store","type":"address","internalType":"contract IInterpreterStoreV2"},{"name":"bytecode","type":"bytes","internalType":"bytes"}]},{"name":"validInputs","type":"tuple[]","internalType":"struct IO[]","components":[{"name":"token","type":"address","internalType":"address"},{"name":"decimals","type":"uint8","internalType":"uint8"},{"name":"vaultId","type":"uint256","internalType":"uint256"}]},{"name":"validOutputs","type":"tuple[]","internalType":"struct IO[]","components":[{"name":"token","type":"address","internalType":"address"},{"name":"decimals","type":"uint8","internalType":"uint8"},{"name":"vaultId","type":"uint256","internalType":"uint256"}]},{"name":"nonce","type":"bytes32","internalType":"bytes32"}]}],"anonymous":false},{"type":"event","name":"AfterClear","inputs":[{"name":"sender","type":"address","indexed":false,"internalType":"address"},{"name":"clearStateChange","type":"tuple","indexed":false,"internalType":"struct ClearStateChange","components":[{"name":"aliceOutput","type":"uint256","internalType":"uint256"},{"name":"bobOutput","type":"uint256","internalType":"uint256"},{"name":"aliceInput","type":"uint256","internalType":"uint256"},{"name":"bobInput","type":"uint256","internalType":"uint256"}]}],"anonymous":false},{"type":"event","name":"ClearV2","inputs":[{"name":"sender","type":"address","indexed":false,"internalType":"address"},{"name":"alice","type":"tuple","indexed":false,"internalType":"struct OrderV3","components":[{"name":"owner","type":"address","internalType":"address"},{"name":"evaluable","type":"tuple","internalType":"struct EvaluableV3","components":[{"name":"interpreter","type":"address","internalType":"contract IInterpreterV3"},{"name":"store","type":"address","internalType":"contract IInterpreterStoreV2"},{"name":"bytecode","type":"bytes","internalType":"bytes"}]},{"name":"validInputs","type":"tuple[]","internalType":"struct IO[]","components":[{"name":"token","type":"address","internalType":"address"},{"name":"decimals","type":"uint8","internalType":"uint8"},{"name":"vaultId","type":"uint256","internalType":"uint256"}]},{"name":"validOutputs","type":"tuple[]","internalType":"struct IO[]","components":[{"name":"token","type":"address","internalType":"address"},{"name":"decimals","type":"uint8","internalType":"uint8"},{"name":"vaultId","type":"uint256","internalType":"uint256"}]},{"name":"nonce","type":"bytes32","internalType":"bytes32"}]},{"name":"bob","type":"tuple","indexed":false,"internalType":"struct OrderV3","components":[{"name":"owner","type":"address","internalType":"address"},{"name":"evaluable","type":"tuple","internalType":"struct EvaluableV3","components":[{"name":"interpreter","type":"address","internalType":"contract IInterpreterV3"},{"name":"store","type":"address","internalType":"contract IInterpreterStoreV2"},{"name":"bytecode","type":"bytes","internalType":"bytes"}]},{"name":"validInputs","type":"tuple[]","internalType":"struct IO[]","components":[{"name":"token","type":"address","internalType":"address"},{"name":"decimals","type":"uint8","internalType":"uint8"},{"name":"vaultId","type":"uint256","internalType":"uint256"}]},{"name":"validOutputs","type":"tuple[]","internalType":"struct IO[]","components":[{"name":"token","type":"address","internalType":"address"},{"name":"decimals","type":"uint8","internalType":"uint8"},{"name":"vaultId","type":"uint256","internalType":"uint256"}]},{"name":"nonce","type":"bytes32","internalType":"bytes32"}]},{"name":"clearConfig","type":"tuple","indexed":false,"internalType":"struct ClearConfig","components":[{"name":"aliceInputIOIndex","type":"uint256","internalType":"uint256"},{"name":"aliceOutputIOIndex","type":"uint256","internalType":"uint256"},{"name":"bobInputIOIndex","type":"uint256","internalType":"uint256"},{"name":"bobOutputIOIndex","type":"uint256","internalType":"uint256"},{"name":"aliceBountyVaultId","type":"uint256","internalType":"uint256"},{"name":"bobBountyVaultId","type":"uint256","internalType":"uint256"}]}],"anonymous":false},{"type":"event","name":"Context","inputs":[{"name":"sender","type":"address","indexed":false,"internalType":"address"},{"name":"context","type":"uint256[][]","indexed":false,"internalType":"uint256[][]"}],"anonymous":false},{"type":"event","name":"Deposit","inputs":[{"name":"sender","type":"address","indexed":false,"internalType":"address"},{"name":"token","type":"address","indexed":false,"internalType":"address"},{"name":"vaultId","type":"uint256","indexed":false,"internalType":"uint256"},{"name":"amount","type":"uint256","indexed":false,"internalType":"uint256"}],"anonymous":false},{"type":"event","name":"MetaV1_2","inputs":[{"name":"sender","type":"address","indexed":false,"internalType":"address"},{"name":"subject","type":"bytes32","indexed":false,"internalType":"bytes32"},{"name":"meta","type":"bytes","indexed":false,"internalType":"bytes"}],"anonymous":false},{"type":"event","name":"OrderExceedsMaxRatio","inputs":[{"name":"sender","type":"address","indexed":false,"internalType":"address"},{"name":"owner","type":"address","indexed":false,"internalType":"address"},{"name":"orderHash","type":"bytes32","indexed":false,"internalType":"bytes32"}],"anonymous":false},{"type":"event","name":"OrderNotFound","inputs":[{"name":"sender","type":"address","indexed":false,"internalType":"address"},{"name":"owner","type":"address","indexed":false,"internalType":"address"},{"name":"orderHash","type":"bytes32","indexed":false,"internalType":"bytes32"}],"anonymous":false},{"type":"event","name":"OrderZeroAmount","inputs":[{"name":"sender","type":"address","indexed":false,"internalType":"address"},{"name":"owner","type":"address","indexed":false,"internalType":"address"},{"name":"orderHash","type":"bytes32","indexed":false,"internalType":"bytes32"}],"anonymous":false},{"type":"event","name":"RemoveOrderV2","inputs":[{"name":"sender","type":"address","indexed":false,"internalType":"address"},{"name":"orderHash","type":"bytes32","indexed":false,"internalType":"bytes32"},{"name":"order","type":"tuple","indexed":false,"internalType":"struct OrderV3","components":[{"name":"owner","type":"address","internalType":"address"},{"name":"evaluable","type":"tuple","internalType":"struct EvaluableV3","components":[{"name":"interpreter","type":"address","internalType":"contract IInterpreterV3"},{"name":"store","type":"address","internalType":"contract IInterpreterStoreV2"},{"name":"bytecode","type":"bytes","internalType":"bytes"}]},{"name":"validInputs","type":"tuple[]","internalType":"struct IO[]","components":[{"name":"token","type":"address","internalType":"address"},{"name":"decimals","type":"uint8","internalType":"uint8"},{"name":"vaultId","type":"uint256","internalType":"uint256"}]},{"name":"validOutputs","type":"tuple[]","internalType":"struct IO[]","components":[{"name":"token","type":"address","internalType":"address"},{"name":"decimals","type":"uint8","internalType":"uint8"},{"name":"vaultId","type":"uint256","internalType":"uint256"}]},{"name":"nonce","type":"bytes32","internalType":"bytes32"}]}],"anonymous":false},{"type":"event","name":"TakeOrderV2","inputs":[{"name":"sender","type":"address","indexed":false,"internalType":"address"},{"name":"config","type":"tuple","indexed":false,"internalType":"struct TakeOrderConfigV3","components":[{"name":"order","type":"tuple","internalType":"struct OrderV3","components":[{"name":"owner","type":"address","internalType":"address"},{"name":"evaluable","type":"tuple","internalType":"struct EvaluableV3","components":[{"name":"interpreter","type":"address","internalType":"contract IInterpreterV3"},{"name":"store","type":"address","internalType":"contract IInterpreterStoreV2"},{"name":"bytecode","type":"bytes","internalType":"bytes"}]},{"name":"validInputs","type":"tuple[]","internalType":"struct IO[]","components":[{"name":"token","type":"address","internalType":"address"},{"name":"decimals","type":"uint8","internalType":"uint8"},{"name":"vaultId","type":"uint256","internalType":"uint256"}]},{"name":"validOutputs","type":"tuple[]","internalType":"struct IO[]","components":[{"name":"token","type":"address","internalType":"address"},{"name":"decimals","type":"uint8","internalType":"uint8"},{"name":"vaultId","type":"uint256","internalType":"uint256"}]},{"name":"nonce","type":"bytes32","internalType":"bytes32"}]},{"name":"inputIOIndex","type":"uint256","internalType":"uint256"},{"name":"outputIOIndex","type":"uint256","internalType":"uint256"},{"name":"signedContext","type":"tuple[]","internalType":"struct SignedContextV1[]","components":[{"name":"signer","type":"address","internalType":"address"},{"name":"context","type":"uint256[]","internalType":"uint256[]"},{"name":"signature","type":"bytes","internalType":"bytes"}]}]},{"name":"input","type":"uint256","indexed":false,"internalType":"uint256"},{"name":"output","type":"uint256","indexed":false,"internalType":"uint256"}],"anonymous":false},{"type":"event","name":"Withdraw","inputs":[{"name":"sender","type":"address","indexed":false,"internalType":"address"},{"name":"token","type":"address","indexed":false,"internalType":"address"},{"name":"vaultId","type":"uint256","indexed":false,"internalType":"uint256"},{"name":"targetAmount","type":"uint256","indexed":false,"internalType":"uint256"},{"name":"amount","type":"uint256","indexed":false,"internalType":"uint256"}],"anonymous":false},{"type":"error","name":"FlashLenderCallbackFailed","inputs":[{"name":"result","type":"bytes32","internalType":"bytes32"}]},{"type":"error","name":"InvalidSignature","inputs":[{"name":"i","type":"uint256","internalType":"uint256"}]},{"type":"error","name":"MinimumInput","inputs":[{"name":"minimumInput","type":"uint256","internalType":"uint256"},{"name":"input","type":"uint256","internalType":"uint256"}]},{"type":"error","name":"NoOrders","inputs":[]},{"type":"error","name":"NotOrderOwner","inputs":[{"name":"sender","type":"address","internalType":"address"},{"name":"owner","type":"address","internalType":"address"}]},{"type":"error","name":"NotRainMetaV1","inputs":[{"name":"unmeta","type":"bytes","internalType":"bytes"}]},{"type":"error","name":"OrderNoHandleIO","inputs":[]},{"type":"error","name":"OrderNoInputs","inputs":[]},{"type":"error","name":"OrderNoOutputs","inputs":[]},{"type":"error","name":"OrderNoSources","inputs":[]},{"type":"error","name":"SameOwner","inputs":[{"name":"owner","type":"address","internalType":"address"}]},{"type":"error","name":"TokenDecimalsMismatch","inputs":[{"name":"aliceTokenDecimals","type":"uint8","internalType":"uint8"},{"name":"bobTokenDecimals","type":"uint8","internalType":"uint8"}]},{"type":"error","name":"TokenMismatch","inputs":[{"name":"aliceToken","type":"address","internalType":"address"},{"name":"bobToken","type":"address","internalType":"address"}]},{"type":"error","name":"UnsupportedCalculateOutputs","inputs":[{"name":"outputs","type":"uint256","internalType":"uint256"}]},{"type":"error","name":"ZeroDepositAmount","inputs":[{"name":"sender","type":"address","internalType":"address"},{"name":"token","type":"address","internalType":"address"},{"name":"vaultId","type":"uint256","internalType":"uint256"}]},{"type":"error","name":"ZeroMaximumInput","inputs":[]},{"type":"error","name":"ZeroWithdrawTargetAmount","inputs":[{"name":"sender","type":"address","internalType":"address"},{"name":"token","type":"address","internalType":"address"},{"name":"vaultId","type":"uint256","internalType":"uint256"}]}],"bytecode":{"object":"0x6080604052348015600e575f80fd5b5060015f55615fd4806100205f395ff3fe608060405234801561000f575f80fd5b50600436106100f0575f3560e01c8063a08f5dff11610093578063d97b2e4811610063578063d97b2e481461021c578063d9d98ce414610268578063e0e530b71461027d578063f513c42d146102ad575f80fd5b8063a08f5dff146101c3578063a616864d146101d6578063ac9650d8146101e9578063c1e4c4af14610209575f80fd5b80635cffe9de116100ce5780635cffe9de14610167578063613255ab1461017a5780638d7b6beb1461019b57806391337c0a146101ae575f80fd5b806301ffc9a7146100f45780630997c4a01461011c5780632cb77e9f14610144575b5f80fd5b610107610102366004614700565b6102c0565b60405190151581526020015b60405180910390f35b61012f61012a366004614755565b610358565b60408051928352602083019190915201610113565b610107610152366004614787565b5f908152600160208190526040909120541490565b6101076101753660046147cf565b611221565b61018d610188366004614866565b61137a565b604051908152602001610113565b6101076101a93660046148c2565b611408565b6101c16101bc366004614926565b6115a7565b005b6101c16101d1366004614e5c565b611807565b6101076101e4366004614f16565b611f24565b6101fc6101f7366004614f4b565b612207565b6040516101139190614fd6565b6101c1610217366004614f4b565b6122ed565b61018d61022a366004615056565b73ffffffffffffffffffffffffffffffffffffffff9283165f9081526002602090815260408083209490951682529283528381209181529152205490565b61018d610276366004615094565b5f92915050565b61029061028b3660046150be565b61233a565b604080519315158452602084019290925290820152606001610113565b6101c16102bb366004614926565b6123d7565b5f7fffffffff0000000000000000000000000000000000000000000000000000000082167fe414309100000000000000000000000000000000000000000000000000000000148061035257507f01ffc9a7000000000000000000000000000000000000000000000000000000007fffffffff000000000000000000000000000000000000000000000000000000008316145b92915050565b5f8061036261263c565b61036f60608401846150f5565b90505f036103a9576040517f9c95219f00000000000000000000000000000000000000000000000000000000815260040160405180910390fd5b6103b1614607565b6103b9614633565b60605f6103c8878301886150f5565b6040805160206001939093018302810190915293508801359150505f81900361041d576040517fc2ee700900000000000000000000000000000000000000000000000000000000815260040160405180910390fd5b5f5b61042c60608901896150f5565b90508110801561043b57505f82115b15610e3b5761044d60608901896150f5565b8281811061045d5761045d615159565b905060200281019061046f9190615186565b610478906151c2565b8051909550935061048c60608901896150f5565b5f81811061049c5761049c615159565b90506020028101906104ae9190615186565b6104b89080615258565b6104c690604081019061528a565b6104d360608b018b6150f5565b5f8181106104e3576104e3615159565b90506020028101906104f59190615186565b6020013581811061050857610508615159565b61051e9260206060909202019081019150614866565b73ffffffffffffffffffffffffffffffffffffffff16846040015186602001518151811061054e5761054e615159565b60200260200101515f015173ffffffffffffffffffffffffffffffffffffffff161461069057836040015185602001518151811061058e5761058e615159565b6020908102919091010151516105a760608a018a6150f5565b5f8181106105b7576105b7615159565b90506020028101906105c99190615186565b6105d39080615258565b6105e190604081019061528a565b6105ee60608c018c6150f5565b5f8181106105fe576105fe615159565b90506020028101906106109190615186565b6020013581811061062357610623615159565b6106399260206060909202019081019150614866565b6040517ff902523f00000000000000000000000000000000000000000000000000000000815273ffffffffffffffffffffffffffffffffffffffff9283166004820152911660248201526044015b60405180910390fd5b61069d60608901896150f5565b5f8181106106ad576106ad615159565b90506020028101906106bf9190615186565b6106c99080615258565b6106d790606081019061528a565b6106e460608b018b6150f5565b5f8181106106f4576106f4615159565b90506020028101906107069190615186565b6040013581811061071957610719615159565b61072f9260206060909202019081019150614866565b73ffffffffffffffffffffffffffffffffffffffff16846060015186604001518151811061075f5761075f615159565b60200260200101515f015173ffffffffffffffffffffffffffffffffffffffff161461083457836060015185604001518151811061079f5761079f615159565b6020908102919091010151516107b860608a018a6150f5565b5f8181106107c8576107c8615159565b90506020028101906107da9190615186565b6107e49080615258565b6107f290606081019061528a565b6107ff60608c018c6150f5565b5f81811061080f5761080f615159565b90506020028101906108219190615186565b6040013581811061062357610623615159565b61084160608901896150f5565b5f81811061085157610851615159565b90506020028101906108639190615186565b61086d9080615258565b61087b90604081019061528a565b61088860608b018b6150f5565b5f81811061089857610898615159565b90506020028101906108aa9190615186565b602001358181106108bd576108bd615159565b90506060020160200160208101906108d591906152ed565b60ff1684604001518660200151815181106108f2576108f2615159565b60200260200101516020015160ff1614610a0f57836040015185602001518151811061092057610920615159565b60200260200101516020015188806060019061093c91906150f5565b5f81811061094c5761094c615159565b905060200281019061095e9190615186565b6109689080615258565b61097690604081019061528a565b61098360608c018c6150f5565b5f81811061099357610993615159565b90506020028101906109a59190615186565b602001358181106109b8576109b8615159565b90506060020160200160208101906109d091906152ed565b6040517f0f6ce47700000000000000000000000000000000000000000000000000000000815260ff928316600482015291166024820152604401610687565b610a1c60608901896150f5565b5f818110610a2c57610a2c615159565b9050602002810190610a3e9190615186565b610a489080615258565b610a5690606081019061528a565b610a6360608b018b6150f5565b5f818110610a7357610a73615159565b9050602002810190610a859190615186565b60400135818110610a9857610a98615159565b9050606002016020016020810190610ab091906152ed565b60ff168460600151866040015181518110610acd57610acd615159565b60200260200101516020015160ff1614610b93578360600151856040015181518110610afb57610afb615159565b602002602001015160200151888060600190610b1791906150f5565b5f818110610b2757610b27615159565b9050602002810190610b399190615186565b610b439080615258565b610b5190606081019061528a565b610b5e60608c018c6150f5565b5f818110610b6e57610b6e615159565b9050602002810190610b809190615186565b604001358181106109b8576109b8615159565b5f610b9d856126ad565b5f81815260016020526040902054909150610c0f5784516040805133815273ffffffffffffffffffffffffffffffffffffffff909216602083015281018290527fb70c12fa453793fa6818ec07c91e74363a47aa6a6829dcd9533937fdf30314f39060600160405180910390a1610e32565b5f610c298688602001518960400151338b606001516126dc565b9050896040013581606001511115610c995785516040805133815273ffffffffffffffffffffffffffffffffffffffff909216602083015281018390527fe3151dc8cb7a54ffc4baabd28c1f241c94d510b5e5b502491ac3cad6c16316d5906060015b60405180910390a1610e30565b80604001515f03610cf95785516040805133815273ffffffffffffffffffffffffffffffffffffffff909216602083015281018390527f500b713857325f9e6dcb52ae832eca9109d107ed1aae9cb4928b4c1e13f051aa90606001610c8c565b5f8660600151886040015181518110610d1457610d14615159565b602090810291909101810151015160408301519091505f610d3a8760ff85166002612e39565b905080821115610d48578091505b505f80610d658560600151600185612ebd9092919063ffffffff16565b9050610da58a604001518c6020015181518110610d8457610d84615159565b60200260200101516020015160ff16600183612eda9092919063ffffffff16565b91505f9050610db98360ff86166002612eda565b9050610dc58189615335565b9750610dd1828d615348565b9b50610dde828287612f3b565b7f10de99b9032184587540c04e1850dff94a7683ae1fcc9eb06098621c739c0275338c8385604051610e139493929190615497565b60405180910390a150508651600101808852602002870183905250505b505b5060010161041f565b610e498260208a0135615335565b965050508535851015610e92576040517f45094d880000000000000000000000000000000000000000000000000000000081528635600482015260248101869052604401610687565b8415610f5957610f593386610eaa60608a018a6150f5565b5f818110610eba57610eba615159565b9050602002810190610ecc9190615186565b610ed69080615258565b610ee490606081019061528a565b610ef160608c018c6150f5565b5f818110610f0157610f01615159565b9050602002810190610f139190615186565b60400135818110610f2657610f26615159565b610f3c9260206060909202019081019150614866565b73ffffffffffffffffffffffffffffffffffffffff1691906132a5565b5f610f6760808801886155ca565b90501115611111573363059bebe6610f8260608901896150f5565b5f818110610f9257610f92615159565b9050602002810190610fa49190615186565b610fae9080615258565b610fbc90606081019061528a565b610fc960608b018b6150f5565b5f818110610fd957610fd9615159565b9050602002810190610feb9190615186565b60400135818110610ffe57610ffe615159565b6110149260206060909202019081019150614866565b61102160608a018a6150f5565b5f81811061103157611031615159565b90506020028101906110439190615186565b61104d9080615258565b61105b90604081019061528a565b61106860608c018c6150f5565b5f81811061107857611078615159565b905060200281019061108a9190615186565b6020013581811061109d5761109d615159565b6110b39260206060909202019081019150614866565b88886110c260808d018d6155ca565b6040518763ffffffff1660e01b81526004016110e396959493929190615672565b5f604051808303815f87803b1580156110fa575f80fd5b505af115801561110c573d5f803e3d5ffd5b505050505b83156111da576111da33308661112a60608b018b6150f5565b5f81811061113a5761113a615159565b905060200281019061114c9190615186565b6111569080615258565b61116490604081019061528a565b61117160608d018d6150f5565b5f81811061118157611181615159565b90506020028101906111939190615186565b602001358181106111a6576111a6615159565b6111bc9260206060909202019081019150614866565b73ffffffffffffffffffffffffffffffffffffffff1692919061337e565b5f5b815181101561120f576112078282815181106111fa576111fa615159565b60200260200101516133e2565b6001016111dc565b5050505061121c60015f55565b915091565b5f61124373ffffffffffffffffffffffffffffffffffffffff861687866132a5565b6040517f23e30c8b0000000000000000000000000000000000000000000000000000000081525f9073ffffffffffffffffffffffffffffffffffffffff8816906323e30c8b906112a19033908a908a9087908b908b90600401615672565b6020604051808303815f875af11580156112bd573d5f803e3d5ffd5b505050506040513d601f19601f820116820180604052508101906112e191906156c3565b90507f439148f0bbc682ca079e46d6e2c2f0c1e3b820f1a291b069d8882abf8cf18dd9811461133f576040517f5b62c54800000000000000000000000000000000000000000000000000000000815260048101829052602401610687565b61136d873061134e5f89615348565b73ffffffffffffffffffffffffffffffffffffffff8a1692919061337e565b5060019695505050505050565b6040517f70a082310000000000000000000000000000000000000000000000000000000081523060048201525f9073ffffffffffffffffffffffffffffffffffffffff8316906370a0823190602401602060405180830381865afa1580156113e4573d5f803e3d5ffd5b505050506040513d601f19601f8201168201806040525081019061035291906156c3565b5f61141161263c565b61141e6020850185614866565b73ffffffffffffffffffffffffffffffffffffffff163373ffffffffffffffffffffffffffffffffffffffff16146114b0573361145e6020860186614866565b6040517f4702b91400000000000000000000000000000000000000000000000000000000815273ffffffffffffffffffffffffffffffffffffffff928316600482015291166024820152604401610687565b5f6114c26114bd866156da565b6126ad565b5f818152600160205260409020549091507fffffffffffffffffffffffffffffffffffffffffffffffffffffffffffffffff01611596575f8181526001602081905260408083209290925590519092507fa2d7a96afe77c99b6a2d72ca8b4d3c5c88b6466ee34ca74e0955951f449425c89061154390339084908990615860565b60405180910390a160408051600281526020810183905233818301526060810190915261159690611587905b60408051600181526020810192909252818101905290565b611591858761596d565b61361d565b506115a060015f55565b9392505050565b6115af61263c565b825f0361160d576040517f40e97a5e00000000000000000000000000000000000000000000000000000000815233600482015273ffffffffffffffffffffffffffffffffffffffff8616602482015260448101859052606401610687565b6040805133815273ffffffffffffffffffffffffffffffffffffffff87166020820152908101859052606081018490527fdcbc1c05240f31ff3ad067ef1ee35ce4997762752e3a095284754544f4c709d79060800160405180910390a161168c73ffffffffffffffffffffffffffffffffffffffff861633308661337e565b335f90815260026020908152604080832073ffffffffffffffffffffffffffffffffffffffff8916845282528083208784529091529020546116ce8482615348565b335f90815260026020908152604080832073ffffffffffffffffffffffffffffffffffffffff8b168452825280832089845290915290205581156117f6575f8673ffffffffffffffffffffffffffffffffffffffff1663313ce5676040518163ffffffff1660e01b8152600401602060405180830381865afa158015611756573d5f803e3d5ffd5b505050506040513d601f19601f8201168201806040525081019061177a9190615a2d565b60ff1690505f61178b83835f612e39565b90505f61179987845f612e39565b604080516004815273ffffffffffffffffffffffffffffffffffffffff8c1660208201528082018b9052606081018590526080810183905260a081019091529091506117f2906117e89061156f565b611591878961596d565b5050505b5061180060015f55565b5050505050565b61180f61263c565b8351855173ffffffffffffffffffffffffffffffffffffffff91821691160361187f5784516040517f227e4ce900000000000000000000000000000000000000000000000000000000815273ffffffffffffffffffffffffffffffffffffffff9091166004820152602401610687565b836040015183604001358151811061189957611899615159565b60200260200101515f015173ffffffffffffffffffffffffffffffffffffffff1685606001518460200135815181106118d4576118d4615159565b60200260200101515f015173ffffffffffffffffffffffffffffffffffffffff161461199757846060015183602001358151811061191457611914615159565b60200260200101515f0151846040015184604001358151811061193957611939615159565b6020908102919091010151516040517ff902523f00000000000000000000000000000000000000000000000000000000815273ffffffffffffffffffffffffffffffffffffffff928316600482015291166024820152604401610687565b83604001518360400135815181106119b1576119b1615159565b60200260200101516020015160ff1685606001518460200135815181106119da576119da615159565b60200260200101516020015160ff1614611a7d578460600151836020013581518110611a0857611a08615159565b6020026020010151602001518460400151846040013581518110611a2e57611a2e615159565b6020026020010151602001516040517f0f6ce47700000000000000000000000000000000000000000000000000000000815260040161068792919060ff92831681529116602082015260400190565b604085015180518435908110611a9557611a95615159565b60200260200101515f015173ffffffffffffffffffffffffffffffffffffffff168460600151846060013581518110611ad057611ad0615159565b60200260200101515f015173ffffffffffffffffffffffffffffffffffffffff1614611b3357604085015180518435908110611b0e57611b0e615159565b60200260200101515f0151846060015184606001358151811061193957611939615159565b604085015180518435908110611b4b57611b4b615159565b60200260200101516020015160ff168460600151846060013581518110611b7457611b74615159565b60200260200101516020015160ff1614611bc657604085015180518435908110611ba057611ba0615159565b6020026020010151602001518460600151846060013581518110611a2e57611a2e615159565b5f60015f611bd3886126ad565b81526020019081526020015f205403611c50577fb70c12fa453793fa6818ec07c91e74363a47aa6a6829dcd9533937fdf30314f333865f0151611c15886126ad565b6040805173ffffffffffffffffffffffffffffffffffffffff94851681529390921660208401529082015260600160405180910390a1611f1b565b5f60015f611c5d876126ad565b81526020019081526020015f205403611c9f577fb70c12fa453793fa6818ec07c91e74363a47aa6a6829dcd9533937fdf30314f333855f0151611c15876126ad565b7f692ee69af2843c70772be93470669f3c73e583316a047b6bfefdae5629de37ce33868686604051611cd49493929190615a48565b60405180910390a15f611cf486855f01358660200135885f0151866126dc565b90505f611d0f86866040013587606001358a5f0151886126dc565b90505f611d1c838361380f565b9050611d308160400151825f015185612f3b565b611d438160600151826020015184612f3b565b606081015181515f91611d5591615335565b90505f82604001518360200151611d6c9190615335565b90508115611e0c57335f908152600260209081526040822060608d01518051869492938d0135908110611da157611da1615159565b60200260200101515f015173ffffffffffffffffffffffffffffffffffffffff1673ffffffffffffffffffffffffffffffffffffffff1681526020019081526020015f205f8a6080013581526020019081526020015f205f828254611e069190615348565b90915550505b8015611ea857335f9081526002602052604081206060808c015180518594928d0135908110611e3d57611e3d615159565b60200260200101515f015173ffffffffffffffffffffffffffffffffffffffff1673ffffffffffffffffffffffffffffffffffffffff1681526020019081526020015f205f8a60a0013581526020019081526020015f205f828254611ea29190615348565b90915550505b5050604080513381528251602080830191909152830151818301529082015160608083019190915282015160808201527f3f20e55919cca701abb2a40ab72542b25ea7eed63a50f979dd2cd3231e5f488d9060a00160405180910390a1611f0e836133e2565b611f17826133e2565b5050505b61180060015f55565b5f611f2d61263c565b611f3a602085018561528a565b90505f03611f74576040517f6c44ef8f00000000000000000000000000000000000000000000000000000000815260040160405180910390fd5b611f81604085018561528a565b90505f03611fbb576040517f540e5f0b00000000000000000000000000000000000000000000000000000000815260040160405180910390fd5b6040805160a081019091523381525f9060208101611fd98780615ad1565b611fe290615b03565b8152602001868060200190611ff7919061528a565b808060200260200160405190810160405280939291908181526020015f905b828210156120425761203360608302860136819003810190615b0e565b81526020019060010190612016565b505050918352505060200161205a604088018861528a565b808060200260200160405190810160405280939291908181526020015f905b828210156120a55761209660608302860136819003810190615b0e565b81526020019060010190612079565b50505050508152602001866060013581525090505f6120c3826126ad565b5f818152600160205260409020549091501580156121fa575f8281526001602081905260409182902055835190517f3ce8bbe652d8778b67dd565c479c3bbaa843e55e477d075f756f889ec4bbdaee916121209185908790615b28565b60405180910390a15f61213660a08901896155ca565b905011156121d25761218761214e60a08901896155ca565b8080601f0160208091040260200160405190810160405280939291908181526020018383808284375f9201919091525061386192505050565b82517fd46c2c56b35c8210e9e712ec3f02242d5fc90187c0ac8ed80cc33626846ec36990836121b960a08b018b6155ca565b6040516121c99493929190615b5c565b60405180910390a15b6040805160028152602081018490523381830152606081019091526121fa906117e89061156f565b925050506115a060015f55565b604080515f8152602081019091526060908267ffffffffffffffff8111156122315761223161498b565b60405190808252806020026020018201604052801561226457816020015b606081526020019060019003908161224f5790505b5091505f5b838110156122e5576122c03086868481811061228757612287615159565b905060200281019061229991906155ca565b856040516020016122ac93929190615ba8565b6040516020818303038152906040526138a5565b8382815181106122d2576122d2615159565b6020908102919091010152600101612269565b505092915050565b6122f561263c565b604080515f8082526020820190925261232d91612322565b606081526020019060019003908161230d5790505b50611591838561596d565b61233660015f55565b5050565b5f80808061235461234b8680615258565b6114bd906156da565b5f818152600160208190526040909120549192501461237c575f805f935093509350506123d0565b5f6123b961238a8780615258565b612393906156da565b60208801356040890135336123ab60608c018c6150f5565b6123b491615bbd565b6126dc565b905060018160400151826060015194509450945050505b9193909250565b6123df61263c565b825f0361243d576040517ff7a898f600000000000000000000000000000000000000000000000000000000815233600482015273ffffffffffffffffffffffffffffffffffffffff8616602482015260448101859052606401610687565b335f90815260026020908152604080832073ffffffffffffffffffffffffffffffffffffffff8916845282528083208784529091528120549061248085836138ca565b90508015612631576124928183615335565b335f81815260026020908152604080832073ffffffffffffffffffffffffffffffffffffffff8d168085529083528184208c855283529281902094909455835192835282015290810187905260608101869052608081018290527febff2602b3f468259e1e99f613fed6691f3a6526effe6ef3e768ba7ae7a36c4f9060a00160405180910390a161253a73ffffffffffffffffffffffffffffffffffffffff881633836132a5565b8215612631575f8773ffffffffffffffffffffffffffffffffffffffff1663313ce5676040518163ffffffff1660e01b8152600401602060405180830381865afa15801561258a573d5f803e3d5ffd5b505050506040513d601f19601f820116820180604052508101906125ae9190615a2d565b60ff169050611f1761262761156f8a73ffffffffffffffffffffffffffffffffffffffff168a6125df88875f612e39565b6125ea88885f612e39565b6125f58d895f612e39565b60408051600581526020810196909652858101949094526060850192909252608084015260a083015260c08201905290565b611591868861596d565b505061180060015f55565b60025f54036126a7576040517f08c379a000000000000000000000000000000000000000000000000000000000815260206004820152601f60248201527f5265656e7472616e637947756172643a207265656e7472616e742063616c6c006044820152606401610687565b60025f55565b5f816040516020016126bf9190615bc9565b604051602081830303815290604052805190602001209050919050565b6126e46146c1565b5f6126ee876126ad565b60408051600480825260a082019092529192506060915f91816020015b606081526020019060019003908161270b57905050895160408051600381526020810187905273ffffffffffffffffffffffffffffffffffffffff92831681830152918916606083015260808201905290915081600180038151811061277357612773615159565b60200260200101819052505f60025f8b5f015173ffffffffffffffffffffffffffffffffffffffff1673ffffffffffffffffffffffffffffffffffffffff1681526020019081526020015f205f8b604001518b815181106127d6576127d6615159565b60200260200101515f015173ffffffffffffffffffffffffffffffffffffffff1673ffffffffffffffffffffffffffffffffffffffff1681526020019081526020015f205f8b604001518b8151811061283157612831615159565b60200260200101516040015181526020019081526020015f205490506129448a604001518a8151811061286657612866615159565b60200260200101515f015173ffffffffffffffffffffffffffffffffffffffff168b604001518b8151811061289d5761289d615159565b60200260200101516020015160ff16670de0b6b3a76400000267ffffffffffffffff168c604001518c815181106128d6576128d6615159565b602002602001015160400151612911858f604001518f815181106128fc576128fc615159565b60200260200101516020015160ff165f612e39565b5f60408051600581526020810196909652858101949094526060850192909252608084015260a083015260c08201905290565b8260016003038151811061295a5761295a615159565b6020026020010181905250505f60025f8b5f015173ffffffffffffffffffffffffffffffffffffffff1673ffffffffffffffffffffffffffffffffffffffff1681526020019081526020015f205f8b606001518a815181106129be576129be615159565b60200260200101515f015173ffffffffffffffffffffffffffffffffffffffff1673ffffffffffffffffffffffffffffffffffffffff1681526020019081526020015f205f8b606001518a81518110612a1957612a19615159565b60200260200101516040015181526020019081526020015f20549050612ae48a606001518981518110612a4e57612a4e615159565b60200260200101515f015173ffffffffffffffffffffffffffffffffffffffff168b606001518a81518110612a8557612a85615159565b60200260200101516020015160ff16670de0b6b3a76400000267ffffffffffffffff168c606001518b81518110612abe57612abe615159565b602002602001015160400151612911858f606001518e815181106128fc576128fc615159565b82600160040381518110612afa57612afa615159565b602002602001018190525050612b1081866138df565b9150505f885f015173ffffffffffffffffffffffffffffffffffffffff1690505f808a602001515f015173ffffffffffffffffffffffffffffffffffffffff1663d6e3357a8c6020015160200151612b7186305f9182526020526040902090565b60208f0151604001515f8981604051908082528060200260200182016040528015612ba6578160200160208202803683370190505b506040518763ffffffff1660e01b8152600401612bc896959493929190615c44565b5f60405180830381865afa158015612be2573d5f803e3d5ffd5b505050506040513d5f823e601f3d9081017fffffffffffffffffffffffffffffffffffffffffffffffffffffffffffffffe0168201604052612c279190810190615d18565b91509150600282511015612c6c5781516040517f3eee395400000000000000000000000000000000000000000000000000000000815260040161068791815260200190565b5f82600181518110612c8057612c80615159565b602002602001015190505f835f81518110612c9d57612c9d615159565b602002602001015190505f60025f8f5f015173ffffffffffffffffffffffffffffffffffffffff1673ffffffffffffffffffffffffffffffffffffffff1681526020019081526020015f205f8f606001518e81518110612cff57612cff615159565b60200260200101515f015173ffffffffffffffffffffffffffffffffffffffff1673ffffffffffffffffffffffffffffffffffffffff1681526020019081526020015f205f8f606001518e81518110612d5a57612d5a615159565b60200260200101516040015181526020019081526020015f205490505f612db08f606001518e81518110612d9057612d90615159565b60200260200101516020015160ff165f84612e399092919063ffffffff16565b905080841115612dbe578093505b50506040805160028152602081018490528082018390526060810190915286600281518110612def57612def615159565b6020908102919091018101919091526040805160e0810182529e8f52908e019b909b52998c015260608b019890985250608089019190915260a08801525050505060c08301525090565b5f8260121115612e6d5760128390036002831615612e6357612e5b8582613be5565b9150506115a0565b612e5b8582613c70565b6012831115612eb6577fffffffffffffffffffffffffffffffffffffffffffffffffffffffffffffffee83016001831615612eac57612e5b8582613ca7565b612e5b8582613cf3565b50826115a0565b5f612ed28484670de0b6b3a764000085613d15565b949350505050565b5f8260121115612efc5760128390036001831615612eac57612e5b8582613ca7565b6012831115612eb6577fffffffffffffffffffffffffffffffffffffffffffffffffffffffffffffffee83016002831615612e6357612e5b8582613be5565b612f9583670de0b6b3a76400008360800151600381518110612f5f57612f5f615159565b6020026020010151600181518110612f7957612f79615159565b602002602001015181612f8e57612f8e615d78565b045f612e39565b8160800151600381518110612fac57612fac615159565b6020026020010151600481518110612fc657612fc6615159565b60200260200101818152505061302d82670de0b6b3a76400008360800151600481518110612ff657612ff6615159565b602002602001015160018151811061301057613010615159565b60200260200101518161302557613025615d78565b046001612e39565b816080015160048151811061304457613044615159565b602002602001015160048151811061305e5761305e615159565b602090810291909101015282156131665780515173ffffffffffffffffffffffffffffffffffffffff165f908152600260205260408120608083015180518693919060039081106130b1576130b1615159565b60200260200101515f815181106130ca576130ca615159565b602002602001015173ffffffffffffffffffffffffffffffffffffffff1673ffffffffffffffffffffffffffffffffffffffff1681526020019081526020015f205f836080015160038151811061312357613123615159565b602002602001015160028151811061313d5761313d615159565b602002602001015181526020019081526020015f205f8282546131609190615348565b90915550505b81156132635780515173ffffffffffffffffffffffffffffffffffffffff165f908152600260205260408120608083015180518593919060049081106131ae576131ae615159565b60200260200101515f815181106131c7576131c7615159565b602002602001015173ffffffffffffffffffffffffffffffffffffffff1673ffffffffffffffffffffffffffffffffffffffff1681526020019081526020015f205f836080015160048151811061322057613220615159565b602002602001015160028151811061323a5761323a615159565b602002602001015181526020019081526020015f205f82825461325d9190615335565b90915550505b7f17a5c0f3785132a57703932032f6863e7920434150aa1dc940e567b440fdce1f338260800151604051613298929190615da5565b60405180910390a1505050565b60405173ffffffffffffffffffffffffffffffffffffffff83166024820152604481018290526133799084907fa9059cbb00000000000000000000000000000000000000000000000000000000906064015b604080517fffffffffffffffffffffffffffffffffffffffffffffffffffffffffffffffe08184030181529190526020810180517bffffffffffffffffffffffffffffffffffffffffffffffffffffffff167fffffffff0000000000000000000000000000000000000000000000000000000090931692909217909152613d70565b505050565b60405173ffffffffffffffffffffffffffffffffffffffff808516602483015283166044820152606481018290526133dc9085907f23b872dd00000000000000000000000000000000000000000000000000000000906084016132f7565b50505050565b60c08101515115613482578051602090810151015160a082015160c08301516040517f946aadc600000000000000000000000000000000000000000000000000000000815273ffffffffffffffffffffffffffffffffffffffff9093169263946aadc692613454929091600401615dd3565b5f604051808303815f87803b15801561346b575f80fd5b505af115801561347d573d5f803e3d5ffd5b505050505b805160209081015180519082015160a08401515f9081523090935260408320839273ffffffffffffffffffffffffffffffffffffffff169163d6e3357a918651602001516040015160808801516001905f6040519080825280602002602001820160405280156134fc578160200160208202803683370190505b506040518763ffffffff1660e01b815260040161351e96959493929190615c44565b5f60405180830381865afa158015613538573d5f803e3d5ffd5b505050506040513d5f823e601f3d9081017fffffffffffffffffffffffffffffffffffffffffffffffffffffffffffffffe016820160405261357d9190810190615d18565b8051919350915015613379578251602090810151015160a08401516040517f946aadc600000000000000000000000000000000000000000000000000000000815273ffffffffffffffffffffffffffffffffffffffff9092169163946aadc6916135eb918590600401615dd3565b5f604051808303815f87803b158015613602575f80fd5b505af1158015613614573d5f803e3d5ffd5b50505050505050565b3361364f6040805160a0810182525f918101828152606080830193909352608082018390528152602081019190915290565b5f5b83518110156118005783818151811061366c5761366c615159565b602002602001015191505f80835f01515f015173ffffffffffffffffffffffffffffffffffffffff1663d6e3357a855f0151602001516136b588305f9182526020526040902090565b875f0151604001515f6136cc8d8b602001516138df565b604080515f815260208101918290527fffffffff0000000000000000000000000000000000000000000000000000000060e089901b1690915261371795949392919060248101615c44565b5f60405180830381865afa158015613731573d5f803e3d5ffd5b505050506040513d5f823e601f3d9081017fffffffffffffffffffffffffffffffffffffffffffffffffffffffffffffffe01682016040526137769190810190615d18565b8551602001516040517f946aadc600000000000000000000000000000000000000000000000000000000815292945090925073ffffffffffffffffffffffffffffffffffffffff169063946aadc6906137d59088908590600401615dd3565b5f604051808303815f87803b1580156137ec575f80fd5b505af11580156137fe573d5f803e3d5ffd5b505050505050806001019050613651565b61383660405180608001604052805f81526020015f81526020015f81526020015f81525090565b6138408383613e7d565b825260408201526138518284613e7d565b6020830152606082015292915050565b61386a81613f3c565b6138a257806040517f644cc2580000000000000000000000000000000000000000000000000000000081526004016106879190615deb565b50565b60606115a08383604051806060016040528060278152602001615fad60279139613f6a565b5f8183106138d857816115a0565b5090919050565b60605f825167ffffffffffffffff8111156138fc576138fc61498b565b604051908082528060200260200182016040528015613925578160200160208202803683370190505b5090505f80845111613937575f61393d565b83516001015b85516001010190505f8167ffffffffffffffff81111561395f5761395f61498b565b60405190808252806020026020018201604052801561399257816020015b606081526020019060019003908161397d5790505b5090505f6139b6604080516002815233602082015230818301526060810190915290565b8282815181106139c8576139c8615159565b60200260200101819052505f5b8751811015613a255781806001019250508781815181106139f8576139f8615159565b6020026020010151838381518110613a1257613a12615159565b60209081029190910101526001016139d5565b50855115613bdb57808060010191505083828281518110613a4857613a48615159565b60200260200101819052505f5b8651811015613bd957613b04878281518110613a7357613a73615159565b60200260200101515f0151613ae1613aaf8a8581518110613a9657613a96615159565b6020026020010151602001518051602090810291012090565b7f19457468657265756d205369676e6564204d6573736167653a0a3332000000005f908152601c91909152603c902090565b898481518110613af357613af3615159565b602002602001015160400151613feb565b613b3d576040517f52bf984800000000000000000000000000000000000000000000000000000000815260048101829052602401610687565b868181518110613b4f57613b4f615159565b60200260200101515f015173ffffffffffffffffffffffffffffffffffffffff16858281518110613b8257613b82615159565b6020026020010181815250508180600101925050868181518110613ba857613ba8615159565b602002602001015160200151838381518110613bc657613bc6615159565b6020908102919091010152600101613a55565b505b5095945050505050565b5f604e8210613c23578215613c1a577fffffffffffffffffffffffffffffffffffffffffffffffffffffffffffffffff613c1c565b5f5b9050610352565b50600a81900a8281029083818381613c3d57613c3d615d78565b0414613c69577fffffffffffffffffffffffffffffffffffffffffffffffffffffffffffffffff612ed2565b5092915050565b600a81900a613c7f8184615dfd565b9050604e8210610352578215613c9f57613c9a82600a615f32565b6115a0565b505f92915050565b5f604e8210613cc9578215613cbd576001613cbf565b5f5b60ff169050610352565b600a82900a808481613cdd57613cdd615d78565b0491508082028414613c69575060010192915050565b5f604e821015613c9f5781600a0a8381613d0f57613d0f615d78565b046115a0565b5f80613d22868686614059565b90506001836002811115613d3857613d38615f3d565b148015613d5457505f8480613d4f57613d4f615d78565b868809115b15613d6757613d64600182615348565b90505b95945050505050565b5f613dd1826040518060400160405280602081526020017f5361666545524332303a206c6f772d6c6576656c2063616c6c206661696c65648152508573ffffffffffffffffffffffffffffffffffffffff1661417f9092919063ffffffff16565b905080515f1480613df1575080806020019051810190613df19190615f6a565b613379576040517f08c379a000000000000000000000000000000000000000000000000000000000815260206004820152602a60248201527f5361666545524332303a204552433230206f7065726174696f6e20646964206e60448201527f6f742073756363656564000000000000000000000000000000000000000000006064820152608401610687565b5f805f613e9e846060015160018660400151612ebd9092919063ffffffff16565b604086015190915081811115613eb15750805b613ef1865f015160600151876020015181518110613ed157613ed1615159565b60200260200101516020015160ff165f83612eda9092919063ffffffff16565b92505f613f0e8760600151600184612ebd9092919063ffffffff16565b9050613f30865f015160600151876020015181518110610d8457610d84615159565b94505050509250929050565b5f600882511015613f4e57505f919050565b506008015167ffffffffffffffff1667ff0a89c674ee78741490565b60605f808573ffffffffffffffffffffffffffffffffffffffff1685604051613f939190615f89565b5f60405180830381855af49150503d805f8114613fcb576040519150601f19603f3d011682016040523d82523d5f602084013e613fd0565b606091505b5091509150613fe18683838761418d565b9695505050505050565b5f805f613ff8858561422c565b90925090505f81600481111561401057614010615f3d565b14801561404857508573ffffffffffffffffffffffffffffffffffffffff168273ffffffffffffffffffffffffffffffffffffffff16145b80613fe15750613fe186868661426e565b5f80807fffffffffffffffffffffffffffffffffffffffffffffffffffffffffffffffff858709858702925082811083820303915050805f036140af578382816140a5576140a5615d78565b04925050506115a0565b808411614118576040517f08c379a000000000000000000000000000000000000000000000000000000000815260206004820152601560248201527f4d6174683a206d756c446976206f766572666c6f7700000000000000000000006044820152606401610687565b5f8486880960026001871981018816978890046003810283188082028403028082028403028082028403028082028403028082028403029081029092039091025f889003889004909101858311909403939093029303949094049190911702949350505050565b6060612ed284845f856143c6565b606083156142225782515f0361421b5773ffffffffffffffffffffffffffffffffffffffff85163b61421b576040517f08c379a000000000000000000000000000000000000000000000000000000000815260206004820152601d60248201527f416464726573733a2063616c6c20746f206e6f6e2d636f6e74726163740000006044820152606401610687565b5081612ed2565b612ed283836144db565b5f808251604103614260576020830151604084015160608501515f1a6142548782858561451f565b94509450505050614267565b505f905060025b9250929050565b5f805f8573ffffffffffffffffffffffffffffffffffffffff16631626ba7e60e01b86866040516024016142a3929190615f94565b604080517fffffffffffffffffffffffffffffffffffffffffffffffffffffffffffffffe08184030181529181526020820180517bffffffffffffffffffffffffffffffffffffffffffffffffffffffff167fffffffff0000000000000000000000000000000000000000000000000000000090941693909317909252905161432c9190615f89565b5f60405180830381855afa9150503d805f8114614364576040519150601f19603f3d011682016040523d82523d5f602084013e614369565b606091505b509150915081801561437d57506020815110155b8015613fe1575080517f1626ba7e00000000000000000000000000000000000000000000000000000000906143bb90830160209081019084016156c3565b149695505050505050565b606082471015614458576040517f08c379a000000000000000000000000000000000000000000000000000000000815260206004820152602660248201527f416464726573733a20696e73756666696369656e742062616c616e636520666f60448201527f722063616c6c00000000000000000000000000000000000000000000000000006064820152608401610687565b5f808673ffffffffffffffffffffffffffffffffffffffff1685876040516144809190615f89565b5f6040518083038185875af1925050503d805f81146144ba576040519150601f19603f3d011682016040523d82523d5f602084013e6144bf565b606091505b50915091506144d08783838761418d565b979650505050505050565b8151156144eb5781518083602001fd5b806040517f08c379a00000000000000000000000000000000000000000000000000000000081526004016106879190615deb565b5f807f7fffffffffffffffffffffffffffffff5d576e7357a4501ddfe92f46681b20a083111561455457505f905060036145fe565b604080515f8082526020820180845289905260ff881692820192909252606081018690526080810185905260019060a0016020604051602081039080840390855afa1580156145a5573d5f803e3d5ffd5b50506040517fffffffffffffffffffffffffffffffffffffffffffffffffffffffffffffffe0015191505073ffffffffffffffffffffffffffffffffffffffff81166145f8575f600192509250506145fe565b91505f90505b94509492505050565b604051806080016040528061461a614633565b81526020015f81526020015f8152602001606081525090565b6040518060a001604052805f73ffffffffffffffffffffffffffffffffffffffff1681526020016146a860405180606001604052805f73ffffffffffffffffffffffffffffffffffffffff1681526020015f73ffffffffffffffffffffffffffffffffffffffff168152602001606081525090565b8152606060208201819052604082018190525f91015290565b6040518060e001604052806146d4614633565b81526020015f81526020015f81526020015f8152602001606081526020015f8152602001606081525090565b5f60208284031215614710575f80fd5b81357fffffffff00000000000000000000000000000000000000000000000000000000811681146115a0575f80fd5b5f60a0828403121561474f575f80fd5b50919050565b5f60208284031215614765575f80fd5b813567ffffffffffffffff81111561477b575f80fd5b612ed28482850161473f565b5f60208284031215614797575f80fd5b5035919050565b73ffffffffffffffffffffffffffffffffffffffff811681146138a2575f80fd5b80356147ca8161479e565b919050565b5f805f805f608086880312156147e3575f80fd5b85356147ee8161479e565b945060208601356147fe8161479e565b935060408601359250606086013567ffffffffffffffff80821115614821575f80fd5b818801915088601f830112614834575f80fd5b813581811115614842575f80fd5b896020828501011115614853575f80fd5b9699959850939650602001949392505050565b5f60208284031215614876575f80fd5b81356115a08161479e565b5f8083601f840112614891575f80fd5b50813567ffffffffffffffff8111156148a8575f80fd5b6020830191508360208260051b8501011115614267575f80fd5b5f805f604084860312156148d4575f80fd5b833567ffffffffffffffff808211156148eb575f80fd5b6148f78783880161473f565b9450602086013591508082111561490c575f80fd5b5061491986828701614881565b9497909650939450505050565b5f805f805f6080868803121561493a575f80fd5b85356149458161479e565b94506020860135935060408601359250606086013567ffffffffffffffff81111561496e575f80fd5b61497a88828901614881565b969995985093965092949392505050565b7f4e487b71000000000000000000000000000000000000000000000000000000005f52604160045260245ffd5b6040516060810167ffffffffffffffff811182821017156149db576149db61498b565b60405290565b60405160a0810167ffffffffffffffff811182821017156149db576149db61498b565b6040805190810167ffffffffffffffff811182821017156149db576149db61498b565b604051601f82017fffffffffffffffffffffffffffffffffffffffffffffffffffffffffffffffe016810167ffffffffffffffff81118282101715614a6e57614a6e61498b565b604052919050565b5f82601f830112614a85575f80fd5b813567ffffffffffffffff811115614a9f57614a9f61498b565b614ad060207fffffffffffffffffffffffffffffffffffffffffffffffffffffffffffffffe0601f84011601614a27565b818152846020838601011115614ae4575f80fd5b816020850160208301375f918101602001919091529392505050565b5f60608284031215614b10575f80fd5b614b186149b8565b90508135614b258161479e565b81526020820135614b358161479e565b6020820152604082013567ffffffffffffffff811115614b53575f80fd5b614b5f84828501614a76565b60408301525092915050565b5f67ffffffffffffffff821115614b8457614b8461498b565b5060051b60200190565b60ff811681146138a2575f80fd5b5f60608284031215614bac575f80fd5b614bb46149b8565b90508135614bc18161479e565b81526020820135614bd181614b8e565b806020830152506040820135604082015292915050565b5f82601f830112614bf7575f80fd5b81356020614c0c614c0783614b6b565b614a27565b808382526020820191506060602060608602880101945087851115614c2f575f80fd5b602087015b85811015614c5357614c468982614b9c565b8452928401928101614c34565b5090979650505050505050565b5f60a08284031215614c70575f80fd5b614c786149e1565b9050614c83826147bf565b8152602082013567ffffffffffffffff80821115614c9f575f80fd5b614cab85838601614b00565b60208401526040840135915080821115614cc3575f80fd5b614ccf85838601614be8565b60408401526060840135915080821115614ce7575f80fd5b50614cf484828501614be8565b6060830152506080820135608082015292915050565b5f60c0828403121561474f575f80fd5b5f614d27614c0784614b6b565b8381529050602080820190600585811b850187811115614d45575f80fd5b855b81811015614e3257803567ffffffffffffffff80821115614d66575f80fd5b908801906060828c031215614d79575f80fd5b614d816149b8565b8235614d8c8161479e565b81528287013582811115614d9e575f80fd5b8301601f81018d13614dae575f80fd5b8035614dbc614c0782614b6b565b81815290881b8201890190898101908f831115614dd7575f80fd5b928a01925b82841015614df55783358252928a0192908a0190614ddc565b848b01525060409150508381013583811115614e0f575f80fd5b614e1b8e828701614a76565b918301919091525087525050938301938301614d47565b50505050509392505050565b5f82601f830112614e4d575f80fd5b6115a083833560208501614d1a565b5f805f805f6101408688031215614e71575f80fd5b853567ffffffffffffffff80821115614e88575f80fd5b614e9489838a01614c60565b96506020880135915080821115614ea9575f80fd5b614eb589838a01614c60565b9550614ec48960408a01614d0a565b9450610100880135915080821115614eda575f80fd5b614ee689838a01614e3e565b9350610120880135915080821115614efc575f80fd5b50614f0988828901614e3e565b9150509295509295909350565b5f805f60408486031215614f28575f80fd5b833567ffffffffffffffff80821115614f3f575f80fd5b6148f787838801614d0a565b5f8060208385031215614f5c575f80fd5b823567ffffffffffffffff811115614f72575f80fd5b614f7e85828601614881565b90969095509350505050565b5f81518084528060208401602086015e5f6020828601015260207fffffffffffffffffffffffffffffffffffffffffffffffffffffffffffffffe0601f83011685010191505092915050565b5f60208083016020845280855180835260408601915060408160051b8701019250602087015f5b82811015615049577fffffffffffffffffffffffffffffffffffffffffffffffffffffffffffffffc0888603018452615037858351614f8a565b94509285019290850190600101614ffd565b5092979650505050505050565b5f805f60608486031215615068575f80fd5b83356150738161479e565b925060208401356150838161479e565b929592945050506040919091013590565b5f80604083850312156150a5575f80fd5b82356150b08161479e565b946020939093013593505050565b5f602082840312156150ce575f80fd5b813567ffffffffffffffff8111156150e4575f80fd5b8201608081850312156115a0575f80fd5b5f8083357fffffffffffffffffffffffffffffffffffffffffffffffffffffffffffffffe1843603018112615128575f80fd5b83018035915067ffffffffffffffff821115615142575f80fd5b6020019150600581901b3603821315614267575f80fd5b7f4e487b71000000000000000000000000000000000000000000000000000000005f52603260045260245ffd5b5f82357fffffffffffffffffffffffffffffffffffffffffffffffffffffffffffffff818336030181126151b8575f80fd5b9190910192915050565b5f608082360312156151d2575f80fd5b6040516080810167ffffffffffffffff82821081831117156151f6576151f661498b565b81604052843591508082111561520a575f80fd5b61521636838701614c60565b83526020850135602084015260408501356040840152606085013591508082111561523f575f80fd5b5061524c36828601614e3e565b60608301525092915050565b5f82357fffffffffffffffffffffffffffffffffffffffffffffffffffffffffffffff618336030181126151b8575f80fd5b5f8083357fffffffffffffffffffffffffffffffffffffffffffffffffffffffffffffffe18436030181126152bd575f80fd5b83018035915067ffffffffffffffff8211156152d7575f80fd5b6020019150606081023603821315614267575f80fd5b5f602082840312156152fd575f80fd5b81356115a081614b8e565b7f4e487b71000000000000000000000000000000000000000000000000000000005f52601160045260245ffd5b8181038181111561035257610352615308565b8082018082111561035257610352615308565b5f815180845260208085019450602084015f5b838110156153b9578151805173ffffffffffffffffffffffffffffffffffffffff1688528381015160ff1684890152604090810151908801526060909601959082019060010161536e565b509495945050505050565b5f73ffffffffffffffffffffffffffffffffffffffff808351168452602083015160a060208601528181511660a08601528160208201511660c08601526040810151915050606060e085015261541e610100850182614f8a565b905060408301518482036040860152615437828261535b565b91505060608301518482036060860152615451828261535b565b915050608083015160808501528091505092915050565b5f815180845260208085019450602084015f5b838110156153b95781518752958201959082019060010161547b565b5f73ffffffffffffffffffffffffffffffffffffffff8087168352602060808185015286516080808601526154d06101008601826153c4565b90508188015160a086015260408089015160c08701526060808a01517fffffffffffffffffffffffffffffffffffffffffffffffffffffffffffffff808885030160e08901528381518086528686019150868160051b87010187840193505f5b828110156155a8577fffffffffffffffffffffffffffffffffffffffffffffffffffffffffffffffe088830301845284518a815116835289810151878b85015261557c88850182615468565b91890151848303858b01529190506155948183614f8a565b968b0196958b019593505050600101615530565b5080995050505050505050505083604083015282606083015295945050505050565b5f8083357fffffffffffffffffffffffffffffffffffffffffffffffffffffffffffffffe18436030181126155fd575f80fd5b83018035915067ffffffffffffffff821115615617575f80fd5b602001915036819003821315614267575f80fd5b81835281816020850137505f602082840101525f60207fffffffffffffffffffffffffffffffffffffffffffffffffffffffffffffffe0601f840116840101905092915050565b5f73ffffffffffffffffffffffffffffffffffffffff808916835280881660208401525085604083015284606083015260a060808301526156b760a08301848661562b565b98975050505050505050565b5f602082840312156156d3575f80fd5b5051919050565b5f6103523683614c60565b5f81356156f18161479e565b73ffffffffffffffffffffffffffffffffffffffff908116845260208301359061571a8261479e565b1660208401526040820135368390037fffffffffffffffffffffffffffffffffffffffffffffffffffffffffffffffe1018112615755575f80fd5b820160208101903567ffffffffffffffff811115615771575f80fd5b80360382131561577f575f80fd5b60606040860152613d6760608601828461562b565b5f8083357fffffffffffffffffffffffffffffffffffffffffffffffffffffffffffffffe18436030181126157c7575f80fd5b830160208101925035905067ffffffffffffffff8111156157e6575f80fd5b606081023603821315614267575f80fd5b8183525f60208085019450825f5b858110156153b95781356158188161479e565b73ffffffffffffffffffffffffffffffffffffffff1687528183013561583d81614b8e565b60ff16878401526040828101359088015260609687019690910190600101615805565b5f73ffffffffffffffffffffffffffffffffffffffff80861683528460208401526060604084015283356158938161479e565b1660608301526020830135368490037fffffffffffffffffffffffffffffffffffffffffffffffffffffffffffffffa10181126158ce575f80fd5b60a060808401526158e561010084018583016156e5565b90506158f46040850185615794565b7fffffffffffffffffffffffffffffffffffffffffffffffffffffffffffffffa0808685030160a087015261592a8483856157f7565b93506159396060880188615794565b93509150808685030160c0870152506159538383836157f7565b92505050608084013560e084015280915050949350505050565b5f61597a614c0784614b6b565b80848252602080830192508560051b850136811115615997575f80fd5b855b81811015615a2157803567ffffffffffffffff808211156159b8575f80fd5b8189019150604082360312156159cc575f80fd5b6159d4614a04565b8235828111156159e2575f80fd5b6159ee36828601614b00565b8252508583013582811115615a01575f80fd5b615a0d36828601614e3e565b828801525087525050938201938201615999565b50919695505050505050565b5f60208284031215615a3d575f80fd5b81516115a081614b8e565b5f61012073ffffffffffffffffffffffffffffffffffffffff87168352806020840152615a77818401876153c4565b90508281036040840152615a8b81866153c4565b9150508235606083015260208301356080830152604083013560a0830152606083013560c0830152608083013560e083015260a083013561010083015295945050505050565b5f82357fffffffffffffffffffffffffffffffffffffffffffffffffffffffffffffffa18336030181126151b8575f80fd5b5f6103523683614b00565b5f60608284031215615b1e575f80fd5b6115a08383614b9c565b73ffffffffffffffffffffffffffffffffffffffff84168152826020820152606060408201525f613d6760608301846153c4565b73ffffffffffffffffffffffffffffffffffffffff85168152836020820152606060408201525f613fe160608301848661562b565b5f81518060208401855e5f93019283525090919050565b828482375f8382015f8152613fe18185615b91565b5f6115a0368484614d1a565b602081525f6115a060208301846153c4565b5f8282518085526020808601955060208260051b840101602086015f5b84811015614c53577fffffffffffffffffffffffffffffffffffffffffffffffffffffffffffffffe0868403018952615c32838351615468565b98840198925090830190600101615bf8565b73ffffffffffffffffffffffffffffffffffffffff8716815285602082015260c060408201525f615c7860c0830187614f8a565b8560608401528281036080840152615c908186615bdb565b905082810360a0840152615ca48185615468565b9998505050505050505050565b5f82601f830112615cc0575f80fd5b81516020615cd0614c0783614b6b565b8083825260208201915060208460051b870101935086841115615cf1575f80fd5b602086015b84811015615d0d5780518352918301918301615cf6565b509695505050505050565b5f8060408385031215615d29575f80fd5b825167ffffffffffffffff80821115615d40575f80fd5b615d4c86838701615cb1565b93506020850151915080821115615d61575f80fd5b50615d6e85828601615cb1565b9150509250929050565b7f4e487b71000000000000000000000000000000000000000000000000000000005f52601260045260245ffd5b73ffffffffffffffffffffffffffffffffffffffff83168152604060208201525f612ed26040830184615bdb565b828152604060208201525f612ed26040830184615468565b602081525f6115a06020830184614f8a565b808202811582820484141761035257610352615308565b600181815b80851115615e6d57817fffffffffffffffffffffffffffffffffffffffffffffffffffffffffffffffff04821115615e5357615e53615308565b80851615615e6057918102915b93841c9390800290615e19565b509250929050565b5f82615e8357506001610352565b81615e8f57505f610352565b8160018114615ea55760028114615eaf57615ecb565b6001915050610352565b60ff841115615ec057615ec0615308565b50506001821b610352565b5060208310610133831016604e8410600b8410161715615eee575081810a610352565b615ef88383615e14565b807fffffffffffffffffffffffffffffffffffffffffffffffffffffffffffffffff04821115615f2a57615f2a615308565b029392505050565b5f6115a08383615e75565b7f4e487b71000000000000000000000000000000000000000000000000000000005f52602160045260245ffd5b5f60208284031215615f7a575f80fd5b815180151581146115a0575f80fd5b5f6115a08284615b91565b828152604060208201525f612ed26040830184614f8a56fe416464726573733a206c6f772d6c6576656c2064656c65676174652063616c6c206661696c6564","linkReferences":{}},"methodIdentifiers":{"addOrder2(((address,address,bytes),(address,uint8,uint256)[],(address,uint8,uint256)[],bytes32,bytes32,bytes),((address,address,bytes),(address,uint256[],bytes)[])[])":"a616864d","clear2((address,(address,address,bytes),(address,uint8,uint256)[],(address,uint8,uint256)[],bytes32),(address,(address,address,bytes),(address,uint8,uint256)[],(address,uint8,uint256)[],bytes32),(uint256,uint256,uint256,uint256,uint256,uint256),(address,uint256[],bytes)[],(address,uint256[],bytes)[])":"a08f5dff","deposit2(address,uint256,uint256,((address,address,bytes),(address,uint256[],bytes)[])[])":"91337c0a","enact(((address,address,bytes),(address,uint256[],bytes)[])[])":"c1e4c4af","flashFee(address,uint256)":"d9d98ce4","flashLoan(address,address,uint256,bytes)":"5cffe9de","maxFlashLoan(address)":"613255ab","multicall(bytes[])":"ac9650d8","orderExists(bytes32)":"2cb77e9f","quote(((address,(address,address,bytes),(address,uint8,uint256)[],(address,uint8,uint256)[],bytes32),uint256,uint256,(address,uint256[],bytes)[]))":"e0e530b7","removeOrder2((address,(address,address,bytes),(address,uint8,uint256)[],(address,uint8,uint256)[],bytes32),((address,address,bytes),(address,uint256[],bytes)[])[])":"8d7b6beb","supportsInterface(bytes4)":"01ffc9a7","takeOrders2((uint256,uint256,uint256,((address,(address,address,bytes),(address,uint8,uint256)[],(address,uint8,uint256)[],bytes32),uint256,uint256,(address,uint256[],bytes)[])[],bytes))":"0997c4a0","vaultBalance(address,address,uint256)":"d97b2e48","withdraw2(address,uint256,uint256,((address,address,bytes),(address,uint256[],bytes)[])[])":"f513c42d"}}