{"abi":[{"type":"function","name":"addOrder2","inputs":[{"name":"orderConfig","type":"tuple","internalType":"struct OrderConfigV3","components":[{"name":"evaluable","type":"tuple","internalType":"struct EvaluableV3","components":[{"name":"interpreter","type":"address","internalType":"contract IInterpreterV3"},{"name":"store","type":"address","internalType":"contract IInterpreterStoreV2"},{"name":"bytecode","type":"bytes","internalType":"bytes"}]},{"name":"validInputs","type":"tuple[]","internalType":"struct IO[]","components":[{"name":"token","type":"address","internalType":"address"},{"name":"decimals","type":"uint8","internalType":"uint8"},{"name":"vaultId","type":"uint256","internalType":"uint256"}]},{"name":"validOutputs","type":"tuple[]","internalType":"struct IO[]","components":[{"name":"token","type":"address","internalType":"address"},{"name":"decimals","type":"uint8","internalType":"uint8"},{"name":"vaultId","type":"uint256","internalType":"uint256"}]},{"name":"nonce","type":"bytes32","internalType":"bytes32"},{"name":"secret","type":"bytes32","internalType":"bytes32"},{"name":"meta","type":"bytes","internalType":"bytes"}]},{"name":"post","type":"tuple[]","internalType":"struct TaskV1[]","components":[{"name":"evaluable","type":"tuple","internalType":"struct EvaluableV3","components":[{"name":"interpreter","type":"address","internalType":"contract IInterpreterV3"},{"name":"store","type":"address","internalType":"contract IInterpreterStoreV2"},{"name":"bytecode","type":"bytes","internalType":"bytes"}]},{"name":"signedContext","type":"tuple[]","internalType":"struct SignedContextV1[]","components":[{"name":"signer","type":"address","internalType":"address"},{"name":"context","type":"uint256[]","internalType":"uint256[]"},{"name":"signature","type":"bytes","internalType":"bytes"}]}]}],"outputs":[{"name":"","type":"bool","internalType":"bool"}],"stateMutability":"nonpayable"},{"type":"function","name":"clear2","inputs":[{"name":"aliceOrder","type":"tuple","internalType":"struct OrderV3","components":[{"name":"owner","type":"address","internalType":"address"},{"name":"evaluable","type":"tuple","internalType":"struct EvaluableV3","components":[{"name":"interpreter","type":"address","internalType":"contract IInterpreterV3"},{"name":"store","type":"address","internalType":"contract IInterpreterStoreV2"},{"name":"bytecode","type":"bytes","internalType":"bytes"}]},{"name":"validInputs","type":"tuple[]","internalType":"struct IO[]","components":[{"name":"token","type":"address","internalType":"address"},{"name":"decimals","type":"uint8","internalType":"uint8"},{"name":"vaultId","type":"uint256","internalType":"uint256"}]},{"name":"validOutputs","type":"tuple[]","internalType":"struct IO[]","components":[{"name":"token","type":"address","internalType":"address"},{"name":"decimals","type":"uint8","internalType":"uint8"},{"name":"vaultId","type":"uint256","internalType":"uint256"}]},{"name":"nonce","type":"bytes32","internalType":"bytes32"}]},{"name":"bobOrder","type":"tuple","internalType":"struct OrderV3","components":[{"name":"owner","type":"address","internalType":"address"},{"name":"evaluable","type":"tuple","internalType":"struct EvaluableV3","components":[{"name":"interpreter","type":"address","internalType":"contract IInterpreterV3"},{"name":"store","type":"address","internalType":"contract IInterpreterStoreV2"},{"name":"bytecode","type":"bytes","internalType":"bytes"}]},{"name":"validInputs","type":"tuple[]","internalType":"struct IO[]","components":[{"name":"token","type":"address","internalType":"address"},{"name":"decimals","type":"uint8","internalType":"uint8"},{"name":"vaultId","type":"uint256","internalType":"uint256"}]},{"name":"validOutputs","type":"tuple[]","internalType":"struct IO[]","components":[{"name":"token","type":"address","internalType":"address"},{"name":"decimals","type":"uint8","internalType":"uint8"},{"name":"vaultId","type":"uint256","internalType":"uint256"}]},{"name":"nonce","type":"bytes32","internalType":"bytes32"}]},{"name":"clearConfig","type":"tuple","internalType":"struct ClearConfig","components":[{"name":"aliceInputIOIndex","type":"uint256","internalType":"uint256"},{"name":"aliceOutputIOIndex","type":"uint256","internalType":"uint256"},{"name":"bobInputIOIndex","type":"uint256","internalType":"uint256"},{"name":"bobOutputIOIndex","type":"uint256","internalType":"uint256"},{"name":"aliceBountyVaultId","type":"uint256","internalType":"uint256"},{"name":"bobBountyVaultId","type":"uint256","internalType":"uint256"}]},{"name":"aliceSignedContext","type":"tuple[]","internalType":"struct SignedContextV1[]","components":[{"name":"signer","type":"address","internalType":"address"},{"name":"context","type":"uint256[]","internalType":"uint256[]"},{"name":"signature","type":"bytes","internalType":"bytes"}]},{"name":"bobSignedContext","type":"tuple[]","internalType":"struct SignedContextV1[]","components":[{"name":"signer","type":"address","internalType":"address"},{"name":"context","type":"uint256[]","internalType":"uint256[]"},{"name":"signature","type":"bytes","internalType":"bytes"}]}],"outputs":[],"stateMutability":"nonpayable"},{"type":"function","name":"deposit2","inputs":[{"name":"token","type":"address","internalType":"address"},{"name":"vaultId","type":"uint256","internalType":"uint256"},{"name":"depositAmount","type":"uint256","internalType":"uint256"},{"name":"post","type":"tuple[]","internalType":"struct TaskV1[]","components":[{"name":"evaluable","type":"tuple","internalType":"struct EvaluableV3","components":[{"name":"interpreter","type":"address","internalType":"contract IInterpreterV3"},{"name":"store","type":"address","internalType":"contract IInterpreterStoreV2"},{"name":"bytecode","type":"bytes","internalType":"bytes"}]},{"name":"signedContext","type":"tuple[]","internalType":"struct SignedContextV1[]","components":[{"name":"signer","type":"address","internalType":"address"},{"name":"context","type":"uint256[]","internalType":"uint256[]"},{"name":"signature","type":"bytes","internalType":"bytes"}]}]}],"outputs":[],"stateMutability":"nonpayable"},{"type":"function","name":"entask","inputs":[{"name":"post","type":"tuple[]","internalType":"struct TaskV1[]","components":[{"name":"evaluable","type":"tuple","internalType":"struct EvaluableV3","components":[{"name":"interpreter","type":"address","internalType":"contract IInterpreterV3"},{"name":"store","type":"address","internalType":"contract IInterpreterStoreV2"},{"name":"bytecode","type":"bytes","internalType":"bytes"}]},{"name":"signedContext","type":"tuple[]","internalType":"struct SignedContextV1[]","components":[{"name":"signer","type":"address","internalType":"address"},{"name":"context","type":"uint256[]","internalType":"uint256[]"},{"name":"signature","type":"bytes","internalType":"bytes"}]}]}],"outputs":[],"stateMutability":"nonpayable"},{"type":"function","name":"flashFee","inputs":[{"name":"","type":"address","internalType":"address"},{"name":"","type":"uint256","internalType":"uint256"}],"outputs":[{"name":"","type":"uint256","internalType":"uint256"}],"stateMutability":"pure"},{"type":"function","name":"flashLoan","inputs":[{"name":"receiver","type":"address","internalType":"contract IERC3156FlashBorrower"},{"name":"token","type":"address","internalType":"address"},{"name":"amount","type":"uint256","internalType":"uint256"},{"name":"data","type":"bytes","internalType":"bytes"}],"outputs":[{"name":"","type":"bool","internalType":"bool"}],"stateMutability":"nonpayable"},{"type":"function","name":"maxFlashLoan","inputs":[{"name":"token","type":"address","internalType":"address"}],"outputs":[{"name":"","type":"uint256","internalType":"uint256"}],"stateMutability":"view"},{"type":"function","name":"multicall","inputs":[{"name":"data","type":"bytes[]","internalType":"bytes[]"}],"outputs":[{"name":"results","type":"bytes[]","internalType":"bytes[]"}],"stateMutability":"nonpayable"},{"type":"function","name":"orderExists","inputs":[{"name":"orderHash","type":"bytes32","internalType":"bytes32"}],"outputs":[{"name":"","type":"bool","internalType":"bool"}],"stateMutability":"view"},{"type":"function","name":"quote","inputs":[{"name":"quoteConfig","type":"tuple","internalType":"struct Quote","components":[{"name":"order","type":"tuple","internalType":"struct OrderV3","components":[{"name":"owner","type":"address","internalType":"address"},{"name":"evaluable","type":"tuple","internalType":"struct EvaluableV3","components":[{"name":"interpreter","type":"address","internalType":"contract IInterpreterV3"},{"name":"store","type":"address","internalType":"contract IInterpreterStoreV2"},{"name":"bytecode","type":"bytes","internalType":"bytes"}]},{"name":"validInputs","type":"tuple[]","internalType":"struct IO[]","components":[{"name":"token","type":"address","internalType":"address"},{"name":"decimals","type":"uint8","internalType":"uint8"},{"name":"vaultId","type":"uint256","internalType":"uint256"}]},{"name":"validOutputs","type":"tuple[]","internalType":"struct IO[]","components":[{"name":"token","type":"address","internalType":"address"},{"name":"decimals","type":"uint8","internalType":"uint8"},{"name":"vaultId","type":"uint256","internalType":"uint256"}]},{"name":"nonce","type":"bytes32","internalType":"bytes32"}]},{"name":"inputIOIndex","type":"uint256","internalType":"uint256"},{"name":"outputIOIndex","type":"uint256","internalType":"uint256"},{"name":"signedContext","type":"tuple[]","internalType":"struct SignedContextV1[]","components":[{"name":"signer","type":"address","internalType":"address"},{"name":"context","type":"uint256[]","internalType":"uint256[]"},{"name":"signature","type":"bytes","internalType":"bytes"}]}]}],"outputs":[{"name":"","type":"bool","internalType":"bool"},{"name":"","type":"uint256","internalType":"uint256"},{"name":"","type":"uint256","internalType":"uint256"}],"stateMutability":"view"},{"type":"function","name":"removeOrder2","inputs":[{"name":"order","type":"tuple","internalType":"struct OrderV3","components":[{"name":"owner","type":"address","internalType":"address"},{"name":"evaluable","type":"tuple","internalType":"struct EvaluableV3","components":[{"name":"interpreter","type":"address","internalType":"contract IInterpreterV3"},{"name":"store","type":"address","internalType":"contract IInterpreterStoreV2"},{"name":"bytecode","type":"bytes","internalType":"bytes"}]},{"name":"validInputs","type":"tuple[]","internalType":"struct IO[]","components":[{"name":"token","type":"address","internalType":"address"},{"name":"decimals","type":"uint8","internalType":"uint8"},{"name":"vaultId","type":"uint256","internalType":"uint256"}]},{"name":"validOutputs","type":"tuple[]","internalType":"struct IO[]","components":[{"name":"token","type":"address","internalType":"address"},{"name":"decimals","type":"uint8","internalType":"uint8"},{"name":"vaultId","type":"uint256","internalType":"uint256"}]},{"name":"nonce","type":"bytes32","internalType":"bytes32"}]},{"name":"post","type":"tuple[]","internalType":"struct TaskV1[]","components":[{"name":"evaluable","type":"tuple","internalType":"struct EvaluableV3","components":[{"name":"interpreter","type":"address","internalType":"contract IInterpreterV3"},{"name":"store","type":"address","internalType":"contract IInterpreterStoreV2"},{"name":"bytecode","type":"bytes","internalType":"bytes"}]},{"name":"signedContext","type":"tuple[]","internalType":"struct SignedContextV1[]","components":[{"name":"signer","type":"address","internalType":"address"},{"name":"context","type":"uint256[]","internalType":"uint256[]"},{"name":"signature","type":"bytes","internalType":"bytes"}]}]}],"outputs":[{"name":"stateChanged","type":"bool","internalType":"bool"}],"stateMutability":"nonpayable"},{"type":"function","name":"supportsInterface","inputs":[{"name":"interfaceId","type":"bytes4","internalType":"bytes4"}],"outputs":[{"name":"","type":"bool","internalType":"bool"}],"stateMutability":"view"},{"type":"function","name":"takeOrders2","inputs":[{"name":"config","type":"tuple","internalType":"struct TakeOrdersConfigV3","components":[{"name":"minimumInput","type":"uint256","internalType":"uint256"},{"name":"maximumInput","type":"uint256","internalType":"uint256"},{"name":"maximumIORatio","type":"uint256","internalType":"uint256"},{"name":"orders","type":"tuple[]","internalType":"struct TakeOrderConfigV3[]","components":[{"name":"order","type":"tuple","internalType":"struct OrderV3","components":[{"name":"owner","type":"address","internalType":"address"},{"name":"evaluable","type":"tuple","internalType":"struct EvaluableV3","components":[{"name":"interpreter","type":"address","internalType":"contract IInterpreterV3"},{"name":"store","type":"address","internalType":"contract IInterpreterStoreV2"},{"name":"bytecode","type":"bytes","internalType":"bytes"}]},{"name":"validInputs","type":"tuple[]","internalType":"struct IO[]","components":[{"name":"token","type":"address","internalType":"address"},{"name":"decimals","type":"uint8","internalType":"uint8"},{"name":"vaultId","type":"uint256","internalType":"uint256"}]},{"name":"validOutputs","type":"tuple[]","internalType":"struct IO[]","components":[{"name":"token","type":"address","internalType":"address"},{"name":"decimals","type":"uint8","internalType":"uint8"},{"name":"vaultId","type":"uint256","internalType":"uint256"}]},{"name":"nonce","type":"bytes32","internalType":"bytes32"}]},{"name":"inputIOIndex","type":"uint256","internalType":"uint256"},{"name":"outputIOIndex","type":"uint256","internalType":"uint256"},{"name":"signedContext","type":"tuple[]","internalType":"struct SignedContextV1[]","components":[{"name":"signer","type":"address","internalType":"address"},{"name":"context","type":"uint256[]","internalType":"uint256[]"},{"name":"signature","type":"bytes","internalType":"bytes"}]}]},{"name":"data","type":"bytes","internalType":"bytes"}]}],"outputs":[{"name":"totalTakerInput","type":"uint256","internalType":"uint256"},{"name":"totalTakerOutput","type":"uint256","internalType":"uint256"}],"stateMutability":"nonpayable"},{"type":"function","name":"vaultBalance","inputs":[{"name":"owner","type":"address","internalType":"address"},{"name":"token","type":"address","internalType":"address"},{"name":"vaultId","type":"uint256","internalType":"uint256"}],"outputs":[{"name":"","type":"uint256","internalType":"uint256"}],"stateMutability":"view"},{"type":"function","name":"withdraw2","inputs":[{"name":"token","type":"address","internalType":"address"},{"name":"vaultId","type":"uint256","internalType":"uint256"},{"name":"targetAmount","type":"uint256","internalType":"uint256"},{"name":"post","type":"tuple[]","internalType":"struct TaskV1[]","components":[{"name":"evaluable","type":"tuple","internalType":"struct EvaluableV3","components":[{"name":"interpreter","type":"address","internalType":"contract IInterpreterV3"},{"name":"store","type":"address","internalType":"contract IInterpreterStoreV2"},{"name":"bytecode","type":"bytes","internalType":"bytes"}]},{"name":"signedContext","type":"tuple[]","internalType":"struct SignedContextV1[]","components":[{"name":"signer","type":"address","internalType":"address"},{"name":"context","type":"uint256[]","internalType":"uint256[]"},{"name":"signature","type":"bytes","internalType":"bytes"}]}]}],"outputs":[],"stateMutability":"nonpayable"},{"type":"event","name":"AddOrderV2","inputs":[{"name":"sender","type":"address","indexed":false,"internalType":"address"},{"name":"orderHash","type":"bytes32","indexed":false,"internalType":"bytes32"},{"name":"order","type":"tuple","indexed":false,"internalType":"struct OrderV3","components":[{"name":"owner","type":"address","internalType":"address"},{"name":"evaluable","type":"tuple","internalType":"struct EvaluableV3","components":[{"name":"interpreter","type":"address","internalType":"contract IInterpreterV3"},{"name":"store","type":"address","internalType":"contract IInterpreterStoreV2"},{"name":"bytecode","type":"bytes","internalType":"bytes"}]},{"name":"validInputs","type":"tuple[]","internalType":"struct IO[]","components":[{"name":"token","type":"address","internalType":"address"},{"name":"decimals","type":"uint8","internalType":"uint8"},{"name":"vaultId","type":"uint256","internalType":"uint256"}]},{"name":"validOutputs","type":"tuple[]","internalType":"struct IO[]","components":[{"name":"token","type":"address","internalType":"address"},{"name":"decimals","type":"uint8","internalType":"uint8"},{"name":"vaultId","type":"uint256","internalType":"uint256"}]},{"name":"nonce","type":"bytes32","internalType":"bytes32"}]}],"anonymous":false},{"type":"event","name":"AfterClear","inputs":[{"name":"sender","type":"address","indexed":false,"internalType":"address"},{"name":"clearStateChange","type":"tuple","indexed":false,"internalType":"struct ClearStateChange","components":[{"name":"aliceOutput","type":"uint256","internalType":"uint256"},{"name":"bobOutput","type":"uint256","internalType":"uint256"},{"name":"aliceInput","type":"uint256","internalType":"uint256"},{"name":"bobInput","type":"uint256","internalType":"uint256"}]}],"anonymous":false},{"type":"event","name":"ClearV2","inputs":[{"name":"sender","type":"address","indexed":false,"internalType":"address"},{"name":"alice","type":"tuple","indexed":false,"internalType":"struct OrderV3","components":[{"name":"owner","type":"address","internalType":"address"},{"name":"evaluable","type":"tuple","internalType":"struct EvaluableV3","components":[{"name":"interpreter","type":"address","internalType":"contract IInterpreterV3"},{"name":"store","type":"address","internalType":"contract IInterpreterStoreV2"},{"name":"bytecode","type":"bytes","internalType":"bytes"}]},{"name":"validInputs","type":"tuple[]","internalType":"struct IO[]","components":[{"name":"token","type":"address","internalType":"address"},{"name":"decimals","type":"uint8","internalType":"uint8"},{"name":"vaultId","type":"uint256","internalType":"uint256"}]},{"name":"validOutputs","type":"tuple[]","internalType":"struct IO[]","components":[{"name":"token","type":"address","internalType":"address"},{"name":"decimals","type":"uint8","internalType":"uint8"},{"name":"vaultId","type":"uint256","internalType":"uint256"}]},{"name":"nonce","type":"bytes32","internalType":"bytes32"}]},{"name":"bob","type":"tuple","indexed":false,"internalType":"struct OrderV3","components":[{"name":"owner","type":"address","internalType":"address"},{"name":"evaluable","type":"tuple","internalType":"struct EvaluableV3","components":[{"name":"interpreter","type":"address","internalType":"contract IInterpreterV3"},{"name":"store","type":"address","internalType":"contract IInterpreterStoreV2"},{"name":"bytecode","type":"bytes","internalType":"bytes"}]},{"name":"validInputs","type":"tuple[]","internalType":"struct IO[]","components":[{"name":"token","type":"address","internalType":"address"},{"name":"decimals","type":"uint8","internalType":"uint8"},{"name":"vaultId","type":"uint256","internalType":"uint256"}]},{"name":"validOutputs","type":"tuple[]","internalType":"struct IO[]","components":[{"name":"token","type":"address","internalType":"address"},{"name":"decimals","type":"uint8","internalType":"uint8"},{"name":"vaultId","type":"uint256","internalType":"uint256"}]},{"name":"nonce","type":"bytes32","internalType":"bytes32"}]},{"name":"clearConfig","type":"tuple","indexed":false,"internalType":"struct ClearConfig","components":[{"name":"aliceInputIOIndex","type":"uint256","internalType":"uint256"},{"name":"aliceOutputIOIndex","type":"uint256","internalType":"uint256"},{"name":"bobInputIOIndex","type":"uint256","internalType":"uint256"},{"name":"bobOutputIOIndex","type":"uint256","internalType":"uint256"},{"name":"aliceBountyVaultId","type":"uint256","internalType":"uint256"},{"name":"bobBountyVaultId","type":"uint256","internalType":"uint256"}]}],"anonymous":false},{"type":"event","name":"Context","inputs":[{"name":"sender","type":"address","indexed":false,"internalType":"address"},{"name":"context","type":"uint256[][]","indexed":false,"internalType":"uint256[][]"}],"anonymous":false},{"type":"event","name":"Deposit","inputs":[{"name":"sender","type":"address","indexed":false,"internalType":"address"},{"name":"token","type":"address","indexed":false,"internalType":"address"},{"name":"vaultId","type":"uint256","indexed":false,"internalType":"uint256"},{"name":"amount","type":"uint256","indexed":false,"internalType":"uint256"}],"anonymous":false},{"type":"event","name":"MetaV1_2","inputs":[{"name":"sender","type":"address","indexed":false,"internalType":"address"},{"name":"subject","type":"bytes32","indexed":false,"internalType":"bytes32"},{"name":"meta","type":"bytes","indexed":false,"internalType":"bytes"}],"anonymous":false},{"type":"event","name":"OrderExceedsMaxRatio","inputs":[{"name":"sender","type":"address","indexed":false,"internalType":"address"},{"name":"owner","type":"address","indexed":false,"internalType":"address"},{"name":"orderHash","type":"bytes32","indexed":false,"internalType":"bytes32"}],"anonymous":false},{"type":"event","name":"OrderNotFound","inputs":[{"name":"sender","type":"address","indexed":false,"internalType":"address"},{"name":"owner","type":"address","indexed":false,"internalType":"address"},{"name":"orderHash","type":"bytes32","indexed":false,"internalType":"bytes32"}],"anonymous":false},{"type":"event","name":"OrderZeroAmount","inputs":[{"name":"sender","type":"address","indexed":false,"internalType":"address"},{"name":"owner","type":"address","indexed":false,"internalType":"address"},{"name":"orderHash","type":"bytes32","indexed":false,"internalType":"bytes32"}],"anonymous":false},{"type":"event","name":"RemoveOrderV2","inputs":[{"name":"sender","type":"address","indexed":false,"internalType":"address"},{"name":"orderHash","type":"bytes32","indexed":false,"internalType":"bytes32"},{"name":"order","type":"tuple","indexed":false,"internalType":"struct OrderV3","components":[{"name":"owner","type":"address","internalType":"address"},{"name":"evaluable","type":"tuple","internalType":"struct EvaluableV3","components":[{"name":"interpreter","type":"address","internalType":"contract IInterpreterV3"},{"name":"store","type":"address","internalType":"contract IInterpreterStoreV2"},{"name":"bytecode","type":"bytes","internalType":"bytes"}]},{"name":"validInputs","type":"tuple[]","internalType":"struct IO[]","components":[{"name":"token","type":"address","internalType":"address"},{"name":"decimals","type":"uint8","internalType":"uint8"},{"name":"vaultId","type":"uint256","internalType":"uint256"}]},{"name":"validOutputs","type":"tuple[]","internalType":"struct IO[]","components":[{"name":"token","type":"address","internalType":"address"},{"name":"decimals","type":"uint8","internalType":"uint8"},{"name":"vaultId","type":"uint256","internalType":"uint256"}]},{"name":"nonce","type":"bytes32","internalType":"bytes32"}]}],"anonymous":false},{"type":"event","name":"TakeOrderV2","inputs":[{"name":"sender","type":"address","indexed":false,"internalType":"address"},{"name":"config","type":"tuple","indexed":false,"internalType":"struct TakeOrderConfigV3","components":[{"name":"order","type":"tuple","internalType":"struct OrderV3","components":[{"name":"owner","type":"address","internalType":"address"},{"name":"evaluable","type":"tuple","internalType":"struct EvaluableV3","components":[{"name":"interpreter","type":"address","internalType":"contract IInterpreterV3"},{"name":"store","type":"address","internalType":"contract IInterpreterStoreV2"},{"name":"bytecode","type":"bytes","internalType":"bytes"}]},{"name":"validInputs","type":"tuple[]","internalType":"struct IO[]","components":[{"name":"token","type":"address","internalType":"address"},{"name":"decimals","type":"uint8","internalType":"uint8"},{"name":"vaultId","type":"uint256","internalType":"uint256"}]},{"name":"validOutputs","type":"tuple[]","internalType":"struct IO[]","components":[{"name":"token","type":"address","internalType":"address"},{"name":"decimals","type":"uint8","internalType":"uint8"},{"name":"vaultId","type":"uint256","internalType":"uint256"}]},{"name":"nonce","type":"bytes32","internalType":"bytes32"}]},{"name":"inputIOIndex","type":"uint256","internalType":"uint256"},{"name":"outputIOIndex","type":"uint256","internalType":"uint256"},{"name":"signedContext","type":"tuple[]","internalType":"struct SignedContextV1[]","components":[{"name":"signer","type":"address","internalType":"address"},{"name":"context","type":"uint256[]","internalType":"uint256[]"},{"name":"signature","type":"bytes","internalType":"bytes"}]}]},{"name":"input","type":"uint256","indexed":false,"internalType":"uint256"},{"name":"output","type":"uint256","indexed":false,"internalType":"uint256"}],"anonymous":false},{"type":"event","name":"Withdraw","inputs":[{"name":"sender","type":"address","indexed":false,"internalType":"address"},{"name":"token","type":"address","indexed":false,"internalType":"address"},{"name":"vaultId","type":"uint256","indexed":false,"internalType":"uint256"},{"name":"targetAmount","type":"uint256","indexed":false,"internalType":"uint256"},{"name":"amount","type":"uint256","indexed":false,"internalType":"uint256"}],"anonymous":false},{"type":"error","name":"FlashLenderCallbackFailed","inputs":[{"name":"result","type":"bytes32","internalType":"bytes32"}]},{"type":"error","name":"InvalidSignature","inputs":[{"name":"i","type":"uint256","internalType":"uint256"}]},{"type":"error","name":"MinimumInput","inputs":[{"name":"minimumInput","type":"uint256","internalType":"uint256"},{"name":"input","type":"uint256","internalType":"uint256"}]},{"type":"error","name":"NoOrders","inputs":[]},{"type":"error","name":"NotOrderOwner","inputs":[{"name":"sender","type":"address","internalType":"address"},{"name":"owner","type":"address","internalType":"address"}]},{"type":"error","name":"NotRainMetaV1","inputs":[{"name":"unmeta","type":"bytes","internalType":"bytes"}]},{"type":"error","name":"OrderNoHandleIO","inputs":[]},{"type":"error","name":"OrderNoInputs","inputs":[]},{"type":"error","name":"OrderNoOutputs","inputs":[]},{"type":"error","name":"OrderNoSources","inputs":[]},{"type":"error","name":"SameOwner","inputs":[{"name":"owner","type":"address","internalType":"address"}]},{"type":"error","name":"TokenDecimalsMismatch","inputs":[{"name":"aliceTokenDecimals","type":"uint8","internalType":"uint8"},{"name":"bobTokenDecimals","type":"uint8","internalType":"uint8"}]},{"type":"error","name":"TokenMismatch","inputs":[]},{"type":"error","name":"UnsupportedCalculateOutputs","inputs":[{"name":"outputs","type":"uint256","internalType":"uint256"}]},{"type":"error","name":"ZeroDepositAmount","inputs":[{"name":"sender","type":"address","internalType":"address"},{"name":"token","type":"address","internalType":"address"},{"name":"vaultId","type":"uint256","internalType":"uint256"}]},{"type":"error","name":"ZeroMaximumInput","inputs":[]},{"type":"error","name":"ZeroWithdrawTargetAmount","inputs":[{"name":"sender","type":"address","internalType":"address"},{"name":"token","type":"address","internalType":"address"},{"name":"vaultId","type":"uint256","internalType":"uint256"}]}],"bytecode":{"object":"0x6080604052348015600f57600080fd5b506001600055615fd9806100246000396000f3fe608060405234801561001057600080fd5b50600436106100f55760003560e01c806391337c0a11610097578063d97b2e4811610066578063d97b2e4814610223578063d9d98ce414610270578063e0e530b714610286578063f513c42d146102b657600080fd5b806391337c0a146101ca578063a08f5dff146101dd578063a616864d146101f0578063ac9650d81461020357600080fd5b80632cb77e9f116100d35780632cb77e9f1461015f5780635cffe9de14610183578063613255ab146101965780638d7b6beb146101b757600080fd5b806301ffc9a7146100fa5780630997c4a0146101225780630d4f7f711461014a575b600080fd5b61010d61010836600461461c565b6102c9565b60405190151581526020015b60405180910390f35b610135610130366004614676565b610362565b60408051928352602083019190915201610119565b61015d6101583660046146f0565b6110c9565b005b61010d61016d366004614732565b6000908152600160208190526040909120541490565b61010d61019136600461477d565b61111d565b6101a96101a436600461481c565b61127c565b604051908152602001610119565b61010d6101c5366004614839565b61130d565b61015d6101d83660046148a2565b6114ac565b61015d6101eb366004614e04565b611717565b61010d6101fe366004614ec6565b611db4565b6102166102113660046146f0565b6120a3565b6040516101199190614f6d565b6101a9610231366004614fef565b73ffffffffffffffffffffffffffffffffffffffff92831660009081526002602090815260408083209490951682529283528381209181529152205490565b6101a961027e366004615030565b600092915050565b61029961029436600461505c565b61218b565b604080519315158452602084019290925290820152606001610119565b61015d6102c43660046148a2565b61222d565b60007fffffffff0000000000000000000000000000000000000000000000000000000082167fe414309100000000000000000000000000000000000000000000000000000000148061035c57507f01ffc9a7000000000000000000000000000000000000000000000000000000007fffffffff000000000000000000000000000000000000000000000000000000008316145b92915050565b60008061036d61249c565b61037a6060840184615097565b90506000036103b5576040517f9c95219f00000000000000000000000000000000000000000000000000000000815260040160405180910390fd5b6103bd614519565b6103c5614547565b606060006103d587830188615097565b604080516020600193909301830281019091529350880135915050600081900361042b576040517fc2ee700900000000000000000000000000000000000000000000000000000000815260040160405180910390fd5b60005b61043b6060890189615097565b90508110801561044b5750600082115b15610cd35761045d6060890189615097565b8281811061046d5761046d6150ff565b905060200281019061047f919061512e565b6104889061516c565b8051909550935061049c6060890189615097565b60008181106104ad576104ad6150ff565b90506020028101906104bf919061512e565b6104c99080615206565b6104d790604081019061523a565b6104e460608b018b615097565b60008181106104f5576104f56150ff565b9050602002810190610507919061512e565b6020013581811061051a5761051a6150ff565b610530926020606090920201908101915061481c565b73ffffffffffffffffffffffffffffffffffffffff168460400151866020015181518110610560576105606150ff565b60200260200101516000015173ffffffffffffffffffffffffffffffffffffffff1614158061068057506105976060890189615097565b60008181106105a8576105a86150ff565b90506020028101906105ba919061512e565b6105c49080615206565b6105d290606081019061523a565b6105df60608b018b615097565b60008181106105f0576105f06150ff565b9050602002810190610602919061512e565b60400135818110610615576106156150ff565b61062b926020606090920201908101915061481c565b73ffffffffffffffffffffffffffffffffffffffff16846060015186604001518151811061065b5761065b6150ff565b60200260200101516000015173ffffffffffffffffffffffffffffffffffffffff1614155b156106b7576040517f936bb5ad00000000000000000000000000000000000000000000000000000000815260040160405180910390fd5b6106c46060890189615097565b60008181106106d5576106d56150ff565b90506020028101906106e7919061512e565b6106f19080615206565b6106ff90604081019061523a565b61070c60608b018b615097565b600081811061071d5761071d6150ff565b905060200281019061072f919061512e565b60200135818110610742576107426150ff565b905060600201602001602081019061075a91906152a1565b60ff168460400151866020015181518110610777576107776150ff565b60200260200101516020015160ff161461089b5783604001518560200151815181106107a5576107a56150ff565b6020026020010151602001518880606001906107c19190615097565b60008181106107d2576107d26150ff565b90506020028101906107e4919061512e565b6107ee9080615206565b6107fc90604081019061523a565b61080960608c018c615097565b600081811061081a5761081a6150ff565b905060200281019061082c919061512e565b6020013581811061083f5761083f6150ff565b905060600201602001602081019061085791906152a1565b6040517f0f6ce47700000000000000000000000000000000000000000000000000000000815260ff9283166004820152911660248201526044015b60405180910390fd5b6108a86060890189615097565b60008181106108b9576108b96150ff565b90506020028101906108cb919061512e565b6108d59080615206565b6108e390606081019061523a565b6108f060608b018b615097565b6000818110610901576109016150ff565b9050602002810190610913919061512e565b60400135818110610926576109266150ff565b905060600201602001602081019061093e91906152a1565b60ff16846060015186604001518151811061095b5761095b6150ff565b60200260200101516020015160ff1614610a23578360600151856040015181518110610989576109896150ff565b6020026020010151602001518880606001906109a59190615097565b60008181106109b6576109b66150ff565b90506020028101906109c8919061512e565b6109d29080615206565b6109e090606081019061523a565b6109ed60608c018c615097565b60008181106109fe576109fe6150ff565b9050602002810190610a10919061512e565b6040013581811061083f5761083f6150ff565b6000610a2e8561250f565b600081815260016020526040902054909150610aa15784516040805133815273ffffffffffffffffffffffffffffffffffffffff909216602083015281018290527fb70c12fa453793fa6818ec07c91e74363a47aa6a6829dcd9533937fdf30314f39060600160405180910390a1610cca565b6000610abc8688602001518960400151338b6060015161253f565b9050896040013581606001511115610b2c5785516040805133815273ffffffffffffffffffffffffffffffffffffffff909216602083015281018390527fe3151dc8cb7a54ffc4baabd28c1f241c94d510b5e5b502491ac3cad6c16316d5906060015b60405180910390a1610cc8565b8060400151600003610b8d5785516040805133815273ffffffffffffffffffffffffffffffffffffffff909216602083015281018390527f500b713857325f9e6dcb52ae832eca9109d107ed1aae9cb4928b4c1e13f051aa90606001610b1f565b60008660600151886040015181518110610ba957610ba96150ff565b602090810291909101810151015160408301519091506000610bd08760ff85166002612ccc565b905080821115610bde578091505b50600080610bfc8560600151600185612d519092919063ffffffff16565b9050610c3c8a604001518c6020015181518110610c1b57610c1b6150ff565b60200260200101516020015160ff16600183612d6f9092919063ffffffff16565b915060009050610c518360ff86166002612d6f565b9050610c5d81896152ed565b9750610c69828d615300565b9b50610c76828287612dd1565b7f10de99b9032184587540c04e1850dff94a7683ae1fcc9eb06098621c739c0275338c8385604051610cab9493929190615454565b60405180910390a150508651600101808852602002870183905250505b505b5060010161042e565b610ce18260208a01356152ed565b965050508535851015610d2a576040517f45094d880000000000000000000000000000000000000000000000000000000081528635600482015260248101869052604401610892565b8415610df357610df33386610d4260608a018a615097565b6000818110610d5357610d536150ff565b9050602002810190610d65919061512e565b610d6f9080615206565b610d7d90606081019061523a565b610d8a60608c018c615097565b6000818110610d9b57610d9b6150ff565b9050602002810190610dad919061512e565b60400135818110610dc057610dc06150ff565b610dd6926020606090920201908101915061481c565b73ffffffffffffffffffffffffffffffffffffffff169190613148565b6000610e026080880188615589565b90501115610fb5573363059bebe6610e1d6060890189615097565b6000818110610e2e57610e2e6150ff565b9050602002810190610e40919061512e565b610e4a9080615206565b610e5890606081019061523a565b610e6560608b018b615097565b6000818110610e7657610e766150ff565b9050602002810190610e88919061512e565b60400135818110610e9b57610e9b6150ff565b610eb1926020606090920201908101915061481c565b610ebe60608a018a615097565b6000818110610ecf57610ecf6150ff565b9050602002810190610ee1919061512e565b610eeb9080615206565b610ef990604081019061523a565b610f0660608c018c615097565b6000818110610f1757610f176150ff565b9050602002810190610f29919061512e565b60200135818110610f3c57610f3c6150ff565b610f52926020606090920201908101915061481c565b8888610f6160808d018d615589565b6040518763ffffffff1660e01b8152600401610f8296959493929190615637565b600060405180830381600087803b158015610f9c57600080fd5b505af1158015610fb0573d6000803e3d6000fd5b505050505b831561108057611080333086610fce60608b018b615097565b6000818110610fdf57610fdf6150ff565b9050602002810190610ff1919061512e565b610ffb9080615206565b61100990604081019061523a565b61101660608d018d615097565b6000818110611027576110276150ff565b9050602002810190611039919061512e565b6020013581811061104c5761104c6150ff565b611062926020606090920201908101915061481c565b73ffffffffffffffffffffffffffffffffffffffff16929190613221565b60005b81518110156110b6576110ae8282815181106110a1576110a16150ff565b6020026020010151613285565b600101611083565b505050506110c46001600055565b915091565b6110d161249c565b6040805160008082526020820190925261110f916110ff565b60608152602001906001900390816110ea5790505b5061110a8385615689565b6134d0565b6111196001600055565b5050565b600061114073ffffffffffffffffffffffffffffffffffffffff86168786613148565b6040517f23e30c8b00000000000000000000000000000000000000000000000000000000815260009073ffffffffffffffffffffffffffffffffffffffff8816906323e30c8b9061119f9033908a908a9087908b908b90600401615637565b6020604051808303816000875af11580156111be573d6000803e3d6000fd5b505050506040513d601f19601f820116820180604052508101906111e29190615753565b90507f439148f0bbc682ca079e46d6e2c2f0c1e3b820f1a291b069d8882abf8cf18dd98114611240576040517f5b62c54800000000000000000000000000000000000000000000000000000000815260048101829052602401610892565b61126f8730611250600089615300565b73ffffffffffffffffffffffffffffffffffffffff8a16929190613221565b5060019695505050505050565b6040517f70a0823100000000000000000000000000000000000000000000000000000000815230600482015260009073ffffffffffffffffffffffffffffffffffffffff8316906370a0823190602401602060405180830381865afa1580156112e9573d6000803e3d6000fd5b505050506040513d601f19601f8201168201806040525081019061035c9190615753565b600061131761249c565b611324602085018561481c565b73ffffffffffffffffffffffffffffffffffffffff163373ffffffffffffffffffffffffffffffffffffffff16146113b65733611364602086018661481c565b6040517f4702b91400000000000000000000000000000000000000000000000000000000815273ffffffffffffffffffffffffffffffffffffffff928316600482015291166024820152604401610892565b60006113c96113c48661576c565b61250f565b6000818152600160205260409020549091507fffffffffffffffffffffffffffffffffffffffffffffffffffffffffffffffff0161149a5760008181526001602081905260408083209290925590519092507fa2d7a96afe77c99b6a2d72ca8b4d3c5c88b6466ee34ca74e0955951f449425c89061144c903390849089906158fd565b60405180910390a160408051600281526020810183905233818301526060810190915261149a90611490905b60408051600181526020810192909252818101905290565b61110a8587615689565b506114a56001600055565b9392505050565b6114b461249c565b82600003611513576040517f40e97a5e00000000000000000000000000000000000000000000000000000000815233600482015273ffffffffffffffffffffffffffffffffffffffff8616602482015260448101859052606401610892565b6040805133815273ffffffffffffffffffffffffffffffffffffffff87166020820152908101859052606081018490527fdcbc1c05240f31ff3ad067ef1ee35ce4997762752e3a095284754544f4c709d79060800160405180910390a161159273ffffffffffffffffffffffffffffffffffffffff8616333086613221565b33600090815260026020908152604080832073ffffffffffffffffffffffffffffffffffffffff8916845282528083208784529091529020546115d58482615300565b33600090815260026020908152604080832073ffffffffffffffffffffffffffffffffffffffff8b168452825280832089845290915290205581156117055760008673ffffffffffffffffffffffffffffffffffffffff1663313ce5676040518163ffffffff1660e01b8152600401602060405180830381865afa158015611661573d6000803e3d6000fd5b505050506040513d601f19601f820116820180604052508101906116859190615a0c565b60ff169050600061169883836000612ccc565b905060006116a887846000612ccc565b604080516004815273ffffffffffffffffffffffffffffffffffffffff8c1660208201528082018b9052606081018590526080810183905260a08101909152909150611701906116f790611478565b61110a8789615689565b5050505b506117106001600055565b5050505050565b61171f61249c565b8351855173ffffffffffffffffffffffffffffffffffffffff91821691160361178f5784516040517f227e4ce900000000000000000000000000000000000000000000000000000000815273ffffffffffffffffffffffffffffffffffffffff9091166004820152602401610892565b83604001518360400135815181106117a9576117a96150ff565b60200260200101516000015173ffffffffffffffffffffffffffffffffffffffff1685606001518460200135815181106117e5576117e56150ff565b60200260200101516000015173ffffffffffffffffffffffffffffffffffffffff161415806118885750604085015180518435908110611827576118276150ff565b60200260200101516000015173ffffffffffffffffffffffffffffffffffffffff168460600151846060013581518110611863576118636150ff565b60200260200101516000015173ffffffffffffffffffffffffffffffffffffffff1614155b156118bf576040517f936bb5ad00000000000000000000000000000000000000000000000000000000815260040160405180910390fd5b83604001518360400135815181106118d9576118d96150ff565b60200260200101516020015160ff168560600151846020013581518110611902576119026150ff565b60200260200101516020015160ff16146119a5578460600151836020013581518110611930576119306150ff565b6020026020010151602001518460400151846040013581518110611956576119566150ff565b6020026020010151602001516040517f0f6ce47700000000000000000000000000000000000000000000000000000000815260040161089292919060ff92831681529116602082015260400190565b6040850151805184359081106119bd576119bd6150ff565b60200260200101516020015160ff1684606001518460600135815181106119e6576119e66150ff565b60200260200101516020015160ff1614611a3857604085015180518435908110611a1257611a126150ff565b6020026020010151602001518460600151846060013581518110611956576119566150ff565b600060016000611a478861250f565b81526020019081526020016000205403611ac6577fb70c12fa453793fa6818ec07c91e74363a47aa6a6829dcd9533937fdf30314f3338660000151611a8b8861250f565b6040805173ffffffffffffffffffffffffffffffffffffffff94851681529390921660208401529082015260600160405180910390a1611daa565b600060016000611ad58761250f565b81526020019081526020016000205403611b19577fb70c12fa453793fa6818ec07c91e74363a47aa6a6829dcd9533937fdf30314f3338560000151611a8b8761250f565b7f692ee69af2843c70772be93470669f3c73e583316a047b6bfefdae5629de37ce33868686604051611b4e9493929190615a29565b60405180910390a16000611b71868560000135866020013588600001518661253f565b90506000611b8e86866040013587606001358a600001518861253f565b90506000611b9c83836136e0565b9050611bb18160400151826000015185612dd1565b611bc48160600151826020015184612dd1565b60608101518151600091611bd7916152ed565b9050600082604001518360200151611bef91906152ed565b90508115611c9557336000908152600260209081526040822060608d01518051869492938d0135908110611c2557611c256150ff565b60200260200101516000015173ffffffffffffffffffffffffffffffffffffffff1673ffffffffffffffffffffffffffffffffffffffff16815260200190815260200160002060008a6080013581526020019081526020016000206000828254611c8f9190615300565b90915550505b8015611d37573360009081526002602052604081206060808c015180518594928d0135908110611cc757611cc76150ff565b60200260200101516000015173ffffffffffffffffffffffffffffffffffffffff1673ffffffffffffffffffffffffffffffffffffffff16815260200190815260200160002060008a60a0013581526020019081526020016000206000828254611d319190615300565b90915550505b5050604080513381528251602080830191909152830151818301529082015160608083019190915282015160808201527f3f20e55919cca701abb2a40ab72542b25ea7eed63a50f979dd2cd3231e5f488d9060a00160405180910390a1611d9d83613285565b611da682613285565b5050505b6117106001600055565b6000611dbe61249c565b611dcb602085018561523a565b9050600003611e06576040517f6c44ef8f00000000000000000000000000000000000000000000000000000000815260040160405180910390fd5b611e13604085018561523a565b9050600003611e4e576040517f540e5f0b00000000000000000000000000000000000000000000000000000000815260040160405180910390fd5b6040805160a0810190915233815260009060208101611e6d8780615ab3565b611e7690615ae7565b8152602001868060200190611e8b919061523a565b808060200260200160405190810160405280939291908181526020016000905b82821015611ed757611ec860608302860136819003810190615af3565b81526020019060010190611eab565b5050509183525050602001611eef604088018861523a565b808060200260200160405190810160405280939291908181526020016000905b82821015611f3b57611f2c60608302860136819003810190615af3565b81526020019060010190611f0f565b50505050508152602001866060013581525090506000611f5a8261250f565b6000818152600160205260409020549091501580156120955760008281526001602081905260409182902055835190517f3ce8bbe652d8778b67dd565c479c3bbaa843e55e477d075f756f889ec4bbdaee91611fb99185908790615b0f565b60405180910390a16000611fd060a0890189615589565b9050111561206d57612022611fe860a0890189615589565b8080601f01602080910402602001604051908101604052809392919081815260200183838082843760009201919091525061373692505050565b82517fd46c2c56b35c8210e9e712ec3f02242d5fc90187c0ac8ed80cc33626846ec369908361205460a08b018b615589565b6040516120649493929190615b44565b60405180910390a15b604080516002815260208101849052338183015260608101909152612095906116f790611478565b925050506114a56001600055565b6040805160008152602081019091526060908267ffffffffffffffff8111156120ce576120ce61490c565b60405190808252806020026020018201604052801561210157816020015b60608152602001906001900390816120ec5790505b50915060005b838110156121835761215e30868684818110612125576121256150ff565b90506020028101906121379190615589565b8560405160200161214a93929190615b7a565b60405160208183030381529060405261377a565b838281518110612170576121706150ff565b6020908102919091010152600101612107565b505092915050565b60008080806121a661219d8680615206565b6113c49061576c565b600081815260016020819052604090912054919250146121d157600080600093509350935050612226565b600061220f6121e08780615206565b6121e99061576c565b602088013560408901353361220160608c018c615097565b61220a91615ba1565b61253f565b905060018160400151826060015194509450945050505b9193909250565b61223561249c565b82600003612294576040517ff7a898f600000000000000000000000000000000000000000000000000000000815233600482015273ffffffffffffffffffffffffffffffffffffffff8616602482015260448101859052606401610892565b33600090815260026020908152604080832073ffffffffffffffffffffffffffffffffffffffff891684528252808320878452909152812054906122d8858361379f565b90508015612490576122ea81836152ed565b33600081815260026020908152604080832073ffffffffffffffffffffffffffffffffffffffff8d168085529083528184208c855283529281902094909455835192835282015290810187905260608101869052608081018290527febff2602b3f468259e1e99f613fed6691f3a6526effe6ef3e768ba7ae7a36c4f9060a00160405180910390a161239373ffffffffffffffffffffffffffffffffffffffff88163383613148565b82156124905760008773ffffffffffffffffffffffffffffffffffffffff1663313ce5676040518163ffffffff1660e01b8152600401602060405180830381865afa1580156123e6573d6000803e3d6000fd5b505050506040513d601f19601f8201168201806040525081019061240a9190615a0c565b60ff169050611da66124866114788a73ffffffffffffffffffffffffffffffffffffffff168a61243c88876000612ccc565b61244888886000612ccc565b6124548d896000612ccc565b60408051600581526020810196909652858101949094526060850192909252608084015260a083015260c08201905290565b61110a8688615689565b50506117106001600055565b600260005403612508576040517f08c379a000000000000000000000000000000000000000000000000000000000815260206004820152601f60248201527f5265656e7472616e637947756172643a207265656e7472616e742063616c6c006044820152606401610892565b6002600055565b6000816040516020016125229190615bae565b604051602081830303815290604052805190602001209050919050565b6125476145d9565b60006125528761250f565b60408051600480825260a08201909252919250606091600091816020015b606081526020019060019003908161257057905050895160408051600381526020810187905273ffffffffffffffffffffffffffffffffffffffff9283168183015291891660608301526080820190529091508160018003815181106125d8576125d86150ff565b60200260200101819052506000600260008b6000015173ffffffffffffffffffffffffffffffffffffffff1673ffffffffffffffffffffffffffffffffffffffff16815260200190815260200160002060008b604001518b81518110612640576126406150ff565b60200260200101516000015173ffffffffffffffffffffffffffffffffffffffff1673ffffffffffffffffffffffffffffffffffffffff16815260200190815260200160002060008b604001518b8151811061269e5761269e6150ff565b60200260200101516040015181526020019081526020016000205490506127b58a604001518a815181106126d4576126d46150ff565b60200260200101516000015173ffffffffffffffffffffffffffffffffffffffff168b604001518b8151811061270c5761270c6150ff565b60200260200101516020015160ff16670de0b6b3a76400000267ffffffffffffffff168c604001518c81518110612745576127456150ff565b602002602001015160400151612781858f604001518f8151811061276b5761276b6150ff565b60200260200101516020015160ff166000612ccc565b600060408051600581526020810196909652858101949094526060850192909252608084015260a083015260c08201905290565b826001600303815181106127cb576127cb6150ff565b6020026020010181905250506000600260008b6000015173ffffffffffffffffffffffffffffffffffffffff1673ffffffffffffffffffffffffffffffffffffffff16815260200190815260200160002060008b606001518a81518110612834576128346150ff565b60200260200101516000015173ffffffffffffffffffffffffffffffffffffffff1673ffffffffffffffffffffffffffffffffffffffff16815260200190815260200160002060008b606001518a81518110612892576128926150ff565b602002602001015160400151815260200190815260200160002054905061295f8a6060015189815181106128c8576128c86150ff565b60200260200101516000015173ffffffffffffffffffffffffffffffffffffffff168b606001518a81518110612900576129006150ff565b60200260200101516020015160ff16670de0b6b3a76400000267ffffffffffffffff168c606001518b81518110612939576129396150ff565b602002602001015160400151612781858f606001518e8151811061276b5761276b6150ff565b82600160040381518110612975576129756150ff565b60200260200101819052505061298b81866137b5565b9150506000886000015173ffffffffffffffffffffffffffffffffffffffff1690506000808a602001516000015173ffffffffffffffffffffffffffffffffffffffff1663d6e3357a8c60200151602001516129f1863060009182526020526040902090565b60208f01516040015160008981604051908082528060200260200182016040528015612a27578160200160208202803683370190505b506040518763ffffffff1660e01b8152600401612a4996959493929190615c2c565b600060405180830381865afa158015612a66573d6000803e3d6000fd5b505050506040513d6000823e601f3d9081017fffffffffffffffffffffffffffffffffffffffffffffffffffffffffffffffe0168201604052612aac9190810190615d04565b91509150600282511015612af15781516040517f3eee395400000000000000000000000000000000000000000000000000000000815260040161089291815260200190565b600082600181518110612b0657612b066150ff565b60200260200101519050600083600081518110612b2557612b256150ff565b602002602001015190506000600260008f6000015173ffffffffffffffffffffffffffffffffffffffff1673ffffffffffffffffffffffffffffffffffffffff16815260200190815260200160002060008f606001518e81518110612b8c57612b8c6150ff565b60200260200101516000015173ffffffffffffffffffffffffffffffffffffffff1673ffffffffffffffffffffffffffffffffffffffff16815260200190815260200160002060008f606001518e81518110612bea57612bea6150ff565b60200260200101516040015181526020019081526020016000205490506000612c438f606001518e81518110612c2257612c226150ff565b60200260200101516020015160ff16600084612ccc9092919063ffffffff16565b905080841115612c51578093505b50506040805160028152602081018490528082018390526060810190915286600281518110612c8257612c826150ff565b6020908102919091018101919091526040805160e0810182529e8f52908e019b909b52998c015260608b019890985250608089019190915260a08801525050505060c08301525090565b60008260121115612d015760128390036002831615612cf757612cef8582613ac5565b9150506114a5565b612cef8582613b52565b6012831115612d4a577fffffffffffffffffffffffffffffffffffffffffffffffffffffffffffffffee83016001831615612d4057612cef8582613b8a565b612cef8582613bd8565b50826114a5565b6000612d678484670de0b6b3a764000085613bfb565b949350505050565b60008260121115612d925760128390036001831615612d4057612cef8582613b8a565b6012831115612d4a577fffffffffffffffffffffffffffffffffffffffffffffffffffffffffffffffee83016002831615612cf757612cef8582613ac5565b612e2c83670de0b6b3a76400008360800151600381518110612df557612df56150ff565b6020026020010151600181518110612e0f57612e0f6150ff565b602002602001015181612e2457612e24615d68565b046000612ccc565b8160800151600381518110612e4357612e436150ff565b6020026020010151600481518110612e5d57612e5d6150ff565b602002602001018181525050612ec482670de0b6b3a76400008360800151600481518110612e8d57612e8d6150ff565b6020026020010151600181518110612ea757612ea76150ff565b602002602001015181612ebc57612ebc615d68565b046001612ccc565b8160800151600481518110612edb57612edb6150ff565b6020026020010151600481518110612ef557612ef56150ff565b602090810291909101015282156130035780515173ffffffffffffffffffffffffffffffffffffffff16600090815260026020526040812060808301518051869391906003908110612f4957612f496150ff565b6020026020010151600081518110612f6357612f636150ff565b602002602001015173ffffffffffffffffffffffffffffffffffffffff1673ffffffffffffffffffffffffffffffffffffffff16815260200190815260200160002060008360800151600381518110612fbe57612fbe6150ff565b6020026020010151600281518110612fd857612fd86150ff565b602002602001015181526020019081526020016000206000828254612ffd9190615300565b90915550505b81156131065780515173ffffffffffffffffffffffffffffffffffffffff1660009081526002602052604081206080830151805185939190600490811061304c5761304c6150ff565b6020026020010151600081518110613066576130666150ff565b602002602001015173ffffffffffffffffffffffffffffffffffffffff1673ffffffffffffffffffffffffffffffffffffffff168152602001908152602001600020600083608001516004815181106130c1576130c16150ff565b60200260200101516002815181106130db576130db6150ff565b60200260200101518152602001908152602001600020600082825461310091906152ed565b90915550505b7f17a5c0f3785132a57703932032f6863e7920434150aa1dc940e567b440fdce1f33826080015160405161313b929190615d97565b60405180910390a1505050565b60405173ffffffffffffffffffffffffffffffffffffffff831660248201526044810182905261321c9084907fa9059cbb00000000000000000000000000000000000000000000000000000000906064015b604080517fffffffffffffffffffffffffffffffffffffffffffffffffffffffffffffffe08184030181529190526020810180517bffffffffffffffffffffffffffffffffffffffffffffffffffffffff167fffffffff0000000000000000000000000000000000000000000000000000000090931692909217909152613c58565b505050565b60405173ffffffffffffffffffffffffffffffffffffffff8085166024830152831660448201526064810182905261327f9085907f23b872dd000000000000000000000000000000000000000000000000000000009060840161319a565b50505050565b60c0810151511561332a578051602090810151015160a082015160c08301516040517f946aadc600000000000000000000000000000000000000000000000000000000815273ffffffffffffffffffffffffffffffffffffffff9093169263946aadc6926132f7929091600401615dc6565b600060405180830381600087803b15801561331157600080fd5b505af1158015613325573d6000803e3d6000fd5b505050505b805160209081015180519082015160a084015160009081523090935260408320839273ffffffffffffffffffffffffffffffffffffffff169163d6e3357a9186516020015160400151608088015160019060006040519080825280602002602001820160405280156133a6578160200160208202803683370190505b506040518763ffffffff1660e01b81526004016133c896959493929190615c2c565b600060405180830381865afa1580156133e5573d6000803e3d6000fd5b505050506040513d6000823e601f3d9081017fffffffffffffffffffffffffffffffffffffffffffffffffffffffffffffffe016820160405261342b9190810190615d04565b805191935091501561321c578251602090810151015160a08401516040517f946aadc600000000000000000000000000000000000000000000000000000000815273ffffffffffffffffffffffffffffffffffffffff9092169163946aadc691613499918590600401615dc6565b600060405180830381600087803b1580156134b357600080fd5b505af11580156134c7573d6000803e3d6000fd5b50505050505050565b336135036040805160a0810182526000918101828152606080830193909352608082018390528152602081019190915290565b60005b835181101561171057838181518110613521576135216150ff565b6020026020010151915060008260000151604001515111156136d8578151805160209182015160008681523090935260408320839273ffffffffffffffffffffffffffffffffffffffff169163d6e3357a91876000015160400151600061358c8d8b602001516137b5565b604080516000815260208101918290527fffffffff0000000000000000000000000000000000000000000000000000000060e089901b169091526135d895949392919060248101615c2c565b600060405180830381865afa1580156135f5573d6000803e3d6000fd5b505050506040513d6000823e601f3d9081017fffffffffffffffffffffffffffffffffffffffffffffffffffffffffffffffe016820160405261363b9190810190615d04565b80519193509150156136d5578351602001516040517f946aadc600000000000000000000000000000000000000000000000000000000815273ffffffffffffffffffffffffffffffffffffffff9091169063946aadc6906136a29088908590600401615dc6565b600060405180830381600087803b1580156136bc57600080fd5b505af11580156136d0573d6000803e3d6000fd5b505050505b50505b600101613506565b61370b6040518060800160405280600081526020016000815260200160008152602001600081525090565b6137158383613d67565b825260408201526137268284613d67565b6020830152606082015292915050565b61373f81613e2c565b61377757806040517f644cc2580000000000000000000000000000000000000000000000000000000081526004016108929190615ddf565b50565b60606114a58383604051806060016040528060278152602001615fb260279139613e5c565b60008183106137ae57816114a5565b5090919050565b60606000825167ffffffffffffffff8111156137d3576137d361490c565b6040519080825280602002602001820160405280156137fc578160200160208202803683370190505b509050600080845111613810576000613816565b83516001015b855160010101905060008167ffffffffffffffff8111156138395761383961490c565b60405190808252806020026020018201604052801561386c57816020015b60608152602001906001900390816138575790505b5090506000613891604080516002815233602082015230818301526060810190915290565b8282815181106138a3576138a36150ff565b602002602001018190525060005b87518110156139015781806001019250508781815181106138d4576138d46150ff565b60200260200101518383815181106138ee576138ee6150ff565b60209081029190910101526001016138b1565b50855115613abb57808060010191505083828281518110613924576139246150ff565b602002602001018190525060005b8651811015613ab9576139e3878281518110613950576139506150ff565b6020026020010151600001516139c061398d8a8581518110613974576139746150ff565b6020026020010151602001518051602090810291012090565b7f19457468657265756d205369676e6564204d6573736167653a0a3332000000006000908152601c91909152603c902090565b8984815181106139d2576139d26150ff565b602002602001015160400151613ee1565b613a1c576040517f52bf984800000000000000000000000000000000000000000000000000000000815260048101829052602401610892565b868181518110613a2e57613a2e6150ff565b60200260200101516000015173ffffffffffffffffffffffffffffffffffffffff16858281518110613a6257613a626150ff565b6020026020010181815250508180600101925050868181518110613a8857613a886150ff565b602002602001015160200151838381518110613aa657613aa66150ff565b6020908102919091010152600101613932565b505b5095945050505050565b6000604e8210613b05578215613afb577fffffffffffffffffffffffffffffffffffffffffffffffffffffffffffffffff613afe565b60005b905061035c565b50600a81900a8281029083818381613b1f57613b1f615d68565b0414613b4b577fffffffffffffffffffffffffffffffffffffffffffffffffffffffffffffffff612d67565b5092915050565b600a81900a613b618184615df2565b9050604e821061035c578215613b8157613b7c82600a615f29565b6114a5565b50600092915050565b6000604e8210613bae578215613ba1576001613ba4565b60005b60ff16905061035c565b600a82900a808481613bc257613bc2615d68565b0491508082028414613b4b575060010192915050565b6000604e821015613b815781600a0a8381613bf557613bf5615d68565b046114a5565b600080613c09868686613f52565b90506001836002811115613c1f57613c1f615f35565b148015613c3c575060008480613c3757613c37615d68565b868809115b15613c4f57613c4c600182615300565b90505b95945050505050565b6000613cba826040518060400160405280602081526020017f5361666545524332303a206c6f772d6c6576656c2063616c6c206661696c65648152508573ffffffffffffffffffffffffffffffffffffffff1661407c9092919063ffffffff16565b9050805160001480613cdb575080806020019051810190613cdb9190615f64565b61321c576040517f08c379a000000000000000000000000000000000000000000000000000000000815260206004820152602a60248201527f5361666545524332303a204552433230206f7065726174696f6e20646964206e60448201527f6f742073756363656564000000000000000000000000000000000000000000006064820152608401610892565b6000806000613d8a846060015160018660400151612d519092919063ffffffff16565b604086015190915081811115613d9d5750805b613ddf866000015160600151876020015181518110613dbe57613dbe6150ff565b60200260200101516020015160ff16600083612d6f9092919063ffffffff16565b92506000613dfd8760600151600184612d519092919063ffffffff16565b9050613e20866000015160600151876020015181518110610c1b57610c1b6150ff565b94505050509250929050565b6000600882511015613e4057506000919050565b506008015167ffffffffffffffff1667ff0a89c674ee78741490565b60606000808573ffffffffffffffffffffffffffffffffffffffff1685604051613e869190615f86565b600060405180830381855af49150503d8060008114613ec1576040519150601f19603f3d011682016040523d82523d6000602084013e613ec6565b606091505b5091509150613ed78683838761408b565b9695505050505050565b6000806000613ef0858561412b565b90925090506000816004811115613f0957613f09615f35565b148015613f4157508573ffffffffffffffffffffffffffffffffffffffff168273ffffffffffffffffffffffffffffffffffffffff16145b80613ed75750613ed7868686614170565b600080807fffffffffffffffffffffffffffffffffffffffffffffffffffffffffffffffff85870985870292508281108382030391505080600003613faa57838281613fa057613fa0615d68565b04925050506114a5565b808411614013576040517f08c379a000000000000000000000000000000000000000000000000000000000815260206004820152601560248201527f4d6174683a206d756c446976206f766572666c6f7700000000000000000000006044820152606401610892565b60008486880960026001871981018816978890046003810283188082028403028082028403028082028403028082028403028082028403029081029092039091026000889003889004909101858311909403939093029303949094049190911702949350505050565b6060612d6784846000856142cd565b6060831561412157825160000361411a5773ffffffffffffffffffffffffffffffffffffffff85163b61411a576040517f08c379a000000000000000000000000000000000000000000000000000000000815260206004820152601d60248201527f416464726573733a2063616c6c20746f206e6f6e2d636f6e74726163740000006044820152606401610892565b5081612d67565b612d6783836143e6565b60008082516041036141615760208301516040840151606085015160001a6141558782858561442a565b94509450505050614169565b506000905060025b9250929050565b60008060008573ffffffffffffffffffffffffffffffffffffffff16631626ba7e60e01b86866040516024016141a7929190615f98565b604080517fffffffffffffffffffffffffffffffffffffffffffffffffffffffffffffffe08184030181529181526020820180517bffffffffffffffffffffffffffffffffffffffffffffffffffffffff167fffffffff000000000000000000000000000000000000000000000000000000009094169390931790925290516142309190615f86565b600060405180830381855afa9150503d806000811461426b576040519150601f19603f3d011682016040523d82523d6000602084013e614270565b606091505b509150915081801561428457506020815110155b8015613ed7575080517f1626ba7e00000000000000000000000000000000000000000000000000000000906142c29083016020908101908401615753565b149695505050505050565b60608247101561435f576040517f08c379a000000000000000000000000000000000000000000000000000000000815260206004820152602660248201527f416464726573733a20696e73756666696369656e742062616c616e636520666f60448201527f722063616c6c00000000000000000000000000000000000000000000000000006064820152608401610892565b6000808673ffffffffffffffffffffffffffffffffffffffff1685876040516143889190615f86565b60006040518083038185875af1925050503d80600081146143c5576040519150601f19603f3d011682016040523d82523d6000602084013e6143ca565b606091505b50915091506143db8783838761408b565b979650505050505050565b8151156143f65781518083602001fd5b806040517f08c379a00000000000000000000000000000000000000000000000000000000081526004016108929190615ddf565b6000807f7fffffffffffffffffffffffffffffff5d576e7357a4501ddfe92f46681b20a08311156144615750600090506003614510565b6040805160008082526020820180845289905260ff881692820192909252606081018690526080810185905260019060a0016020604051602081039080840390855afa1580156144b5573d6000803e3d6000fd5b50506040517fffffffffffffffffffffffffffffffffffffffffffffffffffffffffffffffe0015191505073ffffffffffffffffffffffffffffffffffffffff811661450957600060019250925050614510565b9150600090505b94509492505050565b604051806080016040528061452c614547565b81526020016000815260200160008152602001606081525090565b6040518060a00160405280600073ffffffffffffffffffffffffffffffffffffffff1681526020016145bf6040518060600160405280600073ffffffffffffffffffffffffffffffffffffffff168152602001600073ffffffffffffffffffffffffffffffffffffffff168152602001606081525090565b815260606020820181905260408201819052600091015290565b6040518060e001604052806145ec614547565b81526020016000815260200160008152602001600081526020016060815260200160008152602001606081525090565b60006020828403121561462e57600080fd5b81357fffffffff00000000000000000000000000000000000000000000000000000000811681146114a557600080fd5b600060a0828403121561467057600080fd5b50919050565b60006020828403121561468857600080fd5b813567ffffffffffffffff81111561469f57600080fd5b612d678482850161465e565b60008083601f8401126146bd57600080fd5b50813567ffffffffffffffff8111156146d557600080fd5b6020830191508360208260051b850101111561416957600080fd5b6000806020838503121561470357600080fd5b823567ffffffffffffffff81111561471a57600080fd5b614726858286016146ab565b90969095509350505050565b60006020828403121561474457600080fd5b5035919050565b73ffffffffffffffffffffffffffffffffffffffff8116811461377757600080fd5b80356147788161474b565b919050565b60008060008060006080868803121561479557600080fd5b85356147a08161474b565b945060208601356147b08161474b565b935060408601359250606086013567ffffffffffffffff808211156147d457600080fd5b818801915088601f8301126147e857600080fd5b8135818111156147f757600080fd5b89602082850101111561480957600080fd5b9699959850939650602001949392505050565b60006020828403121561482e57600080fd5b81356114a58161474b565b60008060006040848603121561484e57600080fd5b833567ffffffffffffffff8082111561486657600080fd5b6148728783880161465e565b9450602086013591508082111561488857600080fd5b50614895868287016146ab565b9497909650939450505050565b6000806000806000608086880312156148ba57600080fd5b85356148c58161474b565b94506020860135935060408601359250606086013567ffffffffffffffff8111156148ef57600080fd5b6148fb888289016146ab565b969995985093965092949392505050565b7f4e487b7100000000000000000000000000000000000000000000000000000000600052604160045260246000fd5b6040516060810167ffffffffffffffff8111828210171561495e5761495e61490c565b60405290565b60405160a0810167ffffffffffffffff8111828210171561495e5761495e61490c565b6040805190810167ffffffffffffffff8111828210171561495e5761495e61490c565b604051601f82017fffffffffffffffffffffffffffffffffffffffffffffffffffffffffffffffe016810167ffffffffffffffff811182821017156149f1576149f161490c565b604052919050565b600082601f830112614a0a57600080fd5b813567ffffffffffffffff811115614a2457614a2461490c565b614a5560207fffffffffffffffffffffffffffffffffffffffffffffffffffffffffffffffe0601f840116016149aa565b818152846020838601011115614a6a57600080fd5b816020850160208301376000918101602001919091529392505050565b600060608284031215614a9957600080fd5b614aa161493b565b90508135614aae8161474b565b81526020820135614abe8161474b565b6020820152604082013567ffffffffffffffff811115614add57600080fd5b614ae9848285016149f9565b60408301525092915050565b600067ffffffffffffffff821115614b0f57614b0f61490c565b5060051b60200190565b60ff8116811461377757600080fd5b600060608284031215614b3a57600080fd5b614b4261493b565b90508135614b4f8161474b565b81526020820135614b5f81614b19565b806020830152506040820135604082015292915050565b600082601f830112614b8757600080fd5b81356020614b9c614b9783614af5565b6149aa565b808382526020820191506060602060608602880101945087851115614bc057600080fd5b602087015b85811015614be457614bd78982614b28565b8452928401928101614bc5565b5090979650505050505050565b600060a08284031215614c0357600080fd5b614c0b614964565b9050614c168261476d565b8152602082013567ffffffffffffffff80821115614c3357600080fd5b614c3f85838601614a87565b60208401526040840135915080821115614c5857600080fd5b614c6485838601614b76565b60408401526060840135915080821115614c7d57600080fd5b50614c8a84828501614b76565b6060830152506080820135608082015292915050565b600060c0828403121561467057600080fd5b6000614cc0614b9784614af5565b8381529050602080820190600585811b850187811115614cdf57600080fd5b855b81811015614dd857803567ffffffffffffffff80821115614d025760008081fd5b908801906060828c031215614d175760008081fd5b614d1f61493b565b8235614d2a8161474b565b81528287013582811115614d3e5760008081fd5b8301601f81018d13614d505760008081fd5b8035614d5e614b9782614af5565b81815290881b8201890190898101908f831115614d7b5760008081fd5b928a01925b82841015614d995783358252928a0192908a0190614d80565b848b01525060409150508381013583811115614db55760008081fd5b614dc18e8287016149f9565b918301919091525087525050938301938301614ce1565b50505050509392505050565b600082601f830112614df557600080fd5b6114a583833560208501614cb2565b60008060008060006101408688031215614e1d57600080fd5b853567ffffffffffffffff80821115614e3557600080fd5b614e4189838a01614bf1565b96506020880135915080821115614e5757600080fd5b614e6389838a01614bf1565b9550614e728960408a01614ca0565b9450610100880135915080821115614e8957600080fd5b614e9589838a01614de4565b9350610120880135915080821115614eac57600080fd5b50614eb988828901614de4565b9150509295509295909350565b600080600060408486031215614edb57600080fd5b833567ffffffffffffffff80821115614ef357600080fd5b61487287838801614ca0565b60005b83811015614f1a578181015183820152602001614f02565b50506000910152565b60008151808452614f3b816020860160208601614eff565b601f017fffffffffffffffffffffffffffffffffffffffffffffffffffffffffffffffe0169290920160200192915050565b600060208083016020845280855180835260408601915060408160051b87010192506020870160005b82811015614fe2577fffffffffffffffffffffffffffffffffffffffffffffffffffffffffffffffc0888603018452614fd0858351614f23565b94509285019290850190600101614f96565b5092979650505050505050565b60008060006060848603121561500457600080fd5b833561500f8161474b565b9250602084013561501f8161474b565b929592945050506040919091013590565b6000806040838503121561504357600080fd5b823561504e8161474b565b946020939093013593505050565b60006020828403121561506e57600080fd5b813567ffffffffffffffff81111561508557600080fd5b8201608081850312156114a557600080fd5b60008083357fffffffffffffffffffffffffffffffffffffffffffffffffffffffffffffffe18436030181126150cc57600080fd5b83018035915067ffffffffffffffff8211156150e757600080fd5b6020019150600581901b360382131561416957600080fd5b7f4e487b7100000000000000000000000000000000000000000000000000000000600052603260045260246000fd5b600082357fffffffffffffffffffffffffffffffffffffffffffffffffffffffffffffff8183360301811261516257600080fd5b9190910192915050565b60006080823603121561517e57600080fd5b6040516080810167ffffffffffffffff82821081831117156151a2576151a261490c565b8160405284359150808211156151b757600080fd5b6151c336838701614bf1565b8352602085013560208401526040850135604084015260608501359150808211156151ed57600080fd5b506151fa36828601614de4565b60608301525092915050565b600082357fffffffffffffffffffffffffffffffffffffffffffffffffffffffffffffff6183360301811261516257600080fd5b60008083357fffffffffffffffffffffffffffffffffffffffffffffffffffffffffffffffe184360301811261526f57600080fd5b83018035915067ffffffffffffffff82111561528a57600080fd5b602001915060608102360382131561416957600080fd5b6000602082840312156152b357600080fd5b81356114a581614b19565b7f4e487b7100000000000000000000000000000000000000000000000000000000600052601160045260246000fd5b8181038181111561035c5761035c6152be565b8082018082111561035c5761035c6152be565b60008151808452602080850194506020840160005b83811015615373578151805173ffffffffffffffffffffffffffffffffffffffff1688528381015160ff16848901526040908101519088015260609096019590820190600101615328565b509495945050505050565b600073ffffffffffffffffffffffffffffffffffffffff808351168452602083015160a060208601528181511660a08601528160208201511660c08601526040810151915050606060e08501526153d9610100850182614f23565b9050604083015184820360408601526153f28282615313565b9150506060830151848203606086015261540c8282615313565b915050608083015160808501528091505092915050565b60008151808452602080850194506020840160005b8381101561537357815187529582019590820190600101615438565b600073ffffffffffffffffffffffffffffffffffffffff80871683526020608081850152865160808086015261548e61010086018261537e565b90508188015160a086015260408089015160c08701526060808a01517fffffffffffffffffffffffffffffffffffffffffffffffffffffffffffffff808885030160e08901528381518086528686019150868160051b870101878401935060005b82811015615567577fffffffffffffffffffffffffffffffffffffffffffffffffffffffffffffffe088830301845284518a815116835289810151878b85015261553b88850182615423565b91890151848303858b01529190506155538183614f23565b968b0196958b0195935050506001016154ef565b5080995050505050505050505083604083015282606083015295945050505050565b60008083357fffffffffffffffffffffffffffffffffffffffffffffffffffffffffffffffe18436030181126155be57600080fd5b83018035915067ffffffffffffffff8211156155d957600080fd5b60200191503681900382131561416957600080fd5b8183528181602085013750600060208284010152600060207fffffffffffffffffffffffffffffffffffffffffffffffffffffffffffffffe0601f840116840101905092915050565b600073ffffffffffffffffffffffffffffffffffffffff808916835280881660208401525085604083015284606083015260a0608083015261567d60a0830184866155ee565b98975050505050505050565b6000615697614b9784614af5565b80848252602080830192508560051b8501368111156156b557600080fd5b855b8181101561574757803567ffffffffffffffff808211156156d85760008081fd5b8189019150604082360312156156ee5760008081fd5b6156f6614987565b8235828111156157065760008081fd5b61571236828601614a87565b82525085830135828111156157275760008081fd5b61573336828601614de4565b8288015250875250509382019382016156b7565b50919695505050505050565b60006020828403121561576557600080fd5b5051919050565b600061035c3683614bf1565b600081356157858161474b565b73ffffffffffffffffffffffffffffffffffffffff90811684526020830135906157ae8261474b565b1660208401526040820135368390037fffffffffffffffffffffffffffffffffffffffffffffffffffffffffffffffe10181126157ea57600080fd5b820160208101903567ffffffffffffffff81111561580757600080fd5b80360382131561581657600080fd5b60606040860152613c4f6060860182846155ee565b60008083357fffffffffffffffffffffffffffffffffffffffffffffffffffffffffffffffe184360301811261586057600080fd5b830160208101925035905067ffffffffffffffff81111561588057600080fd5b60608102360382131561416957600080fd5b8183526000602080850194508260005b858110156153735781356158b58161474b565b73ffffffffffffffffffffffffffffffffffffffff168752818301356158da81614b19565b60ff168784015260408281013590880152606096870196909101906001016158a2565b600073ffffffffffffffffffffffffffffffffffffffff80861683528460208401526060604084015283356159318161474b565b1660608301526020830135368490037fffffffffffffffffffffffffffffffffffffffffffffffffffffffffffffffa101811261596d57600080fd5b60a060808401526159846101008401858301615778565b9050615993604085018561582b565b7fffffffffffffffffffffffffffffffffffffffffffffffffffffffffffffffa0808685030160a08701526159c9848385615892565b93506159d8606088018861582b565b93509150808685030160c0870152506159f2838383615892565b92505050608084013560e084015280915050949350505050565b600060208284031215615a1e57600080fd5b81516114a581614b19565b600061012073ffffffffffffffffffffffffffffffffffffffff87168352806020840152615a598184018761537e565b90508281036040840152615a6d818661537e565b9150508235606083015260208301356080830152604083013560a0830152606083013560c0830152608083013560e083015260a083013561010083015295945050505050565b600082357fffffffffffffffffffffffffffffffffffffffffffffffffffffffffffffffa183360301811261516257600080fd5b600061035c3683614a87565b600060608284031215615b0557600080fd5b6114a58383614b28565b73ffffffffffffffffffffffffffffffffffffffff84168152826020820152606060408201526000613c4f606083018461537e565b73ffffffffffffffffffffffffffffffffffffffff85168152836020820152606060408201526000613ed76060830184866155ee565b828482376000838201600081528351615b97818360208801614eff565b0195945050505050565b60006114a5368484614cb2565b6020815260006114a5602083018461537e565b60008282518085526020808601955060208260051b8401016020860160005b84811015614be4577fffffffffffffffffffffffffffffffffffffffffffffffffffffffffffffffe0868403018952615c1a838351615423565b98840198925090830190600101615be0565b73ffffffffffffffffffffffffffffffffffffffff8716815285602082015260c060408201526000615c6160c0830187614f23565b8560608401528281036080840152615c798186615bc1565b905082810360a0840152615c8d8185615423565b9998505050505050505050565b600082601f830112615cab57600080fd5b81516020615cbb614b9783614af5565b8083825260208201915060208460051b870101935086841115615cdd57600080fd5b602086015b84811015615cf95780518352918301918301615ce2565b509695505050505050565b60008060408385031215615d1757600080fd5b825167ffffffffffffffff80821115615d2f57600080fd5b615d3b86838701615c9a565b93506020850151915080821115615d5157600080fd5b50615d5e85828601615c9a565b9150509250929050565b7f4e487b7100000000000000000000000000000000000000000000000000000000600052601260045260246000fd5b73ffffffffffffffffffffffffffffffffffffffff83168152604060208201526000612d676040830184615bc1565b828152604060208201526000612d676040830184615423565b6020815260006114a56020830184614f23565b808202811582820484141761035c5761035c6152be565b600181815b80851115615e6257817fffffffffffffffffffffffffffffffffffffffffffffffffffffffffffffffff04821115615e4857615e486152be565b80851615615e5557918102915b93841c9390800290615e0e565b509250929050565b600082615e795750600161035c565b81615e865750600061035c565b8160018114615e9c5760028114615ea657615ec2565b600191505061035c565b60ff841115615eb757615eb76152be565b50506001821b61035c565b5060208310610133831016604e8410600b8410161715615ee5575081810a61035c565b615eef8383615e09565b807fffffffffffffffffffffffffffffffffffffffffffffffffffffffffffffffff04821115615f2157615f216152be565b029392505050565b60006114a58383615e6a565b7f4e487b7100000000000000000000000000000000000000000000000000000000600052602160045260246000fd5b600060208284031215615f7657600080fd5b815180151581146114a557600080fd5b60008251615162818460208701614eff565b828152604060208201526000612d676040830184614f2356fe416464726573733a206c6f772d6c6576656c2064656c65676174652063616c6c206661696c6564","linkReferences":{}},"methodIdentifiers":{"addOrder2(((address,address,bytes),(address,uint8,uint256)[],(address,uint8,uint256)[],bytes32,bytes32,bytes),((address,address,bytes),(address,uint256[],bytes)[])[])":"a616864d","clear2((address,(address,address,bytes),(address,uint8,uint256)[],(address,uint8,uint256)[],bytes32),(address,(address,address,bytes),(address,uint8,uint256)[],(address,uint8,uint256)[],bytes32),(uint256,uint256,uint256,uint256,uint256,uint256),(address,uint256[],bytes)[],(address,uint256[],bytes)[])":"a08f5dff","deposit2(address,uint256,uint256,((address,address,bytes),(address,uint256[],bytes)[])[])":"91337c0a","entask(((address,address,bytes),(address,uint256[],bytes)[])[])":"0d4f7f71","flashFee(address,uint256)":"d9d98ce4","flashLoan(address,address,uint256,bytes)":"5cffe9de","maxFlashLoan(address)":"613255ab","multicall(bytes[])":"ac9650d8","orderExists(bytes32)":"2cb77e9f","quote(((address,(address,address,bytes),(address,uint8,uint256)[],(address,uint8,uint256)[],bytes32),uint256,uint256,(address,uint256[],bytes)[]))":"e0e530b7","removeOrder2((address,(address,address,bytes),(address,uint8,uint256)[],(address,uint8,uint256)[],bytes32),((address,address,bytes),(address,uint256[],bytes)[])[])":"8d7b6beb","supportsInterface(bytes4)":"01ffc9a7","takeOrders2((uint256,uint256,uint256,((address,(address,address,bytes),(address,uint8,uint256)[],(address,uint8,uint256)[],bytes32),uint256,uint256,(address,uint256[],bytes)[])[],bytes))":"0997c4a0","vaultBalance(address,address,uint256)":"d97b2e48","withdraw2(address,uint256,uint256,((address,address,bytes),(address,uint256[],bytes)[])[])":"f513c42d"}}