{
  "abi": [
    {
      "inputs": [
        {
          "internalType": "uint256",
          "name": "dynamicLength",
          "type": "uint256"
        },
        {
          "internalType": "uint256",
          "name": "standardOpsLength",
          "type": "uint256"
        }
      ],
      "name": "BadDynamicLength",
      "type": "error"
    },
    {
      "inputs": [
        {
          "internalType": "uint256",
          "name": "expectedLength",
          "type": "uint256"
        },
        {
          "internalType": "uint256",
          "name": "actualLength",
          "type": "uint256"
        }
      ],
      "name": "BadOutputsLength",
      "type": "error"
    },
    {
      "inputs": [
        {
          "internalType": "uint256",
          "name": "a",
          "type": "uint256"
        }
      ],
      "name": "ErrScaleDownPrecisionLoss",
      "type": "error"
    },
    {
      "inputs": [
        {
          "internalType": "uint256",
          "name": "expected",
          "type": "uint256"
        },
        {
          "internalType": "uint256",
          "name": "actual",
          "type": "uint256"
        }
      ],
      "name": "InputsLengthMismatch",
      "type": "error"
    },
    {
      "inputs": [
        {
          "internalType": "uint256",
          "name": "integer",
          "type": "uint256"
        },
        {
          "internalType": "uint256",
          "name": "max",
          "type": "uint256"
        }
      ],
      "name": "IntegerOverflow",
      "type": "error"
    },
    {
      "inputs": [
        {
          "internalType": "uint256",
          "name": "x",
          "type": "uint256"
        },
        {
          "internalType": "uint256",
          "name": "y",
          "type": "uint256"
        }
      ],
      "name": "PRBMath_MulDiv18_Overflow",
      "type": "error"
    },
    {
      "inputs": [
        {
          "internalType": "uint256",
          "name": "x",
          "type": "uint256"
        },
        {
          "internalType": "uint256",
          "name": "y",
          "type": "uint256"
        },
        {
          "internalType": "uint256",
          "name": "denominator",
          "type": "uint256"
        }
      ],
      "name": "PRBMath_MulDiv_Overflow",
      "type": "error"
    },
    {
      "inputs": [
        {
          "internalType": "UD60x18",
          "name": "x",
          "type": "uint256"
        }
      ],
      "name": "PRBMath_UD60x18_Ceil_Overflow",
      "type": "error"
    },
    {
      "inputs": [
        {
          "internalType": "UD60x18",
          "name": "x",
          "type": "uint256"
        }
      ],
      "name": "PRBMath_UD60x18_Exp2_InputTooBig",
      "type": "error"
    },
    {
      "inputs": [
        {
          "internalType": "UD60x18",
          "name": "x",
          "type": "uint256"
        }
      ],
      "name": "PRBMath_UD60x18_Exp_InputTooBig",
      "type": "error"
    },
    {
      "inputs": [
        {
          "internalType": "UD60x18",
          "name": "x",
          "type": "uint256"
        },
        {
          "internalType": "UD60x18",
          "name": "y",
          "type": "uint256"
        }
      ],
      "name": "PRBMath_UD60x18_Gm_Overflow",
      "type": "error"
    },
    {
      "inputs": [
        {
          "internalType": "UD60x18",
          "name": "x",
          "type": "uint256"
        }
      ],
      "name": "PRBMath_UD60x18_Log_InputTooSmall",
      "type": "error"
    },
    {
      "inputs": [
        {
          "internalType": "UD60x18",
          "name": "x",
          "type": "uint256"
        }
      ],
      "name": "PRBMath_UD60x18_Sqrt_Overflow",
      "type": "error"
    },
    {
      "inputs": [],
      "name": "ReadError",
      "type": "error"
    },
    {
      "inputs": [
        {
          "internalType": "bytes",
          "name": "bytecode",
          "type": "bytes"
        },
        {
          "internalType": "uint256",
          "name": "sourceIndex",
          "type": "uint256"
        }
      ],
      "name": "SourceIndexOutOfBounds",
      "type": "error"
    },
    {
      "inputs": [],
      "name": "buildOpcodeFunctionPointers",
      "outputs": [
        {
          "internalType": "bytes",
          "name": "",
          "type": "bytes"
        }
      ],
      "stateMutability": "view",
      "type": "function"
    },
    {
      "inputs": [
        {
          "internalType": "contract IInterpreterStoreV2",
          "name": "store",
          "type": "address"
        },
        {
          "internalType": "FullyQualifiedNamespace",
          "name": "namespace",
          "type": "uint256"
        },
        {
          "internalType": "EncodedDispatch",
          "name": "dispatch",
          "type": "uint256"
        },
        {
          "internalType": "uint256[][]",
          "name": "context",
          "type": "uint256[][]"
        },
        {
          "internalType": "uint256[]",
          "name": "inputs",
          "type": "uint256[]"
        }
      ],
      "name": "eval2",
      "outputs": [
        {
          "internalType": "uint256[]",
          "name": "",
          "type": "uint256[]"
        },
        {
          "internalType": "uint256[]",
          "name": "",
          "type": "uint256[]"
        }
      ],
      "stateMutability": "view",
      "type": "function"
    },
    {
      "inputs": [
        {
          "internalType": "contract IInterpreterStoreV2",
          "name": "store",
          "type": "address"
        },
        {
          "internalType": "FullyQualifiedNamespace",
          "name": "namespace",
          "type": "uint256"
        },
        {
          "internalType": "bytes",
          "name": "bytecode",
          "type": "bytes"
        },
        {
          "internalType": "SourceIndexV2",
          "name": "sourceIndex",
          "type": "uint256"
        },
        {
          "internalType": "uint256[][]",
          "name": "context",
          "type": "uint256[][]"
        },
        {
          "internalType": "uint256[]",
          "name": "inputs",
          "type": "uint256[]"
        }
      ],
      "name": "eval3",
      "outputs": [
        {
          "internalType": "uint256[]",
          "name": "",
          "type": "uint256[]"
        },
        {
          "internalType": "uint256[]",
          "name": "",
          "type": "uint256[]"
        }
      ],
      "stateMutability": "view",
      "type": "function"
    },
    {
      "inputs": [],
      "name": "functionPointers",
      "outputs": [
        {
          "internalType": "bytes",
          "name": "",
          "type": "bytes"
        }
      ],
      "stateMutability": "view",
      "type": "function"
    },
    {
      "inputs": [
        {
          "internalType": "bytes4",
          "name": "interfaceId",
          "type": "bytes4"
        }
      ],
      "name": "supportsInterface",
      "outputs": [
        {
          "internalType": "bool",
          "name": "",
          "type": "bool"
        }
      ],
      "stateMutability": "view",
      "type": "function"
    }
  ],
  "bytecode": {
    "object": "0x6080604052348015600f57600080fd5b506152c38061001f6000396000f3fe608060405234801561001057600080fd5b50600436106100675760003560e01c80636046c5f9116100505780636046c5f9146100a9578063d6e3357a146100ca578063f933c72f146100dd57600080fd5b806301ffc9a71461006c578063514b5d4f14610094575b600080fd5b61007f61007a366004614a17565b6100e5565b60405190151581526020015b60405180910390f35b61009c6101ca565b60405161008b9190614abd565b6100bc6100b7366004614c7a565b6101d9565b60405161008b929190614d57565b6100bc6100d8366004614dc8565b610248565b61009c61032e565b60007fffffffff0000000000000000000000000000000000000000000000000000000082167f997502d600000000000000000000000000000000000000000000000000000000148061017857507fffffffff0000000000000000000000000000000000000000000000000000000082167f2fd0f25500000000000000000000000000000000000000000000000000000000145b806101c457507f01ffc9a7000000000000000000000000000000000000000000000000000000007fffffffff000000000000000000000000000000000000000000000000000000008316145b92915050565b60606101d4610338565b905090565b606080602085901c61ffff601087901c811690871660006101f98461060a565b90506000610228848c8e8c6040518060c001604052806096815260200161522d609691398794939291906106b1565b9050610235818985610802565b9650965050505050509550959350505050565b60608060006102b9888c8e61025d8a8c614eb8565b6040518060c001604052806096815260200161522d609691398f8f8080601f0160208091040260200160405190810160405280939291908181526020018383808284376000920191909152509297969594939250506106b19050565b905061031b858580806020026020016040519081016040528093929190818152602001838360200280828437600092019190915250859392507fffffffffffffffffffffffffffffffffffffffffffffffffffffffffffffffff915050610802565b9250925050995099975050505050505050565b60606101d46101ca565b6040805161098081018252604b80825261090c602083015261095d9282019290925261099f606082810191909152610b6b6080830152610c5260a0830152610c6460c0830152610c7660e0830152610c99610100830152610cdb610120830152610d2d610140830152610d3e610160830152610d4f610180830152610df16101a0830152610e2e6101c0830152610eec6101e08301819052610f9c61020084015261102061022084015261116361024084015261128a6102608401526102808301526113866102a08301526114286102c08301526114a06102e08301526114d9610300830152611512610320830152611561610340830181905261036083015261159a6103808301526115ff6103a08301526116d36103c08301526117266103e083015261173a6104008301526117936104208301526117a76104408301526117bc6104608301526117d66104808301526117e16104a08301526117f56104c083015261180a6104e08301526118426105008301526118696105208301526118e96105408301526119376105608301526119856105808301526119d36105a08301526119eb6105c0830152611a046105e0830152611a52610600830152611a89610620830152611a97610640830152611aa5610660830152611ac0610680830152611ad56106a0830152611aed6106c0830152611b066106e0830152611b14610700830152611b22610720830152611b30610740830152611b3e610760830152611b8c610780830152611bda6107a0830152611c286107c0830152611c766107e0830152611c8e6108008301819052610820830152611ca5610840830152611cd36108608301819052610880830152611cea6108a0830152611d196108c0830152611d6e6108e0830152611d7c6109008301819052610920830152611e20610940830152611f0761096083015291908190806105f8565b60405180910390fd5b61060181611f3a565b94505050505090565b6060813b6000819003610649576040517f26a9f61e00000000000000000000000000000000000000000000000000000000815260040160405180910390fd5b60408051603e83017fffffffffffffffffffffffffffffffffffffffffffffffffffffffffffffffe01681019091527fffffffffffffffffffffffffffffffffffffffffffffffffffffffffffffffff90910180825290915080600160208401853c50919050565b6107166040518061012001604052806060815260200160608152602001600081526020016000815260200160008152602001600073ffffffffffffffffffffffffffffffffffffffff1681526020016060815260200160608152602001606081525090565b602087810180516040600191820184028b01818101518251600091821a808252948501870281019093526041808301968381019593600285020190910191908401905b8381101561079757875160f01c83015160408051600192831a8082528301602090810290910191829052908452600290990198929092019101610759565b505050506040518061012001604052808281526020018481526020018b8152602001600081526020018a81526020018973ffffffffffffffffffffffffffffffffffffffff168152602001888152602001838152602001878152509450505050509695505050505050565b60608060008061081a8760e001518860400151611fcb565b91509150600080886000015189604001518151811061083b5761083b614ec5565b6020026020010151915081905060008851111561087557600060208951028203915060208901905061086f81838b51611ff0565b506108bc565b838851146108bc5787516040517fd628439f0000000000000000000000000000000000000000000000000000000081526105ef918691600401918252602082015260400190565b6108cc898a604001518385612018565b905060008388106108dd57836108df565b875b90506060602083039050818152806108fa8c606001516122af565b97509750505050505050935093915050565b60408301518351602060019283018102919091015161ffff8516909201029003517fffffffffffffffffffffffffffffffffffffffffffffffffffffffffffffffe0909101908152805b9392505050565b60208084015161ffff841660010190910201517fffffffffffffffffffffffffffffffffffffffffffffffffffffffffffffffe0909101908152809392505050565b6000808361ffff1690506000601085901c600f1690506000601486901c600f1690506000876020015184815181106109d9576109d9614ec5565b602002602001015190506000806109f3839060a082901c90565b7fffffffffffffffffffffffffffffffffffffffffffffffffffffffffffffffe08a0180518882526040517fb65ad6830000000000000000000000000000000000000000000000000000000081529395509193509160009073ffffffffffffffffffffffffffffffffffffffff86169063b65ad68390610a799087908790600401614ef4565b600060405180830381865afa158015610a96573d6000803e3d6000fd5b505050506040513d6000823e601f3d9081017fffffffffffffffffffffffffffffffffffffffffffffffffffffffffffffffe0168201604052610adc9190810190614f0d565b905080518714610b255780516040517fc3385cb00000000000000000000000000000000000000000000000000000000081526105ef918991600401918252602082015260400190565b818352602088028b019a50602081016020880281015b80821015610b585760208d039c5081518d52602082019150610b3b565b509a9d9c50505050505050505050505050565b600060ff80841690600885901c166020841015610be4576040517f08c379a000000000000000000000000000000000000000000000000000000000815260206004820152600f60248201527f737461636b20756e646572666c6f77000000000000000000000000000000000060448201526064016105ef565b60008660c001518381518110610bfc57610bfc614ec5565b60200260200101518281518110610c1557610c15614ec5565b60209081029190910101517fffffffffffffffffffffffffffffffffffffffffffffffffffffffffffffffe0909501948552509295945050505050565b60208101805182511681529392505050565b60208101805182511781529392505050565b8051600090670de0b6b3a7640000610c8d82612523565b02835250909392505050565b80516001600884901c60ff9081169190911b7fffffffffffffffffffffffffffffffffffffffffffffffffffffffffffffffff0193161c919091168152919050565b80516020909101805160ff600885901c811660020a7fffffffffffffffffffffffffffffffffffffffffffffffffffffffffffffffff01941684811b199091169390921690911b919091178152919050565b805160ff83161b8152809392505050565b805160ff83161c8152809392505050565b8251600161ffff84169081016020908102830151600093600f601088901c1692601488901c92908190850288015b80891015610d9a5760208203915088518252602089019850610d7d565b5060408a01805190879052610db18b828486612018565b60408c0182905260208602998a9003999092508201895b81841015610de0578351815260209384019301610dc8565b50989b9a5050505050505050505050565b60109190911c600f166020028082207fffffffffffffffffffffffffffffffffffffffffffffffffffffffffffffffe09190920101908152919050565b805160208201516040928301805193517fdd62ed3e00000000000000000000000000000000000000000000000000000000815273ffffffffffffffffffffffffffffffffffffffff80841660048301528086166024830152919460009493929091859185169063dd62ed3e90604401602060405180830381865afa158015610eba573d6000803e3d6000fd5b505050506040513d601f19601f82011682018060405250810190610ede9190614f93565b865250939695505050505050565b8051602090910180516040517f70a0823100000000000000000000000000000000000000000000000000000000815273ffffffffffffffffffffffffffffffffffffffff8083166004830152929360009390929184918416906370a0823190602401602060405180830381865afa158015610f6b573d6000803e3d6000fd5b505050506040513d601f19601f82011682018060405250810190610f8f9190614f93565b8552509295945050505050565b6000808251905060008173ffffffffffffffffffffffffffffffffffffffff166318160ddd6040518163ffffffff1660e01b8152600401602060405180830381865afa158015610ff0573d6000803e3d6000fd5b505050506040513d601f19601f820116820180604052508101906110149190614f93565b84525091949350505050565b805160208201516040928301805193517fdd62ed3e00000000000000000000000000000000000000000000000000000000815273ffffffffffffffffffffffffffffffffffffffff80841660048301528086166024830152919460009493929091859185169063dd62ed3e90604401602060405180830381865afa1580156110ac573d6000803e3d6000fd5b505050506040513d601f19601f820116820180604052508101906110d09190614f93565b905060008473ffffffffffffffffffffffffffffffffffffffff1663313ce5676040518163ffffffff1660e01b8152600401602060405180830381865afa15801561111f573d6000803e3d6000fd5b505050506040513d601f19601f820116820180604052508101906111439190614fac565b60ff169050611154828260026125fc565b87525094979650505050505050565b8051602090910180516040517f70a0823100000000000000000000000000000000000000000000000000000000815273ffffffffffffffffffffffffffffffffffffffff8083166004830152929360009390929184918416906370a0823190602401602060405180830381865afa1580156111e2573d6000803e3d6000fd5b505050506040513d601f19601f820116820180604052508101906112069190614f93565b905060008373ffffffffffffffffffffffffffffffffffffffff1663313ce5676040518163ffffffff1660e01b8152600401602060405180830381865afa158015611255573d6000803e3d6000fd5b505050506040513d601f19601f820116820180604052508101906112799190614fac565b60ff169050610ede828260006125fc565b6000808251905060008173ffffffffffffffffffffffffffffffffffffffff166318160ddd6040518163ffffffff1660e01b8152600401602060405180830381865afa1580156112de573d6000803e3d6000fd5b505050506040513d601f19601f820116820180604052508101906113029190614f93565b905060008273ffffffffffffffffffffffffffffffffffffffff1663313ce5676040518163ffffffff1660e01b8152600401602060405180830381865afa158015611351573d6000803e3d6000fd5b505050506040513d601f19601f820116820180604052508101906113759190614fac565b60ff169050610f8f828260006125fc565b8051602090910180516040517f6352211e000000000000000000000000000000000000000000000000000000008152600481018290529192600092909190839073ffffffffffffffffffffffffffffffffffffffff841690636352211e90602401602060405180830381865afa158015611404573d6000803e3d6000fd5b505050506040513d601f19601f82011682018060405250810190610f8f9190614fcf565b6000808251905060008173ffffffffffffffffffffffffffffffffffffffff16638da5cb5b6040518163ffffffff1660e01b8152600401602060405180830381865afa15801561147c573d6000803e3d6000fd5b505050506040513d601f19601f820116820180604052508101906110149190614fcf565b670de0b6b3a764000043027fffffffffffffffffffffffffffffffffffffffffffffffffffffffffffffffe09190910190815292915050565b670de0b6b3a764000046027fffffffffffffffffffffffffffffffffffffffffffffffffffffffffffffffe09190910190815292915050565b7fffffffffffffffffffffffffffffffffffffffffffffffffffffffffffffffff7fffffffffffffffffffffffffffffffffffffffffffffffffffffffffffffffe09190910190815292915050565b670de0b6b3a764000042027fffffffffffffffffffffffffffffffffffffffffffffffffffffffffffffffe09190910190815292915050565b7fffffffffffffffffffffffffffffffffffffffffffffffffffffffffffffffe0601083901c600f16602002828101918201926000925b808210156115f457815180156115e85785526115f4565b506020820191506115d1565b509295945050505050565b6000806000600f8560101c1660028106856020828403028101602083150281039750821561162c57805194505b808210156116555781519550851561164a5760208201518852611655565b60408201915061162c565b505060408051808201909152600080825260208201527f1fffffffffffffffffffffffffffffffffffffffffffffffffffffffffffffff8416601f820152841515925090505b906115f4576040517f08c379a00000000000000000000000000000000000000000000000000000000081526004016105ef9190614abd565b805160208083015160408051808201825260008082529381018490527f1fffffffffffffffffffffffffffffffffffffffffffffffffffffffffffffff8316601f8201529401939192918215159061169b565b805160209091018051909114815292915050565b7fffffffffffffffffffffffffffffffffffffffffffffffffffffffffffffffe0601083901c600f16602002828101918201926000925b808210156115f4578151806117875785526115f4565b50602082019150611771565b805160209091018051909111815292915050565b80516020909101805190911015815292915050565b805160409015156020028203810151910190815292915050565b805115815292915050565b805160209091018051909110815292915050565b80516020909101805190911115815292915050565b8051602082015160409092018051909260009291610f8f8361183d61183785670de0b6b3a764000061501b565b84612681565b612796565b8051602082015160409092018051909260009291610f8f836118648484612796565b6127a5565b8051602082015160409092019160009190611884818361505d565b9150600f601086901c1660025b818110156118b757855160209096019592506118ad838561505d565b9350600101611891565b5050507fffffffffffffffffffffffffffffffffffffffffffffffffffffffffffffffe0929092019182525092915050565b80516020820151604090920191600091906119048183615071565b9150600f601086901c1660025b818110156118b7578551602090960195925061192d8385615071565b9350600101611911565b805160208201516040909201916000919061195281836151a8565b9150600f601086901c1660025b818110156118b7578551602090960195925061197b83856151a8565b935060010161195f565b80516020820151604090920191600091906119a0818361501b565b9150600f601086901c1660025b818110156118b757855160209096019592506119c9838561501b565b93506001016119ad565b805160209091018051909160009161101482826127b4565b80516000906119f9816127cc565b835250909392505050565b8051602082015160409092019160009190611a1f8282612844565b9150600f601086901c1660025b818110156118b75785519250602086019550611a488484612844565b9350600101611a2c565b6725b946ebc0b361737fffffffffffffffffffffffffffffffffffffffffffffffffffffffffffffffe09190910190815292915050565b80516000906119f98161285c565b80516000906119f9816128cd565b8051600090670de0b6b3a764000081068015150281036119f9565b8051600090670de0b6b3a764000081066119f9565b8051602090910180519091600091611014828261293c565b8051670de0b6b3a7640000908190069003815292915050565b80516000906119f9816129c6565b80516000906119f9816129e9565b80516000906119f981612a1a565b80516000906119f981612b7f565b805160208201516040909201916000919080821015611b5b578091505b600f601086901c1660025b818110156118b7578551925060208601955082841015611b84578293505b600101611b66565b805160208201516040909201916000919080821115611ba9578091505b600f601086901c1660025b818110156118b7578551925060208601955082841115611bd2578293505b600101611bb4565b8051602082015160409092019160009190611bf581836151b4565b9150600f601086901c1660025b818110156118b75785516020909601959250611c1e83856151b4565b9350600101611c02565b8051602082015160409092019160009190611c438282612796565b9150600f601086901c1660025b818110156118b75785519250602086019550611c6c8484612796565b9350600101611c50565b80516020909101805190916000916110148282612681565b80516000906119f98160ff8616600887901c6125fc565b805160209091018051909160009190611cc681670de0b6b3a763ffff613a0f565b90506110148282876125fc565b80516000906119f98160ff8616600887901c613a77565b805160209091018051909160009190611014611d0e82670de0b6b3a763ffff613a0f565b839060038816613a77565b8051602090910180519091600091670de0b6b3a76400008106828111611d5457670de0b6b3a7640000820680151502820391508185526115f4565b8281670de0b6b3a764000003116115f457610f8f826127cc565b80516000906119f981613ad9565b805160208201516040909201916000919060018516614a0d81611da157613b48611da5565b613b545b9050611db584848363ffffffff16565b9350600f601088901c1660025b81811015611dec5787519450602088019750611de286868563ffffffff16565b9550600101611dc2565b50505050507fffffffffffffffffffffffffffffffffffffffffffffffffffffffffffffffe0929092019182525092915050565b805160608401516000919082908190611e399084613b6a565b91509150816000036110145760a087015160808801516040517f669e48aa00000000000000000000000000000000000000000000000000000000815260048101919091526024810185905260009173ffffffffffffffffffffffffffffffffffffffff169063669e48aa90604401602060405180830381865afa158015611ec4573d6000803e3d6000fd5b505050506040513d601f19601f82011682018060405250810190611ee89190614f93565b6060890151909150611efb908583613bb4565b606089015285526115f4565b8051602082015160608501516040909301926000929190611f29908383613bb4565b606087015250829150509392505050565b60606000825160020267ffffffffffffffff811115611f5b57611f5b614af5565b6040519080825280601f01601f191660200182016040528015611f85576020820181803683370190505b50905061ffff80196020850160208651028101600285015b81831015611fbf57805183518616908516178152602090920191600201611f9d565b50939695505050505050565b6000806000611fda8585613c46565b51600281901a9660039190911a95509350505050565b8060200283015b80841015612012578351835260209384019390920191611ff7565b50505050565b60008085604001519050600080600080600060028b61010001515161203d919061505d565b60e08c01516101008d0151602080830151600261ffff9b909b168b8102850160219081015160f01c600093841a9d909d029095019b909b019384015160258086019b50600791831a918216918290036004029095019094019850929650019350909150614a0d90805b8688101561222957875190506002848260001a060285015160f01c925062ffffff8160e01c1691506120dd8e838e8663ffffffff16565b9b506002848260041a060285015160f01c925062ffffff8160c01c16915061210a8e838e8663ffffffff16565b9b506002848260081a060285015160f01c925062ffffff8160a01c1691506121378e838e8663ffffffff16565b9b5060028482600c1a060285015160f01c925062ffffff8160801c1691506121648e838e8663ffffffff16565b9b506002848260101a060285015160f01c925062ffffff8160601c1691506121918e838e8663ffffffff16565b9b506002848260141a060285015160f01c925062ffffff8160401c1691506121be8e838e8663ffffffff16565b9b506002848260181a060285015160f01c925062ffffff8160201c1691506121eb8e838e8663ffffffff16565b9b5060028482601c1a060285015160f01c925062ffffff811691506122158e838e8663ffffffff16565b9b5061222260208961501b565b97506120a6565b612234601c896151c8565b9750612241866004615071565b61224b908961501b565b96505b868810156122915750508551601c81901a83900660020284015160f01c915062ffffff81169061227d8e838e86565b9b5061228a60048961501b565b975061224e565b61229d8d8a8e8e613c77565b50999c9b505050505050505050505050565b6040805160f083901c602081810283010190925290815261ffff63ffffffff67ffffffffffffffff6fffffffffffffffffffffffffffffffff61231c565b60005b8215612316578251825260208301516020830152604083015192506040820191506122f0565b50919050565b602085018660101b60901c801561240c578060401c801561238a578060201c801561234e5761234b81856122ed565b93505b508086168015612388578060101c801561236f5761236c81866122ed565b94505b5080881680156123865761238381866122ed565b94505b505b505b50808416801561240a578060201c80156123ce578060101c80156123b5576123b281866122ed565b94505b5080881680156123cc576123c981866122ed565b94505b505b508086168015612408578060101c80156123ef576123ec81866122ed565b94505b5080881680156124065761240381866122ed565b94505b505b505b505b508682168015612518578060401c8015612496578060201c801561245a578060101c80156124415761243e81866122ed565b94505b5080881680156124585761245581866122ed565b94505b505b508086168015612494578060101c801561247b5761247881866122ed565b94505b5080881680156124925761248f81866122ed565b94505b505b505b508084168015612516578060201c80156124da578060101c80156124c1576124be81866122ed565b94505b5080881680156124d8576124d581866122ed565b94505b505b508086168015612514578060101c80156124fb576124f881866122ed565b94505b5080881680156125125761250f81866122ed565b94505b505b505b505b505050505050919050565b60007fffffffffffffffffffffffffffffffffffffffffffffffffffffffffffffffff82036125555750610100919050565b507f0f0f0f0f0f0f0f0f0f0f0f0f0f0f0f0f0f0f0f0f0f0f0f0f0f0f0f0f0f0f0f0f7f5555555555555555555555555555555555555555555555555555555555555555600183901c16909103600281901c7f3333333333333333333333333333333333333333333333333333333333333333908116911601600481901c01167f01010101010101010101010101010101010101010101010101010101010101010260f81c90565b6000826012111561263157601283900360028316156126275761261f8582613d01565b915050610956565b61261f8582613d8e565b601283111561267a577fffffffffffffffffffffffffffffffffffffffffffffffffffffffffffffffee830160018316156126705761261f8582613dc6565b61261f8582613e14565b5082610956565b600082828183036126ac5780156126995760006126a3565b670de0b6b3a76400005b925050506101c4565b670de0b6b3a764000082036126cd57670de0b6b3a7640000925050506101c4565b806000036126e757670de0b6b3a7640000925050506101c4565b670de0b6b3a764000081036127005784925050506101c4565b670de0b6b3a76400008211156127315761272a61272561271f87612a1a565b86612796565b6128cd565b925061278e565b600061275261274f846ec097ce7bc90715b34b9f100000000061505d565b90565b9050600061276b61272561276584612a1a565b88612796565b905061278961274f826ec097ce7bc90715b34b9f100000000061505d565b945050505b505092915050565b600061095661274f8484613e37565b600061095661274f838561501b565b6000828280821681831860011c015b95945050505050565b6000817ffffffffffffffffffffffffffffffffffffffffffffffffff7e52fe5afe4000081111561282c576040517f6149f6b9000000000000000000000000000000000000000000000000000000008152600481018490526024016105ef565b5050670de0b6b3a76400008082068015159103020190565b600061095661274f84670de0b6b3a764000085613f3e565b600081680736ea4425c11ac6308111156128a5576040517f1af63aca000000000000000000000000000000000000000000000000000000008152600481018490526024016105ef565b6714057b7ef767814f81026128c5612725670de0b6b3a7640000835b0490565b949350505050565b600081680a688906bd8affffff811115612916576040517fb3b6ba1f000000000000000000000000000000000000000000000000000000008152600481018490526024016105ef565b600061292e670de0b6b3a7640000604084901b61505d565b90506128c561274f82614049565b6000828281158061294b575080155b1561295b576000925050506101c4565b8181028183828161296e5761296e61502e565b04146129b0576040517fae7f3b3700000000000000000000000000000000000000000000000000000000815260048101879052602481018690526044016105ef565b6129bc61274f826147bd565b9695505050505050565b60006101c4826ec097ce7bc90715b34b9f1000000000816128c1576128c161502e565b60006101c46714057b7ef767814f670de0b6b3a7640000612a0c61274f86612a1a565b02816128c1576128c161502e565b600081670de0b6b3a7640000811015612a62576040517f36d32ef0000000000000000000000000000000000000000000000000000000008152600481018490526024016105ef565b6000612aee670de0b6b3a7640000830460016fffffffffffffffffffffffffffffffff821160071b91821c67ffffffffffffffff811160061b90811c63ffffffff811160051b90811c61ffff811160041b90811c60ff8111600390811b91821c600f811160021b90811c918211871b91821c969096119490961792909217171791909117919091171790565b9050670de0b6b3a7640000810282821c7ffffffffffffffffffffffffffffffffffffffffffffffffff21f494c589c00008101612b2e5750949350505050565b671bc16d674ec800006706f05b59d3b200005b8015612b7157670de0b6b3a7640000838002049250818310612b69579283019260019290921c915b60011c612b41565b50825b979650505050505050565b600081670de0b6b3a7640000811015612bc7576040517f36d32ef0000000000000000000000000000000000000000000000000000000008152600481018490526024016105ef565b826001811461331857600a81146133405760648114613368576103e881146133905761271081146133b857620186a081146133e057620f4240811461340857629896808114613430576305f5e100811461345857633b9aca008114613480576402540be40081146134a85764174876e80081146134d05764e8d4a5100081146134f8576509184e72a000811461352057655af3107a400081146135485766038d7ea4c68000811461357057662386f26fc1000081146135985767016345785d8a000081146135c057670de0b6b3a764000081146135e857678ac7230489e8000081146135f15768056bc75e2d63100000811461360157683635c9adc5dea0000081146136115769021e19e0c9bab240000081146136215769152d02c7e14af680000081146136315769d3c21bcecceda10000008114613641576a084595161401484a0000008114613651576a52b7d2dcc80cd2e40000008114613661576b033b2e3c9fd0803ce80000008114613671576b204fce5e3e250261100000008114613681576c01431e0fae6d7217caa00000008114613691576c0c9f2c9cd04674edea4000000081146136a1576c7e37be2022c0914b268000000081146136b1576d04ee2d6d415b85acef810000000081146136c1576d314dc6448d9338c15b0a0000000081146136d1576e01ed09bead87c0378d8e640000000081146136e1576e13426172c74d822b878fe80000000081146136f1576ec097ce7bc90715b34b9f10000000008114613701576f0785ee10d5da46d900f436a0000000008114613711576f4b3b4ca85a86c47a098a2240000000008114613722577002f050fe938943acc45f65568000000000811461373357701d6329f1c35ca4bfabb9f5610000000000811461374457710125dfa371a19e6f7cb54395ca0000000000811461375557710b7abc627050305adf14a3d9e400000000008114613766577172cb5bd86321e38cb6ce6682e8000000000081146137775772047bf19673df52e37f2410011d100000000000811461378857722cd76fe086b93ce2f768a00b22a000000000008114613799577301c06a5ec5433c60ddaa16406f5a40000000000081146137aa5773118427b3b4a05bc8a8a4de84598680000000000081146137bb5773af298d050e4395d69670b12b7f4100000000000081146137cc577406d79f82328ea3da61e066ebb2f88a00000000000081146137dd5774446c3b15f9926687d2c40534fdb56400000000000081146137ee577502ac3a4edbbfb8014e3ba83411e915e800000000000081146137ff57751aba4714957d300d0e549208b31adb1000000000000081146138105776010b46c6cdd6e3e0828f4db456ff0c8ea0000000000000811461382157760a70c3c40a64e6c51999090b65f67d9240000000000000811461383257766867a5a867f103b2fffa5a71fba0e7b6800000000000008114613843577704140c78940f6a24fdffc78873d4490d21000000000000008114613854577728c87cb5c89a2571ebfdcb54864ada834a00000000000000811461386557780197d4df19d605767337e9f14d3eec8920e400000000000000811461387657780fee50b7025c36a0802f236d04753d5b48e800000000000000811461388757789f4f2726179a224501d762422c946590d9100000000000000081146138985779063917877cec0556b21269d695bdcbf7a87aa00000000000000081146138a957793e3aeb4ae1383562f4b82261d969f7ac94ca400000000000000081146138ba577a026e4d30eccc3215dd8f3157d27e23acbdcfe6800000000000000081146138cb577a184f03e93ff9f4daa797ed6e38ed64bf6a1f01000000000000000081146138dc577af316271c7fc3908a8bef464e3945ef7a25360a000000000000000081146138ed577b097edd871cfda3a5697758bf0e3cbb5ac5741c64000000000000000081146138fe577b5ef4a74721e864761ea977768e5f518bb6891be80000000000000000811461390f577c03b58e88c75313ec9d329eaaa18fb92f75215b171000000000000000008114613920577c25179157c93ec73e23fa32aa4f9d3bda934d8ee6a000000000000000008114613931577d0172ebad6ddc73c86d67c5faa71c245689c10795024000000000000000008114613942577d0e7d34c64a9c85d4460dbbca87196b61618a4bd2168000000000000000008114613953577d90e40fbeea1d3a4abc8955e946fe31cdcf66f634e10000000000000000008114613964577e05a8e89d75252446eb5d5d5b1cc5edf20a1a059e10ca0000000000000000008114613975577e3899162693736ac531a5a58f1fbb4b746504382ca7e40000000000000000008114613986577f0235fadd81c2822bb3f07877973d50f28bf22a31be8ee80000000000000000008114613997577f161bcca7119915b50764b4abe86529797775a5f171951000000000000000000081146139a8577fdd15fe86affad91249ef0eb713f39ebeaa987b6e6fd2a000000000000000000081146139b9577fffffffffffffffffffffffffffffffffffffffffffffffffffffffffffffffff92506139c6565b7fffffffffffffffffffffffffffffffffffffffffffffffff0633275e3af8000092506139c6565b7fffffffffffffffffffffffffffffffffffffffffffffffff1413de11e25c000092506139c6565b7fffffffffffffffffffffffffffffffffffffffffffffffff21f494c589c0000092506139c6565b7fffffffffffffffffffffffffffffffffffffffffffffffff2fd54b793124000092506139c6565b7fffffffffffffffffffffffffffffffffffffffffffffffff3db6022cd888000092506139c6565b7fffffffffffffffffffffffffffffffffffffffffffffffff4b96b8e07fec000092506139c6565b7fffffffffffffffffffffffffffffffffffffffffffffffff59776f942750000092506139c6565b7fffffffffffffffffffffffffffffffffffffffffffffffff67582647ceb4000092506139c6565b7fffffffffffffffffffffffffffffffffffffffffffffffff7538dcfb7618000092506139c6565b7fffffffffffffffffffffffffffffffffffffffffffffffff831993af1d7c000092506139c6565b7fffffffffffffffffffffffffffffffffffffffffffffffff90fa4a62c4e0000092506139c6565b7fffffffffffffffffffffffffffffffffffffffffffffffff9edb01166c44000092506139c6565b7fffffffffffffffffffffffffffffffffffffffffffffffffacbbb7ca13a8000092506139c6565b7fffffffffffffffffffffffffffffffffffffffffffffffffba9c6e7dbb0c000092506139c6565b7fffffffffffffffffffffffffffffffffffffffffffffffffc87d25316270000092506139c6565b7fffffffffffffffffffffffffffffffffffffffffffffffffd65ddbe509d4000092506139c6565b7fffffffffffffffffffffffffffffffffffffffffffffffffe43e9298b138000092506139c6565b7ffffffffffffffffffffffffffffffffffffffffffffffffff21f494c589c000092506139c6565b600092506139c6565b670de0b6b3a764000092506139c6565b671bc16d674ec8000092506139c6565b6729a2241af62c000092506139c6565b673782dace9d90000092506139c6565b674563918244f4000092506139c6565b6753444835ec58000092506139c6565b676124fee993bc000092506139c6565b676f05b59d3b20000092506139c6565b677ce66c50e284000092506139c6565b678ac7230489e8000092506139c6565b6798a7d9b8314c000092506139c6565b67a688906bd8b0000092506139c6565b67b469471f8014000092506139c6565b67c249fdd32778000092506139c6565b67d02ab486cedc000092506139c6565b67de0b6b3a7640000092506139c6565b67ebec21ee1da4000092506139c6565b67f9ccd8a1c508000092506139c6565b680107ad8f556c6c000092506139c6565b6801158e460913d0000092506139c6565b6801236efcbcbb34000092506139c6565b6801314fb3706298000092506139c6565b68013f306a2409fc000092506139c6565b68014d1120d7b160000092506139c6565b68015af1d78b58c4000092506139c6565b680168d28e3f0028000092506139c6565b680176b344f2a78c000092506139c6565b68018493fba64ef0000092506139c6565b68019274b259f654000092506139c6565b6801a055690d9db8000092506139c6565b6801ae361fc1451c000092506139c6565b6801bc16d674ec80000092506139c6565b6801c9f78d2893e4000092506139c6565b6801d7d843dc3b48000092506139c6565b6801e5b8fa8fe2ac000092506139c6565b6801f399b1438a10000092506139c6565b6802017a67f73174000092506139c6565b68020f5b1eaad8d8000092506139c6565b68021d3bd55e803c000092506139c6565b68022b1c8c1227a0000092506139c6565b680238fd42c5cf04000092506139c6565b680246ddf9797668000092506139c6565b680254beb02d1dcc000092506139c6565b6802629f66e0c530000092506139c6565b680270801d946c94000092506139c6565b68027e60d44813f8000092506139c6565b68028c418afbbb5c000092506139c6565b68029a2241af62c0000092506139c6565b6802a802f8630a24000092506139c6565b6802b5e3af16b188000092506139c6565b6802c3c465ca58ec000092506139c6565b6802d1a51c7e0050000092506139c6565b6802df85d331a7b4000092506139c6565b6802ed6689e54f18000092506139c6565b6802fb474098f67c000092506139c6565b68030927f74c9de0000092506139c6565b68031708ae004544000092506139c6565b680324e964b3eca8000092506139c6565b680332ca1b67940c000092505b507fffffffffffffffffffffffffffffffffffffffffffffffffffffffffffffffff820361231657610956672e19dc008126bf2b670de0b6b3a7640000612a0c61274f87612a1a565b6000670de0b6b3a76400008310613a2c57613a2983614942565b92505b81831115613a70576040517fcb05259700000000000000000000000000000000000000000000000000000000815260048101849052602481018390526044016105ef565b5090919050565b60008260121115613a9a57601283900360018316156126705761261f8582613dc6565b601283111561267a577fffffffffffffffffffffffffffffffffffffffffffffffffffffffffffffffee830160028316156126275761261f8582613d01565b6000817812725dd1d243aba0e75fe645cc4873f9e65afe688c928e1f21811115613b32576040517fedc236ad000000000000000000000000000000000000000000000000000000008152600481018490526024016105ef565b61095661274f670de0b6b3a764000083026147bd565b600061095682846151c8565b6000818311613b64576000610956565b50900390565b600080826000526010600f6020600020060261ffff85821c165b8015613bab5780518503613ba2576001935060208101519250613bab565b60400151613b84565b50509250929050565b6000826000526010600f6020600020060261ffff85821c16805b8015613be55780518614613be55760400151613bce565b80158015613c335760405191506060820160405286825285602083015282604083015260028860f01c0161ffff60f01b1989168160f01b1798505061ffff841b19881682851b179750613c3a565b8560208301525b50959695505050505050565b600080613c5284614998565b60020260010190506000613c6685856149b6565b949091019093016020019392505050565b7fffffffffffffffffffffffffffffffffffffffffffffffffffffffffffffffe082018051601086901b851782527f312f5ae588c6ff62cd3f006af06cd48c98d7321649db7d8b2c396a81a204655591906000808686036004017ffffffffffffffffffffffffffffffffffffffffffffffffffffffffffffffffc8801865afa5090525050505050565b6000604e8210613d41578215613d37577fffffffffffffffffffffffffffffffffffffffffffffffffffffffffffffffff613d3a565b60005b90506101c4565b50600a81900a8281029083818381613d5b57613d5b61502e565b0414613d87577fffffffffffffffffffffffffffffffffffffffffffffffffffffffffffffffff6128c5565b5092915050565b600a81900a613d9d8184615071565b9050604e82106101c4578215613dbd57613db882600a6151a8565b610956565b50600092915050565b6000604e8210613dea578215613ddd576001613de0565b60005b60ff1690506101c4565b600a82900a808481613dfe57613dfe61502e565b0491508082028414613d87575060010192915050565b6000604e821015613dbd5781600a0a8381613e3157613e3161502e565b04610956565b600080807fffffffffffffffffffffffffffffffffffffffffffffffffffffffffffffffff84860984860292508281108382030391505080600003613e895750670de0b6b3a7640000900490506101c4565b670de0b6b3a76400008110613ed4576040517f5173648d00000000000000000000000000000000000000000000000000000000815260048101869052602481018590526044016105ef565b6000670de0b6b3a7640000858709620400008185030493109091037d40000000000000000000000000000000000000000000000000000000000002919091177faccb18165bd6fe31ae1cf318dc5b51eee0e1ba569b88cd74c1773b91fac106690291505092915050565b600080807fffffffffffffffffffffffffffffffffffffffffffffffffffffffffffffffff85870985870292508281108382030391505080600003613f9657838281613f8c57613f8c61502e565b0492505050610956565b838110613fe0576040517f63a057780000000000000000000000000000000000000000000000000000000081526004810187905260248101869052604481018590526064016105ef565b60008486880960026001871981018816978890046003810283188082028403028082028403028082028403028082028403028082028403029081029092039091026000889003889004909101858311909403939093029303949094049190911702949350505050565b7780000000000000000000000000000000000000000000000067ff0000000000000082161561416a576780000000000000008216156140915768016a09e667f3bcc9090260401c5b6740000000000000008216156140b0576801306fe0a31b7152df0260401c5b6720000000000000008216156140cf576801172b83c7d517adce0260401c5b6710000000000000008216156140ee5768010b5586cf9890f62a0260401c5b67080000000000000082161561410d576801059b0d31585743ae0260401c5b67040000000000000082161561412c57680102c9a3e778060ee70260401c5b67020000000000000082161561414b5768010163da9fb33356d80260401c5b67010000000000000082161561416a57680100b1afa5abcbed610260401c5b66ff0000000000008216156142695766800000000000008216156141975768010058c86da1c09ea20260401c5b66400000000000008216156141b5576801002c605e2e8cec500260401c5b66200000000000008216156141d357680100162f3904051fa10260401c5b66100000000000008216156141f1576801000b175effdc76ba0260401c5b660800000000000082161561420f57680100058ba01fb9f96d0260401c5b660400000000000082161561422d5768010002c5cc37da94920260401c5b660200000000000082161561424b576801000162e525ee05470260401c5b66010000000000008216156142695768010000b17255775c040260401c5b65ff000000000082161561435f5765800000000000821615614294576801000058b91b5bc9ae0260401c5b654000000000008216156142b157680100002c5c89d5ec6d0260401c5b652000000000008216156142ce5768010000162e43f4f8310260401c5b651000000000008216156142eb57680100000b1721bcfc9a0260401c5b650800000000008216156143085768010000058b90cf1e6e0260401c5b65040000000000821615614325576801000002c5c863b73f0260401c5b6502000000000082161561434257680100000162e430e5a20260401c5b6501000000000082161561435f576801000000b1721835510260401c5b64ff0000000082161561444c5764800000000082161561438857680100000058b90c0b490260401c5b6440000000008216156143a45768010000002c5c8601cc0260401c5b6420000000008216156143c0576801000000162e42fff00260401c5b6410000000008216156143dc5768010000000b17217fbb0260401c5b6408000000008216156143f8576801000000058b90bfce0260401c5b64040000000082161561441457680100000002c5c85fe30260401c5b6402000000008216156144305768010000000162e42ff10260401c5b64010000000082161561444c57680100000000b17217f80260401c5b63ff0000008216156145305763800000008216156144735768010000000058b90bfc0260401c5b634000000082161561448e576801000000002c5c85fe0260401c5b63200000008216156144a957680100000000162e42ff0260401c5b63100000008216156144c4576801000000000b17217f0260401c5b63080000008216156144df57680100000000058b90c00260401c5b63040000008216156144fa5768010000000002c5c8600260401c5b6302000000821615614515576801000000000162e4300260401c5b63010000008216156145305768010000000000b172180260401c5b62ff000082161561460b5762800000821615614555576801000000000058b90c0260401c5b6240000082161561456f57680100000000002c5c860260401c5b622000008216156145895768010000000000162e430260401c5b621000008216156145a357680100000000000b17210260401c5b620800008216156145bd5768010000000000058b910260401c5b620400008216156145d7576801000000000002c5c80260401c5b620200008216156145f157680100000000000162e40260401c5b6201000082161561460b576801000000000000b1720260401c5b61ff008216156146dd5761800082161561462e57680100000000000058b90260401c5b6140008216156146475768010000000000002c5d0260401c5b612000821615614660576801000000000000162e0260401c5b6110008216156146795768010000000000000b170260401c5b610800821615614692576801000000000000058c0260401c5b6104008216156146ab57680100000000000002c60260401c5b6102008216156146c457680100000000000001630260401c5b6101008216156146dd57680100000000000000b10260401c5b60ff8216156147a65760808216156146fe57680100000000000000590260401c5b6040821615614716576801000000000000002c0260401c5b602082161561472e57680100000000000000160260401c5b6010821615614746576801000000000000000b0260401c5b600882161561475e57680100000000000000060260401c5b600482161561477657680100000000000000030260401c5b600282161561478e57680100000000000000010260401c5b60018216156147a657680100000000000000010260401c5b670de0b6b3a76400000260409190911c60bf031c90565b6000816000036147cf57506000919050565b5060018170010000000000000000000000000000000081106147f65760409190911b9060801c5b6801000000000000000081106148115760209190911b9060401c5b64010000000081106148285760109190911b9060201c5b62010000811061483d5760089190911b9060101c5b61010081106148515760049190911b9060081c5b601081106148645760029190911b9060041c5b6004811061487457600182901b91505b60018284816148855761488561502e565b048301901c9150600182848161489d5761489d61502e565b048301901c915060018284816148b5576148b561502e565b048301901c915060018284816148cd576148cd61502e565b048301901c915060018284816148e5576148e561502e565b048301901c915060018284816148fd576148fd61502e565b048301901c915060018284816149155761491561502e565b048301901c9150600082848161492d5761492d61502e565b04905080831061493b578092505b5050919050565b6000670de0b6b3a7640000820615614989576040517f84843668000000000000000000000000000000000000000000000000000000008152600481018390526024016105ef565b50670de0b6b3a7640000900490565b600081516000036149ab57506000919050565b506020015160001a90565b60006149c183614998565b82106149fd5782826040517f30489add0000000000000000000000000000000000000000000000000000000081526004016105ef9291906151db565b50600202016003015161ffff1690565b614a156151fd565b565b600060208284031215614a2957600080fd5b81357fffffffff000000000000000000000000000000000000000000000000000000008116811461095657600080fd5b6000815180845260005b81811015614a7f57602081850181015186830182015201614a63565b5060006020828601015260207fffffffffffffffffffffffffffffffffffffffffffffffffffffffffffffffe0601f83011685010191505092915050565b6020815260006109566020830184614a59565b73ffffffffffffffffffffffffffffffffffffffff81168114614af257600080fd5b50565b7f4e487b7100000000000000000000000000000000000000000000000000000000600052604160045260246000fd5b604051601f82017fffffffffffffffffffffffffffffffffffffffffffffffffffffffffffffffe016810167ffffffffffffffff81118282101715614b6b57614b6b614af5565b604052919050565b600067ffffffffffffffff821115614b8d57614b8d614af5565b5060051b60200190565b600082601f830112614ba857600080fd5b81356020614bbd614bb883614b73565b614b24565b8083825260208201915060208460051b870101935086841115614bdf57600080fd5b602086015b84811015614bfb5780358352918301918301614be4565b509695505050505050565b6000614c14614bb884614b73565b8381529050602080820190600585901b840186811115614c3357600080fd5b845b81811015614c6f57803567ffffffffffffffff811115614c555760008081fd5b614c6189828901614b97565b855250928201928201614c35565b505050509392505050565b600080600080600060a08688031215614c9257600080fd5b8535614c9d81614ad0565b94506020860135935060408601359250606086013567ffffffffffffffff80821115614cc857600080fd5b818801915088601f830112614cdc57600080fd5b614ceb89833560208501614c06565b93506080880135915080821115614d0157600080fd5b50614d0e88828901614b97565b9150509295509295909350565b60008151808452602080850194506020840160005b83811015614d4c57815187529582019590820190600101614d30565b509495945050505050565b604081526000614d6a6040830185614d1b565b82810360208401526127c38185614d1b565b60008083601f840112614d8e57600080fd5b50813567ffffffffffffffff811115614da657600080fd5b6020830191508360208260051b8501011115614dc157600080fd5b9250929050565b600080600080600080600080600060c08a8c031215614de657600080fd5b8935614df181614ad0565b985060208a0135975060408a013567ffffffffffffffff80821115614e1557600080fd5b818c0191508c601f830112614e2957600080fd5b813581811115614e3857600080fd5b8d6020828501011115614e4a57600080fd5b6020830199508098505060608c0135965060808c0135915080821115614e6f57600080fd5b614e7b8d838e01614d7c565b909650945060a08c0135915080821115614e9457600080fd5b50614ea18c828d01614d7c565b915080935050809150509295985092959850929598565b6000610956368484614c06565b7f4e487b7100000000000000000000000000000000000000000000000000000000600052603260045260246000fd5b8281526040602082015260006128c56040830184614d1b565b60006020808385031215614f2057600080fd5b825167ffffffffffffffff811115614f3757600080fd5b8301601f81018513614f4857600080fd5b8051614f56614bb882614b73565b81815260059190911b82018301908381019087831115614f7557600080fd5b928401925b82841015612b7457835182529284019290840190614f7a565b600060208284031215614fa557600080fd5b5051919050565b600060208284031215614fbe57600080fd5b815160ff8116811461095657600080fd5b600060208284031215614fe157600080fd5b815161095681614ad0565b7f4e487b7100000000000000000000000000000000000000000000000000000000600052601160045260246000fd5b808201808211156101c4576101c4614fec565b7f4e487b7100000000000000000000000000000000000000000000000000000000600052601260045260246000fd5b60008261506c5761506c61502e565b500490565b80820281158282048414176101c4576101c4614fec565b600181815b808511156150e157817fffffffffffffffffffffffffffffffffffffffffffffffffffffffffffffffff048211156150c7576150c7614fec565b808516156150d457918102915b93841c939080029061508d565b509250929050565b6000826150f8575060016101c4565b81615105575060006101c4565b816001811461511b576002811461512557615141565b60019150506101c4565b60ff84111561513657615136614fec565b50506001821b6101c4565b5060208310610133831016604e8410600b8410161715615164575081810a6101c4565b61516e8383615088565b807fffffffffffffffffffffffffffffffffffffffffffffffffffffffffffffffff048211156151a0576151a0614fec565b029392505050565b600061095683836150e9565b6000826151c3576151c361502e565b500690565b818103818111156101c4576101c4614fec565b6040815260006151ee6040830185614a59565b90508260208301529392505050565b7f4e487b7100000000000000000000000000000000000000000000000000000000600052605160045260246000fdfe090c095d099f0b6b0c520c640c760c990cdb0d2d0d3e0d4f0df10e2e0eec0f9c10201163128a0eec1386142814a014d9151215611561159a15ff16d31726173a179317a717bc17d617e117f5180a1842186918e91937198519d319eb1a041a521a891a971aa51ac01ad51aed1b061b141b221b301b3e1b8c1bda1c281c761c8e1c8e1ca51cd31cd31cea1d191d6e1d7c1d7c1e201f07",
    "linkReferences": {}
  },
  "methodIdentifiers": {
    "buildOpcodeFunctionPointers()": "514b5d4f",
    "eval2(address,uint256,uint256,uint256[][],uint256[])": "6046c5f9",
    "eval3(address,uint256,bytes,uint256,uint256[][],uint256[])": "d6e3357a",
    "functionPointers()": "f933c72f",
    "supportsInterface(bytes4)": "01ffc9a7"
  }
}