{"abi":[{"type":"function","name":"buildLiteralParserFunctionPointers","inputs":[],"outputs":[{"name":"","type":"bytes","internalType":"bytes"}],"stateMutability":"pure"},{"type":"function","name":"buildOperandHandlerFunctionPointers","inputs":[],"outputs":[{"name":"","type":"bytes","internalType":"bytes"}],"stateMutability":"pure"},{"type":"function","name":"parse","inputs":[{"name":"data","type":"bytes","internalType":"bytes"}],"outputs":[{"name":"","type":"bytes","internalType":"bytes"},{"name":"","type":"uint256[]","internalType":"uint256[]"}],"stateMutability":"view"},{"type":"function","name":"parsePragma1","inputs":[{"name":"data","type":"bytes","internalType":"bytes"}],"outputs":[{"name":"","type":"tuple","internalType":"struct PragmaV1","components":[{"name":"usingWordsFrom","type":"address[]","internalType":"address[]"}]}],"stateMutability":"pure"},{"type":"function","name":"supportsInterface","inputs":[{"name":"interfaceId","type":"bytes4","internalType":"bytes4"}],"outputs":[{"name":"","type":"bool","internalType":"bool"}],"stateMutability":"view"},{"type":"error","name":"BadDynamicLength","inputs":[{"name":"dynamicLength","type":"uint256","internalType":"uint256"},{"name":"standardOpsLength","type":"uint256","internalType":"uint256"}]},{"type":"error","name":"BadSubParserResult","inputs":[{"name":"bytecode","type":"bytes","internalType":"bytes"}]},{"type":"error","name":"DanglingSource","inputs":[]},{"type":"error","name":"DecimalLiteralOverflow","inputs":[{"name":"offset","type":"uint256","internalType":"uint256"}]},{"type":"error","name":"DecimalLiteralPrecisionLoss","inputs":[{"name":"offset","type":"uint256","internalType":"uint256"}]},{"type":"error","name":"DuplicateLHSItem","inputs":[{"name":"errorOffset","type":"uint256","internalType":"uint256"}]},{"type":"error","name":"ErrScaleDownPrecisionLoss","inputs":[{"name":"a","type":"uint256","internalType":"uint256"}]},{"type":"error","name":"ExcessLHSItems","inputs":[{"name":"offset","type":"uint256","internalType":"uint256"}]},{"type":"error","name":"ExcessRHSItems","inputs":[{"name":"offset","type":"uint256","internalType":"uint256"}]},{"type":"error","name":"ExpectedLeftParen","inputs":[{"name":"offset","type":"uint256","internalType":"uint256"}]},{"type":"error","name":"ExpectedOperand","inputs":[]},{"type":"error","name":"HexLiteralOverflow","inputs":[{"name":"offset","type":"uint256","internalType":"uint256"}]},{"type":"error","name":"IntegerOverflow","inputs":[{"name":"integer","type":"uint256","internalType":"uint256"},{"name":"max","type":"uint256","internalType":"uint256"}]},{"type":"error","name":"InvalidSubParser","inputs":[{"name":"offset","type":"uint256","internalType":"uint256"}]},{"type":"error","name":"MalformedCommentStart","inputs":[{"name":"offset","type":"uint256","internalType":"uint256"}]},{"type":"error","name":"MalformedDecimalPoint","inputs":[{"name":"offset","type":"uint256","internalType":"uint256"}]},{"type":"error","name":"MalformedExponentDigits","inputs":[{"name":"offset","type":"uint256","internalType":"uint256"}]},{"type":"error","name":"MalformedHexLiteral","inputs":[{"name":"offset","type":"uint256","internalType":"uint256"}]},{"type":"error","name":"MaxSources","inputs":[]},{"type":"error","name":"MissingFinalSemi","inputs":[{"name":"offset","type":"uint256","internalType":"uint256"}]},{"type":"error","name":"NoWhitespaceAfterUsingWordsFrom","inputs":[{"name":"offset","type":"uint256","internalType":"uint256"}]},{"type":"error","name":"NotAcceptingInputs","inputs":[{"name":"offset","type":"uint256","internalType":"uint256"}]},{"type":"error","name":"OddLengthHexLiteral","inputs":[{"name":"offset","type":"uint256","internalType":"uint256"}]},{"type":"error","name":"OpcodeIOOverflow","inputs":[{"name":"offset","type":"uint256","internalType":"uint256"}]},{"type":"error","name":"OperandValuesOverflow","inputs":[{"name":"offset","type":"uint256","internalType":"uint256"}]},{"type":"error","name":"ParenOverflow","inputs":[]},{"type":"error","name":"ParseStackOverflow","inputs":[]},{"type":"error","name":"ParseStackUnderflow","inputs":[]},{"type":"error","name":"ParserOutOfBounds","inputs":[]},{"type":"error","name":"SourceIndexOutOfBounds","inputs":[{"name":"sourceIndex","type":"uint256","internalType":"uint256"},{"name":"bytecode","type":"bytes","internalType":"bytes"}]},{"type":"error","name":"StringTooLong","inputs":[{"name":"offset","type":"uint256","internalType":"uint256"}]},{"type":"error","name":"SubParseableMissingDispatch","inputs":[{"name":"offset","type":"uint256","internalType":"uint256"}]},{"type":"error","name":"UnclosedComment","inputs":[{"name":"offset","type":"uint256","internalType":"uint256"}]},{"type":"error","name":"UnclosedLeftParen","inputs":[{"name":"offset","type":"uint256","internalType":"uint256"}]},{"type":"error","name":"UnclosedOperand","inputs":[{"name":"offset","type":"uint256","internalType":"uint256"}]},{"type":"error","name":"UnclosedStringLiteral","inputs":[{"name":"offset","type":"uint256","internalType":"uint256"}]},{"type":"error","name":"UnclosedSubParseableLiteral","inputs":[{"name":"offset","type":"uint256","internalType":"uint256"}]},{"type":"error","name":"UnexpectedComment","inputs":[{"name":"offset","type":"uint256","internalType":"uint256"}]},{"type":"error","name":"UnexpectedLHSChar","inputs":[{"name":"offset","type":"uint256","internalType":"uint256"}]},{"type":"error","name":"UnexpectedOperand","inputs":[]},{"type":"error","name":"UnexpectedOperandValue","inputs":[]},{"type":"error","name":"UnexpectedRHSChar","inputs":[{"name":"offset","type":"uint256","internalType":"uint256"}]},{"type":"error","name":"UnexpectedRightParen","inputs":[{"name":"offset","type":"uint256","internalType":"uint256"}]},{"type":"error","name":"UnknownWord","inputs":[{"name":"word","type":"string","internalType":"string"}]},{"type":"error","name":"UnsupportedLiteralType","inputs":[{"name":"offset","type":"uint256","internalType":"uint256"}]},{"type":"error","name":"WordSize","inputs":[{"name":"word","type":"string","internalType":"string"}]},{"type":"error","name":"ZeroLengthDecimal","inputs":[{"name":"offset","type":"uint256","internalType":"uint256"}]},{"type":"error","name":"ZeroLengthHexLiteral","inputs":[{"name":"offset","type":"uint256","internalType":"uint256"}]}],"bytecode":{"object":"0x6080604052348015600f57600080fd5b506149238061001f6000396000f3fe608060405234801561001057600080fd5b50600436106100675760003560e01c8063ccf4477511610050578063ccf44775146100b4578063d6d8c9a8146100c9578063fab4087a146100d157600080fd5b806301ffc9a71461006c5780635514ca2014610094575b600080fd5b61007f61007a366004614041565b6100f2565b60405190151581526020015b60405180910390f35b6100a76100a2366004614147565b6101d7565b60405161008b91906141c7565b6100bc610289565b60405161008b919061429b565b6100bc610298565b6100e46100df366004614147565b6102a2565b60405161008b9291906142ae565b60007fffffffff0000000000000000000000000000000000000000000000000000000082167ffab4087a00000000000000000000000000000000000000000000000000000000148061018557507fffffffff0000000000000000000000000000000000000000000000000000000082167f5514ca2000000000000000000000000000000000000000000000000000000000145b806101d157507f01ffc9a7000000000000000000000000000000000000000000000000000000007fffffffff000000000000000000000000000000000000000000000000000000008316145b92915050565b6040805160208101909152606081526000610235836101f46102c2565b6101fc6102e5565b60408051808201909152600881527f0f76123e1645171f0000000000000000000000000000000000000000000000006020820152610305565b90506000602084019050600061024e8580510160200190565b905061025b838383610509565b915061026883838361056d565b9150604051806020016040528061027e856106bd565b905295945050505050565b606061029361071c565b905090565b6060610293610769565b6060806102b96102b4846101f46102c2565b610a44565b91509150915091565b6060604051806101a0016040528061016f81526020016147b461016f9139905090565b60606040518060c001604052806096815260200161471e60969139905090565b61039a604051806102600160405280600081526020016000815260200160008152602001600081526020016000815260200160008152602001600081526020016000815260200160008152602001600081526020016000815260200160008152602001600081526020016060815260200160608152602001606081526020016000815260200160608152602001606081525090565b600060405180610260016040528060008152602001600081526020016000815260200160008152602001600081526020016000815260200160008152602001600081526020016004815260200160008152602001600081526020016000815260200160008152602001848152602001858152602001600467ffffffffffffffff81111561042957610429614083565b604051908082528060200260200182016040528015610452578160200160208202803683370190505b5081526000602080830182905260408084018b905260609384018a90528051601f017fffffffffffffffffffffffffffffffffffffffffffffffffffffffffffffffe016828152808301825283517fffffffffffffffffffffffffffffffffffffffffffffffffffffffffffff00001681178452855290840182905283018190529082018190526080820181905260a082018190526101208201819052610140820181905261020082015290505b95945050505050565b60005b81831015610563578251600160009190911a1b64010000260081161561053e57610537858585610b8a565b935061055d565b6580000000000081161561055757610537858585610bcf565b50610563565b5061050c565b50815b9392505050565b815160408051808201909152601081527f7573696e672d776f7264732d66726f6d000000000000000000000000000000006020820152600091906105b090614305565b7fffffffffffffffffffffffffffffffff000000000000000000000000000000008216146105e15783915050610566565b5060109290920180519092906001600091821a1b906401000026008216900361066c5761022085015184037fffffffffffffffffffffffffffffffffffffffffffffffffffffffffffffffe0016040517fe3e4992d00000000000000000000000000000000000000000000000000000000815260040161066391815260200190565b60405180910390fd5b836001019350505b8183101561056357610687848484610509565b9250600080610697868686610d9a565b9096509092509050816106ab575050610563565b6106b6868683610e8b565b5050610674565b60c08101516040516060919073ffffffffffffffffffffffffffffffffffffffff6020820160005b841561070657848316825260f09490941c51936020909101906001016106e5565b835260405261071482610f28565b509392505050565b6040805160a0810182526004808252610f76602083015261123e9282019290925261164560608281019190915261171f608083015291908190805b6107608161186f565b94505050505090565b60606140376000604b905080915060006040518061098001604052808467ffffffffffffffff1667ffffffffffffffff16815260200161190081526020016119008152602001611900815260200161196581526020016119de81526020016119de81526020016119de8152602001611965815260200161196581526020016119008152602001611900815260200161190081526020016119de81526020016119de81526020016119de81526020016119de81526020016119de81526020016119de81526020016119de81526020016119de81526020016119de81526020016119de81526020016119de81526020016119de81526020016119de81526020016119de81526020016119de81526020016119de81526020016119de81526020016119de81526020016119de81526020016119de81526020016119de81526020016119de81526020016119de81526020016119de81526020016119de81526020016119de81526020016119de81526020016119de81526020016119de81526020016119de81526020016119de81526020016119de81526020016119de81526020016119de81526020016119de81526020016119de81526020016119de81526020016119de81526020016119de81526020016119de81526020016119de81526020016119de81526020016119de81526020016119de81526020016119de81526020016119de81526020016119de81526020016119de81526020016119de81526020016119de81526020016119de8152602001611a2381526020016119de8152602001611af58152602001611a2381526020016119de8152602001611af581526020016119de81526020016119de81526020016119008152602001611b5e81526020016119de81526020016119de81525090506060819050604b8151146107575780516040517fc8b56901000000000000000000000000000000000000000000000000000000008152600481019190915260248101849052604401610663565b6060806000836102200151511115610b77576000610a6784610220015160200190565b90506000610a7d85610220015180510160200190565b9050610a8a858383610509565b9150610a9785838361056d565b91505b80821015610ace57610aad858383610509565b9150610aba858383611ba3565b9150610ac7858383611e81565b9150610a9a565b808214610b07576040517f7d565df600000000000000000000000000000000000000000000000000000000815260040160405180910390fd5b61010085015160081615610b745761022085015182037fffffffffffffffffffffffffffffffffffffffffffffffffffffffffffffffe0016040517ff06f54cf00000000000000000000000000000000000000000000000000000000815260040161066391815260200190565b50505b6102b9610b83846123ba565b84906124f2565b610100830180517ffffffffffffffffffffffffffffffffffffffffffffffffffffffffffffffffe1690526000610bc7838364010000260061255e565b949350505050565b610100830180516001179052600060048301821015610c485761022084015183037fffffffffffffffffffffffffffffffffffffffffffffffffffffffffffffffe0015b6040517f25a7646800000000000000000000000000000000000000000000000000000000815260040161066391815260200190565b825160f01c612f2a8114610cb55761022085015184037fffffffffffffffffffffffffffffffffffffffffffffffffffffffffffffffe0016040517f3e47169c00000000000000000000000000000000000000000000000000000000815260040161066391815260200190565b60038401935060005b83851015610d5c57845160001a7fffffffffffffffffffffffffffffffffffffffffffffffffffffffffffffffd18101610d50577fffffffffffffffffffffffffffffffffffffffffffffffffffffffffffffffff86015160f01c7fffffffffffffffffffffffffffffffffffffffffffffffffffffffffffffd5d18101610d4e57505050600193840193610d5c565b505b85600101955050610cbe565b80610d905761022086015185037fffffffffffffffffffffffffffffffffffffffffffffffffffffffffffffffe001610c13565b5092949350505050565b8151600090819081908190600181831a1b6703ff000000000000811615610dfe57600182811a1b7ffffffffffffffffffffffffffffffffffeffffffffffffffffff00000000000082821701610df35760009350610df8565b600193505b50610e44565b640400000000811615610e145760029250610e44565b6b080000000000000000000000811615610e315760039250610e44565b6000886000955095509550505050610e82565b5060009050610e73888888610e6b83876101a09190910151600291820201015161ffff1690565b63ffffffff16565b90975060019550879450925050505b93509350939050565b73ffffffffffffffffffffffffffffffffffffffff811115610f065761022083015182037fffffffffffffffffffffffffffffffffffffffffffffffffffffffffffffffe0016040517f9d7e517e00000000000000000000000000000000000000000000000000000000815260040161066391815260200190565b60c09092018051604080516020810190915290815260f01b9290921790915250565b60208101602082510282015b80821015610f715781518151835281526020909101907fffffffffffffffffffffffffffffffffffffffffffffffffffffffffffffffe001610f34565b505050565b600080808080610f8788888861258a565b985090925090508181036040811115610ff95761022089015183037fffffffffffffffffffffffffffffffffffffffffffffffffffffffffffffffe0016040517fff2f594900000000000000000000000000000000000000000000000000000000815260040161066391815260200190565b806000036110605761022089015183037fffffffffffffffffffffffffffffffffffffffffffffffffffffffffffffffe0016040517fc75cd50900000000000000000000000000000000000000000000000000000000815260040161066391815260200190565b600281066001036110ca5761022089015183037fffffffffffffffffffffffffffffffffffffffffffffffffffffffffffffffe0016040517fd76d9b5700000000000000000000000000000000000000000000000000000000815260040161066391815260200190565b60018203975060005b83891061122d578851600090811a906001821b906703ff00000000000082161561112057507fffffffffffffffffffffffffffffffffffffffffffffffffffffffffffffffd082016111f7565b6c7e00000000000000000000000082161561115e57507fffffffffffffffffffffffffffffffffffffffffffffffffffffffffffffffa982016111f7565b687e000000000000000082161561119857507fffffffffffffffffffffffffffffffffffffffffffffffffffffffffffffffc982016111f7565b6102208d01518c037fffffffffffffffffffffffffffffffffffffffffffffffffffffffffffffffe0016040517f69f1e3e600000000000000000000000000000000000000000000000000000000815260040161066391815260200190565b7fffffffffffffffffffffffffffffffffffffffffffffffffffffffffffffffff909b019a831b969096179550506004016110d3565b50509350909150505b935093915050565b600080808080808761125981896703ff00000000000061255e565b98508089036112c1576102208a015189037fffffffffffffffffffffffffffffffffffffffffffffffffffffffffffffffe0016040517ffa65827e00000000000000000000000000000000000000000000000000000000815260040161066391815260200190565b6112cc8a828b6125dc565b895190925065400000000000600160009290921a82901b161515898b101691508190036113f8576001909801978861130d818a6703ff00000000000061255e565b9950808a03611375576102208b01518a037fffffffffffffffffffffffffffffffffffffffffffffffffffffffffffffffe0016040517f7bfa48af00000000000000000000000000000000000000000000000000000000815260040161066391815260200190565b895b7fffffffffffffffffffffffffffffffffffffffffffffffffffffffffffffffff81018051908b11600160009290921a9190911b6601000000000000161515166001036113e5577fffffffffffffffffffffffffffffffffffffffffffffffffffffffffffffffff01611377565b6113f08c83836125dc565b919003955093505b885160009081906c20000000200000000000000000600191831a9190911b1615158a8c1016156114d15760019a8b018051909b8b8d1060009290921a1b65200000000000161515169a8b019a90508a61145a818c6703ff00000000000061255e565b9b50808c036114c2576102208d01518c037fffffffffffffffffffffffffffffffffffffffffffffffffffffffffffffffe0016040517f013b2aaa00000000000000000000000000000000000000000000000000000000815260040161066391815260200190565b6114cd8d828e6125dc565b9250505b801561154b578160121015611540576102208c01518b037fffffffffffffffffffffffffffffffffffffffffffffffffffffffffffffffe0015b6040517f6f1e76fc00000000000000000000000000000000000000000000000000000000815260040161066391815260200190565b816012039450611552565b8160120194505b604d85106115ba576102208c01518b037fffffffffffffffffffffffffffffffffffffffffffffffffffffffffffffffe0015b6040517f8f2b5ffd00000000000000000000000000000000000000000000000000000000815260040161066391815260200190565b868510156115f1576102208c01518b037fffffffffffffffffffffffffffffffffffffffffffffffffffffffffffffffe00161150b565b5050508784836116019190614376565b61160c90600a6144a9565b61161690856144b5565b61162184600a6144a9565b61162b90846144b5565b61163591906144cc565b9550955050505050935093915050565b6000808080611655878787612786565b7fffffffffffffffffffffffffffffffffffffffffffffffffffffffffffffffe083018051848403825291995092945090925060009161170f81601f908101517fffffffffffffffffffffffffffffffffffffffffffffffffffffffffffffffff600160087f1fffffffffffffffffffffffffffffffffffffffffffffffffffffffffffffff84811660001a909503021b011916167f80000000000000000000000000000000000000000000000000000000000000001790565b9190529698969750505050505050565b6001909101906000808361174481856fffffffffdffffffffffffffeffffd9ff61255e565b9450848181036117ad5761022087015186037fffffffffffffffffffffffffffffffffffffffffffffffffffffffffffffffe0016040517ff73a1aa800000000000000000000000000000000000000000000000000000000815260040161066391815260200190565b6117b8878787610b8a565b9550856117d681876fffffffffdfffffffffffffffffffffff61255e565b805190975087906001600091821a1b906b2000000000000000000000008216900361185a576102208a015189037fffffffffffffffffffffffffffffffffffffffffffffffffffffffffffffffe0016040517fc4b1913500000000000000000000000000000000000000000000000000000000815260040161066391815260200190565b50600190970196876116358a868686866128fe565b60606000825160020267ffffffffffffffff81111561189057611890614083565b6040519080825280601f01601f1916602001820160405280156118ba576020820181803683370190505b50905061ffff80196020850160208651028101600285015b818310156118f4578051835186169085161781526020909201916002016118d2565b50939695505050505050565b6000815160010361191d575060208101516101d18161ffff612a8e565b815160000361192e57506000919050565b6040517f1ac6690800000000000000000000000000000000000000000000000000000000815260040160405180910390fd5b919050565b600081516002036119a257602082015160408301516119858260ff612a8e565b91506119928160ff612a8e565b60081b9190911791506119609050565b60028251101561192e576040517ff16066b000000000000000000000000000000000000000000000000000000000815260040160405180910390fd5b60008151600014611a1b576040517f9f16b02000000000000000000000000000000000000000000000000000000000815260040160405180910390fd5b506000919050565b805160009060018110801590611a3a575060038111155b15611ab557602083015160008060028410611a5b5760408601519150611a60565b600091505b83600303611a7357506060850151611a77565b5060005b611a828360ff612a8e565b9250611a8f826001612a8e565b9150611a9c816001612a8e565b9050600981901b600883901b8417179450505050611aef565b8060000361192e576040517ff16066b000000000000000000000000000000000000000000000000000000000815260040160405180910390fd5b50919050565b8051600090600381101561192e5760008060018310611b1a5760208501519150611b1f565b600091505b82600203611b3257506040840151611b36565b5060005b611b41826001612a8e565b9150611b4e816001612a8e565b60011b919091179250611aef9050565b60008151600014611b9b576040517f9f16b02000000000000000000000000000000000000000000000000000000000815260040160405180910390fd5b506001919050565b60005b81831015610563578251600090600190821a1b6f07fffffe800000000000000000000000811615611d3f5761010086015160011615611c3f5761022086015185037fffffffffffffffffffffffffffffffffffffffffffffffffffffffffffffffe0015b6040517f5520a51700000000000000000000000000000000000000000000000000000000815260040161066391815260200190565b6f07fffffe000000000000000000000000811615611cf457611c7285856f07fffffe0000000003ff200000000000612af6565b9095509150600080611c848885612bc6565b915091508115611ced5761022088015187037fffffffffffffffffffffffffffffffffffffffffffffffffffffffffffffffe0016040517f53e6feba00000000000000000000000000000000000000000000000000000000815260040161066391815260200190565b5050611d15565b611d1260018601856f07fffffe0000000003ff20000000000061255e565b94505b604086018051600190810190915260a0870180519091019052610100860180516009179052611e7a565b640100002600811615611d9157611d5f600186018564010000260061255e565b610100870180517ffffffffffffffffffffffffffffffffffffffffffffffffffffffffffffffffe1690529450611e7a565b670400000000000000811615611ddd575050610100840180516008177ffffffffffffffffffffffffffffffffffffffffffffffffffffffffffffffffe16905260019290920191610563565b65800000000000811615611e4b5761022086015185037fffffffffffffffffffffffffffffffffffffffffffffffffffffffffffffffe0015b6040517fedad0c5800000000000000000000000000000000000000000000000000000000815260040161066391815260200190565b61022086015185037fffffffffffffffffffffffffffffffffffffffffffffffffffffffffffffffe001611c0a565b5050611ba6565b60005b81831015610563578251600090600190821a1b6f07fffffe0000000000000000000000008116156120865761010086015160011615611f1d5761022086015185037fffffffffffffffffffffffffffffffffffffffffffffffffffffffffffffffe0015b6040517f4e803df600000000000000000000000000000000000000000000000000000000815260040161066391815260200190565b84611f3981866f07fffffe0000000003ff200000000000612af6565b8094508197505050600080611f5389610240015186612c3d565b915091508115611f9557611f68898989612cf7565b97506000611f768a83612f21565b9050611f838a8383612f48565b50610100890180516002179052612072565b611f9f89866130ac565b90925090508115611fc457611fb689600083612f48565b611fbf89613127565b612072565b60006060848a0360058101611fda8d8d8d612cf7565b9b508c6101e0015151602002602001810190506000600590506040519350602082018401604052828185015281845283945061202388600561201c8760200190565b018561318a565b5050506101e08b015180516001019061205690612050836120478680510160200190565b90602002900390565b836131f0565b506120638b60ff84612f48565b50506101008901805160021790525b5050506101008601805160011790526123b3565b61010086015160021615612185576501000000000081166000036121035761022086015185037fffffffffffffffffffffffffffffffffffffffffffffffffffffffffffffffe0016040517f23b5c6ea00000000000000000000000000000000000000000000000000000000815260040161066391815260200190565b60608601805160001a60030190819053603b81111561214e576040517f6232f2d900000000000000000000000000000000000000000000000000000000815260040160405180910390fd5b50610100860180517ffffffffffffffffffffffffffffffffffffffffffffffffffffffffffffffffc1690526001909401936123b3565b6502000000000081161561225d576000606087015160001a9050806000036122065761022087015186037fffffffffffffffffffffffffffffffffffffffffffffffffffffffffffffffe0016040517f7f9db54200000000000000000000000000000000000000000000000000000000815260040161066391815260200190565b7ffffffffffffffffffffffffffffffffffffffffffffffffffffffffffffffffd01606087018181538160048201015160001a8260028301015160f01c600101535061225187613127565b506001909401936123b3565b6401000026008116156122af5761227d600186018564010000260061255e565b610100870180517ffffffffffffffffffffffffffffffffffffffffffffffffffffffffffffffffe16905294506123b3565b6b0800000003ff0004000000008116156122ea576122ce868686613212565b94506122d986613127565b6101008601805160011790526123b3565b6510000000000081161561230f5761230286866132eb565b5050600190920191610563565b6708000000000000008116156123475761232986866132eb565b61233286613660565b50506004610100850152600190920191610563565b658000000000008116156123845761022086015185037fffffffffffffffffffffffffffffffffffffffffffffffffffffffffffffffe001611e16565b61022086015185037fffffffffffffffffffffffffffffffffffffffffffffffffffffffffffffffe001611ee8565b5050611e84565b60e08101518151516060919060f082901c9060208114612406576040517f858f2dcf00000000000000000000000000000000000000000000000000000000815260040160405180910390fd5b604051935060208401601083046000818353506001600885048301810192839101600080805b888110156124655789811c61ffff81165163ffff0000601092831b16811760e01b8786015284019360f08390031b92909217910161242c565b50825117909152878203017fffffffffffffffffffffffffffffffffffffffffffffffffffffffffffffffe08181018952908801601f011660405260005b828110156124e6576002810288016003015161ffff90811683018051602060f082901c019260e09190911c16906124db83828461318a565b5050506001016124a3565b50505050505050919050565b606080600061250084613947565b905060005b818110156125465760006125198683613965565b6004019050600061252a8784613996565b6004028201905061253c8883836139af565b5050600101612505565b508361255186613c6b565b92509250505b9250929050565b60005b6000826001865160001a1b1611838510161561258257600184019350612561565b509192915050565b600080808061259a8660026144cc565b9050806c7e0000007e03ff0000000000005b868210816001845160001a1b16151516156125cc576001820191506125ac565b5090979096508695509350505050565b60006030817fffffffffffffffffffffffffffffffffffffffffffffffffffffffffffffffff8401815b8682101580156126165750604d83105b1561265a57815160018401937fffffffffffffffffffffffffffffffffffffffffffffffffffffffffffffffff90930192600a0a60009190911a8590030201612606565b86821061277b57815160001a84900360018111156126a15761022089015188037fffffffffffffffffffffffffffffffffffffffffffffffffffffffffffffffe001611585565b600a84900a81028281018311156126e1576102208a015189037fffffffffffffffffffffffffffffffffffffffffffffffffffffffffffffffe001611585565b9190910190507fffffffffffffffffffffffffffffffffffffffffffffffffffffffffffffffff909101905b86821061277b57815160001a603081146127505761022089015188037fffffffffffffffffffffffffffffffffffffffffffffffffffffffffffffffe001611585565b507fffffffffffffffffffffffffffffffffffffffffffffffffffffffffffffffff9091019061270d565b979650505050505050565b600080806001850181806f7ffffffffffffffffffffffb0000000081807fffffffffffffffffffffffffffffffffffffffffffffffffffffffffffffffff8b8b03016020808210156127d55750805b875193505b84600185851a1b16151581841016156127f8576001830192506127da565b505080602003612861576102208c01518b037fffffffffffffffffffffffffffffffffffffffffffffffffffffffffffffffe0016040517f30515bda00000000000000000000000000000000000000000000000000000000815260040161066391815260200190565b858101805190955060001a6001811b6404000000001615806128825750858b145b156128e6576102208d015186037fffffffffffffffffffffffffffffffffffffffffffffffffffffffffffffffe0016040517f04022fbf00000000000000000000000000000000000000000000000000000000815260040161066391815260200190565b50949b939a505060018a019850919650505050505050565b604080518383038686038181018381016022908101909552600284810183905201835260009383019161293289848461318a565b61293f878385018361318a565b50505060c08701515b8015612a2e5760f081901c516040517fc7dc7287000000000000000000000000000000000000000000000000000000008152909190600090819073ffffffffffffffffffffffffffffffffffffffff84169063c7dc7287906129d0907f5836ed68c3ff94ac90fe739dd43b89a6043a4bb56bc7556b9034f4752e80fe999089906004016144df565b6040805180830381865afa1580156129ec573d6000803e3d6000fd5b505050506040513d601f19601f82011682018060405250810190612a109190614508565b915091508115612a265794506105009350505050565b505050612948565b61022088015187037fffffffffffffffffffffffffffffffffffffffffffffffffffffffffffffffe0015b6040517fb0e4e5b300000000000000000000000000000000000000000000000000000000815260040161066391815260200190565b6000670de0b6b3a76400008310612aab57612aa883613ce0565b92505b81831115612aef576040517fcb0525970000000000000000000000000000000000000000000000000000000081526004810184905260248101839052604401610663565b5090919050565b6000808060018187870360208111612b0e5780612b11565b60205b915050875192505b8519600184841a1b16158183101615612b3757600182019150612b19565b9681019660208290036008810293841c90931b92612bb957604080516020810185905201604080517fffffffffffffffffffffffffffffffffffffffffffffffffffffffffffffffe0818403018152908290527fe47fe8b70000000000000000000000000000000000000000000000000000000082526106639160040161429b565b5095969095509350505050565b600080612bd384846130ac565b90925090508161255757506101208301805160408051948552602080862092865285018152909401517fffffffffffffffffffffffffffffffffffffffffffffffffffffffff00000000909416601085901b62ff000016179092179091529160ff90911660010190565b600182810180516000928392600560ff93909316602102870192830192909101835b81831015612ce7576001830151602190930180519093600090819060ff168180612c89838e613d36565b91509150600087612c9e600185038916613d58565b016004028b015195505062ffffff9081169350841683039150612cd29050575060019750601c1a9550612557945050505050565b612cdb83613d58565b84019350505050612c5f565b5060009788975095505050505050565b81516101e0840151600080825291600190831a1b907ffffffffffffffffffffffffffffffffffffffffffffffffff0000000000000008201610d9057612d3c85614534565b610100870180517ffffffffffffffffffffffffffffffffffffffffffffffffffffffffffffffffe16905280519095506001600091821a1b9250805b85871015612ee1578651600160009190911a1b9350640100002600841615612dac57612da5888888610b8a565b9650612d78565b674000000000000000841615612dd057612dc587614534565b965060019050612ee1565b600188610100015116600003612e815760048203612e475761022088015187037fffffffffffffffffffffffffffffffffffffffffffffffffffffffffffffffe0016040517f8c9fdbb300000000000000000000000000000000000000000000000000000000815260040161066391815260200190565b6000612e54898989613e31565b60208581028701018190526101008b01805160011790529098509050612e7983614534565b925050612d78565b61022088015187037fffffffffffffffffffffffffffffffffffffffffffffffffffffffffffffffe0015b6040517f722cd24a00000000000000000000000000000000000000000000000000000000815260040161066391815260200190565b80612f155761022088015187037fffffffffffffffffffffffffffffffffffffffffffffffffffffffffffffffe001612eac565b50905250919392505050565b6101c08201516002828102820101516101e084015160009261ffff90921691906105009083565b612f5183613e5c565b610100830180517ffffffffffffffffffffffffffffffffffffffffffffffffffffffffffffffffb1660081790526020830151600090811a840160210180519091600191901a018153508251805160608501516061600091821a8701018051929361ffff8516939092601c600886048503019291901a6001018153600060038201537fffffffffffffffffffffffffffffffffffffffffffffffffffffffffffffffe30180517fffffffffffffffffffffffffffffffffffffffffffffffffffffffffffff0000169091179052602090920183821b176018820185901b178083529160e08290036130a45760408051601083901b6020908117601f9092017fffffffffffffffffffffffffffffffffffffffffffffffffffffffffffffffe016918252810190915281517fffffffffffffffffffffffffffffffffffffffffffffffffffffffffffff0000168117825286525b505050505050565b61012082015161014083015160008381526020808220919384939290911c91600160ff84161b808216156131125761ffff83165b8015613110578360201c8503613103576001965061ffff8460101c169550613110565b51925061ffff83166130e0565b505b17610140909601959095525090939092509050565b6000606082015160001a9050806000036131865760208201805160001a600101908181535080603f03610f71576040517fe826b5f600000000000000000000000000000000000000000000000000000000815260040160405180910390fd5b5050565b6020810680820384015b808510156131af578451845260209485019490930192613194565b5080156131ea577fffffffffffffffffffffffffffffffffffffffffffffffffffffffffffffffff600882021c808451168119865116178452505b50505050565b8060200283015b808410156131ea5783518352602093840193909201916131f7565b60008080613221868686610d9a565b909650925090508061325c5761022086015185037fffffffffffffffffffffffffffffffffffffffffffffffffffffffffffffffe001612a59565b60008061326884613eaf565b61018089015116156132a95761016088015160101c5b801580159061328b575082155b156132a75760208101519051908514925060019091019061327e565b505b61016088015161ffff166132cf6001846132c357826132c7565b8383035b8b9190612f48565b50816132df576132df8885613ec7565b50949695505050505050565b606082015160001a80156133585761022083015182037fffffffffffffffffffffffffffffffffffffffffffffffffffffffffffffffe0016040517f6fb11cdc00000000000000000000000000000000000000000000000000000000815260040161066391815260200190565b5061336282613e5c565b61010082018051600416600890811790915260a0830151602084015160ff8083169360f89290921c9290911c1681036000819003613434576004856101000151166000036134095761022085015184037fffffffffffffffffffffffffffffffffffffffffffffffffffffffffffffffe0016040517fab1d3ea700000000000000000000000000000000000000000000000000000000815260040161066391815260200190565b90820160f881901b60208601526102008501519091906134299084613f19565b61020086015261350b565b600181111561350b57808310156134a45761022085015184037fffffffffffffffffffffffffffffffffffffffffffffffffffffffffffffffe0016040517f78ef278200000000000000000000000000000000000000000000000000000000815260040161066391815260200190565b8083111561350b5761022085015184037fffffffffffffffffffffffffffffffffffffffffffffffffffffffffffffffe0016040517f43168e6800000000000000000000000000000000000000000000000000000000815260040161066391815260200190565b8082036001016020601083028101905b8181101561364c5760a08801516020848a01015190821c61ffff169060001a60015b81811161363b5760208306601c0361355657915160f01c915b82516102008c015160019190911a9061356f9082613f61565b6102008d0152600082841480156135865750886001145b613591576001613593565b8a5b6102008e01519091506135a69082613fa8565b6102008e0152600f8111806135bb5750600f82115b1561361f576102208d01518c037fffffffffffffffffffffffffffffffffffffffffffffffffffffffffffffffe0016040517f7ea1869f00000000000000000000000000000000000000000000000000000000815260040161066391815260200190565b818160041b17600186015350506004929092019160010161353d565b50506001909301925060100161351b565b5050505060081b60a0909301929092525050565b60e0810151602082015160f082811c9160001a600101908290036136b0576040517fa806284100000000000000000000000000000000000000000000000000000000815260040160405180910390fd5b61020084015184518051600092919060101c61ffff165b80156136de57805190915060101c61ffff166136c7565b50604051602188018051919450601c830192916004916024870191600090811a805b8a8310156137c65760048202860195506004878903045b8082111561373557965161ffff16601c810198509690036007613717565b506004810297889003805186529794909401938103865b6007821115613791575160101c61ffff1680518652601c909501947ffffffffffffffffffffffffffffffffffffffffffffffffffffffffffffffff99091019061374c565b81156137ac575160101c61ffff168051865260048202909501945b505050600191820180519092919091019060001a80613700565b5050508287525060048087018051919093047fffffffffffffffffffffffffffffffffffffffffffffffffffffffffffffffff0160181b86177fffffffffffffffffffffffffffffffffffffffffffffffffffffffff00000000909116179091527fffffffffffffffffffffffffffffffffffffffffffffffffffffffffffffffe0601f909101166040525061385f600180871b614376565b861683861b60f06138718860106144cc565b901b171760e0880152610100870180517ffffffffffffffffffffffffffffffffffffffffffffffffffffffffffffffff7169052604080516020601f9091017fffffffffffffffffffffffffffffffffffffffffffffffffffffffffffffffe0168181528082018352600080517fffffffffffffffffffffffffffffffffffffffffffffffffffffffffffff00001682178152908a52908901819052908801819052606088018190526080880181905260a088018190526101208801819052610140880181905261020088015250505050505050565b6000815160000361395a57506000919050565b506020015160001a90565b60008061397184613947565b600202600101905060006139858585613fe0565b949091019093016020019392505050565b6000806139a38484613965565b5160001a949350505050565b80821015610f715781517fffffffffffffffffffffffffffffffffffffffffffffffffffffffffffffff0160f882901c01613be45760c08401515b8015613be25760008190508160f01c519150606061ffff8460e01c1690506000876101600151905061ffff811660081b8560011a1760e81b6020830162ffffff60e81b198151168217815250505060008060008473ffffffffffffffffffffffffffffffffffffffff1663f6dd97f97f5836ed68c3ff94ac90fe739dd43b89a6043a4bb56bc7556b9034f4752e80fe99866040518363ffffffff1660e01b8152600401613a989291906144df565b600060405180830381865afa158015613ab5573d6000803e3d6000fd5b505050506040513d6000823e601f3d9081017fffffffffffffffffffffffffffffffffffffffffffffffffffffffffffffffe0168201604052613afb919081019061456c565b9250925092508215613bd8578151600414613b4457816040517fbe2d187d000000000000000000000000000000000000000000000000000000008152600401610663919061429b565b60208201517fffffffff00000000000000000000000000000000000000000000000000000000167bffffffffffffffffffffffffffffffffffffffffffffffffffffffff881617895260005b8151811015613bcd57613bc5828281518110613bae57613bae614684565b60200260200101518c613ec790919063ffffffff16565b600101613b90565b505050505050613be2565b50505050506139ea565b505b5081517fffffffffffffffffffffffffffffffffffffffffffffffffffffffffffffff0160f882901c01613c5f57606061ffff8260e01c16905060006003820152600581019050806040517faedfba2f000000000000000000000000000000000000000000000000000000008152600401610663919061429b565b506004820191506139af565b6101608101516040805161ffff8316808252602080820283019081019093529092909160109190911c90835b80821115613cd75760208301518252915161ffff16917fffffffffffffffffffffffffffffffffffffffffffffffffffffffffffffffe090910190613c97565b50505050919050565b6000670de0b6b3a7640000820615613d27576040517f8484366800000000000000000000000000000000000000000000000000000000815260048101839052602401610663565b50670de0b6b3a7640000900490565b60008082600052836020536021600020905060018160001a1b91509250929050565b60007fffffffffffffffffffffffffffffffffffffffffffffffffffffffffffffffff8203613d8a5750610100919050565b507f0f0f0f0f0f0f0f0f0f0f0f0f0f0f0f0f0f0f0f0f0f0f0f0f0f0f0f0f0f0f0f0f7f5555555555555555555555555555555555555555555555555555555555555555600183901c16909103600281901c7f3333333333333333333333333333333333333333333333333333333333333333908116911601600481901c01167f01010101010101010101010101010101010101010101010101010101010101010260f81c90565b6000806000806000613e44888888610d9a565b9250925092508215612a2e5790935091506112369050565b60008160000151905060208201805160001a6001810182015160001a6131ea57825160a085018051600861ffff9390931692909204602003850160106001601e85901a860301021b909117905250505050565b6000613ebd610100836146b3565b6001901b92915050565b6101608201805160408051808201909152601091821c808252602082018590528351600161ffff909116019282901b92909217909252613f0683613eaf565b6101809094018051909417909352505050565b6000613f258383613fa8565b9250507fffffffffffffffffffffffffffffffffffffffffffffffffffffffffffff00ff821660ff600884811c919091168301901b1792915050565b600060ff831682811015613fa1576040517f23b49a2a00000000000000000000000000000000000000000000000000000000815260040160405180910390fd5b5050900390565b600060ff808416830190600885901c16601085901c80831115613fc85750815b601081901b600883901b841717935050505092915050565b6000613feb83613947565b82106140275781836040517ffcfaeff10000000000000000000000000000000000000000000000000000000081526004016106639291906144df565b50600202016003015161ffff1690565b61403f6146ee565b565b60006020828403121561405357600080fd5b81357fffffffff000000000000000000000000000000000000000000000000000000008116811461056657600080fd5b7f4e487b7100000000000000000000000000000000000000000000000000000000600052604160045260246000fd5b604051601f82017fffffffffffffffffffffffffffffffffffffffffffffffffffffffffffffffe016810167ffffffffffffffff811182821017156140f9576140f9614083565b604052919050565b600067ffffffffffffffff82111561411b5761411b614083565b50601f017fffffffffffffffffffffffffffffffffffffffffffffffffffffffffffffffe01660200190565b60006020828403121561415957600080fd5b813567ffffffffffffffff81111561417057600080fd5b8201601f8101841361418157600080fd5b803561419461418f82614101565b6140b2565b8181528560208385010111156141a957600080fd5b81602084016020830137600091810160200191909152949350505050565b6020808252825182820182905280516040840181905260009291820190839060608601905b8083101561422257835173ffffffffffffffffffffffffffffffffffffffff1682529284019260019290920191908401906141ec565b509695505050505050565b60005b83811015614248578181015183820152602001614230565b50506000910152565b6000815180845261426981602086016020860161422d565b601f017fffffffffffffffffffffffffffffffffffffffffffffffffffffffffffffffe0169290920160200192915050565b6020815260006105666020830184614251565b6040815260006142c16040830185614251565b82810360208481019190915284518083528582019282019060005b818110156142f8578451835293830193918301916001016142dc565b5090979650505050505050565b80516020808301519190811015611aef577fffffffffffffffffffffffffffffffffffffffffffffffffffffffffffffffff60209190910360031b1b16919050565b7f4e487b7100000000000000000000000000000000000000000000000000000000600052601160045260246000fd5b818103818111156101d1576101d1614347565b600181815b808511156143e257817fffffffffffffffffffffffffffffffffffffffffffffffffffffffffffffffff048211156143c8576143c8614347565b808516156143d557918102915b93841c939080029061438e565b509250929050565b6000826143f9575060016101d1565b81614406575060006101d1565b816001811461441c576002811461442657614442565b60019150506101d1565b60ff84111561443757614437614347565b50506001821b6101d1565b5060208310610133831016604e8410600b8410161715614465575081810a6101d1565b61446f8383614389565b807fffffffffffffffffffffffffffffffffffffffffffffffffffffffffffffffff048211156144a1576144a1614347565b029392505050565b600061056683836143ea565b80820281158282048414176101d1576101d1614347565b808201808211156101d1576101d1614347565b828152604060208201526000610bc76040830184614251565b8051801515811461196057600080fd5b6000806040838503121561451b57600080fd5b614524836144f8565b9150602083015190509250929050565b60007fffffffffffffffffffffffffffffffffffffffffffffffffffffffffffffffff820361456557614565614347565b5060010190565b60008060006060848603121561458157600080fd5b61458a846144f8565b925060208085015167ffffffffffffffff808211156145a857600080fd5b818701915087601f8301126145bc57600080fd5b81516145ca61418f82614101565b81815289858386010111156145de57600080fd5b6145ed8286830187870161422d565b60408901519096509250508082111561460557600080fd5b818701915087601f83011261461957600080fd5b81518181111561462b5761462b614083565b8060051b915061463c8483016140b2565b818152918301840191848101908a84111561465657600080fd5b938501935b838510156146745784518252938501939085019061465b565b8096505050505050509250925092565b7f4e487b7100000000000000000000000000000000000000000000000000000000600052603260045260246000fd5b6000826146e9577f4e487b7100000000000000000000000000000000000000000000000000000000600052601260045260246000fd5b500690565b7f4e487b7100000000000000000000000000000000000000000000000000000000600052605160045260246000fdfe190019001900196519de19de19de1965196519001900190019de19de19de19de19de19de19de19de19de19de19de19de19de19de19de19de19de19de19de19de19de19de19de19de19de19de19de19de19de19de19de19de19de19de19de19de19de19de19de19de19de19de19de19de19de19de19de19de19de19de19de1a2319de1af51a2319de1af519de19de19001b5e19de19de027d02482901b41410193e01380a408092011324604390a201223062960051044a890000000080000000080000000800000010000000000000000000000000000000003caf1e5836ee31ff1e4c42622ad999cd17d454a61a378a702687204a1bca041513bfc04d2fac003405382451298fb9fe35e745fd2cdbc3c52d415aff3d530a923b8e9cbd344c3a171096c4d004ea67600a2aa235194d56371c05a76543dd323d0cd5a68e223f22704422370312f1ac932380073415d4a5b3149bd3ec068483ae452e554c3af6dc5d27f0c0a637fef45a32a6feff209677b933db58d441742e374678613501d4fa88030cae020885d59f30766a3e188413022e67b4531d4070aa2440ab0f285a53d84892737c115fb368385bcbd00ff7e328425a200716686f5c3ebd3f5f024641b909f14a300b1ec71b2ba38323399552b921792a60475d96b74a7b8cf22553f8d14933bccc0d403ded0791b7eb002ddffc0e1abd7031e98c713fc04abd1f4507bb407db187","linkReferences":{}}}