{
  "abi": [
    {
      "inputs": [
        {
          "internalType": "uint256",
          "name": "dynamicLength",
          "type": "uint256"
        },
        {
          "internalType": "uint256",
          "name": "standardOpsLength",
          "type": "uint256"
        }
      ],
      "name": "BadDynamicLength",
      "type": "error"
    },
    {
      "inputs": [
        {
          "internalType": "uint256",
          "name": "ensureCode",
          "type": "uint256"
        },
        {
          "internalType": "uint256",
          "name": "errorIndex",
          "type": "uint256"
        }
      ],
      "name": "EnsureFailed",
      "type": "error"
    },
    {
      "inputs": [
        {
          "internalType": "uint256",
          "name": "expected",
          "type": "uint256"
        },
        {
          "internalType": "uint256",
          "name": "actual",
          "type": "uint256"
        }
      ],
      "name": "InputsLengthMismatch",
      "type": "error"
    },
    {
      "inputs": [
        {
          "internalType": "uint256",
          "name": "condCode",
          "type": "uint256"
        }
      ],
      "name": "NoConditionsMet",
      "type": "error"
    },
    {
      "inputs": [
        {
          "internalType": "uint256",
          "name": "x",
          "type": "uint256"
        },
        {
          "internalType": "uint256",
          "name": "y",
          "type": "uint256"
        }
      ],
      "name": "PRBMath_MulDiv18_Overflow",
      "type": "error"
    },
    {
      "inputs": [
        {
          "internalType": "uint256",
          "name": "x",
          "type": "uint256"
        },
        {
          "internalType": "uint256",
          "name": "y",
          "type": "uint256"
        },
        {
          "internalType": "uint256",
          "name": "denominator",
          "type": "uint256"
        }
      ],
      "name": "PRBMath_MulDiv_Overflow",
      "type": "error"
    },
    {
      "inputs": [],
      "name": "ReadError",
      "type": "error"
    },
    {
      "inputs": [
        {
          "internalType": "bytes",
          "name": "bytecode",
          "type": "bytes"
        },
        {
          "internalType": "uint256",
          "name": "sourceIndex",
          "type": "uint256"
        }
      ],
      "name": "SourceIndexOutOfBounds",
      "type": "error"
    },
    {
      "inputs": [],
      "name": "UniswapV2IdenticalAddresses",
      "type": "error"
    },
    {
      "inputs": [],
      "name": "UniswapV2ZeroAddress",
      "type": "error"
    },
    {
      "inputs": [],
      "name": "UniswapV2ZeroAmount",
      "type": "error"
    },
    {
      "inputs": [],
      "name": "UniswapV2ZeroInputAmount",
      "type": "error"
    },
    {
      "inputs": [],
      "name": "UniswapV2ZeroLiquidity",
      "type": "error"
    },
    {
      "inputs": [],
      "name": "UniswapV2ZeroOutputAmount",
      "type": "error"
    },
    {
      "inputs": [
        {
          "internalType": "contract IInterpreterStoreV1",
          "name": "store",
          "type": "address"
        },
        {
          "internalType": "FullyQualifiedNamespace",
          "name": "namespace",
          "type": "uint256"
        },
        {
          "internalType": "EncodedDispatch",
          "name": "dispatch",
          "type": "uint256"
        },
        {
          "internalType": "uint256[][]",
          "name": "context",
          "type": "uint256[][]"
        },
        {
          "internalType": "uint256[]",
          "name": "inputs",
          "type": "uint256[]"
        }
      ],
      "name": "eval2",
      "outputs": [
        {
          "internalType": "uint256[]",
          "name": "",
          "type": "uint256[]"
        },
        {
          "internalType": "uint256[]",
          "name": "",
          "type": "uint256[]"
        }
      ],
      "stateMutability": "view",
      "type": "function"
    },
    {
      "inputs": [],
      "name": "functionPointers",
      "outputs": [
        {
          "internalType": "bytes",
          "name": "",
          "type": "bytes"
        }
      ],
      "stateMutability": "view",
      "type": "function"
    },
    {
      "inputs": [
        {
          "internalType": "bytes4",
          "name": "interfaceId",
          "type": "bytes4"
        }
      ],
      "name": "supportsInterface",
      "outputs": [
        {
          "internalType": "bool",
          "name": "",
          "type": "bool"
        }
      ],
      "stateMutability": "view",
      "type": "function"
    }
  ],
  "bytecode": {
    "object": "0x608060405234801561001057600080fd5b50612d2d806100206000396000f3fe608060405234801561001057600080fd5b50600436106100415760003560e01c806301ffc9a7146100465780636046c5f91461006e578063f933c72f1461008f575b600080fd5b610059610054366004612663565b6100a4565b60405190151581526020015b60405180910390f35b61008161007c3660046127d7565b61013d565b60405161006592919061290e565b6100976101ac565b6040516100659190612997565b60007fffffffff0000000000000000000000000000000000000000000000000000000082167f997502d600000000000000000000000000000000000000000000000000000000148061013757507f01ffc9a7000000000000000000000000000000000000000000000000000000007fffffffff000000000000000000000000000000000000000000000000000000008316145b92915050565b606080602085901c61ffff601087901c8116908716600061015d846101bb565b9050600061018c848c8e8c6040518060a00160405280606a8152602001612cc3606a9139879493929190610262565b90506101998189856103b3565b9650965050505050509550959350505050565b60606101b66104bb565b905090565b6060813b60008190036101fa576040517f26a9f61e00000000000000000000000000000000000000000000000000000000815260040160405180910390fd5b60408051603e83017fffffffffffffffffffffffffffffffffffffffffffffffffffffffffffffffe01681019091527fffffffffffffffffffffffffffffffffffffffffffffffffffffffffffffffff90910180825290915080600160208401853c50919050565b6102c76040518061012001604052806060815260200160608152602001600081526020016000815260200160008152602001600073ffffffffffffffffffffffffffffffffffffffff1681526020016060815260200160608152602001606081525090565b602087810180516040600191820184028b01818101518251600091821a808252948501870281019093526041808301968381019593600285020190910191908401905b8381101561034857875160f01c83015160408051600192831a808252830160209081029091019182905290845260029099019892909201910161030a565b505050506040518061012001604052808281526020018481526020018b8152602001600081526020018a81526020018973ffffffffffffffffffffffffffffffffffffffff168152602001888152602001838152602001878152509450505050509695505050505050565b6060806000806103cb8760e0015188604001516106b9565b91509150600087600001518860400151815181106103eb576103eb6129aa565b6020026020010151905060008751111561042257600060208851028203915060208801905061041c81838a516106de565b50610472565b828751146104725786516040517fd628439f000000000000000000000000000000000000000000000000000000008152610469918591600401918252602082015260400190565b60405180910390fd5b61047c8882610706565b9050600082871061048d578261048f565b865b90506060602083039050818152806104aa8b6060015161098f565b965096505050505050935093915050565b604080516106c0810182526035808252610c036020830152610c4f92820192909252610c8a606082810191909152610c9c6080830152610cae60a0830152610cc760c0830152610d0960e0830152610d5b610100830152610d6c610120830152610d7d610140830152610e1b610160830152610eff610180830152610f396101a0830152610fe96101c083015261108b6101e083015261110f61020083015261113e61022083015261116d61024083018190526102608301526111bc6102808301526111eb6102a083015261124d6102c08301526112d56102e083015261137c6103008301526113906103208301526113e66103408301526113fa61036083015261140f6103808301526114296103a08301526114346103c08301526114486103e083015261145d6104008301526114da61042083015261152561044083015261153f61046083015261155661048083015261156d6104a083018190526104c08301526115b86104e083015261160361050083015261164e610520830181905261054083015261169961056083018190526105808301526116e46105a083015261172f6105c083015261177a6105e083018190526106008301526117c56106208301526118ac6106408301526118df61066083015261193761068083015261196c6106a083015291908190806106b0816119a1565b94505050505090565b60008060006106c88585611a32565b51600281901a9660039190911a95509350505050565b8060200283015b808410156107005783518352602093840193909201916106e5565b50505050565b60008083604001519050600080600080600060028961010001515161072b9190612a37565b60e08a01516101008b0151602080830151600261ffff9b909b168b8102850160219081015160f01c600093841a9d909d029095019b909b019384015160258086019b50600791831a91821691829003600402909501909401985092965001935090915061265990805b8688101561091757875190506002848260001a060285015160f01c925062ffffff8160e01c1691506107cb8c838d8663ffffffff16565b9a506002848260041a060285015160f01c925062ffffff8160c01c1691506107f88c838d8663ffffffff16565b9a506002848260081a060285015160f01c925062ffffff8160a01c1691506108258c838d8663ffffffff16565b9a5060028482600c1a060285015160f01c925062ffffff8160801c1691506108528c838d8663ffffffff16565b9a506002848260101a060285015160f01c925062ffffff8160601c16915061087f8c838d8663ffffffff16565b9a506002848260141a060285015160f01c925062ffffff8160401c1691506108ac8c838d8663ffffffff16565b9a506002848260181a060285015160f01c925062ffffff8160201c1691506108d98c838d8663ffffffff16565b9a5060028482601c1a060285015160f01c925062ffffff811691506109038c838d8663ffffffff16565b9a50610910602089612a4b565b9750610794565b610922601c89612a5e565b975061092f866004612a71565b6109399089612a4b565b96505b8688101561097f5750508551601c81901a83900660020284015160f01c915062ffffff81169061096b8c838d86565b9a50610978600489612a4b565b975061093c565b50989a9950505050505050505050565b6040805160f083901c602081810283010190925290815261ffff63ffffffff67ffffffffffffffff6fffffffffffffffffffffffffffffffff6109fc565b60005b82156109f6578251825260208301516020830152604083015192506040820191506109d0565b50919050565b602085018660101b60901c8015610aec578060401c8015610a6a578060201c8015610a2e57610a2b81856109cd565b93505b508086168015610a68578060101c8015610a4f57610a4c81866109cd565b94505b508088168015610a6657610a6381866109cd565b94505b505b505b508084168015610aea578060201c8015610aae578060101c8015610a9557610a9281866109cd565b94505b508088168015610aac57610aa981866109cd565b94505b505b508086168015610ae8578060101c8015610acf57610acc81866109cd565b94505b508088168015610ae657610ae381866109cd565b94505b505b505b505b508682168015610bf8578060401c8015610b76578060201c8015610b3a578060101c8015610b2157610b1e81866109cd565b94505b508088168015610b3857610b3581866109cd565b94505b505b508086168015610b74578060101c8015610b5b57610b5881866109cd565b94505b508088168015610b7257610b6f81866109cd565b94505b505b505b508084168015610bf6578060201c8015610bba578060101c8015610ba157610b9e81866109cd565b94505b508088168015610bb857610bb581866109cd565b94505b505b508086168015610bf4578060101c8015610bdb57610bd881866109cd565b94505b508088168015610bf257610bef81866109cd565b94505b505b505b505b505050505050919050565b604083015183516020600192830181029190910151918401029003517fffffffffffffffffffffffffffffffffffffffffffffffffffffffffffffffe0909101908152805b9392505050565b60209283015160019290920190920201517fffffffffffffffffffffffffffffffffffffffffffffffffffffffffffffffe090910190815290565b60208101805182511681529392505050565b60208101805182511781529392505050565b8051600090610cbc81611a63565b835250909392505050565b80516001600884901c60ff9081169190911b7fffffffffffffffffffffffffffffffffffffffffffffffffffffffffffffffff0193161c919091168152919050565b80516020909101805160ff600885901c811660020a7fffffffffffffffffffffffffffffffffffffffffffffffffffffffffffffffff01941684811b199091169390921690911b919091178152919050565b805160ff83161b8152809392505050565b805160ff83161c8152809392505050565b8251602060ff8481166001810183028401516000949193600888901c841693601089901c16929190830287015b80881015610dc75760208203915087518252602088019750610daa565b5060408901805190869052610ddc8a83610706565b60408b018290526020860298899003989092508201885b81841015610e0b578351815260209384019301610df3565b50979a9950505050505050505050565b600060ff8316600884901c6020841015610e91576040517f08c379a000000000000000000000000000000000000000000000000000000000815260206004820152600f60248201527f737461636b20756e646572666c6f7700000000000000000000000000000000006044820152606401610469565b60008660c001518381518110610ea957610ea96129aa565b60200260200101518281518110610ec257610ec26129aa565b60209081029190910101517fffffffffffffffffffffffffffffffffffffffffffffffffffffffffffffffe0909501948552509295945050505050565b60109190911c6020028082207fffffffffffffffffffffffffffffffffffffffffffffffffffffffffffffffe09190920101908152919050565b8051602090910180516040517f70a0823100000000000000000000000000000000000000000000000000000000815273ffffffffffffffffffffffffffffffffffffffff8083166004830152929360009390929184918416906370a0823190602401602060405180830381865afa158015610fb8573d6000803e3d6000fd5b505050506040513d601f19601f82011682018060405250810190610fdc9190612a88565b8552509295945050505050565b8051602090910180516040517f6352211e000000000000000000000000000000000000000000000000000000008152600481018290529192600092909190839073ffffffffffffffffffffffffffffffffffffffff841690636352211e90602401602060405180830381865afa158015611067573d6000803e3d6000fd5b505050506040513d601f19601f82011682018060405250810190610fdc9190612aa1565b6000808251905060008173ffffffffffffffffffffffffffffffffffffffff16638da5cb5b6040518163ffffffff1660e01b8152600401602060405180830381865afa1580156110df573d6000803e3d6000fd5b505050506040513d601f19601f820116820180604052508101906111039190612aa1565b84525091949350505050565b437fffffffffffffffffffffffffffffffffffffffffffffffffffffffffffffffe09190910190815292915050565b467fffffffffffffffffffffffffffffffffffffffffffffffffffffffffffffffe09190910190815292915050565b7fffffffffffffffffffffffffffffffffffffffffffffffffffffffffffffffff7fffffffffffffffffffffffffffffffffffffffffffffffffffffffffffffffe09190910190815292915050565b427fffffffffffffffffffffffffffffffffffffffffffffffffffffffffffffffe09190910190815292915050565b7fffffffffffffffffffffffffffffffffffffffffffffffffffffffffffffffe0601083901c602002828101918201926000925b808210156112425781518015611236578552611242565b5060208201915061121f565b509295945050505050565b6000808260208560101c0281016020810394505b8082101561128a5781519250821561127f576020820151855261128a565b604082019150611261565b5050806000036112cc576040517fff86627a00000000000000000000000000000000000000000000000000000000815261ffff85166004820152602401610469565b50909392505050565b8051600090602080840190601086901c0284015b60008311818310161561130557815192506020820191506112e9565b5081600003611373576040517f40dccdf600000000000000000000000000000000000000000000000000000000815261ffff8616600482015260208583037fffffffffffffffffffffffffffffffffffffffffffffffffffffffffffffffe001046024820152604401610469565b95945050505050565b805160209091018051909114815292915050565b7fffffffffffffffffffffffffffffffffffffffffffffffffffffffffffffffe0601083901c602002828101918201926000925b80821015611242578151806113da578552611242565b506020820191506113c4565b805160209091018051909111815292915050565b80516020909101805190911015815292915050565b805160409015156020028203810151910190815292915050565b805115815292915050565b805160209091018051909110815292915050565b80516020909101805190911115815292915050565b80516020820151604090920191600091906114788282611b3c565b9150601085901c60025b818110156114a8578551925060208601955061149e8484611b3c565b9350600101611482565b5050507fffffffffffffffffffffffffffffffffffffffffffffffffffffffffffffffe0929092019182525092915050565b80516020820151604090920191600091906114f58282611b57565b9150601085901c60025b818110156114a8578551925060208601955061151b8484611b57565b93506001016114ff565b805160209091018051909160009190611103828287611b66565b8051600090610cbc8160ff8616600887901c611b66565b8051600090610cbc8160ff8616600887901c611beb565b80516020820151604090920191600091906115888183612a4b565b9150601085901c60025b818110156114a857855160209096019592506115ae8385612a4b565b9350600101611592565b80516020820151604090920191600091906115d38183612a37565b9150601085901c60025b818110156114a857855160209096019592506115f98385612a37565b93506001016115dd565b805160208201516040909201916000919061161e8183612bde565b9150601085901c60025b818110156114a857855160209096019592506116448385612bde565b9350600101611628565b80516020820151604090920191600091908082101561166b578091505b601085901c60025b818110156114a8578551925060208601955082841015611691578293505b600101611673565b8051602082015160409092019160009190808211156116b6578091505b601085901c60025b818110156114a85785519250602086019550828411156116dc578293505b6001016116be565b80516020820151604090920191600091906116ff8183612bea565b9150601085901c60025b818110156114a857855160209096019592506117258385612bea565b9350600101611709565b805160208201516040909201916000919061174a8183612a71565b9150601085901c60025b818110156114a857855160209096019592506117708385612a71565b9350600101611754565b80516020820151604090920191600091906117958183612a5e565b9150601085901c60025b818110156114a857855160209096019592506117bb8385612a5e565b935060010161179f565b8051606084015160009190829081906117de9084611c4d565b91509150816000036111035760a087015160808801516040517f669e48aa00000000000000000000000000000000000000000000000000000000815260048101919091526024810185905260009173ffffffffffffffffffffffffffffffffffffffff169063669e48aa90604401602060405180830381865afa158015611869573d6000803e3d6000fd5b505050506040513d601f19601f8201168201806040525081019061188d9190612a88565b60608901519091506118a0908583611c97565b60608901528552611242565b80516020820151606085015160409093019260009291906118ce908383611c97565b606087015250829150509392505050565b805160208083015160408085015160608601516001881680159095029096019091019460009493858061191487868689611d29565b915091508189528215611928578060208a01525b50969998505050505050505050565b805160208083015160408085015160608601516001881680159095029096019091019460009493858061191487868689611d6b565b805160208083015160408085015160608601516001881680159095029096019091019460009493858061191487868689611d97565b60606000825160020267ffffffffffffffff8111156119c2576119c26126ca565b6040519080825280601f01601f1916602001820160405280156119ec576020820181803683370190505b50905061ffff80196020850160208651028101600285015b81831015611a2657805183518616908516178152602090920191600201611a04565b50939695505050505050565b600080611a3e84611dc3565b60020260010190506000611a528585611de1565b949091019093016020019392505050565b60007fffffffffffffffffffffffffffffffffffffffffffffffffffffffffffffffff8203611a955750610100919050565b507f0f0f0f0f0f0f0f0f0f0f0f0f0f0f0f0f0f0f0f0f0f0f0f0f0f0f0f0f0f0f0f0f7f5555555555555555555555555555555555555555555555555555555555555555600183901c16909103600281901c7f3333333333333333333333333333333333333333333333333333333333333333908116911601600481901c01167f01010101010101010101010101010101010101010101010101010101010101010260f81c90565b6000610c48611b5484670de0b6b3a764000085611e38565b90565b6000610c48611b548484611f43565b60008260121115611b9b5760128390036002831615611b9157611b89858261204a565b915050610c48565b611b8985826120da565b6012831115611be4577fffffffffffffffffffffffffffffffffffffffffffffffffffffffffffffffee83016001831615611bda57611b898582612112565b611b898582612164565b5082610c48565b60008260121115611c0e5760128390036001831615611bda57611b898582612112565b6012831115611be4577fffffffffffffffffffffffffffffffffffffffffffffffffffffffffffffffee83016002831615611b9157611b89858261204a565b600080826000526010600f6020600020060261ffff85821c165b8015611c8e5780518503611c85576001935060208101519250611c8e565b60400151611c67565b50509250929050565b6000826000526010600f6020600020060261ffff85821c16805b8015611cc85780518614611cc85760400151611cb1565b80158015611d165760405191506060820160405286825285602083015282604083015260028860f01c0161ffff60f01b1989168160f01b1798505061ffff841b19881682851b179750611d1d565b8560208301525b50959695505050505050565b6000806000806000611d3c898989612187565b92509250925085600014611d5a57611d5586848461232b565b611d5d565b60005b999098509650505050505050565b6000806000806000611d7e898989612187565b92509250925085600014611d5a57611d558684846123fc565b6000806000806000611daa898989612187565b92509250925085600014611d5a57611d558684846124c8565b60008151600003611dd657506000919050565b506020015160001a90565b6000611dec83611dc3565b8210611e285782826040517f30489add000000000000000000000000000000000000000000000000000000008152600401610469929190612bfe565b50600202016003015161ffff1690565b600080807fffffffffffffffffffffffffffffffffffffffffffffffffffffffffffffffff85870985870292508281108382030391505080600003611e9057838281611e8657611e866129d9565b0492505050610c48565b838110611eda576040517f63a05778000000000000000000000000000000000000000000000000000000008152600481018790526024810186905260448101859052606401610469565b60008486880960026001871981018816978890046003810283188082028403028082028403028082028403028082028403028082028403029081029092039091026000889003889004909101858311909403939093029303949094049190911702949350505050565b600080807fffffffffffffffffffffffffffffffffffffffffffffffffffffffffffffffff84860984860292508281108382030391505080600003611f955750670de0b6b3a764000090049050610137565b670de0b6b3a76400008110611fe0576040517f5173648d0000000000000000000000000000000000000000000000000000000081526004810186905260248101859052604401610469565b6000670de0b6b3a7640000858709620400008185030493109091037d40000000000000000000000000000000000000000000000000000000000002919091177faccb18165bd6fe31ae1cf318dc5b51eee0e1ba569b88cd74c1773b91fac106690291505092915050565b6000604e821061208a578215612080577fffffffffffffffffffffffffffffffffffffffffffffffffffffffffffffffff612083565b60005b9050610137565b50600a81900a82810290838183816120a4576120a46129d9565b04146120d0577fffffffffffffffffffffffffffffffffffffffffffffffffffffffffffffffff6120d2565b815b949350505050565b600a81900a6120e98184612a71565b9050604e82106101375782156121095761210482600a612bde565b610c48565b50600092915050565b6000604e821061213657821561212957600161212c565b60005b60ff169050610137565b600a82900a80848161214a5761214a6129d9565b049150808202841461215d576001820191505b5092915050565b6000604e8210156121095781600a0a8381612181576121816129d9565b04610c48565b600080600080612197868661255b565b506040517fe6a4390500000000000000000000000000000000000000000000000000000000815273ffffffffffffffffffffffffffffffffffffffff8881166004830152878116602483015291925060009189169063e6a4390590604401602060405180830381865afa158015612212573d6000803e3d6000fd5b505050506040513d601f19601f820116820180604052508101906122369190612aa1565b905060008060008373ffffffffffffffffffffffffffffffffffffffff16630902f1ac6040518163ffffffff1660e01b8152600401606060405180830381865afa158015612288573d6000803e3d6000fd5b505050506040513d601f19601f820116820180604052508101906122ac9190612c43565b63ffffffff1692506dffffffffffffffffffffffffffff1692506dffffffffffffffffffffffffffff1692508473ffffffffffffffffffffffffffffffffffffffff168a73ffffffffffffffffffffffffffffffffffffffff161461231357818382612317565b8282825b919d909c50909a5098505050505050505050565b600083600003612367576040517fdfcb8f5a00000000000000000000000000000000000000000000000000000000815260040160405180910390fd5b821580612372575081155b156123a9576040517f012330da00000000000000000000000000000000000000000000000000000000815260040160405180910390fd5b60006123b58585612a71565b6123c1906103e8612a71565b905060006123cf8685612a5e565b6123db906103e5612a71565b90506123e78183612a37565b6123f2906001612a4b565b9695505050505050565b600083600003612438576040517fc5c1919700000000000000000000000000000000000000000000000000000000815260040160405180910390fd5b821580612443575081155b1561247a576040517f012330da00000000000000000000000000000000000000000000000000000000815260040160405180910390fd5b6000612488856103e5612a71565b905060006124968483612a71565b90506000826124a7876103e8612a71565b6124b19190612a4b565b90506124bd8183612a37565b979650505050505050565b600083600003612504576040517f3461a2e300000000000000000000000000000000000000000000000000000000815260040160405180910390fd5b82158061250f575081155b15612546576040517f012330da00000000000000000000000000000000000000000000000000000000815260040160405180910390fd5b826125518386612a71565b6120d29190612a37565b6000808273ffffffffffffffffffffffffffffffffffffffff168473ffffffffffffffffffffffffffffffffffffffff16036125c3576040517f51efaeea00000000000000000000000000000000000000000000000000000000815260040160405180910390fd5b8273ffffffffffffffffffffffffffffffffffffffff168473ffffffffffffffffffffffffffffffffffffffff16106125fd578284612600565b83835b909250905073ffffffffffffffffffffffffffffffffffffffff8216612652576040517f2102789300000000000000000000000000000000000000000000000000000000815260040160405180910390fd5b9250929050565b612661612c93565b565b60006020828403121561267557600080fd5b81357fffffffff0000000000000000000000000000000000000000000000000000000081168114610c4857600080fd5b73ffffffffffffffffffffffffffffffffffffffff811681146126c757600080fd5b50565b7f4e487b7100000000000000000000000000000000000000000000000000000000600052604160045260246000fd5b604051601f82017fffffffffffffffffffffffffffffffffffffffffffffffffffffffffffffffe016810167ffffffffffffffff81118282101715612740576127406126ca565b604052919050565b600067ffffffffffffffff821115612762576127626126ca565b5060051b60200190565b600082601f83011261277d57600080fd5b8135602061279261278d83612748565b6126f9565b82815260059290921b840181019181810190868411156127b157600080fd5b8286015b848110156127cc57803583529183019183016127b5565b509695505050505050565b600080600080600060a086880312156127ef57600080fd5b85356127fa816126a5565b9450602086810135945060408701359350606087013567ffffffffffffffff8082111561282657600080fd5b818901915089601f83011261283a57600080fd5b813561284861278d82612748565b81815260059190911b8301840190848101908c83111561286757600080fd5b8585015b8381101561289f578035858111156128835760008081fd5b6128918f89838a010161276c565b84525091860191860161286b565b509650505060808901359250808311156128b857600080fd5b50506128c68882890161276c565b9150509295509295909350565b600081518084526020808501945080840160005b83811015612903578151875295820195908201906001016128e7565b509495945050505050565b60408152600061292160408301856128d3565b828103602084015261137381856128d3565b6000815180845260005b818110156129595760208185018101518683018201520161293d565b5060006020828601015260207fffffffffffffffffffffffffffffffffffffffffffffffffffffffffffffffe0601f83011685010191505092915050565b602081526000610c486020830184612933565b7f4e487b7100000000000000000000000000000000000000000000000000000000600052603260045260246000fd5b7f4e487b7100000000000000000000000000000000000000000000000000000000600052601260045260246000fd5b7f4e487b7100000000000000000000000000000000000000000000000000000000600052601160045260246000fd5b600082612a4657612a466129d9565b500490565b8082018082111561013757610137612a08565b8181038181111561013757610137612a08565b808202811582820484141761013757610137612a08565b600060208284031215612a9a57600080fd5b5051919050565b600060208284031215612ab357600080fd5b8151610c48816126a5565b600181815b80851115612b1757817fffffffffffffffffffffffffffffffffffffffffffffffffffffffffffffffff04821115612afd57612afd612a08565b80851615612b0a57918102915b93841c9390800290612ac3565b509250929050565b600082612b2e57506001610137565b81612b3b57506000610137565b8160018114612b515760028114612b5b57612b77565b6001915050610137565b60ff841115612b6c57612b6c612a08565b50506001821b610137565b5060208310610133831016604e8410600b8410161715612b9a575081810a610137565b612ba48383612abe565b807fffffffffffffffffffffffffffffffffffffffffffffffffffffffffffffffff04821115612bd657612bd6612a08565b029392505050565b6000610c488383612b1f565b600082612bf957612bf96129d9565b500690565b604081526000612c116040830185612933565b90508260208301529392505050565b80516dffffffffffffffffffffffffffff81168114612c3e57600080fd5b919050565b600080600060608486031215612c5857600080fd5b612c6184612c20565b9250612c6f60208501612c20565b9150604084015163ffffffff81168114612c8857600080fd5b809150509250925092565b7f4e487b7100000000000000000000000000000000000000000000000000000000600052605160045260246000fdfe0c030c4f0c8a0c9c0cae0cc70d090d5b0d6c0d7d0e1b0eff0f390fe9108b110f113e116d116d11bc11eb124d12d5137c139013e613fa140f142914341448145d14da1525153f1556156d156d15b81603164e164e1699169916e4172f177a177a17c518ac18df1937196c",
    "linkReferences": {}
  },
  "methodIdentifiers": {
    "eval2(address,uint256,uint256,uint256[][],uint256[])": "6046c5f9",
    "functionPointers()": "f933c72f",
    "supportsInterface(bytes4)": "01ffc9a7"
  },
  "id": 82
}