{
  "abi": [
    {
      "inputs": [
        {
          "internalType": "ExternDispatch",
          "name": "dispatch",
          "type": "uint256"
        },
        {
          "internalType": "uint256[]",
          "name": "inputs",
          "type": "uint256[]"
        }
      ],
      "name": "extern",
      "outputs": [
        {
          "internalType": "uint256[]",
          "name": "outputs",
          "type": "uint256[]"
        }
      ],
      "stateMutability": "view",
      "type": "function"
    },
    {
      "inputs": [
        {
          "internalType": "bytes4",
          "name": "interfaceId",
          "type": "bytes4"
        }
      ],
      "name": "supportsInterface",
      "outputs": [
        {
          "internalType": "bool",
          "name": "",
          "type": "bool"
        }
      ],
      "stateMutability": "view",
      "type": "function"
    }
  ],
  "bytecode": {
    "object": "0x608060405234801561001057600080fd5b506102fe806100206000396000f3fe608060405234801561001057600080fd5b50600436106100365760003560e01c806301ffc9a71461003b578063b65ad68314610063575b600080fd5b61004e61004936600461015a565b610083565b60405190151581526020015b60405180910390f35b6100766100713660046101d2565b61011c565b60405161005a91906102ba565b60007fffffffff0000000000000000000000000000000000000000000000000000000082167fb65ad68300000000000000000000000000000000000000000000000000000000148061011657507f01ffc9a7000000000000000000000000000000000000000000000000000000007fffffffff000000000000000000000000000000000000000000000000000000008316145b92915050565b604080516020810191829052600080825282516060939061ffff601088901c8116919088169060f01c61014d828983565b9998505050505050505050565b60006020828403121561016c57600080fd5b81357fffffffff000000000000000000000000000000000000000000000000000000008116811461019c57600080fd5b9392505050565b7f4e487b7100000000000000000000000000000000000000000000000000000000600052604160045260246000fd5b600080604083850312156101e557600080fd5b8235915060208084013567ffffffffffffffff8082111561020557600080fd5b818601915086601f83011261021957600080fd5b81358181111561022b5761022b6101a3565b8060051b6040517fffffffffffffffffffffffffffffffffffffffffffffffffffffffffffffffe0603f8301168101818110858211171561026e5761026e6101a3565b60405291825284820192508381018501918983111561028c57600080fd5b938501935b828510156102aa57843584529385019392850192610291565b8096505050505050509250929050565b6020808252825182820181905260009190848201906040850190845b818110156102f2578351835292840192918401916001016102d6565b5090969550505050505056",
    "linkReferences": {}
  },
  "methodIdentifiers": {
    "extern(uint256,uint256[])": "b65ad683",
    "supportsInterface(bytes4)": "01ffc9a7"
  },
  "id": 81
}