{"abi":[{"type":"function","name":"buildOpcodeFunctionPointers","inputs":[],"outputs":[{"name":"","type":"bytes","internalType":"bytes"}],"stateMutability":"view"},{"type":"function","name":"eval3","inputs":[{"name":"store","type":"address","internalType":"contract IInterpreterStoreV2"},{"name":"namespace","type":"uint256","internalType":"FullyQualifiedNamespace"},{"name":"bytecode","type":"bytes","internalType":"bytes"},{"name":"sourceIndex","type":"uint256","internalType":"SourceIndexV2"},{"name":"context","type":"uint256[][]","internalType":"uint256[][]"},{"name":"inputs","type":"uint256[]","internalType":"uint256[]"}],"outputs":[{"name":"","type":"uint256[]","internalType":"uint256[]"},{"name":"","type":"uint256[]","internalType":"uint256[]"}],"stateMutability":"view"},{"type":"function","name":"functionPointers","inputs":[],"outputs":[{"name":"","type":"bytes","internalType":"bytes"}],"stateMutability":"view"},{"type":"function","name":"supportsInterface","inputs":[{"name":"interfaceId","type":"bytes4","internalType":"bytes4"}],"outputs":[{"name":"","type":"bool","internalType":"bool"}],"stateMutability":"view"},{"type":"error","name":"BadDynamicLength","inputs":[{"name":"dynamicLength","type":"uint256","internalType":"uint256"},{"name":"standardOpsLength","type":"uint256","internalType":"uint256"}]},{"type":"error","name":"BadOutputsLength","inputs":[{"name":"expectedLength","type":"uint256","internalType":"uint256"},{"name":"actualLength","type":"uint256","internalType":"uint256"}]},{"type":"error","name":"ErrScaleDownPrecisionLoss","inputs":[{"name":"a","type":"uint256","internalType":"uint256"}]},{"type":"error","name":"InputsLengthMismatch","inputs":[{"name":"expected","type":"uint256","internalType":"uint256"},{"name":"actual","type":"uint256","internalType":"uint256"}]},{"type":"error","name":"IntegerOverflow","inputs":[{"name":"integer","type":"uint256","internalType":"uint256"},{"name":"max","type":"uint256","internalType":"uint256"}]},{"type":"error","name":"PRBMath_MulDiv18_Overflow","inputs":[{"name":"x","type":"uint256","internalType":"uint256"},{"name":"y","type":"uint256","internalType":"uint256"}]},{"type":"error","name":"PRBMath_MulDiv_Overflow","inputs":[{"name":"x","type":"uint256","internalType":"uint256"},{"name":"y","type":"uint256","internalType":"uint256"},{"name":"denominator","type":"uint256","internalType":"uint256"}]},{"type":"error","name":"PRBMath_UD60x18_Ceil_Overflow","inputs":[{"name":"x","type":"uint256","internalType":"UD60x18"}]},{"type":"error","name":"PRBMath_UD60x18_Exp2_InputTooBig","inputs":[{"name":"x","type":"uint256","internalType":"UD60x18"}]},{"type":"error","name":"PRBMath_UD60x18_Exp_InputTooBig","inputs":[{"name":"x","type":"uint256","internalType":"UD60x18"}]},{"type":"error","name":"PRBMath_UD60x18_Gm_Overflow","inputs":[{"name":"x","type":"uint256","internalType":"UD60x18"},{"name":"y","type":"uint256","internalType":"UD60x18"}]},{"type":"error","name":"PRBMath_UD60x18_Log_InputTooSmall","inputs":[{"name":"x","type":"uint256","internalType":"UD60x18"}]},{"type":"error","name":"PRBMath_UD60x18_Sqrt_Overflow","inputs":[{"name":"x","type":"uint256","internalType":"UD60x18"}]},{"type":"error","name":"SourceIndexOutOfBounds","inputs":[{"name":"sourceIndex","type":"uint256","internalType":"uint256"},{"name":"bytecode","type":"bytes","internalType":"bytes"}]}],"bytecode":{"object":"0x6080604052348015600f57600080fd5b506150648061001f6000396000f3fe608060405234801561001057600080fd5b506004361061004c5760003560e01c806301ffc9a714610051578063514b5d4f14610079578063d6e3357a1461008e578063f933c72f146100af575b600080fd5b61006461005f366004614887565b6100b7565b60405190151581526020015b60405180910390f35b610081610150565b604051610070919061492d565b6100a161009c3660046149b1565b61015f565b604051610070929190614add565b610081610245565b60007fffffffff0000000000000000000000000000000000000000000000000000000082167f2fd0f25500000000000000000000000000000000000000000000000000000000148061014a57507f01ffc9a7000000000000000000000000000000000000000000000000000000007fffffffff000000000000000000000000000000000000000000000000000000008316145b92915050565b606061015a61024f565b905090565b60608060006101d0888c8e6101748a8c614ba4565b6040518060c0016040528060968152602001614fce609691398f8f8080601f0160208091040260200160405190810160405280939291908181526020018383808284376000920191909152509297969594939250506105219050565b9050610232858580806020026020016040519081016040528093929190818152602001838360200280828437600092019190915250859392507fffffffffffffffffffffffffffffffffffffffffffffffffffffffffffffffff915050610672565b9250925050995099975050505050505050565b606061015a610150565b6040805161098081018252604b80825261077c60208301526107cd9282019290925261080f6060828101919091526109db6080830152610ac260a0830152610ad460c0830152610ae660e0830152610b09610100830152610b4b610120830152610b9d610140830152610bae610160830152610bbf610180830152610c616101a0830152610c9e6101c0830152610d5c6101e08301819052610e0c610200840152610e90610220840152610fd36102408401526110fa6102608401526102808301526111f66102a08301526112986102c08301526113106102e08301526113496103008301526113826103208301526113d1610340830181905261036083015261140a61038083015261146f6103a08301526115436103c08301526115966103e08301526115aa61040083015261160361042083015261161761044083015261162c6104608301526116466104808301526116516104a08301526116656104c083015261167a6104e08301526116b26105008301526116d96105208301526117596105408301526117a76105608301526117f56105808301526118436105a083015261185b6105c08301526118746105e08301526118c26106008301526118f96106208301526119076106408301526119156106608301526119306106808301526119456106a083015261195d6106c08301526119766106e08301526119846107008301526119926107208301526119a06107408301526119ae6107608301526119fc610780830152611a4a6107a0830152611a986107c0830152611ae66107e0830152611afe6108008301819052610820830152611b15610840830152611b436108608301819052610880830152611b5a6108a0830152611b896108c0830152611bde6108e0830152611bec6109008301819052610920830152611c90610940830152611d77610960830152919081908061050f565b60405180910390fd5b61051881611daa565b94505050505090565b6105866040518061012001604052806060815260200160608152602001600081526020016000815260200160008152602001600073ffffffffffffffffffffffffffffffffffffffff1681526020016060815260200160608152602001606081525090565b602087810180516040600191820184028b01818101518251600091821a808252948501870281019093526041808301968381019593600285020190910191908401905b8381101561060757875160f01c83015160408051600192831a80825283016020908102909101918290529084526002909901989290920191016105c9565b505050506040518061012001604052808281526020018481526020018b8152602001600081526020018a81526020018973ffffffffffffffffffffffffffffffffffffffff168152602001888152602001838152602001878152509450505050509695505050505050565b60608060008061068a8760e001518860400151611e3b565b9150915060008088600001518960400151815181106106ab576106ab614c6f565b602002602001015191508190506000885111156106e55760006020895102820391506020890190506106df81838b51611e60565b5061072c565b8388511461072c5787516040517fd628439f000000000000000000000000000000000000000000000000000000008152610506918691600401918252602082015260400190565b61073c898a604001518385611e88565b9050600083881061074d578361074f565b875b905060606020830390508181528061076a8c6060015161211f565b97509750505050505050935093915050565b60408301518351602060019283018102919091015161ffff8516909201029003517fffffffffffffffffffffffffffffffffffffffffffffffffffffffffffffffe0909101908152805b9392505050565b60208084015161ffff841660010190910201517fffffffffffffffffffffffffffffffffffffffffffffffffffffffffffffffe0909101908152809392505050565b6000808361ffff1690506000601085901c600f1690506000601486901c600f16905060008760200151848151811061084957610849614c6f565b60200260200101519050600080610863839060a082901c90565b7fffffffffffffffffffffffffffffffffffffffffffffffffffffffffffffffe08a0180518882526040517fb65ad6830000000000000000000000000000000000000000000000000000000081529395509193509160009073ffffffffffffffffffffffffffffffffffffffff86169063b65ad683906108e99087908790600401614c9e565b600060405180830381865afa158015610906573d6000803e3d6000fd5b505050506040513d6000823e601f3d9081017fffffffffffffffffffffffffffffffffffffffffffffffffffffffffffffffe016820160405261094c9190810190614cb7565b9050805187146109955780516040517fc3385cb0000000000000000000000000000000000000000000000000000000008152610506918991600401918252602082015260400190565b818352602088028b019a50602081016020880281015b808210156109c85760208d039c5081518d526020820191506109ab565b509a9d9c50505050505050505050505050565b600060ff80841690600885901c166020841015610a54576040517f08c379a000000000000000000000000000000000000000000000000000000000815260206004820152600f60248201527f737461636b20756e646572666c6f7700000000000000000000000000000000006044820152606401610506565b60008660c001518381518110610a6c57610a6c614c6f565b60200260200101518281518110610a8557610a85614c6f565b60209081029190910101517fffffffffffffffffffffffffffffffffffffffffffffffffffffffffffffffe0909501948552509295945050505050565b60208101805182511681529392505050565b60208101805182511781529392505050565b8051600090670de0b6b3a7640000610afd82612393565b02835250909392505050565b80516001600884901c60ff9081169190911b7fffffffffffffffffffffffffffffffffffffffffffffffffffffffffffffffff0193161c919091168152919050565b80516020909101805160ff600885901c811660020a7fffffffffffffffffffffffffffffffffffffffffffffffffffffffffffffffff01941684811b199091169390921690911b919091178152919050565b805160ff83161b8152809392505050565b805160ff83161c8152809392505050565b8251600161ffff84169081016020908102830151600093600f601088901c1692601488901c92908190850288015b80891015610c0a5760208203915088518252602089019850610bed565b5060408a01805190879052610c218b828486611e88565b60408c0182905260208602998a9003999092508201895b81841015610c50578351815260209384019301610c38565b50989b9a5050505050505050505050565b60109190911c600f166020028082207fffffffffffffffffffffffffffffffffffffffffffffffffffffffffffffffe09190920101908152919050565b805160208201516040928301805193517fdd62ed3e00000000000000000000000000000000000000000000000000000000815273ffffffffffffffffffffffffffffffffffffffff80841660048301528086166024830152919460009493929091859185169063dd62ed3e90604401602060405180830381865afa158015610d2a573d6000803e3d6000fd5b505050506040513d601f19601f82011682018060405250810190610d4e9190614d3d565b865250939695505050505050565b8051602090910180516040517f70a0823100000000000000000000000000000000000000000000000000000000815273ffffffffffffffffffffffffffffffffffffffff8083166004830152929360009390929184918416906370a0823190602401602060405180830381865afa158015610ddb573d6000803e3d6000fd5b505050506040513d601f19601f82011682018060405250810190610dff9190614d3d565b8552509295945050505050565b6000808251905060008173ffffffffffffffffffffffffffffffffffffffff166318160ddd6040518163ffffffff1660e01b8152600401602060405180830381865afa158015610e60573d6000803e3d6000fd5b505050506040513d601f19601f82011682018060405250810190610e849190614d3d565b84525091949350505050565b805160208201516040928301805193517fdd62ed3e00000000000000000000000000000000000000000000000000000000815273ffffffffffffffffffffffffffffffffffffffff80841660048301528086166024830152919460009493929091859185169063dd62ed3e90604401602060405180830381865afa158015610f1c573d6000803e3d6000fd5b505050506040513d601f19601f82011682018060405250810190610f409190614d3d565b905060008473ffffffffffffffffffffffffffffffffffffffff1663313ce5676040518163ffffffff1660e01b8152600401602060405180830381865afa158015610f8f573d6000803e3d6000fd5b505050506040513d601f19601f82011682018060405250810190610fb39190614d56565b60ff169050610fc48282600261246c565b87525094979650505050505050565b8051602090910180516040517f70a0823100000000000000000000000000000000000000000000000000000000815273ffffffffffffffffffffffffffffffffffffffff8083166004830152929360009390929184918416906370a0823190602401602060405180830381865afa158015611052573d6000803e3d6000fd5b505050506040513d601f19601f820116820180604052508101906110769190614d3d565b905060008373ffffffffffffffffffffffffffffffffffffffff1663313ce5676040518163ffffffff1660e01b8152600401602060405180830381865afa1580156110c5573d6000803e3d6000fd5b505050506040513d601f19601f820116820180604052508101906110e99190614d56565b60ff169050610d4e8282600061246c565b6000808251905060008173ffffffffffffffffffffffffffffffffffffffff166318160ddd6040518163ffffffff1660e01b8152600401602060405180830381865afa15801561114e573d6000803e3d6000fd5b505050506040513d601f19601f820116820180604052508101906111729190614d3d565b905060008273ffffffffffffffffffffffffffffffffffffffff1663313ce5676040518163ffffffff1660e01b8152600401602060405180830381865afa1580156111c1573d6000803e3d6000fd5b505050506040513d601f19601f820116820180604052508101906111e59190614d56565b60ff169050610dff8282600061246c565b8051602090910180516040517f6352211e000000000000000000000000000000000000000000000000000000008152600481018290529192600092909190839073ffffffffffffffffffffffffffffffffffffffff841690636352211e90602401602060405180830381865afa158015611274573d6000803e3d6000fd5b505050506040513d601f19601f82011682018060405250810190610dff9190614d79565b6000808251905060008173ffffffffffffffffffffffffffffffffffffffff16638da5cb5b6040518163ffffffff1660e01b8152600401602060405180830381865afa1580156112ec573d6000803e3d6000fd5b505050506040513d601f19601f82011682018060405250810190610e849190614d79565b670de0b6b3a764000043027fffffffffffffffffffffffffffffffffffffffffffffffffffffffffffffffe09190910190815292915050565b670de0b6b3a764000046027fffffffffffffffffffffffffffffffffffffffffffffffffffffffffffffffe09190910190815292915050565b7fffffffffffffffffffffffffffffffffffffffffffffffffffffffffffffffff7fffffffffffffffffffffffffffffffffffffffffffffffffffffffffffffffe09190910190815292915050565b670de0b6b3a764000042027fffffffffffffffffffffffffffffffffffffffffffffffffffffffffffffffe09190910190815292915050565b7fffffffffffffffffffffffffffffffffffffffffffffffffffffffffffffffe0601083901c600f16602002828101918201926000925b808210156114645781518015611458578552611464565b50602082019150611441565b509295945050505050565b6000806000600f8560101c1660028106856020828403028101602083150281039750821561149c57805194505b808210156114c5578151955085156114ba57602082015188526114c5565b60408201915061149c565b505060408051808201909152600080825260208201527f1fffffffffffffffffffffffffffffffffffffffffffffffffffffffffffffff8416601f820152841515925090505b90611464576040517f08c379a0000000000000000000000000000000000000000000000000000000008152600401610506919061492d565b805160208083015160408051808201825260008082529381018490527f1fffffffffffffffffffffffffffffffffffffffffffffffffffffffffffffff8316601f8201529401939192918215159061150b565b805160209091018051909114815292915050565b7fffffffffffffffffffffffffffffffffffffffffffffffffffffffffffffffe0601083901c600f16602002828101918201926000925b80821015611464578151806115f7578552611464565b506020820191506115e1565b805160209091018051909111815292915050565b80516020909101805190911015815292915050565b805160409015156020028203810151910190815292915050565b805115815292915050565b805160209091018051909110815292915050565b80516020909101805190911115815292915050565b8051602082015160409092018051909260009291610dff836116ad6116a785670de0b6b3a7640000614dc5565b846124f1565b612606565b8051602082015160409092018051909260009291610dff836116d48484612606565b612615565b80516020820151604090920191600091906116f48183614e07565b9150600f601086901c1660025b81811015611727578551602090960195925061171d8385614e07565b9350600101611701565b5050507fffffffffffffffffffffffffffffffffffffffffffffffffffffffffffffffe0929092019182525092915050565b80516020820151604090920191600091906117748183614e1b565b9150600f601086901c1660025b81811015611727578551602090960195925061179d8385614e1b565b9350600101611781565b80516020820151604090920191600091906117c28183614f52565b9150600f601086901c1660025b8181101561172757855160209096019592506117eb8385614f52565b93506001016117cf565b80516020820151604090920191600091906118108183614dc5565b9150600f601086901c1660025b8181101561172757855160209096019592506118398385614dc5565b935060010161181d565b8051602090910180519091600091610e848282612624565b80516000906118698161263c565b835250909392505050565b805160208201516040909201916000919061188f82826126b4565b9150600f601086901c1660025b8181101561172757855192506020860195506118b884846126b4565b935060010161189c565b6725b946ebc0b361737fffffffffffffffffffffffffffffffffffffffffffffffffffffffffffffffe09190910190815292915050565b8051600090611869816126cc565b80516000906118698161273d565b8051600090670de0b6b3a76400008106801515028103611869565b8051600090670de0b6b3a76400008106611869565b8051602090910180519091600091610e8482826127ac565b8051670de0b6b3a7640000908190069003815292915050565b805160009061186981612836565b805160009061186981612859565b80516000906118698161288a565b8051600090611869816129ef565b8051602082015160409092019160009190808210156119cb578091505b600f601086901c1660025b818110156117275785519250602086019550828410156119f4578293505b6001016119d6565b805160208201516040909201916000919080821115611a19578091505b600f601086901c1660025b81811015611727578551925060208601955082841115611a42578293505b600101611a24565b8051602082015160409092019160009190611a658183614f5e565b9150600f601086901c1660025b818110156117275785516020909601959250611a8e8385614f5e565b9350600101611a72565b8051602082015160409092019160009190611ab38282612606565b9150600f601086901c1660025b818110156117275785519250602086019550611adc8484612606565b9350600101611ac0565b8051602090910180519091600091610e8482826124f1565b80516000906118698160ff8616600887901c61246c565b805160209091018051909160009190611b3681670de0b6b3a763ffff61387f565b9050610e8482828761246c565b80516000906118698160ff8616600887901c6138e7565b805160209091018051909160009190610e84611b7e82670de0b6b3a763ffff61387f565b8390600388166138e7565b8051602090910180519091600091670de0b6b3a76400008106828111611bc457670de0b6b3a764000082068015150282039150818552611464565b8281670de0b6b3a7640000031161146457610dff8261263c565b805160009061186981613949565b80516020820151604090920191600091906001851661487d81611c11576139b8611c15565b6139c45b9050611c2584848363ffffffff16565b9350600f601088901c1660025b81811015611c5c5787519450602088019750611c5286868563ffffffff16565b9550600101611c32565b50505050507fffffffffffffffffffffffffffffffffffffffffffffffffffffffffffffffe0929092019182525092915050565b805160608401516000919082908190611ca990846139da565b9150915081600003610e845760a087015160808801516040517f669e48aa00000000000000000000000000000000000000000000000000000000815260048101919091526024810185905260009173ffffffffffffffffffffffffffffffffffffffff169063669e48aa90604401602060405180830381865afa158015611d34573d6000803e3d6000fd5b505050506040513d601f19601f82011682018060405250810190611d589190614d3d565b6060890151909150611d6b908583613a24565b60608901528552611464565b8051602082015160608501516040909301926000929190611d99908383613a24565b606087015250829150509392505050565b60606000825160020267ffffffffffffffff811115611dcb57611dcb614b02565b6040519080825280601f01601f191660200182016040528015611df5576020820181803683370190505b50905061ffff80196020850160208651028101600285015b81831015611e2f57805183518616908516178152602090920191600201611e0d565b50939695505050505050565b6000806000611e4a8585613ab6565b51600281901a9660039190911a95509350505050565b8060200283015b80841015611e82578351835260209384019390920191611e67565b50505050565b60008085604001519050600080600080600060028b610100015151611ead9190614e07565b60e08c01516101008d0151602080830151600261ffff9b909b168b8102850160219081015160f01c600093841a9d909d029095019b909b019384015160258086019b50600791831a91821691829003600402909501909401985092965001935090915061487d90805b8688101561209957875190506002848260001a060285015160f01c925062ffffff8160e01c169150611f4d8e838e8663ffffffff16565b9b506002848260041a060285015160f01c925062ffffff8160c01c169150611f7a8e838e8663ffffffff16565b9b506002848260081a060285015160f01c925062ffffff8160a01c169150611fa78e838e8663ffffffff16565b9b5060028482600c1a060285015160f01c925062ffffff8160801c169150611fd48e838e8663ffffffff16565b9b506002848260101a060285015160f01c925062ffffff8160601c1691506120018e838e8663ffffffff16565b9b506002848260141a060285015160f01c925062ffffff8160401c16915061202e8e838e8663ffffffff16565b9b506002848260181a060285015160f01c925062ffffff8160201c16915061205b8e838e8663ffffffff16565b9b5060028482601c1a060285015160f01c925062ffffff811691506120858e838e8663ffffffff16565b9b50612092602089614dc5565b9750611f16565b6120a4601c89614f72565b97506120b1866004614e1b565b6120bb9089614dc5565b96505b868810156121015750508551601c81901a83900660020284015160f01c915062ffffff8116906120ed8e838e86565b9b506120fa600489614dc5565b97506120be565b61210d8d8a8e8e613ae7565b50999c9b505050505050505050505050565b6040805160f083901c602081810283010190925290815261ffff63ffffffff67ffffffffffffffff6fffffffffffffffffffffffffffffffff61218c565b60005b821561218657825182526020830151602083015260408301519250604082019150612160565b50919050565b602085018660101b60901c801561227c578060401c80156121fa578060201c80156121be576121bb818561215d565b93505b5080861680156121f8578060101c80156121df576121dc818661215d565b94505b5080881680156121f6576121f3818661215d565b94505b505b505b50808416801561227a578060201c801561223e578060101c801561222557612222818661215d565b94505b50808816801561223c57612239818661215d565b94505b505b508086168015612278578060101c801561225f5761225c818661215d565b94505b50808816801561227657612273818661215d565b94505b505b505b505b508682168015612388578060401c8015612306578060201c80156122ca578060101c80156122b1576122ae818661215d565b94505b5080881680156122c8576122c5818661215d565b94505b505b508086168015612304578060101c80156122eb576122e8818661215d565b94505b508088168015612302576122ff818661215d565b94505b505b505b508084168015612386578060201c801561234a578060101c80156123315761232e818661215d565b94505b50808816801561234857612345818661215d565b94505b505b508086168015612384578060101c801561236b57612368818661215d565b94505b5080881680156123825761237f818661215d565b94505b505b505b505b505050505050919050565b60007fffffffffffffffffffffffffffffffffffffffffffffffffffffffffffffffff82036123c55750610100919050565b507f0f0f0f0f0f0f0f0f0f0f0f0f0f0f0f0f0f0f0f0f0f0f0f0f0f0f0f0f0f0f0f0f7f5555555555555555555555555555555555555555555555555555555555555555600183901c16909103600281901c7f3333333333333333333333333333333333333333333333333333333333333333908116911601600481901c01167f01010101010101010101010101010101010101010101010101010101010101010260f81c90565b600082601211156124a157601283900360028316156124975761248f8582613b71565b9150506107c6565b61248f8582613bfe565b60128311156124ea577fffffffffffffffffffffffffffffffffffffffffffffffffffffffffffffffee830160018316156124e05761248f8582613c36565b61248f8582613c84565b50826107c6565b6000828281830361251c578015612509576000612513565b670de0b6b3a76400005b9250505061014a565b670de0b6b3a7640000820361253d57670de0b6b3a76400009250505061014a565b8060000361255757670de0b6b3a76400009250505061014a565b670de0b6b3a7640000810361257057849250505061014a565b670de0b6b3a76400008211156125a15761259a61259561258f8761288a565b86612606565b61273d565b92506125fe565b60006125c26125bf846ec097ce7bc90715b34b9f1000000000614e07565b90565b905060006125db6125956125d58461288a565b88612606565b90506125f96125bf826ec097ce7bc90715b34b9f1000000000614e07565b945050505b505092915050565b60006107c66125bf8484613ca7565b60006107c66125bf8385614dc5565b6000828280821681831860011c015b95945050505050565b6000817ffffffffffffffffffffffffffffffffffffffffffffffffff7e52fe5afe4000081111561269c576040517f6149f6b900000000000000000000000000000000000000000000000000000000815260048101849052602401610506565b5050670de0b6b3a76400008082068015159103020190565b60006107c66125bf84670de0b6b3a764000085613dae565b600081680736ea4425c11ac630811115612715576040517f1af63aca00000000000000000000000000000000000000000000000000000000815260048101849052602401610506565b6714057b7ef767814f8102612735612595670de0b6b3a7640000835b0490565b949350505050565b600081680a688906bd8affffff811115612786576040517fb3b6ba1f00000000000000000000000000000000000000000000000000000000815260048101849052602401610506565b600061279e670de0b6b3a7640000604084901b614e07565b90506127356125bf82613eb9565b600082828115806127bb575080155b156127cb5760009250505061014a565b818102818382816127de576127de614dd8565b0414612820576040517fae7f3b370000000000000000000000000000000000000000000000000000000081526004810187905260248101869052604401610506565b61282c6125bf8261462d565b9695505050505050565b600061014a826ec097ce7bc90715b34b9f10000000008161273157612731614dd8565b600061014a6714057b7ef767814f670de0b6b3a764000061287c6125bf8661288a565b028161273157612731614dd8565b600081670de0b6b3a76400008110156128d2576040517f36d32ef000000000000000000000000000000000000000000000000000000000815260048101849052602401610506565b600061295e670de0b6b3a7640000830460016fffffffffffffffffffffffffffffffff821160071b91821c67ffffffffffffffff811160061b90811c63ffffffff811160051b90811c61ffff811160041b90811c60ff8111600390811b91821c600f811160021b90811c918211871b91821c969096119490961792909217171791909117919091171790565b9050670de0b6b3a7640000810282821c7ffffffffffffffffffffffffffffffffffffffffffffffffff21f494c589c0000810161299e5750949350505050565b671bc16d674ec800006706f05b59d3b200005b80156129e157670de0b6b3a76400008380020492508183106129d9579283019260019290921c915b60011c6129b1565b50825b979650505050505050565b600081670de0b6b3a7640000811015612a37576040517f36d32ef000000000000000000000000000000000000000000000000000000000815260048101849052602401610506565b826001811461318857600a81146131b057606481146131d8576103e8811461320057612710811461322857620186a0811461325057620f42408114613278576298968081146132a0576305f5e10081146132c857633b9aca0081146132f0576402540be40081146133185764174876e80081146133405764e8d4a510008114613368576509184e72a000811461339057655af3107a400081146133b85766038d7ea4c6800081146133e057662386f26fc1000081146134085767016345785d8a0000811461343057670de0b6b3a7640000811461345857678ac7230489e8000081146134615768056bc75e2d63100000811461347157683635c9adc5dea0000081146134815769021e19e0c9bab240000081146134915769152d02c7e14af680000081146134a15769d3c21bcecceda100000081146134b1576a084595161401484a00000081146134c1576a52b7d2dcc80cd2e400000081146134d1576b033b2e3c9fd0803ce800000081146134e1576b204fce5e3e2502611000000081146134f1576c01431e0fae6d7217caa00000008114613501576c0c9f2c9cd04674edea400000008114613511576c7e37be2022c0914b26800000008114613521576d04ee2d6d415b85acef81000000008114613531576d314dc6448d9338c15b0a000000008114613541576e01ed09bead87c0378d8e64000000008114613551576e13426172c74d822b878fe8000000008114613561576ec097ce7bc90715b34b9f10000000008114613571576f0785ee10d5da46d900f436a0000000008114613581576f4b3b4ca85a86c47a098a2240000000008114613592577002f050fe938943acc45f6556800000000081146135a357701d6329f1c35ca4bfabb9f561000000000081146135b457710125dfa371a19e6f7cb54395ca000000000081146135c557710b7abc627050305adf14a3d9e4000000000081146135d6577172cb5bd86321e38cb6ce6682e8000000000081146135e75772047bf19673df52e37f2410011d10000000000081146135f857722cd76fe086b93ce2f768a00b22a000000000008114613609577301c06a5ec5433c60ddaa16406f5a400000000000811461361a5773118427b3b4a05bc8a8a4de845986800000000000811461362b5773af298d050e4395d69670b12b7f41000000000000811461363c577406d79f82328ea3da61e066ebb2f88a000000000000811461364d5774446c3b15f9926687d2c40534fdb564000000000000811461365e577502ac3a4edbbfb8014e3ba83411e915e8000000000000811461366f57751aba4714957d300d0e549208b31adb1000000000000081146136805776010b46c6cdd6e3e0828f4db456ff0c8ea0000000000000811461369157760a70c3c40a64e6c51999090b65f67d924000000000000081146136a257766867a5a867f103b2fffa5a71fba0e7b68000000000000081146136b3577704140c78940f6a24fdffc78873d4490d210000000000000081146136c4577728c87cb5c89a2571ebfdcb54864ada834a0000000000000081146136d557780197d4df19d605767337e9f14d3eec8920e40000000000000081146136e657780fee50b7025c36a0802f236d04753d5b48e80000000000000081146136f757789f4f2726179a224501d762422c946590d9100000000000000081146137085779063917877cec0556b21269d695bdcbf7a87aa000000000000000811461371957793e3aeb4ae1383562f4b82261d969f7ac94ca4000000000000000811461372a577a026e4d30eccc3215dd8f3157d27e23acbdcfe68000000000000000811461373b577a184f03e93ff9f4daa797ed6e38ed64bf6a1f010000000000000000811461374c577af316271c7fc3908a8bef464e3945ef7a25360a0000000000000000811461375d577b097edd871cfda3a5697758bf0e3cbb5ac5741c640000000000000000811461376e577b5ef4a74721e864761ea977768e5f518bb6891be80000000000000000811461377f577c03b58e88c75313ec9d329eaaa18fb92f75215b171000000000000000008114613790577c25179157c93ec73e23fa32aa4f9d3bda934d8ee6a0000000000000000081146137a1577d0172ebad6ddc73c86d67c5faa71c245689c107950240000000000000000081146137b2577d0e7d34c64a9c85d4460dbbca87196b61618a4bd21680000000000000000081146137c3577d90e40fbeea1d3a4abc8955e946fe31cdcf66f634e100000000000000000081146137d4577e05a8e89d75252446eb5d5d5b1cc5edf20a1a059e10ca00000000000000000081146137e5577e3899162693736ac531a5a58f1fbb4b746504382ca7e400000000000000000081146137f6577f0235fadd81c2822bb3f07877973d50f28bf22a31be8ee80000000000000000008114613807577f161bcca7119915b50764b4abe86529797775a5f17195100000000000000000008114613818577fdd15fe86affad91249ef0eb713f39ebeaa987b6e6fd2a00000000000000000008114613829577fffffffffffffffffffffffffffffffffffffffffffffffffffffffffffffffff9250613836565b7fffffffffffffffffffffffffffffffffffffffffffffffff0633275e3af800009250613836565b7fffffffffffffffffffffffffffffffffffffffffffffffff1413de11e25c00009250613836565b7fffffffffffffffffffffffffffffffffffffffffffffffff21f494c589c000009250613836565b7fffffffffffffffffffffffffffffffffffffffffffffffff2fd54b79312400009250613836565b7fffffffffffffffffffffffffffffffffffffffffffffffff3db6022cd88800009250613836565b7fffffffffffffffffffffffffffffffffffffffffffffffff4b96b8e07fec00009250613836565b7fffffffffffffffffffffffffffffffffffffffffffffffff59776f94275000009250613836565b7fffffffffffffffffffffffffffffffffffffffffffffffff67582647ceb400009250613836565b7fffffffffffffffffffffffffffffffffffffffffffffffff7538dcfb761800009250613836565b7fffffffffffffffffffffffffffffffffffffffffffffffff831993af1d7c00009250613836565b7fffffffffffffffffffffffffffffffffffffffffffffffff90fa4a62c4e000009250613836565b7fffffffffffffffffffffffffffffffffffffffffffffffff9edb01166c4400009250613836565b7fffffffffffffffffffffffffffffffffffffffffffffffffacbbb7ca13a800009250613836565b7fffffffffffffffffffffffffffffffffffffffffffffffffba9c6e7dbb0c00009250613836565b7fffffffffffffffffffffffffffffffffffffffffffffffffc87d2531627000009250613836565b7fffffffffffffffffffffffffffffffffffffffffffffffffd65ddbe509d400009250613836565b7fffffffffffffffffffffffffffffffffffffffffffffffffe43e9298b13800009250613836565b7ffffffffffffffffffffffffffffffffffffffffffffffffff21f494c589c00009250613836565b60009250613836565b670de0b6b3a76400009250613836565b671bc16d674ec800009250613836565b6729a2241af62c00009250613836565b673782dace9d9000009250613836565b674563918244f400009250613836565b6753444835ec5800009250613836565b676124fee993bc00009250613836565b676f05b59d3b2000009250613836565b677ce66c50e28400009250613836565b678ac7230489e800009250613836565b6798a7d9b8314c00009250613836565b67a688906bd8b000009250613836565b67b469471f801400009250613836565b67c249fdd3277800009250613836565b67d02ab486cedc00009250613836565b67de0b6b3a764000009250613836565b67ebec21ee1da400009250613836565b67f9ccd8a1c50800009250613836565b680107ad8f556c6c00009250613836565b6801158e460913d000009250613836565b6801236efcbcbb3400009250613836565b6801314fb370629800009250613836565b68013f306a2409fc00009250613836565b68014d1120d7b16000009250613836565b68015af1d78b58c400009250613836565b680168d28e3f002800009250613836565b680176b344f2a78c00009250613836565b68018493fba64ef000009250613836565b68019274b259f65400009250613836565b6801a055690d9db800009250613836565b6801ae361fc1451c00009250613836565b6801bc16d674ec8000009250613836565b6801c9f78d2893e400009250613836565b6801d7d843dc3b4800009250613836565b6801e5b8fa8fe2ac00009250613836565b6801f399b1438a1000009250613836565b6802017a67f7317400009250613836565b68020f5b1eaad8d800009250613836565b68021d3bd55e803c00009250613836565b68022b1c8c1227a000009250613836565b680238fd42c5cf0400009250613836565b680246ddf979766800009250613836565b680254beb02d1dcc00009250613836565b6802629f66e0c53000009250613836565b680270801d946c9400009250613836565b68027e60d44813f800009250613836565b68028c418afbbb5c00009250613836565b68029a2241af62c000009250613836565b6802a802f8630a2400009250613836565b6802b5e3af16b18800009250613836565b6802c3c465ca58ec00009250613836565b6802d1a51c7e005000009250613836565b6802df85d331a7b400009250613836565b6802ed6689e54f1800009250613836565b6802fb474098f67c00009250613836565b68030927f74c9de000009250613836565b68031708ae00454400009250613836565b680324e964b3eca800009250613836565b680332ca1b67940c000092505b507fffffffffffffffffffffffffffffffffffffffffffffffffffffffffffffffff8203612186576107c6672e19dc008126bf2b670de0b6b3a764000061287c6125bf8761288a565b6000670de0b6b3a7640000831061389c57613899836147b2565b92505b818311156138e0576040517fcb0525970000000000000000000000000000000000000000000000000000000081526004810184905260248101839052604401610506565b5090919050565b6000826012111561390a57601283900360018316156124e05761248f8582613c36565b60128311156124ea577fffffffffffffffffffffffffffffffffffffffffffffffffffffffffffffffee830160028316156124975761248f8582613b71565b6000817812725dd1d243aba0e75fe645cc4873f9e65afe688c928e1f218111156139a2576040517fedc236ad00000000000000000000000000000000000000000000000000000000815260048101849052602401610506565b6107c66125bf670de0b6b3a7640000830261462d565b60006107c68284614f72565b60008183116139d45760006107c6565b50900390565b600080826000526010600f6020600020060261ffff85821c165b8015613a1b5780518503613a12576001935060208101519250613a1b565b604001516139f4565b50509250929050565b6000826000526010600f6020600020060261ffff85821c16805b8015613a555780518614613a555760400151613a3e565b80158015613aa35760405191506060820160405286825285602083015282604083015260028860f01c0161ffff60f01b1989168160f01b1798505061ffff841b19881682851b179750613aaa565b8560208301525b50959695505050505050565b600080613ac284614808565b60020260010190506000613ad68585614826565b949091019093016020019392505050565b7fffffffffffffffffffffffffffffffffffffffffffffffffffffffffffffffe082018051601086901b851782527f312f5ae588c6ff62cd3f006af06cd48c98d7321649db7d8b2c396a81a204655591906000808686036004017ffffffffffffffffffffffffffffffffffffffffffffffffffffffffffffffffc8801865afa5090525050505050565b6000604e8210613bb1578215613ba7577fffffffffffffffffffffffffffffffffffffffffffffffffffffffffffffffff613baa565b60005b905061014a565b50600a81900a8281029083818381613bcb57613bcb614dd8565b0414613bf7577fffffffffffffffffffffffffffffffffffffffffffffffffffffffffffffffff612735565b5092915050565b600a81900a613c0d8184614e1b565b9050604e821061014a578215613c2d57613c2882600a614f52565b6107c6565b50600092915050565b6000604e8210613c5a578215613c4d576001613c50565b60005b60ff16905061014a565b600a82900a808481613c6e57613c6e614dd8565b0491508082028414613bf7575060010192915050565b6000604e821015613c2d5781600a0a8381613ca157613ca1614dd8565b046107c6565b600080807fffffffffffffffffffffffffffffffffffffffffffffffffffffffffffffffff84860984860292508281108382030391505080600003613cf95750670de0b6b3a76400009004905061014a565b670de0b6b3a76400008110613d44576040517f5173648d0000000000000000000000000000000000000000000000000000000081526004810186905260248101859052604401610506565b6000670de0b6b3a7640000858709620400008185030493109091037d40000000000000000000000000000000000000000000000000000000000002919091177faccb18165bd6fe31ae1cf318dc5b51eee0e1ba569b88cd74c1773b91fac106690291505092915050565b600080807fffffffffffffffffffffffffffffffffffffffffffffffffffffffffffffffff85870985870292508281108382030391505080600003613e0657838281613dfc57613dfc614dd8565b04925050506107c6565b838110613e50576040517f63a05778000000000000000000000000000000000000000000000000000000008152600481018790526024810186905260448101859052606401610506565b60008486880960026001871981018816978890046003810283188082028403028082028403028082028403028082028403028082028403029081029092039091026000889003889004909101858311909403939093029303949094049190911702949350505050565b7780000000000000000000000000000000000000000000000067ff00000000000000821615613fda57678000000000000000821615613f015768016a09e667f3bcc9090260401c5b674000000000000000821615613f20576801306fe0a31b7152df0260401c5b672000000000000000821615613f3f576801172b83c7d517adce0260401c5b671000000000000000821615613f5e5768010b5586cf9890f62a0260401c5b670800000000000000821615613f7d576801059b0d31585743ae0260401c5b670400000000000000821615613f9c57680102c9a3e778060ee70260401c5b670200000000000000821615613fbb5768010163da9fb33356d80260401c5b670100000000000000821615613fda57680100b1afa5abcbed610260401c5b66ff0000000000008216156140d95766800000000000008216156140075768010058c86da1c09ea20260401c5b6640000000000000821615614025576801002c605e2e8cec500260401c5b662000000000000082161561404357680100162f3904051fa10260401c5b6610000000000000821615614061576801000b175effdc76ba0260401c5b660800000000000082161561407f57680100058ba01fb9f96d0260401c5b660400000000000082161561409d5768010002c5cc37da94920260401c5b66020000000000008216156140bb576801000162e525ee05470260401c5b66010000000000008216156140d95768010000b17255775c040260401c5b65ff00000000008216156141cf5765800000000000821615614104576801000058b91b5bc9ae0260401c5b6540000000000082161561412157680100002c5c89d5ec6d0260401c5b6520000000000082161561413e5768010000162e43f4f8310260401c5b6510000000000082161561415b57680100000b1721bcfc9a0260401c5b650800000000008216156141785768010000058b90cf1e6e0260401c5b65040000000000821615614195576801000002c5c863b73f0260401c5b650200000000008216156141b257680100000162e430e5a20260401c5b650100000000008216156141cf576801000000b1721835510260401c5b64ff000000008216156142bc576480000000008216156141f857680100000058b90c0b490260401c5b6440000000008216156142145768010000002c5c8601cc0260401c5b642000000000821615614230576801000000162e42fff00260401c5b64100000000082161561424c5768010000000b17217fbb0260401c5b640800000000821615614268576801000000058b90bfce0260401c5b64040000000082161561428457680100000002c5c85fe30260401c5b6402000000008216156142a05768010000000162e42ff10260401c5b6401000000008216156142bc57680100000000b17217f80260401c5b63ff0000008216156143a05763800000008216156142e35768010000000058b90bfc0260401c5b63400000008216156142fe576801000000002c5c85fe0260401c5b632000000082161561431957680100000000162e42ff0260401c5b6310000000821615614334576801000000000b17217f0260401c5b630800000082161561434f57680100000000058b90c00260401c5b630400000082161561436a5768010000000002c5c8600260401c5b6302000000821615614385576801000000000162e4300260401c5b63010000008216156143a05768010000000000b172180260401c5b62ff000082161561447b57628000008216156143c5576801000000000058b90c0260401c5b624000008216156143df57680100000000002c5c860260401c5b622000008216156143f95768010000000000162e430260401c5b6210000082161561441357680100000000000b17210260401c5b6208000082161561442d5768010000000000058b910260401c5b62040000821615614447576801000000000002c5c80260401c5b6202000082161561446157680100000000000162e40260401c5b6201000082161561447b576801000000000000b1720260401c5b61ff0082161561454d5761800082161561449e57680100000000000058b90260401c5b6140008216156144b75768010000000000002c5d0260401c5b6120008216156144d0576801000000000000162e0260401c5b6110008216156144e95768010000000000000b170260401c5b610800821615614502576801000000000000058c0260401c5b61040082161561451b57680100000000000002c60260401c5b61020082161561453457680100000000000001630260401c5b61010082161561454d57680100000000000000b10260401c5b60ff82161561461657608082161561456e57680100000000000000590260401c5b6040821615614586576801000000000000002c0260401c5b602082161561459e57680100000000000000160260401c5b60108216156145b6576801000000000000000b0260401c5b60088216156145ce57680100000000000000060260401c5b60048216156145e657680100000000000000030260401c5b60028216156145fe57680100000000000000010260401c5b600182161561461657680100000000000000010260401c5b670de0b6b3a76400000260409190911c60bf031c90565b60008160000361463f57506000919050565b5060018170010000000000000000000000000000000081106146665760409190911b9060801c5b6801000000000000000081106146815760209190911b9060401c5b64010000000081106146985760109190911b9060201c5b6201000081106146ad5760089190911b9060101c5b61010081106146c15760049190911b9060081c5b601081106146d45760029190911b9060041c5b600481106146e457600182901b91505b60018284816146f5576146f5614dd8565b048301901c9150600182848161470d5761470d614dd8565b048301901c9150600182848161472557614725614dd8565b048301901c9150600182848161473d5761473d614dd8565b048301901c9150600182848161475557614755614dd8565b048301901c9150600182848161476d5761476d614dd8565b048301901c9150600182848161478557614785614dd8565b048301901c9150600082848161479d5761479d614dd8565b0490508083106147ab578092505b5050919050565b6000670de0b6b3a76400008206156147f9576040517f8484366800000000000000000000000000000000000000000000000000000000815260048101839052602401610506565b50670de0b6b3a7640000900490565b6000815160000361481b57506000919050565b506020015160001a90565b600061483183614808565b821061486d5781836040517ffcfaeff1000000000000000000000000000000000000000000000000000000008152600401610506929190614f85565b50600202016003015161ffff1690565b614885614f9e565b565b60006020828403121561489957600080fd5b81357fffffffff00000000000000000000000000000000000000000000000000000000811681146107c657600080fd5b6000815180845260005b818110156148ef576020818501810151868301820152016148d3565b5060006020828601015260207fffffffffffffffffffffffffffffffffffffffffffffffffffffffffffffffe0601f83011685010191505092915050565b6020815260006107c660208301846148c9565b73ffffffffffffffffffffffffffffffffffffffff8116811461496257600080fd5b50565b60008083601f84011261497757600080fd5b50813567ffffffffffffffff81111561498f57600080fd5b6020830191508360208260051b85010111156149aa57600080fd5b9250929050565b600080600080600080600080600060c08a8c0312156149cf57600080fd5b89356149da81614940565b985060208a0135975060408a013567ffffffffffffffff808211156149fe57600080fd5b818c0191508c601f830112614a1257600080fd5b813581811115614a2157600080fd5b8d6020828501011115614a3357600080fd5b6020830199508098505060608c0135965060808c0135915080821115614a5857600080fd5b614a648d838e01614965565b909650945060a08c0135915080821115614a7d57600080fd5b50614a8a8c828d01614965565b915080935050809150509295985092959850929598565b60008151808452602080850194506020840160005b83811015614ad257815187529582019590820190600101614ab6565b509495945050505050565b604081526000614af06040830185614aa1565b82810360208401526126338185614aa1565b7f4e487b7100000000000000000000000000000000000000000000000000000000600052604160045260246000fd5b604051601f82017fffffffffffffffffffffffffffffffffffffffffffffffffffffffffffffffe016810167ffffffffffffffff81118282101715614b7857614b78614b02565b604052919050565b600067ffffffffffffffff821115614b9a57614b9a614b02565b5060051b60200190565b6000614bb7614bb284614b80565b614b31565b83815260208082019190600586811b860136811115614bd557600080fd5b865b81811015614c6257803567ffffffffffffffff811115614bf75760008081fd5b880136601f820112614c095760008081fd5b8035614c17614bb282614b80565b81815290851b82018601908681019036831115614c345760008081fd5b928701925b82841015614c5257833582529287019290870190614c39565b8952505050948301948301614bd7565b5092979650505050505050565b7f4e487b7100000000000000000000000000000000000000000000000000000000600052603260045260246000fd5b8281526040602082015260006127356040830184614aa1565b60006020808385031215614cca57600080fd5b825167ffffffffffffffff811115614ce157600080fd5b8301601f81018513614cf257600080fd5b8051614d00614bb282614b80565b81815260059190911b82018301908381019087831115614d1f57600080fd5b928401925b828410156129e457835182529284019290840190614d24565b600060208284031215614d4f57600080fd5b5051919050565b600060208284031215614d6857600080fd5b815160ff811681146107c657600080fd5b600060208284031215614d8b57600080fd5b81516107c681614940565b7f4e487b7100000000000000000000000000000000000000000000000000000000600052601160045260246000fd5b8082018082111561014a5761014a614d96565b7f4e487b7100000000000000000000000000000000000000000000000000000000600052601260045260246000fd5b600082614e1657614e16614dd8565b500490565b808202811582820484141761014a5761014a614d96565b600181815b80851115614e8b57817fffffffffffffffffffffffffffffffffffffffffffffffffffffffffffffffff04821115614e7157614e71614d96565b80851615614e7e57918102915b93841c9390800290614e37565b509250929050565b600082614ea25750600161014a565b81614eaf5750600061014a565b8160018114614ec55760028114614ecf57614eeb565b600191505061014a565b60ff841115614ee057614ee0614d96565b50506001821b61014a565b5060208310610133831016604e8410600b8410161715614f0e575081810a61014a565b614f188383614e32565b807fffffffffffffffffffffffffffffffffffffffffffffffffffffffffffffffff04821115614f4a57614f4a614d96565b029392505050565b60006107c68383614e93565b600082614f6d57614f6d614dd8565b500690565b8181038181111561014a5761014a614d96565b82815260406020820152600061273560408301846148c9565b7f4e487b7100000000000000000000000000000000000000000000000000000000600052605160045260246000fdfe077c07cd080f09db0ac20ad40ae60b090b4b0b9d0bae0bbf0c610c9e0d5c0e0c0e900fd310fa0d5c11f6129813101349138213d113d1140a146f1543159615aa16031617162c164616511665167a16b216d9175917a717f51843185b187418c218f91907191519301945195d19761984199219a019ae19fc1a4a1a981ae61afe1afe1b151b431b431b5a1b891bde1bec1bec1c901d77","linkReferences":{}},"methodIdentifiers":{"buildOpcodeFunctionPointers()":"514b5d4f","eval3(address,uint256,bytes,uint256,uint256[][],uint256[])":"d6e3357a","functionPointers()":"f933c72f","supportsInterface(bytes4)":"01ffc9a7"}}