{"abi":[{"type":"constructor","inputs":[{"name":"config","type":"tuple","internalType":"struct RainterpreterExpressionDeployerNPE2ConstructionConfigV2","components":[{"name":"interpreter","type":"address","internalType":"address"},{"name":"store","type":"address","internalType":"address"},{"name":"parser","type":"address","internalType":"address"}]}],"stateMutability":"nonpayable"},{"type":"function","name":"buildIntegrityFunctionPointers","inputs":[],"outputs":[{"name":"","type":"bytes","internalType":"bytes"}],"stateMutability":"view"},{"type":"function","name":"describedByMetaV1","inputs":[],"outputs":[{"name":"","type":"bytes32","internalType":"bytes32"}],"stateMutability":"pure"},{"type":"function","name":"iInterpreter","inputs":[],"outputs":[{"name":"","type":"address","internalType":"contract IInterpreterV3"}],"stateMutability":"view"},{"type":"function","name":"iParser","inputs":[],"outputs":[{"name":"","type":"address","internalType":"contract IParserV1View"}],"stateMutability":"view"},{"type":"function","name":"iStore","inputs":[],"outputs":[{"name":"","type":"address","internalType":"contract IInterpreterStoreV2"}],"stateMutability":"view"},{"type":"function","name":"parse2","inputs":[{"name":"data","type":"bytes","internalType":"bytes"}],"outputs":[{"name":"","type":"bytes","internalType":"bytes"}],"stateMutability":"view"},{"type":"function","name":"parsePragma1","inputs":[{"name":"data","type":"bytes","internalType":"bytes"}],"outputs":[{"name":"","type":"tuple","internalType":"struct PragmaV1","components":[{"name":"usingWordsFrom","type":"address[]","internalType":"address[]"}]}],"stateMutability":"view"},{"type":"function","name":"supportsInterface","inputs":[{"name":"interfaceId","type":"bytes4","internalType":"bytes4"}],"outputs":[{"name":"","type":"bool","internalType":"bool"}],"stateMutability":"view"},{"type":"error","name":"BadDynamicLength","inputs":[{"name":"dynamicLength","type":"uint256","internalType":"uint256"},{"name":"standardOpsLength","type":"uint256","internalType":"uint256"}]},{"type":"error","name":"BadOpInputsLength","inputs":[{"name":"opIndex","type":"uint256","internalType":"uint256"},{"name":"calculatedInputs","type":"uint256","internalType":"uint256"},{"name":"bytecodeInputs","type":"uint256","internalType":"uint256"}]},{"type":"error","name":"BadOpOutputsLength","inputs":[{"name":"opIndex","type":"uint256","internalType":"uint256"},{"name":"calculatedOutputs","type":"uint256","internalType":"uint256"},{"name":"bytecodeOutputs","type":"uint256","internalType":"uint256"}]},{"type":"error","name":"CallOutputsExceedSource","inputs":[{"name":"sourceOutputs","type":"uint256","internalType":"uint256"},{"name":"outputs","type":"uint256","internalType":"uint256"}]},{"type":"error","name":"NotAnExternContract","inputs":[{"name":"extern","type":"address","internalType":"address"}]},{"type":"error","name":"OutOfBoundsConstantRead","inputs":[{"name":"opIndex","type":"uint256","internalType":"uint256"},{"name":"constantsLength","type":"uint256","internalType":"uint256"},{"name":"constantRead","type":"uint256","internalType":"uint256"}]},{"type":"error","name":"OutOfBoundsStackRead","inputs":[{"name":"opIndex","type":"uint256","internalType":"uint256"},{"name":"stackTopIndex","type":"uint256","internalType":"uint256"},{"name":"stackRead","type":"uint256","internalType":"uint256"}]},{"type":"error","name":"SourceIndexOutOfBounds","inputs":[{"name":"sourceIndex","type":"uint256","internalType":"uint256"},{"name":"bytecode","type":"bytes","internalType":"bytes"}]},{"type":"error","name":"StackAllocationMismatch","inputs":[{"name":"stackMaxIndex","type":"uint256","internalType":"uint256"},{"name":"bytecodeAllocation","type":"uint256","internalType":"uint256"}]},{"type":"error","name":"StackOutputsMismatch","inputs":[{"name":"stackIndex","type":"uint256","internalType":"uint256"},{"name":"bytecodeOutputs","type":"uint256","internalType":"uint256"}]},{"type":"error","name":"StackSizingsNotMonotonic","inputs":[{"name":"bytecode","type":"bytes","internalType":"bytes"},{"name":"relativeOffset","type":"uint256","internalType":"uint256"}]},{"type":"error","name":"StackUnderflow","inputs":[{"name":"opIndex","type":"uint256","internalType":"uint256"},{"name":"stackIndex","type":"uint256","internalType":"uint256"},{"name":"calculatedInputs","type":"uint256","internalType":"uint256"}]},{"type":"error","name":"StackUnderflowHighwater","inputs":[{"name":"opIndex","type":"uint256","internalType":"uint256"},{"name":"stackIndex","type":"uint256","internalType":"uint256"},{"name":"stackHighwater","type":"uint256","internalType":"uint256"}]},{"type":"error","name":"TruncatedBitwiseEncoding","inputs":[{"name":"startBit","type":"uint256","internalType":"uint256"},{"name":"length","type":"uint256","internalType":"uint256"}]},{"type":"error","name":"TruncatedHeader","inputs":[{"name":"bytecode","type":"bytes","internalType":"bytes"}]},{"type":"error","name":"TruncatedHeaderOffsets","inputs":[{"name":"bytecode","type":"bytes","internalType":"bytes"}]},{"type":"error","name":"TruncatedSource","inputs":[{"name":"bytecode","type":"bytes","internalType":"bytes"}]},{"type":"error","name":"UnexpectedInterpreterBytecodeHash","inputs":[{"name":"expectedBytecodeHash","type":"bytes32","internalType":"bytes32"},{"name":"actualBytecodeHash","type":"bytes32","internalType":"bytes32"}]},{"type":"error","name":"UnexpectedParserBytecodeHash","inputs":[{"name":"expectedBytecodeHash","type":"bytes32","internalType":"bytes32"},{"name":"actualBytecodeHash","type":"bytes32","internalType":"bytes32"}]},{"type":"error","name":"UnexpectedSources","inputs":[{"name":"bytecode","type":"bytes","internalType":"bytes"}]},{"type":"error","name":"UnexpectedStoreBytecodeHash","inputs":[{"name":"expectedBytecodeHash","type":"bytes32","internalType":"bytes32"},{"name":"actualBytecodeHash","type":"bytes32","internalType":"bytes32"}]},{"type":"error","name":"UnexpectedTrailingOffsetBytes","inputs":[{"name":"bytecode","type":"bytes","internalType":"bytes"}]},{"type":"error","name":"UnsupportedBitwiseShiftAmount","inputs":[{"name":"shiftAmount","type":"uint256","internalType":"uint256"}]},{"type":"error","name":"ZeroLengthBitwiseEncoding","inputs":[]}],"bytecode":{"object":"0x60e060405234801561001057600080fd5b50604051611f77380380611f7783398101604081905261002f9161017a565b8051602082015160408301516001600160a01b0380841660805280831660a052811660c052823f600080516020611f3783398151915281146100a057604051630fc2051760e11b8152600080516020611f378339815191526004820152602481018290526044015b60405180910390fd5b823f7f2a4559222e2f3600b2d393715de8af57620439684463f745059c653bbfe3727f811461010b576040516348616a9b60e01b81527f2a4559222e2f3600b2d393715de8af57620439684463f745059c653bbfe3727f600482015260248101829052604401610097565b823f600080516020611f57833981519152811461015257604051630941d86960e21b8152600080516020611f57833981519152600482015260248101829052604401610097565b505050505050506101f3565b80516001600160a01b038116811461017557600080fd5b919050565b60006060828403121561018c57600080fd5b604051606081016001600160401b03811182821017156101bc57634e487b7160e01b600052604160045260246000fd5b6040526101c88361015e565b81526101d66020840161015e565b60208201526101e76040840161015e565b60408201529392505050565b60805160a05160c051611d0861022f6000396000818160ba0152818161032b01526103e80152600061017c015260006101a30152611d086000f3fe608060405234801561001057600080fd5b50600436106100885760003560e01c8063a3869e141161005b578063a3869e141461014f578063b92d75531461016f578063c19423bc14610177578063f0cfdd371461019e57600080fd5b806301ffc9a71461008d57806324376855146100b55780635514ca20146101015780636f5aa28d14610121575b600080fd5b6100a061009b366004611618565b6101c5565b60405190151581526020015b60405180910390f35b6100dc7f000000000000000000000000000000000000000000000000000000000000000081565b60405173ffffffffffffffffffffffffffffffffffffffff90911681526020016100ac565b61011461010f36600461165a565b6102f6565b6040516100ac91906116cc565b6040517fa06272c146368c8267529773d74e499d3d70b552938f29071e5cb2faf9e3c41981526020016100ac565b61016261015d36600461181f565b6103e1565b6040516100ac919061190d565b61016261050f565b6100dc7f000000000000000000000000000000000000000000000000000000000000000081565b6100dc7f000000000000000000000000000000000000000000000000000000000000000081565b60007fffffffff0000000000000000000000000000000000000000000000000000000082167f6f5aa28d00000000000000000000000000000000000000000000000000000000148061025857507fffffffff0000000000000000000000000000000000000000000000000000000082167fa3869e1400000000000000000000000000000000000000000000000000000000145b806102a457507fffffffff0000000000000000000000000000000000000000000000000000000082167f5514ca2000000000000000000000000000000000000000000000000000000000145b806102f057507f01ffc9a7000000000000000000000000000000000000000000000000000000007fffffffff000000000000000000000000000000000000000000000000000000008316145b92915050565b604080516020810182526060815290517f5514ca200000000000000000000000000000000000000000000000000000000081527f000000000000000000000000000000000000000000000000000000000000000073ffffffffffffffffffffffffffffffffffffffff1690635514ca20906103779086908690600401611920565b600060405180830381865afa158015610394573d6000803e3d6000fd5b505050506040513d6000823e601f3d9081017fffffffffffffffffffffffffffffffffffffffffffffffffffffffffffffffe01682016040526103da9190810190611991565b9392505050565b60606000807f000000000000000000000000000000000000000000000000000000000000000073ffffffffffffffffffffffffffffffffffffffff1663fab4087a856040518263ffffffff1660e01b815260040161043f919061190d565b600060405180830381865afa15801561045c573d6000803e3d6000fd5b505050506040513d6000823e601f3d9081017fffffffffffffffffffffffffffffffffffffffffffffffffffffffffffffffe01682016040526104a29190810190611a79565b9150915060006104bc838351905160406020909202010190565b604080516020838201810190925282815291925081016104dd81868661051e565b60006105026040518060c0016040528060968152602001611c72609691398787610561565b5091979650505050505050565b60606105196108c8565b905090565b80600182510160200281015b8082101561054557815185526020948501949091019061052a565b505061055c6105518390565b848451602001610bb5565b505050565b6060600061056e84610c1b565b90506020850161057d85610c39565b8160020267ffffffffffffffff81111561059957610599611732565b6040519080825280601f01601f1916602001820160405280156105c3576020820181803683370190505b5092506020830160005b838110156108bd576000806105e28984610e58565b9150915081845380600185015360028401935060006106028a848b610e7d565b9050600060186106128c87610ee9565b03905060006106218c87610f1a565b600402820190505b808210156108075781516002601c82901a0289015162ffffff821691601d1a600f81169160049190911c9060f01c600080610662898785565b915091508482146106bb5760808901516040517fddf56071000000000000000000000000000000000000000000000000000000008152600481019190915260248101839052604481018690526064015b60405180910390fd5b83811461070b5760808901516040517ffc8b5603000000000000000000000000000000000000000000000000000000008152600481019190915260248101829052604481018590526064016106b2565b885182111561075d57608089015189516040517f2cab6bff00000000000000000000000000000000000000000000000000000000815260048101929092526024820152604481018390526064016106b2565b8851829003808a5260408a015111156107bf57608089015189516040808c015190517f1bc5ab0f0000000000000000000000000000000000000000000000000000000081526004810193909352602483019190915260448201526064016106b2565b88518101808a5260208a015110156107d957885160208a01525b60018111156107ea57885160408a01525b505050608086018051600101905250505060049190910190610629565b6108118c87610f33565b83602001511461086557826020015161082a8d88610f33565b6040517f4d9c18dc000000000000000000000000000000000000000000000000000000008152600481019290925260248201526044016106b2565b825184146108ac5782516040517f4689f0b30000000000000000000000000000000000000000000000000000000081526004810191909152602481018590526044016106b2565b5050600190930192506105cd915050565b505050509392505050565b606061160e6000604b905080915060006040518061098001604052808467ffffffffffffffff1667ffffffffffffffff168152602001610f4c8152602001610fca815260200161102f81526020016111a981526020016111b381526020016111b381526020016111bd81526020016111c681526020016111e18152602001611287815260200161128781526020016112e3815260200161135d815260200161136a81526020016111b381526020016111bd815260200161136a81526020016111b381526020016111bd81526020016111b381526020016111b381526020016111bd81526020016111a981526020016111a981526020016111a981526020016111a981526020016111a98152602001611374815260200161139981526020016113b381526020016111b3815260200161137481526020016111b381526020016111b3815260200161136a81526020016111bd81526020016111b381526020016111b3815260200161136a815260200161136a81526020016113bd81526020016113bd81526020016113bd81526020016113bd81526020016111b381526020016111bd81526020016113bd81526020016111a981526020016111bd81526020016111bd81526020016111bd81526020016111bd81526020016111b381526020016111bd81526020016111bd81526020016111bd81526020016111bd81526020016111bd81526020016113bd81526020016113bd81526020016113bd81526020016113bd81526020016111b381526020016111bd81526020016111bd81526020016111b381526020016111bd81526020016111bd81526020016111b381526020016111b381526020016111bd81526020016113bd81526020016113bd81526020016111bd81526020016113b381525090506060819050604b815114610ba35780516040517fc8b569010000000000000000000000000000000000000000000000000000000081526004810191909152602481018490526044016106b2565b610bac816113d7565b94505050505090565b6020810680820384015b80851015610bda578451845260209485019490930192610bbf565b508015610c15577fffffffffffffffffffffffffffffffffffffffffffffffffffffffffffffffff600882021c808451168119865116178452505b50505050565b60008151600003610c2e57506000919050565b506020015160001a90565b6000610c4482610c1b565b90508015610e165781516001600283020190811115610c9157826040517f17f4bc5e0000000000000000000000000000000000000000000000000000000081526004016106b2919061190d565b82516020828501810191850101602160027fffffffffffffffffffffffffffffffffffffffffffffffffffffffffffffffff860102860181019086015b808210610dd257815160f01c8481016004810185811115610d1c57896040517e39ba560000000000000000000000000000000000000000000000000000000081526004016106b2919061190d565b8151600081901a90600181901a90600281901a9060031a80821180610d4057508281115b15610d7b578d876040517feaf45f4f0000000000000000000000000000000000000000000000000000000081526004016106b2929190611b72565b505050600481028201878114610dbf578b6040517ffbb8027a0000000000000000000000000000000000000000000000000000000081526004016106b2919061190d565b8397506002870396505050505050610cce565b838314610e0d57866040517fde67b29a0000000000000000000000000000000000000000000000000000000081526004016106b2919061190d565b50505050505050565b600182511115610e5457816040517fd013da5d0000000000000000000000000000000000000000000000000000000081526004016106b2919061190d565b5050565b6000806000610e678585610ee9565b51600281901a9660039190911a95509350505050565b610eb66040518060c001604052806000815260200160008152602001600081526020016060815260200160008152602001606081525090565b506040805160c081018252838152602081018490529081019290925260608201526000608082015260a081019190915290565b600080610ef584610c1b565b60020260010190506000610f098585611468565b949091019093016020019392505050565b600080610f278484610ee9565b5160001a949350505050565b600080610f408484610ee9565b5160011a949350505050565b8151600090819061ffff8416908110610fa857608085015185516040517feaa16f3300000000000000000000000000000000000000000000000000000000815260048101929092526024820152604481018290526064016106b2565b8460400151811115610fbc57604085018190525b506000946001945092505050565b60008060008361ffff1690508460600151518110610fbc5760808501516060860151516040517feb78945400000000000000000000000000000000000000000000000000000000815260048101929092526024820152604481018290526064016106b2565b60008060008361ffff16905060008560600151828151811061105357611053611b94565b6020026020010151905060008061106d839060a082901c90565b9150915061109b827f08b5f05c000000000000000000000000000000000000000000000000000000006114bf565b6110e9576040517f23016c8900000000000000000000000000000000000000000000000000000000815273ffffffffffffffffffffffffffffffffffffffff831660048201526024016106b2565b6040517fbeef26df00000000000000000000000000000000000000000000000000000000815260048101829052600f601089901c81166024830181905260148a901c90911660448301819052909173ffffffffffffffffffffffffffffffffffffffff85169063beef26df906064016040805180830381865afa158015611174573d6000803e3d6000fd5b505050506040513d601f19601f820116820180604052508101906111989190611bc3565b975097505050505050509250929050565b5060009160019150565b5060029160019150565b50600191829150565b6000806111d384846111e1565b506001958695509350505050565b60008060ff80841690600885901c16808303611229576040517f46f0ca6900000000000000000000000000000000000000000000000000000000815260040160405180910390fd5b6101006112368284611be7565b1115611278576040517f8abcdd3f00000000000000000000000000000000000000000000000000000000815260048101839052602481018290526044016106b2565b50600295600195509350505050565b60008061ffff831660ff81118061129c575080155b156112d6576040517fc1be16a1000000000000000000000000000000000000000000000000000000008152600481018290526024016106b2565b5060019485945092505050565b60008060008361ffff1690506000601485901c90506000806113098860a0015185610e58565b9150915082811015611351576040517fff13710800000000000000000000000000000000000000000000000000000000815260048101829052602481018490526044016106b2565b50969095509350505050565b60101c600f169160019150565b5060039160019150565b600080600f601084901c168061138b57600161138d565b805b95600195509350505050565b600080600f601084901c166002811161138b57600261138d565b5060029160009150565b600080600f601084901c166001811161138b57600261138d565b60606000825160020267ffffffffffffffff8111156113f8576113f8611732565b6040519080825280601f01601f191660200182016040528015611422576020820181803683370190505b50905061ffff80196020850160208651028101600285015b8183101561145c5780518351861690851617815260209092019160020161143a565b50939695505050505050565b600061147383610c1b565b82106114af5781836040517ffcfaeff10000000000000000000000000000000000000000000000000000000081526004016106b2929190611c21565b50600202016003015161ffff1690565b60006114ca836114db565b80156103da57506103da838361153f565b6000611507827f01ffc9a70000000000000000000000000000000000000000000000000000000061153f565b80156102f05750611538827fffffffff0000000000000000000000000000000000000000000000000000000061153f565b1592915050565b604080517fffffffff000000000000000000000000000000000000000000000000000000008316602480830191909152825180830390910181526044909101909152602080820180517bffffffffffffffffffffffffffffffffffffffffffffffffffffffff167f01ffc9a700000000000000000000000000000000000000000000000000000000178152825160009392849283928392918391908a617530fa92503d915060005190508280156115f7575060208210155b80156116035750600081115b979650505050505050565b611616611c42565b565b60006020828403121561162a57600080fd5b81357fffffffff00000000000000000000000000000000000000000000000000000000811681146103da57600080fd5b6000806020838503121561166d57600080fd5b823567ffffffffffffffff8082111561168557600080fd5b818501915085601f83011261169957600080fd5b8135818111156116a857600080fd5b8660208285010111156116ba57600080fd5b60209290920196919550909350505050565b6020808252825182820182905280516040840181905260009291820190839060608601905b8083101561172757835173ffffffffffffffffffffffffffffffffffffffff1682529284019260019290920191908401906116f1565b509695505050505050565b7f4e487b7100000000000000000000000000000000000000000000000000000000600052604160045260246000fd5b6040516020810167ffffffffffffffff8111828210171561178457611784611732565b60405290565b604051601f82017fffffffffffffffffffffffffffffffffffffffffffffffffffffffffffffffe016810167ffffffffffffffff811182821017156117d1576117d1611732565b604052919050565b600067ffffffffffffffff8211156117f3576117f3611732565b50601f017fffffffffffffffffffffffffffffffffffffffffffffffffffffffffffffffe01660200190565b60006020828403121561183157600080fd5b813567ffffffffffffffff81111561184857600080fd5b8201601f8101841361185957600080fd5b803561186c611867826117d9565b61178a565b81815285602083850101111561188157600080fd5b81602084016020830137600091810160200191909152949350505050565b60005b838110156118ba5781810151838201526020016118a2565b50506000910152565b600081518084526118db81602086016020860161189f565b601f017fffffffffffffffffffffffffffffffffffffffffffffffffffffffffffffffe0169290920160200192915050565b6020815260006103da60208301846118c3565b60208152816020820152818360408301376000818301604090810191909152601f9092017fffffffffffffffffffffffffffffffffffffffffffffffffffffffffffffffe0160101919050565b600067ffffffffffffffff82111561198757611987611732565b5060051b60200190565b600060208083850312156119a457600080fd5b825167ffffffffffffffff808211156119bc57600080fd5b81850191508282870312156119d057600080fd5b6119d8611761565b8251828111156119e757600080fd5b80840193505086601f8401126119fc57600080fd5b82519150611a0c6118678361196d565b82815260059290921b83018401918481019088841115611a2b57600080fd5b938501935b83851015611a6c57845173ffffffffffffffffffffffffffffffffffffffff81168114611a5d5760008081fd5b82529385019390850190611a30565b8252509695505050505050565b60008060408385031215611a8c57600080fd5b825167ffffffffffffffff80821115611aa457600080fd5b818501915085601f830112611ab857600080fd5b81516020611ac8611867836117d9565b8281528882848701011115611adc57600080fd5b611aeb8383830184880161189f565b87820151909650935082841115611b0157600080fd5b838701935087601f850112611b1557600080fd5b83519250611b256118678461196d565b83815260059390931b8401810192818101925088841115611b4557600080fd5b938101935b83851015611b6357845183529381019391810191611b4a565b80955050505050509250929050565b604081526000611b8560408301856118c3565b90508260208301529392505050565b7f4e487b7100000000000000000000000000000000000000000000000000000000600052603260045260246000fd5b60008060408385031215611bd657600080fd5b505080516020909101519092909150565b808201808211156102f0577f4e487b7100000000000000000000000000000000000000000000000000000000600052601160045260246000fd5b828152604060208201526000611c3a60408301846118c3565b949350505050565b7f4e487b7100000000000000000000000000000000000000000000000000000000600052605160045260246000fdfe0f4c0fca102f11a911b311b311bd11c611e11287128712e3135d136a11b311bd136a11b311bd11b311b311bd11a911a911a911a911a91374139913b311b3137411b311b3136a11bd11b311b3136a136a13bd13bd13bd13bd11b311bd13bd11a911bd11bd11bd11bd11b311bd11bd11bd11bd11bd13bd13bd13bd13bd11b311bd11bd11b311bd11bd11b311b311bd13bd13bd11bd13b3fee767105c6c61d954e857509e83c39f1352e9ad804e9e9eb297493462c784ce0913de8e0b36ea4fde9df417b198d01eba3e5cb78da1c5c6bbc50bea09444023","linkReferences":{}}}