{
  "abi": [
    {
      "inputs": [
        {
          "internalType": "uint256",
          "name": "length",
          "type": "uint256"
        }
      ],
      "name": "OddSetLength",
      "type": "error"
    },
    {
      "anonymous": false,
      "inputs": [
        {
          "indexed": false,
          "internalType": "FullyQualifiedNamespace",
          "name": "namespace",
          "type": "uint256"
        },
        {
          "indexed": false,
          "internalType": "uint256",
          "name": "key",
          "type": "uint256"
        },
        {
          "indexed": false,
          "internalType": "uint256",
          "name": "value",
          "type": "uint256"
        }
      ],
      "name": "Set",
      "type": "event"
    },
    {
      "inputs": [
        {
          "internalType": "FullyQualifiedNamespace",
          "name": "namespace",
          "type": "uint256"
        },
        {
          "internalType": "uint256",
          "name": "key",
          "type": "uint256"
        }
      ],
      "name": "get",
      "outputs": [
        {
          "internalType": "uint256",
          "name": "",
          "type": "uint256"
        }
      ],
      "stateMutability": "view",
      "type": "function"
    },
    {
      "inputs": [
        {
          "internalType": "StateNamespace",
          "name": "namespace",
          "type": "uint256"
        },
        {
          "internalType": "uint256[]",
          "name": "kvs",
          "type": "uint256[]"
        }
      ],
      "name": "set",
      "outputs": [],
      "stateMutability": "nonpayable",
      "type": "function"
    },
    {
      "inputs": [
        {
          "internalType": "bytes4",
          "name": "interfaceId",
          "type": "bytes4"
        }
      ],
      "name": "supportsInterface",
      "outputs": [
        {
          "internalType": "bool",
          "name": "",
          "type": "bool"
        }
      ],
      "stateMutability": "view",
      "type": "function"
    }
  ],
  "bytecode": {
    "object": "0x6080604052348015600f57600080fd5b506103b98061001f6000396000f3fe608060405234801561001057600080fd5b50600436106100415760003560e01c806301ffc9a714610046578063669e48aa1461006e578063946aadc6146100a5575b600080fd5b610059610054366004610265565b6100ba565b60405190151581526020015b60405180910390f35b61009761007c3660046102ae565b60009182526020828152604080842092845291905290205490565b604051908152602001610065565b6100b86100b33660046102d0565b610153565b005b60007fffffffff0000000000000000000000000000000000000000000000000000000082167ff2f4e56c00000000000000000000000000000000000000000000000000000000148061014d57507f01ffc9a7000000000000000000000000000000000000000000000000000000007fffffffff000000000000000000000000000000000000000000000000000000008316145b92915050565b61015e60028261034f565b1561019c576040517f01c71f3d0000000000000000000000000000000000000000000000000000000081526004810182905260240160405180910390fd5b60008381523360205260408120905b8281101561025e5760008484838181106101c7576101c761038a565b90506020020135905060008585846001018181106101e7576101e761038a565b9050602002013590507f0b21d5252af0bf3501a80676d626577e67cf86107154a76664b5b7994cc8fd8c848383604051610234939291909283526020830191909152604082015260600190565b60405180910390a160008481526020818152604080832094835293905291909120556002016101ab565b5050505050565b60006020828403121561027757600080fd5b81357fffffffff00000000000000000000000000000000000000000000000000000000811681146102a757600080fd5b9392505050565b600080604083850312156102c157600080fd5b50508035926020909101359150565b6000806000604084860312156102e557600080fd5b83359250602084013567ffffffffffffffff8082111561030457600080fd5b818601915086601f83011261031857600080fd5b81358181111561032757600080fd5b8760208260051b850101111561033c57600080fd5b6020830194508093505050509250925092565b600082610385577f4e487b7100000000000000000000000000000000000000000000000000000000600052601260045260246000fd5b500690565b7f4e487b7100000000000000000000000000000000000000000000000000000000600052603260045260246000fd",
    "linkReferences": {}
  },
  "methodIdentifiers": {
    "get(uint256,uint256)": "669e48aa",
    "set(uint256,uint256[])": "946aadc6",
    "supportsInterface(bytes4)": "01ffc9a7"
  },
  "id": 131
}