{
  "abi": [
    {
      "inputs": [],
      "name": "DanglingSource",
      "type": "error"
    },
    {
      "inputs": [
        {
          "internalType": "uint256",
          "name": "offset",
          "type": "uint256"
        }
      ],
      "name": "DecimalLiteralOverflow",
      "type": "error"
    },
    {
      "inputs": [
        {
          "internalType": "uint256",
          "name": "errorOffset",
          "type": "uint256"
        }
      ],
      "name": "DuplicateLHSItem",
      "type": "error"
    },
    {
      "inputs": [
        {
          "internalType": "uint256",
          "name": "offset",
          "type": "uint256"
        }
      ],
      "name": "ExcessLHSItems",
      "type": "error"
    },
    {
      "inputs": [
        {
          "internalType": "uint256",
          "name": "offset",
          "type": "uint256"
        }
      ],
      "name": "ExcessRHSItems",
      "type": "error"
    },
    {
      "inputs": [
        {
          "internalType": "uint256",
          "name": "offset",
          "type": "uint256"
        }
      ],
      "name": "ExpectedLeftParen",
      "type": "error"
    },
    {
      "inputs": [
        {
          "internalType": "uint256",
          "name": "offset",
          "type": "uint256"
        }
      ],
      "name": "ExpectedOperand",
      "type": "error"
    },
    {
      "inputs": [
        {
          "internalType": "uint256",
          "name": "offset",
          "type": "uint256"
        }
      ],
      "name": "HexLiteralOverflow",
      "type": "error"
    },
    {
      "inputs": [
        {
          "internalType": "uint256",
          "name": "offset",
          "type": "uint256"
        }
      ],
      "name": "MalformedCommentStart",
      "type": "error"
    },
    {
      "inputs": [
        {
          "internalType": "uint256",
          "name": "offset",
          "type": "uint256"
        }
      ],
      "name": "MalformedExponentDigits",
      "type": "error"
    },
    {
      "inputs": [
        {
          "internalType": "uint256",
          "name": "offset",
          "type": "uint256"
        }
      ],
      "name": "MalformedHexLiteral",
      "type": "error"
    },
    {
      "inputs": [],
      "name": "MaxSources",
      "type": "error"
    },
    {
      "inputs": [
        {
          "internalType": "uint256",
          "name": "offset",
          "type": "uint256"
        }
      ],
      "name": "MissingFinalSemi",
      "type": "error"
    },
    {
      "inputs": [
        {
          "internalType": "uint256",
          "name": "offset",
          "type": "uint256"
        }
      ],
      "name": "NotAcceptingInputs",
      "type": "error"
    },
    {
      "inputs": [
        {
          "internalType": "uint256",
          "name": "offset",
          "type": "uint256"
        }
      ],
      "name": "OddLengthHexLiteral",
      "type": "error"
    },
    {
      "inputs": [
        {
          "internalType": "uint256",
          "name": "offset",
          "type": "uint256"
        }
      ],
      "name": "OperandOverflow",
      "type": "error"
    },
    {
      "inputs": [],
      "name": "ParenOverflow",
      "type": "error"
    },
    {
      "inputs": [],
      "name": "ParserOutOfBounds",
      "type": "error"
    },
    {
      "inputs": [],
      "name": "StackOverflow",
      "type": "error"
    },
    {
      "inputs": [],
      "name": "StackUnderflow",
      "type": "error"
    },
    {
      "inputs": [
        {
          "internalType": "uint256",
          "name": "offset",
          "type": "uint256"
        }
      ],
      "name": "UnclosedLeftParen",
      "type": "error"
    },
    {
      "inputs": [
        {
          "internalType": "uint256",
          "name": "offset",
          "type": "uint256"
        }
      ],
      "name": "UnclosedOperand",
      "type": "error"
    },
    {
      "inputs": [
        {
          "internalType": "uint256",
          "name": "offset",
          "type": "uint256"
        }
      ],
      "name": "UnexpectedComment",
      "type": "error"
    },
    {
      "inputs": [
        {
          "internalType": "uint256",
          "name": "offset",
          "type": "uint256"
        }
      ],
      "name": "UnexpectedLHSChar",
      "type": "error"
    },
    {
      "inputs": [
        {
          "internalType": "uint256",
          "name": "offset",
          "type": "uint256"
        }
      ],
      "name": "UnexpectedOperand",
      "type": "error"
    },
    {
      "inputs": [
        {
          "internalType": "uint256",
          "name": "offset",
          "type": "uint256"
        }
      ],
      "name": "UnexpectedRHSChar",
      "type": "error"
    },
    {
      "inputs": [
        {
          "internalType": "uint256",
          "name": "offset",
          "type": "uint256"
        }
      ],
      "name": "UnexpectedRightParen",
      "type": "error"
    },
    {
      "inputs": [
        {
          "internalType": "uint256",
          "name": "offset",
          "type": "uint256"
        }
      ],
      "name": "UnknownWord",
      "type": "error"
    },
    {
      "inputs": [
        {
          "internalType": "uint256",
          "name": "offset",
          "type": "uint256"
        }
      ],
      "name": "UnsupportedLiteralType",
      "type": "error"
    },
    {
      "inputs": [
        {
          "internalType": "string",
          "name": "word",
          "type": "string"
        }
      ],
      "name": "WordSize",
      "type": "error"
    },
    {
      "inputs": [
        {
          "internalType": "uint256",
          "name": "offset",
          "type": "uint256"
        }
      ],
      "name": "ZeroLengthDecimal",
      "type": "error"
    },
    {
      "inputs": [
        {
          "internalType": "uint256",
          "name": "offset",
          "type": "uint256"
        }
      ],
      "name": "ZeroLengthHexLiteral",
      "type": "error"
    },
    {
      "inputs": [
        {
          "internalType": "bytes",
          "name": "data",
          "type": "bytes"
        }
      ],
      "name": "parse",
      "outputs": [
        {
          "internalType": "bytes",
          "name": "",
          "type": "bytes"
        },
        {
          "internalType": "uint256[]",
          "name": "",
          "type": "uint256[]"
        }
      ],
      "stateMutability": "pure",
      "type": "function"
    },
    {
      "inputs": [
        {
          "internalType": "bytes4",
          "name": "interfaceId",
          "type": "bytes4"
        }
      ],
      "name": "supportsInterface",
      "outputs": [
        {
          "internalType": "bool",
          "name": "",
          "type": "bool"
        }
      ],
      "stateMutability": "view",
      "type": "function"
    }
  ],
  "bytecode": {
    "object": "0x608060405234801561001057600080fd5b50612e41806100206000396000f3fe608060405234801561001057600080fd5b50600436106100365760003560e01c806301ffc9a71461003b578063fab4087a14610063575b600080fd5b61004e610049366004612a5b565b610084565b60405190151581526020015b60405180910390f35b610076610071366004612ad3565b61011d565b60405161005a929190612c06565b60007fffffffff0000000000000000000000000000000000000000000000000000000082167ffab4087a00000000000000000000000000000000000000000000000000000000148061011757507f01ffc9a7000000000000000000000000000000000000000000000000000000007fffffffff000000000000000000000000000000000000000000000000000000008316145b92915050565b6060806101318361012c61013a565b61015d565b91509150915091565b606060405180610180016040528061014c8152602001612cf561014c9139905090565b606080600061016a6109ce565b8551909150156109af578451600090602087810191880101825b8183101561090c576001835160001a1b905060018560e001511660000361049e576f07fffffe8000000000000000000000008116156103465760e08501516002161561022e578883037fffffffffffffffffffffffffffffffffffffffffffffffffffffffffffffffe0015b6040517f5520a51700000000000000000000000000000000000000000000000000000000815260040161022591815260200190565b60405180910390fd5b6f07fffffe0000000000000000000000008116156102da57610260836f07fffffe0000000003ff200000000000610b3d565b945092506000806102718787610bee565b9150915081156102d3576040517f53e6feba0000000000000000000000000000000000000000000000000000000081527fffffffffffffffffffffffffffffffffffffffffffffffffffffffffffffffe08c8703016004820152602401610225565b50506102fb565b6102f860018401836f07fffffe0000000003ff200000000000610c65565b92505b604085018051600190810190915260a086018051909101905260e0850180516022177fffffffffffffffffffffffffffffffffffffffffffffffffffffffffffffffef169052610184565b640100002600811615610397576103666001840183640100002600610c65565b60e0860180517ffffffffffffffffffffffffffffffffffffffffffffffffffffffffffffffffd1690529250610184565b6704000000000000008116156103e05760e0850180516021177fffffffffffffffffffffffffffffffffffffffffffffffffffffffffffffffed16905260019290920191610184565b658000000000008116156104745760108560e0015116600003610458578883037fffffffffffffffffffffffffffffffffffffffffffffffffffffffffffffffe0015b6040517fedad0c5800000000000000000000000000000000000000000000000000000000815260040161022591815260200190565b6104628984610c91565b60e08601805160021790529250610184565b8883037fffffffffffffffffffffffffffffffffffffffffffffffffffffffffffffffe0016101f0565b6f07fffffe0000000000000000000000008116156106335760e08501516002161561051e578883037fffffffffffffffffffffffffffffffffffffffffffffffffffffffffffffffe0015b6040517f4e803df600000000000000000000000000000000000000000000000000000000815260040161022591815260200190565b610538836f07fffffe0000000003ff200000000000610b3d565b8095508194505050600080612a516105568b896101a0015189610d9d565b92509250925082156105995760006105788961018001518e898563ffffffff16565b9097509050610588898483610e6d565b5060e0880180516004179052610620565b6105a38888610faa565b909350915082156105c8576105ba88600084610e6d565b6105c388611025565b610620565b6040517f81bd48db0000000000000000000000000000000000000000000000000000000081527fffffffffffffffffffffffffffffffffffffffffffffffffffffffffffffffe08d8803016004820152602401610225565b50505060e0850180516002179052610184565b60e085015160041615610729576501000000000081166000036106a8576040517f23b5c6ea0000000000000000000000000000000000000000000000000000000081527fffffffffffffffffffffffffffffffffffffffffffffffffffffffffffffffe08a8503016004820152602401610225565b60608501805160001a60030190819053603b8111156106f3576040517f6232f2d900000000000000000000000000000000000000000000000000000000815260040160405180910390fd5b5060e0850180517ffffffffffffffffffffffffffffffffffffffffffffffffffffffffffffffff9169052600190920191610184565b650200000000008116156107fa576000606086015160001a9050806000036107a3576040517f7f9db5420000000000000000000000000000000000000000000000000000000081527fffffffffffffffffffffffffffffffffffffffffffffffffffffffffffffffe08b8603016004820152602401610225565b7ffffffffffffffffffffffffffffffffffffffffffffffffffffffffffffffffd01606086018181538160048201015160001a8260028301015160f01c60010153506107ee86611025565b50600190920191610184565b64010000260081161561081a576103666001840183640100002600610c65565b6703ff00000000000081161561085057610835858a8561108a565b925061084085611025565b60e0850180516002179052610184565b6510000000000081161561087457610869858a856111dc565b600190920191610184565b6708000000000000008116156108aa5761088f858a856111dc565b610898856114af565b601860e0860152600190920191610184565b658000000000008116156108e2578883037fffffffffffffffffffffffffffffffffffffffffffffffffffffffffffffffe001610423565b8883037fffffffffffffffffffffffffffffffffffffffffffffffffffffffffffffffe0016104e9565b818314610945576040517f7d565df600000000000000000000000000000000000000000000000000000000815260040160405180910390fd5b60e0850151602016156109aa576040517ff06f54cf0000000000000000000000000000000000000000000000000000000081527fffffffffffffffffffffffffffffffffffffffffffffffffffffffffffffffe08a8503016004820152602401610225565b505050505b6109b8816116f2565b6109c18261182a565b92509250505b9250929050565b610a47604051806101e001604052806000815260200160008152602001600081526020016000815260200160008152602001600081526020016000815260200160008152602001600081526020016000815260200160008152602001600081526020016000815260200160008152602001600081525090565b6000604051806101e00160405280600081526020016000815260200160008152602001600081526020016000815260200160008152602001600081526020016010600817815260200160008152602001600081526020016000815260200160008152602001610abc61207f60101b611dd31790565b8152602001610ae66127b660401b61264560301b6124e960201b6123db60101b61233e1717171790565b8152600060209182018190526040805183815280840182528452918301819052908201819052606082018190526080820181905260a08201819052610100820181905261012082018190526101c082015292915050565b8151600090819060015b8419600183831a1b1615602082101615610b6357600101610b47565b9485019460208190036008810292831c90921b91610be557604080516020810184905201604080517fffffffffffffffffffffffffffffffffffffffffffffffffffffffffffffffe0818403018152908290527fe47fe8b700000000000000000000000000000000000000000000000000000000825261022591600401612c5d565b50939492505050565b600080610bfb8484610faa565b9092509050816109c757506101008301805160408051948552602080862092865285018152909401517fffffffffffffffffffffffffffffffffffffffffffffffffffffffff00000000909416601085901b62ff000016179092179091529160ff90911660010190565b60005b6000826001865160001a1b16118385101615610c8957600184019350610c68565b509192915050565b805160009060f01c612f2a8114610cfa576040517f3e47169c0000000000000000000000000000000000000000000000000000000081527fffffffffffffffffffffffffffffffffffffffffffffffffffffffffffffffe0858503016004820152602401610225565b835160029390930192602a90602f90860160200160005b80610d57575b81871084885160001a14151615610d3357600187019650610d17565b6001870196508187101583885160001a141715610d5257506001958601955b610d11565b5080861115610d92576040517f7d565df600000000000000000000000000000000000000000000000000000000815260040160405180910390fd5b509395945050505050565b600183810180516000928392612a5192602160ff909116028801600681019201845b81831015610e55576001830151602190930180519093600090819060ff168180610de9838f61189f565b91509150600087610dfe6001850389166118c1565b016005028b015195505062ffffff9081169350841683039150610e409050575060019850601b81901a9750601c1a8a901c61ffff169550610e64945050505050565b610e49836118c1565b84019350505050610dbf565b50600095508594508493505050505b93509350939050565b610e768361199a565b60e08301805160207ffffffffffffffffffffffffffffffffffffffffffffffffffffffffffffffff79190911681179091528301516021600091821a850101805190911a600101815350825180516060850151600090811a86016061018051929361ffff85169360088504909103601c0192600191901a018153600060038201537fffffffffffffffffffffffffffffffffffffffffffffffffffffffffffffffe30180517fffffffffffffffffffffffffffffffffffffffffffffffffffffffffffff00001690911790528451602090920183821b176018820185901b179182905260e0819003610fa3578451604080518088526020601084901b81178252810190915281517fffffffffffffffffffffffffffffffffffffffffffffffffffffffffffff0000161790525b5050505050565b61010082015161012083015160008381526020808220919384939290911c91600160ff84161b808216156110105761ffff83165b801561100e578360201c8503611001576001965061ffff8460101c16955061100e565b51925061ffff8316610fde565b505b17610120909601959095525090939092509050565b6000606082015160001a9050806000036110865760208201805160001a600101908181535080603f03611084576040517fa25cba3100000000000000000000000000000000000000000000000000000000815260040160405180910390fd5b505b5050565b6000612a5160008060006110a488610180015188886119e4565b8981038a206101408d015194985092965090945092507fffffffffffffffffffffffffffffffffffffffffffffffffffffffffffff000016906001600083811a82901b9290919083161561114a576101608c015160101c5b80156111485780517fffffffffffffffffffffffffffffffffffffffffffffffffffffffffffff000081168603611137576001935050611148565b505160019091019061ffff166110fc565b505b6101608c015161ffff166111706001846111645782611168565b8383035b8f9190610e6d565b50816111cc57604080518082019091526101608d015160101c85178152600061119e8d8a8a63ffffffff8e16565b6020830152506101608d018051600161ffff9091160160109290921b9190911790526101408c018051841790525b50929a9950505050505050505050565b606083015160001a8015611242576040517f6fb11cdc0000000000000000000000000000000000000000000000000000000081527fffffffffffffffffffffffffffffffffffffffffffffffffffffffffffffffe0848403016004820152602401610225565b5061124c8361199a565b60e083018051603060089182161790915260a0840151602085015160ff8083169360f89290921c9290911c16810360008190036113155760088660e00151166000036112ea576040517fab1d3ea70000000000000000000000000000000000000000000000000000000081527fffffffffffffffffffffffffffffffffffffffffffffffffffffffffffffffe0868603016004820152602401610225565b90820160f881901b60208701526101c086015190919061130a9084611ca7565b6101c08701526113de565b60018111156113de578083101561137e576040517f78ef27820000000000000000000000000000000000000000000000000000000081527fffffffffffffffffffffffffffffffffffffffffffffffffffffffffffffffe0868603016004820152602401610225565b808311156113de576040517f43168e680000000000000000000000000000000000000000000000000000000081527fffffffffffffffffffffffffffffffffffffffffffffffffffffffffffffffe0868603016004820152602401610225565b8082036001016020601083028101905b8181101561149a5760a08901516020848b01015190821c61ffff169060001a60015b8181116114895760208306601c0361142957915160f01c915b82516101c08d015160019190911a906114429082611cef565b6101c08e0152611473828414801561145a5750886001145b611465576001611467565b8a5b6101c08f015190611d36565b6101c08e01525060049290920191600101611410565b5050600190930192506010016113ee565b5050505060081b60a090940193909352505050565b60c0810151602082015160f082811c9160001a600101908290036114ff576040517fa806284100000000000000000000000000000000000000000000000000000000815260040160405180910390fd5b600080856101c001519050855161ffff815160101c165b801561152d57805190915060101c61ffff16611516565b50604051602188018051919450601c830192916004916024870191600090811a805b8a8310156116155760048202860195506004878903045b8082111561158457965161ffff16601c810198509690036007611566565b506004810297889003805186529794909401938103865b60078211156115e0575160101c61ffff1680518652601c909501947ffffffffffffffffffffffffffffffffffffffffffffffffffffffffffffffff99091019061159b565b81156115fb575160101c61ffff168051865260048202909501945b505050600191820180519092919091019060001a8061154f565b50505050818652600486019350846001600484040360181b1763ffffffff19855116178452601f19601f820116604052505050506001846001901b61165a9190612c9f565b851682851b60f061166c876010612cb2565b901b171760c087015260e0860180517fffffffffffffffffffffffffffffffffffffffffffffffffffffffffffffffdf16905260408051602080825280820183529088526000908801819052908701819052606087018190526080870181905260a08701819052610100870181905261012087018190526101c087015250505b50505050565b60c08101518151516060919060f082901c906020811461173e576040517f858f2dcf00000000000000000000000000000000000000000000000000000000815260040160405180910390fd5b604051935060208401601083046000818353506001600885048301810192839101600080805b8881101561179d5789811c61ffff81165163ffff0000601092831b16811760e01b8786015284019360f08390031b929092179101611764565b50825117909152878203017fffffffffffffffffffffffffffffffffffffffffffffffffffffffffffffffe08181018952908801601f011660405260005b8281101561181e576002810288016003015161ffff90811683018051602060f082901c019260e09190911c1690611813838284611d6e565b5050506001016117db565b50505050505050919050565b6101608101516040805161ffff8316808252602080820283019081019093529092909160109190911c90835b808211156118965760208301518252915161ffff16917fffffffffffffffffffffffffffffffffffffffffffffffffffffffffffffffe090910190611856565b50505050919050565b60008082600052836020536021600020905060018160001a1b91509250929050565b60007fffffffffffffffffffffffffffffffffffffffffffffffffffffffffffffffff82036118f35750610100919050565b507f0f0f0f0f0f0f0f0f0f0f0f0f0f0f0f0f0f0f0f0f0f0f0f0f0f0f0f0f0f0f0f0f7f5555555555555555555555555555555555555555555555555555555555555555600183901c16909103600281901c7f3333333333333333333333333333333333333333333333333333333333333333908116911601600481901c01167f01010101010101010101010101010101010101010101010101010101010101010260f81c90565b60208101805160001a6001810182015160001a611084578251805160a085018051600861ffff939093169290920460200390920160106001601e84901a860301021b179052505050565b8051612a519060009081908190600181831a1b6703ff000000000000811615611c0657600182811a1b7ffffffffffffffffffffffffffffffffffeffffffffffffffffff00000000000082821701611ac05760028801806c7e0000007e03ff0000000000005b806001835160001a1b1615611a6457600182019150611a4a565b508a5161ffff8d16908c0160200180831115611aac576040517f7d565df600000000000000000000000000000000000000000000000000000000815260040160405180910390fd5b5098509096509450849350611c9e92505050565b876001810160006703ff0000000000006c200000002000000000000000005b816001855160001a1b1615611af957600184019350611adf565b806001855160001a1b1615611b2a57600184019392505b816001855160001a1b1615611b2a57600184019350611b10565b50508015801590611b49575080600301821180611b4957508060010182145b15611ba6576040517f013b2aaa0000000000000000000000000000000000000000000000000000000081527fffffffffffffffffffffffffffffffffffffffffffffffffffffffffffffffe08d8303016004820152602401610225565b8b5161ffff60108f901c16908d0160200180841115611bf1576040517f7d565df600000000000000000000000000000000000000000000000000000000815260040160405180910390fd5b5099509197509550859450611c9e9350505050565b87518801602001808810611c46576040517f7d565df600000000000000000000000000000000000000000000000000000000815260040160405180910390fd5b6040517fb0e4e5b30000000000000000000000000000000000000000000000000000000081527fffffffffffffffffffffffffffffffffffffffffffffffffffffffffffffffe08a8a03016004820152602401610225565b93509350935093565b6000611cb38383611d36565b9250507fffffffffffffffffffffffffffffffffffffffffffffffffffffffffffff00ff821660ff600884811c919091168301901b1792915050565b600060ff831682811015611d2f576040517f04671d0000000000000000000000000000000000000000000000000000000000815260040160405180910390fd5b5050900390565b600060ff808416830190600885901c16601085901c80831115611d565750815b601081901b600883901b841717935050505092915050565b6020810680820384015b80851015611d93578451845260209485019490930192611d78565b5080156116ec577fffffffffffffffffffffffffffffffffffffffffffffffffffffffffffffffff600882021c8084511681198651161784525050505050565b60008282036040811115611e39576040517fff2f59490000000000000000000000000000000000000000000000000000000081527fffffffffffffffffffffffffffffffffffffffffffffffffffffffffffffffe0868603016004820152602401610225565b80600003611e99576040517fc75cd5090000000000000000000000000000000000000000000000000000000081527fffffffffffffffffffffffffffffffffffffffffffffffffffffffffffffffe0868603016004820152602401610225565b60028106600103611efc576040517fd76d9b570000000000000000000000000000000000000000000000000000000081527fffffffffffffffffffffffffffffffffffffffffffffffffffffffffffffffe0868603016004820152602401610225565b7fffffffffffffffffffffffffffffffffffffffffffffffffffffffffffffffff830160005b858210612075578151600090811a906001821b906703ff000000000000821615611f6f57507fffffffffffffffffffffffffffffffffffffffffffffffffffffffffffffffd0820161203f565b6c7e000000000000000000000000821615611fad57507fffffffffffffffffffffffffffffffffffffffffffffffffffffffffffffffa9820161203f565b687e0000000000000000821615611fe757507fffffffffffffffffffffffffffffffffffffffffffffffffffffffffffffffc9820161203f565b6040517f69f1e3e60000000000000000000000000000000000000000000000000000000081527fffffffffffffffffffffffffffffffffffffffffffffffffffffffffffffffe08b8703016004820152602401610225565b831b959095179450507fffffffffffffffffffffffffffffffffffffffffffffffffffffffffffffffff90910190600401611f22565b5050509392505050565b7ffffffffffffffffffffffffffffffffffffffffffffffffffffffffffffffffd8101516000908190603090829080821a8787036003811180156120d457506001821b6c200000002000000000000000001615155b156120f657600488039550600a858460011a0302858460021a030193506121a2565b8260011a915060028111801561211d57506001821b6c200000002000000000000000001615155b1561213557600388039550848360021a0393506121a2565b801561214a57600188039550600093506121a2565b6040517ffa65827e0000000000000000000000000000000000000000000000000000000081527fffffffffffffffffffffffffffffffffffffffffffffffffffffffffffffffe08b8b03016004820152602401610225565b5050505b8583101580156121b65750604d81105b156121fb57825160001a829003600a82900a0293909301927fffffffffffffffffffffffffffffffffffffffffffffffffffffffffffffffff909201916001016121a6565b85831061207557825160001a829003600181111561226e578784037fffffffffffffffffffffffffffffffffffffffffffffffffffffffffffffffe0015b6040517f8f2b5ffd00000000000000000000000000000000000000000000000000000000815260040161022591815260200190565b600a82900a81028581018611156122a9578885037fffffffffffffffffffffffffffffffffffffffffffffffffffffffffffffffe001612239565b9490940193507fffffffffffffffffffffffffffffffffffffffffffffffffffffffffffffffff909201915b85831061207557825160001a60308114612313578784037fffffffffffffffffffffffffffffffffffffffffffffffffffffffffffffffe001612239565b507fffffffffffffffffffffffffffffffffffffffffffffffffffffffffffffffff909201916122d5565b80516000908190600190821a1b7ffffffffffffffffffffffffffffffffffffffffffffffffff00000000000000081016123ca576040517ff8216c550000000000000000000000000000000000000000000000000000000081527fffffffffffffffffffffffffffffffffffffffffffffffffffffffffffffffe0868603016004820152602401610225565b83600092509250505b935093915050565b815181516000918291600190831a1b9085016020017ffffffffffffffffffffffffffffffffffffffffffffffffff00000000000000082016124db5761242a6001860182640100002600610c65565b9450600061243c888861ffff89612954565b90965090506124518683640100002600610c65565b8051909650600160009190911a1b925067400000000000000083146124cb578686037fffffffffffffffffffffffffffffffffffffffffffffffffffffffffffffffe0015b6040517f722cd24a00000000000000000000000000000000000000000000000000000000815260040161022591815260200190565b60018601945092506123d3915050565b8460009350935050506123d3565b815181516000918291600190831a1b9085016020017ffffffffffffffffffffffffffffffffffffffffffffffffff00000000000000082016125ea576125386001860182640100002600610c65565b94506000612549888860ff89612954565b90965090508061255f8784640100002600610c65565b965060006125708a8a60ff8b612954565b909850600881901b9290921791905061258f8885640100002600610c65565b8051909850600160009190911a1b945067400000000000000085146125d8578888037fffffffffffffffffffffffffffffffffffffffffffffffffffffffffffffffe001612496565b5060018701955093506123d392505050565b8585037fffffffffffffffffffffffffffffffffffffffffffffffffffffffffffffffe0015b6040517f24027dc400000000000000000000000000000000000000000000000000000000815260040161022591815260200190565b815181516000918291600190831a1b9085016020017ffffffffffffffffffffffffffffffffffffffffffffffffff00000000000000082016124db576126946001860182640100002600610c65565b80519095506001600091821a1b92507fffffffffffffffffffffffffffffffffffffffffffffffffc00000000000000083016126d2575060006126f7565b6126df8888600189612954565b90965090506126f48683640100002600610c65565b95505b85516001600091821a1b93507fffffffffffffffffffffffffffffffffffffffffffffffffc000000000000000840161273257506000612757565b61273f898960018a612954565b90975090506127548784640100002600610c65565b96505b8651600160009190911a81901b945081901b821767400000000000000085146127a4578888037fffffffffffffffffffffffffffffffffffffffffffffffffffffffffffffffe001612496565b60018801965094506123d39350505050565b815181516000918291600190831a1b9085016020017ffffffffffffffffffffffffffffffffffffffffffffffffff00000000000000082016125ea576128056001860182640100002600610c65565b94506000612816888860ff89612954565b909650905061282b8683640100002600610c65565b80519096506001600091821a1b93507fffffffffffffffffffffffffffffffffffffffffffffffffc00000000000000084016128695750600061288e565b612876898960018a612954565b909750905061288b8784640100002600610c65565b96505b86516001600091821a1b94507fffffffffffffffffffffffffffffffffffffffffffffffffc00000000000000085016128c9575060006128ee565b6128d68a8a60018b612954565b90985090506128eb8885640100002600610c65565b97505b8751600160009190911a1b9450600882901b8317600982901b176740000000000000008614612941578989037fffffffffffffffffffffffffffffffffffffffffffffffffffffffffffffffe001612496565b60018901975095506123d3945050505050565b80516000908190600190821a1b7fffffffffffffffffffffffffffffffffffffffffffffffffc00000000000000081016129b2578584037fffffffffffffffffffffffffffffffffffffffffffffffffffffffffffffffe001612610565b612a5160008060006129c58b8b8a6119e4565b935093509350935060006129de8b85858863ffffffff16565b905089811115612a40576040517f7480c7840000000000000000000000000000000000000000000000000000000081527fffffffffffffffffffffffffffffffffffffffffffffffffffffffffffffffe08c8b03016004820152602401610225565b909b909a5098505050505050505050565b612a59612cc5565b565b600060208284031215612a6d57600080fd5b81357fffffffff0000000000000000000000000000000000000000000000000000000081168114612a9d57600080fd5b9392505050565b7f4e487b7100000000000000000000000000000000000000000000000000000000600052604160045260246000fd5b600060208284031215612ae557600080fd5b813567ffffffffffffffff80821115612afd57600080fd5b818401915084601f830112612b1157600080fd5b813581811115612b2357612b23612aa4565b604051601f82017fffffffffffffffffffffffffffffffffffffffffffffffffffffffffffffffe0908116603f01168101908382118183101715612b6957612b69612aa4565b81604052828152876020848701011115612b8257600080fd5b826020860160208301376000928101602001929092525095945050505050565b6000815180845260005b81811015612bc857602081850181015186830182015201612bac565b5060006020828601015260207fffffffffffffffffffffffffffffffffffffffffffffffffffffffffffffffe0601f83011685010191505092915050565b604081526000612c196040830185612ba2565b82810360208481019190915284518083528582019282019060005b81811015612c5057845183529383019391830191600101612c34565b5090979650505050505050565b602081526000612a9d6020830184612ba2565b7f4e487b7100000000000000000000000000000000000000000000000000000000600052601160045260246000fd5b8181038181111561011757610117612c70565b8082018082111561011757610117612c70565b7f4e487b7100000000000000000000000000000000000000000000000000000000600052605160045260246000fdfe027d00684901a81690080001680a428200012000e04214921123004402000104498000000000000000000000200000000000000000000000000000000000000000000017004c42622c00479d440c006aa9392600f090c024002c65b11400ca0415030038245128007884592340ff9df634104c6c730200ea676008102aa23513004d56372e0061a8d8151005a76520004ae9ac0b00d5a68e2b0099dc041b003f22701c008007340e00d4a5b30d009bd3ec04008483ae1f0089e7e6213094028319009677b91200a92c3a0110d4fa8825006ab6aa0a200cae02062085d59f1100b9d1b133107595b616104070aa2a0015d98a1d0040ab0f0f00686f5c1800928cca2900cdcdd12d00fa56360710f14a3009201ec71b2240dca42d1a00792a602f0059461f31007b8cf21e0053f8d1300033bccc2700494f2c052091b7eb3210122a4d00102ddffc1000beccb0",
    "linkReferences": {}
  },
  "methodIdentifiers": {
    "parse(bytes)": "fab4087a",
    "supportsInterface(bytes4)": "01ffc9a7"
  },
  "id": 83
}