{"abi":[{"type":"function","name":"buildOpcodeFunctionPointers","inputs":[],"outputs":[{"name":"","type":"bytes","internalType":"bytes"}],"stateMutability":"view"},{"type":"function","name":"eval3","inputs":[{"name":"store","type":"address","internalType":"contract IInterpreterStoreV2"},{"name":"namespace","type":"uint256","internalType":"FullyQualifiedNamespace"},{"name":"bytecode","type":"bytes","internalType":"bytes"},{"name":"sourceIndex","type":"uint256","internalType":"SourceIndexV2"},{"name":"context","type":"uint256[][]","internalType":"uint256[][]"},{"name":"inputs","type":"uint256[]","internalType":"uint256[]"}],"outputs":[{"name":"","type":"uint256[]","internalType":"uint256[]"},{"name":"","type":"uint256[]","internalType":"uint256[]"}],"stateMutability":"view"},{"type":"function","name":"functionPointers","inputs":[],"outputs":[{"name":"","type":"bytes","internalType":"bytes"}],"stateMutability":"view"},{"type":"function","name":"supportsInterface","inputs":[{"name":"interfaceId","type":"bytes4","internalType":"bytes4"}],"outputs":[{"name":"","type":"bool","internalType":"bool"}],"stateMutability":"view"},{"type":"error","name":"BadDynamicLength","inputs":[{"name":"dynamicLength","type":"uint256","internalType":"uint256"},{"name":"standardOpsLength","type":"uint256","internalType":"uint256"}]},{"type":"error","name":"BadOutputsLength","inputs":[{"name":"expectedLength","type":"uint256","internalType":"uint256"},{"name":"actualLength","type":"uint256","internalType":"uint256"}]},{"type":"error","name":"ErrScaleDownPrecisionLoss","inputs":[{"name":"a","type":"uint256","internalType":"uint256"}]},{"type":"error","name":"InputsLengthMismatch","inputs":[{"name":"expected","type":"uint256","internalType":"uint256"},{"name":"actual","type":"uint256","internalType":"uint256"}]},{"type":"error","name":"IntegerOverflow","inputs":[{"name":"integer","type":"uint256","internalType":"uint256"},{"name":"max","type":"uint256","internalType":"uint256"}]},{"type":"error","name":"PRBMath_MulDiv18_Overflow","inputs":[{"name":"x","type":"uint256","internalType":"uint256"},{"name":"y","type":"uint256","internalType":"uint256"}]},{"type":"error","name":"PRBMath_MulDiv_Overflow","inputs":[{"name":"x","type":"uint256","internalType":"uint256"},{"name":"y","type":"uint256","internalType":"uint256"},{"name":"denominator","type":"uint256","internalType":"uint256"}]},{"type":"error","name":"PRBMath_UD60x18_Ceil_Overflow","inputs":[{"name":"x","type":"uint256","internalType":"UD60x18"}]},{"type":"error","name":"PRBMath_UD60x18_Exp2_InputTooBig","inputs":[{"name":"x","type":"uint256","internalType":"UD60x18"}]},{"type":"error","name":"PRBMath_UD60x18_Exp_InputTooBig","inputs":[{"name":"x","type":"uint256","internalType":"UD60x18"}]},{"type":"error","name":"PRBMath_UD60x18_Gm_Overflow","inputs":[{"name":"x","type":"uint256","internalType":"UD60x18"},{"name":"y","type":"uint256","internalType":"UD60x18"}]},{"type":"error","name":"PRBMath_UD60x18_Log_InputTooSmall","inputs":[{"name":"x","type":"uint256","internalType":"UD60x18"}]},{"type":"error","name":"PRBMath_UD60x18_Sqrt_Overflow","inputs":[{"name":"x","type":"uint256","internalType":"UD60x18"}]},{"type":"error","name":"SourceIndexOutOfBounds","inputs":[{"name":"sourceIndex","type":"uint256","internalType":"uint256"},{"name":"bytecode","type":"bytes","internalType":"bytes"}]}],"bytecode":{"object":"0x6080604052348015600e575f80fd5b50614f3a8061001c5f395ff3fe608060405234801561000f575f80fd5b506004361061004a575f3560e01c806301ffc9a71461004e578063514b5d4f14610076578063d6e3357a1461008b578063f933c72f146100ac575b5f80fd5b61006161005c3660046147b3565b6100b4565b60405190151581526020015b60405180910390f35b61007e61014c565b60405161006d919061483e565b61009e6100993660046148bc565b61015b565b60405161006d9291906149da565b61007e61023e565b5f7fffffffff0000000000000000000000000000000000000000000000000000000082167f2fd0f25500000000000000000000000000000000000000000000000000000000148061014657507f01ffc9a7000000000000000000000000000000000000000000000000000000007fffffffff000000000000000000000000000000000000000000000000000000008316145b92915050565b6060610156610248565b905090565b6060805f6101ca888c8e61016f8a8c614a9d565b6040518060c0016040528060968152602001614ea4609691398f8f8080601f0160208091040260200160405190810160405280939291908181526020018383808284375f9201919091525092979695949392505061051a9050565b905061022b8585808060200260200160405190810160405280939291908181526020018383602002808284375f92019190915250859392507fffffffffffffffffffffffffffffffffffffffffffffffffffffffffffffffff915050610665565b9250925050995099975050505050505050565b606061015661014c565b6040805161098081018252604b80825261076960208301526107ba928201929092526107fc6060828101919091526109be6080830152610aa360a0830152610ab560c0830152610ac760e0830152610ae9610100830152610b2b610120830152610b7d610140830152610b8e610160830152610b9f610180830152610c406101a0830152610c7d6101c0830152610d386101e08301819052610de5610200840152610e65610220840152610fa26102408401526110c26102608401526102808301526111b66102a08301526112556102c08301526112c96102e083015261130261030083015261133b61032083015261138a61034083018190526103608301526113c36103808301526114276103a08301526114f86103c083015261154a6103e083015261155e6104008301526115b66104208301526115ca6104408301526115df6104608301526115f96104808301526116046104a08301526116186104c083015261162d6104e083015261166461050083015261168a6105208301526117096105408301526117566105608301526117a36105808301526117f06105a08301526118076105c083015261181f6105e083015261186c6106008301526118a36106208301526118b06106408301526118bd6106608301526118d76106808301526118eb6106a08301526119026106c083015261191b6106e083015261192861070083015261193561072083015261194261074083015261194f61076083015261199c6107808301526119e96107a0830152611a366107c0830152611a836107e0830152611a9a6108008301819052610820830152611ab0610840830152611add6108608301819052610880830152611af36108a0830152611b216108c0830152611b756108e0830152611b826109008301819052610920830152611c25610940830152611d076109608301529190819080610508565b60405180910390fd5b61051181611d39565b94505050505090565b61057b60405180610120016040528060608152602001606081526020015f81526020015f81526020015f81526020015f73ffffffffffffffffffffffffffffffffffffffff1681526020016060815260200160608152602001606081525090565b602087810180516040600191820184028b018181015182515f91821a808252948501870281019093526041808301968381019593600285020190910191908401905b838110156105fb57875160f01c83015160408051600192831a80825283016020908102909101918290529084526002909901989290920191016105bd565b505050506040518061012001604052808281526020018481526020018b81526020015f81526020018a81526020018973ffffffffffffffffffffffffffffffffffffffff168152602001888152602001838152602001878152509450505050509695505050505050565b6060805f8061067c8760e001518860400151611dc9565b915091505f80885f015189604001518151811061069b5761069b614b60565b602002602001015191508190505f885111156106d3575f6020895102820391506020890190506106cd81838b51611dec565b5061071a565b8388511461071a5787516040517fd628439f0000000000000000000000000000000000000000000000000000000081526104ff918691600401918252602082015260400190565b61072a898a604001518385611df8565b90505f83881061073a578361073c565b875b90506060602083039050818152806107578c60600151612089565b97509750505050505050935093915050565b60408301518351602060019283018102919091015161ffff8516909201029003517fffffffffffffffffffffffffffffffffffffffffffffffffffffffffffffffe0909101908152805b9392505050565b60208084015161ffff841660010190910201517fffffffffffffffffffffffffffffffffffffffffffffffffffffffffffffffe0909101908152809392505050565b5f808361ffff1690505f601085901c600f1690505f601486901c600f1690505f8760200151848151811061083257610832614b60565b602002602001015190505f8061084b839060a082901c90565b7fffffffffffffffffffffffffffffffffffffffffffffffffffffffffffffffe08a0180518882526040517fb65ad683000000000000000000000000000000000000000000000000000000008152939550919350915f9073ffffffffffffffffffffffffffffffffffffffff86169063b65ad683906108d09087908790600401614b8d565b5f60405180830381865afa1580156108ea573d5f803e3d5ffd5b505050506040513d5f823e601f3d9081017fffffffffffffffffffffffffffffffffffffffffffffffffffffffffffffffe016820160405261092f9190810190614ba5565b9050805187146109785780516040517fc3385cb00000000000000000000000000000000000000000000000000000000081526104ff918991600401918252602082015260400190565b818352602088028b019a50602081016020880281015b808210156109ab5760208d039c5081518d5260208201915061098e565b509a9d9c50505050505050505050505050565b5f60ff80841690600885901c166020841015610a36576040517f08c379a000000000000000000000000000000000000000000000000000000000815260206004820152600f60248201527f737461636b20756e646572666c6f77000000000000000000000000000000000060448201526064016104ff565b5f8660c001518381518110610a4d57610a4d614b60565b60200260200101518281518110610a6657610a66614b60565b60209081029190910101517fffffffffffffffffffffffffffffffffffffffffffffffffffffffffffffffe0909501948552509295945050505050565b60208101805182511681529392505050565b60208101805182511781529392505050565b80515f90670de0b6b3a7640000610add826122fc565b02835250909392505050565b80516001600884901c60ff9081169190911b7fffffffffffffffffffffffffffffffffffffffffffffffffffffffffffffffff0193161c919091168152919050565b80516020909101805160ff600885901c811660020a7fffffffffffffffffffffffffffffffffffffffffffffffffffffffffffffffff01941684811b199091169390921690911b919091178152919050565b805160ff83161b8152809392505050565b805160ff83161c8152809392505050565b8251600161ffff841690810160209081028301515f93600f601088901c1692601488901c92908190850288015b80891015610be95760208203915088518252602089019850610bcc565b5060408a01805190879052610c008b828486611df8565b60408c0182905260208602998a9003999092508201895b81841015610c2f578351815260209384019301610c17565b50989b9a5050505050505050505050565b60109190911c600f166020028082207fffffffffffffffffffffffffffffffffffffffffffffffffffffffffffffffe09190920101908152919050565b805160208201516040928301805193517fdd62ed3e00000000000000000000000000000000000000000000000000000000815273ffffffffffffffffffffffffffffffffffffffff8084166004830152808616602483015291945f9493929091859185169063dd62ed3e90604401602060405180830381865afa158015610d06573d5f803e3d5ffd5b505050506040513d601f19601f82011682018060405250810190610d2a9190614c26565b865250939695505050505050565b8051602090910180516040517f70a0823100000000000000000000000000000000000000000000000000000000815273ffffffffffffffffffffffffffffffffffffffff808316600483015292935f9390929184918416906370a0823190602401602060405180830381865afa158015610db4573d5f803e3d5ffd5b505050506040513d601f19601f82011682018060405250810190610dd89190614c26565b8552509295945050505050565b5f80825190505f8173ffffffffffffffffffffffffffffffffffffffff166318160ddd6040518163ffffffff1660e01b8152600401602060405180830381865afa158015610e35573d5f803e3d5ffd5b505050506040513d601f19601f82011682018060405250810190610e599190614c26565b84525091949350505050565b805160208201516040928301805193517fdd62ed3e00000000000000000000000000000000000000000000000000000000815273ffffffffffffffffffffffffffffffffffffffff8084166004830152808616602483015291945f9493929091859185169063dd62ed3e90604401602060405180830381865afa158015610eee573d5f803e3d5ffd5b505050506040513d601f19601f82011682018060405250810190610f129190614c26565b90505f8473ffffffffffffffffffffffffffffffffffffffff1663313ce5676040518163ffffffff1660e01b8152600401602060405180830381865afa158015610f5e573d5f803e3d5ffd5b505050506040513d601f19601f82011682018060405250810190610f829190614c3d565b60ff169050610f93828260026123d4565b87525094979650505050505050565b8051602090910180516040517f70a0823100000000000000000000000000000000000000000000000000000000815273ffffffffffffffffffffffffffffffffffffffff808316600483015292935f9390929184918416906370a0823190602401602060405180830381865afa15801561101e573d5f803e3d5ffd5b505050506040513d601f19601f820116820180604052508101906110429190614c26565b90505f8373ffffffffffffffffffffffffffffffffffffffff1663313ce5676040518163ffffffff1660e01b8152600401602060405180830381865afa15801561108e573d5f803e3d5ffd5b505050506040513d601f19601f820116820180604052508101906110b29190614c3d565b60ff169050610d2a82825f6123d4565b5f80825190505f8173ffffffffffffffffffffffffffffffffffffffff166318160ddd6040518163ffffffff1660e01b8152600401602060405180830381865afa158015611112573d5f803e3d5ffd5b505050506040513d601f19601f820116820180604052508101906111369190614c26565b90505f8273ffffffffffffffffffffffffffffffffffffffff1663313ce5676040518163ffffffff1660e01b8152600401602060405180830381865afa158015611182573d5f803e3d5ffd5b505050506040513d601f19601f820116820180604052508101906111a69190614c3d565b60ff169050610dd882825f6123d4565b8051602090910180516040517f6352211e0000000000000000000000000000000000000000000000000000000081526004810182905291925f92909190839073ffffffffffffffffffffffffffffffffffffffff841690636352211e90602401602060405180830381865afa158015611231573d5f803e3d5ffd5b505050506040513d601f19601f82011682018060405250810190610dd89190614c5d565b5f80825190505f8173ffffffffffffffffffffffffffffffffffffffff16638da5cb5b6040518163ffffffff1660e01b8152600401602060405180830381865afa1580156112a5573d5f803e3d5ffd5b505050506040513d601f19601f82011682018060405250810190610e599190614c5d565b670de0b6b3a764000043027fffffffffffffffffffffffffffffffffffffffffffffffffffffffffffffffe09190910190815292915050565b670de0b6b3a764000046027fffffffffffffffffffffffffffffffffffffffffffffffffffffffffffffffe09190910190815292915050565b7fffffffffffffffffffffffffffffffffffffffffffffffffffffffffffffffff7fffffffffffffffffffffffffffffffffffffffffffffffffffffffffffffffe09190910190815292915050565b670de0b6b3a764000042027fffffffffffffffffffffffffffffffffffffffffffffffffffffffffffffffe09190910190815292915050565b7fffffffffffffffffffffffffffffffffffffffffffffffffffffffffffffffe0601083901c600f16602002828101918201925f925b8082101561141c578151801561141057855261141c565b506020820191506113f9565b509295945050505050565b5f805f600f8560101c1660028106856020828403028101602083150281039750821561145257805194505b8082101561147b57815195508515611470576020820151885261147b565b604082019150611452565b5050604080518082019091525f80825260208201527f1fffffffffffffffffffffffffffffffffffffffffffffffffffffffffffffff8416601f820152841515925090505b9061141c576040517f08c379a00000000000000000000000000000000000000000000000000000000081526004016104ff919061483e565b80516020808301516040805180820182525f8082529381018490527f1fffffffffffffffffffffffffffffffffffffffffffffffffffffffffffffff8316601f820152940193919291821515906114c0565b805160209091018051909114815292915050565b7fffffffffffffffffffffffffffffffffffffffffffffffffffffffffffffffe0601083901c600f16602002828101918201925f925b8082101561141c578151806115aa57855261141c565b50602082019150611594565b805160209091018051909111815292915050565b80516020909101805190911015815292915050565b805160409015156020028203810151910190815292915050565b805115815292915050565b805160209091018051909110815292915050565b80516020909101805190911115815292915050565b805160208201516040909201805190925f9291610dd88361165f61165985670de0b6b3a7640000614ca5565b84612458565b612568565b805160208201516040909201805190925f9291610dd8836116858484612568565b612576565b805160208201516040909201915f91906116a48183614ce5565b9150600f601086901c1660025b818110156116d757855160209096019592506116cd8385614ce5565b93506001016116b1565b5050507fffffffffffffffffffffffffffffffffffffffffffffffffffffffffffffffe0929092019182525092915050565b805160208201516040909201915f91906117238183614cf8565b9150600f601086901c1660025b818110156116d7578551602090960195925061174c8385614cf8565b9350600101611730565b805160208201516040909201915f91906117708183614e2d565b9150600f601086901c1660025b818110156116d757855160209096019592506117998385614e2d565b935060010161177d565b805160208201516040909201915f91906117bd8183614ca5565b9150600f601086901c1660025b818110156116d757855160209096019592506117e68385614ca5565b93506001016117ca565b80516020909101805190915f91610e598282612584565b80515f906118148161259b565b835250909392505050565b805160208201516040909201915f91906118398282612612565b9150600f601086901c1660025b818110156116d757855192506020860195506118628484612612565b9350600101611846565b6725b946ebc0b361737fffffffffffffffffffffffffffffffffffffffffffffffffffffffffffffffe09190910190815292915050565b80515f9061181481612629565b80515f9061181481612699565b80515f90670de0b6b3a76400008106801515028103611814565b80515f90670de0b6b3a76400008106611814565b80516020909101805190915f91610e598282612706565b8051670de0b6b3a7640000908190069003815292915050565b80515f906118148161278e565b80515f90611814816127b0565b80515f90611814816127e0565b80515f9061181481612943565b805160208201516040909201915f91908082101561196b578091505b600f601086901c1660025b818110156116d7578551925060208601955082841015611994578293505b600101611976565b805160208201516040909201915f9190808211156119b8578091505b600f601086901c1660025b818110156116d75785519250602086019550828411156119e1578293505b6001016119c3565b805160208201516040909201915f9190611a038183614e38565b9150600f601086901c1660025b818110156116d75785516020909601959250611a2c8385614e38565b9350600101611a10565b805160208201516040909201915f9190611a508282612568565b9150600f601086901c1660025b818110156116d75785519250602086019550611a798484612568565b9350600101611a5d565b80516020909101805190915f91610e598282612458565b80515f906118148160ff8616600887901c6123d4565b80516020909101805190915f9190611ad081670de0b6b3a763ffff6137d1565b9050610e598282876123d4565b80515f906118148160ff8616600887901c613838565b80516020909101805190915f9190610e59611b1682670de0b6b3a763ffff6137d1565b839060038816613838565b80516020909101805190915f91670de0b6b3a76400008106828111611b5b57670de0b6b3a76400008206801515028203915081855261141c565b8281670de0b6b3a7640000031161141c57610dd88261259b565b80515f9061181481613899565b805160208201516040909201915f9190600185166147a981611ba657613907611baa565b6139125b9050611bba84848363ffffffff16565b9350600f601088901c1660025b81811015611bf15787519450602088019750611be786868563ffffffff16565b9550600101611bc7565b50505050507fffffffffffffffffffffffffffffffffffffffffffffffffffffffffffffffe0929092019182525092915050565b805160608401515f919082908190611c3d9084613926565b91509150815f03610e595760a087015160808801516040517f669e48aa0000000000000000000000000000000000000000000000000000000081526004810191909152602481018590525f9173ffffffffffffffffffffffffffffffffffffffff169063669e48aa90604401602060405180830381865afa158015611cc4573d5f803e3d5ffd5b505050506040513d601f19601f82011682018060405250810190611ce89190614c26565b6060890151909150611cfb90858361396d565b6060890152855261141c565b8051602082015160608501516040909301925f929190611d2890838361396d565b606087015250829150509392505050565b60605f825160020267ffffffffffffffff811115611d5957611d596149fe565b6040519080825280601f01601f191660200182016040528015611d83576020820181803683370190505b50905061ffff80196020850160208651028101600285015b81831015611dbd57805183518616908516178152602090920191600201611d9b565b50939695505050505050565b5f805f611dd685856139fc565b51600281901a9660039190911a95509350505050565b6020810283835e505050565b5f80856040015190505f805f805f60028b610100015151611e199190614ce5565b60e08c01516101008d0151602080830151600261ffff9b909b168b8102850160219081015160f01c5f93841a9d909d029095019b909b019384015160258086019b50600791831a9182169182900360040290950190940198509296500193509091506147a990805b868810156120035787519050600284825f1a060285015160f01c925062ffffff8160e01c169150611eb78e838e8663ffffffff16565b9b506002848260041a060285015160f01c925062ffffff8160c01c169150611ee48e838e8663ffffffff16565b9b506002848260081a060285015160f01c925062ffffff8160a01c169150611f118e838e8663ffffffff16565b9b5060028482600c1a060285015160f01c925062ffffff8160801c169150611f3e8e838e8663ffffffff16565b9b506002848260101a060285015160f01c925062ffffff8160601c169150611f6b8e838e8663ffffffff16565b9b506002848260141a060285015160f01c925062ffffff8160401c169150611f988e838e8663ffffffff16565b9b506002848260181a060285015160f01c925062ffffff8160201c169150611fc58e838e8663ffffffff16565b9b5060028482601c1a060285015160f01c925062ffffff81169150611fef8e838e8663ffffffff16565b9b50611ffc602089614ca5565b9750611e81565b61200e601c89614e4b565b975061201b866004614cf8565b6120259089614ca5565b96505b8688101561206b5750508551601c81901a83900660020284015160f01c915062ffffff8116906120578e838e86565b9b50612064600489614ca5565b9750612028565b6120778d8a8e8e613a2b565b50999c9b505050505050505050505050565b6040805160f083901c602081810283010190925290815261ffff63ffffffff67ffffffffffffffff6fffffffffffffffffffffffffffffffff6120f5565b5f5b82156120ef578251825260208301516020830152604083015192506040820191506120c9565b50919050565b602085018660101b60901c80156121e5578060401c8015612163578060201c80156121275761212481856120c7565b93505b508086168015612161578060101c80156121485761214581866120c7565b94505b50808816801561215f5761215c81866120c7565b94505b505b505b5080841680156121e3578060201c80156121a7578060101c801561218e5761218b81866120c7565b94505b5080881680156121a5576121a281866120c7565b94505b505b5080861680156121e1578060101c80156121c8576121c581866120c7565b94505b5080881680156121df576121dc81866120c7565b94505b505b505b505b5086821680156122f1578060401c801561226f578060201c8015612233578060101c801561221a5761221781866120c7565b94505b5080881680156122315761222e81866120c7565b94505b505b50808616801561226d578060101c80156122545761225181866120c7565b94505b50808816801561226b5761226881866120c7565b94505b505b505b5080841680156122ef578060201c80156122b3578060101c801561229a5761229781866120c7565b94505b5080881680156122b1576122ae81866120c7565b94505b505b5080861680156122ed578060101c80156122d4576122d181866120c7565b94505b5080881680156122eb576122e881866120c7565b94505b505b505b505b505050505050919050565b5f7fffffffffffffffffffffffffffffffffffffffffffffffffffffffffffffffff820361232d5750610100919050565b507f0f0f0f0f0f0f0f0f0f0f0f0f0f0f0f0f0f0f0f0f0f0f0f0f0f0f0f0f0f0f0f0f7f5555555555555555555555555555555555555555555555555555555555555555600183901c16909103600281901c7f3333333333333333333333333333333333333333333333333333333333333333908116911601600481901c01167f01010101010101010101010101010101010101010101010101010101010101010260f81c90565b5f826012111561240857601283900360028316156123fe576123f68582613ab4565b9150506107b3565b6123f68582613b3f565b6012831115612451577fffffffffffffffffffffffffffffffffffffffffffffffffffffffffffffffee83016001831615612447576123f68582613b76565b6123f68582613bc2565b50826107b3565b5f828281830361248157801561246e575f612478565b670de0b6b3a76400005b92505050610146565b670de0b6b3a764000082036124a257670de0b6b3a764000092505050610146565b805f036124bb57670de0b6b3a764000092505050610146565b670de0b6b3a764000081036124d4578492505050610146565b670de0b6b3a7640000821115612505576124fe6124f96124f3876127e0565b86612568565b612699565b9250612560565b5f612525612522846ec097ce7bc90715b34b9f1000000000614ce5565b90565b90505f61253d6124f9612537846127e0565b88612568565b905061255b612522826ec097ce7bc90715b34b9f1000000000614ce5565b945050505b505092915050565b5f6107b36125228484613be4565b5f6107b36125228385614ca5565b5f828280821681831860011c015b95945050505050565b5f817ffffffffffffffffffffffffffffffffffffffffffffffffff7e52fe5afe400008111156125fa576040517f6149f6b9000000000000000000000000000000000000000000000000000000008152600481018490526024016104ff565b5050670de0b6b3a76400008082068015159103020190565b5f6107b361252284670de0b6b3a764000085613ce8565b5f81680736ea4425c11ac630811115612671576040517f1af63aca000000000000000000000000000000000000000000000000000000008152600481018490526024016104ff565b6714057b7ef767814f81026126916124f9670de0b6b3a7640000835b0490565b949350505050565b5f81680a688906bd8affffff8111156126e1576040517fb3b6ba1f000000000000000000000000000000000000000000000000000000008152600481018490526024016104ff565b5f6126f8670de0b6b3a7640000604084901b614ce5565b905061269161252282613def565b5f8282811580612714575080155b15612723575f92505050610146565b8181028183828161273657612736614cb8565b0414612778576040517fae7f3b3700000000000000000000000000000000000000000000000000000000815260048101879052602481018690526044016104ff565b61278461252282614563565b9695505050505050565b5f610146826ec097ce7bc90715b34b9f10000000008161268d5761268d614cb8565b5f6101466714057b7ef767814f670de0b6b3a76400006127d2612522866127e0565b028161268d5761268d614cb8565b5f81670de0b6b3a7640000811015612827576040517f36d32ef0000000000000000000000000000000000000000000000000000000008152600481018490526024016104ff565b5f6128b2670de0b6b3a7640000830460016fffffffffffffffffffffffffffffffff821160071b91821c67ffffffffffffffff811160061b90811c63ffffffff811160051b90811c61ffff811160041b90811c60ff8111600390811b91821c600f811160021b90811c918211871b91821c969096119490961792909217171791909117919091171790565b9050670de0b6b3a7640000810282821c7ffffffffffffffffffffffffffffffffffffffffffffffffff21f494c589c000081016128f25750949350505050565b671bc16d674ec800006706f05b59d3b200005b801561293557670de0b6b3a764000083800204925081831061292d579283019260019290921c915b60011c612905565b50825b979650505050505050565b5f81670de0b6b3a764000081101561298a576040517f36d32ef0000000000000000000000000000000000000000000000000000000008152600481018490526024016104ff565b82600181146130db57600a8114613103576064811461312b576103e8811461315357612710811461317b57620186a081146131a357620f424081146131cb576298968081146131f3576305f5e100811461321b57633b9aca008114613243576402540be400811461326b5764174876e80081146132935764e8d4a5100081146132bb576509184e72a00081146132e357655af3107a4000811461330b5766038d7ea4c68000811461333357662386f26fc10000811461335b5767016345785d8a0000811461338357670de0b6b3a764000081146133ab57678ac7230489e8000081146133b35768056bc75e2d6310000081146133c357683635c9adc5dea0000081146133d35769021e19e0c9bab240000081146133e35769152d02c7e14af680000081146133f35769d3c21bcecceda10000008114613403576a084595161401484a0000008114613413576a52b7d2dcc80cd2e40000008114613423576b033b2e3c9fd0803ce80000008114613433576b204fce5e3e250261100000008114613443576c01431e0fae6d7217caa00000008114613453576c0c9f2c9cd04674edea400000008114613463576c7e37be2022c0914b26800000008114613473576d04ee2d6d415b85acef81000000008114613483576d314dc6448d9338c15b0a000000008114613493576e01ed09bead87c0378d8e640000000081146134a3576e13426172c74d822b878fe80000000081146134b3576ec097ce7bc90715b34b9f100000000081146134c3576f0785ee10d5da46d900f436a00000000081146134d3576f4b3b4ca85a86c47a098a22400000000081146134e4577002f050fe938943acc45f6556800000000081146134f557701d6329f1c35ca4bfabb9f5610000000000811461350657710125dfa371a19e6f7cb54395ca0000000000811461351757710b7abc627050305adf14a3d9e400000000008114613528577172cb5bd86321e38cb6ce6682e8000000000081146135395772047bf19673df52e37f2410011d100000000000811461354a57722cd76fe086b93ce2f768a00b22a00000000000811461355b577301c06a5ec5433c60ddaa16406f5a400000000000811461356c5773118427b3b4a05bc8a8a4de845986800000000000811461357d5773af298d050e4395d69670b12b7f41000000000000811461358e577406d79f82328ea3da61e066ebb2f88a000000000000811461359f5774446c3b15f9926687d2c40534fdb56400000000000081146135b0577502ac3a4edbbfb8014e3ba83411e915e800000000000081146135c157751aba4714957d300d0e549208b31adb1000000000000081146135d25776010b46c6cdd6e3e0828f4db456ff0c8ea000000000000081146135e357760a70c3c40a64e6c51999090b65f67d924000000000000081146135f457766867a5a867f103b2fffa5a71fba0e7b6800000000000008114613605577704140c78940f6a24fdffc78873d4490d21000000000000008114613616577728c87cb5c89a2571ebfdcb54864ada834a00000000000000811461362757780197d4df19d605767337e9f14d3eec8920e400000000000000811461363857780fee50b7025c36a0802f236d04753d5b48e800000000000000811461364957789f4f2726179a224501d762422c946590d91000000000000000811461365a5779063917877cec0556b21269d695bdcbf7a87aa000000000000000811461366b57793e3aeb4ae1383562f4b82261d969f7ac94ca4000000000000000811461367c577a026e4d30eccc3215dd8f3157d27e23acbdcfe68000000000000000811461368d577a184f03e93ff9f4daa797ed6e38ed64bf6a1f010000000000000000811461369e577af316271c7fc3908a8bef464e3945ef7a25360a000000000000000081146136af577b097edd871cfda3a5697758bf0e3cbb5ac5741c64000000000000000081146136c0577b5ef4a74721e864761ea977768e5f518bb6891be8000000000000000081146136d1577c03b58e88c75313ec9d329eaaa18fb92f75215b1710000000000000000081146136e2577c25179157c93ec73e23fa32aa4f9d3bda934d8ee6a0000000000000000081146136f3577d0172ebad6ddc73c86d67c5faa71c245689c10795024000000000000000008114613704577d0e7d34c64a9c85d4460dbbca87196b61618a4bd2168000000000000000008114613715577d90e40fbeea1d3a4abc8955e946fe31cdcf66f634e10000000000000000008114613726577e05a8e89d75252446eb5d5d5b1cc5edf20a1a059e10ca0000000000000000008114613737577e3899162693736ac531a5a58f1fbb4b746504382ca7e40000000000000000008114613748577f0235fadd81c2822bb3f07877973d50f28bf22a31be8ee80000000000000000008114613759577f161bcca7119915b50764b4abe86529797775a5f1719510000000000000000000811461376a577fdd15fe86affad91249ef0eb713f39ebeaa987b6e6fd2a0000000000000000000811461377b577fffffffffffffffffffffffffffffffffffffffffffffffffffffffffffffffff9250613788565b7fffffffffffffffffffffffffffffffffffffffffffffffff0633275e3af800009250613788565b7fffffffffffffffffffffffffffffffffffffffffffffffff1413de11e25c00009250613788565b7fffffffffffffffffffffffffffffffffffffffffffffffff21f494c589c000009250613788565b7fffffffffffffffffffffffffffffffffffffffffffffffff2fd54b79312400009250613788565b7fffffffffffffffffffffffffffffffffffffffffffffffff3db6022cd88800009250613788565b7fffffffffffffffffffffffffffffffffffffffffffffffff4b96b8e07fec00009250613788565b7fffffffffffffffffffffffffffffffffffffffffffffffff59776f94275000009250613788565b7fffffffffffffffffffffffffffffffffffffffffffffffff67582647ceb400009250613788565b7fffffffffffffffffffffffffffffffffffffffffffffffff7538dcfb761800009250613788565b7fffffffffffffffffffffffffffffffffffffffffffffffff831993af1d7c00009250613788565b7fffffffffffffffffffffffffffffffffffffffffffffffff90fa4a62c4e000009250613788565b7fffffffffffffffffffffffffffffffffffffffffffffffff9edb01166c4400009250613788565b7fffffffffffffffffffffffffffffffffffffffffffffffffacbbb7ca13a800009250613788565b7fffffffffffffffffffffffffffffffffffffffffffffffffba9c6e7dbb0c00009250613788565b7fffffffffffffffffffffffffffffffffffffffffffffffffc87d2531627000009250613788565b7fffffffffffffffffffffffffffffffffffffffffffffffffd65ddbe509d400009250613788565b7fffffffffffffffffffffffffffffffffffffffffffffffffe43e9298b13800009250613788565b7ffffffffffffffffffffffffffffffffffffffffffffffffff21f494c589c00009250613788565b5f9250613788565b670de0b6b3a76400009250613788565b671bc16d674ec800009250613788565b6729a2241af62c00009250613788565b673782dace9d9000009250613788565b674563918244f400009250613788565b6753444835ec5800009250613788565b676124fee993bc00009250613788565b676f05b59d3b2000009250613788565b677ce66c50e28400009250613788565b678ac7230489e800009250613788565b6798a7d9b8314c00009250613788565b67a688906bd8b000009250613788565b67b469471f801400009250613788565b67c249fdd3277800009250613788565b67d02ab486cedc00009250613788565b67de0b6b3a764000009250613788565b67ebec21ee1da400009250613788565b67f9ccd8a1c50800009250613788565b680107ad8f556c6c00009250613788565b6801158e460913d000009250613788565b6801236efcbcbb3400009250613788565b6801314fb370629800009250613788565b68013f306a2409fc00009250613788565b68014d1120d7b16000009250613788565b68015af1d78b58c400009250613788565b680168d28e3f002800009250613788565b680176b344f2a78c00009250613788565b68018493fba64ef000009250613788565b68019274b259f65400009250613788565b6801a055690d9db800009250613788565b6801ae361fc1451c00009250613788565b6801bc16d674ec8000009250613788565b6801c9f78d2893e400009250613788565b6801d7d843dc3b4800009250613788565b6801e5b8fa8fe2ac00009250613788565b6801f399b1438a1000009250613788565b6802017a67f7317400009250613788565b68020f5b1eaad8d800009250613788565b68021d3bd55e803c00009250613788565b68022b1c8c1227a000009250613788565b680238fd42c5cf0400009250613788565b680246ddf979766800009250613788565b680254beb02d1dcc00009250613788565b6802629f66e0c53000009250613788565b680270801d946c9400009250613788565b68027e60d44813f800009250613788565b68028c418afbbb5c00009250613788565b68029a2241af62c000009250613788565b6802a802f8630a2400009250613788565b6802b5e3af16b18800009250613788565b6802c3c465ca58ec00009250613788565b6802d1a51c7e005000009250613788565b6802df85d331a7b400009250613788565b6802ed6689e54f1800009250613788565b6802fb474098f67c00009250613788565b68030927f74c9de000009250613788565b68031708ae00454400009250613788565b680324e964b3eca800009250613788565b680332ca1b67940c000092505b507fffffffffffffffffffffffffffffffffffffffffffffffffffffffffffffffff82036120ef576107b3672e19dc008126bf2b670de0b6b3a76400006127d2612522876127e0565b5f670de0b6b3a764000083106137ed576137ea836146e4565b92505b81831115613831576040517fcb05259700000000000000000000000000000000000000000000000000000000815260048101849052602481018390526044016104ff565b5090919050565b5f826012111561385a5760128390036001831615612447576123f68582613b76565b6012831115612451577fffffffffffffffffffffffffffffffffffffffffffffffffffffffffffffffee830160028316156123fe576123f68582613ab4565b5f817812725dd1d243aba0e75fe645cc4873f9e65afe688c928e1f218111156138f1576040517fedc236ad000000000000000000000000000000000000000000000000000000008152600481018490526024016104ff565b6107b3612522670de0b6b3a76400008302614563565b5f6107b38284614e4b565b5f818311613920575f6107b3565b50900390565b5f80825f526010600f60205f20060261ffff85821c165b8015613964578051850361395b576001935060208101519250613964565b6040015161393d565b50509250929050565b5f825f526010600f60205f20060261ffff85821c16805b801561399b578051861461399b5760400151613984565b801580156139e95760405191506060820160405286825285602083015282604083015260028860f01c0161ffff60f01b1989168160f01b1798505061ffff841b19881682851b1797506139f0565b8560208301525b50959695505050505050565b5f80613a0784614739565b60020260010190505f613a1a8585614753565b949091019093016020019392505050565b7fffffffffffffffffffffffffffffffffffffffffffffffffffffffffffffffe082018051601086901b851782527f312f5ae588c6ff62cd3f006af06cd48c98d7321649db7d8b2c396a81a204655591905f808686036004017ffffffffffffffffffffffffffffffffffffffffffffffffffffffffffffffffc8801865afa5090525050505050565b5f604e8210613af2578215613ae9577fffffffffffffffffffffffffffffffffffffffffffffffffffffffffffffffff613aeb565b5f5b9050610146565b50600a81900a8281029083818381613b0c57613b0c614cb8565b0414613b38577fffffffffffffffffffffffffffffffffffffffffffffffffffffffffffffffff612691565b5092915050565b600a81900a613b4e8184614cf8565b9050604e8210610146578215613b6e57613b6982600a614e2d565b6107b3565b505f92915050565b5f604e8210613b98578215613b8c576001613b8e565b5f5b60ff169050610146565b600a82900a808481613bac57613bac614cb8565b0491508082028414613b38575060010192915050565b5f604e821015613b6e5781600a0a8381613bde57613bde614cb8565b046107b3565b5f80807fffffffffffffffffffffffffffffffffffffffffffffffffffffffffffffffff848609848602925082811083820303915050805f03613c345750670de0b6b3a764000090049050610146565b670de0b6b3a76400008110613c7f576040517f5173648d00000000000000000000000000000000000000000000000000000000815260048101869052602481018590526044016104ff565b5f670de0b6b3a7640000858709620400008185030493109091037d40000000000000000000000000000000000000000000000000000000000002919091177faccb18165bd6fe31ae1cf318dc5b51eee0e1ba569b88cd74c1773b91fac106690291505092915050565b5f80807fffffffffffffffffffffffffffffffffffffffffffffffffffffffffffffffff858709858702925082811083820303915050805f03613d3e57838281613d3457613d34614cb8565b04925050506107b3565b838110613d88576040517f63a057780000000000000000000000000000000000000000000000000000000081526004810187905260248101869052604481018590526064016104ff565b5f8486880960026001871981018816978890046003810283188082028403028082028403028082028403028082028403028082028403029081029092039091025f889003889004909101858311909403939093029303949094049190911702949350505050565b7780000000000000000000000000000000000000000000000067ff00000000000000821615613f1057678000000000000000821615613e375768016a09e667f3bcc9090260401c5b674000000000000000821615613e56576801306fe0a31b7152df0260401c5b672000000000000000821615613e75576801172b83c7d517adce0260401c5b671000000000000000821615613e945768010b5586cf9890f62a0260401c5b670800000000000000821615613eb3576801059b0d31585743ae0260401c5b670400000000000000821615613ed257680102c9a3e778060ee70260401c5b670200000000000000821615613ef15768010163da9fb33356d80260401c5b670100000000000000821615613f1057680100b1afa5abcbed610260401c5b66ff00000000000082161561400f576680000000000000821615613f3d5768010058c86da1c09ea20260401c5b6640000000000000821615613f5b576801002c605e2e8cec500260401c5b6620000000000000821615613f7957680100162f3904051fa10260401c5b6610000000000000821615613f97576801000b175effdc76ba0260401c5b6608000000000000821615613fb557680100058ba01fb9f96d0260401c5b6604000000000000821615613fd35768010002c5cc37da94920260401c5b6602000000000000821615613ff1576801000162e525ee05470260401c5b660100000000000082161561400f5768010000b17255775c040260401c5b65ff0000000000821615614105576580000000000082161561403a576801000058b91b5bc9ae0260401c5b6540000000000082161561405757680100002c5c89d5ec6d0260401c5b652000000000008216156140745768010000162e43f4f8310260401c5b6510000000000082161561409157680100000b1721bcfc9a0260401c5b650800000000008216156140ae5768010000058b90cf1e6e0260401c5b650400000000008216156140cb576801000002c5c863b73f0260401c5b650200000000008216156140e857680100000162e430e5a20260401c5b65010000000000821615614105576801000000b1721835510260401c5b64ff000000008216156141f25764800000000082161561412e57680100000058b90c0b490260401c5b64400000000082161561414a5768010000002c5c8601cc0260401c5b642000000000821615614166576801000000162e42fff00260401c5b6410000000008216156141825768010000000b17217fbb0260401c5b64080000000082161561419e576801000000058b90bfce0260401c5b6404000000008216156141ba57680100000002c5c85fe30260401c5b6402000000008216156141d65768010000000162e42ff10260401c5b6401000000008216156141f257680100000000b17217f80260401c5b63ff0000008216156142d65763800000008216156142195768010000000058b90bfc0260401c5b6340000000821615614234576801000000002c5c85fe0260401c5b632000000082161561424f57680100000000162e42ff0260401c5b631000000082161561426a576801000000000b17217f0260401c5b630800000082161561428557680100000000058b90c00260401c5b63040000008216156142a05768010000000002c5c8600260401c5b63020000008216156142bb576801000000000162e4300260401c5b63010000008216156142d65768010000000000b172180260401c5b62ff00008216156143b157628000008216156142fb576801000000000058b90c0260401c5b6240000082161561431557680100000000002c5c860260401c5b6220000082161561432f5768010000000000162e430260401c5b6210000082161561434957680100000000000b17210260401c5b620800008216156143635768010000000000058b910260401c5b6204000082161561437d576801000000000002c5c80260401c5b6202000082161561439757680100000000000162e40260401c5b620100008216156143b1576801000000000000b1720260401c5b61ff00821615614483576180008216156143d457680100000000000058b90260401c5b6140008216156143ed5768010000000000002c5d0260401c5b612000821615614406576801000000000000162e0260401c5b61100082161561441f5768010000000000000b170260401c5b610800821615614438576801000000000000058c0260401c5b61040082161561445157680100000000000002c60260401c5b61020082161561446a57680100000000000001630260401c5b61010082161561448357680100000000000000b10260401c5b60ff82161561454c5760808216156144a457680100000000000000590260401c5b60408216156144bc576801000000000000002c0260401c5b60208216156144d457680100000000000000160260401c5b60108216156144ec576801000000000000000b0260401c5b600882161561450457680100000000000000060260401c5b600482161561451c57680100000000000000030260401c5b600282161561453457680100000000000000010260401c5b600182161561454c57680100000000000000010260401c5b670de0b6b3a76400000260409190911c60bf031c90565b5f815f0361457257505f919050565b5060018170010000000000000000000000000000000081106145995760409190911b9060801c5b6801000000000000000081106145b45760209190911b9060401c5b64010000000081106145cb5760109190911b9060201c5b6201000081106145e05760089190911b9060101c5b61010081106145f45760049190911b9060081c5b601081106146075760029190911b9060041c5b6004811061461757600182901b91505b600182848161462857614628614cb8565b048301901c9150600182848161464057614640614cb8565b048301901c9150600182848161465857614658614cb8565b048301901c9150600182848161467057614670614cb8565b048301901c9150600182848161468857614688614cb8565b048301901c915060018284816146a0576146a0614cb8565b048301901c915060018284816146b8576146b8614cb8565b048301901c91505f8284816146cf576146cf614cb8565b0490508083106146dd578092505b5050919050565b5f670de0b6b3a764000082061561472a576040517f84843668000000000000000000000000000000000000000000000000000000008152600481018390526024016104ff565b50670de0b6b3a7640000900490565b5f81515f0361474957505f919050565b50602001515f1a90565b5f61475d83614739565b82106147995781836040517ffcfaeff10000000000000000000000000000000000000000000000000000000081526004016104ff929190614e5e565b50600202016003015161ffff1690565b6147b1614e76565b565b5f602082840312156147c3575f80fd5b81357fffffffff00000000000000000000000000000000000000000000000000000000811681146107b3575f80fd5b5f81518084528060208401602086015e5f6020828601015260207fffffffffffffffffffffffffffffffffffffffffffffffffffffffffffffffe0601f83011685010191505092915050565b602081525f6107b360208301846147f2565b73ffffffffffffffffffffffffffffffffffffffff81168114614871575f80fd5b50565b5f8083601f840112614884575f80fd5b50813567ffffffffffffffff81111561489b575f80fd5b6020830191508360208260051b85010111156148b5575f80fd5b9250929050565b5f805f805f805f805f60c08a8c0312156148d4575f80fd5b89356148df81614850565b985060208a0135975060408a013567ffffffffffffffff80821115614902575f80fd5b818c0191508c601f830112614915575f80fd5b813581811115614923575f80fd5b8d6020828501011115614934575f80fd5b6020830199508098505060608c0135965060808c0135915080821115614958575f80fd5b6149648d838e01614874565b909650945060a08c013591508082111561497c575f80fd5b506149898c828d01614874565b915080935050809150509295985092959850929598565b5f815180845260208085019450602084015f5b838110156149cf578151875295820195908201906001016149b3565b509495945050505050565b604081525f6149ec60408301856149a0565b828103602084015261259281856149a0565b7f4e487b71000000000000000000000000000000000000000000000000000000005f52604160045260245ffd5b604051601f82017fffffffffffffffffffffffffffffffffffffffffffffffffffffffffffffffe016810167ffffffffffffffff81118282101715614a7257614a726149fe565b604052919050565b5f67ffffffffffffffff821115614a9357614a936149fe565b5060051b60200190565b5f614aaf614aaa84614a7a565b614a2b565b83815260208082019190600586811b860136811115614acc575f80fd5b865b81811015614b5357803567ffffffffffffffff811115614aec575f80fd5b880136601f820112614afc575f80fd5b8035614b0a614aaa82614a7a565b81815290851b82018601908681019036831115614b25575f80fd5b928701925b82841015614b4357833582529287019290870190614b2a565b8952505050948301948301614ace565b5092979650505050505050565b7f4e487b71000000000000000000000000000000000000000000000000000000005f52603260045260245ffd5b828152604060208201525f61269160408301846149a0565b5f6020808385031215614bb6575f80fd5b825167ffffffffffffffff811115614bcc575f80fd5b8301601f81018513614bdc575f80fd5b8051614bea614aaa82614a7a565b81815260059190911b82018301908381019087831115614c08575f80fd5b928401925b8284101561293857835182529284019290840190614c0d565b5f60208284031215614c36575f80fd5b5051919050565b5f60208284031215614c4d575f80fd5b815160ff811681146107b3575f80fd5b5f60208284031215614c6d575f80fd5b81516107b381614850565b7f4e487b71000000000000000000000000000000000000000000000000000000005f52601160045260245ffd5b8082018082111561014657610146614c78565b7f4e487b71000000000000000000000000000000000000000000000000000000005f52601260045260245ffd5b5f82614cf357614cf3614cb8565b500490565b808202811582820484141761014657610146614c78565b600181815b80851115614d6857817fffffffffffffffffffffffffffffffffffffffffffffffffffffffffffffffff04821115614d4e57614d4e614c78565b80851615614d5b57918102915b93841c9390800290614d14565b509250929050565b5f82614d7e57506001610146565b81614d8a57505f610146565b8160018114614da05760028114614daa57614dc6565b6001915050610146565b60ff841115614dbb57614dbb614c78565b50506001821b610146565b5060208310610133831016604e8410600b8410161715614de9575081810a610146565b614df38383614d0f565b807fffffffffffffffffffffffffffffffffffffffffffffffffffffffffffffffff04821115614e2557614e25614c78565b029392505050565b5f6107b38383614d70565b5f82614e4657614e46614cb8565b500690565b8181038181111561014657610146614c78565b828152604060208201525f61269160408301846147f2565b7f4e487b71000000000000000000000000000000000000000000000000000000005f52605160045260245ffdfe076907ba07fc09be0aa30ab50ac70ae90b2b0b7d0b8e0b9f0c400c7d0d380de50e650fa210c20d3811b6125512c91302133b138a138a13c3142714f8154a155e15b615ca15df15f916041618162d1664168a1709175617a317f01807181f186c18a318b018bd18d718eb1902191b192819351942194f199c19e91a361a831a9a1a9a1ab01add1add1af31b211b751b821b821c251d07","linkReferences":{}}}