{
  "abi": [
    {
      "inputs": [
        {
          "components": [
            {
              "internalType": "address",
              "name": "interpreter",
              "type": "address"
            },
            {
              "internalType": "address",
              "name": "store",
              "type": "address"
            },
            {
              "internalType": "bytes",
              "name": "authoringMeta",
              "type": "bytes"
            }
          ],
          "internalType": "struct RainterpreterExpressionDeployerConstructionConfig",
          "name": "config",
          "type": "tuple"
        }
      ],
      "stateMutability": "nonpayable",
      "type": "constructor"
    },
    {
      "inputs": [
        {
          "internalType": "bytes32",
          "name": "expected",
          "type": "bytes32"
        },
        {
          "internalType": "bytes32",
          "name": "actual",
          "type": "bytes32"
        }
      ],
      "name": "AuthoringMetaHashMismatch",
      "type": "error"
    },
    {
      "inputs": [
        {
          "internalType": "uint256",
          "name": "dynamicLength",
          "type": "uint256"
        },
        {
          "internalType": "uint256",
          "name": "standardOpsLength",
          "type": "uint256"
        }
      ],
      "name": "BadDynamicLength",
      "type": "error"
    },
    {
      "inputs": [
        {
          "internalType": "uint256",
          "name": "opIndex",
          "type": "uint256"
        },
        {
          "internalType": "uint256",
          "name": "calculatedInputs",
          "type": "uint256"
        },
        {
          "internalType": "uint256",
          "name": "bytecodeInputs",
          "type": "uint256"
        }
      ],
      "name": "BadOpInputsLength",
      "type": "error"
    },
    {
      "inputs": [],
      "name": "DanglingSource",
      "type": "error"
    },
    {
      "inputs": [
        {
          "internalType": "uint256",
          "name": "offset",
          "type": "uint256"
        }
      ],
      "name": "DecimalLiteralOverflow",
      "type": "error"
    },
    {
      "inputs": [],
      "name": "DuplicateFingerprint",
      "type": "error"
    },
    {
      "inputs": [
        {
          "internalType": "uint256",
          "name": "errorOffset",
          "type": "uint256"
        }
      ],
      "name": "DuplicateLHSItem",
      "type": "error"
    },
    {
      "inputs": [
        {
          "internalType": "uint256",
          "name": "entrypointIndex",
          "type": "uint256"
        },
        {
          "internalType": "uint256",
          "name": "outputsLength",
          "type": "uint256"
        },
        {
          "internalType": "uint256",
          "name": "minOutputs",
          "type": "uint256"
        }
      ],
      "name": "EntrypointMinOutputs",
      "type": "error"
    },
    {
      "inputs": [
        {
          "internalType": "uint256",
          "name": "expectedEntrypoints",
          "type": "uint256"
        },
        {
          "internalType": "uint256",
          "name": "actualEntrypoints",
          "type": "uint256"
        }
      ],
      "name": "EntrypointMissing",
      "type": "error"
    },
    {
      "inputs": [
        {
          "internalType": "uint256",
          "name": "entrypointIndex",
          "type": "uint256"
        },
        {
          "internalType": "uint256",
          "name": "inputsLength",
          "type": "uint256"
        }
      ],
      "name": "EntrypointNonZeroInput",
      "type": "error"
    },
    {
      "inputs": [
        {
          "internalType": "uint256",
          "name": "offset",
          "type": "uint256"
        }
      ],
      "name": "ExcessLHSItems",
      "type": "error"
    },
    {
      "inputs": [
        {
          "internalType": "uint256",
          "name": "offset",
          "type": "uint256"
        }
      ],
      "name": "ExcessRHSItems",
      "type": "error"
    },
    {
      "inputs": [
        {
          "internalType": "uint256",
          "name": "offset",
          "type": "uint256"
        }
      ],
      "name": "ExpectedLeftParen",
      "type": "error"
    },
    {
      "inputs": [
        {
          "internalType": "uint256",
          "name": "offset",
          "type": "uint256"
        }
      ],
      "name": "ExpectedOperand",
      "type": "error"
    },
    {
      "inputs": [
        {
          "internalType": "uint256",
          "name": "offset",
          "type": "uint256"
        }
      ],
      "name": "HexLiteralOverflow",
      "type": "error"
    },
    {
      "inputs": [
        {
          "internalType": "uint256",
          "name": "offset",
          "type": "uint256"
        }
      ],
      "name": "MalformedCommentStart",
      "type": "error"
    },
    {
      "inputs": [
        {
          "internalType": "uint256",
          "name": "offset",
          "type": "uint256"
        }
      ],
      "name": "MalformedExponentDigits",
      "type": "error"
    },
    {
      "inputs": [
        {
          "internalType": "uint256",
          "name": "offset",
          "type": "uint256"
        }
      ],
      "name": "MalformedHexLiteral",
      "type": "error"
    },
    {
      "inputs": [],
      "name": "MaxSources",
      "type": "error"
    },
    {
      "inputs": [
        {
          "internalType": "uint256",
          "name": "offset",
          "type": "uint256"
        }
      ],
      "name": "MissingFinalSemi",
      "type": "error"
    },
    {
      "inputs": [
        {
          "internalType": "uint256",
          "name": "offset",
          "type": "uint256"
        }
      ],
      "name": "NotAcceptingInputs",
      "type": "error"
    },
    {
      "inputs": [
        {
          "internalType": "uint256",
          "name": "offset",
          "type": "uint256"
        }
      ],
      "name": "OddLengthHexLiteral",
      "type": "error"
    },
    {
      "inputs": [
        {
          "internalType": "uint256",
          "name": "offset",
          "type": "uint256"
        }
      ],
      "name": "OperandOverflow",
      "type": "error"
    },
    {
      "inputs": [
        {
          "internalType": "uint256",
          "name": "opIndex",
          "type": "uint256"
        },
        {
          "internalType": "uint256",
          "name": "constantsLength",
          "type": "uint256"
        },
        {
          "internalType": "uint256",
          "name": "constantRead",
          "type": "uint256"
        }
      ],
      "name": "OutOfBoundsConstantRead",
      "type": "error"
    },
    {
      "inputs": [
        {
          "internalType": "uint256",
          "name": "opIndex",
          "type": "uint256"
        },
        {
          "internalType": "uint256",
          "name": "stackTopIndex",
          "type": "uint256"
        },
        {
          "internalType": "uint256",
          "name": "stackRead",
          "type": "uint256"
        }
      ],
      "name": "OutOfBoundsStackRead",
      "type": "error"
    },
    {
      "inputs": [],
      "name": "ParenOverflow",
      "type": "error"
    },
    {
      "inputs": [],
      "name": "ParserOutOfBounds",
      "type": "error"
    },
    {
      "inputs": [
        {
          "internalType": "bytes",
          "name": "bytecode",
          "type": "bytes"
        },
        {
          "internalType": "uint256",
          "name": "sourceIndex",
          "type": "uint256"
        }
      ],
      "name": "SourceOffsetOutOfBounds",
      "type": "error"
    },
    {
      "inputs": [
        {
          "internalType": "uint256",
          "name": "stackMaxIndex",
          "type": "uint256"
        },
        {
          "internalType": "uint256",
          "name": "bytecodeAllocation",
          "type": "uint256"
        }
      ],
      "name": "StackAllocationMismatch",
      "type": "error"
    },
    {
      "inputs": [
        {
          "internalType": "uint256",
          "name": "stackIndex",
          "type": "uint256"
        },
        {
          "internalType": "uint256",
          "name": "bytecodeOutputs",
          "type": "uint256"
        }
      ],
      "name": "StackOutputsMismatch",
      "type": "error"
    },
    {
      "inputs": [],
      "name": "StackOverflow",
      "type": "error"
    },
    {
      "inputs": [
        {
          "internalType": "uint256",
          "name": "opIndex",
          "type": "uint256"
        },
        {
          "internalType": "uint256",
          "name": "stackIndex",
          "type": "uint256"
        },
        {
          "internalType": "uint256",
          "name": "calculatedInputs",
          "type": "uint256"
        }
      ],
      "name": "StackUnderflow",
      "type": "error"
    },
    {
      "inputs": [],
      "name": "StackUnderflow",
      "type": "error"
    },
    {
      "inputs": [
        {
          "internalType": "uint256",
          "name": "opIndex",
          "type": "uint256"
        },
        {
          "internalType": "uint256",
          "name": "stackIndex",
          "type": "uint256"
        },
        {
          "internalType": "uint256",
          "name": "stackHighwater",
          "type": "uint256"
        }
      ],
      "name": "StackUnderflowHighwater",
      "type": "error"
    },
    {
      "inputs": [
        {
          "internalType": "uint256",
          "name": "offset",
          "type": "uint256"
        }
      ],
      "name": "UnclosedLeftParen",
      "type": "error"
    },
    {
      "inputs": [
        {
          "internalType": "uint256",
          "name": "offset",
          "type": "uint256"
        }
      ],
      "name": "UnclosedOperand",
      "type": "error"
    },
    {
      "inputs": [
        {
          "internalType": "uint256",
          "name": "offset",
          "type": "uint256"
        }
      ],
      "name": "UnexpectedComment",
      "type": "error"
    },
    {
      "inputs": [
        {
          "internalType": "bytes32",
          "name": "actualBytecodeHash",
          "type": "bytes32"
        }
      ],
      "name": "UnexpectedInterpreterBytecodeHash",
      "type": "error"
    },
    {
      "inputs": [
        {
          "internalType": "uint256",
          "name": "offset",
          "type": "uint256"
        }
      ],
      "name": "UnexpectedLHSChar",
      "type": "error"
    },
    {
      "inputs": [
        {
          "internalType": "bytes32",
          "name": "actualOpMeta",
          "type": "bytes32"
        }
      ],
      "name": "UnexpectedOpMetaHash",
      "type": "error"
    },
    {
      "inputs": [
        {
          "internalType": "uint256",
          "name": "offset",
          "type": "uint256"
        }
      ],
      "name": "UnexpectedOperand",
      "type": "error"
    },
    {
      "inputs": [
        {
          "internalType": "bytes",
          "name": "actualPointers",
          "type": "bytes"
        }
      ],
      "name": "UnexpectedPointers",
      "type": "error"
    },
    {
      "inputs": [
        {
          "internalType": "uint256",
          "name": "offset",
          "type": "uint256"
        }
      ],
      "name": "UnexpectedRHSChar",
      "type": "error"
    },
    {
      "inputs": [
        {
          "internalType": "uint256",
          "name": "offset",
          "type": "uint256"
        }
      ],
      "name": "UnexpectedRightParen",
      "type": "error"
    },
    {
      "inputs": [
        {
          "internalType": "bytes32",
          "name": "actualBytecodeHash",
          "type": "bytes32"
        }
      ],
      "name": "UnexpectedStoreBytecodeHash",
      "type": "error"
    },
    {
      "inputs": [
        {
          "internalType": "uint256",
          "name": "offset",
          "type": "uint256"
        }
      ],
      "name": "UnknownWord",
      "type": "error"
    },
    {
      "inputs": [
        {
          "internalType": "uint256",
          "name": "offset",
          "type": "uint256"
        }
      ],
      "name": "UnsupportedLiteralType",
      "type": "error"
    },
    {
      "inputs": [
        {
          "internalType": "string",
          "name": "word",
          "type": "string"
        }
      ],
      "name": "WordSize",
      "type": "error"
    },
    {
      "inputs": [],
      "name": "WriteError",
      "type": "error"
    },
    {
      "inputs": [
        {
          "internalType": "uint256",
          "name": "offset",
          "type": "uint256"
        }
      ],
      "name": "ZeroLengthDecimal",
      "type": "error"
    },
    {
      "inputs": [
        {
          "internalType": "uint256",
          "name": "offset",
          "type": "uint256"
        }
      ],
      "name": "ZeroLengthHexLiteral",
      "type": "error"
    },
    {
      "anonymous": false,
      "inputs": [
        {
          "indexed": false,
          "internalType": "address",
          "name": "sender",
          "type": "address"
        },
        {
          "indexed": false,
          "internalType": "address",
          "name": "deployer",
          "type": "address"
        },
        {
          "indexed": false,
          "internalType": "address",
          "name": "interpreter",
          "type": "address"
        },
        {
          "indexed": false,
          "internalType": "address",
          "name": "store",
          "type": "address"
        },
        {
          "indexed": false,
          "internalType": "bytes",
          "name": "opMeta",
          "type": "bytes"
        }
      ],
      "name": "DISpair",
      "type": "event"
    },
    {
      "anonymous": false,
      "inputs": [
        {
          "indexed": false,
          "internalType": "address",
          "name": "sender",
          "type": "address"
        },
        {
          "indexed": false,
          "internalType": "address",
          "name": "expression",
          "type": "address"
        }
      ],
      "name": "ExpressionAddress",
      "type": "event"
    },
    {
      "anonymous": false,
      "inputs": [
        {
          "indexed": false,
          "internalType": "address",
          "name": "sender",
          "type": "address"
        },
        {
          "indexed": false,
          "internalType": "bytes",
          "name": "bytecode",
          "type": "bytes"
        },
        {
          "indexed": false,
          "internalType": "uint256[]",
          "name": "constants",
          "type": "uint256[]"
        },
        {
          "indexed": false,
          "internalType": "uint256[]",
          "name": "minOutputs",
          "type": "uint256[]"
        }
      ],
      "name": "NewExpression",
      "type": "event"
    },
    {
      "inputs": [],
      "name": "authoringMetaHash",
      "outputs": [
        {
          "internalType": "bytes32",
          "name": "",
          "type": "bytes32"
        }
      ],
      "stateMutability": "pure",
      "type": "function"
    },
    {
      "inputs": [
        {
          "internalType": "bytes",
          "name": "authoringMeta",
          "type": "bytes"
        }
      ],
      "name": "buildParseMeta",
      "outputs": [
        {
          "internalType": "bytes",
          "name": "",
          "type": "bytes"
        }
      ],
      "stateMutability": "pure",
      "type": "function"
    },
    {
      "inputs": [
        {
          "internalType": "bytes",
          "name": "bytecode",
          "type": "bytes"
        },
        {
          "internalType": "uint256[]",
          "name": "constants",
          "type": "uint256[]"
        },
        {
          "internalType": "uint256[]",
          "name": "minOutputs",
          "type": "uint256[]"
        }
      ],
      "name": "deployExpression",
      "outputs": [
        {
          "internalType": "contract IInterpreterV1",
          "name": "",
          "type": "address"
        },
        {
          "internalType": "contract IInterpreterStoreV1",
          "name": "",
          "type": "address"
        },
        {
          "internalType": "address",
          "name": "",
          "type": "address"
        }
      ],
      "stateMutability": "nonpayable",
      "type": "function"
    },
    {
      "inputs": [],
      "name": "iInterpreter",
      "outputs": [
        {
          "internalType": "contract IInterpreterV1",
          "name": "",
          "type": "address"
        }
      ],
      "stateMutability": "view",
      "type": "function"
    },
    {
      "inputs": [],
      "name": "iStore",
      "outputs": [
        {
          "internalType": "contract IInterpreterStoreV1",
          "name": "",
          "type": "address"
        }
      ],
      "stateMutability": "view",
      "type": "function"
    },
    {
      "inputs": [
        {
          "internalType": "bytes",
          "name": "bytecode",
          "type": "bytes"
        },
        {
          "internalType": "uint256[]",
          "name": "constants",
          "type": "uint256[]"
        },
        {
          "internalType": "uint256[]",
          "name": "minOutputs",
          "type": "uint256[]"
        }
      ],
      "name": "integrityCheck",
      "outputs": [],
      "stateMutability": "view",
      "type": "function"
    },
    {
      "inputs": [],
      "name": "integrityFunctionPointers",
      "outputs": [
        {
          "internalType": "bytes",
          "name": "",
          "type": "bytes"
        }
      ],
      "stateMutability": "view",
      "type": "function"
    },
    {
      "inputs": [
        {
          "internalType": "bytes",
          "name": "data",
          "type": "bytes"
        }
      ],
      "name": "parse",
      "outputs": [
        {
          "internalType": "bytes",
          "name": "",
          "type": "bytes"
        },
        {
          "internalType": "uint256[]",
          "name": "",
          "type": "uint256[]"
        }
      ],
      "stateMutability": "pure",
      "type": "function"
    },
    {
      "inputs": [],
      "name": "parseMeta",
      "outputs": [
        {
          "internalType": "bytes",
          "name": "",
          "type": "bytes"
        }
      ],
      "stateMutability": "pure",
      "type": "function"
    },
    {
      "inputs": [
        {
          "internalType": "bytes4",
          "name": "interfaceId_",
          "type": "bytes4"
        }
      ],
      "name": "supportsInterface",
      "outputs": [
        {
          "internalType": "bool",
          "name": "",
          "type": "bool"
        }
      ],
      "stateMutability": "view",
      "type": "function"
    }
  ],
  "bytecode": {
    "object": "0x60c06040523480156200001157600080fd5b506040516200524c3803806200524c833981016040819052620000349162000449565b805160208201516001600160a01b03808316608081905290821660a0526040805163f933c72f60e01b815290516000929163f933c72f91600480830192869291908290030181865afa1580156200008f573d6000803e3d6000fd5b505050506040513d6000823e601f3d908101601f19168201604052620000b99190810190620004fa565b9050604051806080016040528060528152602001620051fa6052913980519060200120818051906020012014620001105780604051634c1af20160e11b815260040162000107919062000568565b60405180910390fd5b823f7fb19d9833a371809da71da11f9893b85edbcc81592e2e43bdb3e4218cac1fb5f781146200015757604051630eec293f60e11b81526004810182905260240162000107565b823f7fd6130168250d3957ae34f8026c2bdbd7e21d35bb202e8540a9b3abcbc232ddb681146200019e5760405163cc0415fd60e01b81526004810182905260240162000107565b604086015180516020909101207fa4d558de3cab056effa790499ea313ff3d962d95513646614a9a29073f44aeb18114620001f0576040516343d0fe5760e11b81526004810182905260240162000107565b7f1788931a083e1bfada6cb062b5426ea97c7866b814b4d1173909e4018f2122f1333088888b604001516040516200022d95949392919062000584565b60405180910390a1604080518082018252601581527f4945787072657373696f6e4465706c6f79657256320000000000000000000000602082015290516365ba36c160e01b8152731820a4b7618bde71dce8cdc73aab6c95905fad24916329965a1d91309184916365ba36c191620002a89160040162000568565b602060405180830381865afa158015620002c6573d6000803e3d6000fd5b505050506040513d601f19601f82011682018060405250810190620002ec9190620005cd565b6040516001600160e01b031960e085901b1681526001600160a01b0390921660048301526024820152306044820152606401600060405180830381600087803b1580156200033957600080fd5b505af11580156200034e573d6000803e3d6000fd5b5050505050505050505050620005e7565b634e487b7160e01b600052604160045260246000fd5b80516001600160a01b03811681146200038d57600080fd5b919050565b60005b83811015620003af57818101518382015260200162000395565b50506000910152565b600082601f830112620003ca57600080fd5b81516001600160401b0380821115620003e757620003e76200035f565b604051601f8301601f19908116603f011681019082821181831017156200041257620004126200035f565b816040528381528660208588010111156200042c57600080fd5b6200043f84602083016020890162000392565b9695505050505050565b6000602082840312156200045c57600080fd5b81516001600160401b03808211156200047457600080fd5b90830190606082860312156200048957600080fd5b604051606081018181108382111715620004a757620004a76200035f565b604052620004b58362000375565b8152620004c56020840162000375565b6020820152604083015182811115620004dd57600080fd5b620004eb87828601620003b8565b60408301525095945050505050565b6000602082840312156200050d57600080fd5b81516001600160401b038111156200052457600080fd5b6200053284828501620003b8565b949350505050565b600081518084526200055481602086016020860162000392565b601f01601f19169290920160200192915050565b6020815260006200057d60208301846200053a565b9392505050565b6001600160a01b038681168252858116602083015284811660408301528316606082015260a060808201819052600090620005c2908301846200053a565b979650505050505050565b600060208284031215620005e057600080fd5b5051919050565b60805160a051614bdf6200061b60003960008181610190015261044d0152600081816101f1015261042a0152614bdf6000f3fe608060405234801561001057600080fd5b50600436106100be5760003560e01c8063c19423bc11610076578063f0cfdd371161005b578063f0cfdd37146101ec578063fab4087a14610213578063ffc257041461023457600080fd5b8063c19423bc1461018b578063cbb7d173146101d757600080fd5b80638d614591116100a75780638d61459114610135578063a600bd0a1461014a578063b6c7175a1461015d57600080fd5b806301ffc9a7146100c357806331a66b65146100eb575b600080fd5b6100d66100d1366004614445565b61023c565b60405190151581526020015b60405180910390f35b6100fe6100f936600461465b565b6102d5565b6040805173ffffffffffffffffffffffffffffffffffffffff948516815292841660208401529216918101919091526060016100e2565b61013d61047c565b6040516100e29190614751565b61013d610158366004614764565b61048b565b6040517fa4d558de3cab056effa790499ea313ff3d962d95513646614a9a29073f44aeb181526020016100e2565b6101b27f000000000000000000000000000000000000000000000000000000000000000081565b60405173ffffffffffffffffffffffffffffffffffffffff90911681526020016100e2565b6101ea6101e536600461465b565b610547565b005b6101b27f000000000000000000000000000000000000000000000000000000000000000081565b610226610221366004614764565b610570565b6040516100e29291906147d4565b61013d61058d565b60007fffffffff0000000000000000000000000000000000000000000000000000000082167f31a66b650000000000000000000000000000000000000000000000000000000014806102cf57507fffffffff0000000000000000000000000000000000000000000000000000000082167f01ffc9a700000000000000000000000000000000000000000000000000000000145b92915050565b60008060006102e5868686610547565b7f4a48f556905d90b4a58742999556994182322843167010b59bf8149724db51cf3387878760405161031a9493929190614802565b60405180910390a18451865160009182916103bd916020020160400160408051602c83017fffffffffffffffffffffffffffffffffffffffffffffffffffffffffffffffe01681019091527effff0000000000000000000000000000000000000000000000000000000000600190920160e81b919091167f61000080600c6000396000f3000000000000000000000000000000000000000017815290600d820190565b915091506103cc8189896105ae565b60006103d7836105ec565b6040805133815273ffffffffffffffffffffffffffffffffffffffff831660208201529192507fce6e4a4a7b561c65155990775d2faf8a581292f97859ce67e366fd53686b31f1910160405180910390a17f000000000000000000000000000000000000000000000000000000000000000095507f00000000000000000000000000000000000000000000000000000000000000009450925050505b93509350939050565b606061048661065a565b905090565b805160208201206060907fa4d558de3cab056effa790499ea313ff3d962d95513646614a9a29073f44aeb1811461051c576040517f26cc0fec0000000000000000000000000000000000000000000000000000000081527fa4d558de3cab056effa790499ea313ff3d962d95513646614a9a29073f44aeb16004820152602481018290526044015b60405180910390fd5b6000838060200190518101906105329190614862565b905061053f816002610837565b949350505050565b61056b604051806080016040528060528152602001614b8d60529139848484610ecb565b505050565b6060806105848361057f61058d565b61128a565b91509150915091565b606060405180610120016040528060ef8152602001614a9e60ef9139905090565b80600182510160200281015b808210156105d55781518552602094850194909101906105ba565b505061056b6105e18390565b848451602001611af2565b6000806000600d9050835160e81c61ffff168101846000f0915073ffffffffffffffffffffffffffffffffffffffff8216610653576040517f08d4abb600000000000000000000000000000000000000000000000000000000815260040160405180910390fd5b5092915050565b606061443b60006029905080915060006040518061054001604052808467ffffffffffffffff1667ffffffffffffffff168152602001611b588152602001611bd28152602001611c398152602001611c438152602001611c398152602001611c398152602001611c398152602001611c398152602001611c398152602001611c4d8152602001611c6f8152602001611c998152602001611cbb8152602001611c4d8152602001611cbb8152602001611cbb8152602001611cc58152602001611ccf8152602001611cbb8152602001611cbb8152602001611cd88152602001611cd88152602001611cbb8152602001611ccf8152602001611ccf8152602001611cd88152602001611cd88152602001611cd88152602001611cd88152602001611cd88152602001611cd88152602001611cd88152602001611cd88152602001611cd88152602001611cd88152602001611cd88152602001611cd88152602001611ccf8152602001611cef8152602001611cf98152602001611cf98152509050606081905060298151146108255780516040517fc8b56901000000000000000000000000000000000000000000000000000000008152600481019190915260248101849052604401610513565b61082e81611d08565b94505050505090565b6060808060008060ff861667ffffffffffffffff81111561085a5761085a61448e565b604051908082528060200260200182016040528015610883578160200160208202803683370190505b5093508560ff1667ffffffffffffffff8111156108a2576108a261448e565b6040519080825280602002602001820160405280156108cb578160200160208202803683370190505b509250865b805115610940576000806108e383611d99565b895190955091935091508290889086908110610901576109016149c8565b602002602001019060ff16908160ff168152505080868581518110610928576109286149c8565b602090810291909101015250506001909101906108d0565b5060006005885102602183026001010190508067ffffffffffffffff81111561096b5761096b61448e565b6040519080825280601f01601f191660200182016040528015610995576020820181803683370190505b50955081602087015360005b828110156109d357806021026021880101816020026020018701518153602080830287010151600191820152016109a1565b50506021028401600601905060005b8651811015610ec1576000805b6000806000878581518110610a0657610a066149c8565b60200260200101519050600080610a568b8881518110610a2857610a286149c8565b602002602001015160ff168f8a81518110610a4557610a456149c8565b602002602001015160000151611fff565b9250905060056000877fffffffffffffffffffffffffffffffffffffffffffffffffffffffffffffffff84018616600181901c7f5555555555555555555555555555555555555555555555555555555555555555908116911601600281901c7f3333333333333333333333333333333333333333333333333333333333333333908116911601600481901c7f0f0f0f0f0f0f0f0f0f0f0f0f0f0f0f0f0f0f0f0f0f0f0f0f0f0f0f0f0f0f0f0f908116911601600881901c7eff00ff00ff00ff00ff00ff00ff00ff00ff00ff00ff00ff00ff00ff00ff00ff908116911601601081901c7dffff0000ffff0000ffff0000ffff0000ffff0000ffff0000ffff0000ffff908116911601602081901c7bffffffff00000000ffffffff00000000ffffffff00000000ffffffff908116911601604081901c77ffffffffffffffff0000000000000000ffffffffffffffff908116911601608081901c6fffffffffffffffffffffffffffffffff919091160101919091028a01805190955062ffffff84811693501690508015610e6857818103610c1b576040517f59293c5100000000000000000000000000000000000000000000000000000000815260040160405180910390fd5b600190970196610e598460007f5555555555555555555555555555555555555555555555555555555555555555600183901c167f555555555555555555555555555555555555555555555555555555555555555583160191507f3333333333333333333333333333333333333333333333333333333333333333600283901c167f333333333333333333333333333333333333333333333333333333333333333383160191507f0f0f0f0f0f0f0f0f0f0f0f0f0f0f0f0f0f0f0f0f0f0f0f0f0f0f0f0f0f0f0f0f600483901c167f0f0f0f0f0f0f0f0f0f0f0f0f0f0f0f0f0f0f0f0f0f0f0f0f0f0f0f0f0f0f0f0f83160191507eff00ff00ff00ff00ff00ff00ff00ff00ff00ff00ff00ff00ff00ff00ff00ff600883901c167eff00ff00ff00ff00ff00ff00ff00ff00ff00ff00ff00ff00ff00ff00ff00ff83160191507dffff0000ffff0000ffff0000ffff0000ffff0000ffff0000ffff0000ffff601083901c167dffff0000ffff0000ffff0000ffff0000ffff0000ffff0000ffff0000ffff83160191507bffffffff00000000ffffffff00000000ffffffff00000000ffffffff602083901c167bffffffff00000000ffffffff00000000ffffffff00000000ffffffff831601915077ffffffffffffffff0000000000000000ffffffffffffffff604083901c1677ffffffffffffffff0000000000000000ffffffffffffffff83160191506fffffffffffffffffffffffffffffffff608083901c166fffffffffffffffffffffffffffffffff8316019150819050919050565b870196505050505050506109ef565b8195505050505060188b8681518110610e8357610e836149c8565b60200260200101516020015160ff16901b602086901b17821791506000600160056001901b03199050828183511617825250505050506001016109e2565b5050505092915050565b6000610ed684612021565b90508082511115610f205781516040517ffd9e1af4000000000000000000000000000000000000000000000000000000008152600481019190915260248101829052604401610513565b6020850160005b82811015611281576000610f3b878361203f565b90506000610f498884612058565b90508551831015611019578115610f96576040517fee8d10810000000000000000000000000000000000000000000000000000000081526004810184905260248101839052604401610513565b858381518110610fa857610fa86149c8565b6020026020010151811015611019578281878581518110610fcb57610fcb6149c8565b60200260200101516040517ff7dd619f000000000000000000000000000000000000000000000000000000008152600401610513939291909283526020830191909152604082015260600190565b600061102789848a51612071565b9050600060186110378b876120dd565b03905060006110468b8761210e565b600402820190505b808210156111cb578151601c81901a60020288015162ffffff821691601d1a9060f01c60008061107c888685565b915091508382146110d05760808801516040517fddf5607100000000000000000000000000000000000000000000000000000000815260048101919091526024810183905260448101859052606401610513565b875182111561112257608088015188516040517f2cab6bff0000000000000000000000000000000000000000000000000000000081526004810192909252602482015260448101839052606401610513565b87518290038089526040890151111561118457608088015188516040808b015190517f1bc5ab0f000000000000000000000000000000000000000000000000000000008152600481019390935260248301919091526044820152606401610513565b875181018089526020890151101561119e57875160208901525b60018111156111af57875160408901525b505050608085018051600101905250506004919091019061104e565b6111d58b87612127565b8360200151146112295782602001516111ee8c88612127565b6040517f4d9c18dc00000000000000000000000000000000000000000000000000000000815260048101929092526024820152604401610513565b825184146112705782516040517f4689f0b3000000000000000000000000000000000000000000000000000000008152600481019190915260248101859052604401610513565b505060019093019250610f27915050565b50505050505050565b6060806000611297612140565b855190915015611ad3578451600090602087810191880101825b81831015611a30576001835160001a1b905060018560e00151166000036115c2576f07fffffe80000000000000000000000081161561146a5760e085015160021615611352578883037fffffffffffffffffffffffffffffffffffffffffffffffffffffffffffffffe0015b6040517f5520a51700000000000000000000000000000000000000000000000000000000815260040161051391815260200190565b6f07fffffe0000000000000000000000008116156113fe57611384836f07fffffe0000000003ff2000000000006122af565b945092506000806113958787612360565b9150915081156113f7576040517f53e6feba0000000000000000000000000000000000000000000000000000000081527fffffffffffffffffffffffffffffffffffffffffffffffffffffffffffffffe08c8703016004820152602401610513565b505061141f565b61141c60018401836f07fffffe0000000003ff2000000000006123d7565b92505b604085018051600190810190915260a086018051909101905260e0850180516022177fffffffffffffffffffffffffffffffffffffffffffffffffffffffffffffffef1690526112b1565b6401000026008116156114bb5761148a60018401836401000026006123d7565b60e0860180517ffffffffffffffffffffffffffffffffffffffffffffffffffffffffffffffffd16905292506112b1565b6704000000000000008116156115045760e0850180516021177fffffffffffffffffffffffffffffffffffffffffffffffffffffffffffffffed169052600192909201916112b1565b658000000000008116156115985760108560e001511660000361157c578883037fffffffffffffffffffffffffffffffffffffffffffffffffffffffffffffffe0015b6040517fedad0c5800000000000000000000000000000000000000000000000000000000815260040161051391815260200190565b6115868984612403565b60e086018051600217905292506112b1565b8883037fffffffffffffffffffffffffffffffffffffffffffffffffffffffffffffffe00161131d565b6f07fffffe0000000000000000000000008116156117575760e085015160021615611642578883037fffffffffffffffffffffffffffffffffffffffffffffffffffffffffffffffe0015b6040517f4e803df600000000000000000000000000000000000000000000000000000000815260040161051391815260200190565b61165c836f07fffffe0000000003ff2000000000006122af565b809550819450505060008061443b61167a8b896101a001518961250f565b92509250925082156116bd57600061169c8961018001518e898563ffffffff16565b90975090506116ac898483612942565b5060e0880180516004179052611744565b6116c78888612a7f565b909350915082156116ec576116de88600084612942565b6116e788612afa565b611744565b6040517f81bd48db0000000000000000000000000000000000000000000000000000000081527fffffffffffffffffffffffffffffffffffffffffffffffffffffffffffffffe08d8803016004820152602401610513565b50505060e08501805160021790526112b1565b60e08501516004161561184d576501000000000081166000036117cc576040517f23b5c6ea0000000000000000000000000000000000000000000000000000000081527fffffffffffffffffffffffffffffffffffffffffffffffffffffffffffffffe08a8503016004820152602401610513565b60608501805160001a60030190819053603b811115611817576040517f6232f2d900000000000000000000000000000000000000000000000000000000815260040160405180910390fd5b5060e0850180517ffffffffffffffffffffffffffffffffffffffffffffffffffffffffffffffff91690526001909201916112b1565b6502000000000081161561191e576000606086015160001a9050806000036118c7576040517f7f9db5420000000000000000000000000000000000000000000000000000000081527fffffffffffffffffffffffffffffffffffffffffffffffffffffffffffffffe08b8603016004820152602401610513565b7ffffffffffffffffffffffffffffffffffffffffffffffffffffffffffffffffd01606086018181538160048201015160001a8260028301015160f01c600101535061191286612afa565b506001909201916112b1565b64010000260081161561193e5761148a60018401836401000026006123d7565b6703ff00000000000081161561197457611959858a85612b5d565b925061196485612afa565b60e08501805160021790526112b1565b651000000000008116156119985761198d858a85612caf565b6001909201916112b1565b6708000000000000008116156119ce576119b3858a85612caf565b6119bc85612f82565b601860e08601526001909201916112b1565b65800000000000811615611a06578883037fffffffffffffffffffffffffffffffffffffffffffffffffffffffffffffffe001611547565b8883037fffffffffffffffffffffffffffffffffffffffffffffffffffffffffffffffe00161160d565b818314611a69576040517f7d565df600000000000000000000000000000000000000000000000000000000815260040160405180910390fd5b60e085015160201615611ace576040517ff06f54cf0000000000000000000000000000000000000000000000000000000081527fffffffffffffffffffffffffffffffffffffffffffffffffffffffffffffffe08a8503016004820152602401610513565b505050505b611adc816131c4565b611ae5826132fc565b92509250505b9250929050565b6020810680820384015b80851015611b17578451845260209485019490930192611afc565b508015611b52577fffffffffffffffffffffffffffffffffffffffffffffffffffffffffffffffff600882021c808451168119865116178452505b50505050565b8151600090819083908110611bb057608085015185516040517feaa16f330000000000000000000000000000000000000000000000000000000081526004810192909252602482015260448101829052606401610513565b8460400151811115611bc457604085018190525b506000946001945092505050565b60008083606001518310611c2c57608084015160608501516040517feb7894540000000000000000000000000000000000000000000000000000000081526004810192909252602482015260448101849052606401610513565b5060009360019350915050565b5060009160019150565b60101c9160019150565b600080601083901c80611c61576001611c63565b805b95600195509350505050565b600080601083901c80611c83576002611c85565b805b90506002810615611c615780600101611c63565b600080601083901c80611cad576001611caf565b805b95600095509350505050565b5060029160019150565b5060039160019150565b50600191829150565b600080601083901c60018111611c61576002611c63565b5060029160009150565b60046001808316019250929050565b60606000825160020267ffffffffffffffff811115611d2957611d2961448e565b6040519080825280601f01601f191660200182016040528015611d53576020820181803683370190505b50905061ffff80196020850160208651028101600285015b81831015611d8d57805183518616908516178152602090920191600201611d6b565b50939695505050505050565b60008060606000805b60ff811015611f52576000805b8751811015611de157600080611dd1858b8581518110610a4557610a456149c8565b5093909317925050600101611daf565b506000600182901c7f555555555555555555555555555555555555555555555555555555555555555590811690831601600281901c7f3333333333333333333333333333333333333333333333333333333333333333908116911601600481901c7f0f0f0f0f0f0f0f0f0f0f0f0f0f0f0f0f0f0f0f0f0f0f0f0f0f0f0f0f0f0f0f0f908116911601600881901c7eff00ff00ff00ff00ff00ff00ff00ff00ff00ff00ff00ff00ff00ff00ff00ff908116911601601081901c7dffff0000ffff0000ffff0000ffff0000ffff0000ffff0000ffff0000ffff908116911601602081901c7bffffffff00000000ffffffff00000000ffffffff00000000ffffffff908116911601604081901c77ffffffffffffffff0000000000000000ffffffffffffffff908116911601608081901c6fffffffffffffffffffffffffffffffff9190911601905083811115611f39578093508296508195505b87518103611f48575050611f52565b5050600101611da2565b5084516040805192909103808352600101602002820190529050600080805b8651811015611ff557600080611f968860ff168a8581518110610a4557610a456149c8565b91509150848216600003611fad5793811793611feb565b888381518110611fbf57611fbf6149c8565b6020026020010151868581518110611fd957611fd96149c8565b60209081029190910101526001909301925b5050600101611f71565b5050509193909250565b60008082600052836020536021600020905060018160001a1b91509250929050565b6000815160000361203457506000919050565b506020015160001a90565b60008061204c84846120dd565b5160021a949350505050565b60008061206584846120dd565b5160031a949350505050565b6120aa6040518060c001604052806000815260200160008152602001600081526020016000815260200160008152602001606081525090565b506040805160c081018252838152602081018490529081019290925260608201526000608082015260a081019190915290565b6000806120e984612021565b600202600101905060006120fd8585613371565b949091019093016020019392505050565b60008061211b84846120dd565b5160001a949350505050565b60008061213484846120dd565b5160011a949350505050565b6121b9604051806101e001604052806000815260200160008152602001600081526020016000815260200160008152602001600081526020016000815260200160008152602001600081526020016000815260200160008152602001600081526020016000815260200160008152602001600081525090565b6000604051806101e0016040528060008152602001600081526020016000815260200160008152602001600081526020016000815260200160008152602001601060081781526020016000815260200160008152602001600081526020016000815260200161222e613a6960101b6137bd1790565b81526020016122586141a060401b61402f60301b613ed360201b613dc560101b613d281717171790565b8152600060209182018190526040805183815280840182528452918301819052908201819052606082018190526080820181905260a08201819052610100820181905261012082018190526101c082015292915050565b8151600090819060015b8419600183831a1b16156020821016156122d5576001016122b9565b9485019460208190036008810292831c90921b9161235757604080516020810184905201604080517fffffffffffffffffffffffffffffffffffffffffffffffffffffffffffffffe0818403018152908290527fe47fe8b700000000000000000000000000000000000000000000000000000000825261051391600401614751565b50939492505050565b60008061236d8484612a7f565b909250905081611aeb57506101008301805160408051948552602080862092865285018152909401517fffffffffffffffffffffffffffffffffffffffffffffffffffffffff00000000909416601085901b62ff000016179092179091529160ff90911660010190565b60005b6000826001865160001a1b161183851016156123fb576001840193506123da565b509192915050565b805160009060f01c612f2a811461246c576040517f3e47169c0000000000000000000000000000000000000000000000000000000081527fffffffffffffffffffffffffffffffffffffffffffffffffffffffffffffffe0858503016004820152602401610513565b835160029390930192602a90602f90860160200160005b806124c9575b81871084885160001a141516156124a557600187019650612489565b6001870196508187101583885160001a1417156124c457506001958601955b612483565b5080861115612504576040517f7d565df600000000000000000000000000000000000000000000000000000000815260040160405180910390fd5b509395945050505050565b60018381018051600092839261443b92602160ff909116028801600681019201845b8183101561292e576001830151602190930180519093600090819060ff16818061255b838f611fff565b9150915060008761279f60018503891660007f5555555555555555555555555555555555555555555555555555555555555555600183901c167f555555555555555555555555555555555555555555555555555555555555555583160191507f3333333333333333333333333333333333333333333333333333333333333333600283901c167f333333333333333333333333333333333333333333333333333333333333333383160191507f0f0f0f0f0f0f0f0f0f0f0f0f0f0f0f0f0f0f0f0f0f0f0f0f0f0f0f0f0f0f0f0f600483901c167f0f0f0f0f0f0f0f0f0f0f0f0f0f0f0f0f0f0f0f0f0f0f0f0f0f0f0f0f0f0f0f0f83160191507eff00ff00ff00ff00ff00ff00ff00ff00ff00ff00ff00ff00ff00ff00ff00ff600883901c167eff00ff00ff00ff00ff00ff00ff00ff00ff00ff00ff00ff00ff00ff00ff00ff83160191507dffff0000ffff0000ffff0000ffff0000ffff0000ffff0000ffff0000ffff601083901c167dffff0000ffff0000ffff0000ffff0000ffff0000ffff0000ffff0000ffff83160191507bffffffff00000000ffffffff00000000ffffffff00000000ffffffff602083901c167bffffffff00000000ffffffff00000000ffffffff00000000ffffffff831601915077ffffffffffffffff0000000000000000ffffffffffffffff604083901c1677ffffffffffffffff0000000000000000ffffffffffffffff83160191506fffffffffffffffffffffffffffffffff608083901c166fffffffffffffffffffffffffffffffff8316019150819050919050565b016005028b015195505062ffffff90811693508416830391506127e19050575060019850601b81901a9750601c1a8a901c61ffff169550610473945050505050565b600183901c7f555555555555555555555555555555555555555555555555555555555555555590811690841601600281901c7f3333333333333333333333333333333333333333333333333333333333333333908116911601600481901c7f0f0f0f0f0f0f0f0f0f0f0f0f0f0f0f0f0f0f0f0f0f0f0f0f0f0f0f0f0f0f0f0f908116911601600881901c7eff00ff00ff00ff00ff00ff00ff00ff00ff00ff00ff00ff00ff00ff00ff00ff908116911601601081901c7dffff0000ffff0000ffff0000ffff0000ffff0000ffff0000ffff0000ffff908116911601602081901c7bffffffff00000000ffffffff00000000ffffffff00000000ffffffff908116911601604081901c77ffffffffffffffff0000000000000000ffffffffffffffff908116911601608081901c6fffffffffffffffffffffffffffffffff919091160184019350505050612531565b506000998a99508998509650505050505050565b61294b836133e9565b60e08301805160207ffffffffffffffffffffffffffffffffffffffffffffffffffffffffffffffff79190911681179091528301516021600091821a850101805190911a600101815350825180516060850151600090811a86016061018051929361ffff85169360088504909103601c0192600191901a018153600060038201537fffffffffffffffffffffffffffffffffffffffffffffffffffffffffffffffe30180517fffffffffffffffffffffffffffffffffffffffffffffffffffffffffffff00001690911790528451602090920183821b176018820185901b179182905260e0819003612a78578451604080518088526020601084901b81178252810190915281517fffffffffffffffffffffffffffffffffffffffffffffffffffffffffffff0000161790525b5050505050565b61010082015161012083015160008381526020808220919384939290911c91600160ff84161b80821615612ae55761ffff83165b8015612ae3578360201c8503612ad6576001965061ffff8460101c169550612ae3565b51925061ffff8316612ab3565b505b17610120909601959095525090939092509050565b6000606082015160001a905080600003612b595760208201805160001a600101908181535080603f0361056b576040517fa25cba3100000000000000000000000000000000000000000000000000000000815260040160405180910390fd5b5050565b600061443b6000806000612b778861018001518888613433565b8981038a206101408d015194985092965090945092507fffffffffffffffffffffffffffffffffffffffffffffffffffffffffffff000016906001600083811a82901b92909190831615612c1d576101608c015160101c5b8015612c1b5780517fffffffffffffffffffffffffffffffffffffffffffffffffffffffffffff000081168603612c0a576001935050612c1b565b505160019091019061ffff16612bcf565b505b6101608c015161ffff16612c43600184612c375782612c3b565b8383035b8f9190612942565b5081612c9f57604080518082019091526101608d015160101c851781526000612c718d8a8a63ffffffff8e16565b6020830152506101608d018051600161ffff9091160160109290921b9190911790526101408c018051841790525b50929a9950505050505050505050565b606083015160001a8015612d15576040517f6fb11cdc0000000000000000000000000000000000000000000000000000000081527fffffffffffffffffffffffffffffffffffffffffffffffffffffffffffffffe0848403016004820152602401610513565b50612d1f836133e9565b60e083018051603060089182161790915260a0840151602085015160ff8083169360f89290921c9290911c1681036000819003612de85760088660e0015116600003612dbd576040517fab1d3ea70000000000000000000000000000000000000000000000000000000081527fffffffffffffffffffffffffffffffffffffffffffffffffffffffffffffffe0868603016004820152602401610513565b90820160f881901b60208701526101c0860151909190612ddd90846136f6565b6101c0870152612eb1565b6001811115612eb15780831015612e51576040517f78ef27820000000000000000000000000000000000000000000000000000000081527fffffffffffffffffffffffffffffffffffffffffffffffffffffffffffffffe0868603016004820152602401610513565b80831115612eb1576040517f43168e680000000000000000000000000000000000000000000000000000000081527fffffffffffffffffffffffffffffffffffffffffffffffffffffffffffffffe0868603016004820152602401610513565b8082036001016020601083028101905b81811015612f6d5760a08901516020848b01015190821c61ffff169060001a60015b818111612f5c5760208306601c03612efc57915160f01c915b82516101c08d015160019190911a90612f15908261373e565b6101c08e0152612f468284148015612f2d5750886001145b612f38576001612f3a565b8a5b6101c08f015190613785565b6101c08e01525060049290920191600101612ee3565b505060019093019250601001612ec1565b5050505060081b60a090940193909352505050565b60c0810151602082015160f082811c9160001a60010190829003612fd2576040517fa806284100000000000000000000000000000000000000000000000000000000815260040160405180910390fd5b600080856101c001519050855161ffff815160101c165b801561300057805190915060101c61ffff16612fe9565b50604051602188018051919450601c830192916004916024870191600090811a805b8a8310156130e85760048202860195506004878903045b8082111561305757965161ffff16601c810198509690036007613039565b506004810297889003805186529794909401938103865b60078211156130b3575160101c61ffff1680518652601c909501947ffffffffffffffffffffffffffffffffffffffffffffffffffffffffffffffff99091019061306e565b81156130ce575160101c61ffff168051865260048202909501945b505050600191820180519092919091019060001a80613022565b50505050818652600486019350846001600484040360181b1763ffffffff19855116178452601f19601f820116604052505050506001846001901b61312d9190614a26565b851682851b60f061313f876010614a39565b901b171760c087015260e0860180517fffffffffffffffffffffffffffffffffffffffffffffffffffffffffffffffdf16905260408051602080825280820183529088526000908801819052908701819052606087018190526080870181905260a08701819052610100870181905261012087018190526101c0870152505050505050565b60c08101518151516060919060f082901c9060208114613210576040517f858f2dcf00000000000000000000000000000000000000000000000000000000815260040160405180910390fd5b604051935060208401601083046000818353506001600885048301810192839101600080805b8881101561326f5789811c61ffff81165163ffff0000601092831b16811760e01b8786015284019360f08390031b929092179101613236565b50825117909152878203017fffffffffffffffffffffffffffffffffffffffffffffffffffffffffffffffe08181018952908801601f011660405260005b828110156132f0576002810288016003015161ffff90811683018051602060f082901c019260e09190911c16906132e5838284611af2565b5050506001016132ad565b50505050505050919050565b6101608101516040805161ffff8316808252602080820283019081019093529092909160109190911c90835b808211156133685760208301518252915161ffff16917fffffffffffffffffffffffffffffffffffffffffffffffffffffffffffffffe090910190613328565b50505050919050565b6002810282016003015161ffff16600061338a84612021565b8451909150600560028302840101908111806133a65750818410155b156133e15784846040517fd3fc97bd000000000000000000000000000000000000000000000000000000008152600401610513929190614a4c565b505092915050565b60208101805160001a6001810182015160001a61056b578251805160a085018051600861ffff939093169290920460200390920160106001601e84901a860301021b179052505050565b805161443b9060009081908190600181831a1b6703ff00000000000081161561365557600182811a1b7ffffffffffffffffffffffffffffffffffeffffffffffffffffff0000000000008282170161350f5760028801806c7e0000007e03ff0000000000005b806001835160001a1b16156134b357600182019150613499565b508a5161ffff8d16908c01602001808311156134fb576040517f7d565df600000000000000000000000000000000000000000000000000000000815260040160405180910390fd5b50985090965094508493506136ed92505050565b876001810160006703ff0000000000006c200000002000000000000000005b816001855160001a1b16156135485760018401935061352e565b806001855160001a1b161561357957600184019392505b816001855160001a1b16156135795760018401935061355f565b5050801580159061359857508060030182118061359857508060010182145b156135f5576040517f013b2aaa0000000000000000000000000000000000000000000000000000000081527fffffffffffffffffffffffffffffffffffffffffffffffffffffffffffffffe08d8303016004820152602401610513565b8b5161ffff60108f901c16908d0160200180841115613640576040517f7d565df600000000000000000000000000000000000000000000000000000000815260040160405180910390fd5b50995091975095508594506136ed9350505050565b87518801602001808810613695576040517f7d565df600000000000000000000000000000000000000000000000000000000815260040160405180910390fd5b6040517fb0e4e5b30000000000000000000000000000000000000000000000000000000081527fffffffffffffffffffffffffffffffffffffffffffffffffffffffffffffffe08a8a03016004820152602401610513565b93509350935093565b60006137028383613785565b9250507fffffffffffffffffffffffffffffffffffffffffffffffffffffffffffff00ff821660ff600884811c919091168301901b1792915050565b600060ff83168281101561377e576040517f04671d0000000000000000000000000000000000000000000000000000000000815260040160405180910390fd5b5050900390565b600060ff808416830190600885901c16601085901c808311156137a55750815b601081901b600883901b841717935050505092915050565b60008282036040811115613823576040517fff2f59490000000000000000000000000000000000000000000000000000000081527fffffffffffffffffffffffffffffffffffffffffffffffffffffffffffffffe0868603016004820152602401610513565b80600003613883576040517fc75cd5090000000000000000000000000000000000000000000000000000000081527fffffffffffffffffffffffffffffffffffffffffffffffffffffffffffffffe0868603016004820152602401610513565b600281066001036138e6576040517fd76d9b570000000000000000000000000000000000000000000000000000000081527fffffffffffffffffffffffffffffffffffffffffffffffffffffffffffffffe0868603016004820152602401610513565b7fffffffffffffffffffffffffffffffffffffffffffffffffffffffffffffffff830160005b858210613a5f578151600090811a906001821b906703ff00000000000082161561395957507fffffffffffffffffffffffffffffffffffffffffffffffffffffffffffffffd08201613a29565b6c7e00000000000000000000000082161561399757507fffffffffffffffffffffffffffffffffffffffffffffffffffffffffffffffa98201613a29565b687e00000000000000008216156139d157507fffffffffffffffffffffffffffffffffffffffffffffffffffffffffffffffc98201613a29565b6040517f69f1e3e60000000000000000000000000000000000000000000000000000000081527fffffffffffffffffffffffffffffffffffffffffffffffffffffffffffffffe08b8703016004820152602401610513565b831b959095179450507fffffffffffffffffffffffffffffffffffffffffffffffffffffffffffffffff9091019060040161390c565b5050509392505050565b7ffffffffffffffffffffffffffffffffffffffffffffffffffffffffffffffffd8101516000908190603090829080821a878703600381118015613abe57506001821b6c200000002000000000000000001615155b15613ae057600488039550600a858460011a0302858460021a03019350613b8c565b8260011a9150600281118015613b0757506001821b6c200000002000000000000000001615155b15613b1f57600388039550848360021a039350613b8c565b8015613b345760018803955060009350613b8c565b6040517ffa65827e0000000000000000000000000000000000000000000000000000000081527fffffffffffffffffffffffffffffffffffffffffffffffffffffffffffffffe08b8b03016004820152602401610513565b5050505b858310158015613ba05750604d81105b15613be557825160001a829003600a82900a0293909301927fffffffffffffffffffffffffffffffffffffffffffffffffffffffffffffffff90920191600101613b90565b858310613a5f57825160001a8290036001811115613c58578784037fffffffffffffffffffffffffffffffffffffffffffffffffffffffffffffffe0015b6040517f8f2b5ffd00000000000000000000000000000000000000000000000000000000815260040161051391815260200190565b600a82900a8102858101861115613c93578885037fffffffffffffffffffffffffffffffffffffffffffffffffffffffffffffffe001613c23565b9490940193507fffffffffffffffffffffffffffffffffffffffffffffffffffffffffffffffff909201915b858310613a5f57825160001a60308114613cfd578784037fffffffffffffffffffffffffffffffffffffffffffffffffffffffffffffffe001613c23565b507fffffffffffffffffffffffffffffffffffffffffffffffffffffffffffffffff90920191613cbf565b80516000908190600190821a1b7ffffffffffffffffffffffffffffffffffffffffffffffffff0000000000000008101613db4576040517ff8216c550000000000000000000000000000000000000000000000000000000081527fffffffffffffffffffffffffffffffffffffffffffffffffffffffffffffffe0868603016004820152602401610513565b83600092509250505b935093915050565b815181516000918291600190831a1b9085016020017ffffffffffffffffffffffffffffffffffffffffffffffffff0000000000000008201613ec557613e1460018601826401000026006123d7565b94506000613e26888861ffff8961433e565b9096509050613e3b86836401000026006123d7565b8051909650600160009190911a1b92506740000000000000008314613eb5578686037fffffffffffffffffffffffffffffffffffffffffffffffffffffffffffffffe0015b6040517f722cd24a00000000000000000000000000000000000000000000000000000000815260040161051391815260200190565b6001860194509250613dbd915050565b846000935093505050613dbd565b815181516000918291600190831a1b9085016020017ffffffffffffffffffffffffffffffffffffffffffffffffff0000000000000008201613fd457613f2260018601826401000026006123d7565b94506000613f33888860ff8961433e565b909650905080613f4987846401000026006123d7565b96506000613f5a8a8a60ff8b61433e565b909850600881901b92909217919050613f7988856401000026006123d7565b8051909850600160009190911a1b94506740000000000000008514613fc2578888037fffffffffffffffffffffffffffffffffffffffffffffffffffffffffffffffe001613e80565b506001870195509350613dbd92505050565b8585037fffffffffffffffffffffffffffffffffffffffffffffffffffffffffffffffe0015b6040517f24027dc400000000000000000000000000000000000000000000000000000000815260040161051391815260200190565b815181516000918291600190831a1b9085016020017ffffffffffffffffffffffffffffffffffffffffffffffffff0000000000000008201613ec55761407e60018601826401000026006123d7565b80519095506001600091821a1b92507fffffffffffffffffffffffffffffffffffffffffffffffffc00000000000000083016140bc575060006140e1565b6140c9888860018961433e565b90965090506140de86836401000026006123d7565b95505b85516001600091821a1b93507fffffffffffffffffffffffffffffffffffffffffffffffffc000000000000000840161411c57506000614141565b614129898960018a61433e565b909750905061413e87846401000026006123d7565b96505b8651600160009190911a81901b945081901b8217674000000000000000851461418e578888037fffffffffffffffffffffffffffffffffffffffffffffffffffffffffffffffe001613e80565b6001880196509450613dbd9350505050565b815181516000918291600190831a1b9085016020017ffffffffffffffffffffffffffffffffffffffffffffffffff0000000000000008201613fd4576141ef60018601826401000026006123d7565b94506000614200888860ff8961433e565b909650905061421586836401000026006123d7565b80519096506001600091821a1b93507fffffffffffffffffffffffffffffffffffffffffffffffffc000000000000000840161425357506000614278565b614260898960018a61433e565b909750905061427587846401000026006123d7565b96505b86516001600091821a1b94507fffffffffffffffffffffffffffffffffffffffffffffffffc00000000000000085016142b3575060006142d8565b6142c08a8a60018b61433e565b90985090506142d588856401000026006123d7565b97505b8751600160009190911a1b9450600882901b8317600982901b17674000000000000000861461432b578989037fffffffffffffffffffffffffffffffffffffffffffffffffffffffffffffffe001613e80565b6001890197509550613dbd945050505050565b80516000908190600190821a1b7fffffffffffffffffffffffffffffffffffffffffffffffffc000000000000000810161439c578584037fffffffffffffffffffffffffffffffffffffffffffffffffffffffffffffffe001613ffa565b61443b60008060006143af8b8b8a613433565b935093509350935060006143c88b85858863ffffffff16565b90508981111561442a576040517f7480c7840000000000000000000000000000000000000000000000000000000081527fffffffffffffffffffffffffffffffffffffffffffffffffffffffffffffffe08c8b03016004820152602401610513565b909b909a5098505050505050505050565b614443614a6e565b565b60006020828403121561445757600080fd5b81357fffffffff000000000000000000000000000000000000000000000000000000008116811461448757600080fd5b9392505050565b7f4e487b7100000000000000000000000000000000000000000000000000000000600052604160045260246000fd5b6040516060810167ffffffffffffffff811182821017156144e0576144e061448e565b60405290565b604051601f82017fffffffffffffffffffffffffffffffffffffffffffffffffffffffffffffffe016810167ffffffffffffffff8111828210171561452d5761452d61448e565b604052919050565b600067ffffffffffffffff82111561454f5761454f61448e565b50601f017fffffffffffffffffffffffffffffffffffffffffffffffffffffffffffffffe01660200190565b600082601f83011261458c57600080fd5b813561459f61459a82614535565b6144e6565b8181528460208386010111156145b457600080fd5b816020850160208301376000918101602001919091529392505050565b600067ffffffffffffffff8211156145eb576145eb61448e565b5060051b60200190565b600082601f83011261460657600080fd5b8135602061461661459a836145d1565b82815260059290921b8401810191818101908684111561463557600080fd5b8286015b848110156146505780358352918301918301614639565b509695505050505050565b60008060006060848603121561467057600080fd5b833567ffffffffffffffff8082111561468857600080fd5b6146948783880161457b565b945060208601359150808211156146aa57600080fd5b6146b6878388016145f5565b935060408601359150808211156146cc57600080fd5b506146d9868287016145f5565b9150509250925092565b60005b838110156146fe5781810151838201526020016146e6565b50506000910152565b6000815180845261471f8160208601602086016146e3565b601f017fffffffffffffffffffffffffffffffffffffffffffffffffffffffffffffffe0169290920160200192915050565b6020815260006144876020830184614707565b60006020828403121561477657600080fd5b813567ffffffffffffffff81111561478d57600080fd5b61053f8482850161457b565b600081518084526020808501945080840160005b838110156147c9578151875295820195908201906001016147ad565b509495945050505050565b6040815260006147e76040830185614707565b82810360208401526147f98185614799565b95945050505050565b73ffffffffffffffffffffffffffffffffffffffff851681526080602082015260006148316080830186614707565b82810360408401526148438186614799565b905082810360608401526148578185614799565b979650505050505050565b6000602080838503121561487557600080fd5b825167ffffffffffffffff8082111561488d57600080fd5b818501915085601f8301126148a157600080fd5b81516148af61459a826145d1565b81815260059190911b830184019084810190888311156148ce57600080fd5b8585015b838110156149bb578051858111156148ea5760008081fd5b86016060818c037fffffffffffffffffffffffffffffffffffffffffffffffffffffffffffffffe0018113156149205760008081fd5b6149286144bd565b89830151815260408084015160ff811681146149445760008081fd5b828c015291830151918883111561495b5760008081fd5b82840193508d603f85011261497257600092508283fd5b8a840151925061498461459a84614535565b8381528e828587010111156149995760008081fd5b6149a8848d83018488016146e3565b90820152855250509186019186016148d2565b5098975050505050505050565b7f4e487b7100000000000000000000000000000000000000000000000000000000600052603260045260246000fd5b7f4e487b7100000000000000000000000000000000000000000000000000000000600052601160045260246000fd5b818103818111156102cf576102cf6149f7565b808201808211156102cf576102cf6149f7565b604081526000614a5f6040830185614707565b90508260208301529392505050565b7f4e487b7100000000000000000000000000000000000000000000000000000000600052605160045260246000fdfe010f00c20804b001180500014014144080040101008082020092020040a100148024163082aae700108f616d2200e3c6181b0025fdfc2100a1cef21c00e7762b2500229a7e0b103e260a0600ce656d0220f12be70c0035f0270900da2bcc14001874cb0700319e1e2300c17cd61100d0684c05007c4b951f000859681e00ce62340d0021f48512009046c219008710c503002c340815002eaa701740b3357a1a00e6d3420800f0dfe2040080a95b0e004e5b480a107012321840438b4b24008a3266281043e2f6011056328a1d00ec53cd0f006e69fa1000ac8cde2600f2c1681300b8577627103fa0c82000c6ff511b581bd21c391c431c391c391c391c391c391c4d1c6f1c991cbb1c4d1cbb1cbb1cc51ccf1cbb1cbb1cd81cd81cbb1ccf1ccf1cd81cd81cd81cd81cd81cd81cd81cd81cd81cd81cd81cd81ccf1cef1cf91cf90c150c5d0c980d7c0db60de50e140e140e630e920ef40f7c10231037108d10a110b610d010db10ef1104118111cc11f21214122b122b127612c1130c130c1357135713a213ed143814381483156a159d15f4",
    "linkReferences": {}
  },
  "methodIdentifiers": {
    "authoringMetaHash()": "b6c7175a",
    "buildParseMeta(bytes)": "a600bd0a",
    "deployExpression(bytes,uint256[],uint256[])": "31a66b65",
    "iInterpreter()": "f0cfdd37",
    "iStore()": "c19423bc",
    "integrityCheck(bytes,uint256[],uint256[])": "cbb7d173",
    "integrityFunctionPointers()": "8d614591",
    "parse(bytes)": "fab4087a",
    "parseMeta()": "ffc25704",
    "supportsInterface(bytes4)": "01ffc9a7"
  },
  "id": 78
}