{
  "abi": [
    {
      "inputs": [
        {
          "internalType": "uint256",
          "name": "dynamicLength",
          "type": "uint256"
        },
        {
          "internalType": "uint256",
          "name": "standardOpsLength",
          "type": "uint256"
        }
      ],
      "name": "BadDynamicLength",
      "type": "error"
    },
    {
      "inputs": [
        {
          "internalType": "uint256",
          "name": "ensureCode",
          "type": "uint256"
        },
        {
          "internalType": "uint256",
          "name": "errorIndex",
          "type": "uint256"
        }
      ],
      "name": "EnsureFailed",
      "type": "error"
    },
    {
      "inputs": [
        {
          "internalType": "uint256",
          "name": "condCode",
          "type": "uint256"
        }
      ],
      "name": "NoConditionsMet",
      "type": "error"
    },
    {
      "inputs": [
        {
          "internalType": "uint256",
          "name": "x",
          "type": "uint256"
        },
        {
          "internalType": "uint256",
          "name": "y",
          "type": "uint256"
        }
      ],
      "name": "PRBMath_MulDiv18_Overflow",
      "type": "error"
    },
    {
      "inputs": [
        {
          "internalType": "uint256",
          "name": "x",
          "type": "uint256"
        },
        {
          "internalType": "uint256",
          "name": "y",
          "type": "uint256"
        },
        {
          "internalType": "uint256",
          "name": "denominator",
          "type": "uint256"
        }
      ],
      "name": "PRBMath_MulDiv_Overflow",
      "type": "error"
    },
    {
      "inputs": [],
      "name": "ReadError",
      "type": "error"
    },
    {
      "inputs": [
        {
          "internalType": "bytes",
          "name": "bytecode",
          "type": "bytes"
        },
        {
          "internalType": "uint256",
          "name": "sourceIndex",
          "type": "uint256"
        }
      ],
      "name": "SourceOffsetOutOfBounds",
      "type": "error"
    },
    {
      "inputs": [
        {
          "internalType": "contract IInterpreterStoreV1",
          "name": "store",
          "type": "address"
        },
        {
          "internalType": "StateNamespace",
          "name": "namespace",
          "type": "uint256"
        },
        {
          "internalType": "EncodedDispatch",
          "name": "dispatch",
          "type": "uint256"
        },
        {
          "internalType": "uint256[][]",
          "name": "context",
          "type": "uint256[][]"
        }
      ],
      "name": "eval",
      "outputs": [
        {
          "internalType": "uint256[]",
          "name": "",
          "type": "uint256[]"
        },
        {
          "internalType": "uint256[]",
          "name": "",
          "type": "uint256[]"
        }
      ],
      "stateMutability": "view",
      "type": "function"
    },
    {
      "inputs": [],
      "name": "functionPointers",
      "outputs": [
        {
          "internalType": "bytes",
          "name": "",
          "type": "bytes"
        }
      ],
      "stateMutability": "view",
      "type": "function"
    },
    {
      "inputs": [
        {
          "internalType": "contract IInterpreterStoreV1",
          "name": "store",
          "type": "address"
        },
        {
          "internalType": "FullyQualifiedNamespace",
          "name": "namespace",
          "type": "uint256"
        },
        {
          "internalType": "bytes",
          "name": "expressionData",
          "type": "bytes"
        },
        {
          "internalType": "SourceIndex",
          "name": "sourceIndex16",
          "type": "uint16"
        },
        {
          "internalType": "uint256",
          "name": "maxOutputs",
          "type": "uint256"
        },
        {
          "internalType": "uint256[][]",
          "name": "context",
          "type": "uint256[][]"
        },
        {
          "internalType": "uint256[]",
          "name": "inputs",
          "type": "uint256[]"
        }
      ],
      "name": "offchainDebugEval",
      "outputs": [
        {
          "internalType": "uint256[]",
          "name": "",
          "type": "uint256[]"
        },
        {
          "internalType": "uint256[]",
          "name": "",
          "type": "uint256[]"
        }
      ],
      "stateMutability": "view",
      "type": "function"
    },
    {
      "inputs": [
        {
          "internalType": "bytes4",
          "name": "interfaceId",
          "type": "bytes4"
        }
      ],
      "name": "supportsInterface",
      "outputs": [
        {
          "internalType": "bool",
          "name": "",
          "type": "bool"
        }
      ],
      "stateMutability": "view",
      "type": "function"
    }
  ],
  "bytecode": {
    "object": "0x608060405234801561001057600080fd5b50612b32806100206000396000f3fe608060405234801561001057600080fd5b506004361061004c5760003560e01c806301ffc9a7146100515780636715f82514610079578063758c13b61461009a578063f933c72f146100ad575b600080fd5b61006461005f366004612355565b6100c2565b60405190151581526020015b60405180910390f35b61008c610087366004612549565b6101a7565b6040516100709291906125e7565b61008c6100a8366004612623565b61022a565b6100b5610252565b60405161007091906127b9565b60007fffffffff0000000000000000000000000000000000000000000000000000000082167f9e263f0a00000000000000000000000000000000000000000000000000000000148061015557507fffffffff0000000000000000000000000000000000000000000000000000000082167f758c13b600000000000000000000000000000000000000000000000000000000145b806101a157507f01ffc9a7000000000000000000000000000000000000000000000000000000007fffffffff000000000000000000000000000000000000000000000000000000008316145b92915050565b606080602084901c601085901c61ffff861660006101c484610261565b905061ffff83166102188b6101e38c3360009182526020526040902090565b8484878d6000604051908082528060200260200182016040528015610212578160200160208202803683370190505b50610308565b96509650505050505094509492505050565b60608061ffff86166102418a8a8a848a8a8a610308565b925092505097509795505050505050565b606061025c610447565b905090565b6060813b60008190036102a0576040517f26a9f61e00000000000000000000000000000000000000000000000000000000815260040160405180910390fd5b60408051603e83017fffffffffffffffffffffffffffffffffffffffffffffffffffffffffffffffe01681019091527fffffffffffffffffffffffffffffffffffffffffffffffffffffffffffffffff90910180825290915080600160208401853c50919050565b6060806000610338878a8c88604051806080016040528060528152602001612ae0605291398d94939291906105e7565b9050600081600001518881518110610352576103526127cc565b60200260200101519050600061037286518361073890919063ffffffff16565b905061038360208701828851610740565b61038e838a83610768565b905060006103a08460e001518b610988565b90508089106103af57806103b1565b885b7fffffffffffffffffffffffffffffffffffffffffffffffffffffffffffffffe08084018281529192508390602084028201015b808210156104225781518151835281526020909101907fffffffffffffffffffffffffffffffffffffffffffffffffffffffffffffffe0016103e5565b50508061043286606001516109a1565b96509650505050505097509795505050505050565b60408051610540810182526029808252610c156020830152610c5d92820192909252610c98606082810191909152610d7c6080830152610db660a0830152610de560c0830152610e1460e08301819052610100830152610e63610120830152610e92610140830152610ef4610160830152610f7c6101808301526110236101a08301526110376101c083015261108d6101e08301526110a16102008301526110b66102208301526110d06102408301526110db6102608301526110ef6102808301526111046102a08301526111816102c08301526111cc6102e08301526111f261030083015261121461032083015261122b61034083018190526103608301526112766103808301526112c16103a083015261130c6103c083018190526103e083015261135761040083018190526104208301526113a26104408301526113ed61046083015261143861048083018190526104a08301526114836104c083015261156a6104e083015261159d6105008301526115f461052083015291908190806105d5565b60405180910390fd5b6105de81611626565b94505050505090565b61064c6040518061012001604052806060815260200160608152602001600081526020016000815260200160008152602001600073ffffffffffffffffffffffffffffffffffffffff1681526020016060815260200160608152602001606081525090565b602087810180516040600191820184028b01818101518251600091821a808252948501870281019093526041808301968381019593600285020190910191908401905b838110156106cd57875160f01c83015160408051600192831a808252830160209081029091019182905290845260029099019892909201910161068f565b505050506040518061012001604052808281526020018481526020018b8152602001600081526020018a81526020018973ffffffffffffffffffffffffffffffffffffffff168152602001888152602001838152602001878152509450505050509695505050505050565b602002900390565b8060200283015b80841015610762578351835260209384019390920191610747565b50505050565b60e0830151610100840151602080830151600261ffff96909616868102850160219081015160f01c600093841a9890980290950196909601938401519093602580820194600793871a9384169384900360040290920101920161234b85805b8587101561092e5750508451600081901a60020283015160f01c915060e081901c62ffffff16906107f78b838b86565b985060028160041a0284015160f01c925062ffffff8160c01c1691506108228b838b8663ffffffff16565b985060028160081a0284015160f01c925062ffffff8160a01c16915061084d8b838b8663ffffffff16565b9850600281600c1a0284015160f01c925062ffffff8160801c1691506108788b838b8663ffffffff16565b985060028160101a0284015160f01c925062ffffff8160601c1691506108a38b838b8663ffffffff16565b985060028160141a0284015160f01c925062ffffff8160401c1691506108ce8b838b8663ffffffff16565b985060028160181a0284015160f01c925062ffffff8160201c1691506108f98b838b8663ffffffff16565b9850600281601c1a0284015160f01c925062ffffff811691506109218b838b8663ffffffff16565b98506020870196506107c7565b601c8703965084600402870195505b858710156109765750508451601c81901a60020283015160f01c915062ffffff8116906109698b838b86565b985060048701965061093d565b889750505050505050505b9392505050565b60008061099584846116b7565b5160031a949350505050565b6040805160f083901c602081810283010190925290815261ffff63ffffffff67ffffffffffffffff6fffffffffffffffffffffffffffffffff610a0e565b60005b8215610a08578251825260208301516020830152604083015192506040820191506109e2565b50919050565b602085018660101b60901c8015610afe578060401c8015610a7c578060201c8015610a4057610a3d81856109df565b93505b508086168015610a7a578060101c8015610a6157610a5e81866109df565b94505b508088168015610a7857610a7581866109df565b94505b505b505b508084168015610afc578060201c8015610ac0578060101c8015610aa757610aa481866109df565b94505b508088168015610abe57610abb81866109df565b94505b505b508086168015610afa578060101c8015610ae157610ade81866109df565b94505b508088168015610af857610af581866109df565b94505b505b505b505b508682168015610c0a578060401c8015610b88578060201c8015610b4c578060101c8015610b3357610b3081866109df565b94505b508088168015610b4a57610b4781866109df565b94505b505b508086168015610b86578060101c8015610b6d57610b6a81866109df565b94505b508088168015610b8457610b8181866109df565b94505b505b505b508084168015610c08578060201c8015610bcc578060101c8015610bb357610bb081866109df565b94505b508088168015610bca57610bc781866109df565b94505b505b508086168015610c06578060101c8015610bed57610bea81866109df565b94505b508088168015610c0457610c0181866109df565b94505b505b505b505b505050505050919050565b6040830151925160206001948501810290910151929093019092029003517fffffffffffffffffffffffffffffffffffffffffffffffffffffffffffffffe090910190815290565b60209283015160019290920190920201517fffffffffffffffffffffffffffffffffffffffffffffffffffffffffffffffe090910190815290565b600060ff8316600884901c6020841015610d0e576040517f08c379a000000000000000000000000000000000000000000000000000000000815260206004820152600f60248201527f737461636b20756e646572666c6f77000000000000000000000000000000000060448201526064016105cc565b60008660c001518381518110610d2657610d266127cc565b60200260200101518281518110610d3f57610d3f6127cc565b60209081029190910101517fffffffffffffffffffffffffffffffffffffffffffffffffffffffffffffffe0909501948552509295945050505050565b60109190911c6020028082207fffffffffffffffffffffffffffffffffffffffffffffffffffffffffffffffe09190920101908152919050565b437fffffffffffffffffffffffffffffffffffffffffffffffffffffffffffffffe09190910190815292915050565b467fffffffffffffffffffffffffffffffffffffffffffffffffffffffffffffffe09190910190815292915050565b7fffffffffffffffffffffffffffffffffffffffffffffffffffffffffffffffff7fffffffffffffffffffffffffffffffffffffffffffffffffffffffffffffffe09190910190815292915050565b427fffffffffffffffffffffffffffffffffffffffffffffffffffffffffffffffe09190910190815292915050565b7fffffffffffffffffffffffffffffffffffffffffffffffffffffffffffffffe0601083901c602002828101918201926000925b80821015610ee95781518015610edd578552610ee9565b50602082019150610ec6565b509295945050505050565b6000808260208560101c0281016020810394505b80821015610f3157815192508215610f265760208201518552610f31565b604082019150610f08565b505080600003610f73576040517fff86627a00000000000000000000000000000000000000000000000000000000815261ffff851660048201526024016105cc565b50909392505050565b8051600090602080840190601086901c0284015b600083118183101615610fac5781519250602082019150610f90565b508160000361101a576040517f40dccdf600000000000000000000000000000000000000000000000000000000815261ffff8616600482015260208583037fffffffffffffffffffffffffffffffffffffffffffffffffffffffffffffffe0010460248201526044016105cc565b95945050505050565b805160209091018051909114815292915050565b7fffffffffffffffffffffffffffffffffffffffffffffffffffffffffffffffe0601083901c602002828101918201926000925b80821015610ee957815180611081578552610ee9565b5060208201915061106b565b805160209091018051909111815292915050565b80516020909101805190911015815292915050565b805160409015156020028203810151910190815292915050565b805115815292915050565b805160209091018051909110815292915050565b80516020909101805190911115815292915050565b805160208201516040909201916000919061111f82826116e8565b9150601085901c60025b8181101561114f578551925060208601955061114584846116e8565b9350600101611129565b5050507fffffffffffffffffffffffffffffffffffffffffffffffffffffffffffffffe0929092019182525092915050565b805160208201516040909201916000919061119c8282611703565b9150601085901c60025b8181101561114f57855192506020860195506111c28484611703565b93506001016111a6565b8051602090910180519091600091906111e6828287611712565b84525091949350505050565b80516000906112098160ff8616600887901c611712565b835250909392505050565b80516000906112098160ff8616600887901c611797565b80516020820151604090920191600091906112468183612859565b9150601085901c60025b8181101561114f578551602090960195925061126c8385612859565b9350600101611250565b8051602082015160409092019160009190611291818361286c565b9150601085901c60025b8181101561114f57855160209096019592506112b7838561286c565b935060010161129b565b80516020820151604090920191600091906112dc81836129a0565b9150601085901c60025b8181101561114f578551602090960195925061130283856129a0565b93506001016112e6565b805160208201516040909201916000919080821015611329578091505b601085901c60025b8181101561114f57855192506020860195508284101561134f578293505b600101611331565b805160208201516040909201916000919080821115611374578091505b601085901c60025b8181101561114f57855192506020860195508284111561139a578293505b60010161137c565b80516020820151604090920191600091906113bd81836129ac565b9150601085901c60025b8181101561114f57855160209096019592506113e383856129ac565b93506001016113c7565b805160208201516040909201916000919061140881836129c0565b9150601085901c60025b8181101561114f578551602090960195925061142e83856129c0565b9350600101611412565b805160208201516040909201916000919061145381836129d7565b9150601085901c60025b8181101561114f578551602090960195925061147983856129d7565b935060010161145d565b80516060840151600091908290819061149c90846117f9565b91509150816000036111e65760a087015160808801516040517f669e48aa00000000000000000000000000000000000000000000000000000000815260048101919091526024810185905260009173ffffffffffffffffffffffffffffffffffffffff169063669e48aa90604401602060405180830381865afa158015611527573d6000803e3d6000fd5b505050506040513d601f19601f8201168201806040525081019061154b91906129ea565b606089015190915061155e908583611843565b60608901528552610ee9565b805160208201516060850151604090930192600092919061158c908383611843565b606087015250829150509392505050565b80516020808301516040808501516060860151600188161590940290950101936000939284806115cf868585886118d5565b9150915081885260018916156115e6578060208901525b509598975050505050505050565b80516020808301516040808501516060860151600188161590940290950101936000939284806115cf86858588611917565b60606000825160020267ffffffffffffffff811115611647576116476123bc565b6040519080825280601f01601f191660200182016040528015611671576020820181803683370190505b50905061ffff80196020850160208651028101600285015b818310156116ab57805183518616908516178152602090920191600201611689565b50939695505050505050565b6000806116c384611943565b600202600101905060006116d78585611961565b949091019093016020019392505050565b600061098161170084670de0b6b3a7640000856119d9565b90565b60006109816117008484611ae4565b60008260121115611747576012839003600283161561173d576117358582611beb565b915050610981565b6117358582611c7b565b6012831115611790577fffffffffffffffffffffffffffffffffffffffffffffffffffffffffffffffee83016001831615611786576117358582611cb3565b6117358582611d05565b5082610981565b600082601211156117ba5760128390036001831615611786576117358582611cb3565b6012831115611790577fffffffffffffffffffffffffffffffffffffffffffffffffffffffffffffffee8301600283161561173d576117358582611beb565b600080826000526010600f6020600020060261ffff85821c165b801561183a578051850361183157600193506020810151925061183a565b60400151611813565b50509250929050565b6000826000526010600f6020600020060261ffff85821c16805b80156118745780518614611874576040015161185d565b801580156118c25760405191506060820160405286825285602083015282604083015260028860f01c0161ffff60f01b1989168160f01b1798505061ffff841b19881682851b1797506118c9565b8560208301525b50959695505050505050565b60008060008060006118e8898989611d28565b9250925092508560001461190657611901868484611ecc565b611909565b60005b999098509650505050505050565b600080600080600061192a898989611d28565b925092509250856000146119065761190186848461204c565b6000815160000361195657506000919050565b506020015160001a90565b6002810282016003015161ffff16600061197a84611943565b8451909150600560028302840101908111806119965750818410155b156119d15784846040517fd3fc97bd0000000000000000000000000000000000000000000000000000000081526004016105cc929190612a03565b505092915050565b600080807fffffffffffffffffffffffffffffffffffffffffffffffffffffffffffffffff85870985870292508281108382030391505080600003611a3157838281611a2757611a276127fb565b0492505050610981565b838110611a7b576040517f63a057780000000000000000000000000000000000000000000000000000000081526004810187905260248101869052604481018590526064016105cc565b60008486880960026001871981018816978890046003810283188082028403028082028403028082028403028082028403028082028403029081029092039091026000889003889004909101858311909403939093029303949094049190911702949350505050565b600080807fffffffffffffffffffffffffffffffffffffffffffffffffffffffffffffffff84860984860292508281108382030391505080600003611b365750670de0b6b3a7640000900490506101a1565b670de0b6b3a76400008110611b81576040517f5173648d00000000000000000000000000000000000000000000000000000000815260048101869052602481018590526044016105cc565b6000670de0b6b3a7640000858709620400008185030493109091037d40000000000000000000000000000000000000000000000000000000000002919091177faccb18165bd6fe31ae1cf318dc5b51eee0e1ba569b88cd74c1773b91fac106690291505092915050565b6000604e8210611c2b578215611c21577fffffffffffffffffffffffffffffffffffffffffffffffffffffffffffffffff611c24565b60005b90506101a1565b50600a81900a8281029083818381611c4557611c456127fb565b0414611c71577fffffffffffffffffffffffffffffffffffffffffffffffffffffffffffffffff611c73565b815b949350505050565b600a81900a611c8a81846129c0565b9050604e82106101a1578215611caa57611ca582600a6129a0565b610981565b50600092915050565b6000604e8210611cd7578215611cca576001611ccd565b60005b60ff1690506101a1565b600a82900a808481611ceb57611ceb6127fb565b0491508082028414611cfe576001820191505b5092915050565b6000604e821015611caa5781600a0a8381611d2257611d226127fb565b04610981565b600080600080611d3886866121c7565b506040517fe6a4390500000000000000000000000000000000000000000000000000000000815273ffffffffffffffffffffffffffffffffffffffff8881166004830152878116602483015291925060009189169063e6a4390590604401602060405180830381865afa158015611db3573d6000803e3d6000fd5b505050506040513d601f19601f82011682018060405250810190611dd79190612a25565b905060008060008373ffffffffffffffffffffffffffffffffffffffff16630902f1ac6040518163ffffffff1660e01b8152600401606060405180830381865afa158015611e29573d6000803e3d6000fd5b505050506040513d601f19601f82011682018060405250810190611e4d9190612a60565b63ffffffff1692506dffffffffffffffffffffffffffff1692506dffffffffffffffffffffffffffff1692508473ffffffffffffffffffffffffffffffffffffffff168a73ffffffffffffffffffffffffffffffffffffffff1614611eb457818382611eb8565b8282825b919d909c50909a5098505050505050505050565b6000808411611f5d576040517f08c379a000000000000000000000000000000000000000000000000000000000815260206004820152602c60248201527f556e697377617056324c6962726172793a20494e53554646494349454e545f4f60448201527f55545055545f414d4f554e54000000000000000000000000000000000000000060648201526084016105cc565b600083118015611f6d5750600082115b611ff9576040517f08c379a000000000000000000000000000000000000000000000000000000000815260206004820152602860248201527f556e697377617056324c6962726172793a20494e53554646494349454e545f4c60448201527f495155494449545900000000000000000000000000000000000000000000000060648201526084016105cc565b600061200585856129c0565b612011906103e86129c0565b9050600061201f86856129d7565b61202b906103e56129c0565b9050612037818361286c565b612042906001612859565b9695505050505050565b60008084116120dd576040517f08c379a000000000000000000000000000000000000000000000000000000000815260206004820152602b60248201527f556e697377617056324c6962726172793a20494e53554646494349454e545f4960448201527f4e5055545f414d4f554e5400000000000000000000000000000000000000000060648201526084016105cc565b6000831180156120ed5750600082115b612179576040517f08c379a000000000000000000000000000000000000000000000000000000000815260206004820152602860248201527f556e697377617056324c6962726172793a20494e53554646494349454e545f4c60448201527f495155494449545900000000000000000000000000000000000000000000000060648201526084016105cc565b6000612187856103e56129c0565b9050600061219584836129c0565b90506000826121a6876103e86129c0565b6121b09190612859565b90506121bc818361286c565b979650505050505050565b6000808273ffffffffffffffffffffffffffffffffffffffff168473ffffffffffffffffffffffffffffffffffffffff1603612285576040517f08c379a000000000000000000000000000000000000000000000000000000000815260206004820152602560248201527f556e697377617056324c6962726172793a204944454e544943414c5f4144445260448201527f455353455300000000000000000000000000000000000000000000000000000060648201526084016105cc565b8273ffffffffffffffffffffffffffffffffffffffff168473ffffffffffffffffffffffffffffffffffffffff16106122bf5782846122c2565b83835b909250905073ffffffffffffffffffffffffffffffffffffffff8216612344576040517f08c379a000000000000000000000000000000000000000000000000000000000815260206004820152601e60248201527f556e697377617056324c6962726172793a205a45524f5f41444452455353000060448201526064016105cc565b9250929050565b612353612ab0565b565b60006020828403121561236757600080fd5b81357fffffffff000000000000000000000000000000000000000000000000000000008116811461098157600080fd5b73ffffffffffffffffffffffffffffffffffffffff811681146123b957600080fd5b50565b7f4e487b7100000000000000000000000000000000000000000000000000000000600052604160045260246000fd5b604051601f82017fffffffffffffffffffffffffffffffffffffffffffffffffffffffffffffffe016810167ffffffffffffffff81118282101715612432576124326123bc565b604052919050565b600067ffffffffffffffff821115612454576124546123bc565b5060051b60200190565b600082601f83011261246f57600080fd5b8135602061248461247f8361243a565b6123eb565b82815260059290921b840181019181810190868411156124a357600080fd5b8286015b848110156124be57803583529183019183016124a7565b509695505050505050565b600082601f8301126124da57600080fd5b813560206124ea61247f8361243a565b82815260059290921b8401810191818101908684111561250957600080fd5b8286015b848110156124be57803567ffffffffffffffff81111561252d5760008081fd5b61253b8986838b010161245e565b84525091830191830161250d565b6000806000806080858703121561255f57600080fd5b843561256a81612397565b93506020850135925060408501359150606085013567ffffffffffffffff81111561259457600080fd5b6125a0878288016124c9565b91505092959194509250565b600081518084526020808501945080840160005b838110156125dc578151875295820195908201906001016125c0565b509495945050505050565b6040815260006125fa60408301856125ac565b828103602084015261101a81856125ac565b803561ffff8116811461261e57600080fd5b919050565b600080600080600080600060e0888a03121561263e57600080fd5b873561264981612397565b96506020888101359650604089013567ffffffffffffffff8082111561266e57600080fd5b818b0191508b601f83011261268257600080fd5b813581811115612694576126946123bc565b6126c4847fffffffffffffffffffffffffffffffffffffffffffffffffffffffffffffffe0601f840116016123eb565b8181528d858386010111156126d857600080fd5b8185850186830137600085838301015280995050506126f960608c0161260c565b965060808b0135955060a08b013592508083111561271657600080fd5b6127228c848d016124c9565b945060c08b013592508083111561273857600080fd5b50506127468a828b0161245e565b91505092959891949750929550565b6000815180845260005b8181101561277b5760208185018101518683018201520161275f565b5060006020828601015260207fffffffffffffffffffffffffffffffffffffffffffffffffffffffffffffffe0601f83011685010191505092915050565b6020815260006109816020830184612755565b7f4e487b7100000000000000000000000000000000000000000000000000000000600052603260045260246000fd5b7f4e487b7100000000000000000000000000000000000000000000000000000000600052601260045260246000fd5b7f4e487b7100000000000000000000000000000000000000000000000000000000600052601160045260246000fd5b808201808211156101a1576101a161282a565b60008261287b5761287b6127fb565b500490565b600181815b808511156128d957817fffffffffffffffffffffffffffffffffffffffffffffffffffffffffffffffff048211156128bf576128bf61282a565b808516156128cc57918102915b93841c9390800290612885565b509250929050565b6000826128f0575060016101a1565b816128fd575060006101a1565b8160018114612913576002811461291d57612939565b60019150506101a1565b60ff84111561292e5761292e61282a565b50506001821b6101a1565b5060208310610133831016604e8410600b841016171561295c575081810a6101a1565b6129668383612880565b807fffffffffffffffffffffffffffffffffffffffffffffffffffffffffffffffff048211156129985761299861282a565b029392505050565b600061098183836128e1565b6000826129bb576129bb6127fb565b500690565b80820281158282048414176101a1576101a161282a565b818103818111156101a1576101a161282a565b6000602082840312156129fc57600080fd5b5051919050565b604081526000612a166040830185612755565b90508260208301529392505050565b600060208284031215612a3757600080fd5b815161098181612397565b80516dffffffffffffffffffffffffffff8116811461261e57600080fd5b600080600060608486031215612a7557600080fd5b612a7e84612a42565b9250612a8c60208501612a42565b9150604084015163ffffffff81168114612aa557600080fd5b809150509250925092565b7f4e487b7100000000000000000000000000000000000000000000000000000000600052605160045260246000fdfe0c150c5d0c980d7c0db60de50e140e140e630e920ef40f7c10231037108d10a110b610d010db10ef1104118111cc11f21214122b122b127612c1130c130c1357135713a213ed143814381483156a159d15f4",
    "linkReferences": {}
  },
  "methodIdentifiers": {
    "eval(address,uint256,uint256,uint256[][])": "6715f825",
    "functionPointers()": "f933c72f",
    "offchainDebugEval(address,uint256,bytes,uint16,uint256,uint256[][],uint256[])": "758c13b6",
    "supportsInterface(bytes4)": "01ffc9a7"
  },
  "id": 80
}