{
  "abi": [
    {
      "inputs": [
        {
          "components": [
            {
              "internalType": "address",
              "name": "interpreter",
              "type": "address"
            },
            {
              "internalType": "address",
              "name": "store",
              "type": "address"
            },
            {
              "internalType": "address",
              "name": "parser",
              "type": "address"
            }
          ],
          "internalType": "struct RainterpreterExpressionDeployerNPE2ConstructionConfigV2",
          "name": "config",
          "type": "tuple"
        }
      ],
      "stateMutability": "nonpayable",
      "type": "constructor"
    },
    {
      "inputs": [
        {
          "internalType": "uint256",
          "name": "dynamicLength",
          "type": "uint256"
        },
        {
          "internalType": "uint256",
          "name": "standardOpsLength",
          "type": "uint256"
        }
      ],
      "name": "BadDynamicLength",
      "type": "error"
    },
    {
      "inputs": [
        {
          "internalType": "uint256",
          "name": "opIndex",
          "type": "uint256"
        },
        {
          "internalType": "uint256",
          "name": "calculatedInputs",
          "type": "uint256"
        },
        {
          "internalType": "uint256",
          "name": "bytecodeInputs",
          "type": "uint256"
        }
      ],
      "name": "BadOpInputsLength",
      "type": "error"
    },
    {
      "inputs": [
        {
          "internalType": "uint256",
          "name": "opIndex",
          "type": "uint256"
        },
        {
          "internalType": "uint256",
          "name": "calculatedOutputs",
          "type": "uint256"
        },
        {
          "internalType": "uint256",
          "name": "bytecodeOutputs",
          "type": "uint256"
        }
      ],
      "name": "BadOpOutputsLength",
      "type": "error"
    },
    {
      "inputs": [
        {
          "internalType": "uint256",
          "name": "sourceOutputs",
          "type": "uint256"
        },
        {
          "internalType": "uint256",
          "name": "outputs",
          "type": "uint256"
        }
      ],
      "name": "CallOutputsExceedSource",
      "type": "error"
    },
    {
      "inputs": [
        {
          "internalType": "address",
          "name": "extern",
          "type": "address"
        }
      ],
      "name": "NotAnExternContract",
      "type": "error"
    },
    {
      "inputs": [
        {
          "internalType": "uint256",
          "name": "opIndex",
          "type": "uint256"
        },
        {
          "internalType": "uint256",
          "name": "constantsLength",
          "type": "uint256"
        },
        {
          "internalType": "uint256",
          "name": "constantRead",
          "type": "uint256"
        }
      ],
      "name": "OutOfBoundsConstantRead",
      "type": "error"
    },
    {
      "inputs": [
        {
          "internalType": "uint256",
          "name": "opIndex",
          "type": "uint256"
        },
        {
          "internalType": "uint256",
          "name": "stackTopIndex",
          "type": "uint256"
        },
        {
          "internalType": "uint256",
          "name": "stackRead",
          "type": "uint256"
        }
      ],
      "name": "OutOfBoundsStackRead",
      "type": "error"
    },
    {
      "inputs": [
        {
          "internalType": "bytes",
          "name": "bytecode",
          "type": "bytes"
        },
        {
          "internalType": "uint256",
          "name": "sourceIndex",
          "type": "uint256"
        }
      ],
      "name": "SourceIndexOutOfBounds",
      "type": "error"
    },
    {
      "inputs": [
        {
          "internalType": "uint256",
          "name": "stackMaxIndex",
          "type": "uint256"
        },
        {
          "internalType": "uint256",
          "name": "bytecodeAllocation",
          "type": "uint256"
        }
      ],
      "name": "StackAllocationMismatch",
      "type": "error"
    },
    {
      "inputs": [
        {
          "internalType": "uint256",
          "name": "stackIndex",
          "type": "uint256"
        },
        {
          "internalType": "uint256",
          "name": "bytecodeOutputs",
          "type": "uint256"
        }
      ],
      "name": "StackOutputsMismatch",
      "type": "error"
    },
    {
      "inputs": [
        {
          "internalType": "bytes",
          "name": "bytecode",
          "type": "bytes"
        },
        {
          "internalType": "uint256",
          "name": "relativeOffset",
          "type": "uint256"
        }
      ],
      "name": "StackSizingsNotMonotonic",
      "type": "error"
    },
    {
      "inputs": [
        {
          "internalType": "uint256",
          "name": "opIndex",
          "type": "uint256"
        },
        {
          "internalType": "uint256",
          "name": "stackIndex",
          "type": "uint256"
        },
        {
          "internalType": "uint256",
          "name": "calculatedInputs",
          "type": "uint256"
        }
      ],
      "name": "StackUnderflow",
      "type": "error"
    },
    {
      "inputs": [
        {
          "internalType": "uint256",
          "name": "opIndex",
          "type": "uint256"
        },
        {
          "internalType": "uint256",
          "name": "stackIndex",
          "type": "uint256"
        },
        {
          "internalType": "uint256",
          "name": "stackHighwater",
          "type": "uint256"
        }
      ],
      "name": "StackUnderflowHighwater",
      "type": "error"
    },
    {
      "inputs": [
        {
          "internalType": "uint256",
          "name": "startBit",
          "type": "uint256"
        },
        {
          "internalType": "uint256",
          "name": "length",
          "type": "uint256"
        }
      ],
      "name": "TruncatedBitwiseEncoding",
      "type": "error"
    },
    {
      "inputs": [
        {
          "internalType": "bytes",
          "name": "bytecode",
          "type": "bytes"
        }
      ],
      "name": "TruncatedHeader",
      "type": "error"
    },
    {
      "inputs": [
        {
          "internalType": "bytes",
          "name": "bytecode",
          "type": "bytes"
        }
      ],
      "name": "TruncatedHeaderOffsets",
      "type": "error"
    },
    {
      "inputs": [
        {
          "internalType": "bytes",
          "name": "bytecode",
          "type": "bytes"
        }
      ],
      "name": "TruncatedSource",
      "type": "error"
    },
    {
      "inputs": [
        {
          "internalType": "bytes32",
          "name": "expectedBytecodeHash",
          "type": "bytes32"
        },
        {
          "internalType": "bytes32",
          "name": "actualBytecodeHash",
          "type": "bytes32"
        }
      ],
      "name": "UnexpectedInterpreterBytecodeHash",
      "type": "error"
    },
    {
      "inputs": [
        {
          "internalType": "bytes32",
          "name": "expectedBytecodeHash",
          "type": "bytes32"
        },
        {
          "internalType": "bytes32",
          "name": "actualBytecodeHash",
          "type": "bytes32"
        }
      ],
      "name": "UnexpectedParserBytecodeHash",
      "type": "error"
    },
    {
      "inputs": [
        {
          "internalType": "bytes",
          "name": "bytecode",
          "type": "bytes"
        }
      ],
      "name": "UnexpectedSources",
      "type": "error"
    },
    {
      "inputs": [
        {
          "internalType": "bytes32",
          "name": "expectedBytecodeHash",
          "type": "bytes32"
        },
        {
          "internalType": "bytes32",
          "name": "actualBytecodeHash",
          "type": "bytes32"
        }
      ],
      "name": "UnexpectedStoreBytecodeHash",
      "type": "error"
    },
    {
      "inputs": [
        {
          "internalType": "bytes",
          "name": "bytecode",
          "type": "bytes"
        }
      ],
      "name": "UnexpectedTrailingOffsetBytes",
      "type": "error"
    },
    {
      "inputs": [
        {
          "internalType": "uint256",
          "name": "shiftAmount",
          "type": "uint256"
        }
      ],
      "name": "UnsupportedBitwiseShiftAmount",
      "type": "error"
    },
    {
      "inputs": [],
      "name": "WriteError",
      "type": "error"
    },
    {
      "inputs": [],
      "name": "ZeroLengthBitwiseEncoding",
      "type": "error"
    },
    {
      "anonymous": false,
      "inputs": [
        {
          "indexed": false,
          "internalType": "address",
          "name": "sender",
          "type": "address"
        },
        {
          "indexed": false,
          "internalType": "address",
          "name": "interpreter",
          "type": "address"
        },
        {
          "indexed": false,
          "internalType": "address",
          "name": "store",
          "type": "address"
        },
        {
          "indexed": false,
          "internalType": "address",
          "name": "parser",
          "type": "address"
        }
      ],
      "name": "DISPairV2",
      "type": "event"
    },
    {
      "anonymous": false,
      "inputs": [
        {
          "indexed": false,
          "internalType": "address",
          "name": "sender",
          "type": "address"
        },
        {
          "indexed": false,
          "internalType": "contract IInterpreterV2",
          "name": "interpreter",
          "type": "address"
        },
        {
          "indexed": false,
          "internalType": "contract IInterpreterStoreV2",
          "name": "store",
          "type": "address"
        },
        {
          "indexed": false,
          "internalType": "address",
          "name": "expression",
          "type": "address"
        },
        {
          "indexed": false,
          "internalType": "bytes",
          "name": "io",
          "type": "bytes"
        }
      ],
      "name": "DeployedExpression",
      "type": "event"
    },
    {
      "anonymous": false,
      "inputs": [
        {
          "indexed": false,
          "internalType": "address",
          "name": "sender",
          "type": "address"
        },
        {
          "indexed": false,
          "internalType": "bytes",
          "name": "bytecode",
          "type": "bytes"
        },
        {
          "indexed": false,
          "internalType": "uint256[]",
          "name": "constants",
          "type": "uint256[]"
        }
      ],
      "name": "NewExpression",
      "type": "event"
    },
    {
      "inputs": [],
      "name": "buildIntegrityFunctionPointers",
      "outputs": [
        {
          "internalType": "bytes",
          "name": "",
          "type": "bytes"
        }
      ],
      "stateMutability": "view",
      "type": "function"
    },
    {
      "inputs": [
        {
          "internalType": "bytes",
          "name": "bytecode",
          "type": "bytes"
        },
        {
          "internalType": "uint256[]",
          "name": "constants",
          "type": "uint256[]"
        }
      ],
      "name": "deployExpression2",
      "outputs": [
        {
          "internalType": "contract IInterpreterV2",
          "name": "",
          "type": "address"
        },
        {
          "internalType": "contract IInterpreterStoreV2",
          "name": "",
          "type": "address"
        },
        {
          "internalType": "address",
          "name": "",
          "type": "address"
        },
        {
          "internalType": "bytes",
          "name": "",
          "type": "bytes"
        }
      ],
      "stateMutability": "nonpayable",
      "type": "function"
    },
    {
      "inputs": [],
      "name": "describedByMetaV1",
      "outputs": [
        {
          "internalType": "bytes32",
          "name": "",
          "type": "bytes32"
        }
      ],
      "stateMutability": "pure",
      "type": "function"
    },
    {
      "inputs": [],
      "name": "iInterpreter",
      "outputs": [
        {
          "internalType": "contract IInterpreterV2",
          "name": "",
          "type": "address"
        }
      ],
      "stateMutability": "view",
      "type": "function"
    },
    {
      "inputs": [],
      "name": "iParser",
      "outputs": [
        {
          "internalType": "contract IParserV1",
          "name": "",
          "type": "address"
        }
      ],
      "stateMutability": "view",
      "type": "function"
    },
    {
      "inputs": [],
      "name": "iStore",
      "outputs": [
        {
          "internalType": "contract IInterpreterStoreV2",
          "name": "",
          "type": "address"
        }
      ],
      "stateMutability": "view",
      "type": "function"
    },
    {
      "inputs": [
        {
          "internalType": "bytes",
          "name": "data",
          "type": "bytes"
        }
      ],
      "name": "parse2",
      "outputs": [
        {
          "internalType": "bytes",
          "name": "",
          "type": "bytes"
        }
      ],
      "stateMutability": "view",
      "type": "function"
    },
    {
      "inputs": [
        {
          "internalType": "bytes",
          "name": "data",
          "type": "bytes"
        }
      ],
      "name": "parsePragma1",
      "outputs": [
        {
          "components": [
            {
              "internalType": "address[]",
              "name": "usingWordsFrom",
              "type": "address[]"
            }
          ],
          "internalType": "struct PragmaV1",
          "name": "",
          "type": "tuple"
        }
      ],
      "stateMutability": "view",
      "type": "function"
    },
    {
      "inputs": [
        {
          "internalType": "bytes4",
          "name": "interfaceId",
          "type": "bytes4"
        }
      ],
      "name": "supportsInterface",
      "outputs": [
        {
          "internalType": "bool",
          "name": "",
          "type": "bool"
        }
      ],
      "stateMutability": "view",
      "type": "function"
    }
  ],
  "bytecode": {
    "object": "0x60e060405234801561001057600080fd5b5060405161261238038061261283398101604081905261002f91610321565b8051602082015160408301516001600160a01b0380841660805280831660a052811660c052823f6000805160206125f283398151915281146100a057604051630fc2051760e11b81526000805160206125f28339815191526004820152602481018290526044015b60405180910390fd5b823f7f2a4559222e2f3600b2d393715de8af57620439684463f745059c653bbfe3727f811461010b576040516348616a9b60e01b81527f2a4559222e2f3600b2d393715de8af57620439684463f745059c653bbfe3727f600482015260248101829052604401610097565b823f7f5fa6b8ac251b8099a7797d0e0455f3e86e607d41c6ef859ad8677000f952889d811461017657604051630941d86960e21b81527f5fa6b8ac251b8099a7797d0e0455f3e86e607d41c6ef859ad8677000f952889d600482015260248101829052604401610097565b604080513381526001600160a01b038881166020830152878116828401528616606082015290517fbfd7a102580902e80a083b3559e7be54c3858448cc22c062585c8370e0bc455f9181900360800190a1731820a4b7618bde71dce8cdc73aab6c95905fad243b156102f957604080518082018252601581527f4945787072657373696f6e4465706c6f79657256340000000000000000000000602082015290516365ba36c160e01b8152731820a4b7618bde71dce8cdc73aab6c95905fad24916329965a1d91309184916365ba36c1916102539160040161039a565b602060405180830381865afa158015610270573d6000803e3d6000fd5b505050506040513d601f19601f8201168201806040525081019061029491906103e9565b6040516001600160e01b031960e085901b1681526001600160a01b0390921660048301526024820152306044820152606401600060405180830381600087803b1580156102e057600080fd5b505af11580156102f4573d6000803e3d6000fd5b505050505b50505050505050610402565b80516001600160a01b038116811461031c57600080fd5b919050565b60006060828403121561033357600080fd5b604051606081016001600160401b038111828210171561036357634e487b7160e01b600052604160045260246000fd5b60405261036f83610305565b815261037d60208401610305565b602082015261038e60408401610305565b60408201529392505050565b60006020808352835180602085015260005b818110156103c8578581018301518582016040015282016103ac565b506000604082860101526040601f19601f8301168501019250505092915050565b6000602082840312156103fb57600080fd5b5051919050565b60805160a05160c05161219861045a6000396000818160d5015281816103b501526104720152600081816101ba015281816106fe015261075c0152600081816101e1015281816106dd015261073a01526121986000f3fe608060405234801561001057600080fd5b50600436106100a35760003560e01c8063a3869e1411610076578063b92d75531161005b578063b92d7553146101ad578063c19423bc146101b5578063f0cfdd37146101dc57600080fd5b8063a3869e141461016a578063b7f144031461018a57600080fd5b806301ffc9a7146100a857806324376855146100d05780635514ca201461011c5780636f5aa28d1461013c575b600080fd5b6100bb6100b6366004611903565b610203565b60405190151581526020015b60405180910390f35b6100f77f000000000000000000000000000000000000000000000000000000000000000081565b60405173ffffffffffffffffffffffffffffffffffffffff90911681526020016100c7565b61012f61012a366004611945565b610380565b6040516100c791906119b7565b6040517f41f7c3502ec8a729a6b949c78341048033470c937628be35d0d36db61bc9cd7881526020016100c7565b61017d610178366004611b60565b61046b565b6040516100c79190611c0b565b61019d610198366004611c42565b610599565b6040516100c79493929190611cfd565b61017d61078c565b6100f77f000000000000000000000000000000000000000000000000000000000000000081565b6100f77f000000000000000000000000000000000000000000000000000000000000000081565b60007fffffffff0000000000000000000000000000000000000000000000000000000082167fb7f1440300000000000000000000000000000000000000000000000000000000148061029657507fffffffff0000000000000000000000000000000000000000000000000000000082167f6f5aa28d00000000000000000000000000000000000000000000000000000000145b806102e257507fffffffff0000000000000000000000000000000000000000000000000000000082167fa3869e1400000000000000000000000000000000000000000000000000000000145b8061032e57507fffffffff0000000000000000000000000000000000000000000000000000000082167f5514ca2000000000000000000000000000000000000000000000000000000000145b8061037a57507f01ffc9a7000000000000000000000000000000000000000000000000000000007fffffffff000000000000000000000000000000000000000000000000000000008316145b92915050565b604080516020810182526060815290517f5514ca200000000000000000000000000000000000000000000000000000000081527f000000000000000000000000000000000000000000000000000000000000000073ffffffffffffffffffffffffffffffffffffffff1690635514ca20906104019086908690600401611d48565b600060405180830381865afa15801561041e573d6000803e3d6000fd5b505050506040513d6000823e601f3d9081017fffffffffffffffffffffffffffffffffffffffffffffffffffffffffffffffe01682016040526104649190810190611d95565b9392505050565b60606000807f000000000000000000000000000000000000000000000000000000000000000073ffffffffffffffffffffffffffffffffffffffff1663fab4087a856040518263ffffffff1660e01b81526004016104c99190611c0b565b600060405180830381865afa1580156104e6573d6000803e3d6000fd5b505050506040513d6000823e601f3d9081017fffffffffffffffffffffffffffffffffffffffffffffffffffffffffffffffe016820160405261052c9190810190611e7d565b915091506000610546838351905160406020909202010190565b6040805160208382018101909252828152919250810161056781868661079b565b600061058c6040518060c00160405280609681526020016121026096913987876107de565b5091979650505050505050565b6000806000606060006105c56040518060c00160405280609681526020016121026096913988886107de565b90507f7a1ee5e61e017b93877cfd8824938645c5f7d6f401b8c6d19cbe8f6cb9ec2cab3388886040516105fa93929190611f67565b60405180910390a185518751600091829161069d916020020160400160408051602c83017fffffffffffffffffffffffffffffffffffffffffffffffffffffffffffffffe01681019091527effff0000000000000000000000000000000000000000000000000000000000600190920160e81b919091167f61000080600c6000396000f3000000000000000000000000000000000000000017815290600d820190565b915091506106ac818a8a61079b565b60006106b783610b45565b90507f5c8bdfcfab3ec93dc2a3040de5d63b7dc99df02198f5def69ebf2d7eaffe2ee8337f00000000000000000000000000000000000000000000000000000000000000007f00000000000000000000000000000000000000000000000000000000000000008488604051610730959493929190611fda565b60405180910390a17f00000000000000000000000000000000000000000000000000000000000000009a7f00000000000000000000000000000000000000000000000000000000000000009a5090985092965091945050505050565b6060610796610bb3565b905090565b80600182510160200281015b808210156107c25781518552602094850194909101906107a7565b50506107d96107ce8390565b848451602001610ea0565b505050565b606060006107eb84610f06565b9050602085016107fa85610f24565b8160020267ffffffffffffffff81111561081657610816611a1d565b6040519080825280601f01601f191660200182016040528015610840576020820181803683370190505b5092506020830160005b83811015610b3a5760008061085f8984611143565b91509150818453806001850153600284019350600061087f8a848b611168565b90506000601861088f8c876111d4565b039050600061089e8c87611205565b600402820190505b80821015610a845781516002601c82901a0289015162ffffff821691601d1a600f81169160049190911c9060f01c6000806108df898785565b915091508482146109385760808901516040517fddf56071000000000000000000000000000000000000000000000000000000008152600481019190915260248101839052604481018690526064015b60405180910390fd5b8381146109885760808901516040517ffc8b56030000000000000000000000000000000000000000000000000000000081526004810191909152602481018290526044810185905260640161092f565b88518211156109da57608089015189516040517f2cab6bff000000000000000000000000000000000000000000000000000000008152600481019290925260248201526044810183905260640161092f565b8851829003808a5260408a01511115610a3c57608089015189516040808c015190517f1bc5ab0f00000000000000000000000000000000000000000000000000000000815260048101939093526024830191909152604482015260640161092f565b88518101808a5260208a01511015610a5657885160208a01525b6001811115610a6757885160408a01525b5050506080860180516001019052505050600491909101906108a6565b610a8e8c8761121e565b836020015114610ae2578260200151610aa78d8861121e565b6040517f4d9c18dc0000000000000000000000000000000000000000000000000000000081526004810192909252602482015260440161092f565b82518414610b295782516040517f4689f0b300000000000000000000000000000000000000000000000000000000815260048101919091526024810185905260440161092f565b50506001909301925061084a915050565b505050509392505050565b6000806000600d9050835160e81c61ffff168101846000f0915073ffffffffffffffffffffffffffffffffffffffff8216610bac576040517f08d4abb600000000000000000000000000000000000000000000000000000000815260040160405180910390fd5b5092915050565b60606118f96000604b905080915060006040518061098001604052808467ffffffffffffffff1667ffffffffffffffff16815260200161123781526020016112b5815260200161131a8152602001611494815260200161149e815260200161149e81526020016114a881526020016114b181526020016114cc8152602001611572815260200161157281526020016115ce81526020016116488152602001611655815260200161149e81526020016114a88152602001611655815260200161149e81526020016114a8815260200161149e815260200161149e81526020016114a881526020016114948152602001611494815260200161149481526020016114948152602001611494815260200161165f8152602001611684815260200161169e815260200161149e815260200161165f815260200161149e815260200161149e815260200161165581526020016114a8815260200161149e815260200161149e8152602001611655815260200161165581526020016116a881526020016116a881526020016116a881526020016116a8815260200161149e81526020016114a881526020016116a8815260200161149481526020016114a881526020016114a881526020016114a881526020016114a8815260200161149e81526020016114a881526020016114a881526020016114a881526020016114a881526020016114a881526020016116a881526020016116a881526020016116a881526020016116a8815260200161149e81526020016114a881526020016114a8815260200161149e81526020016114a881526020016114a8815260200161149e815260200161149e81526020016114a881526020016116a881526020016116a881526020016114a8815260200161169e81525090506060819050604b815114610e8e5780516040517fc8b5690100000000000000000000000000000000000000000000000000000000815260048101919091526024810184905260440161092f565b610e97816116c2565b94505050505090565b6020810680820384015b80851015610ec5578451845260209485019490930192610eaa565b508015610f00577fffffffffffffffffffffffffffffffffffffffffffffffffffffffffffffffff600882021c808451168119865116178452505b50505050565b60008151600003610f1957506000919050565b506020015160001a90565b6000610f2f82610f06565b905080156111015781516001600283020190811115610f7c57826040517f17f4bc5e00000000000000000000000000000000000000000000000000000000815260040161092f9190611c0b565b82516020828501810191850101602160027fffffffffffffffffffffffffffffffffffffffffffffffffffffffffffffffff860102860181019086015b8082106110bd57815160f01c848101600481018581111561100757896040517e39ba5600000000000000000000000000000000000000000000000000000000815260040161092f9190611c0b565b8151600081901a90600181901a90600281901a9060031a8082118061102b57508281115b15611066578d876040517feaf45f4f00000000000000000000000000000000000000000000000000000000815260040161092f929190612023565b5050506004810282018781146110aa578b6040517ffbb8027a00000000000000000000000000000000000000000000000000000000815260040161092f9190611c0b565b8397506002870396505050505050610fb9565b8383146110f857866040517fde67b29a00000000000000000000000000000000000000000000000000000000815260040161092f9190611c0b565b50505050505050565b60018251111561113f57816040517fd013da5d00000000000000000000000000000000000000000000000000000000815260040161092f9190611c0b565b5050565b600080600061115285856111d4565b51600281901a9660039190911a95509350505050565b6111a16040518060c001604052806000815260200160008152602001600081526020016060815260200160008152602001606081525090565b506040805160c081018252838152602081018490529081019290925260608201526000608082015260a081019190915290565b6000806111e084610f06565b600202600101905060006111f48585611753565b949091019093016020019392505050565b60008061121284846111d4565b5160001a949350505050565b60008061122b84846111d4565b5160011a949350505050565b8151600090819061ffff841690811061129357608085015185516040517feaa16f33000000000000000000000000000000000000000000000000000000008152600481019290925260248201526044810182905260640161092f565b84604001518111156112a757604085018190525b506000946001945092505050565b60008060008361ffff16905084606001515181106112a75760808501516060860151516040517feb789454000000000000000000000000000000000000000000000000000000008152600481019290925260248201526044810182905260640161092f565b60008060008361ffff16905060008560600151828151811061133e5761133e612045565b60200260200101519050600080611358839060a082901c90565b91509150611386827f08b5f05c000000000000000000000000000000000000000000000000000000006117aa565b6113d4576040517f23016c8900000000000000000000000000000000000000000000000000000000815273ffffffffffffffffffffffffffffffffffffffff8316600482015260240161092f565b6040517fbeef26df00000000000000000000000000000000000000000000000000000000815260048101829052600f601089901c81166024830181905260148a901c90911660448301819052909173ffffffffffffffffffffffffffffffffffffffff85169063beef26df906064016040805180830381865afa15801561145f573d6000803e3d6000fd5b505050506040513d601f19601f820116820180604052508101906114839190612074565b975097505050505050509250929050565b5060009160019150565b5060029160019150565b50600191829150565b6000806114be84846114cc565b506001958695509350505050565b60008060ff80841690600885901c16808303611514576040517f46f0ca6900000000000000000000000000000000000000000000000000000000815260040160405180910390fd5b6101006115218284612098565b1115611563576040517f8abcdd3f000000000000000000000000000000000000000000000000000000008152600481018390526024810182905260440161092f565b50600295600195509350505050565b60008061ffff831660ff811180611587575080155b156115c1576040517fc1be16a10000000000000000000000000000000000000000000000000000000081526004810182905260240161092f565b5060019485945092505050565b60008060008361ffff1690506000601485901c90506000806115f48860a0015185611143565b915091508281101561163c576040517fff137108000000000000000000000000000000000000000000000000000000008152600481018290526024810184905260440161092f565b50969095509350505050565b60101c600f169160019150565b5060039160019150565b600080600f601084901c1680611676576001611678565b805b95600195509350505050565b600080600f601084901c1660028111611676576002611678565b5060029160009150565b600080600f601084901c1660018111611676576002611678565b60606000825160020267ffffffffffffffff8111156116e3576116e3611a1d565b6040519080825280601f01601f19166020018201604052801561170d576020820181803683370190505b50905061ffff80196020850160208651028101600285015b8183101561174757805183518616908516178152602090920191600201611725565b50939695505050505050565b600061175e83610f06565b821061179a5782826040517f30489add00000000000000000000000000000000000000000000000000000000815260040161092f929190612023565b50600202016003015161ffff1690565b60006117b5836117c6565b80156104645750610464838361182a565b60006117f2827f01ffc9a70000000000000000000000000000000000000000000000000000000061182a565b801561037a5750611823827fffffffff0000000000000000000000000000000000000000000000000000000061182a565b1592915050565b604080517fffffffff000000000000000000000000000000000000000000000000000000008316602480830191909152825180830390910181526044909101909152602080820180517bffffffffffffffffffffffffffffffffffffffffffffffffffffffff167f01ffc9a700000000000000000000000000000000000000000000000000000000178152825160009392849283928392918391908a617530fa92503d915060005190508280156118e2575060208210155b80156118ee5750600081115b979650505050505050565b6119016120d2565b565b60006020828403121561191557600080fd5b81357fffffffff000000000000000000000000000000000000000000000000000000008116811461046457600080fd5b6000806020838503121561195857600080fd5b823567ffffffffffffffff8082111561197057600080fd5b818501915085601f83011261198457600080fd5b81358181111561199357600080fd5b8660208285010111156119a557600080fd5b60209290920196919550909350505050565b6020808252825182820182905280516040840181905260009291820190839060608601905b80831015611a1257835173ffffffffffffffffffffffffffffffffffffffff1682529284019260019290920191908401906119dc565b509695505050505050565b7f4e487b7100000000000000000000000000000000000000000000000000000000600052604160045260246000fd5b6040516020810167ffffffffffffffff81118282101715611a6f57611a6f611a1d565b60405290565b604051601f82017fffffffffffffffffffffffffffffffffffffffffffffffffffffffffffffffe016810167ffffffffffffffff81118282101715611abc57611abc611a1d565b604052919050565b600067ffffffffffffffff821115611ade57611ade611a1d565b50601f017fffffffffffffffffffffffffffffffffffffffffffffffffffffffffffffffe01660200190565b600082601f830112611b1b57600080fd5b8135611b2e611b2982611ac4565b611a75565b818152846020838601011115611b4357600080fd5b816020850160208301376000918101602001919091529392505050565b600060208284031215611b7257600080fd5b813567ffffffffffffffff811115611b8957600080fd5b611b9584828501611b0a565b949350505050565b60005b83811015611bb8578181015183820152602001611ba0565b50506000910152565b60008151808452611bd9816020860160208601611b9d565b601f017fffffffffffffffffffffffffffffffffffffffffffffffffffffffffffffffe0169290920160200192915050565b6020815260006104646020830184611bc1565b600067ffffffffffffffff821115611c3857611c38611a1d565b5060051b60200190565b60008060408385031215611c5557600080fd5b823567ffffffffffffffff80821115611c6d57600080fd5b611c7986838701611b0a565b9350602091508185013581811115611c9057600080fd5b85019050601f81018613611ca357600080fd5b8035611cb1611b2982611c1e565b81815260059190911b82018301908381019088831115611cd057600080fd5b928401925b82841015611cee57833582529284019290840190611cd5565b80955050505050509250929050565b600073ffffffffffffffffffffffffffffffffffffffff8087168352808616602084015280851660408401525060806060830152611d3e6080830184611bc1565b9695505050505050565b60208152816020820152818360408301376000818301604090810191909152601f9092017fffffffffffffffffffffffffffffffffffffffffffffffffffffffffffffffe0160101919050565b60006020808385031215611da857600080fd5b825167ffffffffffffffff80821115611dc057600080fd5b8185019150828287031215611dd457600080fd5b611ddc611a4c565b825182811115611deb57600080fd5b80840193505086601f840112611e0057600080fd5b82519150611e10611b2983611c1e565b82815260059290921b83018401918481019088841115611e2f57600080fd5b938501935b83851015611e7057845173ffffffffffffffffffffffffffffffffffffffff81168114611e615760008081fd5b82529385019390850190611e34565b8252509695505050505050565b60008060408385031215611e9057600080fd5b825167ffffffffffffffff80821115611ea857600080fd5b818501915085601f830112611ebc57600080fd5b81516020611ecc611b2983611ac4565b8281528882848701011115611ee057600080fd5b611eef83838301848801611b9d565b87820151909650935082841115611f0557600080fd5b838701935087601f850112611f1957600080fd5b83519250611f29611b2984611c1e565b83815260059390931b8401810192818101925088841115611f4957600080fd5b938101935b83851015611cee57845183529381019391810191611f4e565b73ffffffffffffffffffffffffffffffffffffffff841681526000602060606020840152611f986060840186611bc1565b83810360408501528451808252602080870192019060005b81811015611fcc57835183529284019291840191600101611fb0565b509098975050505050505050565b600073ffffffffffffffffffffffffffffffffffffffff80881683528087166020840152808616604084015280851660608401525060a060808301526118ee60a0830184611bc1565b6040815260006120366040830185611bc1565b90508260208301529392505050565b7f4e487b7100000000000000000000000000000000000000000000000000000000600052603260045260246000fd5b6000806040838503121561208757600080fd5b505080516020909101519092909150565b8082018082111561037a577f4e487b7100000000000000000000000000000000000000000000000000000000600052601160045260246000fd5b7f4e487b7100000000000000000000000000000000000000000000000000000000600052605160045260246000fdfe123712b5131a1494149e149e14a814b114cc1572157215ce16481655149e14a81655149e14a8149e149e14a814941494149414941494165f1684169e149e165f149e149e165514a8149e149e1655165516a816a816a816a8149e14a816a8149414a814a814a814a8149e14a814a814a814a814a816a816a816a816a8149e14a814a8149e14a814a8149e149e14a816a816a814a8169e96b05ca42ed55bfa6c6ef3bc39ed6bfe2ad71aea061cad6c74a6620cf35cd6e9",
    "linkReferences": {}
  },
  "methodIdentifiers": {
    "buildIntegrityFunctionPointers()": "b92d7553",
    "deployExpression2(bytes,uint256[])": "b7f14403",
    "describedByMetaV1()": "6f5aa28d",
    "iInterpreter()": "f0cfdd37",
    "iParser()": "24376855",
    "iStore()": "c19423bc",
    "parse2(bytes)": "a3869e14",
    "parsePragma1(bytes)": "5514ca20",
    "supportsInterface(bytes4)": "01ffc9a7"
  },
  "id": 128
}