{
  "_format": "hh-sol-artifact-1",
  "contractName": "RainterpreterExpressionDeployer",
  "sourceName": "contracts/interpreter/shared/RainterpreterExpressionDeployer.sol",
  "abi": [
    {
      "inputs": [
        {
          "components": [
            {
              "internalType": "address",
              "name": "interpreter",
              "type": "address"
            },
            {
              "internalType": "address",
              "name": "store",
              "type": "address"
            },
            {
              "internalType": "bytes",
              "name": "meta",
              "type": "bytes"
            }
          ],
          "internalType": "struct RainterpreterExpressionDeployerConstructionConfig",
          "name": "config_",
          "type": "tuple"
        }
      ],
      "stateMutability": "nonpayable",
      "type": "constructor"
    },
    {
      "inputs": [
        {
          "internalType": "uint256",
          "name": "inputs",
          "type": "uint256"
        }
      ],
      "name": "DoWhileMaxInputs",
      "type": "error"
    },
    {
      "inputs": [
        {
          "internalType": "uint256",
          "name": "inputs",
          "type": "uint256"
        },
        {
          "internalType": "uint256",
          "name": "outputs",
          "type": "uint256"
        }
      ],
      "name": "InsufficientLoopOutputs",
      "type": "error"
    },
    {
      "inputs": [
        {
          "internalType": "uint256",
          "name": "minStackOutputs",
          "type": "uint256"
        },
        {
          "internalType": "uint256",
          "name": "actualStackOutputs",
          "type": "uint256"
        }
      ],
      "name": "MinFinalStack",
      "type": "error"
    },
    {
      "inputs": [],
      "name": "MinStackBottom",
      "type": "error"
    },
    {
      "inputs": [
        {
          "internalType": "uint256",
          "name": "expectedEntrypoints",
          "type": "uint256"
        },
        {
          "internalType": "uint256",
          "name": "actualEntrypoints",
          "type": "uint256"
        }
      ],
      "name": "MissingEntrypoint",
      "type": "error"
    },
    {
      "inputs": [
        {
          "internalType": "int256",
          "name": "price",
          "type": "int256"
        }
      ],
      "name": "NotPosIntPrice",
      "type": "error"
    },
    {
      "inputs": [
        {
          "internalType": "uint256",
          "name": "constantsLength",
          "type": "uint256"
        },
        {
          "internalType": "uint256",
          "name": "constantsRead",
          "type": "uint256"
        }
      ],
      "name": "OutOfBoundsConstantsRead",
      "type": "error"
    },
    {
      "inputs": [
        {
          "internalType": "uint256",
          "name": "stackTopIndex",
          "type": "uint256"
        },
        {
          "internalType": "uint256",
          "name": "stackRead",
          "type": "uint256"
        }
      ],
      "name": "OutOfBoundsStackRead",
      "type": "error"
    },
    {
      "inputs": [
        {
          "internalType": "uint256",
          "name": "x",
          "type": "uint256"
        },
        {
          "internalType": "uint256",
          "name": "y",
          "type": "uint256"
        }
      ],
      "name": "PRBMath_MulDiv18_Overflow",
      "type": "error"
    },
    {
      "inputs": [
        {
          "internalType": "uint256",
          "name": "x",
          "type": "uint256"
        },
        {
          "internalType": "uint256",
          "name": "y",
          "type": "uint256"
        },
        {
          "internalType": "uint256",
          "name": "denominator",
          "type": "uint256"
        }
      ],
      "name": "PRBMath_MulDiv_Overflow",
      "type": "error"
    },
    {
      "inputs": [
        {
          "internalType": "UD60x18",
          "name": "x",
          "type": "uint256"
        }
      ],
      "name": "PRBMath_UD60x18_Ceil_Overflow",
      "type": "error"
    },
    {
      "inputs": [
        {
          "internalType": "UD60x18",
          "name": "x",
          "type": "uint256"
        }
      ],
      "name": "PRBMath_UD60x18_Exp2_InputTooBig",
      "type": "error"
    },
    {
      "inputs": [
        {
          "internalType": "UD60x18",
          "name": "x",
          "type": "uint256"
        }
      ],
      "name": "PRBMath_UD60x18_Exp_InputTooBig",
      "type": "error"
    },
    {
      "inputs": [
        {
          "internalType": "UD60x18",
          "name": "x",
          "type": "uint256"
        },
        {
          "internalType": "UD60x18",
          "name": "y",
          "type": "uint256"
        }
      ],
      "name": "PRBMath_UD60x18_Gm_Overflow",
      "type": "error"
    },
    {
      "inputs": [
        {
          "internalType": "UD60x18",
          "name": "x",
          "type": "uint256"
        }
      ],
      "name": "PRBMath_UD60x18_Log_InputTooSmall",
      "type": "error"
    },
    {
      "inputs": [
        {
          "internalType": "UD60x18",
          "name": "x",
          "type": "uint256"
        }
      ],
      "name": "PRBMath_UD60x18_Sqrt_Overflow",
      "type": "error"
    },
    {
      "inputs": [
        {
          "internalType": "uint256",
          "name": "stackHighwaterIndex",
          "type": "uint256"
        },
        {
          "internalType": "uint256",
          "name": "stackTopIndex",
          "type": "uint256"
        }
      ],
      "name": "StackPopUnderflow",
      "type": "error"
    },
    {
      "inputs": [
        {
          "internalType": "uint256",
          "name": "updatedAt",
          "type": "uint256"
        },
        {
          "internalType": "uint256",
          "name": "staleAfter",
          "type": "uint256"
        }
      ],
      "name": "StalePrice",
      "type": "error"
    },
    {
      "inputs": [
        {
          "internalType": "uint256",
          "name": "startBit",
          "type": "uint256"
        },
        {
          "internalType": "uint256",
          "name": "length",
          "type": "uint256"
        }
      ],
      "name": "TruncatedEncoding",
      "type": "error"
    },
    {
      "inputs": [
        {
          "internalType": "bytes32",
          "name": "actualBytecodeHash",
          "type": "bytes32"
        }
      ],
      "name": "UnexpectedInterpreterBytecodeHash",
      "type": "error"
    },
    {
      "inputs": [
        {
          "internalType": "bytes32",
          "name": "actualOpMeta",
          "type": "bytes32"
        }
      ],
      "name": "UnexpectedOpMetaHash",
      "type": "error"
    },
    {
      "inputs": [
        {
          "internalType": "bytes",
          "name": "actualPointers",
          "type": "bytes"
        }
      ],
      "name": "UnexpectedPointers",
      "type": "error"
    },
    {
      "inputs": [
        {
          "internalType": "bytes32",
          "name": "actualBytecodeHash",
          "type": "bytes32"
        }
      ],
      "name": "UnexpectedStoreBytecodeHash",
      "type": "error"
    },
    {
      "inputs": [],
      "name": "WriteError",
      "type": "error"
    },
    {
      "inputs": [],
      "name": "ZeroInputs",
      "type": "error"
    },
    {
      "anonymous": false,
      "inputs": [
        {
          "indexed": false,
          "internalType": "address",
          "name": "sender",
          "type": "address"
        },
        {
          "indexed": false,
          "internalType": "address",
          "name": "deployer",
          "type": "address"
        },
        {
          "indexed": false,
          "internalType": "address",
          "name": "interpreter",
          "type": "address"
        },
        {
          "indexed": false,
          "internalType": "address",
          "name": "store",
          "type": "address"
        },
        {
          "indexed": false,
          "internalType": "bytes",
          "name": "opMeta",
          "type": "bytes"
        }
      ],
      "name": "DISpair",
      "type": "event"
    },
    {
      "anonymous": false,
      "inputs": [
        {
          "indexed": false,
          "internalType": "address",
          "name": "sender",
          "type": "address"
        },
        {
          "indexed": false,
          "internalType": "address",
          "name": "expression",
          "type": "address"
        }
      ],
      "name": "ExpressionAddress",
      "type": "event"
    },
    {
      "anonymous": false,
      "inputs": [
        {
          "indexed": false,
          "internalType": "address",
          "name": "sender",
          "type": "address"
        },
        {
          "indexed": false,
          "internalType": "bytes[]",
          "name": "sources",
          "type": "bytes[]"
        },
        {
          "indexed": false,
          "internalType": "uint256[]",
          "name": "constants",
          "type": "uint256[]"
        },
        {
          "indexed": false,
          "internalType": "uint256[]",
          "name": "minOutputs",
          "type": "uint256[]"
        }
      ],
      "name": "NewExpression",
      "type": "event"
    },
    {
      "inputs": [
        {
          "internalType": "bytes[]",
          "name": "sources_",
          "type": "bytes[]"
        },
        {
          "internalType": "uint256[]",
          "name": "constants_",
          "type": "uint256[]"
        },
        {
          "internalType": "uint256[]",
          "name": "minOutputs_",
          "type": "uint256[]"
        }
      ],
      "name": "deployExpression",
      "outputs": [
        {
          "internalType": "contract IInterpreterV1",
          "name": "",
          "type": "address"
        },
        {
          "internalType": "contract IInterpreterStoreV1",
          "name": "",
          "type": "address"
        },
        {
          "internalType": "address",
          "name": "",
          "type": "address"
        }
      ],
      "stateMutability": "nonpayable",
      "type": "function"
    },
    {
      "inputs": [],
      "name": "interpreter",
      "outputs": [
        {
          "internalType": "contract IInterpreterV1",
          "name": "",
          "type": "address"
        }
      ],
      "stateMutability": "view",
      "type": "function"
    },
    {
      "inputs": [
        {
          "internalType": "bytes[]",
          "name": "sources_",
          "type": "bytes[]"
        },
        {
          "internalType": "uint256[]",
          "name": "constants_",
          "type": "uint256[]"
        },
        {
          "internalType": "FullyQualifiedNamespace",
          "name": "namespace_",
          "type": "uint256"
        },
        {
          "internalType": "uint256[][]",
          "name": "context_",
          "type": "uint256[][]"
        },
        {
          "internalType": "SourceIndex",
          "name": "sourceIndex_",
          "type": "uint16"
        },
        {
          "internalType": "uint256[]",
          "name": "initialStack_",
          "type": "uint256[]"
        },
        {
          "internalType": "uint256",
          "name": "minOutputs_",
          "type": "uint256"
        }
      ],
      "name": "offchainDebugEval",
      "outputs": [
        {
          "internalType": "uint256[]",
          "name": "",
          "type": "uint256[]"
        },
        {
          "internalType": "uint256[]",
          "name": "",
          "type": "uint256[]"
        }
      ],
      "stateMutability": "view",
      "type": "function"
    },
    {
      "inputs": [],
      "name": "store",
      "outputs": [
        {
          "internalType": "contract IInterpreterStoreV1",
          "name": "",
          "type": "address"
        }
      ],
      "stateMutability": "view",
      "type": "function"
    },
    {
      "inputs": [
        {
          "internalType": "bytes4",
          "name": "interfaceId_",
          "type": "bytes4"
        }
      ],
      "name": "supportsInterface",
      "outputs": [
        {
          "internalType": "bool",
          "name": "",
          "type": "bool"
        }
      ],
      "stateMutability": "view",
      "type": "function"
    }
  ],
  "bytecode": "0x60c06040523480156200001157600080fd5b5060405162005dc238038062005dc2833981016040819052620000349162000453565b6000816000015190506000816001600160a01b031663f933c72f6040518163ffffffff1660e01b8152600401600060405180830381865afa1580156200007e573d6000803e3d6000fd5b505050506040513d6000823e601f3d908101601f19168201604052620000a8919081019062000504565b90506040518060c00160405280609a815260200162005d28609a913980519060200120818051906020012014620000ff5780604051634c1af20160e11b8152600401620000f6919062000572565b60405180910390fd5b813f7fb087015cd99d1d2c8e9bb9293c82596bc77edd9715d4931d9c13f0c1a37baa4981146200014657604051630eec293f60e11b815260048101829052602401620000f6565b6020840151803f7fc9c2b2bdabe67a82e58fadfd7725c2333877bda939b8a15938d15061d93ed0458114620001925760405163cc0415fd60e01b815260048101829052602401620000f6565b604086015180516020909101207f47ed85f917e187757bff09371cedcf5c0eb277c27e4673feb2d3cc040c66c9938114620001e4576040516343d0fe5760e11b815260048101829052602401620000f6565b6001600160a01b03808716608052831660a052865160208801516040808a015190517f1788931a083e1bfada6cb062b5426ea97c7866b814b4d1173909e4018f2122f1936200023793339330936200058e565b60405180910390a1604080518082018252601581527f4945787072657373696f6e4465706c6f79657256310000000000000000000000602082015290516365ba36c160e01b8152731820a4b7618bde71dce8cdc73aab6c95905fad24916329965a1d91309184916365ba36c191620002b29160040162000572565b602060405180830381865afa158015620002d0573d6000803e3d6000fd5b505050506040513d601f19601f82011682018060405250810190620002f69190620005d7565b6040516001600160e01b031960e085901b1681526001600160a01b0390921660048301526024820152306044820152606401600060405180830381600087803b1580156200034357600080fd5b505af115801562000358573d6000803e3d6000fd5b5050505050505050505050620005f1565b634e487b7160e01b600052604160045260246000fd5b80516001600160a01b03811681146200039757600080fd5b919050565b60005b83811015620003b95781810151838201526020016200039f565b50506000910152565b600082601f830112620003d457600080fd5b81516001600160401b0380821115620003f157620003f162000369565b604051601f8301601f19908116603f011681019082821181831017156200041c576200041c62000369565b816040528381528660208588010111156200043657600080fd5b620004498460208301602089016200039c565b9695505050505050565b6000602082840312156200046657600080fd5b81516001600160401b03808211156200047e57600080fd5b90830190606082860312156200049357600080fd5b604051606081018181108382111715620004b157620004b162000369565b604052620004bf836200037f565b8152620004cf602084016200037f565b6020820152604083015182811115620004e757600080fd5b620004f587828601620003c2565b60408301525095945050505050565b6000602082840312156200051757600080fd5b81516001600160401b038111156200052e57600080fd5b6200053c84828501620003c2565b949350505050565b600081518084526200055e8160208601602086016200039c565b601f01601f19169290920160200192915050565b60208152600062000587602083018462000544565b9392505050565b6001600160a01b038681168252858116602083015284811660408301528316606082015260a060808201819052600090620005cc9083018462000544565b979650505050505050565b600060208284031215620005ea57600080fd5b5051919050565b60805160a0516156f662000632600039600081816101500152818161039c015261051801526000818160990152818161037a01526104dc01526156f66000f3fe608060405234801561001057600080fd5b50600436106100675760003560e01c80635511cb67116100505780635511cb67146100e05780635563754c1461012a578063975057e71461014b57600080fd5b806301ffc9a71461006c5780633a35cf1714610094575b600080fd5b61007f61007a3660046149b5565b610172565b60405190151581526020015b60405180910390f35b6100bb7f000000000000000000000000000000000000000000000000000000000000000081565b60405173ffffffffffffffffffffffffffffffffffffffff909116815260200161008b565b6100f36100ee366004614c06565b61020b565b6040805173ffffffffffffffffffffffffffffffffffffffff9485168152928416602084015292169181019190915260600161008b565b61013d610138366004614d25565b6103ca565b60405161008b929190614e31565b6100bb7f000000000000000000000000000000000000000000000000000000000000000081565b60007fffffffff0000000000000000000000000000000000000000000000000000000082167f5511cb6700000000000000000000000000000000000000000000000000000000148061020557507fffffffff0000000000000000000000000000000000000000000000000000000082167f01ffc9a700000000000000000000000000000000000000000000000000000000145b92915050565b60008060008061021c8787876105d5565b90507ff66a0c19428b142e06d7aa23d5f18b9b9ff08408fefcdfb8bb27cb34929f7786338888886040516102539493929190614ef9565b60405180910390a16000806102f361026c8a8a866106e4565b60408051602c83017fffffffffffffffffffffffffffffffffffffffffffffffffffffffffffffffe01681019091527effff0000000000000000000000000000000000000000000000000000000000600190920160e81b919091167f61000080600c6000396000f3000000000000000000000000000000000000000017815290600d820190565b9150915061031c818a8a866040518060c00160405280609a8152602001615627609a9139610765565b6000610327836107ca565b6040805133815273ffffffffffffffffffffffffffffffffffffffff831660208201529192507fce6e4a4a7b561c65155990775d2faf8a581292f97859ce67e366fd53686b31f1910160405180910390a17f00000000000000000000000000000000000000000000000000000000000000009a7f00000000000000000000000000000000000000000000000000000000000000009a509098509650505050505050565b60608060006103e18a8a6103dc610838565b610847565b90506000816040015190506103f88282885161095a565b9050610406828883886109b6565b506060600061042684608001518560400151610adf90919063ffffffff16565b905060005b8d518110156104815761046f8e828151811061044957610449614f4e565b60200260200101516040518060c00160405280609a8152602001615627609a9139610ae8565b8061047981614fac565b91505061042b565b508067ffffffffffffffff81111561049b5761049b6149f7565b6040519080825280602002602001820160405280156104c4578160200160208202803683370190505b5091506104d960208901602084018a51610b47565b507f000000000000000000000000000000000000000000000000000000000000000073ffffffffffffffffffffffffffffffffffffffff1663adea61287f00000000000000000000000000000000000000000000000000000000000000008c8f8f8e878f6040518863ffffffff1660e01b815260040161055f9796959493929190614fe4565b600060405180830381865afa15801561057c573d6000803e3d6000fd5b505050506040513d6000823e601f3d9081017fffffffffffffffffffffffffffffffffffffffffffffffffffffffffffffffe01682016040526105c29190810190615154565b9450945050505097509795505050505050565b600083518251111561062557815184516040517f7d2d70db000000000000000000000000000000000000000000000000000000008152600481019290925260248201526044015b60405180910390fd5b600061063485856103dc610838565b604081015160608201519192509060005b85518161ffff1610156106c65760408401839052606084018290526106b3848261069060027fffffffffffffffffffffffffffffffffffffffffffffffffffffffffffffffff6151e7565b898561ffff16815181106106a6576106a6614f4e565b60200260200101516109b6565b50806106be816151fb565b915050610645565b506080830151604084015160209103045b93505050505b9392505050565b6000806106f260208261521c565b9050610702845160209081020190565b61070c908261521c565b905060005b855181101561075c5761073e86828151811061072f5761072f614f4e565b60200260200101515160200190565b610748908361521c565b91508061075481614fac565b915050610711565b50949350505050565b818552602085016107768185610b77565b9050606060005b86518110156107c05786818151811061079857610798614f4e565b602002602001015191506107ac8285610ae8565b6107b68383610b97565b925060010161077d565b5050505050505050565b6000806000600d9050835160e81c61ffff168101846000f0915073ffffffffffffffffffffffffffffffffffffffff8216610831576040517f08d4abb600000000000000000000000000000000000000000000000000000000815260040160405180910390fd5b5092915050565b6060610842610bb7565b905090565b6108806040518060c001604052806060815260200160008152602001600081526020016000815260200160008152602001606081525090565b6040805160c081018252858152845160208201529081016108c260027fffffffffffffffffffffffffffffffffffffffffffffffffffffffffffffffff6151e7565b815260200161091a6108f560027fffffffffffffffffffffffffffffffffffffffffffffffffffffffffffffffff6151e7565b7fffffffffffffffffffffffffffffffffffffffffffffffffffffffffffffffe00190565b815260200161094a60027fffffffffffffffffffffffffffffffffffffffffffffffffffffffffffffffff6151e7565b8152602001929092525092915050565b6000602082028301925060018211156109a45761099e7fffffffffffffffffffffffffffffffffffffffffffffffffffffffffffffffe08401606086015190610e57565b60608501525b6109ae8484610e6d565b509092915050565b600060027fffffffffffffffffffffffffffffffffffffffffffffffffffffffffffffffff0485604001511015610a19576040517f271592cf00000000000000000000000000000000000000000000000000000000815260040160405180910390fd5b845160208581029091010151805181015b80821015610a8457600080600484019350835161ffff8116915061ffff8160101c16925050610a7b8982898c60a001518681518110610a6b57610a6b614f4e565b602002602001015163ffffffff16565b96505050610a2a565b604087015160209086030480851115610ad3576040517ff993c6e7000000000000000000000000000000000000000000000000000000008152600481018690526024810182905260440161061c565b50939695505050505050565b60209190030490565b815161ffff907fffffffffffffffffffffffffffffffffffffffffffffffffffffffffffff000090840160028481019086015b82811015610b3e5780518581166002028301518616908516178152600401610b1b565b50505050505050565b8060200283015b80841015610b69578351835260209384019390920191610b4e565b50505050565b815260200190565b60006106dd82610b91845186610b6f90919063ffffffff16565b90610e85565b60006106dd82610bb1845186610b6f90919063ffffffff16565b90610ea2565b60606000604051806109c00160405280610bcf604d90565b67ffffffffffffffff1667ffffffffffffffff168152602001610ebc8152602001610f298152602001610f8c8152602001610fac8152602001610fbb8152602001610fbb8152602001610fc78152602001610fe0815260200161104b81526020016110e0815260200161114581526020016111c08152602001611257815260200161132f815260200161133f815260200161134e815260200161135e815260200161136d815260200161137c815260200161138b815260200161139a815260200161135e81526020016113a981526020016113b88152602001610fbb8152602001610fbb81526020016113c881526020016113d881526020016113e881526020016113f881526020016114088152602001611418815260200161142881526020016114388152602001611448815260200161145781526020016114668152602001611475815260200161148681526020016114a3815260200161147581526020016114b281526020016114c181526020016114d081526020016114df81526020016114ee81526020016114fd815260200161150c815260200161151b815260200161152a815260200161153981526020016115488152602001611557815260200161156681526020016115758152602001611584815260200161159381526020016115a281526020016115b181526020016115c081526020016115cf81526020016115df81526020016115ef81526020016115ff815260200161160e815260200161161d815260200161162c815260200161163b815260200161164a81526020016116598152602001610fc7815260200161166881526020016116788152602001611688815260200161169881526020016116a781526020016116fb81525090508091505090565b6000818311610e6657816106dd565b5090919050565b8160800151811115610e8157608082018190525b5050565b6000610e9660208301848451610b47565b815160200283016106dd565b6000610eb36020830184845161170a565b815183016106dd565b600060ff600884901c81169084166101008183011115610f12576040517f2ccabbc2000000000000000000000000000000000000000000000000000000008152600481018390526024810182905260440161061c565b610f1f86856117876117bd565b9695505050505050565b600060ff600884901c81169084166101008183011115610f7f576040517f2ccabbc2000000000000000000000000000000000000000000000000000000008152600481018390526024810182905260440161061c565b610f1f86856117d3611817565b6000610fa4610f9b8584611828565b8590600861095a565b949350505050565b6000610fa4848361185c611817565b6000610fa48483611868565b60006149ab610fd78584836117bd565b95945050505050565b6000600f8316600784811c16600d85901c808201610f00600888901b167e7ffffffffffffffffffffffffffffffffffffffffffffffffffffffffffff0600989901c16178117611031898886611877565b965061103e89828961104b565b9998505050505050505050565b60408301516060840151600091600f85811692600487901c90911691600887901c9161107889888761188b565b60408a01527fffffffffffffffffffffffffffffffffffffffffffffffffffffffffffffffe0870160608a01526110b1898489876109b6565b506060890181905260408901516110ca908a908661095a565b6040999099019190915250959695505050505050565b600060ff8316600f8110611123576040517f316e6a370000000000000000000000000000000000000000000000000000000081526004810182905260240161061c565b60018101600481901b85176106d761113c88838861104b565b889060016118a5565b6020830151600090601f84811691600586901c90911690600a86901c9081106111aa5760208701516040517f890a8e6a00000000000000000000000000000000000000000000000000000000815260048101919091526024810182905260440161061c565b6106d76111b888878661188b565b88908461095a565b6000600c83901c600f80851690600486901c1681811015611217576040517f508a8d2f000000000000000000000000000000000000000000000000000000008152600481018390526024810182905260440161061c565b6060870151610fff87169060005b858110156112495760608a0182905261123f8a848a61104b565b9750600101611225565b509598975050505050505050565b600060018381169084901c816112d85760408601516020908503048082106112b5576040517f1cb73c16000000000000000000000000000000000000000000000000000000008152600481018290526024810183905260440161061c565b604087015160608801516112cd916020850201610e57565b606088015250611325565b856020015181106113255760208601516040517f890a8e6a00000000000000000000000000000000000000000000000000000000815260048101919091526024810182905260440161061c565b610f1f8685611868565b6000610fa484836118b286611901565b6000610fa484836119116119ab565b6000610fa484836119bc86611a76565b6000610fa48483611a94611817565b6000610fa48483611b296117bd565b6000610fa48483611b9a6119ab565b6000610fa48483611bf9611817565b6000610fa48483611c4f6117bd565b6000610fa48483611cdc611817565b6000610fa48483611d8b86611d98565b6000610fa48483611da586611901565b6000610fa48483611db186611901565b6000610fa48483611dbd86611901565b6000610fa48483610e5786611901565b6000610fa48483611dc986611901565b6000610fa48483611dd886611901565b6000610fa48483611de486611901565b6000610fa48483611df086611901565b6000610fa48483611dfc6117bd565b6000610fa48483611e10611817565b6000610fa48483611e206117bd565b60006149ab610fd785848387611901565b6000610fa482611e3461149a86600161521c565b87929190611a76565b6000610fa48483611e44611817565b6000610fa48483611e48611817565b6000610fa48483611e4c6117bd565b6000610fa48483611e50611817565b6000610fa48483611e54611817565b6000610fa48483611e606117bd565b6000610fa48483611e6b611817565b6000610fa48483611e776117bd565b6000610fa48483611e826117bd565b6000610fa48483611e8d6117bd565b6000610fa48483611ea56117bd565b6000610fa48483611eb7611817565b6000610fa48483611ec36117bd565b6000610fa48483611ece6117bd565b6000610fa48483611ed96117bd565b6000610fa48483611ee46117bd565b6000610fa48483611eef611817565b6000610fa48483611efb611817565b6000610fa48483611f07611817565b6000610fa48483611f136117bd565b6000610fa48483611f1e86611901565b6000610fa48483611f5986611901565b6000610fa48483611f8a86611901565b6000610fa48483611fa0612062565b6000610fa484836120736117bd565b6000610fa484836120c06117bd565b6000610fa4848361210d6117bd565b6000610fa4848361218f6117bd565b6000610fa484836121dc6117bd565b6000610fa484836122296119ab565b60006149ab610fd7858483612288565b6000610fa48483612296866122ed565b6000610fa484836123008661239a565b6000610fa484836123ad611817565b600060ff83168082036116e6576040517f904c1f6d00000000000000000000000000000000000000000000000000000000815260040160405180910390fd5b610fd76116f486858461188b565b8690611868565b6000610fa4848361240c611817565b5b602081106117485782518252602092830192909101907fffffffffffffffffffffffffffffffffffffffffffffffffffffffffffffffe00161170b565b8015611782577fffffffffffffffffffffffffffffffffffffffffffffffffffffffffffffffff600882021c808351168119855116178352505b505050565b60ff80831660020a7fffffffffffffffffffffffffffffffffffffffffffffffffffffffffffffffff0160089390931c161c1690565b6000610fa46117cc8585611828565b8590611868565b60ff83811660020a7fffffffffffffffffffffffffffffffffffffffffffffffffffffffffffffffff0192831660089490941c1692831b9190921b19919091161790565b6000610fa46117cc8585600261188b565b7fffffffffffffffffffffffffffffffffffffffffffffffffffffffffffffffe00160006118568383612424565b50919050565b60006106dd8383612484565b60200160006118568383610e6d565b600060208202830192506109ae8484610e6d565b600081156109ae5760208202830392506109ae8484612424565b6000602082028303610fa4565b6000816040516020016118c5919061522f565b604080517fffffffffffffffffffffffffffffffffffffffffffffffffffffffffffffffe0818403018152919052805160209091012092915050565b6000610fd76116f486868561188b565b6040517efdd58e00000000000000000000000000000000000000000000000000000000815273ffffffffffffffffffffffffffffffffffffffff8381166004830152602482018390526000919085169062fdd58e906044015b602060405180830381865afa158015611987573d6000803e3d6000fd5b505050506040513d601f19601f82011682018060405250810190610fa49190615265565b6000610fa46117cc8585600361188b565b6040517f4e1273f400000000000000000000000000000000000000000000000000000000815260609073ffffffffffffffffffffffffffffffffffffffff851690634e1273f490611a13908690869060040161527e565b600060405180830381865afa158015611a30573d6000803e3d6000fd5b505050506040513d6000823e601f3d9081017fffffffffffffffffffffffffffffffffffffffffffffffffffffffffffffffe0168201604052610fa491908101906152e1565b6000610fd7611a8c86866001600287020161188b565b86908461095a565b6040517f70a0823100000000000000000000000000000000000000000000000000000000815273ffffffffffffffffffffffffffffffffffffffff8281166004830152600091908416906370a08231906024015b602060405180830381865afa158015611b05573d6000803e3d6000fd5b505050506040513d601f19601f820116820180604052508101906106dd9190615265565b60008173ffffffffffffffffffffffffffffffffffffffff166318160ddd6040518163ffffffff1660e01b8152600401602060405180830381865afa158015611b76573d6000803e3d6000fd5b505050506040513d601f19601f820116820180604052508101906102059190615265565b6040517f4ee2cd7e00000000000000000000000000000000000000000000000000000000815273ffffffffffffffffffffffffffffffffffffffff83811660048301526024820183905260009190851690634ee2cd7e9060440161196a565b6040517f981b24d00000000000000000000000000000000000000000000000000000000081526004810182905260009073ffffffffffffffffffffffffffffffffffffffff84169063981b24d090602401611ae8565b60008173ffffffffffffffffffffffffffffffffffffffff16638da5cb5b6040518163ffffffff1660e01b8152600401602060405180830381865afa158015611c9c573d6000803e3d6000fd5b505050506040513d601f19601f82011682018060405250810190611cc09190615316565b73ffffffffffffffffffffffffffffffffffffffff1692915050565b6040517f6352211e0000000000000000000000000000000000000000000000000000000081526004810182905260009073ffffffffffffffffffffffffffffffffffffffff841690636352211e90602401602060405180830381865afa158015611d4a573d6000803e3d6000fd5b505050506040513d601f19601f82011682018060405250810190611d6e9190615316565b73ffffffffffffffffffffffffffffffffffffffff169392505050565b80611d9557600080fd5b50565b6000610fd785858461188b565b60006106dd828461521c565b60006106dd82846151e7565b60006106dd828461546c565b6000818310610e6657816106dd565b60006106dd8284615478565b60006106dd828461548c565b60006106dd82846154a3565b60006106dd82600285901c6003861661260c565b6000610fa482846003871661260c565b60006106dd82600285901c60038616612691565b6060600084116109ae5781610fa4565b1490565b1090565b1590565b1190565b60006106dd83836126f3565b600061020582612706565b60006106dd838361277e565b600061020582612799565b600061020582612802565b6000670de0b6b3a76400008206801515028203610205565b6000670de0b6b3a76400008206610205565b60006106dd8383612871565b6000610205826128f1565b600061020582612914565b600061020582612945565b6000610205826137d1565b60006106dd8383613936565b60006106dd8383613945565b60006106dd8383613a52565b600061020582613ab2565b6000828201838110611f305780610fa4565b7fffffffffffffffffffffffffffffffffffffffffffffffffffffffffffffffff949350505050565b600082600003611f6b57506000610205565b82820282848281611f7e57611f7e6151b8565b0403611f305780610fa4565b6000818311611f9a5760006106dd565b50900390565b6040517fd97b2e4800000000000000000000000000000000000000000000000000000000815273ffffffffffffffffffffffffffffffffffffffff84811660048301528381166024830152604482018390526000919086169063d97b2e4890606401602060405180830381865afa15801561201f573d6000803e3d6000fd5b505050506040513d601f19601f820116820180604052508101906120439190615265565b73ffffffffffffffffffffffffffffffffffffffff1695945050505050565b6000610fa46117cc8585600461188b565b60008173ffffffffffffffffffffffffffffffffffffffff1663ec14b06e6040518163ffffffff1660e01b8152600401602060405180830381865afa158015611b76573d6000803e3d6000fd5b60008173ffffffffffffffffffffffffffffffffffffffff1663cd3293de6040518163ffffffff1660e01b8152600401602060405180830381865afa158015611c9c573d6000803e3d6000fd5b60008173ffffffffffffffffffffffffffffffffffffffff1663f9020e336040518163ffffffff1660e01b8152600401602060405180830381865afa15801561215a573d6000803e3d6000fd5b505050506040513d601f19601f8201168201806040525081019061217e91906154b6565b6003811115610205576102056154d7565b60008173ffffffffffffffffffffffffffffffffffffffff1663fc0c546a6040518163ffffffff1660e01b8152600401602060405180830381865afa158015611c9c573d6000803e3d6000fd5b60008173ffffffffffffffffffffffffffffffffffffffff166347e4bbb96040518163ffffffff1660e01b8152600401602060405180830381865afa158015611b76573d6000803e3d6000fd5b6040517fdb8554fc00000000000000000000000000000000000000000000000000000000815273ffffffffffffffffffffffffffffffffffffffff8381166004830152602482018390526000919085169063db8554fc9060440161196a565b6000610fa48484600261188b565b6040517f88d6860400000000000000000000000000000000000000000000000000000000815260009073ffffffffffffffffffffffffffffffffffffffff8516906388d686049061196a9086908690600401615506565b6000610fd76116f486866002860161188b565b6040517fcaa0eb3b00000000000000000000000000000000000000000000000000000000815260009073ffffffffffffffffffffffffffffffffffffffff86169063caa0eb3b9061235990879087908790600401615535565b602060405180830381865afa158015612376573d6000803e3d6000fd5b505050506040513d601f19601f82011682018060405250810190610fd79190615265565b6000610fd76116f486866003860161188b565b60008060015b600881116124045760006123c78683613b21565b905060006123d58684613b21565b905060006123e38383611f8a565b90506123f3856001860383613bd1565b945050600190920191506123b39050565b509392505050565b6000610fa48385600f16600487901c600f1685613c5b565b81606001518111610e815760608201516040830151602091030460408301516020908303046040517f625e32e40000000000000000000000000000000000000000000000000000000081526004810192909252602482015260440161061c565b60008060008473ffffffffffffffffffffffffffffffffffffffff1663feaf968c6040518163ffffffff1660e01b815260040160a060405180830381865afa1580156124d4573d6000803e3d6000fd5b505050506040513d601f19601f820116820180604052508101906124f89190615584565b509350509250506000821361253c576040517f3351e26f0000000000000000000000000000000000000000000000000000000081526004810183905260240161061c565b8361254782426154a3565b1115612589576040517f2730eb48000000000000000000000000000000000000000000000000000000008152600481018290526024810185905260440161061c565b610fd78573ffffffffffffffffffffffffffffffffffffffff1663313ce5676040518163ffffffff1660e01b8152600401602060405180830381865afa1580156125d7573d6000803e3d6000fd5b505050506040513d601f19601f820116820180604052508101906125fb91906155d4565b60ff16600161260985613d01565b91905b6000826012111561264157601283900360028316156126375761262f8582613d71565b9150506106dd565b61262f8582613df7565b601283111561268a577fffffffffffffffffffffffffffffffffffffffffffffffffffffffffffffffee830160018316156126805761262f8582613e2f565b61262f8582613e7d565b50826106dd565b600082601211156126b457601283900360018316156126805761262f8582613e2f565b601283111561268a577fffffffffffffffffffffffffffffffffffffffffffffffffffffffffffffffee830160028316156126375761262f8582613d71565b6000828280821681831860011c01610fd7565b6000817ffffffffffffffffffffffffffffffffffffffffffffffffff7e52fe5afe40000811115612766576040517f6149f6b90000000000000000000000000000000000000000000000000000000081526004810184905260240161061c565b5050670de0b6b3a76400008082068015159103020190565b60006106dd61279684670de0b6b3a764000085613ea0565b90565b600081680736ea4425c11ac6308111156127e2576040517f1af63aca0000000000000000000000000000000000000000000000000000000081526004810184905260240161061c565b6714057b7ef767814f8102610fa4612802670de0b6b3a7640000835b0490565b600081680a688906bd8affffff81111561284b576040517fb3b6ba1f0000000000000000000000000000000000000000000000000000000081526004810184905260240161061c565b6000612863670de0b6b3a7640000604084901b6151e7565b9050610fa461279682613fab565b60008282811580612880575080155b1561289057600092505050610205565b818102818382816128a3576128a36151b8565b04146128e5576040517fae7f3b37000000000000000000000000000000000000000000000000000000008152600481018790526024810186905260440161061c565b610f1f6127968261471f565b6000610205826ec097ce7bc90715b34b9f1000000000816127fe576127fe6151b8565b60006102056714057b7ef767814f670de0b6b3a7640000612937612796866137d1565b02816127fe576127fe6151b8565b600081670de0b6b3a764000081101561298d576040517f36d32ef00000000000000000000000000000000000000000000000000000000081526004810184905260240161061c565b82600181146130de57600a8114613106576064811461312e576103e8811461315657612710811461317e57620186a081146131a657620f424081146131ce576298968081146131f6576305f5e100811461321e57633b9aca008114613246576402540be400811461326e5764174876e80081146132965764e8d4a5100081146132be576509184e72a00081146132e657655af3107a4000811461330e5766038d7ea4c68000811461333657662386f26fc10000811461335e5767016345785d8a0000811461338657670de0b6b3a764000081146133ae57678ac7230489e8000081146133b75768056bc75e2d6310000081146133c757683635c9adc5dea0000081146133d75769021e19e0c9bab240000081146133e75769152d02c7e14af680000081146133f75769d3c21bcecceda10000008114613407576a084595161401484a0000008114613417576a52b7d2dcc80cd2e40000008114613427576b033b2e3c9fd0803ce80000008114613437576b204fce5e3e250261100000008114613447576c01431e0fae6d7217caa00000008114613457576c0c9f2c9cd04674edea400000008114613467576c7e37be2022c0914b26800000008114613477576d04ee2d6d415b85acef81000000008114613487576d314dc6448d9338c15b0a000000008114613497576e01ed09bead87c0378d8e640000000081146134a7576e13426172c74d822b878fe80000000081146134b7576ec097ce7bc90715b34b9f100000000081146134c7576f0785ee10d5da46d900f436a00000000081146134d7576f4b3b4ca85a86c47a098a22400000000081146134e8577002f050fe938943acc45f6556800000000081146134f957701d6329f1c35ca4bfabb9f5610000000000811461350a57710125dfa371a19e6f7cb54395ca0000000000811461351b57710b7abc627050305adf14a3d9e40000000000811461352c577172cb5bd86321e38cb6ce6682e80000000000811461353d5772047bf19673df52e37f2410011d100000000000811461354e57722cd76fe086b93ce2f768a00b22a00000000000811461355f577301c06a5ec5433c60ddaa16406f5a40000000000081146135705773118427b3b4a05bc8a8a4de84598680000000000081146135815773af298d050e4395d69670b12b7f410000000000008114613592577406d79f82328ea3da61e066ebb2f88a00000000000081146135a35774446c3b15f9926687d2c40534fdb56400000000000081146135b4577502ac3a4edbbfb8014e3ba83411e915e800000000000081146135c557751aba4714957d300d0e549208b31adb1000000000000081146135d65776010b46c6cdd6e3e0828f4db456ff0c8ea000000000000081146135e757760a70c3c40a64e6c51999090b65f67d924000000000000081146135f857766867a5a867f103b2fffa5a71fba0e7b6800000000000008114613609577704140c78940f6a24fdffc78873d4490d2100000000000000811461361a577728c87cb5c89a2571ebfdcb54864ada834a00000000000000811461362b57780197d4df19d605767337e9f14d3eec8920e400000000000000811461363c57780fee50b7025c36a0802f236d04753d5b48e800000000000000811461364d57789f4f2726179a224501d762422c946590d91000000000000000811461365e5779063917877cec0556b21269d695bdcbf7a87aa000000000000000811461366f57793e3aeb4ae1383562f4b82261d969f7ac94ca40000000000000008114613680577a026e4d30eccc3215dd8f3157d27e23acbdcfe680000000000000008114613691577a184f03e93ff9f4daa797ed6e38ed64bf6a1f01000000000000000081146136a2577af316271c7fc3908a8bef464e3945ef7a25360a000000000000000081146136b3577b097edd871cfda3a5697758bf0e3cbb5ac5741c64000000000000000081146136c4577b5ef4a74721e864761ea977768e5f518bb6891be8000000000000000081146136d5577c03b58e88c75313ec9d329eaaa18fb92f75215b1710000000000000000081146136e6577c25179157c93ec73e23fa32aa4f9d3bda934d8ee6a0000000000000000081146136f7577d0172ebad6ddc73c86d67c5faa71c245689c10795024000000000000000008114613708577d0e7d34c64a9c85d4460dbbca87196b61618a4bd2168000000000000000008114613719577d90e40fbeea1d3a4abc8955e946fe31cdcf66f634e1000000000000000000811461372a577e05a8e89d75252446eb5d5d5b1cc5edf20a1a059e10ca000000000000000000811461373b577e3899162693736ac531a5a58f1fbb4b746504382ca7e4000000000000000000811461374c577f0235fadd81c2822bb3f07877973d50f28bf22a31be8ee8000000000000000000811461375d577f161bcca7119915b50764b4abe86529797775a5f1719510000000000000000000811461376e577fdd15fe86affad91249ef0eb713f39ebeaa987b6e6fd2a0000000000000000000811461377f577fffffffffffffffffffffffffffffffffffffffffffffffffffffffffffffffff925061378c565b7fffffffffffffffffffffffffffffffffffffffffffffffff0633275e3af80000925061378c565b7fffffffffffffffffffffffffffffffffffffffffffffffff1413de11e25c0000925061378c565b7fffffffffffffffffffffffffffffffffffffffffffffffff21f494c589c00000925061378c565b7fffffffffffffffffffffffffffffffffffffffffffffffff2fd54b7931240000925061378c565b7fffffffffffffffffffffffffffffffffffffffffffffffff3db6022cd8880000925061378c565b7fffffffffffffffffffffffffffffffffffffffffffffffff4b96b8e07fec0000925061378c565b7fffffffffffffffffffffffffffffffffffffffffffffffff59776f9427500000925061378c565b7fffffffffffffffffffffffffffffffffffffffffffffffff67582647ceb40000925061378c565b7fffffffffffffffffffffffffffffffffffffffffffffffff7538dcfb76180000925061378c565b7fffffffffffffffffffffffffffffffffffffffffffffffff831993af1d7c0000925061378c565b7fffffffffffffffffffffffffffffffffffffffffffffffff90fa4a62c4e00000925061378c565b7fffffffffffffffffffffffffffffffffffffffffffffffff9edb01166c440000925061378c565b7fffffffffffffffffffffffffffffffffffffffffffffffffacbbb7ca13a80000925061378c565b7fffffffffffffffffffffffffffffffffffffffffffffffffba9c6e7dbb0c0000925061378c565b7fffffffffffffffffffffffffffffffffffffffffffffffffc87d253162700000925061378c565b7fffffffffffffffffffffffffffffffffffffffffffffffffd65ddbe509d40000925061378c565b7fffffffffffffffffffffffffffffffffffffffffffffffffe43e9298b1380000925061378c565b7ffffffffffffffffffffffffffffffffffffffffffffffffff21f494c589c0000925061378c565b6000925061378c565b670de0b6b3a7640000925061378c565b671bc16d674ec80000925061378c565b6729a2241af62c0000925061378c565b673782dace9d900000925061378c565b674563918244f40000925061378c565b6753444835ec580000925061378c565b676124fee993bc0000925061378c565b676f05b59d3b200000925061378c565b677ce66c50e2840000925061378c565b678ac7230489e80000925061378c565b6798a7d9b8314c0000925061378c565b67a688906bd8b00000925061378c565b67b469471f80140000925061378c565b67c249fdd327780000925061378c565b67d02ab486cedc0000925061378c565b67de0b6b3a76400000925061378c565b67ebec21ee1da40000925061378c565b67f9ccd8a1c5080000925061378c565b680107ad8f556c6c0000925061378c565b6801158e460913d00000925061378c565b6801236efcbcbb340000925061378c565b6801314fb37062980000925061378c565b68013f306a2409fc0000925061378c565b68014d1120d7b1600000925061378c565b68015af1d78b58c40000925061378c565b680168d28e3f00280000925061378c565b680176b344f2a78c0000925061378c565b68018493fba64ef00000925061378c565b68019274b259f6540000925061378c565b6801a055690d9db80000925061378c565b6801ae361fc1451c0000925061378c565b6801bc16d674ec800000925061378c565b6801c9f78d2893e40000925061378c565b6801d7d843dc3b480000925061378c565b6801e5b8fa8fe2ac0000925061378c565b6801f399b1438a100000925061378c565b6802017a67f731740000925061378c565b68020f5b1eaad8d80000925061378c565b68021d3bd55e803c0000925061378c565b68022b1c8c1227a00000925061378c565b680238fd42c5cf040000925061378c565b680246ddf97976680000925061378c565b680254beb02d1dcc0000925061378c565b6802629f66e0c5300000925061378c565b680270801d946c940000925061378c565b68027e60d44813f80000925061378c565b68028c418afbbb5c0000925061378c565b68029a2241af62c00000925061378c565b6802a802f8630a240000925061378c565b6802b5e3af16b1880000925061378c565b6802c3c465ca58ec0000925061378c565b6802d1a51c7e00500000925061378c565b6802df85d331a7b40000925061378c565b6802ed6689e54f180000925061378c565b6802fb474098f67c0000925061378c565b68030927f74c9de00000925061378c565b68031708ae0045440000925061378c565b680324e964b3eca80000925061378c565b680332ca1b67940c000092505b507fffffffffffffffffffffffffffffffffffffffffffffffffffffffffffffffff8203611856576106dd672e19dc008126bf2b670de0b6b3a7640000612937612796875b600081670de0b6b3a7640000811015613819576040517f36d32ef00000000000000000000000000000000000000000000000000000000081526004810184905260240161061c565b60006138a5670de0b6b3a7640000830460016fffffffffffffffffffffffffffffffff821160071b91821c67ffffffffffffffff811160061b90811c63ffffffff811160051b90811c61ffff811160041b90811c60ff8111600390811b91821c600f811160021b90811c918211871b91821c969096119490961792909217171791909117919091171790565b9050670de0b6b3a7640000810282821c7ffffffffffffffffffffffffffffffffffffffffffffffffff21f494c589c000081016138e55750949350505050565b671bc16d674ec800006706f05b59d3b200005b801561392857670de0b6b3a7640000838002049250818310613920579283019260019290921c915b60011c6138f8565b50825b979650505050505050565b60006106dd61279684846148a4565b6000828281830361397057801561395d576000613967565b670de0b6b3a76400005b92505050610205565b670de0b6b3a7640000820361399157670de0b6b3a764000092505050610205565b806000036139ab57670de0b6b3a764000092505050610205565b670de0b6b3a764000081036139c4578492505050610205565b670de0b6b3a76400008211156139f0576139e96128026139e3876137d1565b86613936565b9250613a4a565b6000613a0e612796846ec097ce7bc90715b34b9f10000000006151e7565b90506000613a27612802613a21846137d1565b88613936565b9050613a45612796826ec097ce7bc90715b34b9f10000000006151e7565b945050505b505092915050565b6000828160018416613a6c57670de0b6b3a7640000613a6e565b815b9050600184901c93505b8315613aac57613a8882836148a4565b91506001841615613aa057613a9d81836148a4565b90505b600184901c9350613a78565b80610fd7565b6000817812725dd1d243aba0e75fe645cc4873f9e65afe688c928e1f21811115613b0b576040517fedc236ad0000000000000000000000000000000000000000000000000000000081526004810184905260240161061c565b6106dd612796670de0b6b3a7640000830261471f565b6000816008811115613b8f576040517f08c379a000000000000000000000000000000000000000000000000000000000815260206004820152600860248201527f4d41585f54494552000000000000000000000000000000000000000000000000604482015260640161061c565b82600003613ba05760009150610831565b50507fffffffffffffffffffffffffffffffffffffffffffffffffffffffffffffffff016020021c63ffffffff1690565b6000826008811115613c3f576040517f08c379a000000000000000000000000000000000000000000000000000000000815260206004820152600860248201527f4d41585f54494552000000000000000000000000000000000000000000000000604482015260640161061c565b505060209190910290811b63ffffffff90911b19919091161790565b6000826008811115613cc9576040517f08c379a000000000000000000000000000000000000000000000000000000000815260206004820152600860248201527f4d41585f54494552000000000000000000000000000000000000000000000000604482015260640161061c565b6000855b85811015613cf55763ffffffff6020820290811b199890981685891b17979150600101613ccd565b50959695505050505050565b600080821215613d6d576040517f08c379a000000000000000000000000000000000000000000000000000000000815260206004820181905260248201527f53616665436173743a2076616c7565206d75737420626520706f736974697665604482015260640161061c565b5090565b6000604e8210613db1578215613da7577fffffffffffffffffffffffffffffffffffffffffffffffffffffffffffffffff613daa565b60005b9050610205565b50600a81900a8281029083818381613dcb57613dcb6151b8565b0414610831577fffffffffffffffffffffffffffffffffffffffffffffffffffffffffffffffff610fa4565b600a81900a613e06818461548c565b9050604e8210610205578215613e2657613e2182600a61546c565b6106dd565b50600092915050565b6000604e8210613e53578215613e46576001613e49565b60005b60ff169050610205565b600a82900a808481613e6757613e676151b8565b0491508082028414610831575060010192915050565b6000604e821015613e265781600a0a8381613e9a57613e9a6151b8565b046106dd565b600080807fffffffffffffffffffffffffffffffffffffffffffffffffffffffffffffffff85870985870292508281108382030391505080600003613ef857838281613eee57613eee6151b8565b04925050506106dd565b838110613f42576040517f63a0577800000000000000000000000000000000000000000000000000000000815260048101879052602481018690526044810185905260640161061c565b60008486880960026001871981018816978890046003810283188082028403028082028403028082028403028082028403028082028403029081029092039091026000889003889004909101858311909403939093029303949094049190911702949350505050565b7780000000000000000000000000000000000000000000000067ff000000000000008216156140cc57678000000000000000821615613ff35768016a09e667f3bcc9090260401c5b674000000000000000821615614012576801306fe0a31b7152df0260401c5b672000000000000000821615614031576801172b83c7d517adce0260401c5b6710000000000000008216156140505768010b5586cf9890f62a0260401c5b67080000000000000082161561406f576801059b0d31585743ae0260401c5b67040000000000000082161561408e57680102c9a3e778060ee70260401c5b6702000000000000008216156140ad5768010163da9fb33356d80260401c5b6701000000000000008216156140cc57680100b1afa5abcbed610260401c5b66ff0000000000008216156141cb5766800000000000008216156140f95768010058c86da1c09ea20260401c5b6640000000000000821615614117576801002c605e2e8cec500260401c5b662000000000000082161561413557680100162f3904051fa10260401c5b6610000000000000821615614153576801000b175effdc76ba0260401c5b660800000000000082161561417157680100058ba01fb9f96d0260401c5b660400000000000082161561418f5768010002c5cc37da94920260401c5b66020000000000008216156141ad576801000162e525ee05470260401c5b66010000000000008216156141cb5768010000b17255775c040260401c5b65ff00000000008216156142c157658000000000008216156141f6576801000058b91b5bc9ae0260401c5b6540000000000082161561421357680100002c5c89d5ec6d0260401c5b652000000000008216156142305768010000162e43f4f8310260401c5b6510000000000082161561424d57680100000b1721bcfc9a0260401c5b6508000000000082161561426a5768010000058b90cf1e6e0260401c5b65040000000000821615614287576801000002c5c863b73f0260401c5b650200000000008216156142a457680100000162e430e5a20260401c5b650100000000008216156142c1576801000000b1721835510260401c5b64ff000000008216156143ae576480000000008216156142ea57680100000058b90c0b490260401c5b6440000000008216156143065768010000002c5c8601cc0260401c5b642000000000821615614322576801000000162e42fff00260401c5b64100000000082161561433e5768010000000b17217fbb0260401c5b64080000000082161561435a576801000000058b90bfce0260401c5b64040000000082161561437657680100000002c5c85fe30260401c5b6402000000008216156143925768010000000162e42ff10260401c5b6401000000008216156143ae57680100000000b17217f80260401c5b63ff0000008216156144925763800000008216156143d55768010000000058b90bfc0260401c5b63400000008216156143f0576801000000002c5c85fe0260401c5b632000000082161561440b57680100000000162e42ff0260401c5b6310000000821615614426576801000000000b17217f0260401c5b630800000082161561444157680100000000058b90c00260401c5b630400000082161561445c5768010000000002c5c8600260401c5b6302000000821615614477576801000000000162e4300260401c5b63010000008216156144925768010000000000b172180260401c5b62ff000082161561456d57628000008216156144b7576801000000000058b90c0260401c5b624000008216156144d157680100000000002c5c860260401c5b622000008216156144eb5768010000000000162e430260401c5b6210000082161561450557680100000000000b17210260401c5b6208000082161561451f5768010000000000058b910260401c5b62040000821615614539576801000000000002c5c80260401c5b6202000082161561455357680100000000000162e40260401c5b6201000082161561456d576801000000000000b1720260401c5b61ff0082161561463f5761800082161561459057680100000000000058b90260401c5b6140008216156145a95768010000000000002c5d0260401c5b6120008216156145c2576801000000000000162e0260401c5b6110008216156145db5768010000000000000b170260401c5b6108008216156145f4576801000000000000058c0260401c5b61040082161561460d57680100000000000002c60260401c5b61020082161561462657680100000000000001630260401c5b61010082161561463f57680100000000000000b10260401c5b60ff82161561470857608082161561466057680100000000000000590260401c5b6040821615614678576801000000000000002c0260401c5b602082161561469057680100000000000000160260401c5b60108216156146a8576801000000000000000b0260401c5b60088216156146c057680100000000000000060260401c5b60048216156146d857680100000000000000030260401c5b60028216156146f057680100000000000000010260401c5b600182161561470857680100000000000000010260401c5b670de0b6b3a76400000260409190911c60bf031c90565b60008160000361473157506000919050565b5060018170010000000000000000000000000000000081106147585760409190911b9060801c5b6801000000000000000081106147735760209190911b9060401c5b640100000000811061478a5760109190911b9060201c5b62010000811061479f5760089190911b9060101c5b61010081106147b35760049190911b9060081c5b601081106147c65760029190911b9060041c5b600481106147d657600182901b91505b60018284816147e7576147e76151b8565b048301901c915060018284816147ff576147ff6151b8565b048301901c91506001828481614817576148176151b8565b048301901c9150600182848161482f5761482f6151b8565b048301901c91506001828481614847576148476151b8565b048301901c9150600182848161485f5761485f6151b8565b048301901c91506001828481614877576148776151b8565b048301901c9150600082848161488f5761488f6151b8565b04905080831061489d578092505b5050919050565b600080807fffffffffffffffffffffffffffffffffffffffffffffffffffffffffffffffff848609848602925082811083820303915050806000036148f65750670de0b6b3a764000090049050610205565b670de0b6b3a76400008110614941576040517f5173648d000000000000000000000000000000000000000000000000000000008152600481018690526024810185905260440161061c565b6000670de0b6b3a7640000858709620400008185030493109091037d40000000000000000000000000000000000000000000000000000000000002919091177faccb18165bd6fe31ae1cf318dc5b51eee0e1ba569b88cd74c1773b91fac106690291505092915050565b6149b36155f7565b565b6000602082840312156149c757600080fd5b81357fffffffff00000000000000000000000000000000000000000000000000000000811681146106dd57600080fd5b7f4e487b7100000000000000000000000000000000000000000000000000000000600052604160045260246000fd5b604051601f82017fffffffffffffffffffffffffffffffffffffffffffffffffffffffffffffffe016810167ffffffffffffffff81118282101715614a6d57614a6d6149f7565b604052919050565b600067ffffffffffffffff821115614a8f57614a8f6149f7565b5060051b60200190565b6000601f8381840112614aab57600080fd5b82356020614ac0614abb83614a75565b614a26565b82815260059290921b85018101918181019087841115614adf57600080fd5b8287015b84811015614b9457803567ffffffffffffffff80821115614b045760008081fd5b818a0191508a603f830112614b195760008081fd5b85820135604082821115614b2f57614b2f6149f7565b614b5e887fffffffffffffffffffffffffffffffffffffffffffffffffffffffffffffffe08c85011601614a26565b92508183528c81838601011115614b755760008081fd5b8181850189850137506000908201870152845250918301918301614ae3565b50979650505050505050565b600082601f830112614bb157600080fd5b81356020614bc1614abb83614a75565b82815260059290921b84018101918181019086841115614be057600080fd5b8286015b84811015614bfb5780358352918301918301614be4565b509695505050505050565b600080600060608486031215614c1b57600080fd5b833567ffffffffffffffff80821115614c3357600080fd5b614c3f87838801614a99565b94506020860135915080821115614c5557600080fd5b614c6187838801614ba0565b93506040860135915080821115614c7757600080fd5b50614c8486828701614ba0565b9150509250925092565b600082601f830112614c9f57600080fd5b81356020614caf614abb83614a75565b82815260059290921b84018101918181019086841115614cce57600080fd5b8286015b84811015614bfb57803567ffffffffffffffff811115614cf25760008081fd5b614d008986838b0101614ba0565b845250918301918301614cd2565b803561ffff81168114614d2057600080fd5b919050565b600080600080600080600060e0888a031215614d4057600080fd5b873567ffffffffffffffff80821115614d5857600080fd5b614d648b838c01614a99565b985060208a0135915080821115614d7a57600080fd5b614d868b838c01614ba0565b975060408a0135965060608a0135915080821115614da357600080fd5b614daf8b838c01614c8e565b9550614dbd60808b01614d0e565b945060a08a0135915080821115614dd357600080fd5b50614de08a828b01614ba0565b92505060c0880135905092959891949750929550565b600081518084526020808501945080840160005b83811015614e2657815187529582019590820190600101614e0a565b509495945050505050565b604081526000614e446040830185614df6565b8281036020840152610fd78185614df6565b600081518084526020808501808196508360051b810191508286016000805b86811015614eeb578385038a5282518051808752835b81811015614ea6578281018901518882018a01528801614e8b565b5086810188018490529a87019a601f017fffffffffffffffffffffffffffffffffffffffffffffffffffffffffffffffe0169095018601945091850191600101614e75565b509298975050505050505050565b73ffffffffffffffffffffffffffffffffffffffff85168152608060208201526000614f286080830186614e56565b8281036040840152614f3a8186614df6565b9050828103606084015261392b8185614df6565b7f4e487b7100000000000000000000000000000000000000000000000000000000600052603260045260246000fd5b7f4e487b7100000000000000000000000000000000000000000000000000000000600052601160045260246000fd5b60007fffffffffffffffffffffffffffffffffffffffffffffffffffffffffffffffff8203614fdd57614fdd614f7d565b5060010190565b73ffffffffffffffffffffffffffffffffffffffff8816815260006020888184015260e0604084015261501a60e0840189614e56565b838103606085015261502c8189614df6565b905083810360808501528087518083528383019150838160051b840101848a016000805b848110156150c1578684037fffffffffffffffffffffffffffffffffffffffffffffffffffffffffffffffe0018652825180518086529089019089860190845b818110156150ac5783518352928b0192918b0191600101615090565b50509689019694505091870191600101615050565b50505086810360a08801526150d6818a614df6565b955050505050506150ed60c083018461ffff169052565b98975050505050505050565b600082601f83011261510a57600080fd5b8151602061511a614abb83614a75565b82815260059290921b8401810191818101908684111561513957600080fd5b8286015b84811015614bfb578051835291830191830161513d565b6000806040838503121561516757600080fd5b825167ffffffffffffffff8082111561517f57600080fd5b61518b868387016150f9565b935060208501519150808211156151a157600080fd5b506151ae858286016150f9565b9150509250929050565b7f4e487b7100000000000000000000000000000000000000000000000000000000600052601260045260246000fd5b6000826151f6576151f66151b8565b500490565b600061ffff80831681810361521257615212614f7d565b6001019392505050565b8082018082111561020557610205614f7d565b815160009082906020808601845b838110156152595781518552938201939082019060010161523d565b50929695505050505050565b60006020828403121561527757600080fd5b5051919050565b604080825283519082018190526000906020906060840190828701845b828110156152cd57815173ffffffffffffffffffffffffffffffffffffffff168452928401929084019060010161529b565b50505083810382850152610f1f8186614df6565b6000602082840312156152f357600080fd5b815167ffffffffffffffff81111561530a57600080fd5b610fa4848285016150f9565b60006020828403121561532857600080fd5b815173ffffffffffffffffffffffffffffffffffffffff811681146106dd57600080fd5b600181815b808511156153a557817fffffffffffffffffffffffffffffffffffffffffffffffffffffffffffffffff0482111561538b5761538b614f7d565b8085161561539857918102915b93841c9390800290615351565b509250929050565b6000826153bc57506001610205565b816153c957506000610205565b81600181146153df57600281146153e957615405565b6001915050610205565b60ff8411156153fa576153fa614f7d565b50506001821b610205565b5060208310610133831016604e8410600b8410161715615428575081810a610205565b615432838361534c565b807fffffffffffffffffffffffffffffffffffffffffffffffffffffffffffffffff0482111561546457615464614f7d565b029392505050565b60006106dd83836153ad565b600082615487576154876151b8565b500690565b808202811582820484141761020557610205614f7d565b8181038181111561020557610205614f7d565b6000602082840312156154c857600080fd5b8151600481106106dd57600080fd5b7f4e487b7100000000000000000000000000000000000000000000000000000000600052602160045260246000fd5b73ffffffffffffffffffffffffffffffffffffffff83168152604060208201526000610fa46040830184614df6565b73ffffffffffffffffffffffffffffffffffffffff84168152826020820152606060408201526000610fd76060830184614df6565b805169ffffffffffffffffffff81168114614d2057600080fd5b600080600080600060a0868803121561559c57600080fd5b6155a58661556a565b94506020860151935060408601519250606086015191506155c86080870161556a565b90509295509295909350565b6000602082840312156155e657600080fd5b815160ff811681146106dd57600080fd5b7f4e487b7100000000000000000000000000000000000000000000000000000000600052605160045260246000fdfe0ac80adf0aee0b710b7f0bd10c410cbf0d9e0df40e8d10211061107f108e109c10ab10b910c710d510e310ab10f110ff110e111c112a113911481157116611751184119311a211b111c011cf1218122a1238126a12781286129412a212b012be12cc12da12e812f6130413121320132e133c134a1358136613741383139213a113af13bd13cb13d913e713f51403153115b915c815d715e51657a2646970667358221220bcbe0fe645cb15a1498bcce4304ac498c3949a0e9e7bbcfa34af20fb7cc66ac264736f6c634300081300330ac80adf0aee0b710b7f0bd10c410cbf0d9e0df40e8d10211061107f108e109c10ab10b910c710d510e310ab10f110ff110e111c112a113911481157116611751184119311a211b111c011cf1218122a1238126a12781286129412a212b012be12cc12da12e812f6130413121320132e133c134a1358136613741383139213a113af13bd13cb13d913e713f51403153115b915c815d715e51657",
  "linkReferences": {},
  "deployedLinkReferences": {}
}