{
  "_format": "hh-sol-artifact-1",
  "contractName": "Rainterpreter",
  "sourceName": "contracts/interpreter/shared/Rainterpreter.sol",
  "abi": [
    {
      "inputs": [
        {
          "internalType": "uint256",
          "name": "dynamicLength",
          "type": "uint256"
        },
        {
          "internalType": "uint256",
          "name": "standardOpsLength",
          "type": "uint256"
        }
      ],
      "name": "BadDynamicLength",
      "type": "error"
    },
    {
      "inputs": [
        {
          "internalType": "uint256",
          "name": "expected",
          "type": "uint256"
        },
        {
          "internalType": "uint256",
          "name": "actual",
          "type": "uint256"
        }
      ],
      "name": "BadExternResultsLength",
      "type": "error"
    },
    {
      "inputs": [
        {
          "internalType": "MemoryKVPtr",
          "name": "ptr",
          "type": "uint256"
        }
      ],
      "name": "InvalidPtr",
      "type": "error"
    },
    {
      "inputs": [
        {
          "internalType": "int256",
          "name": "price",
          "type": "int256"
        }
      ],
      "name": "NotPosIntPrice",
      "type": "error"
    },
    {
      "inputs": [
        {
          "internalType": "uint256",
          "name": "x",
          "type": "uint256"
        },
        {
          "internalType": "uint256",
          "name": "y",
          "type": "uint256"
        }
      ],
      "name": "PRBMath_MulDiv18_Overflow",
      "type": "error"
    },
    {
      "inputs": [
        {
          "internalType": "uint256",
          "name": "x",
          "type": "uint256"
        },
        {
          "internalType": "uint256",
          "name": "y",
          "type": "uint256"
        },
        {
          "internalType": "uint256",
          "name": "denominator",
          "type": "uint256"
        }
      ],
      "name": "PRBMath_MulDiv_Overflow",
      "type": "error"
    },
    {
      "inputs": [
        {
          "internalType": "UD60x18",
          "name": "x",
          "type": "uint256"
        }
      ],
      "name": "PRBMath_UD60x18_Ceil_Overflow",
      "type": "error"
    },
    {
      "inputs": [
        {
          "internalType": "UD60x18",
          "name": "x",
          "type": "uint256"
        }
      ],
      "name": "PRBMath_UD60x18_Exp2_InputTooBig",
      "type": "error"
    },
    {
      "inputs": [
        {
          "internalType": "UD60x18",
          "name": "x",
          "type": "uint256"
        }
      ],
      "name": "PRBMath_UD60x18_Exp_InputTooBig",
      "type": "error"
    },
    {
      "inputs": [
        {
          "internalType": "UD60x18",
          "name": "x",
          "type": "uint256"
        },
        {
          "internalType": "UD60x18",
          "name": "y",
          "type": "uint256"
        }
      ],
      "name": "PRBMath_UD60x18_Gm_Overflow",
      "type": "error"
    },
    {
      "inputs": [
        {
          "internalType": "UD60x18",
          "name": "x",
          "type": "uint256"
        }
      ],
      "name": "PRBMath_UD60x18_Log_InputTooSmall",
      "type": "error"
    },
    {
      "inputs": [
        {
          "internalType": "UD60x18",
          "name": "x",
          "type": "uint256"
        }
      ],
      "name": "PRBMath_UD60x18_Sqrt_Overflow",
      "type": "error"
    },
    {
      "inputs": [],
      "name": "ReadError",
      "type": "error"
    },
    {
      "inputs": [
        {
          "internalType": "uint256",
          "name": "updatedAt",
          "type": "uint256"
        },
        {
          "internalType": "uint256",
          "name": "staleAfter",
          "type": "uint256"
        }
      ],
      "name": "StalePrice",
      "type": "error"
    },
    {
      "inputs": [
        {
          "internalType": "uint256",
          "name": "expectedLength",
          "type": "uint256"
        },
        {
          "internalType": "uint256",
          "name": "actualLength",
          "type": "uint256"
        }
      ],
      "name": "UnexpectedResultLength",
      "type": "error"
    },
    {
      "inputs": [
        {
          "internalType": "contract IInterpreterStoreV1",
          "name": "store_",
          "type": "address"
        },
        {
          "internalType": "StateNamespace",
          "name": "namespace_",
          "type": "uint256"
        },
        {
          "internalType": "EncodedDispatch",
          "name": "dispatch_",
          "type": "uint256"
        },
        {
          "internalType": "uint256[][]",
          "name": "context_",
          "type": "uint256[][]"
        }
      ],
      "name": "eval",
      "outputs": [
        {
          "internalType": "uint256[]",
          "name": "",
          "type": "uint256[]"
        },
        {
          "internalType": "uint256[]",
          "name": "",
          "type": "uint256[]"
        }
      ],
      "stateMutability": "view",
      "type": "function"
    },
    {
      "inputs": [],
      "name": "functionPointers",
      "outputs": [
        {
          "internalType": "bytes",
          "name": "",
          "type": "bytes"
        }
      ],
      "stateMutability": "view",
      "type": "function"
    },
    {
      "inputs": [
        {
          "internalType": "contract IInterpreterStoreV1",
          "name": "store_",
          "type": "address"
        },
        {
          "internalType": "FullyQualifiedNamespace",
          "name": "namespace_",
          "type": "uint256"
        },
        {
          "internalType": "bytes[]",
          "name": "compiledSources_",
          "type": "bytes[]"
        },
        {
          "internalType": "uint256[]",
          "name": "constants_",
          "type": "uint256[]"
        },
        {
          "internalType": "uint256[][]",
          "name": "context_",
          "type": "uint256[][]"
        },
        {
          "internalType": "uint256[]",
          "name": "stack_",
          "type": "uint256[]"
        },
        {
          "internalType": "SourceIndex",
          "name": "sourceIndex_",
          "type": "uint16"
        }
      ],
      "name": "offchainDebugEval",
      "outputs": [
        {
          "internalType": "uint256[]",
          "name": "",
          "type": "uint256[]"
        },
        {
          "internalType": "uint256[]",
          "name": "",
          "type": "uint256[]"
        }
      ],
      "stateMutability": "view",
      "type": "function"
    },
    {
      "inputs": [
        {
          "internalType": "bytes4",
          "name": "interfaceId_",
          "type": "bytes4"
        }
      ],
      "name": "supportsInterface",
      "outputs": [
        {
          "internalType": "bool",
          "name": "",
          "type": "bool"
        }
      ],
      "stateMutability": "view",
      "type": "function"
    }
  ],
  "bytecode": "0x608060405234801561001057600080fd5b50615a3c80620000216000396000f3fe608060405234801561001057600080fd5b506004361061004c5760003560e01c806301ffc9a7146100515780636715f82514610079578063adea61281461009a578063f933c72f146100ad575b600080fd5b61006461005f366004614fea565b6100c2565b60405190151581526020015b60405180910390f35b61008c6100873660046151e6565b61015b565b604051610070929190615284565b61008c6100a83660046153bd565b61023c565b6100b561031b565b6040516100709190615495565b60007fffffffff0000000000000000000000000000000000000000000000000000000082167f9e263f0a00000000000000000000000000000000000000000000000000000000148061015557507fffffffff0000000000000000000000000000000000000000000000000000000082167f01ffc9a700000000000000000000000000000000000000000000000000000000145b92915050565b606080602084901c601085901c61ffff8616600061018061017b8561032a565b6103d1565b60006040820152905061019289610664565b606082015273ffffffffffffffffffffffffffffffffffffffff8a16608082015260a0810187905280516000906101cc90839086906106dc565b825190915060209082030460006102176101e68387610737565b7fffffffffffffffffffffffffffffffffffffffffffffffffffffffffffffffe06020820286030180519181529091565b91505080610228856040015161074d565b985098505050505050505094509492505050565b60608060006040518060e001604052806102568760200190565b81526020016102658960200190565b8152602001600081526020018a81526020018b73ffffffffffffffffffffffffffffffffffffffff16815260200187815260200189815250905060006102ba858360000151846106dc9092919063ffffffff16565b82519091506000906020908303046020810283037fffffffffffffffffffffffffffffffffffffffffffffffffffffffffffffffe00181815260408501519192509081906103079061074d565b955095505050505097509795505050505050565b60606103256107dd565b905090565b6060813b6000819003610369576040517f26a9f61e00000000000000000000000000000000000000000000000000000000815260040160405180910390fd5b60408051603e83017fffffffffffffffffffffffffffffffffffffffffffffffffffffffffffffffe01681019091527fffffffffffffffffffffffffffffffffffffffffffffffffffffffffffffffff90910180825290915080600160208401853c50919050565b6104276040518060e0016040528060008152602001600081526020016000815260200160008152602001600073ffffffffffffffffffffffffffffffffffffffff16815260200160608152602001606081525090565b61047d6040518060e0016040528060008152602001600081526020016000815260200160008152602001600073ffffffffffffffffffffffffffffffffffffffff16815260200160608152602001606081525090565b60408051600080825260208201909252906104a8565b60608152602001906001900390816104935790505b5060a082015260006104bb845b60200190565b905060006104f16104ec837fffffffffffffffffffffffffffffffffffffffffffffffffffffffffffffffe0015190565b830190565b90506020820191506000610525837fffffffffffffffffffffffffffffffffffffffffffffffffffffffffffffffe0015190565b905060008167ffffffffffffffff81111561054257610542615059565b60405190808252806020026020018201604052801561056b578160200160208202803683370190505b5060208082018752858101908701819052945190915061058d90602002850190565b9350600084815b858210156105b9576105af6104b56105aa845190565b840190565b9150600101610594565b8067ffffffffffffffff8111156105d2576105d2615059565b60405190808252806020026020018201604052801561060557816020015b60608152602001906001900390816105f05790505b5060c08901525b8587101561065657868860c00151848151811061062b5761062b615501565b60200260200101819052506106496104b5610644895190565b890190565b965060019092019161060c565b509598975050505050505050565b6040517fffffffffffffffffffffffffffffffffffffffff0000000000000000000000003360601b166020820152603481018290526000906054015b604080517fffffffffffffffffffffffffffffffffffffffffffffffffffffffffffffffe0818403018152919052805160209091012092915050565b60c0830151602061ffff8416810291909101015180516000919081015b8082101561072a57600491909101805190919061ffff601082901c8116911661072188828885565b955050506106f9565b83925050505b9392505050565b60008183106107465781610730565b5090919050565b606061ffff8216601083901c60008167ffffffffffffffff81111561077457610774615059565b60405190808252806020026020018201604052801561079d578160200160208202803683370190505b50905060208101602082510281015b808210156107d257845182526020808601519083015260409485015194909101906107ac565b509095945050505050565b60606000604051806109c001604052806107f5604d90565b67ffffffffffffffff168152610ac86020820152610adf6040820152610aee6060820152610b716080820152610b7f60a0820152610bd160c0820152610c4160e0820152610cbf610100820152610d9e610120820152610df4610140820152610e8d6101608201526110216101808201526110616101a082015261107f6101c082015261108e6101e082015261109c6102008201526110ab61022082018190526110b96102408301526110c76102608301526110d56102808301526110e36102a08301526102c08201526110f16102e08201526110ff61030082015261110e61032082015261111c61034082015261112a6103608201526111396103808201526111486103a08201526111576103c08201526111666103e08201526111756104008201526111846104208201526111936104408201526111a26104608201526111b16104808201526111c06104a08201526111cf6104c08201526112186104e082015261122a61050082015261123861052082015261126a6105408201526112786105608201526112866105808201526112946105a08201526112a26105c08201526112b06105e08201526112be6106008201526112cc6106208201526112da6106408201526112e86106608201526112f66106808201526113046106a08201526113126106c08201526113206106e082015261132e61070082015261133c61072082015261134a6107408201526113586107608201526113666107808201526113746107a08201526113836107c08201526113926107e08201526113a16108008201526113af6108208201526113bd6108408201526113cb6108608201526113d96108808201526113e76108a08201526113f56108c08201526114036108e08201526115316109008201526115b96109208201526115c86109408201526115d76109608201526115e56109808201526116576109a0909101529050610ac2610abd82611666565b6116b5565b91505090565b6000610ad78261173a85611770565b949350505050565b6000610ad7826117b1856117f5565b6000806000610b1f847fffffffffffffffffffffffffffffffffffffffffffffffffffffffffffffffe00180519091565b909250905063ffffffff610b6683828416602085901c8416604086901c8516606087901c8616608088901c871660a089901c881660c08a901c891660e08b901c6118638b16565b979650505050505050565b6000610ad7826118996118a5565b6000610ad78460a00151600885901c81518110610b9e57610b9e615501565b602002602001015160ff851681518110610bba57610bba615501565b60200260200101518361190690919063ffffffff16565b6000610ad78460a001518481518110610bec57610bec615501565b6020026020010151604051602001610c04919061555f565b604080518083037fffffffffffffffffffffffffffffffffffffffffffffffffffffffffffffffe001815291905280516020918201208452830190565b6000806000610c72847fffffffffffffffffffffffffffffffffffffffffffffffffffffffffffffffe00180519091565b9150915061072a8660a001518681518110610c8f57610c8f615501565b60200260200101518281518110610ca857610ca8615501565b60200260200101518361190e90919063ffffffff16565b6000600f83166007600485901c81169085811c811690600a87901c16600d87901c808301825b8a60a001518681518110610cfb57610cfb615501565b602002602001015151811015610d8f5760005b85811015610d6b57610d618c60a0015182890181518110610d3157610d31615501565b60200260200101518381518110610d4a57610d4a615501565b60200260200101518b61190690919063ffffffff16565b9950600101610d0e565b50600887901b600484901b178217610d848c828c610d9e565b995050600101610ce5565b50969998505050505050505050565b8251600090600f84811691600486901c90911690600886901c9060208402860388526000610dcd8984896106dc565b9050610de06020850282038a5186611912565b508751975250602002909401949350505050565b600060ff831660018101600481901b851783610e32867fffffffffffffffffffffffffffffffffffffffffffffffffffffffffffffffe00180519091565b90965090505b8015610e8157610e49888388610d9e565b9550610e77867fffffffffffffffffffffffffffffffffffffffffffffffffffffffffffffffe00180519091565b9096509050610e38565b50939695505050505050565b602083810151600a84901c808302909101517fffffffffffffffffffffffffffffffffffffffffffffffffffffffffffffffe0601f86169384028503018051848252600094929360a085901c939192919085610eee85855b90815260200190565b6040517fb65ad68300000000000000000000000000000000000000000000000000000000815290995060058b901c601f1693506000925073ffffffffffffffffffffffffffffffffffffffff8816915063b65ad68390610f549088908790600401615595565b600060405180830381865afa158015610f71573d6000803e3d6000fd5b505050506040513d6000823e601f3d9081017fffffffffffffffffffffffffffffffffffffffffffffffffffffffffffffffe0168201604052610fb791908101906155ae565b9050818151146110095780516040517fea4915ed000000000000000000000000000000000000000000000000000000008152611000918491600401918252602082015260400190565b60405180910390fd5b611013888261193a565b9a9950505050505050505050565b6000600c83901c610fff8416825b8281101561105657611042878387610d9e565b94508061104e81615663565b91505061102f565b509295945050505050565b60018281166020908102949094015192901c83029091015181520190565b6000610ad7826119578561196a565b6000610ad7826119b7611a51565b6000610ad782611ad785611b91565b6000610ad782611c8f6118a5565b6000610ad782611d24611d95565b6000610ad782611dd4611a51565b6000610ad782611e336118a5565b6000610ad782611e89611d95565b6000610ad782611f166118a5565b6000610ad782611fc585611fd2565b438152600060208201610ad7565b428152600060208201610ad7565b6000610ad78261200b85612017565b6000610ad78261205e85612017565b6000610ad78261206a85612017565b6000610ad78261207685612017565b6000610ad78261073785612017565b6000610ad78261208585612017565b6000610ad78261209185612017565b6000610ad78261209d85612017565b6000610ad7826120a985611770565b6000610ad7826120bd856117f5565b6000610ad7826120cd85611770565b6000602083028203805b838110156112095760006111eb825190565b90508015611200578252506020019050610730565b506020016111d9565b50602081015b95945050505050565b6000610ad7826120e160018601611b91565b6000610ad7826120f96118a5565b6000602083028203805b838110156112095780516000036112625750600081526020019050610730565b602001611242565b6000610ad7826120fd6118a5565b6000610ad782612101611d95565b6000610ad7826121056118a5565b6000610ad7826121096118a5565b6000610ad782612115611d95565b6000610ad7826121206118a5565b6000610ad78261212c611d95565b6000610ad782612137611d95565b6000610ad782612142611d95565b6000610ad78261215a611d95565b6000610ad78261216c6118a5565b6000610ad782612178611d95565b6000610ad782612183611d95565b6000610ad78261218e611d95565b6000610ad782612199611d95565b6000610ad7826121a46118a5565b6000610ad7826121b06118a5565b6000610ad7826121bc6118a5565b6000610ad7826121c8611d95565b6000610ad7826121d385612017565b6000610ad78261220e85612017565b6000610ad78261223f85612017565b6000610ad782612255612317565b6000610ad7826123d0611d95565b6000610ad78261241d611d95565b6000610ad78261246a611d95565b6000610ad7826124ec611d95565b6000610ad782612539611d95565b6000610ad782612586611a51565b600080611432837fffffffffffffffffffffffffffffffffffffffffffffffffffffffffffffffe00180519091565b6040870151919450915060009061144990836125e5565b905060008160000361151957608087015160608801516040517f669e48aa00000000000000000000000000000000000000000000000000000000815273ffffffffffffffffffffffffffffffffffffffff9092169163669e48aa916114bb918790600401918252602082015260400190565b602060405180830381865afa1580156114d8573d6000803e3d6000fd5b505050506040513d601f19601f820116820180604052508101906114fc919061569b565b604088015190915061150f90848361260e565b6040880152611525565b61152282612667565b90505b80855260208501610b66565b6000806000611562847fffffffffffffffffffffffffffffffffffffffffffffffffffffffffffffffe00180519091565b9094509050611593847fffffffffffffffffffffffffffffffffffffffffffffffffffffffffffffffe00180519091565b604088015191955092506115a890838361260e565b604087015250829150509392505050565b6000610ad7826126ae85612705565b6000610ad78261278f85612829565b6000610ad7826128f26118a5565b600060ff8316600884901c600316600a85901c83806116318786602081029091037fffffffffffffffffffffffffffffffffffffffffffffffffffffffffffffffe00180519181529091565b9150915061164a61164484868585612951565b82610ee5565b9998505050505050505050565b6000610ad782612aa0856117f5565b80518190604d146116b05780516040517fc8b569010000000000000000000000000000000000000000000000000000000081526004810191909152604d6024820152604401611000565b919050565b60606000825160020267ffffffffffffffff8111156116d6576116d6615059565b6040519080825280601f01601f191660200182016040528015611700576020820181803683370190505b50905061ffff80196020850160208651028101600285015b81831015610e8157805183518616908516178152602090920191600201611718565b60ff80831660020a7fffffffffffffffffffffffffffffffffffffffffffffffffffffffffffffffff0160089390931c161c1690565b7fffffffffffffffffffffffffffffffffffffffffffffffffffffffffffffffe0830180516000916117a6848363ffffffff8816565b905250929392505050565b60ff83811660020a7fffffffffffffffffffffffffffffffffffffffffffffffffffffffffffffffff0192831660089490941c1692831b9190921b19919091161790565b7fffffffffffffffffffffffffffffffffffffffffffffffffffffffffffffffc0830180517fffffffffffffffffffffffffffffffffffffffffffffffffffffffffffffffe09094018051909460009290919061185785848463ffffffff8a16565b90525093949350505050565b968852602088019590955260408701939093526060860191909152608085015260a084015260c083015260e08201526101000190565b60006107308383612ab8565b7fffffffffffffffffffffffffffffffffffffffffffffffffffffffffffffffc0820180517fffffffffffffffffffffffffffffffffffffffffffffffffffffffffffffffe0909301805190936000929091906117a6838363ffffffff8816565b815260200190565b9052565b8060200283015b80841015611934578351835260209384019390920191611919565b50505050565b600061194b60208301848451611912565b81516020028301610730565b6000816040516020016106a0919061555f565b7fffffffffffffffffffffffffffffffffffffffffffffffffffffffffffffffe060208202840301805182825260009160006119a9828763ffffffff16565b9050610b6681610ee5858582565b6040517efdd58e00000000000000000000000000000000000000000000000000000000815273ffffffffffffffffffffffffffffffffffffffff8381166004830152602482018390526000919085169062fdd58e906044015b602060405180830381865afa158015611a2d573d6000803e3d6000fd5b505050506040513d601f19601f82011682018060405250810190610ad7919061569b565b7fffffffffffffffffffffffffffffffffffffffffffffffffffffffffffffffa0820180517fffffffffffffffffffffffffffffffffffffffffffffffffffffffffffffffc0840180517fffffffffffffffffffffffffffffffffffffffffffffffffffffffffffffffe090950151909460009390919061185784848463ffffffff8a16565b6040517f4e1273f400000000000000000000000000000000000000000000000000000000815260609073ffffffffffffffffffffffffffffffffffffffff851690634e1273f490611b2e90869086906004016156b4565b600060405180830381865afa158015611b4b573d6000803e3d6000fd5b505050506040513d6000823e601f3d9081017fffffffffffffffffffffffffffffffffffffffffffffffffffffffffffffffe0168201604052610ad791908101906155ae565b6000602082028403818367ffffffffffffffff811115611bb357611bb3615059565b604051908082528060200260200182016040528015611bdc578160200160208202803683370190505b509050611bed826020830186611912565b6020840282037fffffffffffffffffffffffffffffffffffffffffffffffffffffffffffffffe0018051858252906000611c2c83838663ffffffff8c16565b905086815114611c755780516040517f231606ca000000000000000000000000000000000000000000000000000000008152611000918991600401918252602082015260400190565b81611c8460208301828a611912565b602088028101611013565b6040517f70a0823100000000000000000000000000000000000000000000000000000000815273ffffffffffffffffffffffffffffffffffffffff8281166004830152600091908416906370a08231906024015b602060405180830381865afa158015611d00573d6000803e3d6000fd5b505050506040513d601f19601f82011682018060405250810190610730919061569b565b60008173ffffffffffffffffffffffffffffffffffffffff166318160ddd6040518163ffffffff1660e01b8152600401602060405180830381865afa158015611d71573d6000803e3d6000fd5b505050506040513d601f19601f82011682018060405250810190610155919061569b565b7fffffffffffffffffffffffffffffffffffffffffffffffffffffffffffffffe082018051600091611dca8263ffffffff8616565b9052509192915050565b6040517f4ee2cd7e00000000000000000000000000000000000000000000000000000000815273ffffffffffffffffffffffffffffffffffffffff83811660048301526024820183905260009190851690634ee2cd7e90604401611a10565b6040517f981b24d00000000000000000000000000000000000000000000000000000000081526004810182905260009073ffffffffffffffffffffffffffffffffffffffff84169063981b24d090602401611ce3565b60008173ffffffffffffffffffffffffffffffffffffffff16638da5cb5b6040518163ffffffff1660e01b8152600401602060405180830381865afa158015611ed6573d6000803e3d6000fd5b505050506040513d601f19601f82011682018060405250810190611efa9190615717565b73ffffffffffffffffffffffffffffffffffffffff1692915050565b6040517f6352211e0000000000000000000000000000000000000000000000000000000081526004810182905260009073ffffffffffffffffffffffffffffffffffffffff841690636352211e90602401602060405180830381865afa158015611f84573d6000803e3d6000fd5b505050506040513d601f19601f82011682018060405250810190611fa89190615717565b73ffffffffffffffffffffffffffffffffffffffff169392505050565b80611fcf57600080fd5b50565b600060208202840381815b868310156120015782519150602083019250611ffc828763ffffffff16565b611fdd565b9695505050505050565b60006107308284615734565b60208181028403805160009282019083825b88841015612050578351915061204383838a63ffffffff16565b9250602084019350612029565b919093529695505050505050565b60006107308284615747565b6000610730828461587b565b60008183116107465781610730565b60006107308284615887565b6000610730828461589b565b600061073082846158b2565b600061073082600285901c60038616612c40565b6000610ad7828460038716612c40565b600061073082600285901c60038616612cc5565b6060600084116120f15781610ad7565b509092915050565b1490565b1090565b1590565b1190565b60006107308383612d27565b600061015582612d3a565b60006107308383612db2565b600061015582612dcd565b600061015582612e36565b6000670de0b6b3a76400008206801515028203610155565b6000670de0b6b3a76400008206610155565b60006107308383612ea5565b600061015582612f25565b600061015582612f48565b600061015582612f79565b600061015582613e12565b60006107308383613f75565b60006107308383613f84565b60006107308383614091565b6000610155826140f1565b60008282018381106121e55780610ad7565b7fffffffffffffffffffffffffffffffffffffffffffffffffffffffffffffffff949350505050565b60008260000361222057506000610155565b8282028284828161223357612233615530565b04036121e55780610ad7565b600081831161224f576000610730565b50900390565b6040517fd97b2e4800000000000000000000000000000000000000000000000000000000815273ffffffffffffffffffffffffffffffffffffffff84811660048301528381166024830152604482018390526000919086169063d97b2e4890606401602060405180830381865afa1580156122d4573d6000803e3d6000fd5b505050506040513d601f19601f820116820180604052508101906122f8919061569b565b73ffffffffffffffffffffffffffffffffffffffff1695945050505050565b7fffffffffffffffffffffffffffffffffffffffffffffffffffffffffffffff80820180517fffffffffffffffffffffffffffffffffffffffffffffffffffffffffffffffa0840180517fffffffffffffffffffffffffffffffffffffffffffffffffffffffffffffffc08601517fffffffffffffffffffffffffffffffffffffffffffffffffffffffffffffffe0909601519195600094919290916123c38585858563ffffffff8c16565b9052509495945050505050565b60008173ffffffffffffffffffffffffffffffffffffffff1663ec14b06e6040518163ffffffff1660e01b8152600401602060405180830381865afa158015611d71573d6000803e3d6000fd5b60008173ffffffffffffffffffffffffffffffffffffffff1663cd3293de6040518163ffffffff1660e01b8152600401602060405180830381865afa158015611ed6573d6000803e3d6000fd5b60008173ffffffffffffffffffffffffffffffffffffffff1663f9020e336040518163ffffffff1660e01b8152600401602060405180830381865afa1580156124b7573d6000803e3d6000fd5b505050506040513d601f19601f820116820180604052508101906124db91906158c5565b6003811115610155576101556158e6565b60008173ffffffffffffffffffffffffffffffffffffffff1663fc0c546a6040518163ffffffff1660e01b8152600401602060405180830381865afa158015611ed6573d6000803e3d6000fd5b60008173ffffffffffffffffffffffffffffffffffffffff166347e4bbb96040518163ffffffff1660e01b8152600401602060405180830381865afa158015611d71573d6000803e3d6000fd5b6040517fdb8554fc00000000000000000000000000000000000000000000000000000000815273ffffffffffffffffffffffffffffffffffffffff8381166004830152602482018390526000919085169063db8554fc90604401611a10565b61ffff828116905b8115612607578151831461260757604082015191506125ed565b5092915050565b60008061261b85856125e5565b905061ffff81156126315783602083015261265d565b60405191506060820160405284825283602083015280861660408301528160028760101c0160101b1795505b5093949350505050565b6000816000036126a6576040517f295cd22200000000000000000000000000000000000000000000000000000000815260048101839052602401611000565b506020015190565b6040517f88d6860400000000000000000000000000000000000000000000000000000000815260009073ffffffffffffffffffffffffffffffffffffffff8516906388d6860490611a109086908690600401615915565b6020810283037fffffffffffffffffffffffffffffffffffffffffffffffffffffffffffffffe001805182825260009182819050600080612768837fffffffffffffffffffffffffffffffffffffffffffffffffffffffffffffffe00180519091565b9150915061278261277e8287878c63ffffffff16565b8352565b5090979650505050505050565b6040517fcaa0eb3b00000000000000000000000000000000000000000000000000000000815260009073ffffffffffffffffffffffffffffffffffffffff86169063caa0eb3b906127e890879087908790600401615944565b602060405180830381865afa158015612805573d6000803e3d6000fd5b505050506040513d601f19601f8201168201806040525081019061120f919061569b565b6020810283037fffffffffffffffffffffffffffffffffffffffffffffffffffffffffffffffe00180518282526000918280612887837fffffffffffffffffffffffffffffffffffffffffffffffffffffffffffffffe00180519091565b9150915060006128b7837fffffffffffffffffffffffffffffffffffffffffffffffffffffffffffffffe0015190565b90506127826128cc828488888d63ffffffff16565b7fffffffffffffffffffffffffffffffffffffffffffffffffffffffffffffffe0850152565b60008060015b6008811161294957600061290c8683614160565b9050600061291a8684614160565b90506000612928838361223f565b9050612938856001860383614210565b945050600190920191506128f89050565b509392505050565b805160009081908190819060015b60088111612a925760009250828961299857507fffffffffffffffffffffffffffffffffffffffffffffffffffffffffffffffff61299c565b5060005b60005b83811015612a50576129ca8982815181106129bc576129bc615501565b602002602001015184614160565b9550898611612a1b578a6129e9576129e28683610737565b9150612a12565b60018b036129fb576129e28683612076565b60028b148015612a09575084155b15612a12578591505b60019450612a48565b8b612a48577fffffffffffffffffffffffffffffffffffffffffffffffffffffffffffffffff9150612a50565b60010161299f565b5083612a7957507fffffffffffffffffffffffffffffffffffffffffffffffffffffffffffffffff5b612a87866001840383614210565b95505060010161295f565b509298975050505050505050565b6000610ad78385600f16600487901c600f168561429a565b60008060008473ffffffffffffffffffffffffffffffffffffffff1663feaf968c6040518163ffffffff1660e01b815260040160a060405180830381865afa158015612b08573d6000803e3d6000fd5b505050506040513d601f19601f82011682018060405250810190612b2c9190615993565b5093505092505060008213612b70576040517f3351e26f00000000000000000000000000000000000000000000000000000000815260048101839052602401611000565b83612b7b82426158b2565b1115612bbd576040517f2730eb480000000000000000000000000000000000000000000000000000000081526004810182905260248101859052604401611000565b61120f8573ffffffffffffffffffffffffffffffffffffffff1663313ce5676040518163ffffffff1660e01b8152600401602060405180830381865afa158015612c0b573d6000803e3d6000fd5b505050506040513d601f19601f82011682018060405250810190612c2f91906159e3565b60ff166001612c3d85614340565b91905b60008260121115612c755760128390036002831615612c6b57612c6385826143b0565b915050610730565b612c638582614436565b6012831115612cbe577fffffffffffffffffffffffffffffffffffffffffffffffffffffffffffffffee83016001831615612cb457612c63858261446e565b612c6385826144bc565b5082610730565b60008260121115612ce85760128390036001831615612cb457612c63858261446e565b6012831115612cbe577fffffffffffffffffffffffffffffffffffffffffffffffffffffffffffffffee83016002831615612c6b57612c6385826143b0565b6000828280821681831860011c0161120f565b6000817ffffffffffffffffffffffffffffffffffffffffffffffffff7e52fe5afe40000811115612d9a576040517f6149f6b900000000000000000000000000000000000000000000000000000000815260048101849052602401611000565b5050670de0b6b3a76400008082068015159103020190565b6000610730612dca84670de0b6b3a7640000856144df565b90565b600081680736ea4425c11ac630811115612e16576040517f1af63aca00000000000000000000000000000000000000000000000000000000815260048101849052602401611000565b6714057b7ef767814f8102610ad7612e36670de0b6b3a7640000835b0490565b600081680a688906bd8affffff811115612e7f576040517fb3b6ba1f00000000000000000000000000000000000000000000000000000000815260048101849052602401611000565b6000612e97670de0b6b3a7640000604084901b615747565b9050610ad7612dca826145ea565b60008282811580612eb4575080155b15612ec457600092505050610155565b81810281838281612ed757612ed7615530565b0414612f19576040517fae7f3b370000000000000000000000000000000000000000000000000000000081526004810187905260248101869052604401611000565b612001612dca82614d5e565b6000610155826ec097ce7bc90715b34b9f100000000081612e3257612e32615530565b60006101556714057b7ef767814f670de0b6b3a7640000612f6b612dca86613e12565b0281612e3257612e32615530565b600081670de0b6b3a7640000811015612fc1576040517f36d32ef000000000000000000000000000000000000000000000000000000000815260048101849052602401611000565b826001811461371257600a811461373a5760648114613762576103e8811461378a5761271081146137b257620186a081146137da57620f424081146138025762989680811461382a576305f5e100811461385257633b9aca00811461387a576402540be40081146138a25764174876e80081146138ca5764e8d4a5100081146138f2576509184e72a000811461391a57655af3107a400081146139425766038d7ea4c68000811461396a57662386f26fc1000081146139925767016345785d8a000081146139ba57670de0b6b3a764000081146139e257678ac7230489e8000081146139eb5768056bc75e2d6310000081146139fb57683635c9adc5dea000008114613a0b5769021e19e0c9bab24000008114613a1b5769152d02c7e14af68000008114613a2b5769d3c21bcecceda10000008114613a3b576a084595161401484a0000008114613a4b576a52b7d2dcc80cd2e40000008114613a5b576b033b2e3c9fd0803ce80000008114613a6b576b204fce5e3e250261100000008114613a7b576c01431e0fae6d7217caa00000008114613a8b576c0c9f2c9cd04674edea400000008114613a9b576c7e37be2022c0914b26800000008114613aab576d04ee2d6d415b85acef81000000008114613abb576d314dc6448d9338c15b0a000000008114613acb576e01ed09bead87c0378d8e64000000008114613adb576e13426172c74d822b878fe8000000008114613aeb576ec097ce7bc90715b34b9f10000000008114613afb576f0785ee10d5da46d900f436a0000000008114613b0b576f4b3b4ca85a86c47a098a2240000000008114613b1c577002f050fe938943acc45f655680000000008114613b2d57701d6329f1c35ca4bfabb9f56100000000008114613b3e57710125dfa371a19e6f7cb54395ca00000000008114613b4f57710b7abc627050305adf14a3d9e400000000008114613b60577172cb5bd86321e38cb6ce6682e800000000008114613b715772047bf19673df52e37f2410011d1000000000008114613b8257722cd76fe086b93ce2f768a00b22a000000000008114613b93577301c06a5ec5433c60ddaa16406f5a4000000000008114613ba45773118427b3b4a05bc8a8a4de8459868000000000008114613bb55773af298d050e4395d69670b12b7f410000000000008114613bc6577406d79f82328ea3da61e066ebb2f88a0000000000008114613bd75774446c3b15f9926687d2c40534fdb5640000000000008114613be8577502ac3a4edbbfb8014e3ba83411e915e80000000000008114613bf957751aba4714957d300d0e549208b31adb100000000000008114613c0a5776010b46c6cdd6e3e0828f4db456ff0c8ea00000000000008114613c1b57760a70c3c40a64e6c51999090b65f67d92400000000000008114613c2c57766867a5a867f103b2fffa5a71fba0e7b6800000000000008114613c3d577704140c78940f6a24fdffc78873d4490d21000000000000008114613c4e577728c87cb5c89a2571ebfdcb54864ada834a000000000000008114613c5f57780197d4df19d605767337e9f14d3eec8920e4000000000000008114613c7057780fee50b7025c36a0802f236d04753d5b48e8000000000000008114613c8157789f4f2726179a224501d762422c946590d910000000000000008114613c925779063917877cec0556b21269d695bdcbf7a87aa0000000000000008114613ca357793e3aeb4ae1383562f4b82261d969f7ac94ca40000000000000008114613cb4577a026e4d30eccc3215dd8f3157d27e23acbdcfe680000000000000008114613cc5577a184f03e93ff9f4daa797ed6e38ed64bf6a1f0100000000000000008114613cd6577af316271c7fc3908a8bef464e3945ef7a25360a00000000000000008114613ce7577b097edd871cfda3a5697758bf0e3cbb5ac5741c6400000000000000008114613cf8577b5ef4a74721e864761ea977768e5f518bb6891be800000000000000008114613d09577c03b58e88c75313ec9d329eaaa18fb92f75215b171000000000000000008114613d1a577c25179157c93ec73e23fa32aa4f9d3bda934d8ee6a000000000000000008114613d2b577d0172ebad6ddc73c86d67c5faa71c245689c10795024000000000000000008114613d3c577d0e7d34c64a9c85d4460dbbca87196b61618a4bd2168000000000000000008114613d4d577d90e40fbeea1d3a4abc8955e946fe31cdcf66f634e10000000000000000008114613d5e577e05a8e89d75252446eb5d5d5b1cc5edf20a1a059e10ca0000000000000000008114613d6f577e3899162693736ac531a5a58f1fbb4b746504382ca7e40000000000000000008114613d80577f0235fadd81c2822bb3f07877973d50f28bf22a31be8ee80000000000000000008114613d91577f161bcca7119915b50764b4abe86529797775a5f17195100000000000000000008114613da2577fdd15fe86affad91249ef0eb713f39ebeaa987b6e6fd2a00000000000000000008114613db3577fffffffffffffffffffffffffffffffffffffffffffffffffffffffffffffffff9250613dc0565b7fffffffffffffffffffffffffffffffffffffffffffffffff0633275e3af800009250613dc0565b7fffffffffffffffffffffffffffffffffffffffffffffffff1413de11e25c00009250613dc0565b7fffffffffffffffffffffffffffffffffffffffffffffffff21f494c589c000009250613dc0565b7fffffffffffffffffffffffffffffffffffffffffffffffff2fd54b79312400009250613dc0565b7fffffffffffffffffffffffffffffffffffffffffffffffff3db6022cd88800009250613dc0565b7fffffffffffffffffffffffffffffffffffffffffffffffff4b96b8e07fec00009250613dc0565b7fffffffffffffffffffffffffffffffffffffffffffffffff59776f94275000009250613dc0565b7fffffffffffffffffffffffffffffffffffffffffffffffff67582647ceb400009250613dc0565b7fffffffffffffffffffffffffffffffffffffffffffffffff7538dcfb761800009250613dc0565b7fffffffffffffffffffffffffffffffffffffffffffffffff831993af1d7c00009250613dc0565b7fffffffffffffffffffffffffffffffffffffffffffffffff90fa4a62c4e000009250613dc0565b7fffffffffffffffffffffffffffffffffffffffffffffffff9edb01166c4400009250613dc0565b7fffffffffffffffffffffffffffffffffffffffffffffffffacbbb7ca13a800009250613dc0565b7fffffffffffffffffffffffffffffffffffffffffffffffffba9c6e7dbb0c00009250613dc0565b7fffffffffffffffffffffffffffffffffffffffffffffffffc87d2531627000009250613dc0565b7fffffffffffffffffffffffffffffffffffffffffffffffffd65ddbe509d400009250613dc0565b7fffffffffffffffffffffffffffffffffffffffffffffffffe43e9298b13800009250613dc0565b7ffffffffffffffffffffffffffffffffffffffffffffffffff21f494c589c00009250613dc0565b60009250613dc0565b670de0b6b3a76400009250613dc0565b671bc16d674ec800009250613dc0565b6729a2241af62c00009250613dc0565b673782dace9d9000009250613dc0565b674563918244f400009250613dc0565b6753444835ec5800009250613dc0565b676124fee993bc00009250613dc0565b676f05b59d3b2000009250613dc0565b677ce66c50e28400009250613dc0565b678ac7230489e800009250613dc0565b6798a7d9b8314c00009250613dc0565b67a688906bd8b000009250613dc0565b67b469471f801400009250613dc0565b67c249fdd3277800009250613dc0565b67d02ab486cedc00009250613dc0565b67de0b6b3a764000009250613dc0565b67ebec21ee1da400009250613dc0565b67f9ccd8a1c50800009250613dc0565b680107ad8f556c6c00009250613dc0565b6801158e460913d000009250613dc0565b6801236efcbcbb3400009250613dc0565b6801314fb370629800009250613dc0565b68013f306a2409fc00009250613dc0565b68014d1120d7b16000009250613dc0565b68015af1d78b58c400009250613dc0565b680168d28e3f002800009250613dc0565b680176b344f2a78c00009250613dc0565b68018493fba64ef000009250613dc0565b68019274b259f65400009250613dc0565b6801a055690d9db800009250613dc0565b6801ae361fc1451c00009250613dc0565b6801bc16d674ec8000009250613dc0565b6801c9f78d2893e400009250613dc0565b6801d7d843dc3b4800009250613dc0565b6801e5b8fa8fe2ac00009250613dc0565b6801f399b1438a1000009250613dc0565b6802017a67f7317400009250613dc0565b68020f5b1eaad8d800009250613dc0565b68021d3bd55e803c00009250613dc0565b68022b1c8c1227a000009250613dc0565b680238fd42c5cf0400009250613dc0565b680246ddf979766800009250613dc0565b680254beb02d1dcc00009250613dc0565b6802629f66e0c53000009250613dc0565b680270801d946c9400009250613dc0565b68027e60d44813f800009250613dc0565b68028c418afbbb5c00009250613dc0565b68029a2241af62c000009250613dc0565b6802a802f8630a2400009250613dc0565b6802b5e3af16b18800009250613dc0565b6802c3c465ca58ec00009250613dc0565b6802d1a51c7e005000009250613dc0565b6802df85d331a7b400009250613dc0565b6802ed6689e54f1800009250613dc0565b6802fb474098f67c00009250613dc0565b68030927f74c9de000009250613dc0565b68031708ae00454400009250613dc0565b680324e964b3eca800009250613dc0565b680332ca1b67940c000092505b507fffffffffffffffffffffffffffffffffffffffffffffffffffffffffffffffff8203613e0c57613e09672e19dc008126bf2b670de0b6b3a7640000612f6b612dca87613e12565b91505b50919050565b600081670de0b6b3a7640000811015613e5a576040517f36d32ef000000000000000000000000000000000000000000000000000000000815260048101849052602401611000565b6000613ee6670de0b6b3a7640000830460016fffffffffffffffffffffffffffffffff821160071b91821c67ffffffffffffffff811160061b90811c63ffffffff811160051b90811c61ffff811160041b90811c60ff8111600390811b91821c600f811160021b90811c918211871b91821c969096119490961792909217171791909117919091171790565b9050670de0b6b3a7640000810282821c7ffffffffffffffffffffffffffffffffffffffffffffffffff21f494c589c00008101613f265750949350505050565b671bc16d674ec800006706f05b59d3b200005b8015613f6957670de0b6b3a7640000838002049250818310613f61579283019260019290921c915b60011c613f39565b50919695505050505050565b6000610730612dca8484614ee3565b60008282818303613faf578015613f9c576000613fa6565b670de0b6b3a76400005b92505050610155565b670de0b6b3a76400008203613fd057670de0b6b3a764000092505050610155565b80600003613fea57670de0b6b3a764000092505050610155565b670de0b6b3a76400008103614003578492505050610155565b670de0b6b3a764000082111561402f57614028612e3661402287613e12565b86613f75565b9250614089565b600061404d612dca846ec097ce7bc90715b34b9f1000000000615747565b90506000614066612e3661406084613e12565b88613f75565b9050614084612dca826ec097ce7bc90715b34b9f1000000000615747565b945050505b505092915050565b60008281600184166140ab57670de0b6b3a76400006140ad565b815b9050600184901c93505b83156140eb576140c78283614ee3565b915060018416156140df576140dc8183614ee3565b90505b600184901c93506140b7565b8061120f565b6000817812725dd1d243aba0e75fe645cc4873f9e65afe688c928e1f2181111561414a576040517fedc236ad00000000000000000000000000000000000000000000000000000000815260048101849052602401611000565b613e09612dca670de0b6b3a76400008302614d5e565b60008160088111156141ce576040517f08c379a000000000000000000000000000000000000000000000000000000000815260206004820152600860248201527f4d41585f544945520000000000000000000000000000000000000000000000006044820152606401611000565b826000036141df5760009150612607565b50507fffffffffffffffffffffffffffffffffffffffffffffffffffffffffffffffff016020021c63ffffffff1690565b600082600881111561427e576040517f08c379a000000000000000000000000000000000000000000000000000000000815260206004820152600860248201527f4d41585f544945520000000000000000000000000000000000000000000000006044820152606401611000565b505060209190910290811b63ffffffff90911b19919091161790565b6000826008811115614308576040517f08c379a000000000000000000000000000000000000000000000000000000000815260206004820152600860248201527f4d41585f544945520000000000000000000000000000000000000000000000006044820152606401611000565b6000855b858110156143345763ffffffff6020820290811b199890981685891b1797915060010161430c565b50959695505050505050565b6000808212156143ac576040517f08c379a000000000000000000000000000000000000000000000000000000000815260206004820181905260248201527f53616665436173743a2076616c7565206d75737420626520706f7369746976656044820152606401611000565b5090565b6000604e82106143f05782156143e6577fffffffffffffffffffffffffffffffffffffffffffffffffffffffffffffffff6143e9565b60005b9050610155565b50600a81900a828102908381838161440a5761440a615530565b0414612607577fffffffffffffffffffffffffffffffffffffffffffffffffffffffffffffffff610ad7565b600a81900a614445818461589b565b9050604e82106101555782156144655761446082600a61587b565b610730565b50600092915050565b6000604e8210614492578215614485576001614488565b60005b60ff169050610155565b600a82900a8084816144a6576144a6615530565b0491508082028414612607575060010192915050565b6000604e8210156144655781600a0a83816144d9576144d9615530565b04610730565b600080807fffffffffffffffffffffffffffffffffffffffffffffffffffffffffffffffff858709858702925082811083820303915050806000036145375783828161452d5761452d615530565b0492505050610730565b838110614581576040517f63a05778000000000000000000000000000000000000000000000000000000008152600481018790526024810186905260448101859052606401611000565b60008486880960026001871981018816978890046003810283188082028403028082028403028082028403028082028403028082028403029081029092039091026000889003889004909101858311909403939093029303949094049190911702949350505050565b7780000000000000000000000000000000000000000000000067ff0000000000000082161561470b576780000000000000008216156146325768016a09e667f3bcc9090260401c5b674000000000000000821615614651576801306fe0a31b7152df0260401c5b672000000000000000821615614670576801172b83c7d517adce0260401c5b67100000000000000082161561468f5768010b5586cf9890f62a0260401c5b6708000000000000008216156146ae576801059b0d31585743ae0260401c5b6704000000000000008216156146cd57680102c9a3e778060ee70260401c5b6702000000000000008216156146ec5768010163da9fb33356d80260401c5b67010000000000000082161561470b57680100b1afa5abcbed610260401c5b66ff00000000000082161561480a5766800000000000008216156147385768010058c86da1c09ea20260401c5b6640000000000000821615614756576801002c605e2e8cec500260401c5b662000000000000082161561477457680100162f3904051fa10260401c5b6610000000000000821615614792576801000b175effdc76ba0260401c5b66080000000000008216156147b057680100058ba01fb9f96d0260401c5b66040000000000008216156147ce5768010002c5cc37da94920260401c5b66020000000000008216156147ec576801000162e525ee05470260401c5b660100000000000082161561480a5768010000b17255775c040260401c5b65ff00000000008216156149005765800000000000821615614835576801000058b91b5bc9ae0260401c5b6540000000000082161561485257680100002c5c89d5ec6d0260401c5b6520000000000082161561486f5768010000162e43f4f8310260401c5b6510000000000082161561488c57680100000b1721bcfc9a0260401c5b650800000000008216156148a95768010000058b90cf1e6e0260401c5b650400000000008216156148c6576801000002c5c863b73f0260401c5b650200000000008216156148e357680100000162e430e5a20260401c5b65010000000000821615614900576801000000b1721835510260401c5b64ff000000008216156149ed5764800000000082161561492957680100000058b90c0b490260401c5b6440000000008216156149455768010000002c5c8601cc0260401c5b642000000000821615614961576801000000162e42fff00260401c5b64100000000082161561497d5768010000000b17217fbb0260401c5b640800000000821615614999576801000000058b90bfce0260401c5b6404000000008216156149b557680100000002c5c85fe30260401c5b6402000000008216156149d15768010000000162e42ff10260401c5b6401000000008216156149ed57680100000000b17217f80260401c5b63ff000000821615614ad1576380000000821615614a145768010000000058b90bfc0260401c5b6340000000821615614a2f576801000000002c5c85fe0260401c5b6320000000821615614a4a57680100000000162e42ff0260401c5b6310000000821615614a65576801000000000b17217f0260401c5b6308000000821615614a8057680100000000058b90c00260401c5b6304000000821615614a9b5768010000000002c5c8600260401c5b6302000000821615614ab6576801000000000162e4300260401c5b6301000000821615614ad15768010000000000b172180260401c5b62ff0000821615614bac5762800000821615614af6576801000000000058b90c0260401c5b62400000821615614b1057680100000000002c5c860260401c5b62200000821615614b2a5768010000000000162e430260401c5b62100000821615614b4457680100000000000b17210260401c5b62080000821615614b5e5768010000000000058b910260401c5b62040000821615614b78576801000000000002c5c80260401c5b62020000821615614b9257680100000000000162e40260401c5b62010000821615614bac576801000000000000b1720260401c5b61ff00821615614c7e57618000821615614bcf57680100000000000058b90260401c5b614000821615614be85768010000000000002c5d0260401c5b612000821615614c01576801000000000000162e0260401c5b611000821615614c1a5768010000000000000b170260401c5b610800821615614c33576801000000000000058c0260401c5b610400821615614c4c57680100000000000002c60260401c5b610200821615614c6557680100000000000001630260401c5b610100821615614c7e57680100000000000000b10260401c5b60ff821615614d47576080821615614c9f57680100000000000000590260401c5b6040821615614cb7576801000000000000002c0260401c5b6020821615614ccf57680100000000000000160260401c5b6010821615614ce7576801000000000000000b0260401c5b6008821615614cff57680100000000000000060260401c5b6004821615614d1757680100000000000000030260401c5b6002821615614d2f57680100000000000000010260401c5b6001821615614d4757680100000000000000010260401c5b670de0b6b3a76400000260409190911c60bf031c90565b600081600003614d7057506000919050565b506001817001000000000000000000000000000000008110614d975760409190911b9060801c5b680100000000000000008110614db25760209190911b9060401c5b6401000000008110614dc95760109190911b9060201c5b620100008110614dde5760089190911b9060101c5b6101008110614df25760049190911b9060081c5b60108110614e055760029190911b9060041c5b60048110614e1557600182901b91505b6001828481614e2657614e26615530565b048301901c91506001828481614e3e57614e3e615530565b048301901c91506001828481614e5657614e56615530565b048301901c91506001828481614e6e57614e6e615530565b048301901c91506001828481614e8657614e86615530565b048301901c91506001828481614e9e57614e9e615530565b048301901c91506001828481614eb657614eb6615530565b048301901c91506000828481614ece57614ece615530565b049050808310614edc578092505b5050919050565b600080807fffffffffffffffffffffffffffffffffffffffffffffffffffffffffffffffff84860984860292508281108382030391505080600003614f355750670de0b6b3a764000090049050610155565b670de0b6b3a76400008110614f80576040517f5173648d0000000000000000000000000000000000000000000000000000000081526004810186905260248101859052604401611000565b6000670de0b6b3a7640000858709620400008185030493109091037d40000000000000000000000000000000000000000000000000000000000002919091177faccb18165bd6fe31ae1cf318dc5b51eee0e1ba569b88cd74c1773b91fac106690291505092915050565b600060208284031215614ffc57600080fd5b81357fffffffff000000000000000000000000000000000000000000000000000000008116811461073057600080fd5b73ffffffffffffffffffffffffffffffffffffffff81168114611fcf57600080fd5b80356116b08161502c565b7f4e487b7100000000000000000000000000000000000000000000000000000000600052604160045260246000fd5b604051601f82017fffffffffffffffffffffffffffffffffffffffffffffffffffffffffffffffe016810167ffffffffffffffff811182821017156150cf576150cf615059565b604052919050565b600067ffffffffffffffff8211156150f1576150f1615059565b5060051b60200190565b600082601f83011261510c57600080fd5b8135602061512161511c836150d7565b615088565b82815260059290921b8401810191818101908684111561514057600080fd5b8286015b8481101561515b5780358352918301918301615144565b509695505050505050565b600082601f83011261517757600080fd5b8135602061518761511c836150d7565b82815260059290921b840181019181810190868411156151a657600080fd5b8286015b8481101561515b57803567ffffffffffffffff8111156151ca5760008081fd5b6151d88986838b01016150fb565b8452509183019183016151aa565b600080600080608085870312156151fc57600080fd5b84356152078161502c565b93506020850135925060408501359150606085013567ffffffffffffffff81111561523157600080fd5b61523d87828801615166565b91505092959194509250565b600081518084526020808501945080840160005b838110156152795781518752958201959082019060010161525d565b509495945050505050565b6040815260006152976040830185615249565b828103602084015261120f8185615249565b6000601f83818401126152bb57600080fd5b823560206152cb61511c836150d7565b82815260059290921b850181019181810190878411156152ea57600080fd5b8287015b8481101561539f57803567ffffffffffffffff8082111561530f5760008081fd5b818a0191508a603f8301126153245760008081fd5b8582013560408282111561533a5761533a615059565b615369887fffffffffffffffffffffffffffffffffffffffffffffffffffffffffffffffe08c85011601615088565b92508183528c818386010111156153805760008081fd5b81818501898501375060009082018701528452509183019183016152ee565b50979650505050505050565b803561ffff811681146116b057600080fd5b600080600080600080600060e0888a0312156153d857600080fd5b6153e18861504e565b965060208801359550604088013567ffffffffffffffff8082111561540557600080fd5b6154118b838c016152a9565b965060608a013591508082111561542757600080fd5b6154338b838c016150fb565b955060808a013591508082111561544957600080fd5b6154558b838c01615166565b945060a08a013591508082111561546b57600080fd5b506154788a828b016150fb565b92505061548760c089016153ab565b905092959891949750929550565b600060208083528351808285015260005b818110156154c2578581018301518582016040015282016154a6565b5060006040828601015260407fffffffffffffffffffffffffffffffffffffffffffffffffffffffffffffffe0601f8301168501019250505092915050565b7f4e487b7100000000000000000000000000000000000000000000000000000000600052603260045260246000fd5b7f4e487b7100000000000000000000000000000000000000000000000000000000600052601260045260246000fd5b815160009082906020808601845b838110156155895781518552938201939082019060010161556d565b50929695505050505050565b828152604060208201526000610ad76040830184615249565b600060208083850312156155c157600080fd5b825167ffffffffffffffff8111156155d857600080fd5b8301601f810185136155e957600080fd5b80516155f761511c826150d7565b81815260059190911b8201830190838101908783111561561657600080fd5b928401925b82841015610b665783518252928401929084019061561b565b7f4e487b7100000000000000000000000000000000000000000000000000000000600052601160045260246000fd5b60007fffffffffffffffffffffffffffffffffffffffffffffffffffffffffffffffff820361569457615694615634565b5060010190565b6000602082840312156156ad57600080fd5b5051919050565b604080825283519082018190526000906020906060840190828701845b8281101561570357815173ffffffffffffffffffffffffffffffffffffffff16845292840192908401906001016156d1565b505050838103828501526120018186615249565b60006020828403121561572957600080fd5b81516107308161502c565b8082018082111561015557610155615634565b60008261575657615756615530565b500490565b600181815b808511156157b457817fffffffffffffffffffffffffffffffffffffffffffffffffffffffffffffffff0482111561579a5761579a615634565b808516156157a757918102915b93841c9390800290615760565b509250929050565b6000826157cb57506001610155565b816157d857506000610155565b81600181146157ee57600281146157f857615814565b6001915050610155565b60ff84111561580957615809615634565b50506001821b610155565b5060208310610133831016604e8410600b8410161715615837575081810a610155565b615841838361575b565b807fffffffffffffffffffffffffffffffffffffffffffffffffffffffffffffffff0482111561587357615873615634565b029392505050565b600061073083836157bc565b60008261589657615896615530565b500690565b808202811582820484141761015557610155615634565b8181038181111561015557610155615634565b6000602082840312156158d757600080fd5b81516004811061073057600080fd5b7f4e487b7100000000000000000000000000000000000000000000000000000000600052602160045260246000fd5b73ffffffffffffffffffffffffffffffffffffffff83168152604060208201526000610ad76040830184615249565b73ffffffffffffffffffffffffffffffffffffffff8416815282602082015260606040820152600061120f6060830184615249565b805169ffffffffffffffffffff811681146116b057600080fd5b600080600080600060a086880312156159ab57600080fd5b6159b486615979565b94506020860151935060408601519250606086015191506159d760808701615979565b90509295509295909350565b6000602082840312156159f557600080fd5b815160ff8116811461073057600080fdfea26469706673582212206eb39293707a63df98dd3a14b75c2dd85b8b31646aa7b315b3f06f5445b3eee164736f6c63430008130033",
  "linkReferences": {},
  "deployedLinkReferences": {}
}