{
  "abi": [
    {
      "inputs": [
        {
          "components": [
            {
              "internalType": "address",
              "name": "deployer",
              "type": "address"
            },
            {
              "internalType": "bytes",
              "name": "meta",
              "type": "bytes"
            }
          ],
          "internalType": "struct DeployerDiscoverableMetaV2ConstructionConfig",
          "name": "config",
          "type": "tuple"
        }
      ],
      "stateMutability": "nonpayable",
      "type": "constructor"
    },
    {
      "inputs": [
        {
          "internalType": "address",
          "name": "badLender",
          "type": "address"
        }
      ],
      "name": "BadLender",
      "type": "error"
    },
    {
      "inputs": [],
      "name": "InitializeSignatureFn",
      "type": "error"
    },
    {
      "inputs": [],
      "name": "Initializing",
      "type": "error"
    },
    {
      "inputs": [
        {
          "internalType": "uint256",
          "name": "i",
          "type": "uint256"
        }
      ],
      "name": "InvalidSignature",
      "type": "error"
    },
    {
      "inputs": [
        {
          "internalType": "uint256",
          "name": "minimum",
          "type": "uint256"
        },
        {
          "internalType": "uint256",
          "name": "actual",
          "type": "uint256"
        }
      ],
      "name": "MinimumOutput",
      "type": "error"
    },
    {
      "inputs": [],
      "name": "NoOrders",
      "type": "error"
    },
    {
      "inputs": [],
      "name": "NonZeroBeforeArbStack",
      "type": "error"
    },
    {
      "inputs": [
        {
          "internalType": "bytes",
          "name": "unmeta",
          "type": "bytes"
        }
      ],
      "name": "NotRainMetaV1",
      "type": "error"
    },
    {
      "inputs": [
        {
          "internalType": "bytes32",
          "name": "expectedHash",
          "type": "bytes32"
        },
        {
          "internalType": "bytes32",
          "name": "actualHash",
          "type": "bytes32"
        }
      ],
      "name": "UnexpectedMetaHash",
      "type": "error"
    },
    {
      "anonymous": false,
      "inputs": [
        {
          "indexed": false,
          "internalType": "address",
          "name": "sender",
          "type": "address"
        },
        {
          "components": [
            {
              "internalType": "address",
              "name": "orderBook",
              "type": "address"
            },
            {
              "components": [
                {
                  "internalType": "contract IExpressionDeployerV2",
                  "name": "deployer",
                  "type": "address"
                },
                {
                  "internalType": "bytes",
                  "name": "bytecode",
                  "type": "bytes"
                },
                {
                  "internalType": "uint256[]",
                  "name": "constants",
                  "type": "uint256[]"
                }
              ],
              "internalType": "struct EvaluableConfigV2",
              "name": "evaluableConfig",
              "type": "tuple"
            },
            {
              "internalType": "bytes",
              "name": "implementationData",
              "type": "bytes"
            }
          ],
          "indexed": false,
          "internalType": "struct OrderBookV3ArbOrderTakerConfigV1",
          "name": "config",
          "type": "tuple"
        }
      ],
      "name": "Initialize",
      "type": "event"
    },
    {
      "anonymous": false,
      "inputs": [
        {
          "indexed": false,
          "internalType": "uint8",
          "name": "version",
          "type": "uint8"
        }
      ],
      "name": "Initialized",
      "type": "event"
    },
    {
      "anonymous": false,
      "inputs": [
        {
          "indexed": false,
          "internalType": "address",
          "name": "sender",
          "type": "address"
        },
        {
          "indexed": false,
          "internalType": "uint256",
          "name": "subject",
          "type": "uint256"
        },
        {
          "indexed": false,
          "internalType": "bytes",
          "name": "meta",
          "type": "bytes"
        }
      ],
      "name": "MetaV1",
      "type": "event"
    },
    {
      "stateMutability": "nonpayable",
      "type": "fallback"
    },
    {
      "inputs": [
        {
          "components": [
            {
              "internalType": "uint256",
              "name": "minimumInput",
              "type": "uint256"
            },
            {
              "internalType": "uint256",
              "name": "maximumInput",
              "type": "uint256"
            },
            {
              "internalType": "uint256",
              "name": "maximumIORatio",
              "type": "uint256"
            },
            {
              "components": [
                {
                  "components": [
                    {
                      "internalType": "address",
                      "name": "owner",
                      "type": "address"
                    },
                    {
                      "internalType": "bool",
                      "name": "handleIO",
                      "type": "bool"
                    },
                    {
                      "components": [
                        {
                          "internalType": "contract IInterpreterV1",
                          "name": "interpreter",
                          "type": "address"
                        },
                        {
                          "internalType": "contract IInterpreterStoreV1",
                          "name": "store",
                          "type": "address"
                        },
                        {
                          "internalType": "address",
                          "name": "expression",
                          "type": "address"
                        }
                      ],
                      "internalType": "struct Evaluable",
                      "name": "evaluable",
                      "type": "tuple"
                    },
                    {
                      "components": [
                        {
                          "internalType": "address",
                          "name": "token",
                          "type": "address"
                        },
                        {
                          "internalType": "uint8",
                          "name": "decimals",
                          "type": "uint8"
                        },
                        {
                          "internalType": "uint256",
                          "name": "vaultId",
                          "type": "uint256"
                        }
                      ],
                      "internalType": "struct IO[]",
                      "name": "validInputs",
                      "type": "tuple[]"
                    },
                    {
                      "components": [
                        {
                          "internalType": "address",
                          "name": "token",
                          "type": "address"
                        },
                        {
                          "internalType": "uint8",
                          "name": "decimals",
                          "type": "uint8"
                        },
                        {
                          "internalType": "uint256",
                          "name": "vaultId",
                          "type": "uint256"
                        }
                      ],
                      "internalType": "struct IO[]",
                      "name": "validOutputs",
                      "type": "tuple[]"
                    }
                  ],
                  "internalType": "struct Order",
                  "name": "order",
                  "type": "tuple"
                },
                {
                  "internalType": "uint256",
                  "name": "inputIOIndex",
                  "type": "uint256"
                },
                {
                  "internalType": "uint256",
                  "name": "outputIOIndex",
                  "type": "uint256"
                },
                {
                  "components": [
                    {
                      "internalType": "address",
                      "name": "signer",
                      "type": "address"
                    },
                    {
                      "internalType": "uint256[]",
                      "name": "context",
                      "type": "uint256[]"
                    },
                    {
                      "internalType": "bytes",
                      "name": "signature",
                      "type": "bytes"
                    }
                  ],
                  "internalType": "struct SignedContextV1[]",
                  "name": "signedContext",
                  "type": "tuple[]"
                }
              ],
              "internalType": "struct TakeOrderConfig[]",
              "name": "orders",
              "type": "tuple[]"
            },
            {
              "internalType": "bytes",
              "name": "data",
              "type": "bytes"
            }
          ],
          "internalType": "struct TakeOrdersConfigV2",
          "name": "takeOrders",
          "type": "tuple"
        },
        {
          "internalType": "uint256",
          "name": "minimumSenderOutput",
          "type": "uint256"
        }
      ],
      "name": "arb",
      "outputs": [],
      "stateMutability": "payable",
      "type": "function"
    },
    {
      "inputs": [
        {
          "internalType": "bytes",
          "name": "data",
          "type": "bytes"
        }
      ],
      "name": "initialize",
      "outputs": [
        {
          "internalType": "bytes32",
          "name": "",
          "type": "bytes32"
        }
      ],
      "stateMutability": "nonpayable",
      "type": "function"
    },
    {
      "inputs": [
        {
          "components": [
            {
              "internalType": "address",
              "name": "orderBook",
              "type": "address"
            },
            {
              "components": [
                {
                  "internalType": "contract IExpressionDeployerV2",
                  "name": "deployer",
                  "type": "address"
                },
                {
                  "internalType": "bytes",
                  "name": "bytecode",
                  "type": "bytes"
                },
                {
                  "internalType": "uint256[]",
                  "name": "constants",
                  "type": "uint256[]"
                }
              ],
              "internalType": "struct EvaluableConfigV2",
              "name": "evaluableConfig",
              "type": "tuple"
            },
            {
              "internalType": "bytes",
              "name": "implementationData",
              "type": "bytes"
            }
          ],
          "internalType": "struct OrderBookV3ArbOrderTakerConfigV1",
          "name": "",
          "type": "tuple"
        }
      ],
      "name": "initialize",
      "outputs": [
        {
          "internalType": "bytes32",
          "name": "",
          "type": "bytes32"
        }
      ],
      "stateMutability": "pure",
      "type": "function"
    },
    {
      "inputs": [
        {
          "internalType": "address",
          "name": "inputToken",
          "type": "address"
        },
        {
          "internalType": "address",
          "name": "outputToken",
          "type": "address"
        },
        {
          "internalType": "uint256",
          "name": "inputAmountSent",
          "type": "uint256"
        },
        {
          "internalType": "uint256",
          "name": "totalOutputAmount",
          "type": "uint256"
        },
        {
          "internalType": "bytes",
          "name": "takeOrdersData",
          "type": "bytes"
        }
      ],
      "name": "onTakeOrders",
      "outputs": [],
      "stateMutability": "nonpayable",
      "type": "function"
    },
    {
      "inputs": [],
      "name": "sI9r",
      "outputs": [
        {
          "internalType": "contract IInterpreterV1",
          "name": "",
          "type": "address"
        }
      ],
      "stateMutability": "view",
      "type": "function"
    },
    {
      "inputs": [],
      "name": "sI9rDispatch",
      "outputs": [
        {
          "internalType": "EncodedDispatch",
          "name": "",
          "type": "uint256"
        }
      ],
      "stateMutability": "view",
      "type": "function"
    },
    {
      "inputs": [],
      "name": "sI9rStore",
      "outputs": [
        {
          "internalType": "contract IInterpreterStoreV1",
          "name": "",
          "type": "address"
        }
      ],
      "stateMutability": "view",
      "type": "function"
    },
    {
      "inputs": [],
      "name": "sOrderBook",
      "outputs": [
        {
          "internalType": "contract IOrderBookV3",
          "name": "",
          "type": "address"
        }
      ],
      "stateMutability": "view",
      "type": "function"
    },
    {
      "inputs": [],
      "name": "sRouteProcessor3",
      "outputs": [
        {
          "internalType": "contract IRouteProcessor",
          "name": "",
          "type": "address"
        }
      ],
      "stateMutability": "view",
      "type": "function"
    },
    {
      "inputs": [
        {
          "internalType": "bytes4",
          "name": "interfaceId",
          "type": "bytes4"
        }
      ],
      "name": "supportsInterface",
      "outputs": [
        {
          "internalType": "bool",
          "name": "",
          "type": "bool"
        }
      ],
      "stateMutability": "view",
      "type": "function"
    }
  ],
  "bytecode": {
    "object": "0x60806040523480156200001157600080fd5b50604051620034e8380380620034e8833981016040819052620000349162000383565b600160005560208101517f3d6909481820fc692906b0477e8f98248e84973bc8b8d5ac935132857d4f41259082908290829062000073908390620000d7565b60208101516040517fbea766d03fa1efd3f81cc8634d08320bc62bb0ed9234ac59bbaafa5893fb6b1391620000ac913391309162000491565b60405180910390a18051620000c1906200011e565b50620000ce9050620001b5565b505050620005a7565b805160208201208281146200010e5760405163074fe10f60e41b815260048101849052602481018290526044015b60405180910390fd5b620001198262000273565b505050565b60408051600080825260208201818152828401938490526331a66b6560e01b90935291829182916001600160a01b038616916331a66b65916200016691906044820162000500565b6060604051808303816000875af115801562000186573d6000803e3d6000fd5b505050506040513d601f19601f82011682018060405250810190620001ac919062000537565b50505050505050565b600154610100900460ff16156200021f5760405162461bcd60e51b815260206004820152602760248201527f496e697469616c697a61626c653a20636f6e747261637420697320696e697469604482015266616c697a696e6760c81b606482015260840162000105565b60015460ff9081161462000271576001805460ff191660ff9081179091556040519081527f7f26b83ff96e1f2b6a682f133852f6798a09c465da95921460cefb38474024989060200160405180910390a15b565b6200027e81620002a3565b620002a05780604051630c89984b60e31b81526004016200010591906200058b565b50565b6000600882511015620002b857506000919050565b50600801516001600160401b031667ff0a89c674ee78741490565b634e487b7160e01b600052604160045260246000fd5b604080519081016001600160401b03811182821017156200030e576200030e620002d3565b60405290565b604051601f8201601f191681016001600160401b03811182821017156200033f576200033f620002d3565b604052919050565b6001600160a01b0381168114620002a057600080fd5b60005b838110156200037a57818101518382015260200162000360565b50506000910152565b600060208083850312156200039757600080fd5b82516001600160401b0380821115620003af57600080fd5b9084019060408287031215620003c457600080fd5b620003ce620002e9565b8251620003db8162000347565b81528284015182811115620003ef57600080fd5b80840193505086601f8401126200040557600080fd5b8251828111156200041a576200041a620002d3565b6200042e601f8201601f1916860162000314565b925080835287858286010111156200044557600080fd5b62000456818685018787016200035d565b5092830152509392505050565b600081518084526200047d8160208601602086016200035d565b601f01601f19169290920160200192915050565b60018060a01b0384168152826020820152606060408201526000620004ba606083018462000463565b95945050505050565b600081518084526020808501945080840160005b83811015620004f557815187529582019590820190600101620004d7565b509495945050505050565b6060815260006060820152608060208201526000620005236080830185620004c3565b8281036040840152620004ba8185620004c3565b6000806000606084860312156200054d57600080fd5b83516200055a8162000347565b60208501519093506200056d8162000347565b6040850151909250620005808162000347565b809150509250925092565b602081526000620005a0602083018462000463565b9392505050565b612f3180620005b76000396000f3fe6080604052600436106100b15760003560e01c8063886d16501161006957806398da8d6a1161004e57806398da8d6a1461024d578063c3b7c7c31461026d578063d423a05214610280576100b1565b8063886d16501461020457806389448c3a14610237576100b1565b8063439fab911161009a578063439fab911461015757806361bb39e41461018557806371c1dea7146101d7576100b1565b806301ffc9a714610102578063059bebe614610137575b3480156100bd57600080fd5b50600154610100900460ff1615610100576040517f4e8f6c4400000000000000000000000000000000000000000000000000000000815260040160405180910390fd5b005b34801561010e57600080fd5b5061012261011d366004611ed6565b6102ad565b60405190151581526020015b60405180910390f35b34801561014357600080fd5b50610100610152366004611f44565b610392565b34801561016357600080fd5b506101776101723660046120db565b6104fb565b60405190815260200161012e565b34801561019157600080fd5b506004546101b29073ffffffffffffffffffffffffffffffffffffffff1681565b60405173ffffffffffffffffffffffffffffffffffffffff909116815260200161012e565b3480156101e357600080fd5b506003546101b29073ffffffffffffffffffffffffffffffffffffffff1681565b34801561021057600080fd5b506001546101b29062010000900473ffffffffffffffffffffffffffffffffffffffff1681565b34801561024357600080fd5b5061017760025481565b34801561025957600080fd5b5061017761026836600461215b565b6108f0565b61010061027b366004612196565b610924565b34801561028c57600080fd5b506005546101b29073ffffffffffffffffffffffffffffffffffffffff1681565b60007fffffffff0000000000000000000000000000000000000000000000000000000082167f059bebe600000000000000000000000000000000000000000000000000000000148061034057507fffffffff0000000000000000000000000000000000000000000000000000000082167f439fab9100000000000000000000000000000000000000000000000000000000145b8061038c57507f01ffc9a7000000000000000000000000000000000000000000000000000000007fffffffff000000000000000000000000000000000000000000000000000000008316145b92915050565b6103a0868686868686611054565b6005546103c89073ffffffffffffffffffffffffffffffffffffffff888116911660006110f7565b60055461040f9073ffffffffffffffffffffffffffffffffffffffff88811691167fffffffffffffffffffffffffffffffffffffffffffffffffffffffffffffffff6110f7565b600061041d828401846120db565b6005546040517f2646478b00000000000000000000000000000000000000000000000000000000815291925060009173ffffffffffffffffffffffffffffffffffffffff90911690632646478b90610483908b908a908c908b9030908a9060040161224e565b6020604051808303816000875af11580156104a2573d6000803e3d6000fd5b505050506040513d601f19601f820116820180604052508101906104c691906122a7565b6005549091506104f19073ffffffffffffffffffffffffffffffffffffffff8a8116911660006110f7565b5050505050505050565b600154600090610100900460ff161580801561051b57506001805460ff16105b806105345750303b15801561053457506001805460ff16145b6105c5576040517f08c379a000000000000000000000000000000000000000000000000000000000815260206004820152602e60248201527f496e697469616c697a61626c653a20636f6e747261637420697320616c72656160448201527f647920696e697469616c697a656400000000000000000000000000000000000060648201526084015b60405180910390fd5b600180547fffffffffffffffffffffffffffffffffffffffffffffffffffffffffffffff001681179055801561062257600180547fffffffffffffffffffffffffffffffffffffffffffffffffffffffffffff00ff166101001790555b61062a6112fc565b600083806020019051810190610640919061237a565b905061064f816040015161136f565b80516001805473ffffffffffffffffffffffffffffffffffffffff90921662010000027fffffffffffffffffffff0000000000000000000000000000000000000000ffff9092169190911790556040517f61f559321bdc3ad3a0e3b8692a91eaffa9773753bfec4e5f4c344cfed245cab7906106ce90339084906124be565b60405180910390a160006106e98260200151602001516113ce565b111561085a5760408051600180825281830190925260009182919060208083019080368337019050509050600081600061ffff168151811061072d5761072d612593565b6020908102919091018101919091528381015180519181015160409182015191517f31a66b6500000000000000000000000000000000000000000000000000000000815273ffffffffffffffffffffffffffffffffffffffff909316926331a66b659261079f929186906004016125c2565b6060604051808303816000875af11580156107be573d6000803e3d6000fd5b505050506040513d601f19601f820116820180604052508101906107e291906125fb565b600480547fffffffffffffffffffffffff000000000000000000000000000000000000000090811673ffffffffffffffffffffffffffffffffffffffff94851617909155600380549091169390921692909217905560201b77ffffffffffffffffffffffffffffffffffffffff000000001660025550505b7fe0e57eda3f08f2a93bbe980d3df7f9c315eac41181f58b865a13d917fe769fc39250506108886001600055565b80156108ea57600180547fffffffffffffffffffffffffffffffffffffffffffffffffffffffffffff00ff1681556040519081527f7f26b83ff96e1f2b6a682f133852f6798a09c465da95921460cefb38474024989060200160405180910390a15b50919050565b60006040517faf1fbb2100000000000000000000000000000000000000000000000000000000815260040160405180910390fd5b61092c6112fc565b600154610100900460ff161561096e576040517f4e8f6c4400000000000000000000000000000000000000000000000000000000815260040160405180910390fd5b61097b6060830183612648565b90506000036109b6576040517f9c95219f00000000000000000000000000000000000000000000000000000000815260040160405180910390fd5b60006109c56060840184612648565b60008181106109d6576109d6612593565b90506020028101906109e891906126b0565b6109f290806126ee565b610a009060a0810190612722565b610a0d6060860186612648565b6000818110610a1e57610a1e612593565b9050602002810190610a3091906126b0565b60200135818110610a4357610a43612593565b610a599260206060909202019081019150612789565b90506000610a6a6060850185612648565b6000818110610a7b57610a7b612593565b9050602002810190610a8d91906126b0565b610a9790806126ee565b610aa59060c0810190612722565b610ab26060870187612648565b6000818110610ac357610ac3612593565b9050602002810190610ad591906126b0565b60400135818110610ae857610ae8612593565b610afe9260206060909202019081019150612789565b6002549091508015610d2d57600354600454600091829173ffffffffffffffffffffffffffffffffffffffff91821691636715f82591168386610bd882604051908082528060200260200182016040528015610b6e57816020015b6060815260200190600190039081610b595790505b506040805160008082526020820190925290610bd2565b610bbf6040518060600160405280600073ffffffffffffffffffffffffffffffffffffffff16815260200160608152602001606081525090565b815260200190600190039081610b855790505b506113ec565b6040518563ffffffff1660e01b8152600401610bf794939291906127a6565b600060405180830381865afa158015610c14573d6000803e3d6000fd5b505050506040513d6000823e601f3d9081017fffffffffffffffffffffffffffffffffffffffffffffffffffffffffffffffe0168201604052610c5a9190810190612852565b8151919350915015610c98576040517f379fa94000000000000000000000000000000000000000000000000000000000815260040160405180910390fd5b805115610d2a57600480546040517f946aadc600000000000000000000000000000000000000000000000000000000815273ffffffffffffffffffffffffffffffffffffffff9091169163946aadc691610cf7916000918691016128b6565b600060405180830381600087803b158015610d1157600080fd5b505af1158015610d25573d6000803e3d6000fd5b505050505b50505b600154610d5b9073ffffffffffffffffffffffffffffffffffffffff858116916201000090041660006110f7565b600154610da89073ffffffffffffffffffffffffffffffffffffffff85811691620100009004167fffffffffffffffffffffffffffffffffffffffffffffffffffffffffffffffff6110f7565b6001546040517f8a44689c00000000000000000000000000000000000000000000000000000000815260009182916201000090910473ffffffffffffffffffffffffffffffffffffffff1690638a44689c90610e08908a90600401612bf3565b60408051808303816000875af1158015610e26573d6000803e3d6000fd5b505050506040513d601f19601f82011682018060405250810190610e4a9190612e66565b6001549193509150610e7d9073ffffffffffffffffffffffffffffffffffffffff878116916201000090041660006110f7565b6040517f70a0823100000000000000000000000000000000000000000000000000000000815230600482015260009073ffffffffffffffffffffffffffffffffffffffff8716906370a0823190602401602060405180830381865afa158015610eea573d6000803e3d6000fd5b505050506040513d601f19601f82011682018060405250810190610f0e91906122a7565b905086811015610f54576040517f0c08b5bc00000000000000000000000000000000000000000000000000000000815260048101889052602481018290526044016105bc565b8015610f7b57610f7b73ffffffffffffffffffffffffffffffffffffffff871633836116fc565b6040517f70a0823100000000000000000000000000000000000000000000000000000000815230600482015260009073ffffffffffffffffffffffffffffffffffffffff8716906370a0823190602401602060405180830381865afa158015610fe8573d6000803e3d6000fd5b505050506040513d601f19601f8201168201806040525081019061100c91906122a7565b905080156110355761103573ffffffffffffffffffffffffffffffffffffffff871633836116fc565b61103f3347611752565b505050505050506110506001600055565b5050565b600154610100900460ff1615611096576040517f4e8f6c4400000000000000000000000000000000000000000000000000000000815260040160405180910390fd5b60015462010000900473ffffffffffffffffffffffffffffffffffffffff1633146110ef576040517f0bc3cde00000000000000000000000000000000000000000000000000000000081523360048201526024016105bc565b505050505050565b80158061119757506040517fdd62ed3e00000000000000000000000000000000000000000000000000000000815230600482015273ffffffffffffffffffffffffffffffffffffffff838116602483015284169063dd62ed3e90604401602060405180830381865afa158015611171573d6000803e3d6000fd5b505050506040513d601f19601f8201168201806040525081019061119591906122a7565b155b611223576040517f08c379a000000000000000000000000000000000000000000000000000000000815260206004820152603660248201527f5361666545524332303a20617070726f76652066726f6d206e6f6e2d7a65726f60448201527f20746f206e6f6e2d7a65726f20616c6c6f77616e63650000000000000000000060648201526084016105bc565b60405173ffffffffffffffffffffffffffffffffffffffff83166024820152604481018290526112f79084907f095ea7b300000000000000000000000000000000000000000000000000000000906064015b604080517fffffffffffffffffffffffffffffffffffffffffffffffffffffffffffffffe08184030181529190526020810180517bffffffffffffffffffffffffffffffffffffffffffffffffffffffff167fffffffff00000000000000000000000000000000000000000000000000000000909316929092179091526118ac565b505050565b600260005403611368576040517f08c379a000000000000000000000000000000000000000000000000000000000815260206004820152601f60248201527f5265656e7472616e637947756172643a207265656e7472616e742063616c6c0060448201526064016105bc565b6002600055565b6000818060200190518101906113859190612e8a565b600580547fffffffffffffffffffffffff00000000000000000000000000000000000000001673ffffffffffffffffffffffffffffffffffffffff929092169190911790555050565b600081516000036113e157506000919050565b506020015160001a90565b60606000825167ffffffffffffffff81111561140a5761140a611fee565b604051908082528060200260200182016040528015611433578160200160208202803683370190505b50905060008084511161144757600061144d565b83516001015b855160010101905060008167ffffffffffffffff81111561147057611470611fee565b6040519080825280602002602001820160405280156114a357816020015b606081526020019060019003908161148e5790505b50905060006114c8604080516002815233602082015230818301526060810190915290565b8282815181106114da576114da612593565b602002602001018190525060005b875181101561153857818060010192505087818151811061150b5761150b612593565b602002602001015183838151811061152557611525612593565b60209081029190910101526001016114e8565b508551156116f25780806001019150508382828151811061155b5761155b612593565b602002602001018190525060005b86518110156116f05761161a87828151811061158757611587612593565b6020026020010151600001516115f76115c48a85815181106115ab576115ab612593565b6020026020010151602001518051602090810291012090565b7f19457468657265756d205369676e6564204d6573736167653a0a3332000000006000908152601c91909152603c902090565b89848151811061160957611609612593565b6020026020010151604001516119bb565b611653576040517f52bf9848000000000000000000000000000000000000000000000000000000008152600481018290526024016105bc565b86818151811061166557611665612593565b60200260200101516000015173ffffffffffffffffffffffffffffffffffffffff1685828151811061169957611699612593565b60200260200101818152505081806001019250508681815181106116bf576116bf612593565b6020026020010151602001518383815181106116dd576116dd612593565b6020908102919091010152600101611569565b505b5095945050505050565b60405173ffffffffffffffffffffffffffffffffffffffff83166024820152604481018290526112f79084907fa9059cbb0000000000000000000000000000000000000000000000000000000090606401611275565b804710156117bc576040517f08c379a000000000000000000000000000000000000000000000000000000000815260206004820152601d60248201527f416464726573733a20696e73756666696369656e742062616c616e636500000060448201526064016105bc565b60008273ffffffffffffffffffffffffffffffffffffffff168260405160006040518083038185875af1925050503d8060008114611816576040519150601f19603f3d011682016040523d82523d6000602084013e61181b565b606091505b50509050806112f7576040517f08c379a000000000000000000000000000000000000000000000000000000000815260206004820152603a60248201527f416464726573733a20756e61626c6520746f2073656e642076616c75652c207260448201527f6563697069656e74206d6179206861766520726576657274656400000000000060648201526084016105bc565b600061190e826040518060400160405280602081526020017f5361666545524332303a206c6f772d6c6576656c2063616c6c206661696c65648152508573ffffffffffffffffffffffffffffffffffffffff16611a369092919063ffffffff16565b905080516000148061192f57508080602001905181019061192f9190612ea7565b6112f7576040517f08c379a000000000000000000000000000000000000000000000000000000000815260206004820152602a60248201527f5361666545524332303a204552433230206f7065726174696f6e20646964206e60448201527f6f7420737563636565640000000000000000000000000000000000000000000060648201526084016105bc565b60008060006119ca8585611a4d565b909250905060008160048111156119e3576119e3612ec4565b148015611a1b57508573ffffffffffffffffffffffffffffffffffffffff168273ffffffffffffffffffffffffffffffffffffffff16145b80611a2c5750611a2c868686611a92565b9695505050505050565b6060611a458484600085611bef565b949350505050565b6000808251604103611a835760208301516040840151606085015160001a611a7787828585611d08565b94509450505050611a8b565b506000905060025b9250929050565b60008060008573ffffffffffffffffffffffffffffffffffffffff16631626ba7e60e01b8686604051602401611ac9929190612ef3565b604080517fffffffffffffffffffffffffffffffffffffffffffffffffffffffffffffffe08184030181529181526020820180517bffffffffffffffffffffffffffffffffffffffffffffffffffffffff167fffffffff00000000000000000000000000000000000000000000000000000000909416939093179092529051611b529190612f0c565b600060405180830381855afa9150503d8060008114611b8d576040519150601f19603f3d011682016040523d82523d6000602084013e611b92565b606091505b5091509150818015611ba657506020815110155b8015611a2c575080517f1626ba7e0000000000000000000000000000000000000000000000000000000090611be490830160209081019084016122a7565b149695505050505050565b606082471015611c81576040517f08c379a000000000000000000000000000000000000000000000000000000000815260206004820152602660248201527f416464726573733a20696e73756666696369656e742062616c616e636520666f60448201527f722063616c6c000000000000000000000000000000000000000000000000000060648201526084016105bc565b6000808673ffffffffffffffffffffffffffffffffffffffff168587604051611caa9190612f0c565b60006040518083038185875af1925050503d8060008114611ce7576040519150601f19603f3d011682016040523d82523d6000602084013e611cec565b606091505b5091509150611cfd87838387611df7565b979650505050505050565b6000807f7fffffffffffffffffffffffffffffff5d576e7357a4501ddfe92f46681b20a0831115611d3f5750600090506003611dee565b6040805160008082526020820180845289905260ff881692820192909252606081018690526080810185905260019060a0016020604051602081039080840390855afa158015611d93573d6000803e3d6000fd5b50506040517fffffffffffffffffffffffffffffffffffffffffffffffffffffffffffffffe0015191505073ffffffffffffffffffffffffffffffffffffffff8116611de757600060019250925050611dee565b9150600090505b94509492505050565b60608315611e8d578251600003611e865773ffffffffffffffffffffffffffffffffffffffff85163b611e86576040517f08c379a000000000000000000000000000000000000000000000000000000000815260206004820152601d60248201527f416464726573733a2063616c6c20746f206e6f6e2d636f6e747261637400000060448201526064016105bc565b5081611a45565b611a458383815115611ea25781518083602001fd5b806040517f08c379a00000000000000000000000000000000000000000000000000000000081526004016105bc9190612f1e565b600060208284031215611ee857600080fd5b81357fffffffff0000000000000000000000000000000000000000000000000000000081168114611f1857600080fd5b9392505050565b73ffffffffffffffffffffffffffffffffffffffff81168114611f4157600080fd5b50565b60008060008060008060a08789031215611f5d57600080fd5b8635611f6881611f1f565b95506020870135611f7881611f1f565b94506040870135935060608701359250608087013567ffffffffffffffff80821115611fa357600080fd5b818901915089601f830112611fb757600080fd5b813581811115611fc657600080fd5b8a6020828501011115611fd857600080fd5b6020830194508093505050509295509295509295565b7f4e487b7100000000000000000000000000000000000000000000000000000000600052604160045260246000fd5b6040516060810167ffffffffffffffff8111828210171561204057612040611fee565b60405290565b604051601f82017fffffffffffffffffffffffffffffffffffffffffffffffffffffffffffffffe016810167ffffffffffffffff8111828210171561208d5761208d611fee565b604052919050565b600067ffffffffffffffff8211156120af576120af611fee565b50601f017fffffffffffffffffffffffffffffffffffffffffffffffffffffffffffffffe01660200190565b6000602082840312156120ed57600080fd5b813567ffffffffffffffff81111561210457600080fd5b8201601f8101841361211557600080fd5b803561212861212382612095565b612046565b81815285602083850101111561213d57600080fd5b81602084016020830137600091810160200191909152949350505050565b60006020828403121561216d57600080fd5b813567ffffffffffffffff81111561218457600080fd5b820160608185031215611f1857600080fd5b600080604083850312156121a957600080fd5b823567ffffffffffffffff8111156121c057600080fd5b830160a081860312156121d257600080fd5b946020939093013593505050565b60005b838110156121fb5781810151838201526020016121e3565b50506000910152565b6000815180845261221c8160208601602086016121e0565b601f017fffffffffffffffffffffffffffffffffffffffffffffffffffffffffffffffe0169290920160200192915050565b600073ffffffffffffffffffffffffffffffffffffffff8089168352876020840152808716604084015285606084015280851660808401525060c060a083015261229b60c0830184612204565b98975050505050505050565b6000602082840312156122b957600080fd5b5051919050565b600082601f8301126122d157600080fd5b81516122df61212382612095565b8181528460208386010111156122f457600080fd5b611a458260208301602087016121e0565b600082601f83011261231657600080fd5b8151602067ffffffffffffffff82111561233257612332611fee565b8160051b612341828201612046565b928352848101820192828101908785111561235b57600080fd5b83870192505b84831015611cfd57825182529183019190830190612361565b60006020828403121561238c57600080fd5b815167ffffffffffffffff808211156123a457600080fd5b90830190606082860312156123b857600080fd5b6123c061201d565b82516123cb81611f1f565b81526020830151828111156123df57600080fd5b8301606081880312156123f157600080fd5b6123f961201d565b815161240481611f1f565b815260208201518481111561241857600080fd5b612424898285016122c0565b60208301525060408201518481111561243c57600080fd5b61244889828501612305565b604083015250806020840152505060408301518281111561246857600080fd5b612474878286016122c0565b60408301525095945050505050565b600081518084526020808501945080840160005b838110156124b357815187529582019590820190600101612497565b509495945050505050565b600073ffffffffffffffffffffffffffffffffffffffff80851683526040602084015280845116604084015260208401516060808501528181511660a085015260208101519150606060c085015261251a610100850183612204565b9150604081015190507fffffffffffffffffffffffffffffffffffffffffffffffffffffffffffffff608483030160e08501526125578282612483565b91505060408401517fffffffffffffffffffffffffffffffffffffffffffffffffffffffffffffffc0848303016080850152611a2c8282612204565b7f4e487b7100000000000000000000000000000000000000000000000000000000600052603260045260246000fd5b6060815260006125d56060830186612204565b82810360208401526125e78186612483565b90508281036040840152611a2c8185612483565b60008060006060848603121561261057600080fd5b835161261b81611f1f565b602085015190935061262c81611f1f565b604085015190925061263d81611f1f565b809150509250925092565b60008083357fffffffffffffffffffffffffffffffffffffffffffffffffffffffffffffffe184360301811261267d57600080fd5b83018035915067ffffffffffffffff82111561269857600080fd5b6020019150600581901b3603821315611a8b57600080fd5b600082357fffffffffffffffffffffffffffffffffffffffffffffffffffffffffffffff818336030181126126e457600080fd5b9190910192915050565b600082357fffffffffffffffffffffffffffffffffffffffffffffffffffffffffffffff218336030181126126e457600080fd5b60008083357fffffffffffffffffffffffffffffffffffffffffffffffffffffffffffffffe184360301811261275757600080fd5b83018035915067ffffffffffffffff82111561277257600080fd5b6020019150606081023603821315611a8b57600080fd5b60006020828403121561279b57600080fd5b8135611f1881611f1f565b60006080820173ffffffffffffffffffffffffffffffffffffffff87168352602086818501528560408501526080606085015281855180845260a08601915060a08160051b870101935082870160005b82811015612842577fffffffffffffffffffffffffffffffffffffffffffffffffffffffffffffff60888703018452612830868351612483565b955092840192908401906001016127f6565b50939a9950505050505050505050565b6000806040838503121561286557600080fd5b825167ffffffffffffffff8082111561287d57600080fd5b61288986838701612305565b9350602085015191508082111561289f57600080fd5b506128ac85828601612305565b9150509250929050565b828152604060208201526000611a456040830184612483565b60008083357fffffffffffffffffffffffffffffffffffffffffffffffffffffffffffffffe184360301811261290457600080fd5b830160208101925035905067ffffffffffffffff81111561292457600080fd5b8060051b3603821315611a8b57600080fd5b8015158114611f4157600080fd5b60008083357fffffffffffffffffffffffffffffffffffffffffffffffffffffffffffffffe184360301811261297957600080fd5b830160208101925035905067ffffffffffffffff81111561299957600080fd5b606081023603821315611a8b57600080fd5b818352600060208085019450826000805b86811015612a1b5782356129cf81611f1f565b73ffffffffffffffffffffffffffffffffffffffff1688528284013560ff81168082146129fa578384fd5b898601525060408381013590890152606097880197909201916001016129bc565b50959695505050505050565b60008083357fffffffffffffffffffffffffffffffffffffffffffffffffffffffffffffffe1843603018112612a5c57600080fd5b830160208101925035905067ffffffffffffffff811115612a7c57600080fd5b803603821315611a8b57600080fd5b8183528181602085013750600060208284010152600060207fffffffffffffffffffffffffffffffffffffffffffffffffffffffffffffffe0601f840116840101905092915050565b81835260006020808501808196506005915085821b81018560005b88811015612be5578383038a5281357fffffffffffffffffffffffffffffffffffffffffffffffffffffffffffffffa1893603018112612b2e57600080fd5b880160608135612b3d81611f1f565b73ffffffffffffffffffffffffffffffffffffffff168552612b61828901836128cf565b828a8801528083880152608092507f07ffffffffffffffffffffffffffffffffffffffffffffffffffffffffffffff811115612b9c57600080fd5b881b808288850137860190506040612bb684820185612a27565b9450838884030182890152612bce8484018683612a8b565b9e8b019e9750505093880193505050600101612aef565b509098975050505050505050565b6000602080835260c083018435828501526040828601358186015260608187013581870152612c24818801886128cf565b60a060808981018290529582905260e095868a01600584901b8b0188018560005b86811015612e0f577fffffffffffffffffffffffffffffffffffffffffffffffffffffffffffffff208e840301845281357fffffffffffffffffffffffffffffffffffffffffffffffffffffffffffffff81893603018112612ca657600080fd5b88018035368290037fffffffffffffffffffffffffffffffffffffffffffffffffffffffffffffff21018112612cdb57600080fd5b86855281018035612ceb81611f1f565b73ffffffffffffffffffffffffffffffffffffffff90811686890152818f013590612d1582612936565b901515868a0152818d013590612d2a82611f1f565b90811660c0870152818c013590612d4082611f1f565b908116868f01528188013590612d5582611f1f565b16610100860152612d6881890182612944565b8e610120880152612d7e610160880182846129ab565b915050612d8e60c0830183612944565b92507fffffffffffffffffffffffffffffffffffffffffffffffffffffffffffffff8087830301610140880152612dc68284836129ab565b925050508d8201358e8601528b8201358c860152612de68b8301836128cf565b92508582038c870152612dfa828483612ad4565b968f019695505050918c019150600101612c45565b5050612e1d838e018e612a27565b9a5098507fffffffffffffffffffffffffffffffffffffffffffffffffffffffffffffffe08c820301848d0152612e55818b8b612a8b565b9d9c50505050505050505050505050565b60008060408385031215612e7957600080fd5b505080516020909101519092909150565b600060208284031215612e9c57600080fd5b8151611f1881611f1f565b600060208284031215612eb957600080fd5b8151611f1881612936565b7f4e487b7100000000000000000000000000000000000000000000000000000000600052602160045260246000fd5b828152604060208201526000611a456040830184612204565b600082516126e48184602087016121e0565b602081526000611f18602083018461220456",
    "linkReferences": {}
  },
  "methodIdentifiers": {
    "arb((uint256,uint256,uint256,((address,bool,(address,address,address),(address,uint8,uint256)[],(address,uint8,uint256)[]),uint256,uint256,(address,uint256[],bytes)[])[],bytes),uint256)": "c3b7c7c3",
    "initialize((address,(address,bytes,uint256[]),bytes))": "98da8d6a",
    "initialize(bytes)": "439fab91",
    "onTakeOrders(address,address,uint256,uint256,bytes)": "059bebe6",
    "sI9r()": "71c1dea7",
    "sI9rDispatch()": "89448c3a",
    "sI9rStore()": "61bb39e4",
    "sOrderBook()": "886d1650",
    "sRouteProcessor3()": "d423a052",
    "supportsInterface(bytes4)": "01ffc9a7"
  },
  "id": 36
}