{"abi":[{"type":"constructor","inputs":[{"name":"config","type":"tuple","internalType":"struct OrderBookV4ArbConfigV1","components":[{"name":"orderBook","type":"address","internalType":"address"},{"name":"evaluable","type":"tuple","internalType":"struct EvaluableV3","components":[{"name":"interpreter","type":"address","internalType":"contract IInterpreterV3"},{"name":"store","type":"address","internalType":"contract IInterpreterStoreV2"},{"name":"bytecode","type":"bytes","internalType":"bytes"}]},{"name":"implementationData","type":"bytes","internalType":"bytes"}]}],"stateMutability":"nonpayable"},{"type":"fallback","stateMutability":"nonpayable"},{"type":"function","name":"arb2","inputs":[{"name":"takeOrders","type":"tuple","internalType":"struct TakeOrdersConfigV3","components":[{"name":"minimumInput","type":"uint256","internalType":"uint256"},{"name":"maximumInput","type":"uint256","internalType":"uint256"},{"name":"maximumIORatio","type":"uint256","internalType":"uint256"},{"name":"orders","type":"tuple[]","internalType":"struct TakeOrderConfigV3[]","components":[{"name":"order","type":"tuple","internalType":"struct OrderV3","components":[{"name":"owner","type":"address","internalType":"address"},{"name":"evaluable","type":"tuple","internalType":"struct EvaluableV3","components":[{"name":"interpreter","type":"address","internalType":"contract IInterpreterV3"},{"name":"store","type":"address","internalType":"contract IInterpreterStoreV2"},{"name":"bytecode","type":"bytes","internalType":"bytes"}]},{"name":"validInputs","type":"tuple[]","internalType":"struct IO[]","components":[{"name":"token","type":"address","internalType":"address"},{"name":"decimals","type":"uint8","internalType":"uint8"},{"name":"vaultId","type":"uint256","internalType":"uint256"}]},{"name":"validOutputs","type":"tuple[]","internalType":"struct IO[]","components":[{"name":"token","type":"address","internalType":"address"},{"name":"decimals","type":"uint8","internalType":"uint8"},{"name":"vaultId","type":"uint256","internalType":"uint256"}]},{"name":"nonce","type":"bytes32","internalType":"bytes32"}]},{"name":"inputIOIndex","type":"uint256","internalType":"uint256"},{"name":"outputIOIndex","type":"uint256","internalType":"uint256"},{"name":"signedContext","type":"tuple[]","internalType":"struct SignedContextV1[]","components":[{"name":"signer","type":"address","internalType":"address"},{"name":"context","type":"uint256[]","internalType":"uint256[]"},{"name":"signature","type":"bytes","internalType":"bytes"}]}]},{"name":"data","type":"bytes","internalType":"bytes"}]},{"name":"minimumSenderOutput","type":"uint256","internalType":"uint256"},{"name":"evaluable","type":"tuple","internalType":"struct EvaluableV3","components":[{"name":"interpreter","type":"address","internalType":"contract IInterpreterV3"},{"name":"store","type":"address","internalType":"contract IInterpreterStoreV2"},{"name":"bytecode","type":"bytes","internalType":"bytes"}]}],"outputs":[],"stateMutability":"payable"},{"type":"function","name":"iEvaluableHash","inputs":[],"outputs":[{"name":"","type":"bytes32","internalType":"bytes32"}],"stateMutability":"view"},{"type":"function","name":"iOrderBook","inputs":[],"outputs":[{"name":"","type":"address","internalType":"contract IOrderBookV4"}],"stateMutability":"view"},{"type":"function","name":"iRouteProcessor","inputs":[],"outputs":[{"name":"","type":"address","internalType":"contract IRouteProcessor"}],"stateMutability":"view"},{"type":"function","name":"onTakeOrders","inputs":[{"name":"inputToken","type":"address","internalType":"address"},{"name":"outputToken","type":"address","internalType":"address"},{"name":"inputAmountSent","type":"uint256","internalType":"uint256"},{"name":"totalOutputAmount","type":"uint256","internalType":"uint256"},{"name":"takeOrdersData","type":"bytes","internalType":"bytes"}],"outputs":[],"stateMutability":"nonpayable"},{"type":"function","name":"supportsInterface","inputs":[{"name":"interfaceId","type":"bytes4","internalType":"bytes4"}],"outputs":[{"name":"","type":"bool","internalType":"bool"}],"stateMutability":"view"},{"type":"event","name":"Construct","inputs":[{"name":"sender","type":"address","indexed":false,"internalType":"address"},{"name":"config","type":"tuple","indexed":false,"internalType":"struct OrderBookV4ArbConfigV1","components":[{"name":"orderBook","type":"address","internalType":"address"},{"name":"evaluable","type":"tuple","internalType":"struct EvaluableV3","components":[{"name":"interpreter","type":"address","internalType":"contract IInterpreterV3"},{"name":"store","type":"address","internalType":"contract IInterpreterStoreV2"},{"name":"bytecode","type":"bytes","internalType":"bytes"}]},{"name":"implementationData","type":"bytes","internalType":"bytes"}]}],"anonymous":false},{"type":"error","name":"BadLender","inputs":[{"name":"badLender","type":"address","internalType":"address"}]},{"type":"error","name":"InvalidSignature","inputs":[{"name":"i","type":"uint256","internalType":"uint256"}]},{"type":"error","name":"MinimumOutput","inputs":[{"name":"minimum","type":"uint256","internalType":"uint256"},{"name":"actual","type":"uint256","internalType":"uint256"}]},{"type":"error","name":"NoOrders","inputs":[]},{"type":"error","name":"WrongEvaluable","inputs":[]}],"bytecode":{"object":"0x60e060405234801561000f575f80fd5b50604051612ba8380380612ba883398101604081905261002e916101b4565b60015f5580516001600160a01b031660a052604051819081907f2211c44ab42f12a3442a54c6652c8674addb2129fc4ee747e1f8dcfcdce6fd499061007690339084906102d1565b60405180910390a160208101516100a590604080820151918190205f9081528251602093840120909252902090565b6080525050604081015180515f916100c591810160209081019101610352565b6001600160a01b031660c052506103749050565b634e487b7160e01b5f52604160045260245ffd5b604051606081016001600160401b038111828210171561010f5761010f6100d9565b60405290565b6001600160a01b0381168114610129575f80fd5b50565b5f82601f83011261013b575f80fd5b81516001600160401b0380821115610155576101556100d9565b604051601f8301601f19908116603f0116810190828211818310171561017d5761017d6100d9565b81604052838152866020858801011115610195575f80fd5b8360208701602083015e5f602085830101528094505050505092915050565b5f602082840312156101c4575f80fd5b81516001600160401b03808211156101da575f80fd5b90830190606082860312156101ed575f80fd5b6101f56100ed565b825161020081610115565b8152602083015182811115610213575f80fd5b830160608188031215610224575f80fd5b61022c6100ed565b815161023781610115565b8152602082015161024781610115565b602082015260408201518481111561025d575f80fd5b6102698982850161012c565b6040830152508060208401525050604083015182811115610288575f80fd5b6102948782860161012c565b60408301525095945050505050565b5f81518084528060208401602086015e5f602082860101526020601f19601f83011685010191505092915050565b5f60018060a01b0380851683526040602084015280845116604084015260208401516060808501528181511660a08501528160208201511660c08501526040810151915050606060e084015261032b6101008401826102a3565b90506040840151603f1984830301608085015261034882826102a3565b9695505050505050565b5f60208284031215610362575f80fd5b815161036d81610115565b9392505050565b60805160a05160c0516127c56103e35f395f818160d5015281816102b1015281816102f201528181610349015261040801525f818161016e0152818161089a015281816108db01528181610924015281816109db0152610bee01525f818161012d015261044201526127c55ff3fe608060405260043610610064575f3560e01c80637b40155e116100425780637b40155e1461011c5780638df8ee111461015d578063f89d86591461019057610064565b806301ffc9a714610071578063059bebe6146100a55780630f8cc55c146100c4575b34801561006f575f80fd5b005b34801561007c575f80fd5b5061009061008b366004611980565b6101a3565b60405190151581526020015b60405180910390f35b3480156100b0575f80fd5b5061006f6100bf3660046119ea565b610287565b3480156100cf575f80fd5b506100f77f000000000000000000000000000000000000000000000000000000000000000081565b60405173ffffffffffffffffffffffffffffffffffffffff909116815260200161009c565b348015610127575f80fd5b5061014f7f000000000000000000000000000000000000000000000000000000000000000081565b60405190815260200161009c565b348015610168575f80fd5b506100f77f000000000000000000000000000000000000000000000000000000000000000081565b61006f61019e366004611a8c565b610437565b5f7fffffffff0000000000000000000000000000000000000000000000000000000082167f059bebe600000000000000000000000000000000000000000000000000000000148061023557507fffffffff0000000000000000000000000000000000000000000000000000000082167ff89d865900000000000000000000000000000000000000000000000000000000145b8061028157507f01ffc9a7000000000000000000000000000000000000000000000000000000007fffffffff000000000000000000000000000000000000000000000000000000008316145b92915050565b610295868686868686610bd6565b6102d673ffffffffffffffffffffffffffffffffffffffff87167f00000000000000000000000000000000000000000000000000000000000000005f610c4f565b61033773ffffffffffffffffffffffffffffffffffffffff87167f00000000000000000000000000000000000000000000000000000000000000007fffffffffffffffffffffffffffffffffffffffffffffffffffffffffffffffff610c4f565b5f61034482840184611c07565b90505f7f000000000000000000000000000000000000000000000000000000000000000073ffffffffffffffffffffffffffffffffffffffff16632646478b89888a8930886040518763ffffffff1660e01b81526004016103aa96959493929190611c85565b6020604051808303815f875af11580156103c6573d5f803e3d5ffd5b505050506040513d601f19601f820116820180604052508101906103ea9190611cdd565b905061042d73ffffffffffffffffffffffffffffffffffffffff89167f00000000000000000000000000000000000000000000000000000000000000005f610c4f565b5050505050505050565b61043f610e4d565b807f000000000000000000000000000000000000000000000000000000000000000061048b61046d83611cf4565b604080820151918190205f9081528251602093840120909252902090565b146104c2576040517f4c30975700000000000000000000000000000000000000000000000000000000815260040160405180910390fd5b5f6104d06040830183611d7d565b905011156106f3575f806104e76020840184611dde565b73ffffffffffffffffffffffffffffffffffffffff1663d6e3357a6105126040860160208701611dde565b5f808052306020526040902061052b6040880188611d7d565b604080515f808252602082019092526105c19082610559565b60608152602001906001900390816105445790505b50604080515f80825260208201909252906105bb565b6105a860405180606001604052805f73ffffffffffffffffffffffffffffffffffffffff16815260200160608152602001606081525090565b81526020019060019003908161056f5790505b50610ebe565b604080515f815260208101918290527fffffffff0000000000000000000000000000000000000000000000000000000060e08a901b1690915261060d9695949392919060248101611e7a565b5f60405180830381865afa158015610627573d5f803e3d5ffd5b505050506040513d5f823e601f3d9081017fffffffffffffffffffffffffffffffffffffffffffffffffffffffffffffffe016820160405261066c9190810190611fdf565b80519193509150156106f0576106886040840160208501611dde565b73ffffffffffffffffffffffffffffffffffffffff1663946aadc65f836040518363ffffffff1660e01b81526004016106c292919061203f565b5f604051808303815f87803b1580156106d9575f80fd5b505af11580156106eb573d5f803e3d5ffd5b505050505b50505b6107006060850185612057565b90505f0361073a576040517f9c95219f00000000000000000000000000000000000000000000000000000000815260040160405180910390fd5b5f6107486060860186612057565b5f818110610758576107586120bb565b905060200281019061076a91906120e8565b6107749080612124565b610782906040810190612156565b61078f6060880188612057565b5f81811061079f5761079f6120bb565b90506020028101906107b191906120e8565b602001358181106107c4576107c46120bb565b6107da9260206060909202019081019150611dde565b90505f6107ea6060870187612057565b5f8181106107fa576107fa6120bb565b905060200281019061080c91906120e8565b6108169080612124565b610824906060810190612156565b6108316060890189612057565b5f818110610841576108416120bb565b905060200281019061085391906120e8565b60400135818110610866576108666120bb565b61087c9260206060909202019081019150611dde565b90506108bf73ffffffffffffffffffffffffffffffffffffffff83167f00000000000000000000000000000000000000000000000000000000000000005f610c4f565b61092073ffffffffffffffffffffffffffffffffffffffff83167f00000000000000000000000000000000000000000000000000000000000000007fffffffffffffffffffffffffffffffffffffffffffffffffffffffffffffffff610c4f565b5f807f000000000000000000000000000000000000000000000000000000000000000073ffffffffffffffffffffffffffffffffffffffff16630997c4a0896040518263ffffffff1660e01b815260040161097b9190612499565b60408051808303815f875af1158015610996573d5f803e3d5ffd5b505050506040513d601f19601f820116820180604052508101906109ba9190612717565b9092509050610a0073ffffffffffffffffffffffffffffffffffffffff85167f00000000000000000000000000000000000000000000000000000000000000005f610c4f565b6040517f70a082310000000000000000000000000000000000000000000000000000000081523060048201525f9073ffffffffffffffffffffffffffffffffffffffff8616906370a0823190602401602060405180830381865afa158015610a6a573d5f803e3d5ffd5b505050506040513d601f19601f82011682018060405250810190610a8e9190611cdd565b905087811015610ad9576040517f0c08b5bc00000000000000000000000000000000000000000000000000000000815260048101899052602481018290526044015b60405180910390fd5b8015610b0057610b0073ffffffffffffffffffffffffffffffffffffffff861633836111c4565b6040517f70a082310000000000000000000000000000000000000000000000000000000081523060048201525f9073ffffffffffffffffffffffffffffffffffffffff8616906370a0823190602401602060405180830381865afa158015610b6a573d5f803e3d5ffd5b505050506040513d601f19601f82011682018060405250810190610b8e9190611cdd565b90508015610bb757610bb773ffffffffffffffffffffffffffffffffffffffff861633836111c4565b610bc1334761121a565b50505050505050610bd160015f55565b505050565b3373ffffffffffffffffffffffffffffffffffffffff7f00000000000000000000000000000000000000000000000000000000000000001614610c47576040517f0bc3cde0000000000000000000000000000000000000000000000000000000008152336004820152602401610ad0565b505050505050565b801580610ced57506040517fdd62ed3e00000000000000000000000000000000000000000000000000000000815230600482015273ffffffffffffffffffffffffffffffffffffffff838116602483015284169063dd62ed3e90604401602060405180830381865afa158015610cc7573d5f803e3d5ffd5b505050506040513d601f19601f82011682018060405250810190610ceb9190611cdd565b155b610d79576040517f08c379a000000000000000000000000000000000000000000000000000000000815260206004820152603660248201527f5361666545524332303a20617070726f76652066726f6d206e6f6e2d7a65726f60448201527f20746f206e6f6e2d7a65726f20616c6c6f77616e6365000000000000000000006064820152608401610ad0565b60405173ffffffffffffffffffffffffffffffffffffffff8316602482015260448101829052610bd19084907f095ea7b300000000000000000000000000000000000000000000000000000000906064015b604080517fffffffffffffffffffffffffffffffffffffffffffffffffffffffffffffffe08184030181529190526020810180517bffffffffffffffffffffffffffffffffffffffffffffffffffffffff167fffffffff0000000000000000000000000000000000000000000000000000000090931692909217909152611370565b60025f5403610eb8576040517f08c379a000000000000000000000000000000000000000000000000000000000815260206004820152601f60248201527f5265656e7472616e637947756172643a207265656e7472616e742063616c6c006044820152606401610ad0565b60025f55565b60605f825167ffffffffffffffff811115610edb57610edb611b01565b604051908082528060200260200182016040528015610f04578160200160208202803683370190505b5090505f80845111610f16575f610f1c565b83516001015b85516001010190505f8167ffffffffffffffff811115610f3e57610f3e611b01565b604051908082528060200260200182016040528015610f7157816020015b6060815260200190600190039081610f5c5790505b5090505f610f95604080516002815233602082015230818301526060810190915290565b828281518110610fa757610fa76120bb565b60200260200101819052505f5b8751811015611004578180600101925050878181518110610fd757610fd76120bb565b6020026020010151838381518110610ff157610ff16120bb565b6020908102919091010152600101610fb4565b508551156111ba57808060010191505083828281518110611027576110276120bb565b60200260200101819052505f5b86518110156111b8576110e3878281518110611052576110526120bb565b60200260200101515f01516110c061108e8a8581518110611075576110756120bb565b6020026020010151602001518051602090810291012090565b7f19457468657265756d205369676e6564204d6573736167653a0a3332000000005f908152601c91909152603c902090565b8984815181106110d2576110d26120bb565b60200260200101516040015161147d565b61111c576040517f52bf984800000000000000000000000000000000000000000000000000000000815260048101829052602401610ad0565b86818151811061112e5761112e6120bb565b60200260200101515f015173ffffffffffffffffffffffffffffffffffffffff16858281518110611161576111616120bb565b6020026020010181815250508180600101925050868181518110611187576111876120bb565b6020026020010151602001518383815181106111a5576111a56120bb565b6020908102919091010152600101611034565b505b5095945050505050565b60405173ffffffffffffffffffffffffffffffffffffffff8316602482015260448101829052610bd19084907fa9059cbb0000000000000000000000000000000000000000000000000000000090606401610dcb565b80471015611284576040517f08c379a000000000000000000000000000000000000000000000000000000000815260206004820152601d60248201527f416464726573733a20696e73756666696369656e742062616c616e63650000006044820152606401610ad0565b5f8273ffffffffffffffffffffffffffffffffffffffff16826040515f6040518083038185875af1925050503d805f81146112da576040519150601f19603f3d011682016040523d82523d5f602084013e6112df565b606091505b5050905080610bd1576040517f08c379a000000000000000000000000000000000000000000000000000000000815260206004820152603a60248201527f416464726573733a20756e61626c6520746f2073656e642076616c75652c207260448201527f6563697069656e74206d617920686176652072657665727465640000000000006064820152608401610ad0565b5f6113d1826040518060400160405280602081526020017f5361666545524332303a206c6f772d6c6576656c2063616c6c206661696c65648152508573ffffffffffffffffffffffffffffffffffffffff166114f59092919063ffffffff16565b905080515f14806113f15750808060200190518101906113f19190612739565b610bd1576040517f08c379a000000000000000000000000000000000000000000000000000000000815260206004820152602a60248201527f5361666545524332303a204552433230206f7065726174696f6e20646964206e60448201527f6f742073756363656564000000000000000000000000000000000000000000006064820152608401610ad0565b5f805f61148a858561150b565b90925090505f8160048111156114a2576114a2612758565b1480156114da57508573ffffffffffffffffffffffffffffffffffffffff168273ffffffffffffffffffffffffffffffffffffffff16145b806114eb57506114eb86868661154d565b9695505050505050565b606061150384845f856116a5565b949350505050565b5f80825160410361153f576020830151604084015160608501515f1a611533878285856117ba565b94509450505050611546565b505f905060025b9250929050565b5f805f8573ffffffffffffffffffffffffffffffffffffffff16631626ba7e60e01b8686604051602401611582929190612785565b604080517fffffffffffffffffffffffffffffffffffffffffffffffffffffffffffffffe08184030181529181526020820180517bffffffffffffffffffffffffffffffffffffffffffffffffffffffff167fffffffff0000000000000000000000000000000000000000000000000000000090941693909317909252905161160b919061279d565b5f60405180830381855afa9150503d805f8114611643576040519150601f19603f3d011682016040523d82523d5f602084013e611648565b606091505b509150915081801561165c57506020815110155b80156114eb575080517f1626ba7e000000000000000000000000000000000000000000000000000000009061169a9083016020908101908401611cdd565b149695505050505050565b606082471015611737576040517f08c379a000000000000000000000000000000000000000000000000000000000815260206004820152602660248201527f416464726573733a20696e73756666696369656e742062616c616e636520666f60448201527f722063616c6c00000000000000000000000000000000000000000000000000006064820152608401610ad0565b5f808673ffffffffffffffffffffffffffffffffffffffff16858760405161175f919061279d565b5f6040518083038185875af1925050503d805f8114611799576040519150601f19603f3d011682016040523d82523d5f602084013e61179e565b606091505b50915091506117af878383876118a2565b979650505050505050565b5f807f7fffffffffffffffffffffffffffffff5d576e7357a4501ddfe92f46681b20a08311156117ef57505f90506003611899565b604080515f8082526020820180845289905260ff881692820192909252606081018690526080810185905260019060a0016020604051602081039080840390855afa158015611840573d5f803e3d5ffd5b50506040517fffffffffffffffffffffffffffffffffffffffffffffffffffffffffffffffe0015191505073ffffffffffffffffffffffffffffffffffffffff8116611893575f60019250925050611899565b91505f90505b94509492505050565b606083156119375782515f036119305773ffffffffffffffffffffffffffffffffffffffff85163b611930576040517f08c379a000000000000000000000000000000000000000000000000000000000815260206004820152601d60248201527f416464726573733a2063616c6c20746f206e6f6e2d636f6e74726163740000006044820152606401610ad0565b5081611503565b611503838381511561194c5781518083602001fd5b806040517f08c379a0000000000000000000000000000000000000000000000000000000008152600401610ad091906127b3565b5f60208284031215611990575f80fd5b81357fffffffff00000000000000000000000000000000000000000000000000000000811681146119bf575f80fd5b9392505050565b73ffffffffffffffffffffffffffffffffffffffff811681146119e7575f80fd5b50565b5f805f805f8060a087890312156119ff575f80fd5b8635611a0a816119c6565b95506020870135611a1a816119c6565b94506040870135935060608701359250608087013567ffffffffffffffff80821115611a44575f80fd5b818901915089601f830112611a57575f80fd5b813581811115611a65575f80fd5b8a6020828501011115611a76575f80fd5b6020830194508093505050509295509295509295565b5f805f60608486031215611a9e575f80fd5b833567ffffffffffffffff80821115611ab5575f80fd5b9085019060a08288031215611ac8575f80fd5b9093506020850135925060408501359080821115611ae4575f80fd5b50840160608187031215611af6575f80fd5b809150509250925092565b7f4e487b71000000000000000000000000000000000000000000000000000000005f52604160045260245ffd5b604051601f82017fffffffffffffffffffffffffffffffffffffffffffffffffffffffffffffffe016810167ffffffffffffffff81118282101715611b7557611b75611b01565b604052919050565b5f82601f830112611b8c575f80fd5b813567ffffffffffffffff811115611ba657611ba6611b01565b611bd760207fffffffffffffffffffffffffffffffffffffffffffffffffffffffffffffffe0601f84011601611b2e565b818152846020838601011115611beb575f80fd5b816020850160208301375f918101602001919091529392505050565b5f60208284031215611c17575f80fd5b813567ffffffffffffffff811115611c2d575f80fd5b61150384828501611b7d565b5f81518084528060208401602086015e5f6020828601015260207fffffffffffffffffffffffffffffffffffffffffffffffffffffffffffffffe0601f83011685010191505092915050565b5f73ffffffffffffffffffffffffffffffffffffffff8089168352876020840152808716604084015285606084015280851660808401525060c060a0830152611cd160c0830184611c39565b98975050505050505050565b5f60208284031215611ced575f80fd5b5051919050565b5f60608236031215611d04575f80fd5b6040516060810167ffffffffffffffff8282108183111715611d2857611d28611b01565b8160405284359150611d39826119c6565b908252602084013590611d4b826119c6565b8160208401526040850135915080821115611d64575f80fd5b50611d7136828601611b7d565b60408301525092915050565b5f8083357fffffffffffffffffffffffffffffffffffffffffffffffffffffffffffffffe1843603018112611db0575f80fd5b83018035915067ffffffffffffffff821115611dca575f80fd5b602001915036819003821315611546575f80fd5b5f60208284031215611dee575f80fd5b81356119bf816119c6565b81835281816020850137505f602082840101525f60207fffffffffffffffffffffffffffffffffffffffffffffffffffffffffffffffe0601f840116840101905092915050565b5f815180845260208085019450602084015f5b83811015611e6f57815187529582019590820190600101611e53565b509495945050505050565b73ffffffffffffffffffffffffffffffffffffffff881681525f6020888184015260c06040840152611eb060c08401888a611df9565b86606085015283810360808501528086518083528383019150838160051b8401018489015f5b83811015611f47578583037fffffffffffffffffffffffffffffffffffffffffffffffffffffffffffffffe00185528151805180855290880190888501905f5b81811015611f325783518352928a0192918a0191600101611f16565b50509588019593505090860190600101611ed6565b505086810360a0880152611f5b8189611e40565b9e9d5050505050505050505050505050565b5f82601f830112611f7c575f80fd5b8151602067ffffffffffffffff821115611f9857611f98611b01565b8160051b611fa7828201611b2e565b9283528481018201928281019087851115611fc0575f80fd5b83870192505b848310156117af57825182529183019190830190611fc6565b5f8060408385031215611ff0575f80fd5b825167ffffffffffffffff80821115612007575f80fd5b61201386838701611f6d565b93506020850151915080821115612028575f80fd5b5061203585828601611f6d565b9150509250929050565b828152604060208201525f6115036040830184611e40565b5f8083357fffffffffffffffffffffffffffffffffffffffffffffffffffffffffffffffe184360301811261208a575f80fd5b83018035915067ffffffffffffffff8211156120a4575f80fd5b6020019150600581901b3603821315611546575f80fd5b7f4e487b71000000000000000000000000000000000000000000000000000000005f52603260045260245ffd5b5f82357fffffffffffffffffffffffffffffffffffffffffffffffffffffffffffffff8183360301811261211a575f80fd5b9190910192915050565b5f82357fffffffffffffffffffffffffffffffffffffffffffffffffffffffffffffff6183360301811261211a575f80fd5b5f8083357fffffffffffffffffffffffffffffffffffffffffffffffffffffffffffffffe1843603018112612189575f80fd5b83018035915067ffffffffffffffff8211156121a3575f80fd5b6020019150606081023603821315611546575f80fd5b5f8083357fffffffffffffffffffffffffffffffffffffffffffffffffffffffffffffffe18436030181126121ec575f80fd5b830160208101925035905067ffffffffffffffff81111561220b575f80fd5b8060051b3603821315611546575f80fd5b5f82357fffffffffffffffffffffffffffffffffffffffffffffffffffffffffffffffa183360301811261224e575f80fd5b90910192915050565b5f8083357fffffffffffffffffffffffffffffffffffffffffffffffffffffffffffffffe184360301811261228a575f80fd5b830160208101925035905067ffffffffffffffff8111156122a9575f80fd5b803603821315611546575f80fd5b5f8083357fffffffffffffffffffffffffffffffffffffffffffffffffffffffffffffffe18436030181126122ea575f80fd5b830160208101925035905067ffffffffffffffff811115612309575f80fd5b606081023603821315611546575f80fd5b8183525f60208085019450825f5b85811015611e6f57813561233b816119c6565b73ffffffffffffffffffffffffffffffffffffffff1687528183013560ff8116808214612366575f80fd5b88850152506040828101359088015260609687019690910190600101612328565b8183526020808401935f91600585811b8301820185855b8881101561248b577fffffffffffffffffffffffffffffffffffffffffffffffffffffffffffffffe0868403018a526123d7828961221c565b606081356123e4816119c6565b73ffffffffffffffffffffffffffffffffffffffff168552612408828801836121b9565b82898801528083880152608092507f07ffffffffffffffffffffffffffffffffffffffffffffffffffffffffffffff811115612442575f80fd5b871b80828885013786019050604061245c84820185612257565b94508388840301828901526124748484018683611df9565b9e8a019e975050509387019350505060010161239e565b509098975050505050505050565b5f602080835260c0830184358285015260408286013581860152606081870135818701526124c9818801886121b9565b60a060808901528481865260e08901905060e08260051b8a01019550825f5b838110156126cc577fffffffffffffffffffffffffffffffffffffffffffffffffffffffffffffff208b890301835281357fffffffffffffffffffffffffffffffffffffffffffffffffffffffffffffff81863603018112612548575f80fd5b85018035368290037fffffffffffffffffffffffffffffffffffffffffffffffffffffffffffffff6101811261257c575f80fd5b60808a528101803561258d816119c6565b73ffffffffffffffffffffffffffffffffffffffff80821660808d01526125b68d84018461221c565b915060a0808d015281356125c9816119c6565b81166101208d0152818d01356125de816119c6565b166101408c01526125f1818b0182612257565b9150896101608d01526126096101808d018383611df9565b9150506126188a8301836122b7565b7fffffffffffffffffffffffffffffffffffffffffffffffffffffffffffffff80808e85030160c08f015261264e84838561231a565b935061265c8c8601866122b7565b93509150808e85030160e08f01525061267683838361231a565b9250505060808201356101008c01528b8301358c8c0152898301358a8c01526126a1898401846121b9565b935091508a8103898c01526126b7818484612387565b9a5050509289019250908801906001016124e8565b505050505050506126e06080860186612257565b92507fffffffffffffffffffffffffffffffffffffffffffffffffffffffffffffffe08583030160a08601526114eb828483611df9565b5f8060408385031215612728575f80fd5b505080516020909101519092909150565b5f60208284031215612749575f80fd5b815180151581146119bf575f80fd5b7f4e487b71000000000000000000000000000000000000000000000000000000005f52602160045260245ffd5b828152604060208201525f6115036040830184611c39565b5f82518060208501845e5f920191825250919050565b602081525f6119bf6020830184611c3956","linkReferences":{}}}