{"abi":[{"type":"constructor","inputs":[{"name":"config","type":"tuple","internalType":"struct OrderBookV4ArbConfigV2","components":[{"name":"orderBook","type":"address","internalType":"address"},{"name":"task","type":"tuple","internalType":"struct TaskV1","components":[{"name":"evaluable","type":"tuple","internalType":"struct EvaluableV3","components":[{"name":"interpreter","type":"address","internalType":"contract IInterpreterV3"},{"name":"store","type":"address","internalType":"contract IInterpreterStoreV2"},{"name":"bytecode","type":"bytes","internalType":"bytes"}]},{"name":"signedContext","type":"tuple[]","internalType":"struct SignedContextV1[]","components":[{"name":"signer","type":"address","internalType":"address"},{"name":"context","type":"uint256[]","internalType":"uint256[]"},{"name":"signature","type":"bytes","internalType":"bytes"}]}]},{"name":"implementationData","type":"bytes","internalType":"bytes"}]}],"stateMutability":"nonpayable"},{"type":"fallback","stateMutability":"nonpayable"},{"type":"function","name":"arb3","inputs":[{"name":"orderBook","type":"address","internalType":"contract IOrderBookV4"},{"name":"takeOrders","type":"tuple","internalType":"struct TakeOrdersConfigV3","components":[{"name":"minimumInput","type":"uint256","internalType":"uint256"},{"name":"maximumInput","type":"uint256","internalType":"uint256"},{"name":"maximumIORatio","type":"uint256","internalType":"uint256"},{"name":"orders","type":"tuple[]","internalType":"struct TakeOrderConfigV3[]","components":[{"name":"order","type":"tuple","internalType":"struct OrderV3","components":[{"name":"owner","type":"address","internalType":"address"},{"name":"evaluable","type":"tuple","internalType":"struct EvaluableV3","components":[{"name":"interpreter","type":"address","internalType":"contract IInterpreterV3"},{"name":"store","type":"address","internalType":"contract IInterpreterStoreV2"},{"name":"bytecode","type":"bytes","internalType":"bytes"}]},{"name":"validInputs","type":"tuple[]","internalType":"struct IO[]","components":[{"name":"token","type":"address","internalType":"address"},{"name":"decimals","type":"uint8","internalType":"uint8"},{"name":"vaultId","type":"uint256","internalType":"uint256"}]},{"name":"validOutputs","type":"tuple[]","internalType":"struct IO[]","components":[{"name":"token","type":"address","internalType":"address"},{"name":"decimals","type":"uint8","internalType":"uint8"},{"name":"vaultId","type":"uint256","internalType":"uint256"}]},{"name":"nonce","type":"bytes32","internalType":"bytes32"}]},{"name":"inputIOIndex","type":"uint256","internalType":"uint256"},{"name":"outputIOIndex","type":"uint256","internalType":"uint256"},{"name":"signedContext","type":"tuple[]","internalType":"struct SignedContextV1[]","components":[{"name":"signer","type":"address","internalType":"address"},{"name":"context","type":"uint256[]","internalType":"uint256[]"},{"name":"signature","type":"bytes","internalType":"bytes"}]}]},{"name":"data","type":"bytes","internalType":"bytes"}]},{"name":"task","type":"tuple","internalType":"struct TaskV1","components":[{"name":"evaluable","type":"tuple","internalType":"struct EvaluableV3","components":[{"name":"interpreter","type":"address","internalType":"contract IInterpreterV3"},{"name":"store","type":"address","internalType":"contract IInterpreterStoreV2"},{"name":"bytecode","type":"bytes","internalType":"bytes"}]},{"name":"signedContext","type":"tuple[]","internalType":"struct SignedContextV1[]","components":[{"name":"signer","type":"address","internalType":"address"},{"name":"context","type":"uint256[]","internalType":"uint256[]"},{"name":"signature","type":"bytes","internalType":"bytes"}]}]}],"outputs":[],"stateMutability":"payable"},{"type":"function","name":"iRouteProcessor","inputs":[],"outputs":[{"name":"","type":"address","internalType":"contract IRouteProcessor"}],"stateMutability":"view"},{"type":"function","name":"iTaskHash","inputs":[],"outputs":[{"name":"","type":"bytes32","internalType":"bytes32"}],"stateMutability":"view"},{"type":"function","name":"onTakeOrders","inputs":[{"name":"inputToken","type":"address","internalType":"address"},{"name":"outputToken","type":"address","internalType":"address"},{"name":"inputAmountSent","type":"uint256","internalType":"uint256"},{"name":"totalOutputAmount","type":"uint256","internalType":"uint256"},{"name":"takeOrdersData","type":"bytes","internalType":"bytes"}],"outputs":[],"stateMutability":"nonpayable"},{"type":"function","name":"supportsInterface","inputs":[{"name":"interfaceId","type":"bytes4","internalType":"bytes4"}],"outputs":[{"name":"","type":"bool","internalType":"bool"}],"stateMutability":"view"},{"type":"event","name":"Construct","inputs":[{"name":"sender","type":"address","indexed":false,"internalType":"address"},{"name":"config","type":"tuple","indexed":false,"internalType":"struct OrderBookV4ArbConfigV2","components":[{"name":"orderBook","type":"address","internalType":"address"},{"name":"task","type":"tuple","internalType":"struct TaskV1","components":[{"name":"evaluable","type":"tuple","internalType":"struct EvaluableV3","components":[{"name":"interpreter","type":"address","internalType":"contract IInterpreterV3"},{"name":"store","type":"address","internalType":"contract IInterpreterStoreV2"},{"name":"bytecode","type":"bytes","internalType":"bytes"}]},{"name":"signedContext","type":"tuple[]","internalType":"struct SignedContextV1[]","components":[{"name":"signer","type":"address","internalType":"address"},{"name":"context","type":"uint256[]","internalType":"uint256[]"},{"name":"signature","type":"bytes","internalType":"bytes"}]}]},{"name":"implementationData","type":"bytes","internalType":"bytes"}]}],"anonymous":false},{"type":"error","name":"InvalidSignature","inputs":[{"name":"i","type":"uint256","internalType":"uint256"}]},{"type":"error","name":"NoOrders","inputs":[]},{"type":"error","name":"WrongTask","inputs":[]}],"bytecode":{"object":"0x60c060405234801561000f575f80fd5b5060405161354438038061354483398101604081905261002e91610361565b808060015f819055507f584f220334313e589a42a75ac60d4fa6ed5b02329a7255af822a0e4ac9cd5f1d33826040516100689291906105cf565b60405180910390a16020810151516040015151156100b357602080820151604051610093920161062e565b60408051601f1981840301815291905280516020909101206080526100b8565b5f6080525b50505f81604001518060200190518101906100d39190610647565b6001600160a01b031660a052506106629050565b634e487b7160e01b5f52604160045260245ffd5b604051606081016001600160401b038111828210171561011d5761011d6100e7565b60405290565b604080519081016001600160401b038111828210171561011d5761011d6100e7565b604051601f8201601f191681016001600160401b038111828210171561016d5761016d6100e7565b604052919050565b6001600160a01b0381168114610189575f80fd5b50565b5f82601f83011261019b575f80fd5b81516001600160401b038111156101b4576101b46100e7565b6101c7601f8201601f1916602001610145565b8181528460208386010111156101db575f80fd5b8160208501602083015e5f918101602001919091529392505050565b5f6001600160401b0382111561020f5761020f6100e7565b5060051b60200190565b5f82601f830112610228575f80fd5b8151602061023d610238836101f7565b610145565b82815260059290921b8401810191818101908684111561025b575f80fd5b8286015b848110156103565780516001600160401b038082111561027d575f80fd5b908801906060828b03601f19011215610294575f80fd5b61029c6100fb565b868301516102a981610175565b8152604083810151838111156102bd575f80fd5b8401603f81018d136102cd575f80fd5b888101516102dd610238826101f7565b81815260059190911b82018301908a8101908f8311156102fb575f80fd5b928401925b828410156103195783518252928b0192908b0190610300565b858c0152505050606084015183811115610331575f80fd5b61033f8d8a8388010161018c565b91830191909152508552505091830191830161025f565b509695505050505050565b5f6020808385031215610372575f80fd5b82516001600160401b0380821115610388575f80fd5b908401906060828703121561039b575f80fd5b6103a36100fb565b82516103ae81610175565b815282840151828111156103c0575f80fd5b8301604081890312156103d1575f80fd5b6103d9610123565b8151848111156103e7575f80fd5b82016060818b0312156103f8575f80fd5b6104006100fb565b815161040b81610175565b81528188015161041a81610175565b8189015260408201518681111561042f575f80fd5b61043b8c82850161018c565b6040830152508252508186015184811115610454575f80fd5b6104608a828501610219565b878301525080868401525050604083015193508184111561047f575f80fd5b61048b8785850161018c565b60408201529695505050505050565b5f81518084528060208401602086015e5f602082860101526020601f19601f83011685010191505092915050565b5f604082516040855260018060a01b03808251166040870152602080830151606083821660608a01526040850151945060809150606060808a015261051060a08a018661049a565b888401518a82038b860152805180835291965084019084870190600581901b880186015f5b828110156105be57898203601f19018452845180518a168352888101518984018890528051888501819052908a01905f908a8601905b8083101561058b5783518252928c019260019290920191908c019061056b565b508e84015193508581038f8701526105a3818561049a565b95505050505087850194508784019350600181019050610535565b509c9b505050505050505050505050565b6001600160a01b038381168252604060208084018290528451909216908301528201516060808301525f9061060760a08401826104c8565b90506040840151603f19848303016080850152610624828261049a565b9695505050505050565b602081525f61064060208301846104c8565b9392505050565b5f60208284031215610657575f80fd5b815161064081610175565b60805160a051612e986106ac5f395f818160ca01528181610265015281816102a6015281816102fd01526103bc01525f8181610135015281816103fe015261044f0152612e985ff3fe608060405260043610610059575f3560e01c80630f8cc55c116100425780630f8cc55c146100b95780637ea0b76a1461011157806393be095e1461012457610059565b806301ffc9a714610066578063059bebe61461009a575b348015610064575f80fd5b005b348015610071575f80fd5b50610085610080366004611c1e565b610165565b60405190151581526020015b60405180910390f35b3480156100a5575f80fd5b506100646100b4366004611c81565b610249565b3480156100c4575f80fd5b506100ec7f000000000000000000000000000000000000000000000000000000000000000081565b60405173ffffffffffffffffffffffffffffffffffffffff9091168152602001610091565b61006461011f366004611d23565b6103eb565b34801561012f575f80fd5b506101577f000000000000000000000000000000000000000000000000000000000000000081565b604051908152602001610091565b5f7fffffffff0000000000000000000000000000000000000000000000000000000082167f059bebe60000000000000000000000000000000000000000000000000000000014806101f757507fffffffff0000000000000000000000000000000000000000000000000000000082167f7ea0b76a00000000000000000000000000000000000000000000000000000000145b8061024357507f01ffc9a7000000000000000000000000000000000000000000000000000000007fffffffff000000000000000000000000000000000000000000000000000000008316145b92915050565b61028a73ffffffffffffffffffffffffffffffffffffffff87167f00000000000000000000000000000000000000000000000000000000000000005f610763565b6102eb73ffffffffffffffffffffffffffffffffffffffff87167f00000000000000000000000000000000000000000000000000000000000000007fffffffffffffffffffffffffffffffffffffffffffffffffffffffffffffffff610763565b5f6102f882840184611ef3565b90505f7f000000000000000000000000000000000000000000000000000000000000000073ffffffffffffffffffffffffffffffffffffffff16632646478b89888a8930886040518763ffffffff1660e01b815260040161035e96959493929190611f71565b6020604051808303815f875af115801561037a573d5f803e3d5ffd5b505050506040513d601f19601f8201168201806040525081019061039e9190611fc9565b90506103e173ffffffffffffffffffffffffffffffffffffffff89167f00000000000000000000000000000000000000000000000000000000000000005f610763565b5050505050505050565b6103f3610966565b6103fc8161216a565b7f0000000000000000000000000000000000000000000000000000000000000000158015906104715750806040516020016104379190612260565b604051602081830303815290604052805190602001207f000000000000000000000000000000000000000000000000000000000000000014155b156104a8576040517f8812562900000000000000000000000000000000000000000000000000000000815260040160405180910390fd5b6104b56060840184612369565b90505f036104ef576040517f9c95219f00000000000000000000000000000000000000000000000000000000815260040160405180910390fd5b5f6104fd6060850185612369565b5f81811061050d5761050d6123cd565b905060200281019061051f91906123fa565b6105299080612436565b610537906040810190612468565b6105446060870187612369565b5f818110610554576105546123cd565b905060200281019061056691906123fa565b60200135818110610579576105796123cd565b61058f92602060609092020190810191506124cb565b90505f61059f6060860186612369565b5f8181106105af576105af6123cd565b90506020028101906105c191906123fa565b6105cb9080612436565b6105d9906060810190612468565b6105e66060880188612369565b5f8181106105f6576105f66123cd565b905060200281019061060891906123fa565b6040013581811061061b5761061b6123cd565b61063192602060609092020190810191506124cb565b905061065473ffffffffffffffffffffffffffffffffffffffff8316875f610763565b61069573ffffffffffffffffffffffffffffffffffffffff8316877fffffffffffffffffffffffffffffffffffffffffffffffffffffffffffffffff610763565b5f808773ffffffffffffffffffffffffffffffffffffffff16630997c4a0886040518263ffffffff1660e01b81526004016106d09190612817565b60408051808303815f875af11580156106eb573d5f803e3d5ffd5b505050506040513d601f19601f8201168201806040525081019061070f9190612a95565b909250905061073573ffffffffffffffffffffffffffffffffffffffff8516895f610763565b6107486107418761216a565b85856109d7565b505050505061075660015f55565b505050565b505050505050565b80158061080157506040517fdd62ed3e00000000000000000000000000000000000000000000000000000000815230600482015273ffffffffffffffffffffffffffffffffffffffff838116602483015284169063dd62ed3e90604401602060405180830381865afa1580156107db573d5f803e3d5ffd5b505050506040513d601f19601f820116820180604052508101906107ff9190611fc9565b155b610892576040517f08c379a000000000000000000000000000000000000000000000000000000000815260206004820152603660248201527f5361666545524332303a20617070726f76652066726f6d206e6f6e2d7a65726f60448201527f20746f206e6f6e2d7a65726f20616c6c6f77616e63650000000000000000000060648201526084015b60405180910390fd5b60405173ffffffffffffffffffffffffffffffffffffffff83166024820152604481018290526107569084907f095ea7b300000000000000000000000000000000000000000000000000000000906064015b604080517fffffffffffffffffffffffffffffffffffffffffffffffffffffffffffffffe08184030181529190526020810180517bffffffffffffffffffffffffffffffffffffffffffffffffffffffff167fffffffff0000000000000000000000000000000000000000000000000000000090931692909217909152610d9a565b60025f54036109d1576040517f08c379a000000000000000000000000000000000000000000000000000000000815260206004820152601f60248201527f5265656e7472616e637947756172643a207265656e7472616e742063616c6c006044820152606401610889565b60025f55565b6040805160018082528183019092525f91816020015b60608152602001906001900390816109ed575050604080516003808252608082019092529192505f919060208201606080368337019050506040517f70a082310000000000000000000000000000000000000000000000000000000081523060048201529091505f9073ffffffffffffffffffffffffffffffffffffffff8616906370a0823190602401602060405180830381865afa158015610a92573d5f803e3d5ffd5b505050506040513d601f19601f82011682018060405250810190610ab69190611fc9565b90508015610adf57610adf73ffffffffffffffffffffffffffffffffffffffff86163383610ea7565b5f8573ffffffffffffffffffffffffffffffffffffffff1663313ce5676040518163ffffffff1660e01b8152600401602060405180830381865afa158015610b29573d5f803e3d5ffd5b505050506040513d601f19601f82011682018060405250810190610b4d9190612ab7565b60ff169050610b5d82825f610efd565b835f81518110610b6f57610b6f6123cd565b602090810291909101015250506040517f70a082310000000000000000000000000000000000000000000000000000000081523060048201525f9073ffffffffffffffffffffffffffffffffffffffff8516906370a0823190602401602060405180830381865afa158015610be6573d5f803e3d5ffd5b505050506040513d601f19601f82011682018060405250810190610c0a9190611fc9565b90508015610c3357610c3373ffffffffffffffffffffffffffffffffffffffff85163383610ea7565b5f8473ffffffffffffffffffffffffffffffffffffffff1663313ce5676040518163ffffffff1660e01b8152600401602060405180830381865afa158015610c7d573d5f803e3d5ffd5b505050506040513d601f19601f82011682018060405250810190610ca19190612ab7565b60ff169050610cb182825f610efd565b83600181518110610cc457610cc46123cd565b602090810291909101015250479050610cdd3382610f84565b8082600281518110610cf157610cf16123cd565b6020026020010181815250505080825f81518110610d1157610d116123cd565b60209081029190910101526040805160018082528183019092525f91816020015b6040805160a0810182525f9181018281526060808301939093526080820183905281526020810191909152815260200190600190039081610d3257905050905085815f81518110610d8557610d856123cd565b602002602001018190525061075b83826110da565b5f610dfb826040518060400160405280602081526020017f5361666545524332303a206c6f772d6c6576656c2063616c6c206661696c65648152508573ffffffffffffffffffffffffffffffffffffffff166112e09092919063ffffffff16565b905080515f1480610e1b575080806020019051810190610e1b9190612ad2565b610756576040517f08c379a000000000000000000000000000000000000000000000000000000000815260206004820152602a60248201527f5361666545524332303a204552433230206f7065726174696f6e20646964206e60448201527f6f742073756363656564000000000000000000000000000000000000000000006064820152608401610889565b60405173ffffffffffffffffffffffffffffffffffffffff83166024820152604481018290526107569084907fa9059cbb00000000000000000000000000000000000000000000000000000000906064016108e4565b5f8260121115610f315760128390036002831615610f2757610f1f85826112f6565b915050610f7d565b610f1f8582611381565b6012831115610f7a577fffffffffffffffffffffffffffffffffffffffffffffffffffffffffffffffee83016001831615610f7057610f1f85826113b8565b610f1f8582611404565b50825b9392505050565b80471015610fee576040517f08c379a000000000000000000000000000000000000000000000000000000000815260206004820152601d60248201527f416464726573733a20696e73756666696369656e742062616c616e63650000006044820152606401610889565b5f8273ffffffffffffffffffffffffffffffffffffffff16826040515f6040518083038185875af1925050503d805f8114611044576040519150601f19603f3d011682016040523d82523d5f602084013e611049565b606091505b5050905080610756576040517f08c379a000000000000000000000000000000000000000000000000000000000815260206004820152603a60248201527f416464726573733a20756e61626c6520746f2073656e642076616c75652c207260448201527f6563697069656e74206d617920686176652072657665727465640000000000006064820152608401610889565b3361110c6040805160a0810182525f918101828152606080830193909352608082018390528152602081019190915290565b5f5b83518110156112d957838181518110611129576111296123cd565b602002602001015191505f825f0151604001515111156112d157815180516020918201515f8681523090935260408320839273ffffffffffffffffffffffffffffffffffffffff169163d6e3357a91875f0151604001515f61118f8d8b60200151611426565b604080515f815260208101918290527fffffffff0000000000000000000000000000000000000000000000000000000060e089901b169091526111da95949392919060248101612af1565b5f60405180830381865afa1580156111f4573d5f803e3d5ffd5b505050506040513d5f823e601f3d9081017fffffffffffffffffffffffffffffffffffffffffffffffffffffffffffffffe01682016040526112399190810190612c19565b80519193509150156112ce578351602001516040517f946aadc600000000000000000000000000000000000000000000000000000000815273ffffffffffffffffffffffffffffffffffffffff9091169063946aadc6906112a09088908590600401612c79565b5f604051808303815f87803b1580156112b7575f80fd5b505af11580156112c9573d5f803e3d5ffd5b505050505b50505b60010161110e565b5050505050565b60606112ee84845f8561172c565b949350505050565b5f604e821061133457821561132b577fffffffffffffffffffffffffffffffffffffffffffffffffffffffffffffffff61132d565b5f5b9050610243565b50600a81900a828102908381838161134e5761134e612c91565b041461137a577fffffffffffffffffffffffffffffffffffffffffffffffffffffffffffffffff6112ee565b5092915050565b600a81900a6113908184612ceb565b9050604e82106102435782156113b0576113ab82600a612e20565b610f7d565b5f9392505050565b5f604e82106113da5782156113ce5760016113d0565b5f5b60ff169050610243565b600a82900a8084816113ee576113ee612c91565b049150808202841461137a575060010192915050565b5f604e8210156113b05781600a0a838161142057611420612c91565b04610f7d565b60605f825167ffffffffffffffff81111561144357611443611da1565b60405190808252806020026020018201604052801561146c578160200160208202803683370190505b5090505f8084511161147e575f611484565b83516001015b85516001010190505f8167ffffffffffffffff8111156114a6576114a6611da1565b6040519080825280602002602001820160405280156114d957816020015b60608152602001906001900390816114c45790505b5090505f6114fd604080516002815233602082015230818301526060810190915290565b82828151811061150f5761150f6123cd565b60200260200101819052505f5b875181101561156c57818060010192505087818151811061153f5761153f6123cd565b6020026020010151838381518110611559576115596123cd565b602090810291909101015260010161151c565b508551156117225780806001019150508382828151811061158f5761158f6123cd565b60200260200101819052505f5b86518110156117205761164b8782815181106115ba576115ba6123cd565b60200260200101515f01516116286115f68a85815181106115dd576115dd6123cd565b6020026020010151602001518051602090810291012090565b7f19457468657265756d205369676e6564204d6573736167653a0a3332000000005f908152601c91909152603c902090565b89848151811061163a5761163a6123cd565b602002602001015160400151611841565b611684576040517f52bf984800000000000000000000000000000000000000000000000000000000815260048101829052602401610889565b868181518110611696576116966123cd565b60200260200101515f015173ffffffffffffffffffffffffffffffffffffffff168582815181106116c9576116c96123cd565b60200260200101818152505081806001019250508681815181106116ef576116ef6123cd565b60200260200101516020015183838151811061170d5761170d6123cd565b602090810291909101015260010161159c565b505b5095945050505050565b6060824710156117be576040517f08c379a000000000000000000000000000000000000000000000000000000000815260206004820152602660248201527f416464726573733a20696e73756666696369656e742062616c616e636520666f60448201527f722063616c6c00000000000000000000000000000000000000000000000000006064820152608401610889565b5f808673ffffffffffffffffffffffffffffffffffffffff1685876040516117e69190612e2b565b5f6040518083038185875af1925050503d805f8114611820576040519150601f19603f3d011682016040523d82523d5f602084013e611825565b606091505b5091509150611836878383876118b9565b979650505050505050565b5f805f61184e8585611958565b90925090505f81600481111561186657611866612e41565b14801561189e57508573ffffffffffffffffffffffffffffffffffffffff168273ffffffffffffffffffffffffffffffffffffffff16145b806118af57506118af86868661199a565b9695505050505050565b6060831561194e5782515f036119475773ffffffffffffffffffffffffffffffffffffffff85163b611947576040517f08c379a000000000000000000000000000000000000000000000000000000000815260206004820152601d60248201527f416464726573733a2063616c6c20746f206e6f6e2d636f6e74726163740000006044820152606401610889565b50816112ee565b6112ee8383611af2565b5f80825160410361198c576020830151604084015160608501515f1a61198087828585611b36565b94509450505050611993565b505f905060025b9250929050565b5f805f8573ffffffffffffffffffffffffffffffffffffffff16631626ba7e60e01b86866040516024016119cf929190612e6e565b604080517fffffffffffffffffffffffffffffffffffffffffffffffffffffffffffffffe08184030181529181526020820180517bffffffffffffffffffffffffffffffffffffffffffffffffffffffff167fffffffff00000000000000000000000000000000000000000000000000000000909416939093179092529051611a589190612e2b565b5f60405180830381855afa9150503d805f8114611a90576040519150601f19603f3d011682016040523d82523d5f602084013e611a95565b606091505b5091509150818015611aa957506020815110155b80156118af575080517f1626ba7e0000000000000000000000000000000000000000000000000000000090611ae79083016020908101908401611fc9565b149695505050505050565b815115611b025781518083602001fd5b806040517f08c379a00000000000000000000000000000000000000000000000000000000081526004016108899190612e86565b5f807f7fffffffffffffffffffffffffffffff5d576e7357a4501ddfe92f46681b20a0831115611b6b57505f90506003611c15565b604080515f8082526020820180845289905260ff881692820192909252606081018690526080810185905260019060a0016020604051602081039080840390855afa158015611bbc573d5f803e3d5ffd5b50506040517fffffffffffffffffffffffffffffffffffffffffffffffffffffffffffffffe0015191505073ffffffffffffffffffffffffffffffffffffffff8116611c0f575f60019250925050611c15565b91505f90505b94509492505050565b5f60208284031215611c2e575f80fd5b81357fffffffff0000000000000000000000000000000000000000000000000000000081168114610f7d575f80fd5b73ffffffffffffffffffffffffffffffffffffffff81168114611c7e575f80fd5b50565b5f805f805f8060a08789031215611c96575f80fd5b8635611ca181611c5d565b95506020870135611cb181611c5d565b94506040870135935060608701359250608087013567ffffffffffffffff80821115611cdb575f80fd5b818901915089601f830112611cee575f80fd5b813581811115611cfc575f80fd5b8a6020828501011115611d0d575f80fd5b6020830194508093505050509295509295509295565b5f805f60608486031215611d35575f80fd5b8335611d4081611c5d565b9250602084013567ffffffffffffffff80821115611d5c575f80fd5b9085019060a08288031215611d6f575f80fd5b90925060408501359080821115611d84575f80fd5b50840160408187031215611d96575f80fd5b809150509250925092565b7f4e487b71000000000000000000000000000000000000000000000000000000005f52604160045260245ffd5b6040516060810167ffffffffffffffff81118282101715611df157611df1611da1565b60405290565b6040805190810167ffffffffffffffff81118282101715611df157611df1611da1565b604051601f82017fffffffffffffffffffffffffffffffffffffffffffffffffffffffffffffffe016810167ffffffffffffffff81118282101715611e6157611e61611da1565b604052919050565b5f82601f830112611e78575f80fd5b813567ffffffffffffffff811115611e9257611e92611da1565b611ec360207fffffffffffffffffffffffffffffffffffffffffffffffffffffffffffffffe0601f84011601611e1a565b818152846020838601011115611ed7575f80fd5b816020850160208301375f918101602001919091529392505050565b5f60208284031215611f03575f80fd5b813567ffffffffffffffff811115611f19575f80fd5b6112ee84828501611e69565b5f81518084528060208401602086015e5f6020828601015260207fffffffffffffffffffffffffffffffffffffffffffffffffffffffffffffffe0601f83011685010191505092915050565b5f73ffffffffffffffffffffffffffffffffffffffff8089168352876020840152808716604084015285606084015280851660808401525060c060a0830152611fbd60c0830184611f25565b98975050505050505050565b5f60208284031215611fd9575f80fd5b5051919050565b5f67ffffffffffffffff821115611ff957611ff9611da1565b5060051b60200190565b5f82601f830112612012575f80fd5b8135602061202761202283611fe0565b611e1a565b82815260059290921b84018101918181019086841115612045575f80fd5b8286015b8481101561215f57803567ffffffffffffffff80821115612068575f80fd5b908801906060828b037fffffffffffffffffffffffffffffffffffffffffffffffffffffffffffffffe001121561209d575f80fd5b6120a5611dce565b868301356120b281611c5d565b8152604083810135838111156120c6575f80fd5b8401603f81018d136120d6575f80fd5b888101356120e661202282611fe0565b81815260059190911b82018301908a8101908f831115612104575f80fd5b928401925b828410156121225783358252928b0192908b0190612109565b858c015250505060608401358381111561213a575f80fd5b6121488d8a83880101611e69565b918301919091525085525050918301918301612049565b509695505050505050565b5f6040823603121561217a575f80fd5b612182611df7565b823567ffffffffffffffff80821115612199575f80fd5b8185019150606082360312156121ad575f80fd5b6121b5611dce565b82356121c081611c5d565b815260208301356121d081611c5d565b60208201526040830135828111156121e6575f80fd5b6121f236828601611e69565b6040830152508352602085013591508082111561220d575f80fd5b5061221a36828601612003565b60208301525092915050565b5f815180845260208085019450602084015f5b8381101561225557815187529582019590820190600101612239565b509495945050505050565b5f6020808352606084516040808487015273ffffffffffffffffffffffffffffffffffffffff808351166060880152808584015116608088015260408301519250606060a08801526122b560c0880184611f25565b9250848801517fffffffffffffffffffffffffffffffffffffffffffffffffffffffffffffffe0808986030160408a01528482518087528887019150888160051b88010189850194505f5b82811015612358578489830301845285518781511683528b8101518b8d85015261232c8c850182612226565b918a0151848303858c01529190506123448183611f25565b978d0197958d019593505050600101612300565b509c9b505050505050505050505050565b5f8083357fffffffffffffffffffffffffffffffffffffffffffffffffffffffffffffffe184360301811261239c575f80fd5b83018035915067ffffffffffffffff8211156123b6575f80fd5b6020019150600581901b3603821315611993575f80fd5b7f4e487b71000000000000000000000000000000000000000000000000000000005f52603260045260245ffd5b5f82357fffffffffffffffffffffffffffffffffffffffffffffffffffffffffffffff8183360301811261242c575f80fd5b9190910192915050565b5f82357fffffffffffffffffffffffffffffffffffffffffffffffffffffffffffffff6183360301811261242c575f80fd5b5f8083357fffffffffffffffffffffffffffffffffffffffffffffffffffffffffffffffe184360301811261249b575f80fd5b83018035915067ffffffffffffffff8211156124b5575f80fd5b6020019150606081023603821315611993575f80fd5b5f602082840312156124db575f80fd5b8135610f7d81611c5d565b5f8083357fffffffffffffffffffffffffffffffffffffffffffffffffffffffffffffffe1843603018112612519575f80fd5b830160208101925035905067ffffffffffffffff811115612538575f80fd5b8060051b3603821315611993575f80fd5b5f82357fffffffffffffffffffffffffffffffffffffffffffffffffffffffffffffffa183360301811261257b575f80fd5b90910192915050565b5f8083357fffffffffffffffffffffffffffffffffffffffffffffffffffffffffffffffe18436030181126125b7575f80fd5b830160208101925035905067ffffffffffffffff8111156125d6575f80fd5b803603821315611993575f80fd5b81835281816020850137505f602082840101525f60207fffffffffffffffffffffffffffffffffffffffffffffffffffffffffffffffe0601f840116840101905092915050565b5f8083357fffffffffffffffffffffffffffffffffffffffffffffffffffffffffffffffe184360301811261265e575f80fd5b830160208101925035905067ffffffffffffffff81111561267d575f80fd5b606081023603821315611993575f80fd5b60ff81168114611c7e575f80fd5b8183525f60208085019450825f5b858110156122555781356126bd81611c5d565b73ffffffffffffffffffffffffffffffffffffffff168752818301356126e28161268e565b60ff168784015260408281013590880152606096870196909101906001016126aa565b8183526020808401935f91600585811b8301820185855b88811015612809577fffffffffffffffffffffffffffffffffffffffffffffffffffffffffffffffe0868403018a526127558289612549565b6060813561276281611c5d565b73ffffffffffffffffffffffffffffffffffffffff168552612786828801836124e6565b82898801528083880152608092507f07ffffffffffffffffffffffffffffffffffffffffffffffffffffffffffffff8111156127c0575f80fd5b871b8082888501378601905060406127da84820185612584565b94508388840301828901526127f284840186836125e4565b9e8a019e975050509387019350505060010161271c565b509098975050505050505050565b5f602080835260c083018435828501526040828601358186015260608187013581870152612847818801886124e6565b60a060808901528481865260e08901905060e08260051b8a01019550825f5b83811015612a4a577fffffffffffffffffffffffffffffffffffffffffffffffffffffffffffffff208b890301835281357fffffffffffffffffffffffffffffffffffffffffffffffffffffffffffffff818636030181126128c6575f80fd5b85018035368290037fffffffffffffffffffffffffffffffffffffffffffffffffffffffffffffff610181126128fa575f80fd5b60808a528101803561290b81611c5d565b73ffffffffffffffffffffffffffffffffffffffff80821660808d01526129348d840184612549565b915060a0808d0152813561294781611c5d565b81166101208d0152818d013561295c81611c5d565b166101408c015261296f818b0182612584565b9150896101608d01526129876101808d0183836125e4565b9150506129968a83018361262b565b7fffffffffffffffffffffffffffffffffffffffffffffffffffffffffffffff80808e85030160c08f01526129cc84838561269c565b93506129da8c86018661262b565b93509150808e85030160e08f0152506129f483838361269c565b9250505060808201356101008c01528b8301358c8c0152898301358a8c0152612a1f898401846124e6565b935091508a8103898c0152612a35818484612705565b9a505050928901925090880190600101612866565b50505050505050612a5e6080860186612584565b92507fffffffffffffffffffffffffffffffffffffffffffffffffffffffffffffffe08583030160a08601526118af8284836125e4565b5f8060408385031215612aa6575f80fd5b505080516020909101519092909150565b5f60208284031215612ac7575f80fd5b8151610f7d8161268e565b5f60208284031215612ae2575f80fd5b81518015158114610f7d575f80fd5b73ffffffffffffffffffffffffffffffffffffffff871681525f6020878184015260c06040840152612b2660c0840188611f25565b86606085015283810360808501528086518083528383019150838160051b8401018489015f5b83811015612b98577fffffffffffffffffffffffffffffffffffffffffffffffffffffffffffffffe0868403018552612b86838351612226565b94870194925090860190600101612b4c565b505086810360a0880152612bac8189612226565b9d9c50505050505050505050505050565b5f82601f830112612bcc575f80fd5b81516020612bdc61202283611fe0565b8083825260208201915060208460051b870101935086841115612bfd575f80fd5b602086015b8481101561215f5780518352918301918301612c02565b5f8060408385031215612c2a575f80fd5b825167ffffffffffffffff80821115612c41575f80fd5b612c4d86838701612bbd565b93506020850151915080821115612c62575f80fd5b50612c6f85828601612bbd565b9150509250929050565b828152604060208201525f6112ee6040830184612226565b7f4e487b71000000000000000000000000000000000000000000000000000000005f52601260045260245ffd5b7f4e487b71000000000000000000000000000000000000000000000000000000005f52601160045260245ffd5b808202811582820484141761024357610243612cbe565b600181815b80851115612d5b57817fffffffffffffffffffffffffffffffffffffffffffffffffffffffffffffffff04821115612d4157612d41612cbe565b80851615612d4e57918102915b93841c9390800290612d07565b509250929050565b5f82612d7157506001610243565b81612d7d57505f610243565b8160018114612d935760028114612d9d57612db9565b6001915050610243565b60ff841115612dae57612dae612cbe565b50506001821b610243565b5060208310610133831016604e8410600b8410161715612ddc575081810a610243565b612de68383612d02565b807fffffffffffffffffffffffffffffffffffffffffffffffffffffffffffffffff04821115612e1857612e18612cbe565b029392505050565b5f610f7d8383612d63565b5f82518060208501845e5f920191825250919050565b7f4e487b71000000000000000000000000000000000000000000000000000000005f52602160045260245ffd5b828152604060208201525f6112ee6040830184611f25565b602081525f610f7d6020830184611f2556","linkReferences":{}},"methodIdentifiers":{"arb3(address,(uint256,uint256,uint256,((address,(address,address,bytes),(address,uint8,uint256)[],(address,uint8,uint256)[],bytes32),uint256,uint256,(address,uint256[],bytes)[])[],bytes),((address,address,bytes),(address,uint256[],bytes)[]))":"7ea0b76a","iRouteProcessor()":"0f8cc55c","iTaskHash()":"93be095e","onTakeOrders(address,address,uint256,uint256,bytes)":"059bebe6","supportsInterface(bytes4)":"01ffc9a7"}}