{"abi":[{"type":"constructor","inputs":[{"name":"config","type":"tuple","internalType":"struct OrderBookV4ArbConfigV2","components":[{"name":"orderBook","type":"address","internalType":"address"},{"name":"task","type":"tuple","internalType":"struct TaskV1","components":[{"name":"evaluable","type":"tuple","internalType":"struct EvaluableV3","components":[{"name":"interpreter","type":"address","internalType":"contract IInterpreterV3"},{"name":"store","type":"address","internalType":"contract IInterpreterStoreV2"},{"name":"bytecode","type":"bytes","internalType":"bytes"}]},{"name":"signedContext","type":"tuple[]","internalType":"struct SignedContextV1[]","components":[{"name":"signer","type":"address","internalType":"address"},{"name":"context","type":"uint256[]","internalType":"uint256[]"},{"name":"signature","type":"bytes","internalType":"bytes"}]}]},{"name":"implementationData","type":"bytes","internalType":"bytes"}]}],"stateMutability":"nonpayable"},{"type":"fallback","stateMutability":"nonpayable"},{"type":"function","name":"arb3","inputs":[{"name":"orderBook","type":"address","internalType":"contract IOrderBookV4"},{"name":"takeOrders","type":"tuple","internalType":"struct TakeOrdersConfigV3","components":[{"name":"minimumInput","type":"uint256","internalType":"uint256"},{"name":"maximumInput","type":"uint256","internalType":"uint256"},{"name":"maximumIORatio","type":"uint256","internalType":"uint256"},{"name":"orders","type":"tuple[]","internalType":"struct TakeOrderConfigV3[]","components":[{"name":"order","type":"tuple","internalType":"struct OrderV3","components":[{"name":"owner","type":"address","internalType":"address"},{"name":"evaluable","type":"tuple","internalType":"struct EvaluableV3","components":[{"name":"interpreter","type":"address","internalType":"contract IInterpreterV3"},{"name":"store","type":"address","internalType":"contract IInterpreterStoreV2"},{"name":"bytecode","type":"bytes","internalType":"bytes"}]},{"name":"validInputs","type":"tuple[]","internalType":"struct IO[]","components":[{"name":"token","type":"address","internalType":"address"},{"name":"decimals","type":"uint8","internalType":"uint8"},{"name":"vaultId","type":"uint256","internalType":"uint256"}]},{"name":"validOutputs","type":"tuple[]","internalType":"struct IO[]","components":[{"name":"token","type":"address","internalType":"address"},{"name":"decimals","type":"uint8","internalType":"uint8"},{"name":"vaultId","type":"uint256","internalType":"uint256"}]},{"name":"nonce","type":"bytes32","internalType":"bytes32"}]},{"name":"inputIOIndex","type":"uint256","internalType":"uint256"},{"name":"outputIOIndex","type":"uint256","internalType":"uint256"},{"name":"signedContext","type":"tuple[]","internalType":"struct SignedContextV1[]","components":[{"name":"signer","type":"address","internalType":"address"},{"name":"context","type":"uint256[]","internalType":"uint256[]"},{"name":"signature","type":"bytes","internalType":"bytes"}]}]},{"name":"data","type":"bytes","internalType":"bytes"}]},{"name":"task","type":"tuple","internalType":"struct TaskV1","components":[{"name":"evaluable","type":"tuple","internalType":"struct EvaluableV3","components":[{"name":"interpreter","type":"address","internalType":"contract IInterpreterV3"},{"name":"store","type":"address","internalType":"contract IInterpreterStoreV2"},{"name":"bytecode","type":"bytes","internalType":"bytes"}]},{"name":"signedContext","type":"tuple[]","internalType":"struct SignedContextV1[]","components":[{"name":"signer","type":"address","internalType":"address"},{"name":"context","type":"uint256[]","internalType":"uint256[]"},{"name":"signature","type":"bytes","internalType":"bytes"}]}]}],"outputs":[],"stateMutability":"payable"},{"type":"function","name":"iRouteProcessor","inputs":[],"outputs":[{"name":"","type":"address","internalType":"contract IRouteProcessor"}],"stateMutability":"view"},{"type":"function","name":"iTaskHash","inputs":[],"outputs":[{"name":"","type":"bytes32","internalType":"bytes32"}],"stateMutability":"view"},{"type":"function","name":"onTakeOrders","inputs":[{"name":"inputToken","type":"address","internalType":"address"},{"name":"outputToken","type":"address","internalType":"address"},{"name":"inputAmountSent","type":"uint256","internalType":"uint256"},{"name":"totalOutputAmount","type":"uint256","internalType":"uint256"},{"name":"takeOrdersData","type":"bytes","internalType":"bytes"}],"outputs":[],"stateMutability":"nonpayable"},{"type":"function","name":"supportsInterface","inputs":[{"name":"interfaceId","type":"bytes4","internalType":"bytes4"}],"outputs":[{"name":"","type":"bool","internalType":"bool"}],"stateMutability":"view"},{"type":"event","name":"Construct","inputs":[{"name":"sender","type":"address","indexed":false,"internalType":"address"},{"name":"config","type":"tuple","indexed":false,"internalType":"struct OrderBookV4ArbConfigV2","components":[{"name":"orderBook","type":"address","internalType":"address"},{"name":"task","type":"tuple","internalType":"struct TaskV1","components":[{"name":"evaluable","type":"tuple","internalType":"struct EvaluableV3","components":[{"name":"interpreter","type":"address","internalType":"contract IInterpreterV3"},{"name":"store","type":"address","internalType":"contract IInterpreterStoreV2"},{"name":"bytecode","type":"bytes","internalType":"bytes"}]},{"name":"signedContext","type":"tuple[]","internalType":"struct SignedContextV1[]","components":[{"name":"signer","type":"address","internalType":"address"},{"name":"context","type":"uint256[]","internalType":"uint256[]"},{"name":"signature","type":"bytes","internalType":"bytes"}]}]},{"name":"implementationData","type":"bytes","internalType":"bytes"}]}],"anonymous":false},{"type":"error","name":"InvalidSignature","inputs":[{"name":"i","type":"uint256","internalType":"uint256"}]},{"type":"error","name":"NoOrders","inputs":[]},{"type":"error","name":"WrongTask","inputs":[]}],"bytecode":{"object":"0x60c0604052600060805234801561001557600080fd5b5060405161369d38038061369d83398101604081905261003491610396565b808060016000819055507f584f220334313e589a42a75ac60d4fa6ed5b02329a7255af822a0e4ac9cd5f1d338260405161006f92919061060f565b60405180910390a16020810151516040015151156100b65760208082015160405161009a920161066f565b60408051601f1981840301815291905280516020909101206080525b5050600081604001518060200190518101906100d29190610689565b6001600160a01b031660a052506106a69050565b634e487b7160e01b600052604160045260246000fd5b604051606081016001600160401b038111828210171561011e5761011e6100e6565b60405290565b604080519081016001600160401b038111828210171561011e5761011e6100e6565b604051601f8201601f191681016001600160401b038111828210171561016e5761016e6100e6565b604052919050565b6001600160a01b038116811461018b57600080fd5b50565b60005b838110156101a9578181015183820152602001610191565b50506000910152565b600082601f8301126101c357600080fd5b81516001600160401b038111156101dc576101dc6100e6565b6101ef601f8201601f1916602001610146565b81815284602083860101111561020457600080fd5b61021582602083016020870161018e565b949350505050565b60006001600160401b03821115610236576102366100e6565b5060051b60200190565b600082601f83011261025157600080fd5b815160206102666102618361021d565b610146565b82815260059290921b8401810191818101908684111561028557600080fd5b8286015b8481101561038b5780516001600160401b03808211156102a857600080fd5b908801906060828b03601f190112156102c15760008081fd5b6102c96100fc565b868301516102d681610176565b8152604083810151838111156102ec5760008081fd5b8401603f81018d136102fe5760008081fd5b8881015161030e6102618261021d565b81815260059190911b82018301908a8101908f83111561032e5760008081fd5b928401925b8284101561034c5783518252928b0192908b0190610333565b858c01525050506060840151838111156103665760008081fd5b6103748d8a838801016101b2565b918301919091525085525050918301918301610289565b509695505050505050565b600060208083850312156103a957600080fd5b82516001600160401b03808211156103c057600080fd5b90840190606082870312156103d457600080fd5b6103dc6100fc565b82516103e781610176565b815282840151828111156103fa57600080fd5b83016040818903121561040c57600080fd5b610414610124565b81518481111561042357600080fd5b82016060818b03121561043557600080fd5b61043d6100fc565b815161044881610176565b81528188015161045781610176565b8189015260408201518681111561046d57600080fd5b6104798c8285016101b2565b604083015250825250818601518481111561049357600080fd5b61049f8a828501610240565b87830152508086840152505060408301519350818411156104bf57600080fd5b6104cb878585016101b2565b60408201529695505050505050565b600081518084526104f281602086016020860161018e565b601f01601f19169290920160200192915050565b6000604082516040855260018060a01b03808251166040870152602080830151606083821660608a015260408501519450606060808a015261054b60a08a01866104da565b888401518a82038b86015280518083529196508401925083860190600581901b870185016000805b838110156105fd57898303601f19018552865180518a168452888101518985018890528051888601819052908a0190849060808701905b808310156105ca5783518252928c019260019290920191908c01906105aa565b508e84015193508681038f8801526105e281856104da565b96505050505087870196508785019450600181019050610573565b50909c9b505050505050505050505050565b6001600160a01b0383811682526040602080840182905284519092169083015282015160608083015260009061064860a0840182610506565b90506040840151603f1984830301608085015261066582826104da565b9695505050505050565b6020815260006106826020830184610506565b9392505050565b60006020828403121561069b57600080fd5b815161068281610176565b60805160a051612fa96106f46000396000818160cf0152818161026c015281816102ae0152818161030701526103c901526000818161013b0152818161040c015261045d0152612fa96000f3fe60806040526004361061005a5760003560e01c80630f8cc55c116100435780630f8cc55c146100bd5780637ea0b76a1461011657806393be095e146101295761005a565b806301ffc9a714610068578063059bebe61461009d575b34801561006657600080fd5b005b34801561007457600080fd5b50610088610083366004611c93565b61016b565b60405190151581526020015b60405180910390f35b3480156100a957600080fd5b506100666100b8366004611cfa565b610250565b3480156100c957600080fd5b506100f17f000000000000000000000000000000000000000000000000000000000000000081565b60405173ffffffffffffffffffffffffffffffffffffffff9091168152602001610094565b610066610124366004611da4565b6103f9565b34801561013557600080fd5b5061015d7f000000000000000000000000000000000000000000000000000000000000000081565b604051908152602001610094565b60007fffffffff0000000000000000000000000000000000000000000000000000000082167f059bebe60000000000000000000000000000000000000000000000000000000014806101fe57507fffffffff0000000000000000000000000000000000000000000000000000000082167f7ea0b76a00000000000000000000000000000000000000000000000000000000145b8061024a57507f01ffc9a7000000000000000000000000000000000000000000000000000000007fffffffff000000000000000000000000000000000000000000000000000000008316145b92915050565b61029273ffffffffffffffffffffffffffffffffffffffff87167f0000000000000000000000000000000000000000000000000000000000000000600061077f565b6102f373ffffffffffffffffffffffffffffffffffffffff87167f00000000000000000000000000000000000000000000000000000000000000007fffffffffffffffffffffffffffffffffffffffffffffffffffffffffffffffff61077f565b600061030182840184611f81565b905060007f000000000000000000000000000000000000000000000000000000000000000073ffffffffffffffffffffffffffffffffffffffff16632646478b89888a8930886040518763ffffffff1660e01b815260040161036896959493929190612024565b6020604051808303816000875af1158015610387573d6000803e3d6000fd5b505050506040513d601f19601f820116820180604052508101906103ab919061207d565b90506103ef73ffffffffffffffffffffffffffffffffffffffff89167f0000000000000000000000000000000000000000000000000000000000000000600061077f565b5050505050505050565b610401610984565b61040a8161222f565b7f00000000000000000000000000000000000000000000000000000000000000001580159061047f575080604051602001610445919061232d565b604051602081830303815290604052805190602001207f000000000000000000000000000000000000000000000000000000000000000014155b156104b6576040517f8812562900000000000000000000000000000000000000000000000000000000815260040160405180910390fd5b6104c36060840184612438565b90506000036104fe576040517f9c95219f00000000000000000000000000000000000000000000000000000000815260040160405180910390fd5b600061050d6060850185612438565b600081811061051e5761051e6124a0565b905060200281019061053091906124cf565b61053a908061250d565b610548906040810190612541565b6105556060870187612438565b6000818110610566576105666124a0565b905060200281019061057891906124cf565b6020013581811061058b5761058b6124a0565b6105a192602060609092020190810191506125a8565b905060006105b26060860186612438565b60008181106105c3576105c36124a0565b90506020028101906105d591906124cf565b6105df908061250d565b6105ed906060810190612541565b6105fa6060880188612438565b600081811061060b5761060b6124a0565b905060200281019061061d91906124cf565b60400135818110610630576106306124a0565b61064692602060609092020190810191506125a8565b905061066a73ffffffffffffffffffffffffffffffffffffffff831687600061077f565b6106ab73ffffffffffffffffffffffffffffffffffffffff8316877fffffffffffffffffffffffffffffffffffffffffffffffffffffffffffffffff61077f565b6000808773ffffffffffffffffffffffffffffffffffffffff16630997c4a0886040518263ffffffff1660e01b81526004016106e7919061290c565b60408051808303816000875af1158015610705573d6000803e3d6000fd5b505050506040513d601f19601f820116820180604052508101906107299190612b8e565b909250905061075073ffffffffffffffffffffffffffffffffffffffff851689600061077f565b61076361075c8761222f565b85856109f7565b50505050506107726001600055565b505050565b505050505050565b80158061081f57506040517fdd62ed3e00000000000000000000000000000000000000000000000000000000815230600482015273ffffffffffffffffffffffffffffffffffffffff838116602483015284169063dd62ed3e90604401602060405180830381865afa1580156107f9573d6000803e3d6000fd5b505050506040513d601f19601f8201168201806040525081019061081d919061207d565b155b6108b0576040517f08c379a000000000000000000000000000000000000000000000000000000000815260206004820152603660248201527f5361666545524332303a20617070726f76652066726f6d206e6f6e2d7a65726f60448201527f20746f206e6f6e2d7a65726f20616c6c6f77616e63650000000000000000000060648201526084015b60405180910390fd5b60405173ffffffffffffffffffffffffffffffffffffffff83166024820152604481018290526107729084907f095ea7b300000000000000000000000000000000000000000000000000000000906064015b604080517fffffffffffffffffffffffffffffffffffffffffffffffffffffffffffffffe08184030181529190526020810180517bffffffffffffffffffffffffffffffffffffffffffffffffffffffff167fffffffff0000000000000000000000000000000000000000000000000000000090931692909217909152610dcf565b6002600054036109f0576040517f08c379a000000000000000000000000000000000000000000000000000000000815260206004820152601f60248201527f5265656e7472616e637947756172643a207265656e7472616e742063616c6c0060448201526064016108a7565b6002600055565b604080516001808252818301909252600091816020015b6060815260200190600190039081610a0e575050604080516003808252608082019092529192506000919060208201606080368337019050506040517f70a0823100000000000000000000000000000000000000000000000000000000815230600482015290915060009073ffffffffffffffffffffffffffffffffffffffff8616906370a0823190602401602060405180830381865afa158015610ab7573d6000803e3d6000fd5b505050506040513d601f19601f82011682018060405250810190610adb919061207d565b90508015610b0457610b0473ffffffffffffffffffffffffffffffffffffffff86163383610ede565b60008573ffffffffffffffffffffffffffffffffffffffff1663313ce5676040518163ffffffff1660e01b8152600401602060405180830381865afa158015610b51573d6000803e3d6000fd5b505050506040513d601f19601f82011682018060405250810190610b759190612bb2565b60ff169050610b8682826000610f34565b83600081518110610b9957610b996124a0565b602090810291909101015250506040517f70a0823100000000000000000000000000000000000000000000000000000000815230600482015260009073ffffffffffffffffffffffffffffffffffffffff8516906370a0823190602401602060405180830381865afa158015610c13573d6000803e3d6000fd5b505050506040513d601f19601f82011682018060405250810190610c37919061207d565b90508015610c6057610c6073ffffffffffffffffffffffffffffffffffffffff85163383610ede565b60008473ffffffffffffffffffffffffffffffffffffffff1663313ce5676040518163ffffffff1660e01b8152600401602060405180830381865afa158015610cad573d6000803e3d6000fd5b505050506040513d601f19601f82011682018060405250810190610cd19190612bb2565b60ff169050610ce282826000610f34565b83600181518110610cf557610cf56124a0565b602090810291909101015250479050610d0e3382610fbc565b8082600281518110610d2257610d226124a0565b602002602001018181525050508082600081518110610d4357610d436124a0565b6020908102919091010152604080516001808252818301909252600091816020015b6040805160a08101825260009181018281526060808301939093526080820183905281526020810191909152815260200190600190039081610d655790505090508581600081518110610dba57610dba6124a0565b60200260200101819052506107778382611116565b6000610e31826040518060400160405280602081526020017f5361666545524332303a206c6f772d6c6576656c2063616c6c206661696c65648152508573ffffffffffffffffffffffffffffffffffffffff1661132d9092919063ffffffff16565b9050805160001480610e52575080806020019051810190610e529190612bcf565b610772576040517f08c379a000000000000000000000000000000000000000000000000000000000815260206004820152602a60248201527f5361666545524332303a204552433230206f7065726174696f6e20646964206e60448201527f6f7420737563636565640000000000000000000000000000000000000000000060648201526084016108a7565b60405173ffffffffffffffffffffffffffffffffffffffff83166024820152604481018290526107729084907fa9059cbb0000000000000000000000000000000000000000000000000000000090606401610902565b60008260121115610f695760128390036002831615610f5f57610f578582611344565b915050610fb5565b610f5785826113d1565b6012831115610fb2577fffffffffffffffffffffffffffffffffffffffffffffffffffffffffffffffee83016001831615610fa857610f578582611409565b610f578582611457565b50825b9392505050565b80471015611026576040517f08c379a000000000000000000000000000000000000000000000000000000000815260206004820152601d60248201527f416464726573733a20696e73756666696369656e742062616c616e636500000060448201526064016108a7565b60008273ffffffffffffffffffffffffffffffffffffffff168260405160006040518083038185875af1925050503d8060008114611080576040519150601f19603f3d011682016040523d82523d6000602084013e611085565b606091505b5050905080610772576040517f08c379a000000000000000000000000000000000000000000000000000000000815260206004820152603a60248201527f416464726573733a20756e61626c6520746f2073656e642076616c75652c207260448201527f6563697069656e74206d6179206861766520726576657274656400000000000060648201526084016108a7565b336111496040805160a0810182526000918101828152606080830193909352608082018390528152602081019190915290565b60005b835181101561132657838181518110611167576111676124a0565b60200260200101519150600082600001516040015151111561131e578151805160209182015160008681523090935260408320839273ffffffffffffffffffffffffffffffffffffffff169163d6e3357a9187600001516040015160006111d28d8b6020015161147a565b604080516000815260208101918290527fffffffff0000000000000000000000000000000000000000000000000000000060e089901b1690915261121e95949392919060248101612bf1565b600060405180830381865afa15801561123b573d6000803e3d6000fd5b505050506040513d6000823e601f3d9081017fffffffffffffffffffffffffffffffffffffffffffffffffffffffffffffffe01682016040526112819190810190612d1e565b805191935091501561131b578351602001516040517f946aadc600000000000000000000000000000000000000000000000000000000815273ffffffffffffffffffffffffffffffffffffffff9091169063946aadc6906112e89088908590600401612d82565b600060405180830381600087803b15801561130257600080fd5b505af1158015611316573d6000803e3d6000fd5b505050505b50505b60010161114c565b5050505050565b606061133c848460008561178a565b949350505050565b6000604e821061138457821561137a577fffffffffffffffffffffffffffffffffffffffffffffffffffffffffffffffff61137d565b60005b905061024a565b50600a81900a828102908381838161139e5761139e612d9b565b04146113ca577fffffffffffffffffffffffffffffffffffffffffffffffffffffffffffffffff61133c565b5092915050565b600a81900a6113e08184612df9565b9050604e821061024a578215611400576113fb82600a612f30565b610fb5565b60009392505050565b6000604e821061142d578215611420576001611423565b60005b60ff16905061024a565b600a82900a80848161144157611441612d9b565b04915080820284146113ca575060010192915050565b6000604e8210156114005781600a0a838161147457611474612d9b565b04610fb5565b60606000825167ffffffffffffffff81111561149857611498611e29565b6040519080825280602002602001820160405280156114c1578160200160208202803683370190505b5090506000808451116114d55760006114db565b83516001015b855160010101905060008167ffffffffffffffff8111156114fe576114fe611e29565b60405190808252806020026020018201604052801561153157816020015b606081526020019060019003908161151c5790505b5090506000611556604080516002815233602082015230818301526060810190915290565b828281518110611568576115686124a0565b602002602001018190525060005b87518110156115c6578180600101925050878181518110611599576115996124a0565b60200260200101518383815181106115b3576115b36124a0565b6020908102919091010152600101611576565b50855115611780578080600101915050838282815181106115e9576115e96124a0565b602002602001018190525060005b865181101561177e576116a8878281518110611615576116156124a0565b6020026020010151600001516116856116528a8581518110611639576116396124a0565b6020026020010151602001518051602090810291012090565b7f19457468657265756d205369676e6564204d6573736167653a0a3332000000006000908152601c91909152603c902090565b898481518110611697576116976124a0565b6020026020010151604001516118a3565b6116e1576040517f52bf9848000000000000000000000000000000000000000000000000000000008152600481018290526024016108a7565b8681815181106116f3576116f36124a0565b60200260200101516000015173ffffffffffffffffffffffffffffffffffffffff16858281518110611727576117276124a0565b602002602001018181525050818060010192505086818151811061174d5761174d6124a0565b60200260200101516020015183838151811061176b5761176b6124a0565b60209081029190910101526001016115f7565b505b5095945050505050565b60608247101561181c576040517f08c379a000000000000000000000000000000000000000000000000000000000815260206004820152602660248201527f416464726573733a20696e73756666696369656e742062616c616e636520666f60448201527f722063616c6c000000000000000000000000000000000000000000000000000060648201526084016108a7565b6000808673ffffffffffffffffffffffffffffffffffffffff1685876040516118459190612f3c565b60006040518083038185875af1925050503d8060008114611882576040519150601f19603f3d011682016040523d82523d6000602084013e611887565b606091505b50915091506118988783838761191e565b979650505050505050565b60008060006118b285856119be565b909250905060008160048111156118cb576118cb612f4e565b14801561190357508573ffffffffffffffffffffffffffffffffffffffff168273ffffffffffffffffffffffffffffffffffffffff16145b806119145750611914868686611a03565b9695505050505050565b606083156119b45782516000036119ad5773ffffffffffffffffffffffffffffffffffffffff85163b6119ad576040517f08c379a000000000000000000000000000000000000000000000000000000000815260206004820152601d60248201527f416464726573733a2063616c6c20746f206e6f6e2d636f6e747261637400000060448201526064016108a7565b508161133c565b61133c8383611b60565b60008082516041036119f45760208301516040840151606085015160001a6119e887828585611ba4565b945094505050506119fc565b506000905060025b9250929050565b60008060008573ffffffffffffffffffffffffffffffffffffffff16631626ba7e60e01b8686604051602401611a3a929190612f7d565b604080517fffffffffffffffffffffffffffffffffffffffffffffffffffffffffffffffe08184030181529181526020820180517bffffffffffffffffffffffffffffffffffffffffffffffffffffffff167fffffffff00000000000000000000000000000000000000000000000000000000909416939093179092529051611ac39190612f3c565b600060405180830381855afa9150503d8060008114611afe576040519150601f19603f3d011682016040523d82523d6000602084013e611b03565b606091505b5091509150818015611b1757506020815110155b8015611914575080517f1626ba7e0000000000000000000000000000000000000000000000000000000090611b55908301602090810190840161207d565b149695505050505050565b815115611b705781518083602001fd5b806040517f08c379a00000000000000000000000000000000000000000000000000000000081526004016108a79190612f96565b6000807f7fffffffffffffffffffffffffffffff5d576e7357a4501ddfe92f46681b20a0831115611bdb5750600090506003611c8a565b6040805160008082526020820180845289905260ff881692820192909252606081018690526080810185905260019060a0016020604051602081039080840390855afa158015611c2f573d6000803e3d6000fd5b50506040517fffffffffffffffffffffffffffffffffffffffffffffffffffffffffffffffe0015191505073ffffffffffffffffffffffffffffffffffffffff8116611c8357600060019250925050611c8a565b9150600090505b94509492505050565b600060208284031215611ca557600080fd5b81357fffffffff0000000000000000000000000000000000000000000000000000000081168114610fb557600080fd5b73ffffffffffffffffffffffffffffffffffffffff81168114611cf757600080fd5b50565b60008060008060008060a08789031215611d1357600080fd5b8635611d1e81611cd5565b95506020870135611d2e81611cd5565b94506040870135935060608701359250608087013567ffffffffffffffff80821115611d5957600080fd5b818901915089601f830112611d6d57600080fd5b813581811115611d7c57600080fd5b8a6020828501011115611d8e57600080fd5b6020830194508093505050509295509295509295565b600080600060608486031215611db957600080fd5b8335611dc481611cd5565b9250602084013567ffffffffffffffff80821115611de157600080fd5b9085019060a08288031215611df557600080fd5b90925060408501359080821115611e0b57600080fd5b50840160408187031215611e1e57600080fd5b809150509250925092565b7f4e487b7100000000000000000000000000000000000000000000000000000000600052604160045260246000fd5b6040516060810167ffffffffffffffff81118282101715611e7b57611e7b611e29565b60405290565b6040805190810167ffffffffffffffff81118282101715611e7b57611e7b611e29565b604051601f82017fffffffffffffffffffffffffffffffffffffffffffffffffffffffffffffffe016810167ffffffffffffffff81118282101715611eeb57611eeb611e29565b604052919050565b600082601f830112611f0457600080fd5b813567ffffffffffffffff811115611f1e57611f1e611e29565b611f4f60207fffffffffffffffffffffffffffffffffffffffffffffffffffffffffffffffe0601f84011601611ea4565b818152846020838601011115611f6457600080fd5b816020850160208301376000918101602001919091529392505050565b600060208284031215611f9357600080fd5b813567ffffffffffffffff811115611faa57600080fd5b61133c84828501611ef3565b60005b83811015611fd1578181015183820152602001611fb9565b50506000910152565b60008151808452611ff2816020860160208601611fb6565b601f017fffffffffffffffffffffffffffffffffffffffffffffffffffffffffffffffe0169290920160200192915050565b600073ffffffffffffffffffffffffffffffffffffffff8089168352876020840152808716604084015285606084015280851660808401525060c060a083015261207160c0830184611fda565b98975050505050505050565b60006020828403121561208f57600080fd5b5051919050565b600067ffffffffffffffff8211156120b0576120b0611e29565b5060051b60200190565b600082601f8301126120cb57600080fd5b813560206120e06120db83612096565b611ea4565b82815260059290921b840181019181810190868411156120ff57600080fd5b8286015b8481101561222457803567ffffffffffffffff8082111561212357600080fd5b908801906060828b037fffffffffffffffffffffffffffffffffffffffffffffffffffffffffffffffe001121561215a5760008081fd5b612162611e58565b8683013561216f81611cd5565b8152604083810135838111156121855760008081fd5b8401603f81018d136121975760008081fd5b888101356121a76120db82612096565b81815260059190911b82018301908a8101908f8311156121c75760008081fd5b928401925b828410156121e55783358252928b0192908b01906121cc565b858c01525050506060840135838111156121ff5760008081fd5b61220d8d8a83880101611ef3565b918301919091525085525050918301918301612103565b509695505050505050565b60006040823603121561224157600080fd5b612249611e81565b823567ffffffffffffffff8082111561226157600080fd5b81850191506060823603121561227657600080fd5b61227e611e58565b823561228981611cd5565b8152602083013561229981611cd5565b60208201526040830135828111156122b057600080fd5b6122bc36828601611ef3565b604083015250835260208501359150808211156122d857600080fd5b506122e5368286016120ba565b60208301525092915050565b60008151808452602080850194506020840160005b8381101561232257815187529582019590820190600101612306565b509495945050505050565b60006020808352606084516040808487015273ffffffffffffffffffffffffffffffffffffffff808351166060880152808584015116608088015260408301519250606060a088015261238360c0880184611fda565b9250848801517fffffffffffffffffffffffffffffffffffffffffffffffffffffffffffffffe0808986030160408a01528482518087528887019150888160051b880101898501945060005b82811015612427578489830301845285518781511683528b8101518b8d8501526123fb8c8501826122f1565b918a0151848303858c01529190506124138183611fda565b978d0197958d0195935050506001016123cf565b509c9b505050505050505050505050565b60008083357fffffffffffffffffffffffffffffffffffffffffffffffffffffffffffffffe184360301811261246d57600080fd5b83018035915067ffffffffffffffff82111561248857600080fd5b6020019150600581901b36038213156119fc57600080fd5b7f4e487b7100000000000000000000000000000000000000000000000000000000600052603260045260246000fd5b600082357fffffffffffffffffffffffffffffffffffffffffffffffffffffffffffffff8183360301811261250357600080fd5b9190910192915050565b600082357fffffffffffffffffffffffffffffffffffffffffffffffffffffffffffffff6183360301811261250357600080fd5b60008083357fffffffffffffffffffffffffffffffffffffffffffffffffffffffffffffffe184360301811261257657600080fd5b83018035915067ffffffffffffffff82111561259157600080fd5b60200191506060810236038213156119fc57600080fd5b6000602082840312156125ba57600080fd5b8135610fb581611cd5565b60008083357fffffffffffffffffffffffffffffffffffffffffffffffffffffffffffffffe18436030181126125fa57600080fd5b830160208101925035905067ffffffffffffffff81111561261a57600080fd5b8060051b36038213156119fc57600080fd5b600082357fffffffffffffffffffffffffffffffffffffffffffffffffffffffffffffffa183360301811261266057600080fd5b90910192915050565b60008083357fffffffffffffffffffffffffffffffffffffffffffffffffffffffffffffffe184360301811261269e57600080fd5b830160208101925035905067ffffffffffffffff8111156126be57600080fd5b8036038213156119fc57600080fd5b8183528181602085013750600060208284010152600060207fffffffffffffffffffffffffffffffffffffffffffffffffffffffffffffffe0601f840116840101905092915050565b60008083357fffffffffffffffffffffffffffffffffffffffffffffffffffffffffffffffe184360301811261274b57600080fd5b830160208101925035905067ffffffffffffffff81111561276b57600080fd5b6060810236038213156119fc57600080fd5b60ff81168114611cf757600080fd5b8183526000602080850194508260005b858110156123225781356127af81611cd5565b73ffffffffffffffffffffffffffffffffffffffff168752818301356127d48161277d565b60ff1687840152604082810135908801526060968701969091019060010161279c565b818352602080840193600091600585811b830182018585805b898110156128fd577fffffffffffffffffffffffffffffffffffffffffffffffffffffffffffffffe0878503018b52612849838a61262c565b6060813561285681611cd5565b73ffffffffffffffffffffffffffffffffffffffff16865261287a828901836125c5565b828a8901528083890152608092507f07ffffffffffffffffffffffffffffffffffffffffffffffffffffffffffffff8111156128b4578586fd5b881b8082898501378701905060406128ce84820185612669565b94508389840301828a01526128e684840186836126cd565b9f8b019f9850505094880194505050600101612810565b50919998505050505050505050565b6000602080835260c08301843582850152604082860135818601526060818701358187015261293d818801886125c5565b60a060808901528481865260e08901905060e08260051b8a010195508260005b83811015612b43577fffffffffffffffffffffffffffffffffffffffffffffffffffffffffffffff208b890301835281357fffffffffffffffffffffffffffffffffffffffffffffffffffffffffffffff818636030181126129be57600080fd5b85018035368290037fffffffffffffffffffffffffffffffffffffffffffffffffffffffffffffff610181126129f357600080fd5b60808a5281018035612a0481611cd5565b73ffffffffffffffffffffffffffffffffffffffff80821660808d0152612a2d8d84018461262c565b915060a0808d01528135612a4081611cd5565b81166101208d0152818d0135612a5581611cd5565b166101408c0152612a68818b0182612669565b9150896101608d0152612a806101808d0183836126cd565b915050612a8f8a830183612716565b7fffffffffffffffffffffffffffffffffffffffffffffffffffffffffffffff80808e85030160c08f0152612ac584838561278c565b9350612ad38c860186612716565b93509150808e85030160e08f015250612aed83838361278c565b9250505060808201356101008c01528b8301358c8c0152898301358a8c0152612b18898401846125c5565b935091508a8103898c0152612b2e8184846127f7565b9a50505092890192509088019060010161295d565b50505050505050612b576080860186612669565b92507fffffffffffffffffffffffffffffffffffffffffffffffffffffffffffffffe08583030160a08601526119148284836126cd565b60008060408385031215612ba157600080fd5b505080516020909101519092909150565b600060208284031215612bc457600080fd5b8151610fb58161277d565b600060208284031215612be157600080fd5b81518015158114610fb557600080fd5b73ffffffffffffffffffffffffffffffffffffffff8716815260006020878184015260c06040840152612c2760c0840188611fda565b86606085015283810360808501528086518083528383019150838160051b84010184890160005b83811015612c9a577fffffffffffffffffffffffffffffffffffffffffffffffffffffffffffffffe0868403018552612c888383516122f1565b94870194925090860190600101612c4e565b505086810360a0880152612cae81896122f1565b9d9c50505050505050505050505050565b600082601f830112612cd057600080fd5b81516020612ce06120db83612096565b8083825260208201915060208460051b870101935086841115612d0257600080fd5b602086015b848110156122245780518352918301918301612d07565b60008060408385031215612d3157600080fd5b825167ffffffffffffffff80821115612d4957600080fd5b612d5586838701612cbf565b93506020850151915080821115612d6b57600080fd5b50612d7885828601612cbf565b9150509250929050565b82815260406020820152600061133c60408301846122f1565b7f4e487b7100000000000000000000000000000000000000000000000000000000600052601260045260246000fd5b7f4e487b7100000000000000000000000000000000000000000000000000000000600052601160045260246000fd5b808202811582820484141761024a5761024a612dca565b600181815b80851115612e6957817fffffffffffffffffffffffffffffffffffffffffffffffffffffffffffffffff04821115612e4f57612e4f612dca565b80851615612e5c57918102915b93841c9390800290612e15565b509250929050565b600082612e805750600161024a565b81612e8d5750600061024a565b8160018114612ea35760028114612ead57612ec9565b600191505061024a565b60ff841115612ebe57612ebe612dca565b50506001821b61024a565b5060208310610133831016604e8410600b8410161715612eec575081810a61024a565b612ef68383612e10565b807fffffffffffffffffffffffffffffffffffffffffffffffffffffffffffffffff04821115612f2857612f28612dca565b029392505050565b6000610fb58383612e71565b60008251612503818460208701611fb6565b7f4e487b7100000000000000000000000000000000000000000000000000000000600052602160045260246000fd5b82815260406020820152600061133c6040830184611fda565b602081526000610fb56020830184611fda56","linkReferences":{}},"methodIdentifiers":{"arb3(address,(uint256,uint256,uint256,((address,(address,address,bytes),(address,uint8,uint256)[],(address,uint8,uint256)[],bytes32),uint256,uint256,(address,uint256[],bytes)[])[],bytes),((address,address,bytes),(address,uint256[],bytes)[]))":"7ea0b76a","iRouteProcessor()":"0f8cc55c","iTaskHash()":"93be095e","onTakeOrders(address,address,uint256,uint256,bytes)":"059bebe6","supportsInterface(bytes4)":"01ffc9a7"}}