{
  "abi": [
    {
      "inputs": [],
      "stateMutability": "nonpayable",
      "type": "constructor"
    },
    {
      "inputs": [
        {
          "internalType": "address",
          "name": "badInitiator",
          "type": "address"
        }
      ],
      "name": "BadInitiator",
      "type": "error"
    },
    {
      "inputs": [
        {
          "internalType": "address",
          "name": "badLender",
          "type": "address"
        }
      ],
      "name": "BadLender",
      "type": "error"
    },
    {
      "inputs": [],
      "name": "FlashLoanFailed",
      "type": "error"
    },
    {
      "inputs": [],
      "name": "Initializing",
      "type": "error"
    },
    {
      "inputs": [
        {
          "internalType": "uint256",
          "name": "i",
          "type": "uint256"
        }
      ],
      "name": "InvalidSignature",
      "type": "error"
    },
    {
      "anonymous": false,
      "inputs": [
        {
          "indexed": false,
          "internalType": "address",
          "name": "sender",
          "type": "address"
        },
        {
          "components": [
            {
              "internalType": "address",
              "name": "orderBook",
              "type": "address"
            },
            {
              "internalType": "address",
              "name": "zeroExExchangeProxy",
              "type": "address"
            },
            {
              "components": [
                {
                  "internalType": "contract IExpressionDeployerV1",
                  "name": "deployer",
                  "type": "address"
                },
                {
                  "internalType": "bytes[]",
                  "name": "sources",
                  "type": "bytes[]"
                },
                {
                  "internalType": "uint256[]",
                  "name": "constants",
                  "type": "uint256[]"
                }
              ],
              "internalType": "struct EvaluableConfig",
              "name": "evaluableConfig",
              "type": "tuple"
            }
          ],
          "indexed": false,
          "internalType": "struct ZeroExOrderBookFlashBorrowerConfig",
          "name": "config",
          "type": "tuple"
        }
      ],
      "name": "Initialize",
      "type": "event"
    },
    {
      "anonymous": false,
      "inputs": [
        {
          "indexed": false,
          "internalType": "uint8",
          "name": "version",
          "type": "uint8"
        }
      ],
      "name": "Initialized",
      "type": "event"
    },
    {
      "stateMutability": "nonpayable",
      "type": "fallback"
    },
    {
      "inputs": [
        {
          "components": [
            {
              "internalType": "address",
              "name": "output",
              "type": "address"
            },
            {
              "internalType": "address",
              "name": "input",
              "type": "address"
            },
            {
              "internalType": "uint256",
              "name": "minimumInput",
              "type": "uint256"
            },
            {
              "internalType": "uint256",
              "name": "maximumInput",
              "type": "uint256"
            },
            {
              "internalType": "uint256",
              "name": "maximumIORatio",
              "type": "uint256"
            },
            {
              "components": [
                {
                  "components": [
                    {
                      "internalType": "address",
                      "name": "owner",
                      "type": "address"
                    },
                    {
                      "internalType": "bool",
                      "name": "handleIO",
                      "type": "bool"
                    },
                    {
                      "components": [
                        {
                          "internalType": "contract IInterpreterV1",
                          "name": "interpreter",
                          "type": "address"
                        },
                        {
                          "internalType": "contract IInterpreterStoreV1",
                          "name": "store",
                          "type": "address"
                        },
                        {
                          "internalType": "address",
                          "name": "expression",
                          "type": "address"
                        }
                      ],
                      "internalType": "struct Evaluable",
                      "name": "evaluable",
                      "type": "tuple"
                    },
                    {
                      "components": [
                        {
                          "internalType": "address",
                          "name": "token",
                          "type": "address"
                        },
                        {
                          "internalType": "uint8",
                          "name": "decimals",
                          "type": "uint8"
                        },
                        {
                          "internalType": "uint256",
                          "name": "vaultId",
                          "type": "uint256"
                        }
                      ],
                      "internalType": "struct IO[]",
                      "name": "validInputs",
                      "type": "tuple[]"
                    },
                    {
                      "components": [
                        {
                          "internalType": "address",
                          "name": "token",
                          "type": "address"
                        },
                        {
                          "internalType": "uint8",
                          "name": "decimals",
                          "type": "uint8"
                        },
                        {
                          "internalType": "uint256",
                          "name": "vaultId",
                          "type": "uint256"
                        }
                      ],
                      "internalType": "struct IO[]",
                      "name": "validOutputs",
                      "type": "tuple[]"
                    }
                  ],
                  "internalType": "struct Order",
                  "name": "order",
                  "type": "tuple"
                },
                {
                  "internalType": "uint256",
                  "name": "inputIOIndex",
                  "type": "uint256"
                },
                {
                  "internalType": "uint256",
                  "name": "outputIOIndex",
                  "type": "uint256"
                },
                {
                  "components": [
                    {
                      "internalType": "address",
                      "name": "signer",
                      "type": "address"
                    },
                    {
                      "internalType": "uint256[]",
                      "name": "context",
                      "type": "uint256[]"
                    },
                    {
                      "internalType": "bytes",
                      "name": "signature",
                      "type": "bytes"
                    }
                  ],
                  "internalType": "struct SignedContextV1[]",
                  "name": "signedContext",
                  "type": "tuple[]"
                }
              ],
              "internalType": "struct TakeOrderConfig[]",
              "name": "orders",
              "type": "tuple[]"
            }
          ],
          "internalType": "struct TakeOrdersConfig",
          "name": "takeOrders_",
          "type": "tuple"
        },
        {
          "internalType": "address",
          "name": "zeroExSpender_",
          "type": "address"
        },
        {
          "internalType": "bytes",
          "name": "zeroExData_",
          "type": "bytes"
        }
      ],
      "name": "arb",
      "outputs": [],
      "stateMutability": "nonpayable",
      "type": "function"
    },
    {
      "inputs": [
        {
          "internalType": "bytes",
          "name": "data_",
          "type": "bytes"
        }
      ],
      "name": "initialize",
      "outputs": [],
      "stateMutability": "nonpayable",
      "type": "function"
    },
    {
      "inputs": [
        {
          "internalType": "address",
          "name": "initiator_",
          "type": "address"
        },
        {
          "internalType": "address",
          "name": "",
          "type": "address"
        },
        {
          "internalType": "uint256",
          "name": "",
          "type": "uint256"
        },
        {
          "internalType": "uint256",
          "name": "",
          "type": "uint256"
        },
        {
          "internalType": "bytes",
          "name": "data_",
          "type": "bytes"
        }
      ],
      "name": "onFlashLoan",
      "outputs": [
        {
          "internalType": "bytes32",
          "name": "",
          "type": "bytes32"
        }
      ],
      "stateMutability": "nonpayable",
      "type": "function"
    },
    {
      "inputs": [],
      "name": "orderBook",
      "outputs": [
        {
          "internalType": "contract IOrderBookV2",
          "name": "",
          "type": "address"
        }
      ],
      "stateMutability": "view",
      "type": "function"
    },
    {
      "inputs": [],
      "name": "zeroExExchangeProxy",
      "outputs": [
        {
          "internalType": "address",
          "name": "",
          "type": "address"
        }
      ],
      "stateMutability": "view",
      "type": "function"
    }
  ],
  "bytecode": {
    "object": "0x60806040523480156200001157600080fd5b5060016000556200002162000027565b620000e9565b600154610100900460ff1615620000945760405162461bcd60e51b815260206004820152602760248201527f496e697469616c697a61626c653a20636f6e747261637420697320696e697469604482015266616c697a696e6760c81b606482015260840160405180910390fd5b60015460ff9081161015620000e7576001805460ff191660ff9081179091556040519081527f7f26b83ff96e1f2b6a682f133852f6798a09c465da95921460cefb38474024989060200160405180910390a15b565b61345280620000f96000396000f3fe608060405234801561001057600080fd5b50600436106100675760003560e01c8063776af5ba11610050578063776af5ba146100e457806391511a421461012f578063dd883ebc1461014f57610067565b806323e30c8b146100ab578063439fab91146100d1575b600154610100900460ff16156100a9576040517f4e8f6c4400000000000000000000000000000000000000000000000000000000815260040160405180910390fd5b005b6100be6100b9366004611ced565b610162565b6040519081526020015b60405180910390f35b6100a96100df366004611f15565b61037e565b60015461010a9062010000900473ffffffffffffffffffffffffffffffffffffffff1681565b60405173ffffffffffffffffffffffffffffffffffffffff90911681526020016100c8565b60025461010a9073ffffffffffffffffffffffffffffffffffffffff1681565b6100a961015d366004611f4a565b61078f565b600154600090610100900460ff16156101a7576040517f4e8f6c4400000000000000000000000000000000000000000000000000000000815260040160405180910390fd5b60015462010000900473ffffffffffffffffffffffffffffffffffffffff163314610205576040517f0bc3cde00000000000000000000000000000000000000000000000000000000081523360048201526024015b60405180910390fd5b73ffffffffffffffffffffffffffffffffffffffff8716301461026c576040517f8b1f7c6400000000000000000000000000000000000000000000000000000000815273ffffffffffffffffffffffffffffffffffffffff881660048201526024016101fc565b60008061027b84860186612289565b60025491935091506000906102a79073ffffffffffffffffffffffffffffffffffffffff168347610db6565b6001546040517f7a8048df000000000000000000000000000000000000000000000000000000008152919250600091829162010000900473ffffffffffffffffffffffffffffffffffffffff1690637a8048df906103099088906004016126c0565b60408051808303816000875af1158015610327573d6000803e3d6000fd5b505050506040513d601f19601f8201168201806040525081019061034b9190612858565b507f439148f0bbc682ca079e46d6e2c2f0c1e3b820f1a291b069d8882abf8cf18dd99d9c50505050505050505050505050565b600154610100900460ff161580801561039b57506001805460ff16105b806103b45750303b1580156103b457506001805460ff16145b610440576040517f08c379a000000000000000000000000000000000000000000000000000000000815260206004820152602e60248201527f496e697469616c697a61626c653a20636f6e747261637420697320616c72656160448201527f647920696e697469616c697a656400000000000000000000000000000000000060648201526084016101fc565b600180547fffffffffffffffffffffffffffffffffffffffffffffffffffffffffffffff001681179055801561049d57600180547fffffffffffffffffffffffffffffffffffffffffffffffffffffffffffff00ff166101001790555b6104a5610de6565b6000828060200190518101906104bb91906128d7565b8051600180547fffffffffffffffffffff0000000000000000000000000000000000000000ffff166201000073ffffffffffffffffffffffffffffffffffffffff938416021790556020820151600280547fffffffffffffffffffffffff000000000000000000000000000000000000000016919092161790556040519091507f7c911b2796549101f28f35bc2f844ff2b78347bf41cb4a0303cb8c5adb1be8ed9061056a9033908490612abf565b60405180910390a16000816040015160200151511180156105ae575060008160400151602001516000815181106105a3576105a3612b6f565b602002602001015151115b1561071e5760408051600180825281830190925260009182919060208083019080368337019050509050600081600061ffff16815181106105f1576105f1612b6f565b6020908102919091018101919091526040808501518051928101519082015191517f5511cb6700000000000000000000000000000000000000000000000000000000815273ffffffffffffffffffffffffffffffffffffffff90931692635511cb679261066392918690600401612b9e565b6060604051808303816000875af1158015610682573d6000803e3d6000fd5b505050506040513d601f19601f820116820180604052508101906106a69190612bd7565b600480547fffffffffffffffffffffffff000000000000000000000000000000000000000090811673ffffffffffffffffffffffffffffffffffffffff94851617909155600380549091169390921692909217905560201b77ffffffffffffffffffffffffffffffffffffffff000000001660055550505b506107296001600055565b801561078b57600180547fffffffffffffffffffffffffffffffffffffffffffffffffffffffffffff00ff1681556040519081527f7f26b83ff96e1f2b6a682f133852f6798a09c465da95921460cefb38474024989060200160405180910390a15b5050565b610797610de6565b600154610100900460ff16156107d9576040517f4e8f6c4400000000000000000000000000000000000000000000000000000000815260040160405180910390fd5b60008483836040516020016107f093929190612f17565b604051602081830303815290604052905060008560200160208101906108169190613187565b6005549091506040870135908015610a1f57600354600454600091829173ffffffffffffffffffffffffffffffffffffffff91821691636715f825911683866108f68260405190808252806020026020018201604052801561088c57816020015b60608152602001906001900390816108775790505b5060408051600080825260208201909252906108f0565b6108dd6040518060600160405280600073ffffffffffffffffffffffffffffffffffffffff16815260200160608152602001606081525090565b8152602001906001900390816108a35790505b50610e59565b6040518563ffffffff1660e01b815260040161091594939291906131a4565b600060405180830381865afa158015610932573d6000803e3d6000fd5b505050506040513d6000823e601f3d9081017fffffffffffffffffffffffffffffffffffffffffffffffffffffffffffffffe01682016040526109789190810190613250565b91509150815160001461098a57600080fd5b805115610a1c57600480546040517f946aadc600000000000000000000000000000000000000000000000000000000815273ffffffffffffffffffffffffffffffffffffffff9091169163946aadc6916109e9916000918691016132b4565b600060405180830381600087803b158015610a0357600080fd5b505af1158015610a17573d6000803e3d6000fd5b505050505b50505b600154610a6e9062010000900473ffffffffffffffffffffffffffffffffffffffff166000610a5160208c018c613187565b73ffffffffffffffffffffffffffffffffffffffff169190611173565b600154610adc9062010000900473ffffffffffffffffffffffffffffffffffffffff167fffffffffffffffffffffffffffffffffffffffffffffffffffffffffffffffff610abf60208c018c613187565b73ffffffffffffffffffffffffffffffffffffffff169190611378565b610af2876000610a5160408c0160208d01613187565b610b27877fffffffffffffffffffffffffffffffffffffffffffffffffffffffffffffffff610abf60408c0160208d01613187565b6001546040517f5cffe9de0000000000000000000000000000000000000000000000000000000081526201000090910473ffffffffffffffffffffffffffffffffffffffff1690635cffe9de90610b88903090879087908a906004016132cd565b6020604051808303816000875af1158015610ba7573d6000803e3d6000fd5b505050506040513d601f19601f82011682018060405250810190610bcb919061330c565b610c01576040517f92111eb200000000000000000000000000000000000000000000000000000000815260040160405180910390fd5b6000610c1360408a0160208b01613187565b6040517f70a0823100000000000000000000000000000000000000000000000000000000815230600482015273ffffffffffffffffffffffffffffffffffffffff91909116906370a0823190602401602060405180830381865afa158015610c7f573d6000803e3d6000fd5b505050506040513d601f19601f82011682018060405250810190610ca39190613329565b90508015610cdd57610cdd3382610cc060408d0160208e01613187565b73ffffffffffffffffffffffffffffffffffffffff169190611476565b6000610cec60208b018b613187565b6040517f70a0823100000000000000000000000000000000000000000000000000000000815230600482015273ffffffffffffffffffffffffffffffffffffffff91909116906370a0823190602401602060405180830381865afa158015610d58573d6000803e3d6000fd5b505050506040513d601f19601f82011682018060405250810190610d7c9190613329565b90508015610d9657610d963382610cc060208e018e613187565b610da033476114cc565b505050505050610db06001600055565b50505050565b6060610ddc8484846040518060600160405280602981526020016133f460299139611626565b90505b9392505050565b600260005403610e52576040517f08c379a000000000000000000000000000000000000000000000000000000000815260206004820152601f60248201527f5265656e7472616e637947756172643a207265656e7472616e742063616c6c0060448201526064016101fc565b6002600055565b60606000825167ffffffffffffffff811115610e7757610e77611d69565b604051908082528060200260200182016040528015610ea0578160200160208202803683370190505b509050600080845111610eb4576000610eba565b83516001015b855160010101905060008167ffffffffffffffff811115610edd57610edd611d69565b604051908082528060200260200182016040528015610f1057816020015b6060815260200190600190039081610efb5790505b5090506000610f1d611741565b828281518110610f2f57610f2f612b6f565b602002602001018190525060005b8751811015610f8d578180600101925050878181518110610f6057610f60612b6f565b6020026020010151838381518110610f7a57610f7a612b6f565b6020908102919091010152600101610f3d565b5085511561116757808060010191505083828281518110610fb057610fb0612b6f565b602002602001018190525060005b86518110156111655761108f878281518110610fdc57610fdc612b6f565b60200260200101516000015161106c6110198a858151811061100057611000612b6f565b6020026020010151602001518051602090810291012090565b6040517f19457468657265756d205369676e6564204d6573736167653a0a3332000000006020820152603c8101829052600090605c01604051602081830303815290604052805190602001209050919050565b89848151811061107e5761107e612b6f565b602002602001015160400151611752565b6110c8576040517f52bf9848000000000000000000000000000000000000000000000000000000008152600481018290526024016101fc565b8681815181106110da576110da612b6f565b60200260200101516000015173ffffffffffffffffffffffffffffffffffffffff1685828151811061110e5761110e612b6f565b602002602001018181525050818060010192505086818151811061113457611134612b6f565b60200260200101516020015183838151811061115257611152612b6f565b6020908102919091010152600101610fbe565b505b50925050505b92915050565b80158061121357506040517fdd62ed3e00000000000000000000000000000000000000000000000000000000815230600482015273ffffffffffffffffffffffffffffffffffffffff838116602483015284169063dd62ed3e90604401602060405180830381865afa1580156111ed573d6000803e3d6000fd5b505050506040513d601f19601f820116820180604052508101906112119190613329565b155b61129f576040517f08c379a000000000000000000000000000000000000000000000000000000000815260206004820152603660248201527f5361666545524332303a20617070726f76652066726f6d206e6f6e2d7a65726f60448201527f20746f206e6f6e2d7a65726f20616c6c6f77616e63650000000000000000000060648201526084016101fc565b60405173ffffffffffffffffffffffffffffffffffffffff83166024820152604481018290526113739084907f095ea7b300000000000000000000000000000000000000000000000000000000906064015b604080517fffffffffffffffffffffffffffffffffffffffffffffffffffffffffffffffe08184030181529190526020810180517bffffffffffffffffffffffffffffffffffffffffffffffffffffffff167fffffffff000000000000000000000000000000000000000000000000000000009093169290921790915261191f565b505050565b6040517fdd62ed3e00000000000000000000000000000000000000000000000000000000815230600482015273ffffffffffffffffffffffffffffffffffffffff8381166024830152600091839186169063dd62ed3e90604401602060405180830381865afa1580156113ef573d6000803e3d6000fd5b505050506040513d601f19601f820116820180604052508101906114139190613329565b61141d9190613342565b60405173ffffffffffffffffffffffffffffffffffffffff8516602482015260448101829052909150610db09085907f095ea7b300000000000000000000000000000000000000000000000000000000906064016112f1565b60405173ffffffffffffffffffffffffffffffffffffffff83166024820152604481018290526113739084907fa9059cbb00000000000000000000000000000000000000000000000000000000906064016112f1565b80471015611536576040517f08c379a000000000000000000000000000000000000000000000000000000000815260206004820152601d60248201527f416464726573733a20696e73756666696369656e742062616c616e636500000060448201526064016101fc565b60008273ffffffffffffffffffffffffffffffffffffffff168260405160006040518083038185875af1925050503d8060008114611590576040519150601f19603f3d011682016040523d82523d6000602084013e611595565b606091505b5050905080611373576040517f08c379a000000000000000000000000000000000000000000000000000000000815260206004820152603a60248201527f416464726573733a20756e61626c6520746f2073656e642076616c75652c207260448201527f6563697069656e74206d6179206861766520726576657274656400000000000060648201526084016101fc565b6060824710156116b8576040517f08c379a000000000000000000000000000000000000000000000000000000000815260206004820152602660248201527f416464726573733a20696e73756666696369656e742062616c616e636520666f60448201527f722063616c6c000000000000000000000000000000000000000000000000000060648201526084016101fc565b6000808673ffffffffffffffffffffffffffffffffffffffff1685876040516116e1919061337c565b60006040518083038185875af1925050503d806000811461171e576040519150601f19603f3d011682016040523d82523d6000602084013e611723565b606091505b509150915061173487838387611a2b565b925050505b949350505050565b606061174d3330611acb565b905090565b60008060006117618585611aff565b9092509050600081600481111561177a5761177a613398565b1480156117b257508573ffffffffffffffffffffffffffffffffffffffff168273ffffffffffffffffffffffffffffffffffffffff16145b156117c257600192505050610ddf565b6000808773ffffffffffffffffffffffffffffffffffffffff16631626ba7e60e01b88886040516024016117f79291906133c7565b604080517fffffffffffffffffffffffffffffffffffffffffffffffffffffffffffffffe08184030181529181526020820180517bffffffffffffffffffffffffffffffffffffffffffffffffffffffff167fffffffff00000000000000000000000000000000000000000000000000000000909416939093179092529051611880919061337c565b600060405180830381855afa9150503d80600081146118bb576040519150601f19603f3d011682016040523d82523d6000602084013e6118c0565b606091505b50915091508180156118d3575080516020145b8015611913575080517f1626ba7e00000000000000000000000000000000000000000000000000000000906119119083016020908101908401613329565b145b98975050505050505050565b6000611981826040518060400160405280602081526020017f5361666545524332303a206c6f772d6c6576656c2063616c6c206661696c65648152508573ffffffffffffffffffffffffffffffffffffffff16611b449092919063ffffffff16565b805190915015611373578080602001905181019061199f919061330c565b611373576040517f08c379a000000000000000000000000000000000000000000000000000000000815260206004820152602a60248201527f5361666545524332303a204552433230206f7065726174696f6e20646964206e60448201527f6f7420737563636565640000000000000000000000000000000000000000000060648201526084016101fc565b60608315611ac1578251600003611aba5773ffffffffffffffffffffffffffffffffffffffff85163b611aba576040517f08c379a000000000000000000000000000000000000000000000000000000000815260206004820152601d60248201527f416464726573733a2063616c6c20746f206e6f6e2d636f6e747261637400000060448201526064016101fc565b5081611739565b6117398383611b53565b6040805160028082526060808301845292600092919060208301908036833750505060208101949094525050604082015290565b6000808251604103611b355760208301516040840151606085015160001a611b2987828585611b97565b94509450505050611b3d565b506000905060025b9250929050565b6060610ddc8484600085611626565b815115611b635781518083602001fd5b806040517f08c379a00000000000000000000000000000000000000000000000000000000081526004016101fc91906133e0565b6000807f7fffffffffffffffffffffffffffffff5d576e7357a4501ddfe92f46681b20a0831115611bce5750600090506003611c7d565b6040805160008082526020820180845289905260ff881692820192909252606081018690526080810185905260019060a0016020604051602081039080840390855afa158015611c22573d6000803e3d6000fd5b50506040517fffffffffffffffffffffffffffffffffffffffffffffffffffffffffffffffe0015191505073ffffffffffffffffffffffffffffffffffffffff8116611c7657600060019250925050611c7d565b9150600090505b94509492505050565b73ffffffffffffffffffffffffffffffffffffffff81168114611ca857600080fd5b50565b60008083601f840112611cbd57600080fd5b50813567ffffffffffffffff811115611cd557600080fd5b602083019150836020828501011115611b3d57600080fd5b60008060008060008060a08789031215611d0657600080fd5b8635611d1181611c86565b95506020870135611d2181611c86565b94506040870135935060608701359250608087013567ffffffffffffffff811115611d4b57600080fd5b611d5789828a01611cab565b979a9699509497509295939492505050565b7f4e487b7100000000000000000000000000000000000000000000000000000000600052604160045260246000fd5b6040516060810167ffffffffffffffff81118282101715611dbb57611dbb611d69565b60405290565b60405160c0810167ffffffffffffffff81118282101715611dbb57611dbb611d69565b6040516080810167ffffffffffffffff81118282101715611dbb57611dbb611d69565b60405160a0810167ffffffffffffffff81118282101715611dbb57611dbb611d69565b604051601f82017fffffffffffffffffffffffffffffffffffffffffffffffffffffffffffffffe016810167ffffffffffffffff81118282101715611e7157611e71611d69565b604052919050565b600067ffffffffffffffff821115611e9357611e93611d69565b50601f017fffffffffffffffffffffffffffffffffffffffffffffffffffffffffffffffe01660200190565b600082601f830112611ed057600080fd5b8135611ee3611ede82611e79565b611e2a565b818152846020838601011115611ef857600080fd5b816020850160208301376000918101602001919091529392505050565b600060208284031215611f2757600080fd5b813567ffffffffffffffff811115611f3e57600080fd5b61173984828501611ebf565b60008060008060608587031215611f6057600080fd5b843567ffffffffffffffff80821115611f7857600080fd5b9086019060c08289031215611f8c57600080fd5b909450602086013590611f9e82611c86565b90935060408601359080821115611fb457600080fd5b50611fc187828801611cab565b95989497509550505050565b600067ffffffffffffffff821115611fe757611fe7611d69565b5060051b60200190565b8015158114611ca857600080fd5b803561200a81611ff1565b919050565b60006060828403121561202157600080fd5b612029611d98565b9050813561203681611c86565b8152602082013561204681611c86565b6020820152604082013561205981611c86565b604082015292915050565b803560ff8116811461200a57600080fd5b600082601f83011261208657600080fd5b81356020612096611ede83611fcd565b828152606092830285018201928282019190878511156120b557600080fd5b8387015b8581101561210c5781818a0312156120d15760008081fd5b6120d9611d98565b81356120e481611c86565b81526120f1828701612064565b818701526040828101359082015284529284019281016120b9565b5090979650505050505050565b600082601f83011261212a57600080fd5b8135602061213a611ede83611fcd565b82815260059290921b8401810191818101908684111561215957600080fd5b8286015b8481101561227e57803567ffffffffffffffff8082111561217d57600080fd5b908801906060828b037fffffffffffffffffffffffffffffffffffffffffffffffffffffffffffffffe00112156121b45760008081fd5b6121bc611d98565b868301356121c981611c86565b8152604083810135838111156121df5760008081fd5b8401603f81018d136121f15760008081fd5b88810135612201611ede82611fcd565b81815260059190911b82018301908a8101908f8311156122215760008081fd5b928401925b8284101561223f5783358252928b0192908b0190612226565b858c01525050506060840135838111156122595760008081fd5b6122678d8a83880101611ebf565b91830191909152508552505091830191830161215d565b509695505050505050565b6000806040838503121561229c57600080fd5b67ffffffffffffffff80843511156122b357600080fd5b8335840160c081870312156122c757600080fd5b6122cf611dc1565b6122d98235611c86565b813581526122ea6020830135611c86565b602082013560208201526040820135604082015260608201356060820152608082013560808201528260a0830135111561232357600080fd5b60a08201358201915086601f83011261233b57600080fd5b612348611ede8335611fcd565b82358082526020808301929160051b85010189101561236657600080fd5b602084015b6020853560051b8601018110156124e757858135111561238a57600080fd5b7fffffffffffffffffffffffffffffffffffffffffffffffffffffffffffffffe0608081833588018d030112156123c057600080fd5b6123c8611de4565b87602084358901013511156123dc57600080fd5b8235870160208101350160e0818e03840112156123f857600080fd5b612400611e07565b925061240f6020820135611c86565b6020810135835261242260408201611fff565b60208401526124348d6060830161200f565b60408401528860c0820135111561244a57600080fd5b61245d8d602060c0840135840101612075565b60608401528860e0820135111561247357600080fd5b6124868d602060e0840135840101612075565b608084015250818152604083358801013560208201526060833588010135604082015287608084358901013511156124bd57600080fd5b6124d38c84358901608081013501602001612119565b60608201528452506020928301920161236b565b5060a083015250935050602084013581101561250257600080fd5b506125138460208501358501611ebf565b90509250929050565b600081518084526020808501945080840160005b8381101561257b578151805173ffffffffffffffffffffffffffffffffffffffff1688528381015160ff16848901526040908101519088015260609096019590820190600101612530565b509495945050505050565b600081518084526020808501945080840160005b8381101561257b5781518752958201959082019060010161259a565b60005b838110156125d15781810151838201526020016125b9565b50506000910152565b600081518084526125f28160208601602086016125b6565b601f017fffffffffffffffffffffffffffffffffffffffffffffffffffffffffffffffe0169290920160200192915050565b600081518084526020808501808196508360051b8101915082860160005b858110156126b35782840389528151606073ffffffffffffffffffffffffffffffffffffffff825116865286820151818888015261268282880182612586565b9150506040808301519250868203818801525061269f81836125da565b9a87019a9550505090840190600101612642565b5091979650505050505050565b6000602080835260e080840173ffffffffffffffffffffffffffffffffffffffff808751168487015283870151604082821681890152808901519150606082818a0152808a01519250608083818b0152808b015193508360a08b015260a08b0151935060c0808b01528584518088526101009750878c019150878160051b8d01018a8701965060005b82811015612846578d82037fffffffffffffffffffffffffffffffffffffffffffffffffffffffffffffff000184528751805186845280518b16878501528d810151151560a08501528881015180518c1660c0860152808f01518c168e8601528901518b168c8501528781015161012085018e90526127cc61016086018261251c565b918801518583037fffffffffffffffffffffffffffffffffffffffffffffffffffffffffffffff8001610140870152919050612808818361251c565b9150508d8201518e8501528882015189850152878201519150838103888501526128328183612624565b998e0199958e019593505050600101612749565b509d9c50505050505050505050505050565b6000806040838503121561286b57600080fd5b505080516020909101519092909150565b600082601f83011261288d57600080fd5b8151602061289d611ede83611fcd565b82815260059290921b840181019181810190868411156128bc57600080fd5b8286015b8481101561227e57805183529183019183016128c0565b600060208083850312156128ea57600080fd5b825167ffffffffffffffff8082111561290257600080fd5b908401906060828703121561291657600080fd5b61291e611d98565b825161292981611c86565b81528284015161293881611c86565b8185015260408301518281111561294e57600080fd5b92909201916060838803121561296357600080fd5b61296b611d98565b835161297681611c86565b8152838501518381111561298957600080fd5b8401601f8101891361299a57600080fd5b80516129a8611ede82611fcd565b81815260059190911b8201870190878101908b8311156129c757600080fd5b8884015b83811015612a37578051888111156129e257600080fd5b8501603f81018e136129f357600080fd5b8a810151612a03611ede82611e79565b8181528f6040838501011115612a1857600080fd5b612a28828e8301604086016125b6565b855250509189019189016129cb565b508089860152505050506040840151945082851115612a5557600080fd5b612a618886860161287c565b6040828101919091528201529695505050505050565b600081518084526020808501808196508360051b8101915082860160005b858110156126b3578284038952612aad8483516125da565b98850198935090840190600101612a95565b600073ffffffffffffffffffffffffffffffffffffffff8085168352604060208401528084511660408401528060208501511660608401526040840151606060808501528181511660a085015260208101519150606060c0850152612b28610100850183612a77565b9150604081015190507fffffffffffffffffffffffffffffffffffffffffffffffffffffffffffffff608483030160e0850152612b658282612586565b9695505050505050565b7f4e487b7100000000000000000000000000000000000000000000000000000000600052603260045260246000fd5b606081526000612bb16060830186612a77565b8281036020840152612bc38186612586565b90508281036040840152612b658185612586565b600080600060608486031215612bec57600080fd5b8351612bf781611c86565b6020850151909350612c0881611c86565b6040850151909250612c1981611c86565b809150509250925092565b60008083357fffffffffffffffffffffffffffffffffffffffffffffffffffffffffffffffe1843603018112612c5957600080fd5b830160208101925035905067ffffffffffffffff811115612c7957600080fd5b8060051b3603821315611b3d57600080fd5b60008083357fffffffffffffffffffffffffffffffffffffffffffffffffffffffffffffffe1843603018112612cc057600080fd5b830160208101925035905067ffffffffffffffff811115612ce057600080fd5b606081023603821315611b3d57600080fd5b8183526000602080850194508260005b8581101561257b578135612d1581611c86565b73ffffffffffffffffffffffffffffffffffffffff16875260ff612d3a838501612064565b16878401526040828101359088015260609687019690910190600101612d02565b8183528181602085013750600060208284010152600060207fffffffffffffffffffffffffffffffffffffffffffffffffffffffffffffffe0601f840116840101905092915050565b81835260006020808501808196506005915085821b81018560005b88811015612f09578383038a5281357fffffffffffffffffffffffffffffffffffffffffffffffffffffffffffffffa1893603018112612dfe57600080fd5b880160608135612e0d81611c86565b73ffffffffffffffffffffffffffffffffffffffff168552612e3182890183612c24565b828a8801528083880152608092507f07ffffffffffffffffffffffffffffffffffffffffffffffffffffffffffffff811115612e6c57600080fd5b881b80828885013786019050604083810135368590037fffffffffffffffffffffffffffffffffffffffffffffffffffffffffffffffe1018112612eaf57600080fd5b90930189810193903567ffffffffffffffff811115612ecd57600080fd5b803603851315612edc57600080fd5b838884030182890152612ef28484018287612d5b565b9e8b019e9750505093880193505050600101612dbf565b509098975050505050505050565b600060408083526101008084018735612f2f81611c86565b73ffffffffffffffffffffffffffffffffffffffff9081168685015260209089820135612f5b81611c86565b818116606089015250848a0135608088015260608a013560a088015260808a013560c0880152612f8e60a08b018b612c24565b60c060e08a01529384905261012093848901600582901b8a0186018360005b84811015613161577ffffffffffffffffffffffffffffffffffffffffffffffffffffffffffffffee08d840301845281357fffffffffffffffffffffffffffffffffffffffffffffffffffffffffffffff8187360301811261300e57600080fd5b86018035368290037fffffffffffffffffffffffffffffffffffffffffffffffffffffffffffffff2101811261304357600080fd5b608085528101803561305481611c86565b89166080860152808a013561306881611ff1565b151560a0860152808d013561307c81611c86565b891660c0860152606081013561309181611c86565b891660e086015260808101356130a681611c86565b8916858d01526130b960a0820182612c8b565b60e08d8801526130ce61016088018284612cf2565b9150506130de60c0830183612c8b565b92507fffffffffffffffffffffffffffffffffffffffffffffffffffffffffffffff8087830301610140880152613116828483612cf2565b92505050898201358a8601528c8201358d8601526131376060830183612c24565b9250858203606087015261314c828483612da4565b968b0196955050509188019150600101612fad565b50508a8103868c0152613175818d8f612d5b565b9e9d5050505050505050505050505050565b60006020828403121561319957600080fd5b8135610ddf81611c86565b60006080820173ffffffffffffffffffffffffffffffffffffffff87168352602086818501528560408501526080606085015281855180845260a08601915060a08160051b870101935082870160005b82811015613240577fffffffffffffffffffffffffffffffffffffffffffffffffffffffffffffff6088870301845261322e868351612586565b955092840192908401906001016131f4565b50939a9950505050505050505050565b6000806040838503121561326357600080fd5b825167ffffffffffffffff8082111561327b57600080fd5b6132878683870161287c565b9350602085015191508082111561329d57600080fd5b506132aa8582860161287c565b9150509250929050565b828152604060208201526000610ddc6040830184612586565b600073ffffffffffffffffffffffffffffffffffffffff808716835280861660208401525083604083015260806060830152612b6560808301846125da565b60006020828403121561331e57600080fd5b8151610ddf81611ff1565b60006020828403121561333b57600080fd5b5051919050565b8082018082111561116d577f4e487b7100000000000000000000000000000000000000000000000000000000600052601160045260246000fd5b6000825161338e8184602087016125b6565b9190910192915050565b7f4e487b7100000000000000000000000000000000000000000000000000000000600052602160045260246000fd5b828152604060208201526000610ddc60408301846125da565b602081526000610ddf60208301846125da56fe416464726573733a206c6f772d6c6576656c2063616c6c20776974682076616c7565206661696c6564a26469706673582212201b98deb488cd58df08f165bf6f514c8ceeb248503bde4e7825595d7f2c24c04a64736f6c63430008120033",
    "linkReferences": {}
  },
  "methodIdentifiers": {
    "arb((address,address,uint256,uint256,uint256,((address,bool,(address,address,address),(address,uint8,uint256)[],(address,uint8,uint256)[]),uint256,uint256,(address,uint256[],bytes)[])[]),address,bytes)": "dd883ebc",
    "initialize(bytes)": "439fab91",
    "onFlashLoan(address,address,uint256,uint256,bytes)": "23e30c8b",
    "orderBook()": "776af5ba",
    "zeroExExchangeProxy()": "91511a42"
  },
  "id": 47
}