{
  "abi": [
    {
      "inputs": [
        {
          "internalType": "address",
          "name": "badInitiator",
          "type": "address"
        }
      ],
      "name": "BadInitiator",
      "type": "error"
    },
    {
      "inputs": [
        {
          "internalType": "address",
          "name": "badLender",
          "type": "address"
        }
      ],
      "name": "BadLender",
      "type": "error"
    },
    {
      "inputs": [],
      "name": "FlashLoanFailed",
      "type": "error"
    },
    {
      "inputs": [],
      "name": "Initializing",
      "type": "error"
    },
    {
      "inputs": [
        {
          "internalType": "uint256",
          "name": "i",
          "type": "uint256"
        }
      ],
      "name": "InvalidSignature",
      "type": "error"
    },
    {
      "inputs": [
        {
          "internalType": "uint256",
          "name": "minimum",
          "type": "uint256"
        },
        {
          "internalType": "uint256",
          "name": "actual",
          "type": "uint256"
        }
      ],
      "name": "MinimumOutput",
      "type": "error"
    },
    {
      "anonymous": false,
      "inputs": [
        {
          "indexed": false,
          "internalType": "address",
          "name": "sender",
          "type": "address"
        },
        {
          "components": [
            {
              "internalType": "address",
              "name": "orderBook",
              "type": "address"
            },
            {
              "components": [
                {
                  "internalType": "contract IExpressionDeployerV1",
                  "name": "deployer",
                  "type": "address"
                },
                {
                  "internalType": "bytes[]",
                  "name": "sources",
                  "type": "bytes[]"
                },
                {
                  "internalType": "uint256[]",
                  "name": "constants",
                  "type": "uint256[]"
                }
              ],
              "internalType": "struct EvaluableConfig",
              "name": "evaluableConfig",
              "type": "tuple"
            },
            {
              "internalType": "bytes",
              "name": "implementationData",
              "type": "bytes"
            }
          ],
          "indexed": false,
          "internalType": "struct OrderBookFlashBorrowerConfig",
          "name": "config",
          "type": "tuple"
        }
      ],
      "name": "Initialize",
      "type": "event"
    },
    {
      "anonymous": false,
      "inputs": [
        {
          "indexed": false,
          "internalType": "uint8",
          "name": "version",
          "type": "uint8"
        }
      ],
      "name": "Initialized",
      "type": "event"
    },
    {
      "stateMutability": "nonpayable",
      "type": "fallback"
    },
    {
      "inputs": [
        {
          "components": [
            {
              "internalType": "address",
              "name": "output",
              "type": "address"
            },
            {
              "internalType": "address",
              "name": "input",
              "type": "address"
            },
            {
              "internalType": "uint256",
              "name": "minimumInput",
              "type": "uint256"
            },
            {
              "internalType": "uint256",
              "name": "maximumInput",
              "type": "uint256"
            },
            {
              "internalType": "uint256",
              "name": "maximumIORatio",
              "type": "uint256"
            },
            {
              "components": [
                {
                  "components": [
                    {
                      "internalType": "address",
                      "name": "owner",
                      "type": "address"
                    },
                    {
                      "internalType": "bool",
                      "name": "handleIO",
                      "type": "bool"
                    },
                    {
                      "components": [
                        {
                          "internalType": "contract IInterpreterV1",
                          "name": "interpreter",
                          "type": "address"
                        },
                        {
                          "internalType": "contract IInterpreterStoreV1",
                          "name": "store",
                          "type": "address"
                        },
                        {
                          "internalType": "address",
                          "name": "expression",
                          "type": "address"
                        }
                      ],
                      "internalType": "struct Evaluable",
                      "name": "evaluable",
                      "type": "tuple"
                    },
                    {
                      "components": [
                        {
                          "internalType": "address",
                          "name": "token",
                          "type": "address"
                        },
                        {
                          "internalType": "uint8",
                          "name": "decimals",
                          "type": "uint8"
                        },
                        {
                          "internalType": "uint256",
                          "name": "vaultId",
                          "type": "uint256"
                        }
                      ],
                      "internalType": "struct IO[]",
                      "name": "validInputs",
                      "type": "tuple[]"
                    },
                    {
                      "components": [
                        {
                          "internalType": "address",
                          "name": "token",
                          "type": "address"
                        },
                        {
                          "internalType": "uint8",
                          "name": "decimals",
                          "type": "uint8"
                        },
                        {
                          "internalType": "uint256",
                          "name": "vaultId",
                          "type": "uint256"
                        }
                      ],
                      "internalType": "struct IO[]",
                      "name": "validOutputs",
                      "type": "tuple[]"
                    }
                  ],
                  "internalType": "struct Order",
                  "name": "order",
                  "type": "tuple"
                },
                {
                  "internalType": "uint256",
                  "name": "inputIOIndex",
                  "type": "uint256"
                },
                {
                  "internalType": "uint256",
                  "name": "outputIOIndex",
                  "type": "uint256"
                },
                {
                  "components": [
                    {
                      "internalType": "address",
                      "name": "signer",
                      "type": "address"
                    },
                    {
                      "internalType": "uint256[]",
                      "name": "context",
                      "type": "uint256[]"
                    },
                    {
                      "internalType": "bytes",
                      "name": "signature",
                      "type": "bytes"
                    }
                  ],
                  "internalType": "struct SignedContextV1[]",
                  "name": "signedContext",
                  "type": "tuple[]"
                }
              ],
              "internalType": "struct TakeOrderConfig[]",
              "name": "orders",
              "type": "tuple[]"
            }
          ],
          "internalType": "struct TakeOrdersConfig",
          "name": "takeOrders_",
          "type": "tuple"
        },
        {
          "internalType": "uint256",
          "name": "minimumSenderOutput_",
          "type": "uint256"
        },
        {
          "internalType": "bytes",
          "name": "exchangeData_",
          "type": "bytes"
        }
      ],
      "name": "arb",
      "outputs": [],
      "stateMutability": "nonpayable",
      "type": "function"
    },
    {
      "inputs": [
        {
          "internalType": "bytes",
          "name": "data_",
          "type": "bytes"
        }
      ],
      "name": "initialize",
      "outputs": [],
      "stateMutability": "nonpayable",
      "type": "function"
    },
    {
      "inputs": [
        {
          "internalType": "address",
          "name": "initiator_",
          "type": "address"
        },
        {
          "internalType": "address",
          "name": "",
          "type": "address"
        },
        {
          "internalType": "uint256",
          "name": "",
          "type": "uint256"
        },
        {
          "internalType": "uint256",
          "name": "",
          "type": "uint256"
        },
        {
          "internalType": "bytes",
          "name": "data_",
          "type": "bytes"
        }
      ],
      "name": "onFlashLoan",
      "outputs": [
        {
          "internalType": "bytes32",
          "name": "",
          "type": "bytes32"
        }
      ],
      "stateMutability": "nonpayable",
      "type": "function"
    },
    {
      "inputs": [],
      "name": "orderBook",
      "outputs": [
        {
          "internalType": "contract IOrderBookV2",
          "name": "",
          "type": "address"
        }
      ],
      "stateMutability": "view",
      "type": "function"
    },
    {
      "inputs": [],
      "name": "zeroExExchangeProxy",
      "outputs": [
        {
          "internalType": "address",
          "name": "",
          "type": "address"
        }
      ],
      "stateMutability": "view",
      "type": "function"
    }
  ],
  "bytecode": {
    "object": "0x60806040523480156200001157600080fd5b5060016000556200002162000027565b620000e9565b600154610100900460ff1615620000945760405162461bcd60e51b815260206004820152602760248201527f496e697469616c697a61626c653a20636f6e747261637420697320696e697469604482015266616c697a696e6760c81b606482015260840160405180910390fd5b60015460ff9081161015620000e7576001805460ff191660ff9081179091556040519081527f7f26b83ff96e1f2b6a682f133852f6798a09c465da95921460cefb38474024989060200160405180910390a15b565b61343880620000f96000396000f3fe608060405234801561001057600080fd5b50600436106100675760003560e01c8063764d1aa111610050578063764d1aa1146100e4578063776af5ba146100f757806391511a421461014257610067565b806323e30c8b146100ab578063439fab91146100d1575b600154610100900460ff16156100a9576040517f4e8f6c4400000000000000000000000000000000000000000000000000000000815260040160405180910390fd5b005b6100be6100b9366004611c6b565b610162565b6040519081526020015b60405180910390f35b6100a96100df366004611e93565b61035d565b6100a96100f2366004611ec8565b61073d565b60015461011d9062010000900473ffffffffffffffffffffffffffffffffffffffff1681565b60405173ffffffffffffffffffffffffffffffffffffffff90911681526020016100c8565b60055461011d9073ffffffffffffffffffffffffffffffffffffffff1681565b600154600090610100900460ff16156101a7576040517f4e8f6c4400000000000000000000000000000000000000000000000000000000815260040160405180910390fd5b60015462010000900473ffffffffffffffffffffffffffffffffffffffff163314610205576040517f0bc3cde00000000000000000000000000000000000000000000000000000000081523360048201526024015b60405180910390fd5b73ffffffffffffffffffffffffffffffffffffffff8716301461026c576040517f8b1f7c6400000000000000000000000000000000000000000000000000000000815273ffffffffffffffffffffffffffffffffffffffff881660048201526024016101fc565b60008061027b848601866121fc565b915091506102898282610d0f565b6001546040517f7a8048df00000000000000000000000000000000000000000000000000000000815260009182916201000090910473ffffffffffffffffffffffffffffffffffffffff1690637a8048df906102e9908790600401612633565b60408051808303816000875af1158015610307573d6000803e3d6000fd5b505050506040513d601f19601f8201168201806040525081019061032b91906127cb565b507f439148f0bbc682ca079e46d6e2c2f0c1e3b820f1a291b069d8882abf8cf18dd99c9b505050505050505050505050565b600154610100900460ff161580801561037a57506001805460ff16105b806103935750303b15801561039357506001805460ff16145b61041f576040517f08c379a000000000000000000000000000000000000000000000000000000000815260206004820152602e60248201527f496e697469616c697a61626c653a20636f6e747261637420697320616c72656160448201527f647920696e697469616c697a656400000000000000000000000000000000000060648201526084016101fc565b600180547fffffffffffffffffffffffffffffffffffffffffffffffffffffffffffffff001681179055801561047c57600180547fffffffffffffffffffffffffffffffffffffffffffffffffffffffffffff00ff166101001790555b610484610da0565b60008280602001905181019061049a919061288f565b90506104a98160400151610e13565b80516001805473ffffffffffffffffffffffffffffffffffffffff90921662010000027fffffffffffffffffffff0000000000000000000000000000000000000000ffff9092169190911790556040517f1e8580da57e49b73627de353a5c6aa09bf75dba26dd1da6c1f259314dfe28d17906105289033908490612a4c565b60405180910390a160008160200151602001515111801561056c5750600081602001516020015160008151811061056157610561612b2b565b602002602001015151115b156106cc5760408051600180825281830190925260009182919060208083019080368337019050509050600081600061ffff16815181106105af576105af612b2b565b6020908102919091018101919091528381015180519181015160409182015191517f5511cb6700000000000000000000000000000000000000000000000000000000815273ffffffffffffffffffffffffffffffffffffffff90931692635511cb679261062192918690600401612b5a565b6060604051808303816000875af1158015610640573d6000803e3d6000fd5b505050506040513d601f19601f820116820180604052508101906106649190612b93565b6003805473ffffffffffffffffffffffffffffffffffffffff9384167fffffffffffffffffffffffff0000000000000000000000000000000000000000918216179091556002805494909316931692909217905591506106c682600080610e72565b60045550505b506106d76001600055565b801561073957600180547fffffffffffffffffffffffffffffffffffffffffffffffffffffffffffff00ff1681556040519081527f7f26b83ff96e1f2b6a682f133852f6798a09c465da95921460cefb38474024989060200160405180910390a15b5050565b610745610da0565b600154610100900460ff1615610787576040517f4e8f6c4400000000000000000000000000000000000000000000000000000000815260040160405180910390fd5b600084838360405160200161079e93929190612ed3565b604051602081830303815290604052905060008560200160208101906107c49190613143565b60045490915060408701359080156109ce57600254600354600091829173ffffffffffffffffffffffffffffffffffffffff91821691636715f825911683866108a48260405190808252806020026020018201604052801561083a57816020015b60608152602001906001900390816108255790505b50604080516000808252602082019092529061089e565b61088b6040518060600160405280600073ffffffffffffffffffffffffffffffffffffffff16815260200160608152602001606081525090565b8152602001906001900390816108515790505b50610eab565b6040518563ffffffff1660e01b81526004016108c39493929190613160565b600060405180830381865afa1580156108e0573d6000803e3d6000fd5b505050506040513d6000823e601f3d9081017fffffffffffffffffffffffffffffffffffffffffffffffffffffffffffffffe0168201604052610926919081019061320c565b91509150815160001461093857600080fd5b8051156109cb576003546040517f946aadc600000000000000000000000000000000000000000000000000000000815273ffffffffffffffffffffffffffffffffffffffff9091169063946aadc690610998906000908590600401613270565b600060405180830381600087803b1580156109b257600080fd5b505af11580156109c6573d6000803e3d6000fd5b505050505b50505b600154610a3c9062010000900473ffffffffffffffffffffffffffffffffffffffff167fffffffffffffffffffffffffffffffffffffffffffffffffffffffffffffffff610a1f60208c018c613143565b73ffffffffffffffffffffffffffffffffffffffff1691906111c3565b6001546040517f5cffe9de0000000000000000000000000000000000000000000000000000000081526201000090910473ffffffffffffffffffffffffffffffffffffffff1690635cffe9de90610a9d903090879087908a90600401613289565b6020604051808303816000875af1158015610abc573d6000803e3d6000fd5b505050506040513d601f19601f82011682018060405250810190610ae091906132c8565b610b16576040517f92111eb200000000000000000000000000000000000000000000000000000000815260040160405180910390fd5b6000610b2860408a0160208b01613143565b6040517f70a0823100000000000000000000000000000000000000000000000000000000815230600482015273ffffffffffffffffffffffffffffffffffffffff91909116906370a0823190602401602060405180830381865afa158015610b94573d6000803e3d6000fd5b505050506040513d601f19601f82011682018060405250810190610bb891906132e5565b90508015610bf257610bf23382610bd560408d0160208e01613143565b73ffffffffffffffffffffffffffffffffffffffff1691906113c8565b6000610c0160208b018b613143565b6040517f70a0823100000000000000000000000000000000000000000000000000000000815230600482015273ffffffffffffffffffffffffffffffffffffffff91909116906370a0823190602401602060405180830381865afa158015610c6d573d6000803e3d6000fd5b505050506040513d601f19601f82011682018060405250810190610c9191906132e5565b905088811015610cd7576040517f0c08b5bc000000000000000000000000000000000000000000000000000000008152600481018a9052602481018290526044016101fc565b8015610cef57610cef3382610bd560208e018e613143565b610cf9334761141e565b505050505050610d096001600055565b50505050565b60008082806020019051810190610d2691906132fe565b60208601519193509150610d719073ffffffffffffffffffffffffffffffffffffffff16837fffffffffffffffffffffffffffffffffffffffffffffffffffffffffffffffff6111c3565b600554600090610d989073ffffffffffffffffffffffffffffffffffffffff168347611578565b505050505050565b600260005403610e0c576040517f08c379a000000000000000000000000000000000000000000000000000000000815260206004820152601f60248201527f5265656e7472616e637947756172643a207265656e7472616e742063616c6c0060448201526064016101fc565b6002600055565b600081806020019051810190610e299190613345565b600580547fffffffffffffffffffffffff00000000000000000000000000000000000000001673ffffffffffffffffffffffffffffffffffffffff929092169190911790555050565b77ffffffffffffffffffffffffffffffffffffffff00000000602084901b1663ffff0000601084901b161761ffff8216175b9392505050565b60606000825167ffffffffffffffff811115610ec957610ec9611ce7565b604051908082528060200260200182016040528015610ef2578160200160208202803683370190505b509050600080845111610f06576000610f0c565b83516001015b855160010101905060008167ffffffffffffffff811115610f2f57610f2f611ce7565b604051908082528060200260200182016040528015610f6257816020015b6060815260200190600190039081610f4d5790505b5090506000610f6f6115a6565b828281518110610f8157610f81612b2b565b602002602001018190525060005b8751811015610fdf578180600101925050878181518110610fb257610fb2612b2b565b6020026020010151838381518110610fcc57610fcc612b2b565b6020908102919091010152600101610f8f565b508551156111b95780806001019150508382828151811061100257611002612b2b565b602002602001018190525060005b86518110156111b7576110e187828151811061102e5761102e612b2b565b6020026020010151600001516110be61106b8a858151811061105257611052612b2b565b6020026020010151602001518051602090810291012090565b6040517f19457468657265756d205369676e6564204d6573736167653a0a3332000000006020820152603c8101829052600090605c01604051602081830303815290604052805190602001209050919050565b8984815181106110d0576110d0612b2b565b6020026020010151604001516115b7565b61111a576040517f52bf9848000000000000000000000000000000000000000000000000000000008152600481018290526024016101fc565b86818151811061112c5761112c612b2b565b60200260200101516000015173ffffffffffffffffffffffffffffffffffffffff1685828151811061116057611160612b2b565b602002602001018181525050818060010192505086818151811061118657611186612b2b565b6020026020010151602001518383815181106111a4576111a4612b2b565b6020908102919091010152600101611010565b505b5095945050505050565b80158061126357506040517fdd62ed3e00000000000000000000000000000000000000000000000000000000815230600482015273ffffffffffffffffffffffffffffffffffffffff838116602483015284169063dd62ed3e90604401602060405180830381865afa15801561123d573d6000803e3d6000fd5b505050506040513d601f19601f8201168201806040525081019061126191906132e5565b155b6112ef576040517f08c379a000000000000000000000000000000000000000000000000000000000815260206004820152603660248201527f5361666545524332303a20617070726f76652066726f6d206e6f6e2d7a65726f60448201527f20746f206e6f6e2d7a65726f20616c6c6f77616e63650000000000000000000060648201526084016101fc565b60405173ffffffffffffffffffffffffffffffffffffffff83166024820152604481018290526113c39084907f095ea7b300000000000000000000000000000000000000000000000000000000906064015b604080517fffffffffffffffffffffffffffffffffffffffffffffffffffffffffffffffe08184030181529190526020810180517bffffffffffffffffffffffffffffffffffffffffffffffffffffffff167fffffffff0000000000000000000000000000000000000000000000000000000090931692909217909152611784565b505050565b60405173ffffffffffffffffffffffffffffffffffffffff83166024820152604481018290526113c39084907fa9059cbb0000000000000000000000000000000000000000000000000000000090606401611341565b80471015611488576040517f08c379a000000000000000000000000000000000000000000000000000000000815260206004820152601d60248201527f416464726573733a20696e73756666696369656e742062616c616e636500000060448201526064016101fc565b60008273ffffffffffffffffffffffffffffffffffffffff168260405160006040518083038185875af1925050503d80600081146114e2576040519150601f19603f3d011682016040523d82523d6000602084013e6114e7565b606091505b50509050806113c3576040517f08c379a000000000000000000000000000000000000000000000000000000000815260206004820152603a60248201527f416464726573733a20756e61626c6520746f2073656e642076616c75652c207260448201527f6563697069656e74206d6179206861766520726576657274656400000000000060648201526084016101fc565b606061159e8484846040518060600160405280602981526020016133da60299139611890565b949350505050565b60606115b233306119a9565b905090565b60008060006115c685856119dd565b909250905060008160048111156115df576115df613362565b14801561161757508573ffffffffffffffffffffffffffffffffffffffff168273ffffffffffffffffffffffffffffffffffffffff16145b1561162757600192505050610ea4565b6000808773ffffffffffffffffffffffffffffffffffffffff16631626ba7e60e01b888860405160240161165c929190613391565b604080517fffffffffffffffffffffffffffffffffffffffffffffffffffffffffffffffe08184030181529181526020820180517bffffffffffffffffffffffffffffffffffffffffffffffffffffffff167fffffffff000000000000000000000000000000000000000000000000000000009094169390931790925290516116e591906133aa565b600060405180830381855afa9150503d8060008114611720576040519150601f19603f3d011682016040523d82523d6000602084013e611725565b606091505b5091509150818015611738575080516020145b8015611778575080517f1626ba7e000000000000000000000000000000000000000000000000000000009061177690830160209081019084016132e5565b145b98975050505050505050565b60006117e6826040518060400160405280602081526020017f5361666545524332303a206c6f772d6c6576656c2063616c6c206661696c65648152508573ffffffffffffffffffffffffffffffffffffffff16611a229092919063ffffffff16565b8051909150156113c3578080602001905181019061180491906132c8565b6113c3576040517f08c379a000000000000000000000000000000000000000000000000000000000815260206004820152602a60248201527f5361666545524332303a204552433230206f7065726174696f6e20646964206e60448201527f6f7420737563636565640000000000000000000000000000000000000000000060648201526084016101fc565b606082471015611922576040517f08c379a000000000000000000000000000000000000000000000000000000000815260206004820152602660248201527f416464726573733a20696e73756666696369656e742062616c616e636520666f60448201527f722063616c6c000000000000000000000000000000000000000000000000000060648201526084016101fc565b6000808673ffffffffffffffffffffffffffffffffffffffff16858760405161194b91906133aa565b60006040518083038185875af1925050503d8060008114611988576040519150601f19603f3d011682016040523d82523d6000602084013e61198d565b606091505b509150915061199e87838387611a31565b979650505050505050565b6040805160028082526060808301845292600092919060208301908036833750505060208101949094525050604082015290565b6000808251604103611a135760208301516040840151606085015160001a611a0787828585611ad1565b94509450505050611a1b565b506000905060025b9250929050565b606061159e8484600085611890565b60608315611ac7578251600003611ac05773ffffffffffffffffffffffffffffffffffffffff85163b611ac0576040517f08c379a000000000000000000000000000000000000000000000000000000000815260206004820152601d60248201527f416464726573733a2063616c6c20746f206e6f6e2d636f6e747261637400000060448201526064016101fc565b508161159e565b61159e8383611bc0565b6000807f7fffffffffffffffffffffffffffffff5d576e7357a4501ddfe92f46681b20a0831115611b085750600090506003611bb7565b6040805160008082526020820180845289905260ff881692820192909252606081018690526080810185905260019060a0016020604051602081039080840390855afa158015611b5c573d6000803e3d6000fd5b50506040517fffffffffffffffffffffffffffffffffffffffffffffffffffffffffffffffe0015191505073ffffffffffffffffffffffffffffffffffffffff8116611bb057600060019250925050611bb7565b9150600090505b94509492505050565b815115611bd05781518083602001fd5b806040517f08c379a00000000000000000000000000000000000000000000000000000000081526004016101fc91906133c6565b73ffffffffffffffffffffffffffffffffffffffff81168114611c2657600080fd5b50565b60008083601f840112611c3b57600080fd5b50813567ffffffffffffffff811115611c5357600080fd5b602083019150836020828501011115611a1b57600080fd5b60008060008060008060a08789031215611c8457600080fd5b8635611c8f81611c04565b95506020870135611c9f81611c04565b94506040870135935060608701359250608087013567ffffffffffffffff811115611cc957600080fd5b611cd589828a01611c29565b979a9699509497509295939492505050565b7f4e487b7100000000000000000000000000000000000000000000000000000000600052604160045260246000fd5b6040516060810167ffffffffffffffff81118282101715611d3957611d39611ce7565b60405290565b60405160c0810167ffffffffffffffff81118282101715611d3957611d39611ce7565b6040516080810167ffffffffffffffff81118282101715611d3957611d39611ce7565b60405160a0810167ffffffffffffffff81118282101715611d3957611d39611ce7565b604051601f82017fffffffffffffffffffffffffffffffffffffffffffffffffffffffffffffffe016810167ffffffffffffffff81118282101715611def57611def611ce7565b604052919050565b600067ffffffffffffffff821115611e1157611e11611ce7565b50601f017fffffffffffffffffffffffffffffffffffffffffffffffffffffffffffffffe01660200190565b600082601f830112611e4e57600080fd5b8135611e61611e5c82611df7565b611da8565b818152846020838601011115611e7657600080fd5b816020850160208301376000918101602001919091529392505050565b600060208284031215611ea557600080fd5b813567ffffffffffffffff811115611ebc57600080fd5b61159e84828501611e3d565b60008060008060608587031215611ede57600080fd5b843567ffffffffffffffff80821115611ef657600080fd5b9086019060c08289031215611f0a57600080fd5b9094506020860135935060408601359080821115611f2757600080fd5b50611f3487828801611c29565b95989497509550505050565b600067ffffffffffffffff821115611f5a57611f5a611ce7565b5060051b60200190565b8015158114611c2657600080fd5b8035611f7d81611f64565b919050565b600060608284031215611f9457600080fd5b611f9c611d16565b90508135611fa981611c04565b81526020820135611fb981611c04565b60208201526040820135611fcc81611c04565b604082015292915050565b803560ff81168114611f7d57600080fd5b600082601f830112611ff957600080fd5b81356020612009611e5c83611f40565b8281526060928302850182019282820191908785111561202857600080fd5b8387015b8581101561207f5781818a0312156120445760008081fd5b61204c611d16565b813561205781611c04565b8152612064828701611fd7565b8187015260408281013590820152845292840192810161202c565b5090979650505050505050565b600082601f83011261209d57600080fd5b813560206120ad611e5c83611f40565b82815260059290921b840181019181810190868411156120cc57600080fd5b8286015b848110156121f157803567ffffffffffffffff808211156120f057600080fd5b908801906060828b037fffffffffffffffffffffffffffffffffffffffffffffffffffffffffffffffe00112156121275760008081fd5b61212f611d16565b8683013561213c81611c04565b8152604083810135838111156121525760008081fd5b8401603f81018d136121645760008081fd5b88810135612174611e5c82611f40565b81815260059190911b82018301908a8101908f8311156121945760008081fd5b928401925b828410156121b25783358252928b0192908b0190612199565b858c01525050506060840135838111156121cc5760008081fd5b6121da8d8a83880101611e3d565b9183019190915250855250509183019183016120d0565b509695505050505050565b6000806040838503121561220f57600080fd5b67ffffffffffffffff808435111561222657600080fd5b8335840160c0818703121561223a57600080fd5b612242611d3f565b61224c8235611c04565b8135815261225d6020830135611c04565b602082013560208201526040820135604082015260608201356060820152608082013560808201528260a0830135111561229657600080fd5b60a08201358201915086601f8301126122ae57600080fd5b6122bb611e5c8335611f40565b82358082526020808301929160051b8501018910156122d957600080fd5b602084015b6020853560051b86010181101561245a5785813511156122fd57600080fd5b7fffffffffffffffffffffffffffffffffffffffffffffffffffffffffffffffe0608081833588018d0301121561233357600080fd5b61233b611d62565b876020843589010135111561234f57600080fd5b8235870160208101350160e0818e038401121561236b57600080fd5b612373611d85565b92506123826020820135611c04565b6020810135835261239560408201611f72565b60208401526123a78d60608301611f82565b60408401528860c082013511156123bd57600080fd5b6123d08d602060c0840135840101611fe8565b60608401528860e082013511156123e657600080fd5b6123f98d602060e0840135840101611fe8565b6080840152508181526040833588010135602082015260608335880101356040820152876080843589010135111561243057600080fd5b6124468c8435890160808101350160200161208c565b6060820152845250602092830192016122de565b5060a083015250935050602084013581101561247557600080fd5b506124868460208501358501611e3d565b90509250929050565b600081518084526020808501945080840160005b838110156124ee578151805173ffffffffffffffffffffffffffffffffffffffff1688528381015160ff168489015260409081015190880152606090960195908201906001016124a3565b509495945050505050565b600081518084526020808501945080840160005b838110156124ee5781518752958201959082019060010161250d565b60005b8381101561254457818101518382015260200161252c565b50506000910152565b60008151808452612565816020860160208601612529565b601f017fffffffffffffffffffffffffffffffffffffffffffffffffffffffffffffffe0169290920160200192915050565b600081518084526020808501808196508360051b8101915082860160005b858110156126265782840389528151606073ffffffffffffffffffffffffffffffffffffffff82511686528682015181888801526125f5828801826124f9565b91505060408083015192508682038188015250612612818361254d565b9a87019a95505050908401906001016125b5565b5091979650505050505050565b6000602080835260e080840173ffffffffffffffffffffffffffffffffffffffff808751168487015283870151604082821681890152808901519150606082818a0152808a01519250608083818b0152808b015193508360a08b015260a08b0151935060c0808b01528584518088526101009750878c019150878160051b8d01018a8701965060005b828110156127b9578d82037fffffffffffffffffffffffffffffffffffffffffffffffffffffffffffffff000184528751805186845280518b16878501528d810151151560a08501528881015180518c1660c0860152808f01518c168e8601528901518b168c8501528781015161012085018e905261273f61016086018261248f565b918801518583037fffffffffffffffffffffffffffffffffffffffffffffffffffffffffffffff800161014087015291905061277b818361248f565b9150508d8201518e8501528882015189850152878201519150838103888501526127a58183612597565b998e0199958e0195935050506001016126bc565b509d9c50505050505050505050505050565b600080604083850312156127de57600080fd5b505080516020909101519092909150565b600082601f83011261280057600080fd5b815161280e611e5c82611df7565b81815284602083860101111561282357600080fd5b61159e826020830160208701612529565b600082601f83011261284557600080fd5b81516020612855611e5c83611f40565b82815260059290921b8401810191818101908684111561287457600080fd5b8286015b848110156121f15780518352918301918301612878565b600060208083850312156128a257600080fd5b825167ffffffffffffffff808211156128ba57600080fd5b90840190606082870312156128ce57600080fd5b6128d6611d16565b82516128e181611c04565b815282840151828111156128f457600080fd5b83016060818903121561290657600080fd5b61290e611d16565b815161291981611c04565b8152818601518481111561292c57600080fd5b8201601f81018a1361293d57600080fd5b805161294b611e5c82611f40565b81815260059190911b8201880190888101908c83111561296a57600080fd5b8984015b838110156129a2578051898111156129865760008081fd5b6129948f8d838901016127ef565b845250918a01918a0161296e565b50848a01525050506040820151848111156129bc57600080fd5b6129c88a828501612834565b6040830152508086840152505060408301519350818411156129e957600080fd5b6129f5878585016127ef565b60408201529695505050505050565b600081518084526020808501808196508360051b8101915082860160005b85811015612626578284038952612a3a84835161254d565b98850198935090840190600101612a22565b600073ffffffffffffffffffffffffffffffffffffffff80851683526040602084015280845116604084015260208401516060808501528181511660a085015260208101519150606060c0850152612aa8610100850183612a04565b9150604081015190507fffffffffffffffffffffffffffffffffffffffffffffffffffffffffffffff608483030160e0850152612ae582826124f9565b91505060408401517fffffffffffffffffffffffffffffffffffffffffffffffffffffffffffffffc0848303016080850152612b21828261254d565b9695505050505050565b7f4e487b7100000000000000000000000000000000000000000000000000000000600052603260045260246000fd5b606081526000612b6d6060830186612a04565b8281036020840152612b7f81866124f9565b90508281036040840152612b2181856124f9565b600080600060608486031215612ba857600080fd5b8351612bb381611c04565b6020850151909350612bc481611c04565b6040850151909250612bd581611c04565b809150509250925092565b60008083357fffffffffffffffffffffffffffffffffffffffffffffffffffffffffffffffe1843603018112612c1557600080fd5b830160208101925035905067ffffffffffffffff811115612c3557600080fd5b8060051b3603821315611a1b57600080fd5b60008083357fffffffffffffffffffffffffffffffffffffffffffffffffffffffffffffffe1843603018112612c7c57600080fd5b830160208101925035905067ffffffffffffffff811115612c9c57600080fd5b606081023603821315611a1b57600080fd5b8183526000602080850194508260005b858110156124ee578135612cd181611c04565b73ffffffffffffffffffffffffffffffffffffffff16875260ff612cf6838501611fd7565b16878401526040828101359088015260609687019690910190600101612cbe565b8183528181602085013750600060208284010152600060207fffffffffffffffffffffffffffffffffffffffffffffffffffffffffffffffe0601f840116840101905092915050565b81835260006020808501808196506005915085821b81018560005b88811015612ec5578383038a5281357fffffffffffffffffffffffffffffffffffffffffffffffffffffffffffffffa1893603018112612dba57600080fd5b880160608135612dc981611c04565b73ffffffffffffffffffffffffffffffffffffffff168552612ded82890183612be0565b828a8801528083880152608092507f07ffffffffffffffffffffffffffffffffffffffffffffffffffffffffffffff811115612e2857600080fd5b881b80828885013786019050604083810135368590037fffffffffffffffffffffffffffffffffffffffffffffffffffffffffffffffe1018112612e6b57600080fd5b90930189810193903567ffffffffffffffff811115612e8957600080fd5b803603851315612e9857600080fd5b838884030182890152612eae8484018287612d17565b9e8b019e9750505093880193505050600101612d7b565b509098975050505050505050565b600060408083526101008084018735612eeb81611c04565b73ffffffffffffffffffffffffffffffffffffffff9081168685015260209089820135612f1781611c04565b818116606089015250848a0135608088015260608a013560a088015260808a013560c0880152612f4a60a08b018b612be0565b60c060e08a01529384905261012093848901600582901b8a0186018360005b8481101561311d577ffffffffffffffffffffffffffffffffffffffffffffffffffffffffffffffee08d840301845281357fffffffffffffffffffffffffffffffffffffffffffffffffffffffffffffff81873603018112612fca57600080fd5b86018035368290037fffffffffffffffffffffffffffffffffffffffffffffffffffffffffffffff21018112612fff57600080fd5b608085528101803561301081611c04565b89166080860152808a013561302481611f64565b151560a0860152808d013561303881611c04565b891660c0860152606081013561304d81611c04565b891660e0860152608081013561306281611c04565b8916858d015261307560a0820182612c47565b60e08d88015261308a61016088018284612cae565b91505061309a60c0830183612c47565b92507fffffffffffffffffffffffffffffffffffffffffffffffffffffffffffffff80878303016101408801526130d2828483612cae565b92505050898201358a8601528c8201358d8601526130f36060830183612be0565b92508582036060870152613108828483612d60565b968b0196955050509188019150600101612f69565b50508a8103868c0152613131818d8f612d17565b9e9d5050505050505050505050505050565b60006020828403121561315557600080fd5b8135610ea481611c04565b60006080820173ffffffffffffffffffffffffffffffffffffffff87168352602086818501528560408501526080606085015281855180845260a08601915060a08160051b870101935082870160005b828110156131fc577fffffffffffffffffffffffffffffffffffffffffffffffffffffffffffffff608887030184526131ea8683516124f9565b955092840192908401906001016131b0565b50939a9950505050505050505050565b6000806040838503121561321f57600080fd5b825167ffffffffffffffff8082111561323757600080fd5b61324386838701612834565b9350602085015191508082111561325957600080fd5b5061326685828601612834565b9150509250929050565b82815260406020820152600061159e60408301846124f9565b600073ffffffffffffffffffffffffffffffffffffffff808716835280861660208401525083604083015260806060830152612b21608083018461254d565b6000602082840312156132da57600080fd5b8151610ea481611f64565b6000602082840312156132f757600080fd5b5051919050565b6000806040838503121561331157600080fd5b825161331c81611c04565b602084015190925067ffffffffffffffff81111561333957600080fd5b613266858286016127ef565b60006020828403121561335757600080fd5b8151610ea481611c04565b7f4e487b7100000000000000000000000000000000000000000000000000000000600052602160045260246000fd5b82815260406020820152600061159e604083018461254d565b600082516133bc818460208701612529565b9190910192915050565b602081526000610ea4602083018461254d56fe416464726573733a206c6f772d6c6576656c2063616c6c20776974682076616c7565206661696c6564a26469706673582212203e1de85783cb1b014d7d37bcdde356203304e8b9970b25ee7eec70c51709708364736f6c63430008120033",
    "linkReferences": {}
  },
  "methodIdentifiers": {
    "arb((address,address,uint256,uint256,uint256,((address,bool,(address,address,address),(address,uint8,uint256)[],(address,uint8,uint256)[]),uint256,uint256,(address,uint256[],bytes)[])[]),uint256,bytes)": "764d1aa1",
    "initialize(bytes)": "439fab91",
    "onFlashLoan(address,address,uint256,uint256,bytes)": "23e30c8b",
    "orderBook()": "776af5ba",
    "zeroExExchangeProxy()": "91511a42"
  },
  "id": 49
}