{
  "_format": "hh-sol-artifact-1",
  "contractName": "OrderBook",
  "sourceName": "contracts/orderbook/OrderBook.sol",
  "abi": [
    {
      "inputs": [
        {
          "components": [
            {
              "internalType": "address",
              "name": "deployer",
              "type": "address"
            },
            {
              "internalType": "bytes",
              "name": "meta",
              "type": "bytes"
            }
          ],
          "internalType": "struct DeployerDiscoverableMetaV1ConstructionConfig",
          "name": "config_",
          "type": "tuple"
        }
      ],
      "stateMutability": "nonpayable",
      "type": "constructor"
    },
    {
      "inputs": [
        {
          "internalType": "address",
          "name": "receiver",
          "type": "address"
        },
        {
          "internalType": "address",
          "name": "token",
          "type": "address"
        },
        {
          "internalType": "uint256",
          "name": "amount",
          "type": "uint256"
        }
      ],
      "name": "ActiveDebt",
      "type": "error"
    },
    {
      "inputs": [
        {
          "internalType": "bytes32",
          "name": "result",
          "type": "bytes32"
        }
      ],
      "name": "FlashLenderCallbackFailed",
      "type": "error"
    },
    {
      "inputs": [
        {
          "internalType": "uint256",
          "name": "i",
          "type": "uint256"
        }
      ],
      "name": "InvalidSignature",
      "type": "error"
    },
    {
      "inputs": [
        {
          "internalType": "uint256",
          "name": "minimumInput",
          "type": "uint256"
        },
        {
          "internalType": "uint256",
          "name": "input",
          "type": "uint256"
        }
      ],
      "name": "MinimumInput",
      "type": "error"
    },
    {
      "inputs": [
        {
          "internalType": "address",
          "name": "sender",
          "type": "address"
        },
        {
          "internalType": "address",
          "name": "owner",
          "type": "address"
        }
      ],
      "name": "NotOrderOwner",
      "type": "error"
    },
    {
      "inputs": [
        {
          "internalType": "bytes",
          "name": "unmeta",
          "type": "bytes"
        }
      ],
      "name": "NotRainMetaV1",
      "type": "error"
    },
    {
      "inputs": [
        {
          "internalType": "address",
          "name": "owner",
          "type": "address"
        }
      ],
      "name": "SameOwner",
      "type": "error"
    },
    {
      "inputs": [
        {
          "internalType": "address",
          "name": "aliceToken",
          "type": "address"
        },
        {
          "internalType": "address",
          "name": "bobToken",
          "type": "address"
        }
      ],
      "name": "TokenMismatch",
      "type": "error"
    },
    {
      "inputs": [
        {
          "internalType": "bytes32",
          "name": "expectedHash",
          "type": "bytes32"
        },
        {
          "internalType": "bytes32",
          "name": "actualHash",
          "type": "bytes32"
        }
      ],
      "name": "UnexpectedMetaHash",
      "type": "error"
    },
    {
      "inputs": [],
      "name": "ZeroReceiver",
      "type": "error"
    },
    {
      "inputs": [],
      "name": "ZeroToken",
      "type": "error"
    },
    {
      "anonymous": false,
      "inputs": [
        {
          "indexed": false,
          "internalType": "address",
          "name": "sender",
          "type": "address"
        },
        {
          "indexed": false,
          "internalType": "contract IExpressionDeployerV1",
          "name": "expressionDeployer",
          "type": "address"
        },
        {
          "components": [
            {
              "internalType": "address",
              "name": "owner",
              "type": "address"
            },
            {
              "internalType": "bool",
              "name": "handleIO",
              "type": "bool"
            },
            {
              "components": [
                {
                  "internalType": "contract IInterpreterV1",
                  "name": "interpreter",
                  "type": "address"
                },
                {
                  "internalType": "contract IInterpreterStoreV1",
                  "name": "store",
                  "type": "address"
                },
                {
                  "internalType": "address",
                  "name": "expression",
                  "type": "address"
                }
              ],
              "internalType": "struct Evaluable",
              "name": "evaluable",
              "type": "tuple"
            },
            {
              "components": [
                {
                  "internalType": "address",
                  "name": "token",
                  "type": "address"
                },
                {
                  "internalType": "uint8",
                  "name": "decimals",
                  "type": "uint8"
                },
                {
                  "internalType": "uint256",
                  "name": "vaultId",
                  "type": "uint256"
                }
              ],
              "internalType": "struct IO[]",
              "name": "validInputs",
              "type": "tuple[]"
            },
            {
              "components": [
                {
                  "internalType": "address",
                  "name": "token",
                  "type": "address"
                },
                {
                  "internalType": "uint8",
                  "name": "decimals",
                  "type": "uint8"
                },
                {
                  "internalType": "uint256",
                  "name": "vaultId",
                  "type": "uint256"
                }
              ],
              "internalType": "struct IO[]",
              "name": "validOutputs",
              "type": "tuple[]"
            }
          ],
          "indexed": false,
          "internalType": "struct Order",
          "name": "order",
          "type": "tuple"
        },
        {
          "indexed": false,
          "internalType": "uint256",
          "name": "orderHash",
          "type": "uint256"
        }
      ],
      "name": "AddOrder",
      "type": "event"
    },
    {
      "anonymous": false,
      "inputs": [
        {
          "indexed": false,
          "internalType": "address",
          "name": "sender",
          "type": "address"
        },
        {
          "components": [
            {
              "internalType": "uint256",
              "name": "aliceOutput",
              "type": "uint256"
            },
            {
              "internalType": "uint256",
              "name": "bobOutput",
              "type": "uint256"
            },
            {
              "internalType": "uint256",
              "name": "aliceInput",
              "type": "uint256"
            },
            {
              "internalType": "uint256",
              "name": "bobInput",
              "type": "uint256"
            }
          ],
          "indexed": false,
          "internalType": "struct ClearStateChange",
          "name": "clearStateChange",
          "type": "tuple"
        }
      ],
      "name": "AfterClear",
      "type": "event"
    },
    {
      "anonymous": false,
      "inputs": [
        {
          "indexed": false,
          "internalType": "address",
          "name": "sender",
          "type": "address"
        },
        {
          "components": [
            {
              "internalType": "address",
              "name": "owner",
              "type": "address"
            },
            {
              "internalType": "bool",
              "name": "handleIO",
              "type": "bool"
            },
            {
              "components": [
                {
                  "internalType": "contract IInterpreterV1",
                  "name": "interpreter",
                  "type": "address"
                },
                {
                  "internalType": "contract IInterpreterStoreV1",
                  "name": "store",
                  "type": "address"
                },
                {
                  "internalType": "address",
                  "name": "expression",
                  "type": "address"
                }
              ],
              "internalType": "struct Evaluable",
              "name": "evaluable",
              "type": "tuple"
            },
            {
              "components": [
                {
                  "internalType": "address",
                  "name": "token",
                  "type": "address"
                },
                {
                  "internalType": "uint8",
                  "name": "decimals",
                  "type": "uint8"
                },
                {
                  "internalType": "uint256",
                  "name": "vaultId",
                  "type": "uint256"
                }
              ],
              "internalType": "struct IO[]",
              "name": "validInputs",
              "type": "tuple[]"
            },
            {
              "components": [
                {
                  "internalType": "address",
                  "name": "token",
                  "type": "address"
                },
                {
                  "internalType": "uint8",
                  "name": "decimals",
                  "type": "uint8"
                },
                {
                  "internalType": "uint256",
                  "name": "vaultId",
                  "type": "uint256"
                }
              ],
              "internalType": "struct IO[]",
              "name": "validOutputs",
              "type": "tuple[]"
            }
          ],
          "indexed": false,
          "internalType": "struct Order",
          "name": "alice",
          "type": "tuple"
        },
        {
          "components": [
            {
              "internalType": "address",
              "name": "owner",
              "type": "address"
            },
            {
              "internalType": "bool",
              "name": "handleIO",
              "type": "bool"
            },
            {
              "components": [
                {
                  "internalType": "contract IInterpreterV1",
                  "name": "interpreter",
                  "type": "address"
                },
                {
                  "internalType": "contract IInterpreterStoreV1",
                  "name": "store",
                  "type": "address"
                },
                {
                  "internalType": "address",
                  "name": "expression",
                  "type": "address"
                }
              ],
              "internalType": "struct Evaluable",
              "name": "evaluable",
              "type": "tuple"
            },
            {
              "components": [
                {
                  "internalType": "address",
                  "name": "token",
                  "type": "address"
                },
                {
                  "internalType": "uint8",
                  "name": "decimals",
                  "type": "uint8"
                },
                {
                  "internalType": "uint256",
                  "name": "vaultId",
                  "type": "uint256"
                }
              ],
              "internalType": "struct IO[]",
              "name": "validInputs",
              "type": "tuple[]"
            },
            {
              "components": [
                {
                  "internalType": "address",
                  "name": "token",
                  "type": "address"
                },
                {
                  "internalType": "uint8",
                  "name": "decimals",
                  "type": "uint8"
                },
                {
                  "internalType": "uint256",
                  "name": "vaultId",
                  "type": "uint256"
                }
              ],
              "internalType": "struct IO[]",
              "name": "validOutputs",
              "type": "tuple[]"
            }
          ],
          "indexed": false,
          "internalType": "struct Order",
          "name": "bob",
          "type": "tuple"
        },
        {
          "components": [
            {
              "internalType": "uint256",
              "name": "aliceInputIOIndex",
              "type": "uint256"
            },
            {
              "internalType": "uint256",
              "name": "aliceOutputIOIndex",
              "type": "uint256"
            },
            {
              "internalType": "uint256",
              "name": "bobInputIOIndex",
              "type": "uint256"
            },
            {
              "internalType": "uint256",
              "name": "bobOutputIOIndex",
              "type": "uint256"
            },
            {
              "internalType": "uint256",
              "name": "aliceBountyVaultId",
              "type": "uint256"
            },
            {
              "internalType": "uint256",
              "name": "bobBountyVaultId",
              "type": "uint256"
            }
          ],
          "indexed": false,
          "internalType": "struct ClearConfig",
          "name": "clearConfig",
          "type": "tuple"
        }
      ],
      "name": "Clear",
      "type": "event"
    },
    {
      "anonymous": false,
      "inputs": [
        {
          "indexed": false,
          "internalType": "address",
          "name": "sender",
          "type": "address"
        },
        {
          "indexed": false,
          "internalType": "uint256[][]",
          "name": "context",
          "type": "uint256[][]"
        }
      ],
      "name": "Context",
      "type": "event"
    },
    {
      "anonymous": false,
      "inputs": [
        {
          "indexed": false,
          "internalType": "address",
          "name": "sender",
          "type": "address"
        },
        {
          "components": [
            {
              "internalType": "address",
              "name": "token",
              "type": "address"
            },
            {
              "internalType": "uint256",
              "name": "vaultId",
              "type": "uint256"
            },
            {
              "internalType": "uint256",
              "name": "amount",
              "type": "uint256"
            }
          ],
          "indexed": false,
          "internalType": "struct DepositConfig",
          "name": "config",
          "type": "tuple"
        }
      ],
      "name": "Deposit",
      "type": "event"
    },
    {
      "anonymous": false,
      "inputs": [
        {
          "indexed": false,
          "internalType": "uint8",
          "name": "version",
          "type": "uint8"
        }
      ],
      "name": "Initialized",
      "type": "event"
    },
    {
      "anonymous": false,
      "inputs": [
        {
          "indexed": false,
          "internalType": "address",
          "name": "sender",
          "type": "address"
        },
        {
          "indexed": false,
          "internalType": "uint256",
          "name": "subject",
          "type": "uint256"
        },
        {
          "indexed": false,
          "internalType": "bytes",
          "name": "meta",
          "type": "bytes"
        }
      ],
      "name": "MetaV1",
      "type": "event"
    },
    {
      "anonymous": false,
      "inputs": [
        {
          "indexed": false,
          "internalType": "address",
          "name": "sender",
          "type": "address"
        },
        {
          "indexed": false,
          "internalType": "address",
          "name": "owner",
          "type": "address"
        },
        {
          "indexed": false,
          "internalType": "uint256",
          "name": "orderHash",
          "type": "uint256"
        }
      ],
      "name": "OrderExceedsMaxRatio",
      "type": "event"
    },
    {
      "anonymous": false,
      "inputs": [
        {
          "indexed": false,
          "internalType": "address",
          "name": "sender",
          "type": "address"
        },
        {
          "indexed": false,
          "internalType": "address",
          "name": "owner",
          "type": "address"
        },
        {
          "indexed": false,
          "internalType": "uint256",
          "name": "orderHash",
          "type": "uint256"
        }
      ],
      "name": "OrderNotFound",
      "type": "event"
    },
    {
      "anonymous": false,
      "inputs": [
        {
          "indexed": false,
          "internalType": "address",
          "name": "sender",
          "type": "address"
        },
        {
          "indexed": false,
          "internalType": "address",
          "name": "owner",
          "type": "address"
        },
        {
          "indexed": false,
          "internalType": "uint256",
          "name": "orderHash",
          "type": "uint256"
        }
      ],
      "name": "OrderZeroAmount",
      "type": "event"
    },
    {
      "anonymous": false,
      "inputs": [
        {
          "indexed": false,
          "internalType": "address",
          "name": "sender",
          "type": "address"
        },
        {
          "components": [
            {
              "internalType": "address",
              "name": "owner",
              "type": "address"
            },
            {
              "internalType": "bool",
              "name": "handleIO",
              "type": "bool"
            },
            {
              "components": [
                {
                  "internalType": "contract IInterpreterV1",
                  "name": "interpreter",
                  "type": "address"
                },
                {
                  "internalType": "contract IInterpreterStoreV1",
                  "name": "store",
                  "type": "address"
                },
                {
                  "internalType": "address",
                  "name": "expression",
                  "type": "address"
                }
              ],
              "internalType": "struct Evaluable",
              "name": "evaluable",
              "type": "tuple"
            },
            {
              "components": [
                {
                  "internalType": "address",
                  "name": "token",
                  "type": "address"
                },
                {
                  "internalType": "uint8",
                  "name": "decimals",
                  "type": "uint8"
                },
                {
                  "internalType": "uint256",
                  "name": "vaultId",
                  "type": "uint256"
                }
              ],
              "internalType": "struct IO[]",
              "name": "validInputs",
              "type": "tuple[]"
            },
            {
              "components": [
                {
                  "internalType": "address",
                  "name": "token",
                  "type": "address"
                },
                {
                  "internalType": "uint8",
                  "name": "decimals",
                  "type": "uint8"
                },
                {
                  "internalType": "uint256",
                  "name": "vaultId",
                  "type": "uint256"
                }
              ],
              "internalType": "struct IO[]",
              "name": "validOutputs",
              "type": "tuple[]"
            }
          ],
          "indexed": false,
          "internalType": "struct Order",
          "name": "order",
          "type": "tuple"
        },
        {
          "indexed": false,
          "internalType": "uint256",
          "name": "orderHash",
          "type": "uint256"
        }
      ],
      "name": "RemoveOrder",
      "type": "event"
    },
    {
      "anonymous": false,
      "inputs": [
        {
          "indexed": false,
          "internalType": "address",
          "name": "sender",
          "type": "address"
        },
        {
          "components": [
            {
              "components": [
                {
                  "internalType": "address",
                  "name": "owner",
                  "type": "address"
                },
                {
                  "internalType": "bool",
                  "name": "handleIO",
                  "type": "bool"
                },
                {
                  "components": [
                    {
                      "internalType": "contract IInterpreterV1",
                      "name": "interpreter",
                      "type": "address"
                    },
                    {
                      "internalType": "contract IInterpreterStoreV1",
                      "name": "store",
                      "type": "address"
                    },
                    {
                      "internalType": "address",
                      "name": "expression",
                      "type": "address"
                    }
                  ],
                  "internalType": "struct Evaluable",
                  "name": "evaluable",
                  "type": "tuple"
                },
                {
                  "components": [
                    {
                      "internalType": "address",
                      "name": "token",
                      "type": "address"
                    },
                    {
                      "internalType": "uint8",
                      "name": "decimals",
                      "type": "uint8"
                    },
                    {
                      "internalType": "uint256",
                      "name": "vaultId",
                      "type": "uint256"
                    }
                  ],
                  "internalType": "struct IO[]",
                  "name": "validInputs",
                  "type": "tuple[]"
                },
                {
                  "components": [
                    {
                      "internalType": "address",
                      "name": "token",
                      "type": "address"
                    },
                    {
                      "internalType": "uint8",
                      "name": "decimals",
                      "type": "uint8"
                    },
                    {
                      "internalType": "uint256",
                      "name": "vaultId",
                      "type": "uint256"
                    }
                  ],
                  "internalType": "struct IO[]",
                  "name": "validOutputs",
                  "type": "tuple[]"
                }
              ],
              "internalType": "struct Order",
              "name": "order",
              "type": "tuple"
            },
            {
              "internalType": "uint256",
              "name": "inputIOIndex",
              "type": "uint256"
            },
            {
              "internalType": "uint256",
              "name": "outputIOIndex",
              "type": "uint256"
            },
            {
              "components": [
                {
                  "internalType": "address",
                  "name": "signer",
                  "type": "address"
                },
                {
                  "internalType": "uint256[]",
                  "name": "context",
                  "type": "uint256[]"
                },
                {
                  "internalType": "bytes",
                  "name": "signature",
                  "type": "bytes"
                }
              ],
              "internalType": "struct SignedContextV1[]",
              "name": "signedContext",
              "type": "tuple[]"
            }
          ],
          "indexed": false,
          "internalType": "struct TakeOrderConfig",
          "name": "config",
          "type": "tuple"
        },
        {
          "indexed": false,
          "internalType": "uint256",
          "name": "input",
          "type": "uint256"
        },
        {
          "indexed": false,
          "internalType": "uint256",
          "name": "output",
          "type": "uint256"
        }
      ],
      "name": "TakeOrder",
      "type": "event"
    },
    {
      "anonymous": false,
      "inputs": [
        {
          "indexed": false,
          "internalType": "address",
          "name": "sender",
          "type": "address"
        },
        {
          "components": [
            {
              "internalType": "address",
              "name": "token",
              "type": "address"
            },
            {
              "internalType": "uint256",
              "name": "vaultId",
              "type": "uint256"
            },
            {
              "internalType": "uint256",
              "name": "amount",
              "type": "uint256"
            }
          ],
          "indexed": false,
          "internalType": "struct WithdrawConfig",
          "name": "config",
          "type": "tuple"
        },
        {
          "indexed": false,
          "internalType": "uint256",
          "name": "amount",
          "type": "uint256"
        }
      ],
      "name": "Withdraw",
      "type": "event"
    },
    {
      "inputs": [
        {
          "components": [
            {
              "components": [
                {
                  "internalType": "address",
                  "name": "token",
                  "type": "address"
                },
                {
                  "internalType": "uint8",
                  "name": "decimals",
                  "type": "uint8"
                },
                {
                  "internalType": "uint256",
                  "name": "vaultId",
                  "type": "uint256"
                }
              ],
              "internalType": "struct IO[]",
              "name": "validInputs",
              "type": "tuple[]"
            },
            {
              "components": [
                {
                  "internalType": "address",
                  "name": "token",
                  "type": "address"
                },
                {
                  "internalType": "uint8",
                  "name": "decimals",
                  "type": "uint8"
                },
                {
                  "internalType": "uint256",
                  "name": "vaultId",
                  "type": "uint256"
                }
              ],
              "internalType": "struct IO[]",
              "name": "validOutputs",
              "type": "tuple[]"
            },
            {
              "components": [
                {
                  "internalType": "contract IExpressionDeployerV1",
                  "name": "deployer",
                  "type": "address"
                },
                {
                  "internalType": "bytes[]",
                  "name": "sources",
                  "type": "bytes[]"
                },
                {
                  "internalType": "uint256[]",
                  "name": "constants",
                  "type": "uint256[]"
                }
              ],
              "internalType": "struct EvaluableConfig",
              "name": "evaluableConfig",
              "type": "tuple"
            },
            {
              "internalType": "bytes",
              "name": "meta",
              "type": "bytes"
            }
          ],
          "internalType": "struct OrderConfig",
          "name": "config_",
          "type": "tuple"
        }
      ],
      "name": "addOrder",
      "outputs": [],
      "stateMutability": "nonpayable",
      "type": "function"
    },
    {
      "inputs": [
        {
          "components": [
            {
              "internalType": "address",
              "name": "owner",
              "type": "address"
            },
            {
              "internalType": "bool",
              "name": "handleIO",
              "type": "bool"
            },
            {
              "components": [
                {
                  "internalType": "contract IInterpreterV1",
                  "name": "interpreter",
                  "type": "address"
                },
                {
                  "internalType": "contract IInterpreterStoreV1",
                  "name": "store",
                  "type": "address"
                },
                {
                  "internalType": "address",
                  "name": "expression",
                  "type": "address"
                }
              ],
              "internalType": "struct Evaluable",
              "name": "evaluable",
              "type": "tuple"
            },
            {
              "components": [
                {
                  "internalType": "address",
                  "name": "token",
                  "type": "address"
                },
                {
                  "internalType": "uint8",
                  "name": "decimals",
                  "type": "uint8"
                },
                {
                  "internalType": "uint256",
                  "name": "vaultId",
                  "type": "uint256"
                }
              ],
              "internalType": "struct IO[]",
              "name": "validInputs",
              "type": "tuple[]"
            },
            {
              "components": [
                {
                  "internalType": "address",
                  "name": "token",
                  "type": "address"
                },
                {
                  "internalType": "uint8",
                  "name": "decimals",
                  "type": "uint8"
                },
                {
                  "internalType": "uint256",
                  "name": "vaultId",
                  "type": "uint256"
                }
              ],
              "internalType": "struct IO[]",
              "name": "validOutputs",
              "type": "tuple[]"
            }
          ],
          "internalType": "struct Order",
          "name": "alice_",
          "type": "tuple"
        },
        {
          "components": [
            {
              "internalType": "address",
              "name": "owner",
              "type": "address"
            },
            {
              "internalType": "bool",
              "name": "handleIO",
              "type": "bool"
            },
            {
              "components": [
                {
                  "internalType": "contract IInterpreterV1",
                  "name": "interpreter",
                  "type": "address"
                },
                {
                  "internalType": "contract IInterpreterStoreV1",
                  "name": "store",
                  "type": "address"
                },
                {
                  "internalType": "address",
                  "name": "expression",
                  "type": "address"
                }
              ],
              "internalType": "struct Evaluable",
              "name": "evaluable",
              "type": "tuple"
            },
            {
              "components": [
                {
                  "internalType": "address",
                  "name": "token",
                  "type": "address"
                },
                {
                  "internalType": "uint8",
                  "name": "decimals",
                  "type": "uint8"
                },
                {
                  "internalType": "uint256",
                  "name": "vaultId",
                  "type": "uint256"
                }
              ],
              "internalType": "struct IO[]",
              "name": "validInputs",
              "type": "tuple[]"
            },
            {
              "components": [
                {
                  "internalType": "address",
                  "name": "token",
                  "type": "address"
                },
                {
                  "internalType": "uint8",
                  "name": "decimals",
                  "type": "uint8"
                },
                {
                  "internalType": "uint256",
                  "name": "vaultId",
                  "type": "uint256"
                }
              ],
              "internalType": "struct IO[]",
              "name": "validOutputs",
              "type": "tuple[]"
            }
          ],
          "internalType": "struct Order",
          "name": "bob_",
          "type": "tuple"
        },
        {
          "components": [
            {
              "internalType": "uint256",
              "name": "aliceInputIOIndex",
              "type": "uint256"
            },
            {
              "internalType": "uint256",
              "name": "aliceOutputIOIndex",
              "type": "uint256"
            },
            {
              "internalType": "uint256",
              "name": "bobInputIOIndex",
              "type": "uint256"
            },
            {
              "internalType": "uint256",
              "name": "bobOutputIOIndex",
              "type": "uint256"
            },
            {
              "internalType": "uint256",
              "name": "aliceBountyVaultId",
              "type": "uint256"
            },
            {
              "internalType": "uint256",
              "name": "bobBountyVaultId",
              "type": "uint256"
            }
          ],
          "internalType": "struct ClearConfig",
          "name": "clearConfig_",
          "type": "tuple"
        },
        {
          "components": [
            {
              "internalType": "address",
              "name": "signer",
              "type": "address"
            },
            {
              "internalType": "uint256[]",
              "name": "context",
              "type": "uint256[]"
            },
            {
              "internalType": "bytes",
              "name": "signature",
              "type": "bytes"
            }
          ],
          "internalType": "struct SignedContextV1[]",
          "name": "aliceSignedContext_",
          "type": "tuple[]"
        },
        {
          "components": [
            {
              "internalType": "address",
              "name": "signer",
              "type": "address"
            },
            {
              "internalType": "uint256[]",
              "name": "context",
              "type": "uint256[]"
            },
            {
              "internalType": "bytes",
              "name": "signature",
              "type": "bytes"
            }
          ],
          "internalType": "struct SignedContextV1[]",
          "name": "bobSignedContext_",
          "type": "tuple[]"
        }
      ],
      "name": "clear",
      "outputs": [],
      "stateMutability": "nonpayable",
      "type": "function"
    },
    {
      "inputs": [
        {
          "components": [
            {
              "internalType": "address",
              "name": "token",
              "type": "address"
            },
            {
              "internalType": "uint256",
              "name": "vaultId",
              "type": "uint256"
            },
            {
              "internalType": "uint256",
              "name": "amount",
              "type": "uint256"
            }
          ],
          "internalType": "struct DepositConfig",
          "name": "config_",
          "type": "tuple"
        }
      ],
      "name": "deposit",
      "outputs": [],
      "stateMutability": "nonpayable",
      "type": "function"
    },
    {
      "inputs": [
        {
          "internalType": "address",
          "name": "",
          "type": "address"
        },
        {
          "internalType": "uint256",
          "name": "",
          "type": "uint256"
        }
      ],
      "name": "flashFee",
      "outputs": [
        {
          "internalType": "uint256",
          "name": "",
          "type": "uint256"
        }
      ],
      "stateMutability": "pure",
      "type": "function"
    },
    {
      "inputs": [
        {
          "internalType": "contract IERC3156FlashBorrower",
          "name": "receiver_",
          "type": "address"
        },
        {
          "internalType": "address",
          "name": "token_",
          "type": "address"
        },
        {
          "internalType": "uint256",
          "name": "amount_",
          "type": "uint256"
        },
        {
          "internalType": "bytes",
          "name": "data_",
          "type": "bytes"
        }
      ],
      "name": "flashLoan",
      "outputs": [
        {
          "internalType": "bool",
          "name": "",
          "type": "bool"
        }
      ],
      "stateMutability": "nonpayable",
      "type": "function"
    },
    {
      "inputs": [
        {
          "internalType": "address",
          "name": "token_",
          "type": "address"
        }
      ],
      "name": "maxFlashLoan",
      "outputs": [
        {
          "internalType": "uint256",
          "name": "",
          "type": "uint256"
        }
      ],
      "stateMutability": "view",
      "type": "function"
    },
    {
      "inputs": [
        {
          "internalType": "bytes[]",
          "name": "data",
          "type": "bytes[]"
        }
      ],
      "name": "multicall",
      "outputs": [
        {
          "internalType": "bytes[]",
          "name": "results",
          "type": "bytes[]"
        }
      ],
      "stateMutability": "nonpayable",
      "type": "function"
    },
    {
      "inputs": [
        {
          "components": [
            {
              "internalType": "address",
              "name": "owner",
              "type": "address"
            },
            {
              "internalType": "bool",
              "name": "handleIO",
              "type": "bool"
            },
            {
              "components": [
                {
                  "internalType": "contract IInterpreterV1",
                  "name": "interpreter",
                  "type": "address"
                },
                {
                  "internalType": "contract IInterpreterStoreV1",
                  "name": "store",
                  "type": "address"
                },
                {
                  "internalType": "address",
                  "name": "expression",
                  "type": "address"
                }
              ],
              "internalType": "struct Evaluable",
              "name": "evaluable",
              "type": "tuple"
            },
            {
              "components": [
                {
                  "internalType": "address",
                  "name": "token",
                  "type": "address"
                },
                {
                  "internalType": "uint8",
                  "name": "decimals",
                  "type": "uint8"
                },
                {
                  "internalType": "uint256",
                  "name": "vaultId",
                  "type": "uint256"
                }
              ],
              "internalType": "struct IO[]",
              "name": "validInputs",
              "type": "tuple[]"
            },
            {
              "components": [
                {
                  "internalType": "address",
                  "name": "token",
                  "type": "address"
                },
                {
                  "internalType": "uint8",
                  "name": "decimals",
                  "type": "uint8"
                },
                {
                  "internalType": "uint256",
                  "name": "vaultId",
                  "type": "uint256"
                }
              ],
              "internalType": "struct IO[]",
              "name": "validOutputs",
              "type": "tuple[]"
            }
          ],
          "internalType": "struct Order",
          "name": "order_",
          "type": "tuple"
        }
      ],
      "name": "removeOrder",
      "outputs": [],
      "stateMutability": "nonpayable",
      "type": "function"
    },
    {
      "inputs": [
        {
          "components": [
            {
              "internalType": "address",
              "name": "output",
              "type": "address"
            },
            {
              "internalType": "address",
              "name": "input",
              "type": "address"
            },
            {
              "internalType": "uint256",
              "name": "minimumInput",
              "type": "uint256"
            },
            {
              "internalType": "uint256",
              "name": "maximumInput",
              "type": "uint256"
            },
            {
              "internalType": "uint256",
              "name": "maximumIORatio",
              "type": "uint256"
            },
            {
              "components": [
                {
                  "components": [
                    {
                      "internalType": "address",
                      "name": "owner",
                      "type": "address"
                    },
                    {
                      "internalType": "bool",
                      "name": "handleIO",
                      "type": "bool"
                    },
                    {
                      "components": [
                        {
                          "internalType": "contract IInterpreterV1",
                          "name": "interpreter",
                          "type": "address"
                        },
                        {
                          "internalType": "contract IInterpreterStoreV1",
                          "name": "store",
                          "type": "address"
                        },
                        {
                          "internalType": "address",
                          "name": "expression",
                          "type": "address"
                        }
                      ],
                      "internalType": "struct Evaluable",
                      "name": "evaluable",
                      "type": "tuple"
                    },
                    {
                      "components": [
                        {
                          "internalType": "address",
                          "name": "token",
                          "type": "address"
                        },
                        {
                          "internalType": "uint8",
                          "name": "decimals",
                          "type": "uint8"
                        },
                        {
                          "internalType": "uint256",
                          "name": "vaultId",
                          "type": "uint256"
                        }
                      ],
                      "internalType": "struct IO[]",
                      "name": "validInputs",
                      "type": "tuple[]"
                    },
                    {
                      "components": [
                        {
                          "internalType": "address",
                          "name": "token",
                          "type": "address"
                        },
                        {
                          "internalType": "uint8",
                          "name": "decimals",
                          "type": "uint8"
                        },
                        {
                          "internalType": "uint256",
                          "name": "vaultId",
                          "type": "uint256"
                        }
                      ],
                      "internalType": "struct IO[]",
                      "name": "validOutputs",
                      "type": "tuple[]"
                    }
                  ],
                  "internalType": "struct Order",
                  "name": "order",
                  "type": "tuple"
                },
                {
                  "internalType": "uint256",
                  "name": "inputIOIndex",
                  "type": "uint256"
                },
                {
                  "internalType": "uint256",
                  "name": "outputIOIndex",
                  "type": "uint256"
                },
                {
                  "components": [
                    {
                      "internalType": "address",
                      "name": "signer",
                      "type": "address"
                    },
                    {
                      "internalType": "uint256[]",
                      "name": "context",
                      "type": "uint256[]"
                    },
                    {
                      "internalType": "bytes",
                      "name": "signature",
                      "type": "bytes"
                    }
                  ],
                  "internalType": "struct SignedContextV1[]",
                  "name": "signedContext",
                  "type": "tuple[]"
                }
              ],
              "internalType": "struct TakeOrderConfig[]",
              "name": "orders",
              "type": "tuple[]"
            }
          ],
          "internalType": "struct TakeOrdersConfig",
          "name": "takeOrders_",
          "type": "tuple"
        }
      ],
      "name": "takeOrders",
      "outputs": [
        {
          "internalType": "uint256",
          "name": "totalInput_",
          "type": "uint256"
        },
        {
          "internalType": "uint256",
          "name": "totalOutput_",
          "type": "uint256"
        }
      ],
      "stateMutability": "nonpayable",
      "type": "function"
    },
    {
      "inputs": [
        {
          "internalType": "address",
          "name": "",
          "type": "address"
        },
        {
          "internalType": "address",
          "name": "",
          "type": "address"
        },
        {
          "internalType": "uint256",
          "name": "",
          "type": "uint256"
        }
      ],
      "name": "vaultBalance",
      "outputs": [
        {
          "internalType": "uint256",
          "name": "",
          "type": "uint256"
        }
      ],
      "stateMutability": "view",
      "type": "function"
    },
    {
      "inputs": [
        {
          "components": [
            {
              "internalType": "address",
              "name": "token",
              "type": "address"
            },
            {
              "internalType": "uint256",
              "name": "vaultId",
              "type": "uint256"
            },
            {
              "internalType": "uint256",
              "name": "amount",
              "type": "uint256"
            }
          ],
          "internalType": "struct WithdrawConfig",
          "name": "config_",
          "type": "tuple"
        }
      ],
      "name": "withdraw",
      "outputs": [],
      "stateMutability": "nonpayable",
      "type": "function"
    }
  ],
  "bytecode": "0x6080604052606580546001600160a01b031990811690915560668054909116905560006067553480156200003257600080fd5b50604051620059823803806200598283398101604081905262000055916200057f565b7f10f97a047a9d287eb96c885188fbdcd3bf1a525a1b31270fc4f9f6a0bc9554a660001b81620000958282602001516200023360201b620018511760201c565b60208101516040517fbea766d03fa1efd3f81cc8634d08320bc62bb0ed9234ac59bbaafa5893fb6b1391620000ce91339130916200068d565b60405180910390a1620000f081600001516200027660201b620018a91760201c565b5050600054610100900460ff1615808015620001135750600054600160ff909116105b8062000143575062000130306200033a60201b6200198b1760201c565b15801562000143575060005460ff166001145b620001ac5760405162461bcd60e51b815260206004820152602e60248201527f496e697469616c697a61626c653a20636f6e747261637420697320616c72656160448201526d191e481a5b9a5d1a585b1a5e995960921b60648201526084015b60405180910390fd5b6000805460ff191660011790558015620001d0576000805461ff0019166101001790555b620001da62000349565b620001e4620003b1565b80156200022b576000805461ff0019169055604051600181527f7f26b83ff96e1f2b6a682f133852f6798a09c465da95921460cefb38474024989060200160405180910390a15b5050620007ff565b80516020820120828114620002665760405163074fe10f60e41b81526004810184905260248101829052604401620001a3565b62000271826200040d565b505050565b604080516000808252602082019092526001600160a01b03831691635511cb679190620002b4565b60608152602001906001900390816200029e5790505b5060408051600080825260208201908152818301928390526001600160e01b031960e086901b16909252620002ee929160448201620006fc565b6060604051808303816000875af11580156200030e573d6000803e3d6000fd5b505050506040513d601f19601f820116820180604052508101906200033491906200078f565b50505050565b6001600160a01b03163b151590565b600054610100900460ff16620003a55760405162461bcd60e51b815260206004820152602b60248201526000805160206200596283398151915260448201526a6e697469616c697a696e6760a81b6064820152608401620001a3565b620003af6200043d565b565b600054610100900460ff16620003af5760405162461bcd60e51b815260206004820152602b60248201526000805160206200596283398151915260448201526a6e697469616c697a696e6760a81b6064820152608401620001a3565b62000418816200049f565b6200043a5780604051630c89984b60e31b8152600401620001a39190620007e3565b50565b600054610100900460ff16620004995760405162461bcd60e51b815260206004820152602b60248201526000805160206200596283398151915260448201526a6e697469616c697a696e6760a81b6064820152608401620001a3565b60018055565b6000600882511015620004b457506000919050565b50600801516001600160401b031667ff0a89c674ee78741490565b634e487b7160e01b600052604160045260246000fd5b604080519081016001600160401b03811182821017156200050a576200050a620004cf565b60405290565b604051601f8201601f191681016001600160401b03811182821017156200053b576200053b620004cf565b604052919050565b6001600160a01b03811681146200043a57600080fd5b60005b83811015620005765781810151838201526020016200055c565b50506000910152565b600060208083850312156200059357600080fd5b82516001600160401b0380821115620005ab57600080fd5b9084019060408287031215620005c057600080fd5b620005ca620004e5565b8251620005d78162000543565b81528284015182811115620005eb57600080fd5b80840193505086601f8401126200060157600080fd5b825182811115620006165762000616620004cf565b6200062a601f8201601f1916860162000510565b925080835287858286010111156200064157600080fd5b620006528186850187870162000559565b5092830152509392505050565b600081518084526200067981602086016020860162000559565b601f01601f19169290920160200192915050565b60018060a01b0384168152826020820152606060408201526000620006b660608301846200065f565b95945050505050565b600081518084526020808501945080840160005b83811015620006f157815187529582019590820190600101620006d3565b509495945050505050565b6000606082016060835280865180835260808501915060808160051b8601019250602080890160005b838110156200075757607f19888703018552620007448683516200065f565b9550938201939082019060010162000725565b5050858403818701525050506200076f8186620006bf565b90508281036040840152620007858185620006bf565b9695505050505050565b600080600060608486031215620007a557600080fd5b8351620007b28162000543565b6020850151909350620007c58162000543565b6040850151909250620007d88162000543565b809150509250925092565b602081526000620007f860208301846200065f565b9392505050565b615153806200080f6000396000f3fe608060405234801561001057600080fd5b50600436106100c95760003560e01c80639e18968b11610081578063d9d98ce41161005b578063d9d98ce4146101cb578063e23746a3146101de578063e6b62636146101f157600080fd5b80639e18968b14610167578063ac9650d81461017a578063d97b2e481461019a57600080fd5b8063613255ab116100b2578063613255ab1461010b578063702766781461012c5780637a8048df1461013f57600080fd5b80634f266187146100ce5780635cffe9de146100e3575b600080fd5b6100e16100dc366004613904565b610204565b005b6100f66100f1366004613942565b610351565b60405190151581526020015b60405180910390f35b61011e6101193660046139e1565b610600565b604051908152602001610102565b6100e161013a3660046139fe565b6106aa565b61015261014d366004613a4b565b610a3d565b60408051928352602083019190915201610102565b6100e1610175366004613f4f565b610fa1565b61018d610188366004614011565b611561565b6040516101029190614149565b61011e6101a836600461415c565b606960209081526000938452604080852082529284528284209052825290205481565b61011e6101d936600461419d565b6106a1565b6100e16101ec3660046141c9565b611656565b6100e16101ff366004613904565b61176a565b61020c6119a7565b336000908152606960209081526040822090829061022c908501856139e1565b73ffffffffffffffffffffffffffffffffffffffff168152602080820192909252604090810160009081208584013582529092528082205492506102739084013583611a1a565b905061027f8183614233565b3360009081526069602090815260408220919061029e908701876139e1565b73ffffffffffffffffffffffffffffffffffffffff1673ffffffffffffffffffffffffffffffffffffffff168152602001908152602001600020600085602001358152602001908152602001600020819055507f2538ccc7ad2a119a36f2e65c1e2fc908beef800cd59b5d6680db24de18e7847a3384836040516103249392919061427e565b60405180910390a161034361033c60208501856139e1565b3383611a32565b505061034e60018055565b50565b600061035b611ae0565b73ffffffffffffffffffffffffffffffffffffffff85166103a8576040517fad1991f500000000000000000000000000000000000000000000000000000000815260040160405180910390fd5b73ffffffffffffffffffffffffffffffffffffffff86166103f5576040517f6ba9ecd800000000000000000000000000000000000000000000000000000000815260040160405180910390fd5b6066805473ffffffffffffffffffffffffffffffffffffffff8088167fffffffffffffffffffffffff0000000000000000000000000000000000000000928316179092556065805492891692909116919091179055606784905583156104765761047673ffffffffffffffffffffffffffffffffffffffff86168786611b51565b6040517f23e30c8b00000000000000000000000000000000000000000000000000000000815260009073ffffffffffffffffffffffffffffffffffffffff8816906323e30c8b906104d59033908a908a9087908b908b906004016142ff565b6020604051808303816000875af11580156104f4573d6000803e3d6000fd5b505050506040513d601f19601f820116820180604052508101906105189190614345565b90507f439148f0bbc682ca079e46d6e2c2f0c1e3b820f1a291b069d8882abf8cf18dd9811461057b576040517f5b62c548000000000000000000000000000000000000000000000000000000008152600481018290526024015b60405180910390fd5b606754945084156105b7576065546066546105b19173ffffffffffffffffffffffffffffffffffffffff91821691163088611c25565b60006067555b606580547fffffffffffffffffffffffff00000000000000000000000000000000000000009081169091556066805490911690556105f3611ae0565b5060019695505050505050565b600061060a611c83565b6106a1576040517f70a0823100000000000000000000000000000000000000000000000000000000815230600482015273ffffffffffffffffffffffffffffffffffffffff8316906370a0823190602401602060405180830381865afa158015610678573d6000803e3d6000fd5b505050506040513d601f19601f8201168201806040525081019061069c9190614345565b6106a4565b60005b92915050565b6106b26119a7565b600080806106c3604085018561435e565b6106d19060208101906139e1565b73ffffffffffffffffffffffffffffffffffffffff16635511cb676106f9604087018761435e565b61070790602081019061439c565b610714604089018961435e565b61072290604081019061439c565b61072e60026000611cd4565b6040518663ffffffff1660e01b815260040161074e95949392919061448a565b6060604051808303816000875af115801561076d573d6000803e3d6000fd5b505050506040513d601f19601f820116820180604052508101906107919190614580565b92509250925060006040518060a001604052803373ffffffffffffffffffffffffffffffffffffffff16815260200160008780604001906107d2919061435e565b6107e090602081019061439c565b60018181106107f1576107f16145cd565b905060200281019061080391906145fc565b919091118252506040805160608101825273ffffffffffffffffffffffffffffffffffffffff8089168252878116602083810191909152908716828401528301520161084f8780614661565b808060200260200160405190810160405280939291908181526020016000905b8282101561089b5761088c606083028601368190038101906146c8565b8152602001906001019061086f565b505050505081526020018680602001906108b59190614661565b808060200260200160405190810160405280939291908181526020016000905b82821015610901576108f2606083028601368190038101906146c8565b815260200190600101906108d5565b50505050508152509050600061091682611d08565b60008181526068602052604090819020600190559091507f73e46afa6205785bdaa1daaf8b6ccc71715ec06b3b4264f5a00fde98671c2fc690339061095d9089018961435e565b61096b9060208101906139e1565b848460405161097d94939291906147c6565b60405180910390a1600061099460608801886145fc565b90501115610a2f576109e66109ac60608801886145fc565b8080601f016020809104026020016040519081016040528093929190818152602001838380828437600092019190915250611d5792505050565b7fbea766d03fa1efd3f81cc8634d08320bc62bb0ed9234ac59bbaafa5893fb6b133382610a1660608a018a6145fc565b604051610a269493929190614810565b60405180910390a15b505050505061034e60018055565b600080610a486119a7565b6000610aaf604080516101208101825260006080820181815260a08301829052835160608082018652838252602080830185905282870185905260c086019290925260e0850181905261010085018190529184528301829052928201528181019190915290565b6040805160a08101825260008082526020808301829052835160608082018652838252918101839052808501929092529282015281810182905260808101829052908601355b610b0260a088018861439c565b905084108015610b125750600081115b15610ee957610b2460a088018861439c565b85818110610b3457610b346145cd565b9050602002810190610b469190614846565b610b4f9061487a565b805190935091506000610b6183611d08565b600081815260686020526040902054909150610bd45782516040805133815273ffffffffffffffffffffffffffffffffffffffff909216602083015281018290527fe721f6888210c87666d3888f93b4139a86ab7757999ce54e268cba700d642a3b9060600160405180910390a1610edd565b610be160208901896139e1565b73ffffffffffffffffffffffffffffffffffffffff168360600151856020015181518110610c1157610c116145cd565b60200260200101516000015173ffffffffffffffffffffffffffffffffffffffff1614610cbe578260600151846020015181518110610c5257610c526145cd565b6020908102919091018101515190610c6c908a018a6139e1565b6040517ff902523f00000000000000000000000000000000000000000000000000000000815273ffffffffffffffffffffffffffffffffffffffff928316600482015291166024820152604401610572565b610cce6040890160208a016139e1565b73ffffffffffffffffffffffffffffffffffffffff168360800151856040015181518110610cfe57610cfe6145cd565b60200260200101516000015173ffffffffffffffffffffffffffffffffffffffff1614610d5e578260800151846040015181518110610d3f57610d3f6145cd565b602002602001015160000151886020016020810190610c6c91906139e1565b6000610d798486602001518760400151338960600151611d98565b9050886080013581602001511115610de95783516040805133815273ffffffffffffffffffffffffffffffffffffffff909216602083015281018390527f460c258f27efac20e56c4607a28003d235168e76997ffb7542637d26d45ea6d8906060015b60405180910390a1610edb565b8051600003610e475783516040805133815273ffffffffffffffffffffffffffffffffffffffff909216602083015281018390527f3ba461a0ffd1b6782d4817ae7be605cfb1bbb4fa503c0dd613b8e50f1dcafacd90606001610ddc565b8051600090610e57908590611a1a565b90506000610e7583602001516001846124599092919063ffffffff16565b9050610e818286614233565b9450610e8d818a614914565b9850610e9b86828486612477565b7f219a030b7ae56e7bea2baab709a4a45dc174a1f85e57730e5cb395bc3296254233888484604051610ed09493929190614927565b60405180910390a150505b505b50600190930192610af5565b610ef7816060890135614233565b95508660400135861015610f4457604080517f45094d8800000000000000000000000000000000000000000000000000000000815290880135600482015260248101879052604401610572565b610f75333087610f5760208c018c6139e1565b73ffffffffffffffffffffffffffffffffffffffff16929190611c25565b610f8f610f886040890160208a016139e1565b3388611a32565b50505050610f9c60018055565b915091565b610fa96119a7565b8351855173ffffffffffffffffffffffffffffffffffffffff9182169116036110195784516040517f227e4ce900000000000000000000000000000000000000000000000000000000815273ffffffffffffffffffffffffffffffffffffffff9091166004820152602401610572565b8360600151836040013581518110611033576110336145cd565b60200260200101516000015173ffffffffffffffffffffffffffffffffffffffff16856080015184602001358151811061106f5761106f6145cd565b60200260200101516000015173ffffffffffffffffffffffffffffffffffffffff16146111345784608001518360200135815181106110b0576110b06145cd565b60200260200101516000015184606001518460400135815181106110d6576110d66145cd565b6020908102919091010151516040517ff902523f00000000000000000000000000000000000000000000000000000000815273ffffffffffffffffffffffffffffffffffffffff928316600482015291166024820152604401610572565b60608501518051843590811061114c5761114c6145cd565b60200260200101516000015173ffffffffffffffffffffffffffffffffffffffff168460800151846060013581518110611188576111886145cd565b60200260200101516000015173ffffffffffffffffffffffffffffffffffffffff16146111ed576060850151805184359081106111c7576111c76145cd565b60200260200101516000015184608001518460600135815181106110d6576110d66145cd565b6000606860006111fc88611d08565b8152602001908152602001600020540361127b577fe721f6888210c87666d3888f93b4139a86ab7757999ce54e268cba700d642a3b33866000015161124088611d08565b6040805173ffffffffffffffffffffffffffffffffffffffff94851681529390921660208401529082015260600160405180910390a1611551565b60006068600061128a87611d08565b815260200190815260200160002054036112ce577fe721f6888210c87666d3888f93b4139a86ab7757999ce54e268cba700d642a3b33856000015161124087611d08565b7fd153812deb929a6e4378f6f8cf61d010470840bf2e736f43fb2275803958bfa2338686866040516113039493929190614a57565b60405180910390a160006113268685600001358660200135886000015186611d98565b9050600061134386866040013587606001358a6000015188611d98565b90506000611351838361291f565b9050611367888260400151836000015186612477565b61137b878260600151836020015185612477565b6060810151815160009161138e91614233565b90506000826040015183602001516113a69190614233565b9050811561144c57336000908152606960209081526040822060808d01518051869492938d01359081106113dc576113dc6145cd565b60200260200101516000015173ffffffffffffffffffffffffffffffffffffffff1673ffffffffffffffffffffffffffffffffffffffff16815260200190815260200160002060008a60800135815260200190815260200160002060008282546114469190614914565b90915550505b80156114f05733600090815260696020526040812060808b015180518493919060608d0135908110611480576114806145cd565b60200260200101516000015173ffffffffffffffffffffffffffffffffffffffff1673ffffffffffffffffffffffffffffffffffffffff16815260200190815260200160002060008a60a00135815260200190815260200160002060008282546114ea9190614914565b90915550505b5050604080513381528251602080830191909152830151818301529082015160608083019190915282015160808201527f3f20e55919cca701abb2a40ab72542b25ea7eed63a50f979dd2cd3231e5f488d9060a00160405180910390a15050505b61155a60018055565b5050505050565b60608167ffffffffffffffff81111561157c5761157c613a80565b6040519080825280602002602001820160405280156115af57816020015b606081526020019060019003908161159a5790505b50905060005b8281101561164f5761161f308585848181106115d3576115d36145cd565b90506020028101906115e591906145fc565b8080601f0160208091040260200160405190810160405280939291908181526020018383808284376000920191909152506129f492505050565b828281518110611631576116316145cd565b6020026020010181905250808061164790614ae1565b9150506115b5565b5092915050565b61165e6119a7565b61166b60208201826139e1565b73ffffffffffffffffffffffffffffffffffffffff163373ffffffffffffffffffffffffffffffffffffffff16146116fd57336116ab60208301836139e1565b6040517f4702b91400000000000000000000000000000000000000000000000000000000815273ffffffffffffffffffffffffffffffffffffffff928316600482015291166024820152604401610572565b600061171061170b83614b19565b611d08565b60008181526068602052604080822091909155519091507fe2dd87ac53228b6f23feabcc7301fe64145f23cc3c3ed75e6cd07341ae7f22829061175890339085908590614bf5565b60405180910390a15061034e60018055565b6117726119a7565b7fadc7bd964a04a8a02261d33d2d09c6a7d9f539bc5eab77008e85fc6661ef123133826040516117a3929190614cfa565b60405180910390a16117c233306040840135610f5760208601866139e1565b336000908152606960209081526040808320908401359290916117e7908501856139e1565b73ffffffffffffffffffffffffffffffffffffffff1673ffffffffffffffffffffffffffffffffffffffff16815260200190815260200160002060008360200135815260200190815260200160002060008282546118459190614914565b90915550506001805550565b8051602082012082811461189b576040517f74fe10f00000000000000000000000000000000000000000000000000000000081526004810184905260248101829052604401610572565b6118a482611d57565b505050565b6040805160008082526020820190925273ffffffffffffffffffffffffffffffffffffffff831691635511cb6791906118f2565b60608152602001906001900390816118dd5790505b5060408051600080825260208201908152818301928390527fffffffff0000000000000000000000000000000000000000000000000000000060e086901b16909252611942929160448201614d24565b6060604051808303816000875af1158015611961573d6000803e3d6000fd5b505050506040513d601f19601f820116820180604052508101906119859190614580565b50505050565b73ffffffffffffffffffffffffffffffffffffffff163b151590565b600260015403611a13576040517f08c379a000000000000000000000000000000000000000000000000000000000815260206004820152601f60248201527f5265656e7472616e637947756172643a207265656e7472616e742063616c6c006044820152606401610572565b6002600155565b6000818310611a295781611a2b565b825b9392505050565b60665473ffffffffffffffffffffffffffffffffffffffff8481169116148015611a76575060655473ffffffffffffffffffffffffffffffffffffffff8381169116145b15611ab9576000611a9260675483611a1a90919063ffffffff16565b9050611a9e8183614233565b91508060676000828254611ab29190614233565b9091555050505b80156118a4576118a473ffffffffffffffffffffffffffffffffffffffff84168383611b51565b611ae8611c83565b15611b4f576065546066546067546040517f60817cfa00000000000000000000000000000000000000000000000000000000815273ffffffffffffffffffffffffffffffffffffffff93841660048201529290911660248301526044820152606401610572565b565b60405173ffffffffffffffffffffffffffffffffffffffff83166024820152604481018290526118a49084907fa9059cbb00000000000000000000000000000000000000000000000000000000906064015b604080517fffffffffffffffffffffffffffffffffffffffffffffffffffffffffffffffe08184030181529190526020810180517bffffffffffffffffffffffffffffffffffffffffffffffffffffffff167fffffffff0000000000000000000000000000000000000000000000000000000090931692909217909152612b33565b60405173ffffffffffffffffffffffffffffffffffffffff808516602483015283166044820152606481018290526119859085907f23b872dd0000000000000000000000000000000000000000000000000000000090608401611ba3565b60655460009073ffffffffffffffffffffffffffffffffffffffff16151580611cc3575060665473ffffffffffffffffffffffffffffffffffffffff1615155b80611ccf575060675415155b905090565b6040805160028082526060808301845292600092919060208301908036833750505060208101949094525050604082015290565b600081604051602001611d1b9190614d5d565b604080517fffffffffffffffffffffffffffffffffffffffffffffffffffffffffffffffe0818403018152919052805160209091012092915050565b611d6081612c3f565b61034e57806040517f644cc2580000000000000000000000000000000000000000000000000000000081526004016105729190614d70565b611dca6040518060a0016040528060008152602001600081526020016060815260200160008152602001606081525090565b6000611dd587611d08565b60408051600480825260a08201909252919250606091600091816020015b6060815260200190600190039081611df3579050509050611e45838a6000015173ffffffffffffffffffffffffffffffffffffffff168873ffffffffffffffffffffffffffffffffffffffff16612c6f565b816001800381518110611e5a57611e5a6145cd565b6020026020010181905250611fc289606001518981518110611e7e57611e7e6145cd565b60200260200101516000015173ffffffffffffffffffffffffffffffffffffffff168a606001518a81518110611eb657611eb66145cd565b60200260200101516020015160ff168b606001518b81518110611edb57611edb6145cd565b602002602001015160400151606960008e6000015173ffffffffffffffffffffffffffffffffffffffff1673ffffffffffffffffffffffffffffffffffffffff16815260200190815260200160002060008e606001518e81518110611f4257611f426145cd565b60200260200101516000015173ffffffffffffffffffffffffffffffffffffffff1673ffffffffffffffffffffffffffffffffffffffff16815260200190815260200160002060008e606001518e81518110611fa057611fa06145cd565b6020026020010151604001518152602001908152602001600020546000612cac565b81600160030381518110611fd857611fd86145cd565b602002602001018190525061211e89608001518881518110611ffc57611ffc6145cd565b60200260200101516000015173ffffffffffffffffffffffffffffffffffffffff168a608001518981518110612034576120346145cd565b60200260200101516020015160ff168b608001518a81518110612059576120596145cd565b602002602001015160400151606960008e6000015173ffffffffffffffffffffffffffffffffffffffff1673ffffffffffffffffffffffffffffffffffffffff16815260200190815260200160002060008e608001518d815181106120c0576120c06145cd565b60200260200101516000015173ffffffffffffffffffffffffffffffffffffffff1673ffffffffffffffffffffffffffffffffffffffff16815260200190815260200160002060008e608001518d81518110611fa057611fa06145cd565b81600160040381518110612134576121346145cd565b60200260200101819052506121498186612cf7565b9150506000886000015173ffffffffffffffffffffffffffffffffffffffff1690506000808a604001516000015173ffffffffffffffffffffffffffffffffffffffff16636715f8258c6040015160200151856121ad8f604001516040015161300f565b886040518563ffffffff1660e01b81526004016121cd9493929190614dcb565b600060405180830381865afa1580156121ea573d6000803e3d6000fd5b505050506040513d6000823e601f3d9081017fffffffffffffffffffffffffffffffffffffffffffffffffffffffffffffffe01682016040526122309190810190614e61565b9150915060008260028451038151811061224c5761224c6145cd565b6020026020010151905060008360018551038151811061226e5761226e6145cd565b602002602001015190506122b28d608001518c81518110612291576122916145cd565b60200260200101516020015160ff166002846130389092919063ffffffff16565b915061230e8d608001518c815181106122cd576122cd6145cd565b6020026020010151602001518e606001518e815181106122ef576122ef6145cd565b6020026020010151602001516001846130bd909392919063ffffffff16565b90506123f6606960008f6000015173ffffffffffffffffffffffffffffffffffffffff1673ffffffffffffffffffffffffffffffffffffffff16815260200190815260200160002060008f608001518e8151811061236e5761236e6145cd565b60200260200101516000015173ffffffffffffffffffffffffffffffffffffffff1673ffffffffffffffffffffffffffffffffffffffff16815260200190815260200160002060008f608001518e815181106123cc576123cc6145cd565b60200260200101516040015181526020019081526020016000205483611a1a90919063ffffffff16565b91506124028282611cd4565b86600281518110612415576124156145cd565b60200260200101819052506040518060a001604052808381526020018281526020018781526020018681526020018481525097505050505050505095945050505050565b600061246f8484670de0b6b3a764000085613138565b949350505050565b82816040015160038151811061248f5761248f6145cd565b60200260200101516004815181106124a9576124a96145cd565b6020026020010181815250508181604001516004815181106124cd576124cd6145cd565b60200260200101516004815181106124e7576124e76145cd565b602090810291909101015282156125f457835173ffffffffffffffffffffffffffffffffffffffff1660009081526069602052604080822090830151805186939190600390811061253a5761253a6145cd565b6020026020010151600081518110612554576125546145cd565b602002602001015173ffffffffffffffffffffffffffffffffffffffff1673ffffffffffffffffffffffffffffffffffffffff168152602001908152602001600020600083604001516003815181106125af576125af6145cd565b60200260200101516002815181106125c9576125c96145cd565b6020026020010151815260200190815260200160002060008282546125ee9190614914565b90915550505b81156126f657835173ffffffffffffffffffffffffffffffffffffffff1660009081526069602052604080822090830151805185939190600490811061263c5761263c6145cd565b6020026020010151600081518110612656576126566145cd565b602002602001015173ffffffffffffffffffffffffffffffffffffffff1673ffffffffffffffffffffffffffffffffffffffff168152602001908152602001600020600083604001516004815181106126b1576126b16145cd565b60200260200101516002815181106126cb576126cb6145cd565b6020026020010151815260200190815260200160002060008282546126f09190614233565b90915550505b7f17a5c0f3785132a57703932032f6863e7920434150aa1dc940e567b440fdce1f33826040015160405161272b929190614ec5565b60405180910390a1608081015151156127bc5783604001516020015173ffffffffffffffffffffffffffffffffffffffff1663946aadc6826060015183608001516040518363ffffffff1660e01b8152600401612789929190614ef4565b600060405180830381600087803b1580156127a357600080fd5b505af11580156127b7573d6000803e3d6000fd5b505050505b83602001511561198557600084604001516000015173ffffffffffffffffffffffffffffffffffffffff16636715f825866040015160200151846060015161280b896040015160400151613193565b86604001516040518563ffffffff1660e01b815260040161282f9493929190614dcb565b600060405180830381865afa15801561284c573d6000803e3d6000fd5b505050506040513d6000823e601f3d9081017fffffffffffffffffffffffffffffffffffffffffffffffffffffffffffffffe01682016040526128929190810190614e61565b91505060008151111561155a5784604001516020015173ffffffffffffffffffffffffffffffffffffffff1663946aadc68360600151836040518363ffffffff1660e01b81526004016128e6929190614ef4565b600060405180830381600087803b15801561290057600080fd5b505af1158015612914573d6000803e3d6000fd5b505050505050505050565b61294a6040518060800160405280600081526020016000815260200160008152602001600081525090565b6129756040518060800160405280600081526020016000815260200160008152602001600081525090565b602083015183516129949161298c91906001612459565b855190611a1a565b8152602084015184516129b5916129ad91906001612459565b845190611a1a565b60208083019190915284015181516129ce916001612459565b6040820152602080840151908201516129e8916001612459565b60608201529392505050565b606073ffffffffffffffffffffffffffffffffffffffff83163b612a9a576040517f08c379a000000000000000000000000000000000000000000000000000000000815260206004820152602660248201527f416464726573733a2064656c65676174652063616c6c20746f206e6f6e2d636f60448201527f6e747261637400000000000000000000000000000000000000000000000000006064820152608401610572565b6000808473ffffffffffffffffffffffffffffffffffffffff1684604051612ac29190614f0d565b600060405180830381855af49150503d8060008114612afd576040519150601f19603f3d011682016040523d82523d6000602084013e612b02565b606091505b5091509150612b2a82826040518060600160405280602781526020016150f7602791396131be565b95945050505050565b6000612b95826040518060400160405280602081526020017f5361666545524332303a206c6f772d6c6576656c2063616c6c206661696c65648152508573ffffffffffffffffffffffffffffffffffffffff166131d79092919063ffffffff16565b8051909150156118a45780806020019051810190612bb39190614f1f565b6118a4576040517f08c379a000000000000000000000000000000000000000000000000000000000815260206004820152602a60248201527f5361666545524332303a204552433230206f7065726174696f6e20646964206e60448201527f6f742073756363656564000000000000000000000000000000000000000000006064820152608401610572565b6000600882511015612c5357506000919050565b506008015167ffffffffffffffff1667ff0a89c674ee78741490565b6040805160038082526080820190925260609160009190602082018480368337505050602081019590955250506040830191909152606082015290565b60408051600580825260c08201909252606091600091906020820160a0803683375050506020810197909752505060408501939093526060840191909152608083015260a082015290565b60606000825167ffffffffffffffff811115612d1557612d15613a80565b604051908082528060200260200182016040528015612d3e578160200160208202803683370190505b509050600080845111612d52576000612d58565b83516001015b855160010101905060008167ffffffffffffffff811115612d7b57612d7b613a80565b604051908082528060200260200182016040528015612dae57816020015b6060815260200190600190039081612d995790505b5090506000612dbb6131e6565b828281518110612dcd57612dcd6145cd565b602002602001018190525060005b8751811015612e2b578180600101925050878181518110612dfe57612dfe6145cd565b6020026020010151838381518110612e1857612e186145cd565b6020908102919091010152600101612ddb565b5085511561300557808060010191505083828281518110612e4e57612e4e6145cd565b602002602001018190525060005b865181101561300357612f2d878281518110612e7a57612e7a6145cd565b602002602001015160000151612f0a612eb78a8581518110612e9e57612e9e6145cd565b6020026020010151602001518051602090810291012090565b6040517f19457468657265756d205369676e6564204d6573736167653a0a3332000000006020820152603c8101829052600090605c01604051602081830303815290604052805190602001209050919050565b898481518110612f1c57612f1c6145cd565b6020026020010151604001516131f2565b612f66576040517f52bf984800000000000000000000000000000000000000000000000000000000815260048101829052602401610572565b868181518110612f7857612f786145cd565b60200260200101516000015173ffffffffffffffffffffffffffffffffffffffff16858281518110612fac57612fac6145cd565b6020026020010181815250508180600101925050868181518110612fd257612fd26145cd565b602002602001015160200151838381518110612ff057612ff06145cd565b6020908102919091010152600101612e5c565b505b5095945050505050565b6000602082901b77ffffffffffffffffffffffffffffffffffffffff00000000166002176106a4565b6000826012111561306d57601283900360018316156130635761305b85826133bf565b915050611a2b565b61305b858261340d565b60128311156130b6577fffffffffffffffffffffffffffffffffffffffffffffffffffffffffffffffee830160028316156130ac5761305b8582613439565b61305b85826134bf565b5082611a2b565b60008360ff168360ff1611156130fb5783830360028316156130ee576130e6868260ff16613439565b91505061246f565b6130e6868260ff166134bf565b8260ff168460ff16111561312f578284036001831615613122576130e6868260ff166133bf565b6130e6868260ff1661340d565b50929392505050565b6000806131468686866134ee565b9050600183600281111561315c5761315c614f3c565b14801561317957506000848061317457613174614f6b565b868809115b15612b2a57613189600182614914565b9695505050505050565b600062010000602083901b77ffffffffffffffffffffffffffffffffffffffff0000000016176106a4565b606083156131cd575081611a2b565b611a2b83836135bb565b606061246f84846000856135ff565b6060611ccf3330611cd4565b60008060006132018585613718565b9092509050600081600481111561321a5761321a614f3c565b14801561325257508573ffffffffffffffffffffffffffffffffffffffff168273ffffffffffffffffffffffffffffffffffffffff16145b1561326257600192505050611a2b565b6000808773ffffffffffffffffffffffffffffffffffffffff16631626ba7e60e01b8888604051602401613297929190614f9a565b604080517fffffffffffffffffffffffffffffffffffffffffffffffffffffffffffffffe08184030181529181526020820180517bffffffffffffffffffffffffffffffffffffffffffffffffffffffff167fffffffff000000000000000000000000000000000000000000000000000000009094169390931790925290516133209190614f0d565b600060405180830381855afa9150503d806000811461335b576040519150601f19603f3d011682016040523d82523d6000602084013e613360565b606091505b5091509150818015613373575080516020145b80156133b3575080517f1626ba7e00000000000000000000000000000000000000000000000000000000906133b19083016020908101908401614345565b145b98975050505050505050565b6000604e82106133e35782156133d65760016133d9565b60005b60ff1690506106a4565b600a82900a8084816133f7576133f7614f6b565b049150808202841461164f575060010192915050565b6000604e8210156134305781600a0a838161342a5761342a614f6b565b04611a2b565b50600092915050565b6000604e821061347957821561346f577fffffffffffffffffffffffffffffffffffffffffffffffffffffffffffffffff613472565b60005b90506106a4565b50600a81900a828102908381838161349357613493614f6b565b041461164f577fffffffffffffffffffffffffffffffffffffffffffffffffffffffffffffffff61246f565b600a81900a6134ce8184614fb3565b9050604e82106106a4578215613430576134e982600a6150ea565b611a2b565b600080807fffffffffffffffffffffffffffffffffffffffffffffffffffffffffffffffff858709858702925082811083820303915050806000036135465783828161353c5761353c614f6b565b0492505050611a2b565b80841161355257600080fd5b60008486880960026001871981018816978890046003810283188082028403028082028403028082028403028082028403028082028403029081029092039091026000889003889004909101858311909403939093029303949094049190911702949350505050565b8151156135cb5781518083602001fd5b806040517f08c379a00000000000000000000000000000000000000000000000000000000081526004016105729190614d70565b606082471015613691576040517f08c379a000000000000000000000000000000000000000000000000000000000815260206004820152602660248201527f416464726573733a20696e73756666696369656e742062616c616e636520666f60448201527f722063616c6c00000000000000000000000000000000000000000000000000006064820152608401610572565b6000808673ffffffffffffffffffffffffffffffffffffffff1685876040516136ba9190614f0d565b60006040518083038185875af1925050503d80600081146136f7576040519150601f19603f3d011682016040523d82523d6000602084013e6136fc565b606091505b509150915061370d8783838761375d565b979650505050505050565b600080825160410361374e5760208301516040840151606085015160001a613742878285856137fd565b94509450505050613756565b506000905060025b9250929050565b606083156137f35782516000036137ec5773ffffffffffffffffffffffffffffffffffffffff85163b6137ec576040517f08c379a000000000000000000000000000000000000000000000000000000000815260206004820152601d60248201527f416464726573733a2063616c6c20746f206e6f6e2d636f6e74726163740000006044820152606401610572565b508161246f565b61246f83836135bb565b6000807f7fffffffffffffffffffffffffffffff5d576e7357a4501ddfe92f46681b20a083111561383457506000905060036138e3565b6040805160008082526020820180845289905260ff881692820192909252606081018690526080810185905260019060a0016020604051602081039080840390855afa158015613888573d6000803e3d6000fd5b50506040517fffffffffffffffffffffffffffffffffffffffffffffffffffffffffffffffe0015191505073ffffffffffffffffffffffffffffffffffffffff81166138dc576000600192509250506138e3565b9150600090505b94509492505050565b6000606082840312156138fe57600080fd5b50919050565b60006060828403121561391657600080fd5b611a2b83836138ec565b73ffffffffffffffffffffffffffffffffffffffff8116811461034e57600080fd5b60008060008060006080868803121561395a57600080fd5b853561396581613920565b9450602086013561397581613920565b935060408601359250606086013567ffffffffffffffff8082111561399957600080fd5b818801915088601f8301126139ad57600080fd5b8135818111156139bc57600080fd5b8960208285010111156139ce57600080fd5b9699959850939650602001949392505050565b6000602082840312156139f357600080fd5b8135611a2b81613920565b600060208284031215613a1057600080fd5b813567ffffffffffffffff811115613a2757600080fd5b820160808185031215611a2b57600080fd5b600060c082840312156138fe57600080fd5b600060208284031215613a5d57600080fd5b813567ffffffffffffffff811115613a7457600080fd5b61246f84828501613a39565b7f4e487b7100000000000000000000000000000000000000000000000000000000600052604160045260246000fd5b6040516060810167ffffffffffffffff81118282101715613ad257613ad2613a80565b60405290565b604051601f82017fffffffffffffffffffffffffffffffffffffffffffffffffffffffffffffffe016810167ffffffffffffffff81118282101715613b1f57613b1f613a80565b604052919050565b801515811461034e57600080fd5b8035613b4081613b27565b919050565b600060608284031215613b5757600080fd5b613b5f613aaf565b90508135613b6c81613920565b81526020820135613b7c81613920565b60208201526040820135613b8f81613920565b604082015292915050565b600067ffffffffffffffff821115613bb457613bb4613a80565b5060051b60200190565b803560ff81168114613b4057600080fd5b600060608284031215613be157600080fd5b613be9613aaf565b90508135613bf681613920565b8152613c0460208301613bbe565b60208201526040820135604082015292915050565b600082601f830112613c2a57600080fd5b81356020613c3f613c3a83613b9a565b613ad8565b82815260609283028501820192828201919087851115613c5e57600080fd5b8387015b85811015613c8157613c748982613bcf565b8452928401928101613c62565b5090979650505050505050565b600060e08284031215613ca057600080fd5b60405160a0810167ffffffffffffffff8282108183111715613cc457613cc4613a80565b8160405282935084359150613cd882613920565b818352613ce760208601613b35565b6020840152613cf98660408701613b45565b604084015260a0850135915080821115613d1257600080fd5b613d1e86838701613c19565b606084015260c0850135915080821115613d3757600080fd5b50613d4485828601613c19565b6080830152505092915050565b600082601f830112613d6257600080fd5b813567ffffffffffffffff811115613d7c57613d7c613a80565b613dad60207fffffffffffffffffffffffffffffffffffffffffffffffffffffffffffffffe0601f84011601613ad8565b818152846020838601011115613dc257600080fd5b816020850160208301376000918101602001919091529392505050565b600082601f830112613df057600080fd5b81356020613e00613c3a83613b9a565b82815260059290921b84018101918181019086841115613e1f57600080fd5b8286015b84811015613f4457803567ffffffffffffffff80821115613e4357600080fd5b908801906060828b037fffffffffffffffffffffffffffffffffffffffffffffffffffffffffffffffe0011215613e7a5760008081fd5b613e82613aaf565b86830135613e8f81613920565b815260408381013583811115613ea55760008081fd5b8401603f81018d13613eb75760008081fd5b88810135613ec7613c3a82613b9a565b81815260059190911b82018301908a8101908f831115613ee75760008081fd5b928401925b82841015613f055783358252928b0192908b0190613eec565b858c0152505050606084013583811115613f1f5760008081fd5b613f2d8d8a83880101613d51565b918301919091525085525050918301918301613e23565b509695505050505050565b60008060008060006101408688031215613f6857600080fd5b853567ffffffffffffffff80821115613f8057600080fd5b613f8c89838a01613c8e565b96506020880135915080821115613fa257600080fd5b613fae89838a01613c8e565b9550613fbd8960408a01613a39565b9450610100880135915080821115613fd457600080fd5b613fe089838a01613ddf565b9350610120880135915080821115613ff757600080fd5b5061400488828901613ddf565b9150509295509295909350565b6000806020838503121561402457600080fd5b823567ffffffffffffffff8082111561403c57600080fd5b818501915085601f83011261405057600080fd5b81358181111561405f57600080fd5b8660208260051b850101111561407457600080fd5b60209290920196919550909350505050565b60005b838110156140a1578181015183820152602001614089565b50506000910152565b600081518084526140c2816020860160208601614086565b601f017fffffffffffffffffffffffffffffffffffffffffffffffffffffffffffffffe0169290920160200192915050565b600081518084526020808501808196508360051b8101915082860160005b8581101561413c57828403895261412a8483516140aa565b98850198935090840190600101614112565b5091979650505050505050565b602081526000611a2b60208301846140f4565b60008060006060848603121561417157600080fd5b833561417c81613920565b9250602084013561418c81613920565b929592945050506040919091013590565b600080604083850312156141b057600080fd5b82356141bb81613920565b946020939093013593505050565b6000602082840312156141db57600080fd5b813567ffffffffffffffff8111156141f257600080fd5b820160e08185031215611a2b57600080fd5b7f4e487b7100000000000000000000000000000000000000000000000000000000600052601160045260246000fd5b818103818111156106a4576106a4614204565b803561425181613920565b73ffffffffffffffffffffffffffffffffffffffff16825260208181013590830152604090810135910152565b73ffffffffffffffffffffffffffffffffffffffff8416815260a081016142a86020830185614246565b826080830152949350505050565b8183528181602085013750600060208284010152600060207fffffffffffffffffffffffffffffffffffffffffffffffffffffffffffffffe0601f840116840101905092915050565b600073ffffffffffffffffffffffffffffffffffffffff808916835280881660208401525085604083015284606083015260a060808301526133b360a0830184866142b6565b60006020828403121561435757600080fd5b5051919050565b600082357fffffffffffffffffffffffffffffffffffffffffffffffffffffffffffffffa183360301811261439257600080fd5b9190910192915050565b60008083357fffffffffffffffffffffffffffffffffffffffffffffffffffffffffffffffe18436030181126143d157600080fd5b83018035915067ffffffffffffffff8211156143ec57600080fd5b6020019150600581901b360382131561375657600080fd5b81835260007f07ffffffffffffffffffffffffffffffffffffffffffffffffffffffffffffff83111561443657600080fd5b8260051b80836020870137939093016020019392505050565b600081518084526020808501945080840160005b8381101561447f57815187529582019590820190600101614463565b509495945050505050565b6060808252810185905260006080600587901b8301810190830188835b89811015614556577fffffffffffffffffffffffffffffffffffffffffffffffffffffffffffffff8086850301835281357fffffffffffffffffffffffffffffffffffffffffffffffffffffffffffffffe18c360301811261450857600080fd5b8b01602081810191359067ffffffffffffffff82111561452757600080fd5b81360383131561453657600080fd5b6145418783856142b6565b965094850194939093019250506001016144a7565b505050828103602084015261456c818688614404565b905082810360408401526133b3818561444f565b60008060006060848603121561459557600080fd5b83516145a081613920565b60208501519093506145b181613920565b60408501519092506145c281613920565b809150509250925092565b7f4e487b7100000000000000000000000000000000000000000000000000000000600052603260045260246000fd5b60008083357fffffffffffffffffffffffffffffffffffffffffffffffffffffffffffffffe184360301811261463157600080fd5b83018035915067ffffffffffffffff82111561464c57600080fd5b60200191503681900382131561375657600080fd5b60008083357fffffffffffffffffffffffffffffffffffffffffffffffffffffffffffffffe184360301811261469657600080fd5b83018035915067ffffffffffffffff8211156146b157600080fd5b602001915060608102360382131561375657600080fd5b6000606082840312156146da57600080fd5b611a2b8383613bcf565b600081518084526020808501945080840160005b8381101561447f578151805173ffffffffffffffffffffffffffffffffffffffff1688528381015160ff168489015260409081015190880152606090960195908201906001016146f8565b600073ffffffffffffffffffffffffffffffffffffffff80835116845260208301511515602085015260408301518181511660408601528160208201511660608601528160408201511660808601525050606082015160e060a08501526147ad60e08501826146e4565b9050608083015184820360c0860152612b2a82826146e4565b600073ffffffffffffffffffffffffffffffffffffffff8087168352808616602084015250608060408301526147ff6080830185614743565b905082606083015295945050505050565b73ffffffffffffffffffffffffffffffffffffffff851681528360208201526060604082015260006131896060830184866142b6565b600082357fffffffffffffffffffffffffffffffffffffffffffffffffffffffffffffff8183360301811261439257600080fd5b60006080823603121561488c57600080fd5b6040516080810167ffffffffffffffff82821081831117156148b0576148b0613a80565b8160405284359150808211156148c557600080fd5b6148d136838701613c8e565b8352602085013560208401526040850135604084015260608501359150808211156148fb57600080fd5b5061490836828601613ddf565b60608301525092915050565b808201808211156106a4576106a4614204565b600073ffffffffffffffffffffffffffffffffffffffff808716835260206080818501528651608080860152614961610100860182614743565b90508188015160a086015260408089015160c08701526060808a01517fffffffffffffffffffffffffffffffffffffffffffffffffffffffffffffff808885030160e08901528381518086528686019150868160051b870101878401935060005b82811015614a3a577fffffffffffffffffffffffffffffffffffffffffffffffffffffffffffffffe088830301845284518a815116835289810151878b850152614a0e8885018261444f565b91890151848303858b0152919050614a2681836140aa565b968b0196958b0195935050506001016149c2565b50948a019b909b5250509095019590955250919695505050505050565b600061012073ffffffffffffffffffffffffffffffffffffffff87168352806020840152614a8781840187614743565b90508281036040840152614a9b8186614743565b9150508235606083015260208301356080830152604083013560a0830152606083013560c0830152608083013560e083015260a083013561010083015295945050505050565b60007fffffffffffffffffffffffffffffffffffffffffffffffffffffffffffffffff8203614b1257614b12614204565b5060010190565b60006106a43683613c8e565b60008083357fffffffffffffffffffffffffffffffffffffffffffffffffffffffffffffffe1843603018112614b5a57600080fd5b830160208101925035905067ffffffffffffffff811115614b7a57600080fd5b60608102360382131561375657600080fd5b8183526000602080850194508260005b8581101561447f578135614baf81613920565b73ffffffffffffffffffffffffffffffffffffffff16875260ff614bd4838501613bbe565b16878401526040828101359088015260609687019690910190600101614b9c565b600073ffffffffffffffffffffffffffffffffffffffff8086168352606060208401528435614c2381613920565b811660608401526020850135614c3881613b27565b151560808401526040850135614c4d81613920565b811660a08401526060850135614c6281613920565b811660c08401526080850135614c7781613920565b1660e0830152614c8a60a0850185614b25565b60e0610100850152614ca161014085018284614b8c565b915050614cb160c0860186614b25565b7fffffffffffffffffffffffffffffffffffffffffffffffffffffffffffffffa085840301610120860152614ce7838284614b8c565b9350505050826040830152949350505050565b73ffffffffffffffffffffffffffffffffffffffff8316815260808101611a2b6020830184614246565b606081526000614d3760608301866140f4565b8281036020840152614d49818661444f565b90508281036040840152613189818561444f565b602081526000611a2b6020830184614743565b602081526000611a2b60208301846140aa565b600081518084526020808501808196508360051b8101915082860160005b8581101561413c578284038952614db984835161444f565b98850198935090840190600101614da1565b73ffffffffffffffffffffffffffffffffffffffff851681528360208201528260408201526080606082015260006131896080830184614d83565b600082601f830112614e1757600080fd5b81516020614e27613c3a83613b9a565b82815260059290921b84018101918181019086841115614e4657600080fd5b8286015b84811015613f445780518352918301918301614e4a565b60008060408385031215614e7457600080fd5b825167ffffffffffffffff80821115614e8c57600080fd5b614e9886838701614e06565b93506020850151915080821115614eae57600080fd5b50614ebb85828601614e06565b9150509250929050565b73ffffffffffffffffffffffffffffffffffffffff8316815260406020820152600061246f6040830184614d83565b82815260406020820152600061246f604083018461444f565b60008251614392818460208701614086565b600060208284031215614f3157600080fd5b8151611a2b81613b27565b7f4e487b7100000000000000000000000000000000000000000000000000000000600052602160045260246000fd5b7f4e487b7100000000000000000000000000000000000000000000000000000000600052601260045260246000fd5b82815260406020820152600061246f60408301846140aa565b80820281158282048414176106a4576106a4614204565b600181815b8085111561502357817fffffffffffffffffffffffffffffffffffffffffffffffffffffffffffffffff0482111561500957615009614204565b8085161561501657918102915b93841c9390800290614fcf565b509250929050565b60008261503a575060016106a4565b81615047575060006106a4565b816001811461505d576002811461506757615083565b60019150506106a4565b60ff84111561507857615078614204565b50506001821b6106a4565b5060208310610133831016604e8410600b84101617156150a6575081810a6106a4565b6150b08383614fca565b807fffffffffffffffffffffffffffffffffffffffffffffffffffffffffffffffff048211156150e2576150e2614204565b029392505050565b6000611a2b838361502b56fe416464726573733a206c6f772d6c6576656c2064656c65676174652063616c6c206661696c6564a2646970667358221220d5bb911949286700042fa7ace6855fb3d74ba532b4092dacdd005191bde7520364736f6c63430008120033496e697469616c697a61626c653a20636f6e7472616374206973206e6f742069",
  "linkReferences": {},
  "deployedLinkReferences": {}
}